:020000040804EE
:10000000A0D70120CD2204083505040837050408CF
:100010003B0504083F0504084305040800000000F0
:100020000000000000000000000000004705040878
:1000300049050408000000004B0504084D050408AC
:10004000E7220408E7220408E72204082D15040823
:10005000E7220408E7220408E7220408E72204084C
:10006000E7220408E7220408E7220408E72204083C
:10007000E7220408E7220408E7220408E72204082C
:10008000E7220408E7220408E7220408E72204081C
:10009000DB0C0408E7220408E7220408E72204082E
:1000A000E7220408E7220408E7220408E7220408FC
:1000B000359A04082999040847230508E72204080B
:1000C000E7220408E7220408E7220408E7220408DC
:1000D000E72204087F20040803210408872104087C
:1000E000E72204080F150408E7220408E7220408A1
:1000F000E7220408E7220408E7220408E7220408AC
:10010000E7220408E7220408A9990408E722040862
:10011000CB210408E7220408E7220408E7220408A8
:10012000E7220408E7220408E7220408E72204087B
:10013000E7220408E7220408E7220408E72204086B
:10014000E722040871100408E7220408E7220408E3
:10015000E7220408E7220408E72204084F220408E3
:10016000E7220408E7220408E7220408E72204083B
:10017000E7220408E7220408E7220408E72204082B
:10018000E7220408E722040800F002F800F089F8EA
:100190000AA090E8000C82448344AAF10107DA45E2
:1001A00001D100F07EF8AFF2090EBAE80F0013F0AB
:1001B000010F18BFFB1A43F001031847987C010098
:1001C000B87C01000A444FF0000C10F8013B13F01A
:1001D000070408BF10F8014B1D1108BF10F8015BA0
:1001E000641E05D010F8016B641E01F8016BF9D193
:1001F00013F0080F1EBF10F8014BAD1C0C1B09D1EA
:100200006D1E58BF01F801CBFAD505E014F8016B5B
:1002100001F8016B6D1EF9D59142D6D370470000ED
:100220000023002400250026103A28BF78C1FBD8FF
:10023000520728BF30C148BF0B607047702913F0C8
:100240001382662916F0F882652916F0F582036894
:100250001B0A28BF41F08001642913F05B817529D6
:1002600013F05881782913F0F281E42913F08C817E
:10027000732913F09287002070471FB516F0D7FA44
:1002800013F0E0FF04000020002115F05FFC401C8B
:1002900060600020002115F06FFCE0601FBD10B50C
:1002A00010BD14F08BF81146FFF7E7FF00F0B0F82F
:1002B00014F0A9F803B4FFF7F2FF03BC01F0B8FB98
:1002C0004FF0010080F31388014802490160FEE706
:1002D0000CED00E00400FA050146087800097047BB
:1002E00001460878C0F3C00070470146087840F026
:1002F0000800704701460878C0F341007047014686
:10030000087800F00100704708B5A82001F0F6FA5F
:1003100001F040F94FF4A06001F0F8FF09F0AFFDE3
:10032000002011F0BEFC5A4811F0BAFD00214FF434
:10033000805011F0F3FA5749086000214FF48060B3
:1003400011F0ECFA5449086000214FF4806011F07C
:10035000E5FA52490860524801F013FD4FF4E130CC
:1003600001F05FFC4F4801F0B6FC4F484168542053
:10037000884700F0F5F900F0E7FF00214FF4006036
:1003800011F0CCFA4949086000214FF4006011F0E7
:10039000C5FA47490860002006231A460521009047
:1003A00000F035FC002006231A460521009000F0DD
:1003B000D5FD00F0C9FF40F2EE21062001F088FAD9
:1003C00006F089FD07F0C8F908F0A2FA08F084FCED
:1003D0000DF035FF3548006858B13548006840B128
:1003E0002E48006828B12C48006810B129480068E0
:1003F00030B9304930A013F01DF84FF0FF3008BD80
:1004000042F2CF014FF47A7009F033FB0120F6E796
:10041000314832490860324C324E334F334D01205F
:100420003349087033490870FFF76EFF324813F004
:1004300001F832480DF0CCFF30488368426801680B
:100440002FA012F0F7FF0DF0B3FF8046414633A016
:1004500012F0F0FF1BE012F01FFE01F084FB01F030
:100460002BF901F011F92946204606F0FEFC394629
:10047000304607F058F908F01BFC0CF012FA0DF0AA
:1004800089FD09F0A9FC09F07BFB0DF0BFFFE2E755
:1004900088070020BC000020C0000020B800002019
:1004A00038C10100D8AC070014050020140000205A
:1004B000180000202C69050825733A206D616C6CCA
:1004C0006F6320636D64206F722061636B206572BF
:1004D000726F72210D0A00000000040808ED00E0B0
:1004E0003C060020C6060020060700204607002024
:1004F000D0000020B1000020547205082C06002016
:100500006D63752049442069733A5B305825582043
:10051000253858202538585D0D0A0000466C617357
:10052000682073697A652069733A5B2564204B42C1
:100530005D0D0A00704700BFFEE700BFFEE700BF89
:10054000FEE700BFFEE77047704770477047000046
:100550000CB50020019000907648006840F480308F
:100560007449086000BF7348006800F400300090D0
:100570000198401C0190009818B90198B0F5A04F5F
:10058000F1D16C48006800F4003010B101200090F7
:1005900001E0002000900098012846D165484030D5
:1005A000006840F08050634940310860624800684C
:1005B00040F44040604908605E48083000685D498A
:1005C000083108600846006840F4004008600846AA
:1005D000006840F4A05008605848091F0860081FD0
:1005E000006840F08070091F086000BF5148006833
:1005F00000F000700028F9D040F205705049086002
:100600004C480830006820F003004A49083108606F
:100610000846006840F00200086000BF4548083006
:10062000006800F00C000828F8D10CBD10B5454852
:10063000006840F47000434908603E48006840F09C
:1006400001003C49086000203A49083108603948F7
:1006500000683D490840374908603C48091D08606A
:10066000081F006820F48020091F0860002031491D
:100670000C310860FFF76CFF4FF0006031498039A2
:10068000086010BD70B50020002202230024022162
:10069000284D08352D6805F00C0020B1042806D03F
:1006A000082834D107E02A4D2A4E356033E02A4D20
:1006B000284E35602FE01F4D2D1D2D68C5F3805449
:1006C0001C4D2D1D2D6805F03F0154B1224DB5FB89
:1006D000F1F5184E361D3668C6F3881605FB06F28E
:1006E00009E01B4DB5FBF1F5124E361D3668C6F319
:1006F000881605FB06F20F4D2D1D2D68C5F301452B
:100700006D1C6B00B2FBF3F5124E356003E0104D2B
:10071000104E356000BF00BF064D08352D68C5F38B
:1007200003150E4E705D0B4D2D68C540094E3560AA
:1007300070BD0000003802400070004008544007BF
:10074000003C024088ED00E0FFFFF6FE1030002480
:100750000024F4000000002000127A0004000020B1
:100760001CB50121202002F065F94FF4C060009013
:1007700001208DF8040000208DF8060003208DF87C
:10078000050001208DF807006946044801F0B4FE19
:100790004FF4C061014801F02BFF1CBD0014024062
:1007A000014608780009704701460878C0F3C00088
:1007B00070470146087840F0080070470146087805
:1007C000C0F3410070470146087800F0010070470F
:1007D0007FB505460026287C00287DD1FE480068AC
:1007E00040F00100FC4908600846006820F47C5095
:1007F00008600846006840F460600860F748F64901
:10080000143108602878382867DC28783828FBDC21
:10081000002400BFD2E0F048001D00680121A14083
:100820000843ED49091D0860EB481C3000680121B0
:10083000A1408843E8491C310860E748403050F83F
:1008400034000021E448403040F8341068680088E3
:10085000E34901EA4051E048403040F83410701C50
:10086000C0B206462978884218D1DB48403050F89B
:100870003410686800884FF6FF7202EA40100143A6
:10088000D548403040F83410D3481C30006801216E
:10089000A1400843D0491C31086093E06868801C7F
:1008A0006860CD48403050F83410686800884FF6D2
:1008B000FF7202EA40100143C748403040F834104C
:1008C000701CC0B20646297888420CD1C2481C3040
:1008D00000680121A14001E05CE151E10843BE490B
:1008E0001C3108606EE06868801C6860BA4840305F
:1008F00000EBC40040680021B748403000EBC40062
:10090000416068680088B64901EA4051B248403009
:1009100000EBC4004160701CC0B2064629788842D2
:100920001AD1AD48403000EBC400416868680088C7
:100930004FF6FF7202EA40100143A748403000EB37
:10094000C4004160A4481C3001680120A04001435C
:10095000A1481C30016035E06868801C68609E48D2
:10096000403000EBC4004168686800884FF6FF72B1
:1009700002EA401001439848403000EBC400416057
:10098000701CC0B206462978884209D192481C30B2
:1009900001680120A04001438F481C30016011E034
:1009A0006868801C68608C481C3000680121A14088
:1009B000084389491C310860601CC4B22878A042F1
:1009C0003FF729AF00BF0E240E26D3E08248001D5A
:1009D00000680121A14008437F49091D08607E4845
:1009E0001C3000680121A14088437B491C3108600C
:1009F0007948403050F8340000217748403040F8C2
:100A00003410E8680088764901EA40517248403065
:100A100040F83410701CC1B20E4628890E30814255
:100A200018D16D48403050F83410E86800884FF60F
:100A3000FF7202EA401001436748403040F834102A
:100A400065481C3001680120A040014362481C3009
:100A5000016094E0E868801CE8605F48403050F82E
:100A60003410E86800884FF6FF7202EA4010014334
:100A70005948403040F83410701CC1B20E462889E5
:100A80000E30814209D154481C3000680121A14038
:100A9000084351491C31086071E0E868801CE86037
:100AA0004D48403000EBC400406800214A484030C7
:100AB00000EBC4004160E8680088494901EA405100
:100AC0004548403000EBC4004160701CC1B20E4686
:100AD00028890E3081421AD13F48403000EBC400D3
:100AE0004168E86800884FF6FF7202EA401001434F
:100AF0003948403000EBC400416037481C30006882
:100B00000121A140084334491C31086037E0E868FE
:100B1000801CE8603048403000EBC4004168E86861
:100B200000884FF6FF7202EA401001432A48403025
:100B300000EBC4004160701CC1B20E4628890E3023
:100B4000814209D124481C3000680121A14008439A
:100B500021491C31086012E0E868801CE8601E48EA
:100B60001C3001680120A04001431B481C3001607B
:100B7000601CC4B228890E30A0423FF727AF02E0C4
:100B8000012004B070BD1448006820F00100124933
:100B900008603AE000208DF80A008DF80B00012073
:100BA0008DF80C000020ADF80000ADF80200ADF8A3
:100BB0000400ADF80600ADF8080001208DF80D0026
:100BC000684602F058FB10208DF80A0000208DF8CE
:100BD0000B00012006E000000066004000C0FF0F8F
:100BE0000000FFFF8DF80C000020ADF80000ADF80C
:100BF0000200ADF80400ADF806000120ADF80800D1
:100C00008DF80D00684602F036FB0020B9E72DE9AB
:100C1000F04186B004460D4616461F46DDF830808A
:100C20000121022001F006FF0121480601F04BFFDF
:100C30004FF44070049002208DF8140000208DF8CD
:100C4000160003208DF8150001208DF8170004A967
:100C5000F74801F051FC09221146F54801F0D7FC94
:100C600009220821F24801F0D2FCF24802F060FAB1
:100C700000208DF80A008DF80B008DF80C008DF81F
:100C80000D008DF80E008DF80F008DF806808DF8A0
:100C900007408DF808608DF80950ADF8047001A97F
:100CA000E44802F05EFAE448FFF792FD01220221D7
:100CB000E04802F0DFFD14208DF8000000208DF8E0
:100CC000010001208DF802008DF80300684601F054
:100CD00022FB002006B0BDE8F08130B58BB00024C7
:100CE0000025D6480068401CD449086006AA0021A7
:100CF000D04802F0A4FCAA208DF80000BB208DF89B
:100D000001009DF82200C01DC0B28DF80200012034
:100D10008DF803009DF8200070B900208DF80400C4
:100D20008DF805000698C0F302208DF8060006989D
:100D3000C0B28DF8070010E00798C0F304608DF88A
:100D400004000798000C8DF805000798000A8DF83C
:100D500006000798C0B28DF807009DF820008DF8B6
:100D600008009DF821008DF80900002407E00DF12E
:100D70002300015D04F10A000DF80010641C9DF8C9
:100D80002200A042F3DCAE48006810F070FEAC49CF
:100D900009684968091A9DF822000A30814209D37E
:100DA0009DF8220000F10A026946A548006810F08B
:100DB00082FE05469DF822000A30A84209D0A048CC
:100DC000006801699DF822000A3008449C490968BE
:100DD00008610BB030BDF0B585B007460D46002464
:100DE00012200090019000208DF808008DF8090075
:100DF0008DF80A5000BF05E0395D0DF10B0001557B
:100E0000601C84B2AC42F7DB69468A4802F022FBE0
:100E10000646002401E0601C84B23146854802F099
:100E2000B1FB18B940F6FF708442F4DB40F6FF7066
:100E3000844202DB012005B0F0BD0020FBE72DE974
:100E4000F04186B0074688461546002401971220D7
:100E5000029000208DF80C008DF80D008DF80E50DA
:100E600000BF06E018F804100DF10F000155601CDA
:100E700084B2AC42F6DB01A96E4802F0EBFA0646FA
:100E8000002401E0601C84B231466A4802F07AFB1B
:100E900018B940F6FF708442F4DB40F6FF708442DC
:100EA00003DB012006B0BDE8F0810020FAE72DE960
:100EB000F04786B005460F4690469946DDF838A0C3
:100EC0000024019502958DF80C708DF80D808DF839
:100ED0000EA000BF06E019F804100DF10F00015537
:100EE000601C84B25445F6DB01A9524802F0B2FA04
:100EF0000646002401E0601C84B231464D4802F0F1
:100F000041FB18B940F6FF708442F4DB40F6FF70F5
:100F1000844203DB012006B0BDE8F0870020FAE739
:100F200030B585B005460021424802F00BFC10B9EF
:100F3000002005B030BD6A4600213E4802F07FFB2C
:100F4000002404E00DF10B00005D2855641C9DF8A1
:100F50000A00A042F6D89DF80A00EAE72DE9F04120
:100F600086B004460D4616461F46DDF83080012146
:100F7000022001F05FFD01214FF0C06001F0A3FDF0
:100F80006020049002208DF8140000208DF81600D7
:100F900003208DF8150001208DF8170004A92448BE
:100FA00001F0AAFA09220521214801F030FB0922AB
:100FB00006211F4801F02BFB224802F0B9F800205F
:100FC0008DF80A008DF80B008DF80C008DF80D00DF
:100FD0008DF80E008DF80F008DF806808DF8074013
:100FE0008DF808608DF80950ADF8047001A9154816
:100FF00002F0B7F8012802D013A012F01BFA012268
:101000001021104802F036FC41208DF8000000202D
:101010008DF8010002208DF8020001208DF80300F8
:10102000684601F078F9002006B0BDE8F0810000C4
:10103000000402400064004088000020A00000205E
:1010400014000020006800406572726F72202D3E0F
:1010500020696E69742063616E323A2043414E5FAD
:10106000496E6974206661696C2E0D0A00000000EB
:1010700030B58BB0002400259E480068401C9D4977
:10108000086006AA01219C4802F0D9FAAA208DF82E
:101090000000BB208DF801009DF82200C01DC0B2E9
:1010A0008DF8020001208DF803009DF8200070B932
:1010B00000208DF804008DF805000698C0F302208A
:1010C0008DF806000698C0B28DF8070010E007986A
:1010D000C0F304608DF804000798000C8DF805003B
:1010E0000798000A8DF806000798C0B28DF807002F
:1010F0009DF820008DF808009DF821008DF809006A
:10110000002407E00DF12300015D04F10A000DF851
:101110000010641C9DF82200A042F3DC77480068B0
:1011200010F0A5FC754909684968091A9DF8220064
:101130000A30814209D39DF8220000F10A02694673
:101140006E48006810F0B7FC05469DF822000A3092
:10115000A84209D06948006801699DF822000A3058
:1011600008446649096808610BB030BDF0B585B028
:1011700007460D46002412200090019000208DF8B3
:1011800008008DF809008DF80A5000BF05E0395DB0
:101190000DF10B000155601C84B2AC42F7DB6946CF
:1011A000554802F057F90646002401E0601C84B25D
:1011B0003146514802F0E6F918B940F6FF70844212
:1011C000F4DB40F6FF70844202DB012005B0F0BD85
:1011D0000020FBE72DE9F04186B00746884615461A
:1011E000002401971220029000208DF80C008DF849
:1011F0000D008DF80E5000BF06E018F804100DF138
:101200000F000155601C84B2AC42F6DB01A93A48DC
:1012100002F020F90646002401E0601C84B2314649
:10122000354802F0AFF918B940F6FF708442F4DB9C
:1012300040F6FF70844203DB012006B0BDE8F08178
:101240000020FAE72DE9F04786B005460F469046A4
:101250009946DDF838A00024019502958DF80C70B0
:101260008DF80D808DF80EA000BF06E019F804106F
:101270000DF10F000155601C84B25445F6DB01A945
:101280001D4802F0E7F80646002401E0601C84B225
:101290003146194802F076F918B940F6FF708442D9
:1012A000F4DB40F6FF70844203DB012006B0BDE8AA
:1012B000F0870020FAE730B585B0054600210E48DA
:1012C00002F040FA10B9002005B030BD6A46002196
:1012D000094802F0B4F9002404E00DF10B00005DB0
:1012E0002855641C9DF80A00A042F6D89DF80A0013
:1012F000EAE70000A8000020006800401800002075
:10130000F8B504460D4617461E468DF800408DF888
:1013100001508DF802708DF803606946002003F0DB
:10132000B3FBF8BDF8B504460D4617461E468DF8CA
:1013300002708DF801508DF800608DF80340694609
:10134000002003F03FFCF8BD3EB541F6FF740121DB
:10135000080701F0B8FB012004F07BF9002003F03E
:10136000EFFF45F25001884232D0012001F0FFF931
:1013700004E0601C84B20A2000F022FB412001F04E
:10138000AFF90028F5D00CB901203EBD4FF48070B4
:1013900001F0EEFA012001F006FB7F200190FF2012
:1013A000029000200090684603F0D3FA0023382210
:1013B0003B211720FFF7A4FF0123052211460E2031
:1013C000FFF7B0FF45F25001002003F0ACFF17E03B
:1013D000012001F0CCF904E0601C84B2052000F08B
:1013E000EFFA412001F07CF90028F5D0002001F04F
:1013F000DAFA4FF4807001F0BBFA012001F0D3FA61
:101400000020C2E7F0B587B004460D4616461F46D9
:1014100000214FF4807003F015FD8DF800508DF819
:1014200001608DF8027000208DF803008DF81040E7
:101430004FF080400390002002900098019001AA94
:101440004FF48071002003F046FC4FF4805004F00C
:1014500059F84FF4003004F0E8F80121080303F0D4
:10146000E5FF0121080203F0EDFC4FF40030059088
:1014700000208DF8180008208DF8190001208DF843
:101480001A0005A804F060F82920344908700220E9
:10149000487088700120C870084600F03CFF07B013
:1014A000F0BD7CB505460C46002003F050FD2846F3
:1014B00003F028FD204603F03AFD4FF4804004F08D
:1014C00021F84FF4800004F0B0F80121880303F004
:1014D000ADFF012003F03BFD4FF4800000900020A1
:1014E0008DF8040008208DF8050001208DF8060015
:1014F000684604F029F80320184908700220487053
:1015000088700120C870084600F005FF7CBD10B54A
:101510004FF4807003F0B9FF012802D1000203F0FC
:10152000C5FF4FF4003004F080F810BD10B54FF443
:10153000806003F0AAFF01280AD1800203F0B6FF01
:101540000748006808B9012000E00020044908604D
:101550004FF4800004F069F810BD0000AC000020DA
:10156000A88242420146087800097047014608787F
:10157000C0F3C00070470146087840F0080070478B
:1015800001460878C0F3410070470146087800F032
:10159000010070471FB50121042001F04BFA012121
:1015A000082001F047FA4FF49050009001208DF888
:1015B000040000208DF8060003208DF805000020AF
:1015C0008DF807006946564800F096FF00205549FF
:1015D00008605549C1F8A40240F6F240029001208B
:1015E0008DF80C0000208DF80E0003208DF80D0002
:1015F00000208DF80F0002A94C4800F07DFF00206C
:101600004B490860091D0860494910390860091FE5
:10161000086047490C390860454918390860444951
:10162000243908601FBD434A107098B10121404A17
:101630001160414AC2F8AC123D4A103A1160121FC3
:1016400011603B4A0C3A1160394A243A1160354A1C
:10165000116018E00021334A1160374AC2F8A8121D
:10166000334A121D1160324A103A1160121F116084
:101670002F4A0C3A11602E4A243A11602F4A1170F9
:1016800001212F4A1170704700B52E48007828B10B
:1016900000202C4908700120FFF7C5FF00BD70B580
:1016A00004462546287810B10020FFF7BCFF2649E4
:1016B00026A011F0BFFE70BD3EB52B480078002873
:1016C0002DD000202849087028A011F0B3FEAA20D0
:1016D0008DF80400BB208DF8050001208DF8060070
:1016E0000F208DF8070002210DF1060004F0CEFD59
:1016F0000446E0B28DF80800200A8DF809000023A6
:101700000122062101A805F0D7FE0A480023AFF206
:10171000710240F6980100901BA008F0D6F93EBD7A
:1017200000080240B002414200004142000C024069
:10173000A8824142B200002000804142B300002054
:10174000D0000020B10000203669050825733A203A
:1017500063616C6C20696E20322E32207365636F7A
:101760006E64732E0D0A0000B00000206D416E649F
:10177000726F696453687574446F776E50656E64F8
:10178000696E670D0A000000696F6374725F7469A7
:101790006D65720001460868704701464148814204
:1017A00001D2002070474048814201D20820F9E769
:1017B0003E48814201D21020F4E73D48814201D2E7
:1017C0001820EFE73B48814201D22020EAE73A485F
:1017D000814201D22820E5E73848814201D23020F9
:1017E000E0E73748814201D23820DBE735488142C3
:1017F00001D24020D6E73448814201D24820D1E7C7
:101800003248814201D25020CCE75820CAE730B597
:1018100003460C461546002206E01846FFF7BAFFBD
:1018200044F822001B1D521CAA42F6D330BD2DE9FC
:10183000F84304460D46164609274FF000080020DD
:101840000090B4F1006F02D304F0030010B1204601
:10185000BDE8F88303F0E6FF002003F0C6FF04EBC9
:101860008608092F16D112E02046296804F047F9AE
:10187000092800D00DE0012269462046FFF7C7FF86
:1018800028680099884200D003E0241D2D1D44459E
:10189000EAD300BF012003F0A8FF03F0D0FF2046E9
:1018A000D6E70000004000080080000800C00008E3
:1018B00000000108000002080000040800000608FB
:1018C0000000080800000A0800000C0800000E08CC
:1018D00070B505460C4645F2555004F0AFFA28465F
:1018E00004F0AFFA204604F0AFFA04F0B0FA04F0C6
:1018F000B3FA70BD10B504F0AAFA10BD10B50446D5
:101900006FF0040000F054FDE11704EB5171C1F3D6
:10191000C701394A11701046007800EB4001C1EB55
:10192000C0104FF6FF7101EAC0003449088010BDB5
:101930000146314A12784A434FF0E0235A610022AF
:101940009A611A46126942F001021A6100BF4FF013
:10195000E022106900F001021AB100F48032002A7E
:10196000F5D04FF0E022126922F001024FF0E0239F
:101970001A6100229A6170470146204A12884A4340
:101980004FF0E0235A6100229A611A46126942F030
:1019900001021A6100BF4FF0E022106900F001025D
:1019A0001AB100F48032002AF5D04FF0E02212691B
:1019B00022F001024FF0E0231A6100229A61704781
:1019C00070B504464FF4077094FBF0F0C6B24FF4C4
:1019D000077094FBF0F100FB114085B205E04FF475
:1019E0000770FFF7C9FF701EC6B2002EF7D115B100
:1019F0002846FFF7C1FF70BDB4000020B6000020EC
:101A0000014608780009704701460878C0F3C00015
:101A100070470146087840F0080070470146087892
:101A2000C0F3410070470146087800F0010070479C
:101A3000014600BF704738B504460D46E0B200903D
:101A4000FB4801680068401CF94A10604FF47A6056
:101A500091FBF0F200FB121048B9F648006808B993
:101A6000012000E00020F3490860FFF743FFF2483F
:101A7000007870B1F14800680FF0F9FFEF4909688C
:101A80004968884205D201226946EC48006810F096
:101A900012F8EB48007850B3EA48007850B100BF24
:101AA000E948008800F040000028F9D0E0B2E6499B
:101AB00088801CE0E548007858B100BFE448008801
:101AC00000F040000028F9D0E0B2E149091D08808B
:101AD0000DE0E048007850B100BFDF48008800F01A
:101AE00040000028F9D0E0B2DB49091D08802046FB
:101AF00038BDF0B5A3B006460D46AA208DF8040007
:101B0000BB208DF80500681CC0B28DF806000D20C2
:101B10008DF80700002405E0315D201D01AA115455
:101B2000601CC4B2AC42F7DBA91C0DF1060004F046
:101B3000ADFB0746201D01AA1754390A601D115438
:101B4000A11D0023012201A805F003FD48B12A468A
:101B50003146BA4800680FF0AEFF4FF0FF3023B0B7
:101B6000F0BD0020FBE708B5B44800680FF07FFF28
:101B7000002855D0B9480078802802DB0020B749FA
:101B8000087048E0B64801680068401CB44A10601C
:101B90004FF47A6091FBF0F200FB121058B9A5489F
:101BA000001F006808B9012000E00020A149091FBA
:101BB0000860FFF79FFE01226946A04800680FF009
:101BC0005FFF012821D19DF80010A648A34A127892
:101BD0008154A2480078002818DDA2489F4909785E
:101BE000405C0A2812D19D480078401E9D49085C3F
:101BF0000D280BD199480078401CC1B29948FFF7D5
:101C000078FF00209549087009E008E093480078C3
:101C1000401C92490870914800788028B2DB00BFD0
:101C200008BD10B588B0044601208A49087001211A
:101C3000042000F0FFFE0121C80400F044FF082248
:101C40000A21894800F0E3FC08220B21864800F0B5
:101C5000DEFC4FF44060069002208DF81C008DF8E9
:101C60001D0000208DF81E0001208DF81F0006A920
:101C70007D4800F041FC02940020ADF80C00ADF866
:101C80000E00ADF81000ADF814000C20ADF81200F5
:101C900002A9714801F089F801216F4801F00DF99E
:101CA00040216D4801F0F1F9012240F225516A48C6
:101CB00001F0B9F934208DF8040003208DF80500F7
:101CC00002208DF8060001208DF8070001A800F021
:101CD00022FB08B010BD10B588B0044601210420D5
:101CE00000F0A8FE0121202000F0FEFE08220621BF
:101CF0005D4800F08CFC082207215B4800F087FC5F
:101D0000C020069002208DF81C008DF81D000020D8
:101D10008DF81E0001208DF81F0006A9524800F022
:101D2000EBFB02940020ADF80C00ADF80E00ADF80E
:101D30001000ADF814000C20ADF8120002A94B48B9
:101D400001F033F80121494801F0B7F84021474834
:101D500001F09BF9012240F22551444801F063F95A
:101D600047208DF8040000208DF8050003208DF831
:101D7000060001208DF8070001A800F0CCFA08B099
:101D800010BD10B588B004460121042000F052FEB9
:101D90000121880400F097FE07220821344800F052
:101DA00036FC07220921324800F031FC4FF4407024
:101DB000069002208DF81C008DF81D0000208DF883
:101DC0001E0001208DF81F0006A9294800F094FB91
:101DD00002940020ADF80C00ADF80E00ADF8100034
:101DE000ADF814000C20ADF8120002A9214800F053
:101DF000DCFF01211F4801F060F840211D4801F07F
:101E000044F9012240F225511A4801F00CF927202B
:101E10008DF8040002208DF8050000208DF80600E2
:101E200001208DF8070001A800F075FA08B010BD78
:101E3000CC000020A8824242B2000020B80000205E
:101E4000D0000020C500002000100140C600002086
:101E500000440040C4000020004C0040DC00002092
:101E6000D40000209809002000080240001401401E
:101E7000000C02400048004010B588B00446012024
:101E8000FE4908700121084600F0D4FD0121102010
:101E900000F02AFE07220921F94800F0B8FB0722CA
:101EA0000A21F74800F0B3FB4FF4C060069002200F
:101EB0008DF81C008DF81D0000208DF81E000120FB
:101EC0008DF81F0006A9EE4800F016FB02940020D2
:101ED000ADF80C00ADF80E00ADF81000ADF8140030
:101EE0000C20ADF8120002A9E64800F05EFF0121C7
:101EF000E44800F0E2FF4021E24801F0C6F8012288
:101F000040F22551DF4801F08EF825208DF80400BD
:101F100003208DF8050002208DF8060001208DF8C1
:101F2000070001A800F0F7F908B010BD10B588B09F
:101F300004460220D14908700121084600F07AFDCC
:101F40000121480400F0BFFD0C20069002208DF80E
:101F50001C008DF81D0000208DF81E0001208DF85A
:101F60001F0006A9C64800F0C7FA02940020ADF889
:101F70000C00ADF80E00ADF81000ADF814000C2008
:101F8000ADF8120002A9C04800F00FFF0121BE48C1
:101F900000F093FF4021BC4801F077F8012240F2A5
:101FA0002551B94801F03FF826208DF804000320A0
:101FB0008DF8050002208DF8060001208DF807003D
:101FC00001A800F0A8F908B010BD10B588B004460B
:101FD0002046FFF751FF0121402000F02BFD012199
:101FE000202000F081FD08220921A84800F00FFB05
:101FF00008220E21A54800F00AFB4FF48440069009
:1020000002208DF81C008DF81D0000208DF81E00A8
:1020100001208DF81F0006A99C4800F06DFA02947B
:102020000020ADF80C00ADF80E00ADF81000ADF8D2
:1020300014000C20ADF8120002A9954800F0B5FE7E
:102040000121934800F039FF4021914801F01DF82B
:10205000012240F225518E4800F0E5FF47208DF81F
:10206000040000208DF8050003208DF806000120F3
:102070008DF8070001A800F04EF908B010BD10B5AA
:1020800040F225517F4801F009F838B340F225515C
:102090007C4800F0FAFF7B4800F03EFFC4B27D4868
:1020A000008800F40040C8B97A48008800F48040F5
:1020B00060B10A2C03D000207649088020E07548E2
:1020C000008840F400407349088019E00D2C06D1C7
:1020D0007048008840F480406E49088010E06D48E8
:1020E0000088C0F30D006C490C546A480088401CFD
:1020F0006849088008460088C72801DD002008805C
:1021000010BD10B540F225515F4800F0C7FF38B34D
:1021100040F225515C4800F0B8FF5B4800F0FCFE3F
:10212000C4B25C48008800F40040C8B9594800882F
:1021300000F4804060B10A2C03D00020554908808B
:1021400020E05448008840F400405249088019E0DB
:102150000D2C06D14F48008840F480404D4908803E
:1021600010E04C480088C0F30D004B490C5449481E
:102170000088401C4749088008460088C72801DDC0
:102180000020088010BD38B540F22551434800F0CA
:1021900085FFC8B140F22551404800F076FF3F4826
:1021A00000F0BAFEC0B20090012269463C480068C7
:1021B0000FF081FC0446012C06D039480068006904
:1021C000401C37490968086138BD10B540F22551F7
:1021D000344800F063FF38B340F22551314800F035
:1021E00054FF304800F098FEC4B22A48008800F43A
:1021F0000040C8B92748008800F4804060B10A2C2C
:1022000003D000202349088020E02248008840F4C1
:1022100000402049088019E00D2C06D11D48008897
:1022200040F480401B49088010E01A480088C0F341
:102230000D0019490C5417480088401C15490880A6
:1022400008460088C72801DD0020088010BD38B589
:1022500040F225510E4800F021FF70B140F22551A7
:102260000B4800F012FF0A4800F056FEC0B2009082
:10227000012269460C48006818E023E0C5000020F0
:1022800000000240001001400044004000180240DD
:1022900000140140D8000020180A00200048004027
:1022A000BC000020004C0040C00000200FF003FCE8
:1022B0000446012C06D0044800680069401C02490D
:1022C0000968086138BD0000C00000200948804747
:1022D00009480047FEE7FEE7FEE7FEE7FEE7FEE708
:1022E000FEE7FEE7FEE7FEE704480549054A064B20
:1022F000704700002D06040889010408A0D10120C0
:10230000A0D70120A0D30120A0D30120324901434E
:10231000324A1160704770B5002100230F22C47843
:102320001CB32E4C246804F4E064C4F5E064C4F3E8
:102330000721C1F10404E3B20A4144789C40E1B2B0
:102340008478144021430C07210E254C05786155F3
:10235000047804F01F050124AC4005786D11AD0030
:1023600005F1E025C5F8004109E0047804F01F05F7
:102370000124AC401B4D0678761145F8264070BD0F
:10238000194A0A400243154B1B1F1A60704739B1A6
:10239000124A121D12680243104B1B1D1A6006E000
:1023A0000E4A121D126882430C4B1B1D1A607047A7
:1023B000042808D14FF0E021096941F004014FF0F1
:1023C000E022116107E04FF0E021096921F00401EA
:1023D0004FF0E022116170470000FA050CED00E0BB
:1023E00000E400E080E100E080FFFF1F10B504463C
:1023F0009848844208D10121084600F086FB00215C
:10240000012000F082FB76E09348844208D101214C
:10241000022000F07AFB0021022000F076FB6AE047
:102420008E48844208D10121042000F06EFB002177
:10243000042000F06AFB5EE08948844208D1012153
:10244000082000F062FB0021082000F05EFB52E053
:102450008448844208D10121102000F056FB00215D
:10246000102000F052FB46E07F48844208D1012151
:10247000202000F04AFB0021202000F046FB3AE03B
:102480007A48844208D10121402000F03EFB00211F
:10249000402000F03AFB2EE07548844208D101212B
:1024A000802000F032FB0021802000F02EFB22E093
:1024B0007048844208D10121801500F026FB0021DC
:1024C000A01500F022FB16E06B48844208D10121E0
:1024D000401500F01AFB0021601500F016FB0AE021
:1024E0006648844207D10121001500F00EFB00214F
:1024F000201500F00AFB10BDF0B50A4600210023AC
:10250000002400BF3DE0012505FA01F3156805EA46
:1025100003049C4234D105684F000326BE40B543F6
:10252000056015794E00B54006683543056015799C
:10253000012D02D01579022D16D185684F00032692
:10254000BE40B543856055794E00B5408668354339
:102550008560456801268E40B5434560456896799B
:102560008E40B6B235434560C5684F000326BE4075
:10257000B543C560D5794E00B540C6683543C560E2
:10258000491C1029BFD3F0BD4FF6FF710160002137
:10259000017141718171C171704708B54FF480328A
:1025A0000092009A0A430092009AC261C161009AA7
:1025B000C261C2690092C269009208BD0246002051
:1025C00013690B400BB1012000E000207047014669
:1025D000086980B270470246002053690B400BB176
:1025E000012000E0002070470146486980B2704732
:1025F00001837047418370470AB1018300E0418342
:1026000070474161704742694A4042617047F0B586
:10261000002300244D07ED0E02FA05F3CE1000F161
:10262000200555F826504E07F70E0F26BE40B5433D
:10263000CF1000F1200646F82750CE1000F12005FB
:1026400055F8265045EA0304CE1000F1200545F860
:102650002640F0BD00000240000402400008024095
:10266000000C02400010024000140240001802401A
:10267000001C0240002002400024024000280240CA
:10268000F948006840F00100F74908600020F64969
:1026900008310860F4480068F4490840F2490860CD
:1026A000F348091D0860F348EF4984310860F04899
:1026B0001038091D0860EC48006820F48020EA49C1
:1026C00008600020E8490C310860E7498C31086057
:1026D00070470021E44A921C11701146087070473F
:1026E00010B501460022002300204A11012A02D120
:1026F000DD4C236808E0022A03D1DB4C70342368E8
:1027000002E0D94C7434236801F01F020124944084
:102710001C400CB1012000E0002010BD38B50020A5
:1027200000900024002500BF3120FFF7D9FF0546A7
:102730000098401C00900098B0F5A04F01D0002DEB
:10274000F2D03120FFF7CCFF08B1012400E00024D3
:10275000204638BD01460020C34A106820F0F8002A
:1027600040EAC10010607047C3490860704700210B
:10277000BD4A703211701170012802D004280AD1AC
:1027800004E00121B84A7032117005E00521B64A13
:102790007032117000E000BF00BF7047B749086099
:1027A000704770B5049C41EA82150126C6EB5306BA
:1027B00045EA0645054345EA0465AB4E361D3560DE
:1027C00070BDAD4908667047820142EA0172A64BAE
:1027D00084331A607047A8498866704710B5830132
:1027E00043EA016343EA02739F4C8834236010BDBF
:1027F000A14908677047A049C86470470246002095
:10280000994B0833186820F0EC6042EA0103184342
:10281000954B08331860704702460020924B0833EE
:10282000186820F0784042EA010318438E4B0833C1
:1028300018607047014600208B4A0832106820F06B
:10284000030008431060704787480830006800F0B4
:102850000C00704701460020834A0832106820F0BF
:10286000F000084310607047014600207E4A08329D
:10287000106820F4E05008431060704701460020C3
:10288000794A0832106820F4604040EAC1001060C4
:102890007047F0B500210022002402250026022303
:1028A000714F08373F6807F00C0121B1042905D0AA
:1028B000082937D105E0724F076036E0714F076095
:1028C00033E0694F3F1D3F68C7F38056664F3F1D99
:1028D0003F6807F03F036EB16A4FB7FBF3F7DFF8CD
:1028E00088C10CF1040CDCF800C0CCF3881C07FB99
:1028F0000CF40CE0624FB7FBF3F7DFF86CC10CF19E
:10290000040CDCF800C0CCF3881C07FB0CF4564F19
:102910003F1D3F68C7F301477F1C7D00B4FBF5F7FF
:10292000076002E0564F076000BF00BF4E4F0837F8
:102930003F6807F0F0010909534F7A5C0768D740F8
:102940004760494F08373F6807F4E051890A4E4F06
:102950007A5C4768D7408760434F08373F6807F481
:102960006041490B484F7A5C4768D740C760F0BD6B
:10297000002100F44072B2F5407F0AD13A4A083291
:10298000116821F4F811414A02401143364A0832D5
:102990001160354A70321268C0F30B031A43324B90
:1029A00070331A60704735494439086070473349BD
:1029B000403908607047364908607047014600207A
:1029C000294A8C32106820F01F004A1E1043264A04
:1029D0008C321060704701460020234A8C32106808
:1029E00020F4F8504A1E40EA02201F4A8C32106040
:1029F0007047014600201C4A8C32106820F44010B9
:102A000008431060704701460020174A8C32106856
:102A100020F4400008431060704701460020124A2D
:102A20008C32106820F44030084310607047194918
:102A30000860704739B10C4A3032126802430A4BC1
:102A400030331A6006E0084A303212688243064B7F
:102A500030331A607047F9B1034A343212680243C6
:102A6000014B34331A601CE000380240FFFFF6EAE5
:102A7000103000240030002000004742800E474202
:102A80000024F40000127A00DD000020FFFCFF0F9C
:102A90005C014742E01147428F4A126882438E4BE5
:102AA0001A60704739B18C4A121D126802438A4B72
:102AB0001B1D1A6006E0884A121D12688243864B6D
:102AC0001B1D1A60704739B1834A0C3212680243E9
:102AD000814B0C331A6006E07F4A0C321268824345
:102AE0007D4B0C331A60704739B17B4A1032126843
:102AF0000243794B10331A6006E0774A10321268AD
:102B00008243754B10331A60704739B1724A243AC8
:102B100012680243704B243B1A6006E06E4A243A66
:102B2000126882436C4B243B1A60704739B16A4A81
:102B3000203A12680243684B203B1A6006E0664A5E
:102B4000203A12688243644B203B1A60704739B1C7
:102B5000614A1C3A126802435F4B1C3B1A6006E054
:102B60005D4A1C3A126882435B4B1C3B1A607047FB
:102B700039B1594A143A12680243574B143B1A6050
:102B800006E0554A143A12688243534B143B1A60CC
:102B9000704739B1504A103A126802434E4B103B0D
:102BA0001A6006E04C4A103A126882434A4B103BC6
:102BB0001A60704739B1484A1C3212680243464BCA
:102BC0001C331A6006E0444A1C3212688243424BAE
:102BD0001C331A60704739B13F4A203212680243F1
:102BE0003D4B20331A6006E03B4A20321268824394
:102BF000394B20331A60704739B1374A2432126892
:102C00000243354B24331A6006E0334A24321268FB
:102C10008243314B24331A60704739B12E4A2C322B
:102C2000126802432C4B2C331A6006E02A4A2C32DD
:102C300012688243284B2C331A60704739B1264AF8
:102C4000303212680243244B30331A6006E0224AC5
:102C5000303212688243204B30331A6070470128AB
:102C600008D11D493C31096841F008011A4A3C323B
:102C7000116007E018493C31096821F00801164A43
:102C80003C321160704739B1134A273A1278024337
:102C9000114B273B1A7006E00F4A273A12788243FD
:102CA0000D4B273B1A7070470B484030006840F0CE
:102CB0008070094940310860704701460020064A8B
:102CC000283A12680A400AB1012000E0002070474B
:102CD00001492639087070473438024010B504465F
:102CE000FA48844208D101211020FFF752FF002149
:102CF0001020FFF74EFF57E0F548844209D101212B
:102D00004804FFF735FF00214FF40030FFF730FF94
:102D10004AE0F048844209D101218804FFF728FFE6
:102D200000214FF48020FFF723FF3DE0EA48844272
:102D300009D10121C804FFF71BFF00214FF4002037
:102D4000FFF716FF30E0E548844209D1012108056C
:102D5000FFF70EFF00214FF48010FFF709FF23E07B
:102D6000DF48844208D101212020FFF712FF002113
:102D70002020FFF70EFF17E0DA48844209D1012135
:102D80008807FFF7F5FE00214FF08040FFF7F0FEC7
:102D90000AE0D548844207D101214005FFF7E8FE4B
:102DA00000216005FFF7E4FE10BD2DE9FF47054651
:102DB0000E460024A14600BFA046B08900B100BF66
:102DC0002C8A24F44054F08804432C82AC8941F2CC
:102DD0000C608443B08831890843718908430443F7
:102DE000AC81AC8A24F44074B0890443AC82684658
:102DF000FFF74FFDB548854202D0B948854202D160
:102E0000DDF80C9001E0DDF80890A88900F400409E
:102E100040B109EBC90000EB091031684900B0FB73
:102E2000F1F707E009EBC90000EB091031688900F0
:102E3000B0FBF1F76420B7FBF0F004012009642136
:102E400001FB1078A88900F4004040B1322000EB6B
:102E5000C800B0FBF1F000F00700044308E03220A6
:102E600000EB08106421B0FBF1F000F00F00044308
:102E70002C81BDE8FF874FF416510160002181804D
:102E8000C18001810C21418100218181704710B5F1
:102E900002460020108A20F470600B884C8823437F
:102EA0008C882343CC8823431843108210BD002113
:102EB000018041808180C180704721B1828942F4C4
:102EC0000052828104E082894DF6FF731A408281AC
:102ED0007047028B02F47F420283028B0A43028313
:102EE000704721B1828942F40042828103E08289E5
:102EF000C2F30E028281704721B1828A42F40062DD
:102F0000828204E0828A4FF2FF731A408282704705
:102F1000C1F308028280704701468888C0F3080028
:102F20007047028A4FF6F0731A400282028A0A43FF
:102F30000282704721B1828942F00202828104E05C
:102F400082894FF6FD731A408281704782894FF261
:102F5000FF731A40828182890A4382817047028A04
:102F60004FF6DF731A400282028A0A4302827047D8
:102F700021B1028A42F48042028204E0028A4BF6C6
:102F8000FF731A4002827047818941F001018181FB
:102F9000704721B1828A42F00802828204E0828A6C
:102FA0004FF6F7731A4082827047028BD2B20283C7
:102FB000028B42EA01220283704721B1828A42F0E9
:102FC0002002828204E0828A4FF6DF731A408282F6
:102FD000704721B1828A42F01002828204E0828A24
:102FE0004FF6EF731A4082827047828A4FF6FB7366
:102FF0001A408282828A0A438282704721B1828A81
:1030000042F00202828204E0828A4FF6FD731A4087
:10301000828270471AB1838A0B43838202E0838ADB
:103020008B4383827047F0B50346002400260025B9
:10303000002040F66A17B94200D100BF1846C1F31C
:10304000421401F01F06012707FA06F5012C01D1F1
:103050000C3004E0022C01D1103000E014301AB121
:1030600007682F43076002E00768AF430760F0BDC1
:1030700002460020B1F5007F00D100BF13880B404D
:103080000BB1012000E00020704701F40072B2F59E
:10309000007F00D100BFCA430280704770B502466E
:1030A000002400230025002040F66A16B14200D11A
:1030B00000BFC1F3421501F01F03012606FA03F316
:1030C000012D13D19689334017E000000010014014
:1030D0000044004000480040004C004000500040C8
:1030E0000014014000780040007C0040022D02D115
:1030F000168A334001E0968A33400C12012606FA04
:1031000004F41688344013B10CB1012000E0002013
:1031100070BD10B50022002340F66A14A14200D110
:1031200000BF0A1201249440A3B2DC43048010BD06
:1031300010B50446FE48844209D101214806FFF734
:1031400017FD00214FF00070FFF712FD08E001218C
:103150008806FFF70DFD00214FF08060FFF708FDA6
:1031600010BD30B5024600200023146824F002048C
:103170001460146844F00104146000E05B1C54689F
:1031800004F001041CB94FF6FF74A342F6D1546851
:1031900004F001040CB900206CE08C79012C04D1FE
:1031A000146844F08004146003E0146824F0800480
:1031B0001460CC79012C04D1146844F040041460EC
:1031C00003E0146824F0400414600C7A012C04D14C
:1031D000146844F02004146003E0146824F0200410
:1031E00014604C7A012C04D1146844F0100414606B
:1031F00003E0146824F0100414608C7A012C04D1CC
:10320000146844F00804146003E0146824F008040F
:103210001460CC7A012C04D1146844F004041460C6
:1032200003E0146824F0040414608C78A407CD78BB
:1032300044EA05640D7944EA05444D7944EA0554AD
:103240000D886D1E2C43D461146824F001041460B1
:10325000002300E05B1C546804F001041CB14FF62D
:10326000FF74A342F6D1546804F001040CB10020AD
:1032700000E0012030BD10B50021837A012202FA5E
:1032800003F1AC4A126842F00102AA4B1A60A94A43
:103290001C3212688A43A74B1C331A60027BCAB9DE
:1032A000A44A0C3212688A43A24B0C331A6042883B
:1032B000C38842EA03439F4A4032847A42F834305A
:1032C0000288838842EA03439A4A4032847A02EBB6
:1032D000C4025360027B012A19D1964A0C3212684B
:1032E0000A43944B0C331A604288038842EA034332
:1032F000904A4032847A42F83430C288838842EA65
:1033000003438C4A4032847A02EBC4025360C27A8F
:103310003AB9884A121D12688A43864B1B1D1A60EF
:1033200006E0844A121D12680A43824B1B1D1A6074
:10333000028932B97F4A143212688A437D4B1433B2
:103340001A600289012A06D17A4A143212680A43A5
:10335000784B14331A60427B012A06D1754A1C321D
:1033600012680A43734B1C331A60724A126822F0C7
:103370000102704B1A6010BD00218171C171017290
:1033800041728172C1728170C17003210171022189
:1033900041710121018070476649096841F00101CE
:1033A000644A11601146096843F60E729143614AFE
:1033B00011601146096841EA00211160114609684F
:1033C00021F001011160704721B1026842F480329E
:1033D000026003E0026822F4803202607047E1B1CB
:1033E000026842F0800202604FF4C272125842F446
:1033F00080734FF4C27213504FF4CA72125842F4E1
:1034000080734FF4CA7213504FF4D272125842F4C0
:1034100080734FF4D27213501BE0026822F08002D6
:1034200002604FF4C272125822F480734FF4C272D9
:1034300013504FF4CA72125822F480734FF4CA72B8
:1034400013504FF4D272125822F480734FF4D27298
:103450001350704710B502460020936803F0806354
:10346000B3F1806F00D110E0936803F00063B3F113
:10347000006F01D1012008E0936803F08053B3F19D
:10348000805F01D1022000E00420042879D002F5F9
:10349000C07303EB00131B6803F0010402F5C07353
:1034A00003EB00131C600B7A7BB94B7A0C8843EA60
:1034B000445302F5C07404EB00142468234302F55E
:1034C000C07404EB0014236010E00B7A4C6843EAEC
:1034D000C4034C7A234302F5C07404EB001424683F
:1034E000234302F5C07404EB001423608B7A03F0CD
:1034F0000F038B7202F5C07303EB00135B6823F0BC
:103500000F0402F5C07303EB00135C6002F5C07397
:1035100003EB00135B688C7A234302F5C07404EB61
:10352000001463608B7B1C064B7B44EA034403E07E
:1035300000640040006600400B7B44EA0323CC7A21
:10354000234302F5C07404EB0014A3608B7C1C06BB
:103550004B7C44EA03440B7C44EA0323CC7B2343A7
:1035600002F5C07404EB0014E36002F5C07303EBD2
:1035700000131B6843F0010402F5C07303EB001352
:103580001C6010BD10B50246002321B1012907D0EF
:1035900002290FD109E09068F94C00EA04030BE01E
:1035A0009068F84C00EA040306E09068F64C00EAE4
:1035B000040301E0002300BF00BFF44C181BA3422A
:1035C00016D007DC83B16FF08060184470B1022818
:1035D00018D111E0B0F5007F10D0ED4C204448B177
:1035E000B0F5003F0ED10BE002230DE000230BE00D
:1035F000002309E0002307E0012305E0012303E0A5
:10360000012301E0002300BF00BFD8B210BD21B1EB
:10361000012907D002290FD109E0826842F0800217
:1036200082600AE0826842F40042826005E08268BB
:1036300042F40002826000E000BF00BF704710B596
:1036400000F5D87303EB01131B6803F00403137236
:10365000137A53B900F5D87303EB01131B6840F2DA
:10366000FF7404EA5353136009E000F5D87303EBC9
:1036700001131B686FF0604404EAD303536000F544
:10368000D87303EB01131B6803F00203537200F5B8
:10369000D87303EB01135B6803F00F03937200F51B
:1036A000D87303EB01135B681B0AD37400F5D8735E
:1036B00003EB01139B68D37200F5D87303EB01137E
:1036C0009B681C0A147300F5D87303EB01139B6805
:1036D0001C0C547300F5D87303EB01139B681B0E8D
:1036E000937300F5D87303EB0113DB68D37300F514
:1036F000D87303EB0113DB681C0A147400F5D8734C
:1037000003EB0113DB681C0C547400F5D87303EB56
:103710000113DB681B0E937421B9C36843F02003C7
:10372000C36003E0036943F02003036110BD21B9C6
:10373000C26842F02002C26003E0026942F0200247
:10374000026170470246002019B9D36803F00300F4
:1037500006E0012903D1136903F0030000E0002013
:10376000704710B502460B4600204FF6FF71BBB9FB
:10377000146824F0020444F00104146000E0491EBF
:10378000546804F00304012C01D00029F7D15468D7
:1037900004F00304012C01D0002032E0012030E0CD
:1037A000012B13D1146824F00304146000E0491EB7
:1037B000546804F003040CB10029F8D1546804F0F3
:1037C00003040CB100201CE001201AE0022B17D1E9
:1037D000146824F0010444F00204146000E0491E5F
:1037E000546804F00304022C01D00029F7D1546876
:1037F00004F00304022C01D0002002E0012000E0CC
:10380000002010BD014600200A6822F0010242F0AB
:1038100002020A604A6802F00302022A00D1012073
:10382000704701464FF6FF7200200B6823F0020339
:103830000B6000E0521E4B6803F00203022B01D123
:10384000002AF7D14B6803F00203022B00D00120BD
:103850007047014600208A6902F0700070470146F7
:1038600000208A69100E7047014600208A69C2F361
:10387000074070471AB143690B43436102E0436953
:103880008B434361704710B50246002001F470037A
:1038900043B19369C1F3130423400BB101202DE020
:1038A00000202BE001F0807343B15368C1F313048F
:1038B00023400BB1012021E000201FE001F0006354
:1038C00043B19368C1F3130423400BB1012015E009
:1038D000002013E001F0007343B1D368C1F3130477
:1038E00023400BB1012009E0002007E01369C1F378
:1038F000130423400BB1012000E0002010BD002282
:10390000244B994202D10023836111E0C1F31302D9
:1039100001F000730BB1C2600AE001F080630BB1EB
:10392000026105E001F000630BB1826000E04260DB
:1039300070470246002002EA01030BB1012000E0BB
:103940000020704770B504460D4600266069284087
:10395000002872D0B5F5807F69D01DDC082D42D0DB
:1039600006DC012D2DD0022D31D0042D7FD134E085
:10397000102D3ED0202D42D0402D78D145E00000C2
:103980000300000400030008000003100001000809
:103990000001FFF77000F030B5F5004F61D009DC91
:1039A000B5F5007F4AD0B5F5806F4DD0B5F5006F05
:1039B0005DD150E0B5F5803F2DD0B5F5003F56D133
:1039C0002FE0A0685549FFF7B4FF064651E0E068D4
:1039D0000321FFF7AEFF06464BE0E0680821FFF742
:1039E000A8FF064645E0E0681021FFF7A2FF064663
:1039F0003FE020690321FFF79CFF064639E020697C
:103A00000821FFF796FF064633E020691021FFF7F3
:103A100090FF06462DE060680821FFF78AFF064602
:103A200027E060681021FFF784FF064621E0A069C7
:103A30000121FFF77EFF06461BE01BE0A069022183
:103A4000FFF777FF064614E0A0690421FFF771FF36
:103A500006460EE00BE0A0697021FFF76AFF0646FC
:103A600007E060680421FFF764FF064601E00026D6
:103A700000BF00E00026304670BDB1F5007F3AD0AF
:103A80000FDC202928D006DC01291CD004291DD0F8
:103A9000082940D11DE0402921D0B1F5807F3AD1DD
:103AA00026E0B1F5004F31D006DCB1F5806F25D0AE
:103AB000B1F5006F2FD124E0B1F5803F12D0B1F500
:103AC000003F28D111E0154A826025E00822C2603B
:103AD00022E01022C2601FE0082202611CE01022D6
:103AE000026119E00822426016E01022426013E0F1
:103AF0000422426010E0042242600DE00422426091
:103B00000AE0002282610422426005E00022826114
:103B10000422426000E000BF00BF704701010100C5
:103B200010B50446FE48844208D101210846FFF73B
:103B300030F800210120FFF72CF89DE0B4F1804F10
:103B400008D101210846FFF713F800210120FFF7F3
:103B50000FF891E0F348844208D101210220FFF7D9
:103B600007F800210220FFF703F885E0EE488442C1
:103B700008D101210420FEF7FBFF00210420FEF7FD
:103B8000F7FF79E0E948844208D101210820FEF7D7
:103B9000EFFF00210820FEF7EBFF6DE0E4488442D0
:103BA00008D101211020FEF7E3FF00211020FEF7CD
:103BB000DFFF61E0DF48844208D101212020FEF7C9
:103BC000D7FF00212020FEF7D3FF55E0DA488442DA
:103BD00008D101210220FEF7DCFF00210220FEF7C0
:103BE000D8FF49E0D548844209D101210804FEF7F5
:103BF000D0FF00214FF48030FEF7CBFF3CE0D048EF
:103C0000844209D101214804FEF7C3FF00214FF48B
:103C10000030FEF7BEFF2FE0CA48844209D10121DF
:103C20008804FEF7B6FF00214FF48020FEF7B1FFB5
:103C300022E0C548844208D101214020FEF798FFC8
:103C400000214020FEF794FF16E0C048844208D1CE
:103C500001218020FEF78CFF00218020FEF788FFE5
:103C60000AE0BB48844207D101218015FEF780FF9E
:103C70000021A015FEF77CFF10BD00220288A84B92
:103C800098420ED0AC4B98420BD0B0F1804F08D088
:103C9000A44B984205D0A44B984202D0A34B984223
:103CA00004D14FF68F731A404B881A43A04B9842A9
:103CB00007D0A04B984204D04FF6FF431A400B891F
:103CC0001A4302804B68C3620B880385944B984269
:103CD00002D0994B984201D18B7A038601238382CB
:103CE00070474FF0FF314160002101800181418028
:103CF000817270470185828270470A4600210188DF
:103D00004FF68F731940114301807047416270472D
:103D1000C16270470146486A70470146088D704786
:103D200021B1028842F00202028004E002884FF6CC
:103D3000FD731A400280704721B1028842F00402EC
:103D4000028004E002884FF6FB731A40028070473D
:103D500021B1028842F08002028004E002884FF61E
:103D60007F731A400280704702884FF6F7731A403B
:103D7000028002880A430280704702884FF6FF43A0
:103D80001A40028002880A430280704721B10288EB
:103D900042F00102028004E002884FF6FE731A40EE
:103DA0000280704770B5002400220023058C4FF676
:103DB000FE7635400584028C8388048B4FF68F7520
:103DC0002C40B51E2C400D882C43751E2A408D8931
:103DD0002A434D882A43524DA84202D0564DA8424C
:103DE00013D14FF6F7752A40CD892A434FF6FB755C
:103DF0002A408D882A434FF6FF652B404FF6FF552A
:103E00002B400D8A2B434D8A2B43838004838D687E
:103E10004563028470BD70B5002400220023058C28
:103E20004FF6EF7635400584028C8388048B48F684
:103E3000FF752C404FF6FF452C400D884FF6FF765E
:103E400006EA05252C434FF6DF752A408D8906EAE0
:103E500005152A434D8806EA05152A43304DA84228
:103E600002D0354DA8421DD14FF67F752A40CD892D
:103E70004FF6FF7606EA05152A434FF6BF752A402E
:103E80008D8806EA05152A434FF6FF352B404FF281
:103E9000FF752B400D8A06EA85052B434D8A06EAFD
:103EA00085052B43838004838D688563028470BD00
:103EB00070B5002400220023058C4FF6FF663540C4
:103EC0000584028C8388848B4FF68F752C404FF6C7
:103ED000FC752C400D882C434FF6FF552A408D89E8
:103EE0004FF6FF7606EA05252A434D8806EA0525A2
:103EF0002A430B4DA84202D00F4DA84238D14FF2B1
:103F0000FF752A40CD894FF6FF7606EA05252A433C
:103F10004FF6FF352A408D8806EA05252A4319E029
:103F2000000001400004004000080040000C004078
:103F30000010004000140040000401400040014017
:103F4000004401400048014000180040001C0040AF
:103F5000002000404EF6FF752B404DF6FF752B40BC
:103F60000D8A06EA05152B434D8A06EA05152B43F3
:103F7000838084838D68C563028470BD70B5002220
:103F800000230024058C4EF6FF7635400584038C13
:103F90008488828B48F6FF752A404FF6FF452A40F9
:103FA0000D884FF6FF7606EA05252A434DF6FF7584
:103FB0002B408D8906EA05352B434D8806EA0535E9
:103FC0002B43FE4DA84202D0FD4DA84208D14BF62E
:103FD000FF752C400D8A4FF6FF7606EA85152C43B7
:103FE000848082838D680564038470BD0021018014
:103FF0004180818081608181C181018241827047DD
:1040000070B50346002000241846183001258D4065
:10401000ACB21D8CA5431D8409B108290AD100EB5F
:10402000610005684FF68F763540056005681543D9
:1040300005600FE00D1FC5F34E052844056848F6DE
:10404000FF763540056005684FF6FF7606EA0226E2
:104050003543056070BD4163704781637047C1633C
:104060007047016470470A460021018B4FF68F7339
:1040700019401143018370470A460021018B48F61D
:10408000FF7319404FF6FF7303EA022319430183BC
:1040900070470A460021818B4FF68F7319401143F8
:1040A000818370470A460021818B48F6FF731940CF
:1040B0004FF6FF7303EA02231943818370470A46D0
:1040C0000021018B4FF6F7731940114301837047AC
:1040D0000A460021018B4FF2FF7319404FF6FF7320
:1040E00003EA02231943018370470A460021818BAA
:1040F0004FF6F77319401143818370470A46002138
:10410000818B4FF2FF7319404FF6FF7303EA0223CE
:104110001943818370470A460021018B4FF6FB73D8
:1041200019401143018370470A460021018B4FF665
:10413000FF3319404FF6FF7303EA0223194301834B
:1041400070470A460021818B4FF6FB7319401143DB
:10415000818370470A460021818B4FF6FF33194057
:104160004FF6FF7303EA02231943818370470A461F
:104170000021018B4FF67F73194011430183704773
:104180000A460021018BC1F30E014FF6FF7303EACB
:1041900002231943018370470A460021818B4FF6A1
:1041A0007F7319401143818370470A460021818B38
:1041B000C1F30E014FF6FF7303EA02231943818313
:1041C00070470A460021018C4FF6FD7319401143D8
:1041D000018470470A460021018C4FF6F77319409D
:1041E0001143018470470A460021018C4FF6DF73AA
:1041F00019404FF6FF7303EA021319430184704715
:104200000A460021018C4FF67F7319404FF6FF7369
:1042100003EA02131943018470470A460021018C06
:104220004FF6FF5319404FF6FF7303EA0223194379
:10423000018470470A460021018C4FF2FF73194038
:104240004FF6FF7303EA02231943018470470A46BD
:104250000021018C4DF6FF7319404FF6FF7303EAFE
:10426000023319430184704730B5002301248C4088
:10427000A3B2048C9C430484048C02FA01F5ADB211
:104280002C43048430BD30B5002304248C40A3B2F9
:10429000048C9C430484048C02FA01F5ADB22C43D7
:1042A000048430BD828B4FF2FF331A408283828BAD
:1042B0004FF6FF7303EA01231A4382837047F0B578
:1042C0000C461546002100220026078C4EF6FF7C86
:1042D00007EA0C070784818B028C4FF6FF7707EA09
:1042E000043640F6FF4739404FF6FF7707EA0527C7
:1042F00039434FF6FF7707EA0337394345F6FF772F
:104300003A4046F480573A4381830284F0BD828B61
:104310004FF6F3731A408283828B0A43828370477D
:10432000F0B50C461546002100220026078C4FF6FA
:10433000FF6C07EA0C070784818B028C4FF6FF772E
:1043400007EA04264FF60C7739404FF6FF7707EA65
:1043500003172F4339434FF2FF573A4046F4807713
:104360003A4381830284F0BD028B4FF2FF331A403F
:104370000283028B4FF6FF7303EA01231A43028381
:104380007047F0B50C461546002100220026078C28
:104390004FF6EF7C07EA0C070784018B028C4FF67F
:1043A000FF7707EA041640F6FF4739404FF6FF77DC
:1043B00007EA033739434FF6FF7703E00000014077
:1043C0000004014007EA052739434FF65F773A407A
:1043D00046F010073A4301830284F0BD028B4FF68A
:1043E000F3731A400283028B0A4302837047F0B5CD
:1043F0000C46154600210022068C4FF6FE773E4003
:104400000684018B028C4FF60C7631407E1C06EA46
:1044100003162E4331434FF6F576324044F0010641
:10442000324301830284F0BD70B505460C462088F6
:1044300050B92389A28861882846FFF7D8FFE18810
:104440002846FFF7CBFF25E0208804280AD12389DE
:10445000A28861882846FFF794FFE1882846FFF785
:1044600083FF17E0208808280AD12389A288618861
:104470002846FFF755FFE1882846FFF748FF09E087
:104480002389A28861882846FFF719FFE18828461A
:10449000FFF708FF70BD002101804180012181806C
:1044A0000021C180018170472DE9F04105460C468D
:1044B00000260127608808B9022600E00026A088AF
:1044C000012801D1022700E001272088A0B9238913
:1044D000A28861882846FFF78AFFE1882846FFF70F
:1044E0007DFF23893A4631462846FFF74AFFE18897
:1044F0002846FFF739FF13E02389A2886188284600
:10450000FFF73FFFE1882846FFF72EFF23893A4651
:1045100031462846FFF76BFFE1882846FFF75EFF2C
:10452000BDE8F0810146486B70470146886B7047D3
:104530000146C86B70470146086C70470A884B8873
:104540001A438B881A43CB881A430B891A434B8929
:104550001A438B891A43A0F8442070470021018038
:1045600041808180C180018141818181704731B169
:10457000B0F8442042F40042A0F8442005E0B0F82E
:104580004420C2F30E02A0F84420704721B1828873
:1045900042F00402828004E082884FF6FB731A40E6
:1045A0008280704721B1828842F00102828004E05B
:1045B00082884FF6FE731A40828070471AB1838951
:1045C0000B43838102E083898B438381704781821F
:1045D000704702460020138A0B400BB1012000E017
:1045E00000207047CA430282704730B5024600205F
:1045F00000230024158A05EA0103958905EA0104D0
:1046000013B10CB1012000E0002030BDCA4302828A
:10461000704741EA0203A0F8483070471AB1838915
:104620000B43838102E083898B438381704721B1EF
:10463000828842F00802828004E082884FF6F77395
:104640001A408280704701894FF6F872114001814B
:1046500070470A46002101894FF68F7319401143B4
:104660000181704730B504460D4629462046FFF7C4
:10467000F0FF208940F00700208130BD2DE9F04196
:1046800004460D4616461F46602D06D13B460122C4
:1046900031462046FFF775FE05E03B4601223146D4
:1046A0002046FFF7A4FE29462046FFF7D2FF2089C7
:1046B00040F007002081BDE8F08130B50C460021B4
:1046C0000189C9B24FF6FF7505EA03251543254355
:1046D0002943018130BD2DE9F04105460E461746BC
:1046E0009846002443463A4631462846FFF7E5FF00
:1046F0002C894FF6F870044044F007044FF68F7091
:10470000044044F070042C81BDE8F081F0B504460B
:104710000D4616461F463B46324629462046FFF7C1
:10472000CCFF208940F480402081F0BD82884FF684
:104730008F731A40828082880A4382807047028980
:104740004FF6F8731A40028102890A4302817047CA
:1047500002894FF67F731A40028102890A4302815F
:104760007047F0B50C4615461E4600210022002376
:104770000189028B038C4FF6F877394021434FF6BD
:10478000FC473A4040F201173A434FF6DD773B4091
:104790004FF6FF7707EA06172F433B430181028359
:1047A0000384F0BD21B1828842F08002828004E05F
:1047B00082884FF67F731A4082807047A0F85010AD
:1047C0007047000008B50022009200200021CA2294
:1047D000F94B1A6053221A60F74A183A126822F00D
:1047E000A002F54B183B1A6000BFF34A183A126852
:1047F00002F02001009A521C0092009AB2F5003F8C
:1048000001D00029F1D0EC4A183A126802F02002D7
:104810000AB1012000E00020FF22E74B1A6008BD2A
:1048200008B50022009200200021E34A183A1268DD
:1048300002F04002E2B9421EDF4B183B1A6000BF93
:10484000DD4A183A126802F04001009A521C0092A8
:10485000009AB2F5803F01D00029F1D0D64A183A2B
:10486000126802F040020AB1012002E0002000E0DC
:10487000012008BD38B50020009000240025CA2082
:10488000CD49086053200860FFF7CAFF00B952E025
:104890000020C9492439086042F20110091D08604E
:1048A000081D006800F00700091D086000BFC2482D
:1048B0001838006800F004040098401C009000982C
:1048C000B0F5803F01D0002CF1D0BB48183800680B
:1048D00000F0040008B900252DE0B7481C38006836
:1048E0000020B5491C3908604FF6FF70B2491039F5
:1048F0000860B248091F08600020AF490C39086001
:10490000091D0860091D0860AB4908310860AA4903
:1049100018310860A84920310860091D0860A649BF
:1049200018390860A4491C310860FFF74BFF08B92B
:10493000002500E00125FF209F490860284638BD7A
:104940009D481838006820F080009B49183908609D
:10495000704730B504460025CA20974908605320A7
:104960000860FFF75DFF00B91DE093481C38006840
:1049700020F0400090491C39086008460068216812
:1049800008438D491C3908608B491439A0680860B8
:1049900008460068A18840EA014087491439086048
:1049A000FFF7CEFF0125FF2083490860284630BD70
:1049B000002101607F214160FF218160704718B1B3
:1049C000FF217D4A116004E0CA217B4A1160532116
:1049D0001160704730B504460025CA20764908604A
:1049E00053200860FFF71CFF00B914E044B172487F
:1049F0001C38006840F010006F491C39086007E05F
:104A00006D481C38006820F010006B491C390860A4
:104A1000FFF796FF0125FF2067490860284630BD53
:104A2000CA21654A11605321116040B162491C39A5
:104A3000096841F02001604A1C3A116007E05E49B4
:104A40001C39096801F0DF015B4A1C3A1160FF2143
:104A5000594A116070470146002204E0501CC2B25E
:104A6000A1F10A00C1B20A29F8DA100741EA106080
:104A70007047014600BF080900EB8000420001F0CA
:104A80000F001044C0B270472DE9F04105460C46B6
:104A90000026002755B948481C38006800F040003F
:104AA00000B102E00020E07000BF0EE042481C3878
:104AB000006800F0400020B12078FFF7DAFF0646DA
:104AC00002E00020E07000BF00BF55B12078000474
:104AD000617840EA0120A1780843E17840EA014684
:104AE00011E02078FFF7B7FF4FEA00486078FFF742
:104AF000B2FF48EA0028A078FFF7ADFF48EA0008B7
:104B0000E07848EA0046CA202B4908605320086034
:104B1000FFF786FE08B9002714E0294830402649EF
:104B200024390860FFF70CFF23481C38006800F0A8
:104B3000200030B9FFF746FE08B9002702E0012740
:104B400000E00127FF201C4908603846BDE8F081DD
:104B50000021C170017041708170704770B50646C8
:104B60000C460025144824380068154900EA010560
:104B7000C5F305402070C5F30620607005F07F0086
:104B8000A07005F48000000CE0705EB92078FFF79B
:104B900070FF20706078FFF76CFF6070A078FFF7FF
:104BA00068FFA07070BD00200349091D0868024914
:104BB000203909687047000024280040FF007F006A
:104BC0007F7F7F002DE9F04105460C460026002737
:104BD0004DB9607800F01000102804D1607820F002
:104BE00010000A30607005B908E06078FFF741FFF7
:104BF0000646A078FFF73DFF064600BF55B1E078B6
:104C00000004617840EA0120A1780843217840EA55
:104C1000413611E0E078FFF71EFF4FEA0048607868
:104C2000FFF719FF48EA0028A078FFF714FF48EAC9
:104C30000008207848EA4036CA20FE490860532020
:104C40000860FFF7EDFD08B9002714E0FA4830408E
:104C5000F84920390860FFF773FEF6481C380068F1
:104C600000F0200030B9FFF7ADFD08B9002702E0E1
:104C7000012700E00127FF20EE4908603846BDE823
:104C8000F08101210170817041700021C170704775
:104C900070B506460C460025E64820380068E6490F
:104CA00000EA0105280CE070C5F30420607005F0EF
:104CB0003F00A070C5F3423020705EB9E078FFF786
:104CC000D8FEE0706078FFF7D4FE6070A078FFF740
:104CD000D0FEA07070BD2DE9F04105460E46144689
:104CE00000276DB9D3481C38006800F0400000B1BF
:104CF00002E00020E07000BFA06800B91AE019E0EF
:104D0000CC481C38006800F0400020B12078FFF744
:104D1000B0FE074602E00020E07000BFA06820B9A6
:104D2000207BFFF7A6FE074604E0207BFFF7A1FEED
:104D3000074600BF95B120780004617840EA012061
:104D4000A1780843E17840EA0140217B40EA016014
:104D5000A1680843616840EA01071BE02078FFF77B
:104D60007AFE4FEA00486078FFF775FE48EA0028AF
:104D7000A078FFF770FE48EA0008E07848EA0048AB
:104D8000207BFFF768FE48EA0060A168084361687D
:104D900040EA0107CA20A749086053200860B6F519
:104DA000807F03D1A3480838076002E0A148001FB4
:104DB0000760FF209F490860BDE8F0810021C170B5
:104DC0000170417081708160012101730021416097
:104DD00070472DE9F04106460F4614460025B7F509
:104DE000807F03D193480838056802E09148001F8E
:104DF0000568C5F305402070C5F30620607005F016
:104E00007F00A07005F48000000CE070C5F3056021
:104E1000207305F08040A06005F0803060607EB9AE
:104E20002078FFF726FE20706078FFF722FE607082
:104E3000A078FFF71EFEA070207BFFF71AFE2073FC
:104E4000BDE8F08138B5024600240094002300201C
:104E5000CA24784D2C6053242C6041B1754C1C3C05
:104E600024681443734D1C3D2C6001201EE0714CDE
:104E70001C3C246894436F4D1C3D2C6000BF6D4C5E
:104E8000183C246804EA1223009C641C0094009CD3
:104E9000B4F5803F01D0002BF1D0664C183C24685B
:104EA00004EA12240CB9002000E00120FF24614D27
:104EB0002C6038BD30B50023CA245E4D2C605324CD
:104EC0002C6041EA0203B0F5807F03D1594C2034B5
:104ED000236002E0574C24342360FF24554D2C609E
:104EE00030BD01460020B1F5807F05D1514A203206
:104EF0001268C2F30E0004E04E4A24321268C2F374
:104F00000E007047CA214B4A116053211160494974
:104F10001C39096821F00701464A1C3A1160114604
:104F2000096801431160FF21424A11607047CA219C
:104F3000404A1160532111603E4910390860FF2139
:104F4000116070473B481038006880B2704718B550
:104F500001460023009300220020CA23354C236021
:104F60005323236049B1334B1C3B1B6843F48063DC
:104F7000304C1C3C236001201FE02E4B1C3B1B6867
:104F800023F480632B4C1C3C236000BF294B183B4F
:104F90001B6803F00402009B5B1C0093009BB3F5AD
:104FA000803F01D0002AF1D0224B183B1B6803F050
:104FB00004030BB9002000E00120FF231D4C2360F7
:104FC00018BDCA221B4B1A6053221A60194A1C3A98
:104FD000126822F48022174B1C3B1A601A46126892
:104FE00040EA01031A43134B1C3B1A60FF22114B8A
:104FF0001A6070470F481C38006800F48020704722
:10500000CA220C4B1A6053221A600A4A1C3A1268D0
:1050100022F4E002074B1C3B1A601A46126840EA71
:1050200001031A43034B1C3B1A60FF22014B1A6019
:1050300070470000242800403FFFFF0070B5044681
:105040000D460026CA20F649086053200860FFF785
:10505000E7FB00B907E044EA0500F1490C390860B4
:10506000FFF76EFC0126FF20ED490860304670BD59
:1050700030B504460025CA20E9490860532008607D
:10508000FFF7CEFB00B914E044B1E5481C380068D6
:1050900040F08000E2491C39086007E0E0481C3815
:1050A000006820F08000DE491C390860FFF748FCEA
:1050B0000125FF20DA490860284630BDCA21D84AB8
:1050C00011605321116040B1D5491C39096841F480
:1050D0000001D34A1C3A116007E0D1491C39096824
:1050E00021F40001CE4A1C3A1160FF21CC4A116024
:1050F0007047CA21CA4A116053211160C8491C393E
:10510000096821F40021C64A1C3A11601146096859
:1051100001431160FF21C24A1160704770B5034618
:1051200000200024CA25BE4E356053253560BC4D95
:10513000183D2D6805F4803555B100E0641CB84D6C
:10514000183D2D6805F4803515B1B4F5003FF5D153
:10515000B34D183D2D6805F480353DB943EA01058E
:105160001543AF4E18363560012000E00020FF25C2
:10517000AB4E356070BD10B50A460021A84B1C3BF4
:105180001B6840F6080423EA04011AB140F40063E6
:10519000194300E00143CA23A14C23605323236039
:1051A0009F4B1C3B1960FF23236010BD2DE9F0418C
:1051B00080460C4615460026002799480C300068AA
:1051C000984900EA0106964810300068964900EABE
:1051D0000107C6F305402070C6F30620607006F094
:1051E0007F00A07006F48000000CE0700020E870E2
:1051F000C7F30420687007F03F00A870C7F342307F
:105200002870B8F1000F17D12078FFF732FC20701A
:105210006078FFF72EFC6070A078FFF72AFCA07082
:105220006878FFF726FC6870A878FFF722FCA87062
:105230002878FFF71EFC2870BDE8F081784814300C
:105240000068704741B9764A1C32126822EA40026F
:10525000734B1C331A6007E0714A1C32126842EA31
:1052600040026F4B1C331A60704739B16C4A1C32D4
:10527000126802436A4B1C331A6006E0684A1C320B
:1052800012688243664B1C331A60704764491C31B4
:10529000096821F4C051624A1C3211601146096844
:1052A0000143116070475E491C31096821F4E061D7
:1052B0005B4A1C3211601146096801431160704756
:1052C00057491C31096821F4C041554A1C3211600C
:1052D0001146096801431160704740B150491C31C3
:1052E000096841F080014E4A1C32116007E04C49C8
:1052F0001C31096821F08001494A1C321160704755
:1053000040B147491C31096821F40041444A1C322C
:10531000116007E042491C31096841F40041404AEC
:105320001C321160704708B5002200923C4A2C32B2
:105330000092009A02EB80020092009A116008BD70
:1053400008B501460020009035482C3000900098A8
:1053500000EB810000900098006808BD30491C31C6
:10536000096821F480312E4A1C3211601146096807
:105370000143116070472A491C31096821F400314A
:10538000274A1C32116011460968014311607047B9
:1053900023491C31096821F48021214A1C32116003
:1053A00011460968014311607047F0B504460D4687
:1053B00000270026CA201A490860532008601848B0
:1053C0001838006800F0080050B100E0761C14485E
:1053D0001838006800F0080010B1B6F5805FF5D10C
:1053E0000F481838006800F0080098B90C481C38BD
:1053F000006800F0100058B945EA04000849083177
:105400000860FFF7DFF908B9002704E0012702E090
:10541000002700E00027FF20014908603846F0BD62
:10542000242800407F7F7F003FFFFF00CA223D4BC2
:105430001A6053221A6091B13A4A1C3A126820F05D
:1054400004031A43374B1C3B1A60364A1C3212685D
:1054500000F004031A43334B1C331A6011E0314A45
:105460001C3A126820F004039A432E4B1C3B1A602E
:105470002C4A1C32126800F004039A43294B1C3357
:105480001A60FF22274B1A60704710B501460020B2
:105490000022244B183B1B68234C03EA040202EA57
:1054A00001030BB1012000E0002010BD81B241F0EA
:1054B00080011C4A183A126802F0800262EA010177
:1054C000184A183A1160704730B501460020002292
:1054D0000023144C1C34246804F00402114C1C3CBE
:1054E00024680C4002EAD13544EA05030D4C183C0F
:1054F000246804EA11121BB194B20CB1012000E03F
:10550000002030BD002101098AB242F08002054B23
:10551000183B1B6803F0800363EA0202014B183B4F
:105520001A607047242800407F3F01000020414955
:105530000860091D0860091D0860091D08603E48D3
:105540003C4914310860704700213A498279002AA9
:105550003AD00A46126803689A430B461A600A1D3D
:10556000126803689A430B1D1A60027911440A6895
:1055700003681A430A602F4A0832126803689A4384
:105580002C4B08331A601A1D126803689A43294B82
:105590000C331A604279102A0ED11A1F1268036860
:1055A0001A43244B08331A601A1D126803681A4301
:1055B000204B0C331A600DE01E49427911440A68F1
:1055C00003681A430A6005E0027911440A68036817
:1055D0009A430A6070470021016001710C214171FA
:1055E0000021817170471349103109680143114A44
:1055F000103211607047014600200E4A14321268C2
:105600000A400AB1012000E0002070470949143126
:105610000860704701460020064A143212680A40AA
:105620000AB1012000E000207047024914310860EF
:1056300070470000003C0140FFFF7F0010B50121D2
:105640000807FDF795FA00214FF08050FDF790FA1A
:1056500010BD52490862704701460020504A106848
:1056600020F0E0000843106070474C490861704723
:105670004A49A031086070474849A4310860704722
:1056800001460020464A106820F44040084310605C
:10569000704742490864704740494864704730B1D8
:1056A0003F49096841F440213D4A116005E03C4909
:1056B000096821F440213A4A1160704718B101216C
:1056C000364AD16202E00021344AD162704718B1F3
:1056D0000121324A916202E00021304A9162704712
:1056E0002E494862704710B5024600202C4B1868BE
:1056F00040F6034398431043294B1860294B1B681D
:1057000043F00403274C2360012901D130BF00E09E
:1057100020BF244B1B6823F00403224C236010BDE0
:1057200010B5024600201E4B186840F6034398430C
:1057300010431B4B18601B4B1B6843F00403194CB0
:105740002360012901D130BF00E020BF154B1B6849
:1057500023F00403134C236010BD1148006840F08F
:1057600002000F4908600F48006840F004000D492E
:10577000086000BF00BF30BF704701460020084AE4
:1057800052680A400AB1012000E000207047044935
:10579000096841EA8001024A1160704700000E4228
:1057A0000070004010ED00E0FE4A1070704730B10C
:1057B000FC49096841F48071FA4A116005E0F94931
:1057C000096821F48071F74A1160704730B1F549DA
:1057D000096841F40071F34A116005E0F149096874
:1057E00021F40071EF4A1160704730B1ED4909684A
:1057F00041F48061EB4A116005E0EA49096821F44F
:105800008061E84A11607047E648006840F4006033
:10581000E44908607047E348006840F48050E1497B
:1058200008607047DF481030006800F0004028B181
:10583000DD48DC49091D0860DC4808607047D9482C
:105840001030006840F00040D649103108607047C1
:105850000920D4490C31096801F48031B1F5803F49
:1058600001D1012020E0CF490C31096801F010017D
:1058700009B1062018E0CB490C31096801F48071A8
:1058800009B1022010E0C7490C31096801F0EF01AD
:1058900009B1072008E0C3490C31096801F0020191
:1058A00009B1082000E00920704708B509200090E0
:1058B000FFF7CEFF009002E0FFF7CAFF00909DF8CF
:1058C00000000128F8D09DF8000008BD70B504461E
:1058D0000A460026092502B909E0012A01D116026B
:1058E00005E0022A01D1160201E04FF44076FFF7ED
:1058F000DCFF0546092D2DD1AA481030006820F4A0
:105900004070A849103108600846006830430860BC
:105910000846006820F0F80008600846006844F077
:10592000020108439F49103108600846006840F4AE
:1059300080300860FFF7B9FF05469A4810300068CC
:1059400020F002009749103108600846006820F0F6
:10595000F8000860284670BD30B5024600250924CD
:10596000FFF7A3FF044602B909E0012A01D115029D
:1059700005E0022A01D1150201E04FF44075092C1F
:1059800020D188481030006820F4407085491031DB
:10599000086008460068284308600846006840F030
:1059A000040008600846006840F480300860FFF793
:1059B0007CFF04467B481030006820F004007949E1
:1059C00010310860204630BD30B50246002509245C
:1059D000FFF76BFF044602B909E0012A01D1150265
:1059E00005E0022A01D1150201E04FF44075092CAF
:1059F00020D16C481030006820F4407069491031A3
:105A0000086008460068284308600846006840F0BF
:105A1000040008600846006840F480300860FFF722
:105A200044FF04465F481030006820F004005D49E0
:105A300010310860204630BD30B5024600250924EB
:105A4000FFF733FF044602B909E0012A01D115022C
:105A500005E0022A01D1150201E04FF44075092C3E
:105A600020D150481030006820F440704D4910316A
:105A7000086008460068284308600846006840F44B
:105A8000004008600846006840F480300860FFF776
:105A90000CFF044643481030006820F400404149A0
:105AA00010310860204630BD70B5064614461D46CC
:105AB0000922FFF7FAFE0246092A1ED139481030A2
:105AC000006820F4407037491031086008460068CB
:105AD00040F4407008600846006840F0010008602B
