:020000040800F2
:100000009062002049030008B11B00081D1700087A
:10001000AD1B0008F90D0008AB2800080000000027
:100020000000000000000000000000009102000835
:10003000A912000800000000E50200085955000858
:100040006303000863030008630300083922000803
:100050006303000863030008AD120008630300088F
:1000600063030008E1120008151300086303000889
:1000700063030008630300086303000863030008C8
:100080006303000863030008250B000863030008EE
:1000900063030008630300086303000863030008A8
:1000A0006303000863030008630300086303000898
:1000B0006303000863030008630300086303000888
:1000C0006303000863030008630300086303000878
:1000D000630300081926000863030008630300088F
:1000E00063030008F91E00086303000863030008A7
:1000F0006303000863030008630300086303000848
:100100006303000863030008630300086303000837
:100110006303000863030008630300086303000827
:10012000FD0D000863030008630300086303000873
:100130006303000863030008630300086303000807
:1001400063030008630300086303000863030008F7
:100150006303000863030008250E0008630300081A
:1001600063030008630300086303000863030008D7
:1001700063030008630300086303000863030008C7
:10018000630300086303000800F002F800F070F851
:100190000AA090E8000C82448344AAF10107DA45E2
:1001A00001D100F065F8AFF2090EBAE80F0013F0C4
:1001B000010F18BFFB1A43F001031847686A0000DB
:1001C000886A00000A444FF0000C10F8013B13F05D
:1001D000070408BF10F8014B1D1108BF10F8015BA0
:1001E000641E05D010F8016B641E01F8016BF9D193
:1001F00013F0080F1EBF10F8014BAD1C0C1B09D1EA
:100200006D1E58BF01F801CBFAD505E014F8016B5B
:1002100001F8016B6D1EF9D59142D6D370470000ED
:100220000023002400250026103A28BF78C1FBD8FF
:10023000520728BF30C148BF0B607047702900F0DB
:100240008181642900F01081752900F00D817829E1
:1002500000F06B81632900F05883732900F05D83FF
:10026000002070471FB506F074FB1FBD10B510BD10
:1002700000F0E9FB1146FFF7F5FF02F011FD00F079
:1002800007FC03B4FFF7F2FF03BC02F0A6FB00007B
:100290002A4B19680868B0E8F04F80F30988BFF36B
:1002A0006F8F4FF0000080F311887047000000004E
:1002B00006480068006880F3088862B661B6BFF33C
:1002C0004F8FBFF36F8F00DF00BF00BF08ED00E06E
:1002D000DFF80C00016841F470010160704700BF55
:1002E00088ED00E0EFF30980BFF36F8F134B1A68BE
:1002F0001EF0100F08BF20ED108A20E9F04F1060AB
:1003000008B44FF0BF0080F31188BFF34F8FBFF3E5
:100310006F8F05F0BBF84FF0000080F3118808BC28
:1003200019680868B0E8F04F1EF0100F08BFB0EC75
:10033000108A80F30988BFF36F8F70474C0000204C
:10034000EFF30580704700000948804709480047DF
:10035000FEE7FEE7FEE7FEE7FEE7FEE7FEE7FEE775
:10036000FEE7FEE704480549034A054B70470000D5
:10037000CD24000889010008905E002090620020D2
:10038000905E0020704700000FB4044910B503AA26
:10039000029800F0C7FA10BC5DF814FB14000020AE
:1003A0000FB41CB5074B06AA7B446946009005981C
:1003B00000F089FA0020694600F098FA1CBC5DF84C
:1003C00014FB00004105000070B504468569006813
:1003D000C10601D5302600E02026C00707D070BD39
:1003E000D4E9012130469047206A401C20626D1EEE
:1003F000F6D570BD70B5044685690078C00707D191
:1004000070BDD4E9012120209047206A401C206261
:100410006D1EF6D570BD70B50C460546012A05D097
:100420002878800600D5EA69002302E0012305E070
:100430005B1C934202D2E05C0028F9D1A869E6185F
:10044000C01AA861286A184428622846FFF7BCFF32
:1004500004E0D5E9012114F8010B9047B442F8D328
:100460002846FFF7C7FF70BD2DE9F041064600247E
:1004700010687529314615A510D0AFF3008000280B
:1004800002DA404212A507E031688A0701D511A5BA
:1004900002E0490704D510A5012401E0AFF3008074
:1004A00000210A2306F1240707E0B0FBF3F203FB67
:1004B0001200303078541046491C0028F5D12346EC
:1004C0002A463046BDE8F04100F09EB90000000029
:1004D0002D0000002B00000020000000F0B40D46AD
:1004E0000188090502D51B4C7C4402E0194C7C4470
:1004F0000E34002100F1240305E002F00F0612097A
:10050000A65D5E54491C002AF7D102780023120729
:1005100004D5702D06D009B1022311342246F0BC57
:1005200000F072B901231034F8E770B504460D46A7
:1005300021461068AFF30080024629462046BDE8F8
:100540007040CBE70368126843F020030360082380
:10055000C361C3E76E6500002DE9F05F894604467C
:100560004FF0000ADFF874B1FB44C0F820A0204629
:10057000E1688847002874D0252806D0D4E90121F5
:100580009047206A401C2062F1E700265F46204623
:10059000E16888472028054607DB312D05D2781908
:1005A00010F8200C08B10643F1E7B00701D526F09A
:1005B0000406C4F81CA00027C4F818A02A2D09D0EE
:1005C000284602F003FA38B304EB8708303DC8F838
:1005D000185019E059F8041B204604EB870291617A
:1005E000E1688847012F054618D1E069002820DA24
:1005F00026F020061DE0D8F8180000EB800005EB7F
:1006000040003038C8F818002046E16888470546A1
:1006100002F0DCF90028EED1012F0AD02E2D08D1EE
:100620002046E16888477F1C0546022F46F02006D9
:10063000C4DBA069002803DA404246F00106A0614D
:10064000F00701D026F010066C2D0BD0682D09D0D4
:100650004C2D39D06A2D35D0742D35D07A2D33D02C
:1006600016E038E0E1682F4620468847B842054644
:1006700009D16C2F26D04FF48060E16806432046F4
:100680008847054604E06C2F1AD04FF4807006436B
:100690000DB3A5F14100192802D8203546F40066B3
:1006A0004A462946204626604E46FFF7C7FD80B1E0
:1006B00001280BD0F61D26F0070000F1080956E7C7
:1006C0004020E4E78020D8E70020D6E706F10409BF
:1006D0004DE7284652E7206ABDE8F09F1665000006
:1006E00040EA0103024630B59B0710D14FF00134B8
:1006F00000E008C208C91D1B9D4315EAC41FF8D0BD
:1007000013F0FF0102F8011B0DD01B0AF8E711F8E6
:10071000013B002B02F8013B05D011F8013B002BF7
:1007200002F8013BF3D130BD10B5431C02E010F8D4
:10073000011B71B18107FAD14FF0013202C88C1A46
:100740008C4314EAC211F9D0C01A0A0603D0C01EA5
:1007500010BDC01A10BD0A0401D0801E10BD0902D0
:10076000FCD0401E10BD032A40F2308010F0030C74
:1007700000F0158011F8013BBCF1020F624498BFF4
:1007800011F801CB00F8013B38BF11F8013BA2F191
:10079000040298BF00F801CB38BF00F8013B11F00C
:1007A000030300F0D180083AC0F0088051F8043B00
:1007B000083A51F804CBA0E80810F5E7121D5CBF19
:1007C00051F8043B40F8043BAFF30080D20724BF4C
:1007D00011F8013B11F801CB48BF11F8012B24BFE0
:1007E00000F8013B00F801CB48BF00F8012B70472F
:1007F00002F0FF0343EA032242EA024200F0D8B8C3
:1008000070477047704770472DE9F0470D4699468D
:100810009246044600F124080168880604D5E06980
:1008200021F01001216000E00120A84201DD471BFA
:1008300000E00027A1697A1902EB0900081AA061FB
:100840002078C00602D42046FFF7BEFD002608E04F
:10085000D4E901211AF806009047206A401C761C52
:1008600020624E45F4DB2078C0060AD52046FFF70B
:10087000ABFD06E0D4E9012130209047206A401CFE
:100880002062381EA7F10107F4DC07E0D4E901215A
:1008900018F805009047206A401C2062281EA5F128
:1008A0000105F3DC2046FFF7A5FD2078000602D500
:1008B0000220BDE8F0870120FBE7000001694A1C27
:1008C00002610878704700B58FB0CDE90131002191
:1008D000059105497944CDE9031011466846FFF7B3
:1008E0003BFE0FB000BD0000E5FFFFFF0A6802F805
:1008F000010B0A60704710B5436913B1AFF3008074
:1009000001E0FFF788FD012010BD127800F12401FD
:100910000A7000224A700122EDE711684FF0FF32A1
:10092000E9E70000074B70B50D467B44FFF7CBFFAE
:100930000446284600F05CF810B14FF0FF3070BD5F
:10094000204670BDEF21000010B5203AC0F00B80AA
:10095000B1E81850203AA0E81850B1E81850A0E8C3
:100960001850BFF4F5AF5FEA027C24BFB1E818501D
:10097000A0E8185044BF18C918C0BDE810405FEA8D
:10098000827C24BF51F8043B40F8043B08BF704709
:10099000D20728BF31F8023B48BF11F8012B28BF0E
:1009A00020F8023B48BF00F8012B70474FF00002CF
:1009B0000429C0F0128010F0030C00F01F80CCF16D
:1009C000040CBCF1020F18BF00F8012BA8BF20F8DF
:1009D000022BA1EB0C0100F011B85FEAC17C24BF2F
:1009E00000F8012B00F8012B48BF00F8012B7047DD
:1009F000007B00F0800070474FF0000200B5134606
:100A000094469646203922BFA0E80C50A0E80C502E
:100A1000B1F12001BFF4F7AF090728BFA0E80C50DF
:100A200048BF0CC05DF804EB890028BF40F8042BD8
:100A300008BF704748BF20F8022B11F0804F18BF45
:100A400000F8012B7047754600F028F8AE46050007
:100A50006946534620F00700854618B020B5FFF7D9
:100A600081FCBDE820404FF000064FF000074FF03A
:100A700000084FF0000B21F00701AC46ACE8C009BC
:100A8000ACE8C009ACE8C009ACE8C0098D467047C5
:100A90000446AFF300802046FFF7F3FB00487047A1
:100AA0002C5E002000220A12D3430360704721B15C
:100AB000826842F00102826003E0826822F0010253
:100AC000826070470021084A1168084A1140D0E945
:100AD00000231A4383681A43C3681A431143044A24
:100AE000C2F804137047000004230140E030FCFF0B
:100AF000002001400146C86C80B2704770B50246C4
:100B00000020002300240B12556801268E4005EAC0
:100B1000060415681D4015B10CB1012000E000204D
:100B200070BD000008B504F099F840F205210C48AA
:100B3000FFF7E4FF01280FD140F205210848FFF735
:100B4000B1FF0748FFF7D6FF009000231A46694619
:100B50000448006804F0B0FE04F092F808BD0000FC
:100B600000200140FC01002010B50B460021D9B245
:100B7000012404FA01F11AB144680C43446002E014
:100B800044688C43446010BD30B502460020002309
:100B90005068104C20400D790C6844EA052420432D
:100BA000506090680C4C2040D1E903542C438D6870
:100BB0002C434D7944EA450420439060D06A20F4E8
:100BC00070000C7D641EE4B2234340EA0350D062FF
:100BD00030BD0000FFFEFFFCFDF7FFC0F0B504468E
:100BE0000D4600200021092D11DDE068A5F10A065F
:100BF00006EB4607072606FA07F18843A5F10A0621
:100C000006EB460603FA06F10843E0600CE02069B3
:100C100005EB4507072606FA07F1884305EB45066D
:100C200003FA06F108432061072A0FDA606B561EAB
:100C300006EB86071F2606FA07F18843561E06EBC9
:100C4000860605FA06F10843606322E00D2A0FDAF2
:100C5000206BD61F06EB86071F2606FA07F188438E
:100C6000D61F06EB860605FA06F10843206310E05E
:100C7000E06AA2F10D0606EB86071F2606FA07F1C9
:100C80008843A2F10D0606EB860605FA06F1084335
:100C9000E062F0BD816841F08041816070470000F2
:100CA00038B10849096841F40001074AC2F8041341
:100CB00006E00449096821F40001034AC2F804135C
:100CC00070470000042301400020014000B58DB0B2
:100CD0000121084601F00AF80121080201F026F876
:100CE00020200A9003208DF82C0001208DF82F0081
:100CF0000AA9304800F0EEFB0121080201F026F8B5
:100D000000214FF4807001F021F80120FFF7C8FFA7
:100D100000200690099008904FF48030079006A8B4
:100D2000FFF7D0FE002000908DF804008DF805003C
:100D30000290049001208DF8140069461E48FFF7C8
:100D400023FF0723012205211B48FFF747FF072345
:100D5000012210211848FFF741FF01211648FFF733
:100D6000A6FE012240F205211348FFF7FDFE1220E6
:100D70008DF8300001208DF8310002208DF832000E
:100D800001208DF833000CA800F014FF002202218E
:100D9000032004F0FBFB094908600846006818B10D
:100DA00007A0FFF7F1FA02E00CA0FFF7EDFA0DB093
:100DB00000BD00000000024000200140FC010020B6
:100DC000696E697420784164635175657565207337
:100DD0007563636573732E2E2E0D0A00696E697438
:100DE00020784164635175657565206661696C2E74
:100DF0002E2E0D0A0000000000BFFEE710B503F024
:100E00002DFF0649064800F00BF918B103490448C4
:100E100000F02AF803F034FF10BD0000208000101D
:100E20001064024010B503F019FF0C490C4800F0A3
:100E3000F7F878B109490A4800F016F80021084887
:100E400000F02CF80748006820B100210548006830
:100E500004F075FD03F014FF10BD000000800028B1
:100E6000B8640240200000200246094B9A4201D299
:100E7000084801E00648103801F000531BB1064B4A
:100E80000B40C36002E0044B0B40836070470000DE
:100E900010640240006002407D0F7D0F21B10268A6
:100EA00042F00102026003E0026822F001020260E7
:100EB00070470000016821F001010160002101601C
:100EC00041608160C1600161212141614A498842DC
:100ED00004D13D21484A103A91608CE046491831CE
:100EE000884205D14FF47461434A103A916082E020
:100EF00041493031884205D14FF474113E4A103ACD
:100F0000916078E03C494831884205D14FF07461E6
:100F1000394A103A91606EE037496031884204D115
:100F20003649354A103AD16065E033497831884214
:100F300004D13349304A103AD1605CE02E499031F7
:100F4000884204D12F492C4A103AD16053E02A49F3
:100F5000A831884205D14FF03D51274A103AD1605F
:100F600049E02949884204D13D21274A083A1160C5
:100F700041E025491831884205D14FF47461224A75
:100F8000083A116037E020493031884205D14FF4EA
:100F900074111D4A083A11602DE01B4948318842FE
:100FA00005D14FF07461184A083A116023E01649E0
:100FB0006031884204D11149134A121F11601AE0AE
:100FC00011497831884204D10D490F4A121F11602E
:100FD00011E00D499031884204D10A490A4A121F92
:100FE000116008E00849A831884204D14FF03D5112
:100FF000054A121F11607047106002403D0000203A
:10100000400F002000003D201064024001460020F7
:101010000A6802F001020AB1012000E000207047D6
:1010200070B50246002000240025124EB24201D2C3
:10103000114B01E00F4B103B104E0E4036B11E26F7
:1010400006EAD124166806EA040502E0566906F0AD
:10105000800501F000560EB15C6800E01C68084E87
:10106000344004EA010616B10DB1012000E0002071
:1010700070BD000010640240006002403C0F3C0F55
:101080007D0F7D0F10B501F080034BB122B1436994
:1010900043F08003436103E0436923F0800343612D
:1010A00080290BD02AB1036801F01E04234303609A
:1010B00004E0036801F01E04A343036010BD0000B8
:1010C00010B500220268134B1A40CC680B6823430A
:1010D0004C6923438C692343CC6923430C6A234323
:1010E0004C6A23438C6A23434C6B23438C6B23430E
:1010F0001A430260426922F00702D1E90B3423430C
:101100001A4342610B6943604B6883608B68C3601C
:1011100010BD00003F801CF0416070477FB5044661
:101120000E462246284929A0FFF72EF900200090FC
:1011300001900290039000E0641C20782028FBD0EE
:1011400021466846FFF7CCFA694625A0FFF71CF94F
:10115000684604F0EBFC0546002D30D0062E2CD25C
:10116000DFE806F02B030B131B2A284603F068FE6A
:1011700069461FA0FFF708F920E0284604F020F98F
:10118000694622A0FFF700F918E0284604F098F815
:10119000694625A0FFF7F8F810E0284604F014FC93
:1011A000012804D1694627A0FFF7EEF803E069465D
:1011B0002EA0FFF7E9F801E000E000BF03E02946B8
:1011C00033A0FFF7E1F87FBDF769000825733A20E7
:1011D000636F6D6D616E64203D2025730D0A000004
:1011E0007461736B4E616D65203D2025730D0A009F
:1011F00064656C657465207461736B20257320735E
:10120000756363657373210D0A0000007375737055
:10121000656E64207461736B20257320737563633E
:10122000657373210D0A0000726573756D65207416
:1012300061736B2025732073756363657373210D70
:101240000A00000077616B65207570207461736B14
:101250002025732066726F6D20626C6F636B207344
:10126000756363657373210D0A00000077616B6518
:10127000207570207461736B2025732066726F6D0A
:1012800020626C6F636B206661696C210D0A00003F
:10129000746F4B696C6C203D202570204572726F15
:1012A00072210D0A000000007047000010B503F025
:1012B000D5FC00210648006804F041FB012000F045
:1012C0009FF8044904A0FFF75FF803F0D9FC10BDB4
:1012D000280000201F6A000825730D0A0000000086
:1012E00010B503F0BBFC00210648006804F027FBA2
:1012F000082000F085F8044904A0FFF745F803F042
:10130000BFFC10BD28000020306A000825730D0ABC
:101310000000000010B503F0A1FC002106480068A1
:1013200004F00DFB102000F06BF8044904A0FFF757
:101330002BF803F0A5FC10BD28000020416A00082E
:1013400025730D0A000000000EB500F021FA0121FE
:10135000880300F0EBFC0321042001F021F80421B4
:10136000084601F01DF80021084601F019F8012097
:10137000009000208DF8040008208DF80500012061
:101380008DF80600684600F041F818200090002013
:101390008DF804000C208DF8050001208DF8060062
:1013A000684600F033F806208DF8080003208DF819
:1013B000090000208DF80A0001208DF80B0002A81A
:1013C00000F0F8FB09208DF8080003208DF80900D3
:1013D00001208DF80A008DF80B0002A800F0EAFB4E
:1013E0000A208DF8080003208DF8090002208DF8EE
:1013F0000A0001208DF80B0002A800F0DBFB0EBDF7
:101400000149086070470000143C01400021234955
:101410008279002A3AD00A46126803689A430B463A
:101420001A600A1D126803689A430B1D1A6002793C
:1014300011440A6803681A430A60184A083212689D
:1014400003689A43154B08331A601A1D1268036823
:101450009A43124B0C331A604279102A0ED11A1F8C
:10146000126803681A430D4B08331A601A1D12687C
:1014700003681A43094B0C331A600DE0074942799F
:1014800011440A6803681A430A6005E002791144AE
:101490000A6803689A430A6070470000003C0140F4
:1014A00008B5084908A0FEF76FFF04F08DFB009017
:1014B00006E000F03DF94FF4FA71684603F064FC71
:1014C000F7E700008F6900082573202E2E2E0D0AE5
:1014D00000000000F0B50A4600210023002400BFF0
:1014E0003DE0012505FA01F3156805EA03049C4275
:1014F00034D105684F000326BE40B5430560157919
:101500004E00B5400668354305601579012D02D0BF
:101510001579022D16D185684F000326BE40B543CC
:10152000856055794E00B5408668354385604568CD
:1015300001268E40B5434560456896798E40B6B227
:1015400035434560C5684F000326BE40B543C560BE
:10155000D5794E00B540C6683543C560491C102991
:10156000BFD3F0BDF0B5002300244D07ED0E02FA05
:1015700005F3CE1000F1200555F826504E07F70E62
:101580000F26BE40B543CF1000F1200646F8275085
:10159000CE1000F1200555F8265045EA0304CE1080
:1015A00000F1200545F82640F0BD024600201369F1
:1015B0000B400BB1012000E0002070470183704711
:1015C00010B504460723012221460E48FFF706FB0B
:1015D0000C48FFF75FFB0C4800880C49088000238B
:1015E000C82209490A48006803F0ECFF10B1064818
:1015F000008810BDA722074907A0FEF7C5FE0348D3
:101600000088F6E7002001400202002004020020CA
:10161000FC010020526A000825732D2564207851B2
:101620007565756552656365697665206572726F6B
:1016300072210D0A000000002DE9F04107460C461A
:101640000025002608E03846FFF7BAFF05440520CC
:1016500003F080FB701CC6B2A642F4DBB5FBF4F0CD
:1016600080B2BDE8F081000010B52DED088B0A2195
:101670001020FFF7E1FF08EE100AB8EE480A10EE5E
:10168000100A05F0F5F841EC1A0B9FED1A0B53EC1C
:10169000102B04F005FF41EC190B9FED180B53ECD8
:1016A000102B51EC190B04F0F9FF41EC1B0B9FEDD3
:1016B000150B53EC102B04F059FD41EC1A0B9FED68
:1016C000130B53EC102B04F0A9FC41EC190B9FED0C
:1016D000110B53EC102B51EC190B04F0E1FE41EC13
:1016E000190B41EC1A0B04F099FE04B22046BDEC34
:1016F000088B10BD6666666666664A3F52B81E85F0
:10170000EB51E83F7B14AE47E17A643F00000000F4
:1017100000003940000000000000594000BFFEE713
:101720004CF6CC4001490860704700000030004092
:1017300010B500F013F810BD70B505460C4645F223
:10174000555000F01FF8284600F010F8204600F031
:1017500013F800F003F8FFF7E3FF70BD4AF6AA2084
:1017600001490860704700000030004001494860AE
:101770007047000000300040014988607047000059
:101780000030004001490860704700000030004010
:101790001CB50121112000F0A9FA182000900020AA
:1017A0008DF8040003208DF8050001208DF8070056
:1017B00069460648FFF78EFE0120009002208DF852
:1017C000070069460248FFF785FE1CBD0010024075
:1017D000000002400024584958A0FEF7D5FD03221E
:1017E0000021012003F0D2FE574908600846006836
:1017F00030B100231A4619465348006803F0D0FF61
:1018000000231A4619465048006803F0DBFE91E0B9
:1018100000235A1E19464C48006803F0D3FE0A20E4
:1018200003F098FA002403E0641C0A2003F092FA03
:1018300001214648FFF7B9FE0128F5D0C82C04DD88
:101840003D4943A0FEF7A0FD05E0002C03DD3A4929
:1018500045A0FEF799FD002403E0641C0A2003F074
:1018600079FA08214448FFF7A0FE0028F5D0C82CDB
:101870000CDD4248006808B9012000E000203F4923
:1018800008602D493EA0FEF77FFD0DE0002C0BDD2A
:101890003A48006808B9012000E000203749086094
:1018A00025493DA0FEF770FD002403E0641C0A20DA
:1018B00003F050FA10213048FFF777FE0028F5D0EA
:1018C000C82C17DD2D48001F006808B9012000E072
:1018D00000202A49091F08603348D0F89C0208B943
:1018E000012000E000202549086013492FA0FEF7E1
:1018F0004BFD18E0002C16DD2048001F006808B9D9
:10190000012000E000201D49091F08602648D0F88A
:101910009C0208B9012000E000201849086006492F
:1019200028A0FEF731FD00F0B9FA0546294629A0A6
:10193000FEF72AFD6CE70000BB6900082573202E26
:101940002E2E0D0A0000000028000020000002409A
:10195000257320504130206C6F6E67207072657364
:1019600073210D0A000000002573205041302070C3
:1019700072657373210D0A00001002409C02404200
:10198000257320504533206C6F6E6720707265732D
:1019900073210D0A0000000025732050453320708C
:1019A00072657373210D0A000000404225732050B8
:1019B0004534206C6F6E67207072657373210D0A59
:1019C0000000000025732050453420707265737349
:1019D000210D0A0072616E646F6D203D2025640D3B
:1019E0000A00000008B5144814A3012242F228316D
:1019F000009013A004F072FA1349086004F0E4F8B0
:101A00000446002003462246012100900E4800684B
:101A100004F09CFA0D490EA0FEF7B6FC0BE00F484F
:101A2000006808B9012000E000200C49086040F27D
:101A3000EE2003F08FF9F2E7FD2500085431000095
:101A400074696D6572310000240000207B69000814
:101A50002573202E2E2E0D0A000000009802404211
:101A6000084909A0FEF790FC0BE00A48006808B995
:101A7000012000E00020074908604FF4FA7003F0ED
:101A800069F9F2E7856900082573202E2E2E0D0ACC
:101A9000000000009C0240421CB50121084600F0F5
:101AA00025F9C020009001208DF8040000208DF859
:101AB000060003208DF8050001208DF80700694617
:101AC0000348FFF707FDC0210148FFF777FD1CBD64
:101AD000000002402DE9F04190B004460D46174643
:101AE0001E46DDF858802548844204D90121880526
:101AF00000F0FCF803E00121480500F0F7F820466B
:101B0000FFF7D8F900BF2046FFF780FA0028FAD186
:101B100000950197029640200390CDF81080002098
:101B200005904FF48060069000200790089009907F
:101B30004FF480300A9000200B9003200C9000207E
:101B40000D900E9069462046FFF7BAFA0122102147
:101B50002046FFF797FA46208DF83C0001208DF8CB
:101B60003D0003208DF83E0001208DF83F000FA8B6
:101B700000F020F810B0BDE8F081000000640240E1
:101B800070B504460D4600212046FFF787F900BFD7
:101B90002046FFF73BFA0028FAD129462046FFF7F6
:101BA000BBFA01212046FFF779F970BD00BFFEE7BF
:101BB0007047000070B5002100230F22C4781CB3C9
:101BC000174C246804F4E064C4F5E064C4F307210E
:101BD000C1F10404E3B20A4144789C40E1B2847844
:101BE000144021430C07210E0E4C057861550478F2
:101BF00004F01F050124AC4005786D11AD0005F11E
:101C0000E025C5F8004109E0047804F01F0501242F
:101C1000AC40054D0678761145F8264070BD0000B1
:101C20000CED00E000E400E080E100E00249014347
:101C3000024A1160704700000000FA050CED00E058
:101C400008B54FF400701F4B1F4A810400901F48D5
:101C5000FFF740FF00231A4619461D48006803F0AD
:101C6000B1FC00231A4619461A48006803F0AAFC82
:101C700019491AA0FEF788FB23E000235A1E1946D3
:101C80001348006803F09EFC16E022460D491648F2
:101C900001F057FE012280210B48001F00F03EFD9D
:101CA000A1B20A48FFF76CFF00234FF4AF72194648
:101CB0000848006803F086FC0B4801F08BFE041E08
:101CC000E3DCDAE72004002004100140B86402409D
:101CD0001C00002020000020AB6900082573202E86
:101CE0002E2E0D0A000000000802002029B1064A2D
:101CF00012680243044B1A6004E0034A12688243EC
:101D0000014B1A60704700003038024029B1064A82
:101D100012680243044B1A6004E0034A12688243CB
:101D2000014B1A60704700003438024029B1064A5E
:101D300012680243044B1A6004E0034A12688243AB
:101D4000014B1A60704700004438024029B1064A2E
:101D500012680243044B1A6004E0034A126882438B
:101D6000014B1A607047000024380240F0B5002192
:101D700000220024022500260223324F3F6807F08C
:101D80000C0121B1042905D0082937D105E02E4FD7
:101D9000076036E02D4F076033E02A4F3F1F3F6852
:101DA000C7F38056274F3F1F3F6807F03F036EB1D0
:101DB000264FB7FBF3F7DFF88CC0ACF1040CDCF86E
:101DC00000C0CCF3881C07FB0CF40CE01E4FB7FBE3
:101DD000F3F7DFF870C0ACF1040CDCF800C0CCF312
:101DE000881C07FB0CF4174F3F1F3F68C7F30147E0
:101DF0007F1C7D00B4FBF5F7076002E0124F07601F
:101E000000BF00BF0F4F3F6807F0F0010909104FF6
:101E10007A5C0768D74047600A4F3F6807F4E05193
:101E2000890A0B4F7A5C4768D7408760054F3F6847
:101E300007F46041490B064F7A5C4768D740C7609A
:101E4000F0BD0000083802400024F40000127A00BF
:101E50000000002030B10749096841F00401054A3B
:101E6000116005E00349096821F00401014A11608D
:101E7000704700000008065001460020034A12681F
:101E80000A400AB1012000E0002070470408065013
:101E900001480068704700000808065010B500BFF0
:101EA0000120FFF7E9FF0028FAD0FFF7F1FF10BD8E
:101EB00070B542F21075002401214020FFF726FF83
:101EC0000120FFF7C7FF06E0601C84B200BF2800B6
:101ED000A5F10105FBD10120FFF7CEFF18B942F2B1
:101EE00010708442F0DB42F21070844201DB01206A
:101EF00070BD0020FCE7000010B50A48006800F43F
:101F0000807040B10748006820F48070054908607F
:101F100005A0FEF739FA0748006840F4003005498B
:101F2000086010BD0C280040414C41524D20412119
:101F30000D0A0000143C0140014600BF081100EBEF
:101F40008000420001F00F001044C0B2704701460B
:101F5000002204E0501CC2B2A1F10A00C1B20A2959
:101F6000F8DA100741EA106070470000F0B5044647
:101F70000D4616461F46002300BF00F07DF90028DD
:101F8000FBD10A480368C3F30740FFF7D5FF207071
:101F9000C3F30420FFF7D0FF287003F03F00FFF7E2
:101FA000CBFF3070C3F342303870F0BD04280040DE
:101FB000F0B504460D4616461F46002300BF00F04C
:101FC0005BF90028FBD10A480368C3F30540FFF71B
:101FD000B3FF2070C3F30620FFF7AEFF287003F0B5
:101FE0007F00FFF7A9FF3070C3F387503870F0BD52
:101FF0000028004010B541F6FF743B48006840F0EF
:102000008050394908603948006840F48070374989
:102010000860002000F0A2F845F25A0188425ED024
:1020200031483030006840F001002F4930310860FD
:1020300004E0601E84B2052000F0D2FC34B12A48CE
:102040003030006800F002000028F2D024B928A047
:10205000FEF79AF9012010BD23483030006840F4A3
:1020600080702149303108600846006840F4004023
:102070000860CA20234908605320086000F04EF829
:1020800008B10220E7E7FF201E491439086008461E
:10209000006840F4FE0008601A481C38006820F010
:1020A000400018491C390860081D006820F08000B5
:1020B000091D0860FF201349086000232D220A2112
:1020C000162000F087F801231A220921102000F0C1
:1020D0004FF845F25A01002000F0F2F802E00AA0A1
:1020E000FEF752F90020B6E7403802400070004089
:1020F0004C5345206F70656E206661696C210D0A36
:10210000000000002428004072746320686173207E
:1021100076616C7565210D0A000000004FF4803176
:102120000D48006800F0400008B1002070470A48E0
:10213000006840F08000084A106000E0491E29B1A4
:102140000548006800F040000028F7D009B90120D8
:10215000ECE70020EAE700000C28004001460022DE
:10216000024800EB810210687047000050280040D0
:102170002DE9F04106460C4615460027CA201449B1
:10218000086053200860FFF7C9FF10B10120BDE8C7
:10219000F0813046FFF7DBFE000403F0070140EA60
:1021A00041382046FFF7D3FE48EA00282846FFF7CB
:1021B000CEFE48EA00070648203807600448183871
:1021C000006820F080000249183908600020DEE72E
:1021D000242800402DE9F04106460C46154600270C
:1021E000CA201449086053200860FFF797FF10B118
:1021F0000120BDE8F0813046FFF7A9FE000403F09E
:10220000010140EA81582046FFF7A1FE48EA002874
:102210002846FFF79CFE48EA000706482438076076
:1022200004481838006820F0800002491839086016
:102230000020DEE7242800400C48006800F480609D
:1022400068B10A48006820F48060084908600848BE
:10225000006808B9012000E0002005490860054831
:10226000006840F480000349086070470C28004073
:102270009C024042143C01400F49CA200F4A1060A2
:10228000532010600D481838006820F020000B4AD9
:10229000183A106000E0491E31B10848183800684B
:1022A00000F020000028F6D009B901207047FF2077
:1022B000024A10600020F9E7FFFF0F0024280040C9
:1022C0000022024B03EB800211607047502800404F
:1022D00094B0214921A0FEF757F803F075FC019056
:1022E00038E04FF47A7101A802F04EFD10AB11AA4C
:1022F00012A913A8FFF75CFE9DF844001A4909686B
:1023000090FBF1F201FB1200002823D19DF844005C
:1023100000909DF848309DF84C2014A102A8FEF7CB
:102320003FF802A917A0FEF72FF80CAB0DAA0EA9D3
:102330000FA8FFF71BFE9DF8340000909DF8383081
:102340009DF83C2010A102A8FEF72AF802A90DA0D2
:10235000FEF71AF8C5E70000CB6900082573202EA8
:102360002E2E0D0A000000002C0000200D0A5469DA
:102370006D653A253032643A253032643A25303280
:10238000640D0A0025730000446174653A323025FB
:102390003032642D253032642D253032640D0A0030
:1023A00030B500228B071C0F0F2303FA04F20B4BEE
:1023B0008C1053F824309343084C8D1044F825308A
:1023C00023468C1053F824308C07240F00FA04F4B1
:1023D0002343024C8D1044F8253030BD08380140AD
:1023E0000CB50020019000903448006840F4803023
:1023F0003249086000BF3148006800F400300090A6
:102400000198401C0190009818B90198B0F5A04FB0
:10241000F1D12A48006800F4003010B1012000908A
:1024200001E0002000900098012846D12348403068
:10243000006840F080502149403108602048006821
:1024400040F440401E4908601C48083000681B49A1
:10245000083108600846006840F4004008600846FB
:10246000006840F4A05008601648091F0860081F63
:10247000006840F08070091F086000BF0F480068C6
:1024800000F000700028F9D040F205700E49086095
:102490000A480830006820F0030008490831086045
:1024A0000846006840F00200086000BF034808309A
:1024B000006800F00C000828F8D10CBD003802407C
:1024C0000070004008544007003C024010B5154819
:1024D000006840F47000134908601348006840F039
:1024E00001001149086000200F49083108600E48BA
:1024F00000680E4908400C4908600D48091D086035
:10250000081F006820F48020091F08600020064989
:102510000C310860FFF764FF4FF00060014980391B
:10252000086010BD88ED00E000380240FFFFF6FEB5
:1025300010300024002002F023FB07460D2100206C
:1025400002F044FE1E491FA0FDF71EFF3946002081
:1025500002F03CFE33E0FFF787F80446002C16DA61
:10256000604204B20D21002002F030FE642094FB92
:10257000F0F100FB114594FBF0F62A46314614A019
:10258000FDF702FF3946002002F020FE13E00D2186
:10259000002002F01BFE642094FBF0F100FB1145CB
:1025A00094FBF0F62A4631460FA0FDF7EDFE3946C2
:1025B000002002F00BFE41F2883002F0CBFBCAE7AC
:1025C0009D6900082573202E2E2E0D0A00000000A4
:1025D00074656D707261747572653A202D25642E74
:1025E00025640D0A0000000074656D7072617475D9
:1025F00072653A2025642E25640D0A0010B5044644
:10260000024903A0FDF7C0FE10BD00006F6900087D
:1026100025730D0A000000001CB5002001900090F9
:1026200002F01CFB40F22551264800F080F80028FB
:1026300044D040F22551234800F055F8214800F0DD
:102640002FF9C0B20090012269461F4801F0CBF972
:10265000012815D01C48D0F81002401C1A49C1F8B6
:1026600010021A48006820B3084601F0B3F901903F
:1026700000231A4601A91548006803F01DF91DE062
:10268000134800780D2815D19DF800000A2811D1B3
:102690000E48006850B10C4801F09CF901900023ED
:1026A0001A4601A90948006803F006F90020084904
:1026B000087003E09DF800000549087002F0E0FA98
:1026C0001CBD000000100140145C0020D40000205C
:1026D0001900002001F40072B2F5007F00D100BFA4
:1026E000CA430280704710B50022002340F66A14E6
:1026F000A14200D100BF0A1201249440A3B2DC43DE
:10270000048010BD21B1828942F40052828104E02C
:1027100082894DF6FF731A40828170471AB1838A0D
:102720000B43838202E0838A8B438382704770B5B8
:102730000246002400230025002040F66A16B1421C
:1027400000D100BFC1F3421501F01F03012606FAB4
:1027500003F3012D02D19689334006E0022D02D108
:10276000168A334001E0968A33400C12012606FA9D
:1027700004F41688344013B10CB1012000E00020AD
:1027800070BDF0B50346002400260025002040F669
:102790006A17B94200D100BF1846C1F3421401F0D4
:1027A0001F06012707FA06F5012C01D10C3004E0C1
:1027B000022C01D1103000E014301AB107682F4309
:1027C000076002E00768AF430760F0BD2DE9FF47EF
:1027D00005460E460024A14600BFA046B08900B1C0
:1027E00000BF2C8A24F44054F08804432C82AC8926
:1027F00041F20C608443B0883189084371890843F1
:102800000443AC81AC8A24F44074B0890443AC82A4
:102810006846FFF7ABFA2048854202D01F48854240
:1028200002D1DDF80C9001E0DDF80890A88900F4F1
:10283000004040B109EBC90000EB091031684900C4
:10284000B0FBF1F707E009EBC90000EB09103168B4
:102850008900B0FBF1F76420B7FBF0F00401200918
:10286000642101FB1078A88900F4004040B13220B7
:1028700000EBC800B0FBF1F000F00700044308E0F3
:10288000322000EB08106421B0FBF1F000F00F00E3
:1028900004432C81BDE8FF87001001400014014073
:1028A00001468888C0F30800704700BFFEE72DE9A5
:1028B000F04104460E4615460027B84604F501705F
:1028C00003C8A0EB0108454501D2284600E0404678
:1028D0000546D4F80012491ED4F808020840D4F87E
:1028E0000012081AA84201D9284608E0D4F80012BC
:1028F000491ED4F808020840D4F80012081A074606
:10290000D4F80022521ED4F80802104001193A46A9
:102910003046FDF728FFEA1BF0192146FDF723FF9B
:10292000D4F808022844C4F808022846BDE8F0811B
:10293000014601F5017005C8801A70472DE9F04184
:1029400004460F461546002604F5007003C8401AD9
:10295000D4F808120844A84201D9284606E004F534
:10296000007003C8401AD4F8081208440546D4F889
:102970000012491ED4F804020840D4F80012081AC4
:10298000A84201D9284608E0D4F80012491ED4F81C
:1029900004020840D4F80012081A0646D4F80022AF
:1029A000521ED4F804121140081932463946FDF778
:1029B000DAFEAA1BB9192046FDF7D5FED4F80402A9
:1029C0002844C4F804022846BDE8F08130380A28BB
:1029D00001D20120704700207047014600BF7047B8
:1029E00070B504460B490CA0FDF7CEFC02F046FD85
:1029F000002503E00A2000F019F86D1C64206043F4
:102A0000A842F7DC03F0F6F9024905A0FDF7BCFC8B
:102A100070BD000066690008257320696E0D0A000C
:102A20002573206F75740D0A000000002DE9F04732
:102A3000074600264FF0E020D0F814901A4800789E
:102A400070B90020184908700846007800EB400172
:102A5000C1EBC0104FF6FF7101EAC00013490880B6
:102A60001148007807FB00F8002602F007FD4FF040
:102A7000E020856911E04FF0E0208469AC420CD081
:102A8000AC4202D2281B064403E0A9EB0400284410
:102A900006442546464500D300E0ECE700BF03F0BE
:102AA000A9F9BDE8F0870000100000201200002006
:102AB0002DE9F0410646374613480068874201D1A8
:102AC00000241EE002F0CAF87D6902F0D9F80F4830
:102AD0000068854203D00E480068854201D1022477
:102AE0000FE00C48854205D1B86A08B9032408E014
:102AF000022406E00848854200D00DB9042400E015
:102B000001242046BDE8F0814C0000205000002048
:102B100054000020D8570020C457002033B589B096
:102B20000D4603F041F802280BD000BF444800884E
:102B300000F040000028F9D00998C0B240498880D0
:102B40007BE002F0CDF8002849D0012209A93D48D8
:102B500000F049FF01280FD03A48D0F81002401C7D
:102B60003849C1F8100200213748006802F0E7FE3A
:102B700000203649087060E0344800780D282AD1DA
:102B800009980A2827D169208DF804006E208DF855
:102B9000050074208DF806003A208DF807002020EB
:102BA0008DF8080000240BE000BF2548008800F0E5
:102BB00040000028F9D001A8005D21498880641CEC
:102BC000052CF1DB00212048006802F0B8FE00204F
:102BD0001E49087031E01D49099808702DE0012256
:102BE00009A9184800F0FFFE012811D01548D0F8B7
:102BF0001002401C1349C1F8100200231A4619465E
:102C00001148006802F0CCFD00201049087014E063
:102C10000E4800780D280DD109980A280AD1002302
:102C20001A4619460848006802F0BAFD0020074914
:102C3000087002E005490998087009980BB030BD8A
:102C400000100140080200201C0000201800002095
:102C500010B5054802F0BCF904A0FDF795FB024948
:102C60000EA0FDF791FB10BD145A00204E616D655A
:102C700020202009205374617475730920507269F3
:102C80006F7269747920202057617465724D61728A
:102C90006B2020204E756D0D0A000000257300008A
:102CA0001CB54C4800F05CFE4FF4A060FEF7BEFF80
:102CB0004FF4E13000F0AAFE4748FDF765FBFFF74F
:102CC00099F9FEF7E9FEFEF73FFB4FF47A71042015
:102CD000FEF732FDFDF7FAFF02E040A0FDF754FBDE
:102CE000FFF7E6F80028F8D103220021012002F0C6
:102CF0004DFC424908600846006830B100231A467E
:102D000019463E48006802F04BFD032200210120D5
:102D100002F03CFC3A4908600846006830B10023E4
:102D20001A4619463648006802F03AFD0020009025
:102D300003464FF4807233A10190344802F0C4FE80
:102D4000002000900346802231A10190314802F01A
:102D5000BBFE0020012103468022CDE900102EA1F8
:102D60002F4802F0B1FE0020022103468022CDE967
:102D700000102CA12D4802F0A7FE002003210346DD
:102D80009422CDE900102AA12A4802F09DFE0020DD
:102D9000032103469E22CDE9001027A1294802F015
:102DA00093FE00200C2103468022CDE9001026A1CD
:102DB000264802F089FE00200E2103468022CDE93C
:102DC000001023A1234802F07FFE02F0C1FA002088
:102DD0001CBD000008020020946A00082020524E0A
:102DE00047204572726F722120524E4720547279EB
:102DF000696E672E2E2E0D0A000000001C000020B8
:102E00002000002055736D6172740000C13A000803
:102E100057646700A11400084C45443000000000CE
:102E2000E51900084C45443100000000611A000813
:102E300052544300D122000854656D70726174656C
:102E400000000000352500084B657900D517000803
:102E50004C6F6700411C00082DE9F04105460E4605
:102E60001F48076800201F49096881F85D001D4858
:102E70000068001D01F00EFE50B91A48006890F875
:102E80002C100120884018490968814316480160C8
:102E9000681C38B936B113480168091D134801F0A0
:102EA000D1FE1AE07C190F4800684460BC4207D28A
:102EB0000C480168091D0E48006801F0A9FE0CE0ED
:102EC00008480168091D0B48006801F0A1FE0A4886
:102ED0000068844201D208480460BDE8F081000027
:102EE000600000204C00002064000020D857002023
:102EF00054000020500000207C00002010B5044643
:102F000001F0ACFE24480068401C234908602348B7
:102F1000006840B9214804600846006801280DD1C6
:102F200000F0B6F90AE01E48006838B91B4800688E
:102F3000C06AE16A884201D81848046019480068EC
:102F4000401C1849086008460068A06494F82C10DA
:102F50000120884014490968084313490860E16A60
:102F600001EB8101114A02EB8100211D01F06AFE93
:102F700001F086FE0A48006868B108480068C06A27
:102F8000E16A884207D24FF0805009490860BFF3D8
:102F90004F8FBFF36F8F10BD5C0000204C000020EE
:102FA0006800002078000020640000205C560020AB
:102FB00004ED00E010B501F051FE0C48006890B936
:102FC0000B4801F015FE0B4801F012FE08480A49B3
:102FD000086008480949086000220C21032002F01B
:102FE000D5FA0249086001F04BFE10BD90000020A8
:102FF000EC57002000580020880000208C000020A2
:1030000070B523E002F03AFA1348006808B90120CD
:1030100000E00020054602F0EDFEBDB901F01EFE05
:103020000D48C068C468201D01F034FD0B480068DD
:10303000401E0A4908600A480068401E08490860A6
:1030400001F01EFE204600F060F800BF0448006852
:103050000028D7D170BD0000C45700205C000020BC
:103060005800002070B504460D46206C70B1216CEC
:10307000E0680844E0606168E068884201D3206845
:10308000E0602846226CE168FDF76DFB70BD2DE91C
:10309000F04104460F4615464FF00008A66B206C21
:1030A00040B9206860BB606802F022FE80460020C4
:1030B000606025E07DB93946226CA068FDF753FBBE
:1030C000216CA0680844A060D4E90110884217D39D
:1030D0002068A06014E03946226CE068FDF743FBED
:1030E000216CE068401AE0602168E068884203D201
:1030F000216C6068401AE060022D01D106B1761E95
:10310000701CA0634046BDE8F08110B50446206BFA
:1031100001F0C6FD204601F0C3FD10BD0146084A7E
:10312000126812680AB9012200E000220A600A68E7
:1031300022B9034A1268D268106800E00020704784
:10314000880000200A4A22F007000A4A1060002284
:10315000084B5A6044F6F872074B5A6000221A6016
:10316000014644F6F8724A601A460A607047000049
:1031700028060020340000203C00002000BFFFF79C
:103180003FFF064800680128F9D94FF080500449F4
:103190000860BFF34F8FBFF36F8FF0E75C560020DE
:1031A00004ED00E02DE9F04106460D46174698462D
:1031B000069C0DB9246000E02760E66325640121C8
:1031C000204602F0ADFA84F84C80BDE8F0812DE98C
:1031D000F05F81460F4690469A460A9E0C9C4FEA45
:1031E0008801A522206BFDF703FBA8F10100216BEC
:1031F00001EB800B2BF0070B002507E0795D04F154
:1032000038004155785D00B902E06D1C102DF5D3F2
:1032100000BF0021472001550F2E00D30E26E66285
:10322000266500206065201D01F0EFFC04F1180008
:1032300001F0EBFC2461C6F10F00A0616462002084
:10324000A06584F85C0084F85D0052464946584603
:1032500000F060FB20600B9808B10B980460BDE89B
:10326000F09F2DE9F04705460E4617469846DDE9E2
:1032700008945CB1FFF79EFE2560A661E761C4F883
:103280002080C4F82490201D01F0BFFCBDE8F08729
:1032900010B500240FE004EB8401134A02EB810017
:1032A00001F0A6FC04EB84000F4901EB80000F49FC
:1032B00041F82400641C0F2CEDD30D4801F098FC5C
:1032C0000C4801F095FC0C4801F092FC0B4801F011
:1032D0008FFC0B4801F08CFC05480A490860054842
:1032E0000949086010BD00005C56002020560020EF
:1032F000885700209C570020B0570020C45700205A
:10330000D857002050000020540000202DE9F04143
:1033100004460D4616461F464FF0000865602461BE
:10332000B5420CD8F01BA169884202D34FF00108C6
:1033300011E0211D0948006801F06AFC0BE0BE4263
:1033400004D2BD4202D34FF0010804E0211D04481D
:10335000006801F05DFC4046BDE8F0818C00002073
:103360008800002070B5054601F078FCA86B08B90C
:10337000012400E0002401F083FC204670BD70B5FC
:10338000054601F06BFCA86BE96B884201D1012472
:1033900000E0002401F074FC204670BD2DE9F047E8
:1033A00007460C4690460026206858B320464168E0
:1033B0004968416000F1080142688A4202D14168CF
:1033C000496841604168D1F80C9000BF20464168CF
:1033D0004968416000F1080142688A4202D14168AF
:1033E000496841604168CD6806EB460000EBC600C5
:1033F00007EB800143460122284601F087FD761C39
:103400004D45E3D13046BDE8F0870000F8B50546EC
:103410000E4610480068C068C468201D01F03AFBE1
:10342000E069012811D1A06941192B463246204696
:10343000FFF76CFF48B1002003462A460146009082
:10344000204602F083FD074600BF2046616A884798
:10345000F8BD00008800002070B586B04DE00398EC
:1034600000284ADB059C606908B9012000E00020C3
:1034700010B9201D01F00EFB02A800F09FF80546D0
:1034800003980A2837D2DFE800F00905072527321C
:103490000608262800BF00BF00BF00BF0498A2692D
:1034A000811803462A462046FFF730FF88B12046A0
:1034B000616A8847E06901280BD1002000900498D8
:1034C000A169421800231946204602F03FFD064636
:1034D00000BF11E000BF0FE000BF0498A061A06929
:1034E00041192B462A462046FFF710FF04E02046EC
:1034F00001F0D6FB00E000BF00BF00231A4603A97D
:103500000348006802F05EF80028A8D106B070BD3C
:1035100090000020F8B505460C4601F0AFFF684664
:1035200000F04CF80646009820BB44B9B54206D8D6
:1035300002F060FC31462846FFF768FF1CE03CB112
:103540000E480068006808B9012000E00020044629
:10355000A91B22460A48006801F0D6FB02F04AFC8B
:1035600050B94FF0805007490860BFF34F8FBFF349
:103570006F8F01E002F03EFCF8BD00008C000020DF
:103580009000002004ED00E00A490968096809B9C3
:10359000012100E0002121B14FF0FF31064A116006
:1035A00006E004490968C968C868034A41681160AF
:1035B00070470000500000207C00002070B50446D9
:1035C00002F002FB054607480068854204D200F07D
:1035D0005BF80120206001E00020206001480560C8
:1035E000284670BD980000202DE9F04102460D46A6
:1035F00000271068002843D01046D0F804C0DCF83B
:1036000004C0C0F804C000F1080CD0F80480E04504
:1036100005D1D0F804C0DCF804C0C0F804C0D0F86C
:1036200004C0DCF80C6000BF1046D0F804C0DCF821
:1036300004C0C0F804C000F1080CD0F80480E045D4
:1036400005D1D0F804C0DCF804C0C0F804C0D0F83C
:1036500004C0DCF80C1000230AE001F13800C45C5F
:10366000E85CA04200D005E00CB90F4602E05B1C0C
:10367000102BF2D300BF07B101E0B142D4D100BF9B
:103680003846BDE8F08100002DE9F84326E01D48EA
:103690000068C06805681B480068C068C468201DD1
:1036A00001F0F8F92046616A8847E069012815D1E0
:1036B000A0694619AE4207D966602461211D1148F0
:1036C000006801F0A5FA09E0002003462A460146F9
:1036D0000090204602F03AFC804600BF094800688E
:1036E000006808B9012000E000200028CFD005487C
:1036F0000768054800680349086003480760BDE89B
:10370000F8830000880000208C0000200246002181
:1037100001E0521C491C1078A528FAD0890888B20B
:10372000704700BFBF2080F31188BFF34F8FBFF3F6
:103730006F8F00BF00BFFEE710B5014600200A46AC
:103740000B4C5369A34201D1012300E0002373B164
:10375000084C936AA34201D1012300E0002333B94E
:10376000936A0BB9012300E0002303B1012010BDCF
:10377000D8570020B057002008B500BF6846FFF7B3
:10378000CDFC044620460099FFF7C4FEFFF764FE17
:10379000F4E770B5044601F061FA94F9455010E081
:1037A000606A08B9012000E0002038B904F1240063
:1037B00002F0E0FA18B101F087FC00E003E0681EB7
:1037C00045B2002DECDC00BFFF2084F8450001F07D
:1037D00057FA01F043FA94F9445010E0206908B90F
:1037E000012000E0002048B904F1100002F0C2FA04
:1037F00008B101F069FC681E45B200E001E0002D4F
:10380000ECDC00BFFF2084F8440001F039FA70BD01
:1038100070B505460E4631462846FCF761FF28463E
:10382000FCF782FF044602E020202855641C0F2C80
:10383000FAD300202855281970BD00002DE9F04169
:1038400004464FF0000801F019FE2648006820B930
:10385000FFF778FC01202349086044B1083404F0E4
:10386000070020B104F00700C0F108000444002C58
:1038700032D044F6F87084422ED21B4F3846056889
:1038800001E02F462D686868A04202D2286800280F
:10389000F7D1164885421FD0386800F1080828681B
:1038A00038606868001B102810D92E196868001B42
:1038B00070606C6071680C4800E0006802685268D3
:1038C0008A42FAD302683260066000BF084968681D
:1038D0000968081A0649086002F08CFA4046BDE8FB
:1038E000F081000048000020340000203C0000204F
:1038F000440000200648006830B10549096801F11C
:103900005400496D491C016001480068704700007F
:103910004C000020001F4FF080730360001F016007
:10392000001F054B036014380260001F6FF0020394
:1039300003602038704700002337000801460868FC
:1039400070472DE9F04104460D4616463246294699
:103950002046FEF7ACFF07463846BDE8F081000080
:1039600070B504464FF4007524B90EA0FCF70CFDA9
:10397000002070BD15B1681E284020B10EA0FCF7D4
:1039800003FD0020F5E7012004F5007420754002D6
:10399000206000206060A06020732061A4F50074A6
:1039A0002046E6E772696E675F627566206973207C
:1039B0004E554C4C0D0A000073697A65206D757385
:1039C0007420626520706F776572206F6620320DFB
:1039D0000A00000010B5034600241846FEF7A8FFB1
:1039E0000446204610BD2DE9F04104460F46154619
:1039F0002A4639462046FEF7A1FF0646AE4202D0CF
:103A0000012084F80C023046BDE8F08110B588B082
:103A1000044601210846FEF769F901211020FEF74E
:103A200085F9072209212448FDF79CFD07220A2178
:103A30002148FDF797FD4FF4C060069002208DF8F5
:103A40001C008DF81D0000208DF81E0001208DF84F
:103A50001F0006A91848FDF73DFD02940020ADF8AF
:103A60000C00ADF80E00ADF81000ADF814000C20FD
:103A7000ADF8120002A91148FEF7A8FE01210F4877
:103A8000FEF740FE40210D48FEF724FE012240F2E1
:103A900025510A48FEF775FE25208DF80400032005
:103AA0008DF805008DF8060001208DF8070001A8AB
:103AB000FEF780F808B010BD000002400010014081
:103AC00008B5134913A0FCF75FFC00201549C87521
:103AD0001548FFF745FF00220421142001F056FD90
:103AE0001249086012E000235A1E69460F48006818
:103AF00001F068FD20B10B4801690098884705E096
:103B000040F25F1202490AA0FCF73EFCEBE700001E
:103B10000D6A000825732073746172742E2E2E0DA9
:103B20000A00000008010020145C0020D4000020DE
:103B300025732D256420785175657565526563651B
:103B4000697665206572726F72210D0A00000000AF
:103B500030B59FB005461DAB1CAA0EA9284600F043
:103B6000F3F9044614B120461FB030BD00201E906A
:103B700026E0224909689DF8782001EBC2011DABBF
:103B80001BAA486801A900F0DFF904460CB12046E1
:103B9000EAE70EA901A800F03DFC60B99DF86C00B1
:103BA0009DF87010884201DD0220DDE79DF8780065
:103BB000124988750AE09DF87800401CC0B21E903A
:103BC0000E48007D9DF878108842D2DC00BF0B487B
:103BD000007D9DF87810884201D10420C4E71EA919
:103BE000284600F091FA04460CB12046BCE79DF847
:103BF0007800024948750020B6E70000080100205F
:103C00002DE9F041A0B08248847D007DA04202DC15
:103C100020B0BDE8F0817E49096801EBC40107AB23
:103C200008AA486809A900F08FF900261BE0784827
:103C3000008B0121B140084048B1304600F0EAFA5B
:103C400073492431084416A941F8260009E030469A
:103C500000F0E0FA6E492431085816A941F8260010
:103C600000BF701CC6B29DF820008642DFDB00F06A
:103C7000EFFA6748407D0B280DD2DFE800F0060D13
:103C8000151E27323F4E5F7287006149096851F85F
:103C900034008047054690E05D4A126852F83410BF
:103CA00016988847054688E0594B1B6853F834201E
:103CB000DDE91601904705467FE0554F3F6857F80C
:103CC000343016A807C89847054676E0DFF840C1AB
:103CD000DCF800C05CF8347016A80FC8B847054679
:103CE0006BE01A98DFF828C10090DCF800C05CF89F
:103CF000347016A80FC8B84705465EE0DDE91A0122
:103D0000DFF80CC1CDE90001DCF800C05CF83470CC
:103D100016A80FC8B84705464FE0DDE91A121C98EF
:103D2000DFF8ECC0CDE900120290DCF800C05CF8CE
:103D3000347016A80FC8B84705463EE0DDE91A23DF
:103D4000DDE91C10DFF8C8C0CDE90023CDE9021081
:103D5000DCF800C05CF8347016A80FC8B8470546F8
:103D60002BE0DDE91C321B991E98CDE9023201914E
:103D700004901A98DFF898C00090DCF800C05CF856
:103D8000347016A80FC8B847054616E0DDE91C23B5
:103D9000DDE91E10CDE90223CDE90410DDE91A01A9
:103DA000DFF86CC0CDE90001DCF800C05CF83470CD
:103DB00016A80FC8B847054600BF00BF00F03AFA82
:103DC0009DF81C0001280BD11148C07D20B929465F
:103DD00010A0FCF7D9FA03E0294610A0FCF7D4FAAA
:103DE0000B4890F8EC0088B10948D0F8F0000A219F
:103DF000B0FBF1F201FB12070548D0F8F000B0FB70
:103E0000F1F83A46414608A0FCF7BEFA00BFFFE6CB
:103E1000080100203D256C753B0D0A003D305825FA
:103E2000583B0D0A0000000046756E6374696F6EA2
:103E30002052756E2054696D653A25642E253164D3
:103E40006D730D0A00000000F0B503461546002012
:103E500000220026002455E01F782C2F01D104B940
:103E600001221F78292F01D01F780FB904B94AE029
:103E7000002E34D11F78302F02DB1F78392F11DD4F
:103E80001F78612F02DB1F78662F0BDD1F78412F13
:103E900002DB1F78462F05DD1F78582F02D01F78D0
:103EA000782F0CD102B12EE01F78612F03DB1F7831
:103EB000203F0F7001E01F780F70491C1FE01F7832
:103EC000222F04D102B11EE00126012417E01F7841
:103ED000202F14D01F782C2F11D0FF2613E01F782D
:103EE000222F00D1002402B10DE044B11F785C2FD5
:103EF00002D15B1C471CF8B21F780F70491C471C8D
:103F0000F8B25B1CA8E700BF00270F702E70F0BD51
:103F100010B50446002010700BE020780870641C77
:103F2000491C1078401C10701078984201DB012069
:103F300010BD2078202802D020780028EDD1002064
:103F4000087000BFF4E700002DE9FF4F85B0804600
:103F500089460027002004900390012002904FF032
:103F6000000B002544461DE02078202816D005F0DF
:103F70007F00052812DA0DB945F0800505F07F00B5
:103F8000042803D120782A2800D00EE0207805F0FC
:103F90007F010DF80100681CC5B202E0852D00D13B
:103FA00003E0641C20780028DED100BF8DB1002022
:103FB00005F07F010DF8010051A1684600F02AFAD2
:103FC00018B900210898017002E0012108980170D9
:103FD00000254FF0000A444614E0641C0AF1010079
:103FE00000F0FF0A2078202802D020782A2809D162
:103FF000204600F09FF90646282E03D02A2E01D035
:10400000CDF810A02078282802D020780028E4D10C
:104010004446049810B10498401C04444FF0000A30
:10402000002654E0207810B94FF0010A50E02078C3
:10403000282803D116B9781CC7B213E020782928A4
:1040400008D13EB917B1781EC7B201E04FF0010A9E
:1040500047B93DE02078222804D10EB9012000E0C4
:104060000020064647B9207820282FD0207889F8EC
:10407000000009F1010929E020782C2804D1012051
:104080000290681CC5B214E02078202811D0207856
:1040900028280ED04DB9BBF1050F06DA20780DF8AF
:1040A0000B000BF1010000F0FF0B0298401CC0B2A6
:1040B0000290012F0AD10298022807D10298401CD1
:1040C000C0B202900398401CC0B20390641CA9E7E0
:1040D00000BF0398012809D100200DF80B0008A1AA
:1040E000684600F097F908B90020039007990398F3
:1040F0000870002089F80000504609B0BDE8F08F34
:10410000766F6964000000002DE9F043B5B0054604
:104110000F460024002604E000213D488155701C14
:10412000C6B20A2EF8DB06E06D1C287818B901200B
:1041300035B0BDE8F08328782828F5D16D1C61E002
:1041400034AA69462846FFF77FFE064635449DF8A7
:10415000D00020B1012827D0FF284CD149E09DF89C
:10416000000000B333A9684600F0EFF806460EB130
:104170000220DDE7204600F04DF825490A31339A48
:104180000A50A1F12400008B0121A140884320495D
:104190001A39088304211E480155601CC4B20A2C38
:1041A00001DD0320C4E726E0684600F04FF9401C1B
:1041B00000F0FF08204600F02DF815490A3100EB09
:1041C00001094946684600F036F911481A38018B52
:1041D0000120A040014388B20D491A3908830C48D8
:1041E00000F80480601CC4B20A2C01DD03209FE7A4
:1041F00001E002209CE700BF2878292801D0287818
:1042000000B900E09CE700BF3C70002090E7000090
:104210002201002002460020002105E0044B5B5CE7
:104220000344D8B24B1CD9B29142F7DB704700006F
:104230002201002000207047704710B5024601207F
:1042400000E050430B00A1F10104E1B2F9D110BD2F
:104250007047000070B506462448FFF7BBFB0028F6
:1042600043D0002E41DD324621492048FFF769FB4B
:10427000C4B2601E1E49085C0A2836D1A01E085C24
:104280000D2832D1A01EC4B20020085519488168FB
:104290001748884705461DB91649C868804721E078
:1042A000134800F0DFF80446012C00D02546CDB1BC
:1042B000012D06D0022D08D0032D0AD0042D10D1D7
:1042C0000BE00DA0FCF760F80BE00EA0FCF75CF82B
:1042D00007E00FA0FCF758F803E010A0FCF754F833
:1042E00000BF00BF00201249088070BD145C002090
:1042F0001458002008010020BAAFCAFDB4EDCEF377
:10430000210D0A00B2CECAFDB4EDCEF3210D0A0094
:10431000B2CECAFDCCABB6E0210D0A00CEB4D5D2E8
:10432000B5BDC6A5C5E4B5C4BAAFCAFD210D0A0026
:104330009C0000200146491C00E0491C0878202808
:1043400001D10029F9D1087870472DE9F0430746DB
:104350000E4600254FF00A083C46002030601FE062
:104360002078392802DC207830280ADA207846289C
:1043700002DC2078412804DA2078582809D1012D60
:1043800007D12078412801DB4FF01008681CC5B226
:1043900005E0207800B904E00120BDE8F083641C4A
:1043A000DEE700BF3C46B8F1100F0FD1032D01DA54
:1043B0000220F2E72078302806D16078582803D10F
:1043C000A41CA81EC5B204E00320E6E70DB9042032
:1043D000E3E71BE00DB1681EC5B22078392806DC82
:1043E0002078302803DB2078A0F1300902E0207823
:1043F000A0F1370929464046FFF71FFF316809FB46
:1044000000103060641C207800B900E0E2E700BFD3
:104410000020C2E702460AE010780B78984201D0EB
:1044200001207047107800B902E0521C491CF3E7E4
:1044300000BF0020F5E706E002780A70027802B9B2
:1044400002E0401C491CF7E700BF7047014600200E
:1044500005E00A7802B903E0421CD0B2491CF8E733
:1044600000BF704710B592B00446322311AA04A9C8
:104470002046FFF74DFD0190019810B1012012B0C8
:1044800010BD9DF844000444002011900EE09348B4
:104490009DF8442050F8221004A8FFF7BBFF00B994
:1044A00008E09DF84400401CC0B211909DF8440003
:1044B0000D28ECD300BF9DF844000D287DD2DFE825
:1044C00000F00708426494BFF1EFEEEDECEBEA0078
:1044D00000BF83A0FBF758FF82A0FBF755FF87A022
:1044E000FBF752FF8BA0FBF74FFF90A0FBF74CFFB1
:1044F00094A0FBF749FF052000F02CFC98A0FBF7E7
:1045000043FFA4A0FBF740FFAFA0FBF73DFF052052
:1045100000F020FCB9A0FBF737FFC3A0FBF734FF86
:10452000CAA0FBF731FFD5A0FBF72EFF052000F056
:1045300011FCDEA0FBF728FFE9A0FBF725FFAFA0E9
:10454000FBF722FF87E266A0FBF71EFFF1A0FBF757
:104550001BFF002011900EE0FE4800689DF84420EB
:1045600000EBC2004168FCA0FBF70EFF9DF8440081
:10457000401CC0B21190F748007D9DF8441088425D
:10458000EADC57A0FBF700FF65E255A0FBF7FCFE55
:10459000F3A0FBF7F9FE002011901CE0ED4909683B
:1045A0009DF8442001EBC20102AB03AA486804A9AC
:1045B000FFF7CAFCE748006800E04AE29DF84410B3
:1045C00050F8312004A9F6A0FBF7DEFE9DF8440068
:1045D000401CC0B21190DF48007D9DF84410884215
:1045E000DCDC3FA0FBF7D0FE35E23DA0FBF7CCFEC4
:1045F00011AA04A92046FFF727FC9DF84400C8B97A
:1046000001A904A8FFF7A1FE11909DF8440020B96C
:10461000E8A00199FBF7B8FE0EE09DF844000428DD
:1046200001D002202BE7E6A0FBF7AEFE0120C9492E
:10463000C87501E0022022E729A0FBF7A5FE0AE2E7
:1046400027A0FBF7A1FE11AA04A92046FFF7FCFB57
:104650009DF84400C8B901A904A8FFF776FE11909F
:104660009DF8440020B9DBA00199FBF78DFE0EE018
:104670009DF84400042801D0022000E7D8A0FBF7F1
:1046800083FE0020B349C87501E00220F7E614A0BC
:10469000FBF77AFEDFE1D7E1D1E1CBE1C5E1BFE194
:1046A000BBE1FFE70EA0FBF76FFE11AA04A92046AD
:1046B000FFF7CAFB9DF8440068B901A904A8FFF7F9
:1046C00044FE11909DF8440030B9A249019881F848
:1046D000EC0008468EE19AE197E10000A00000207E
:1046E0000D0A00004465627567CFB5CDB3B5F7CA52
:1046F000D4C3FCC1EE3A0D0A000000003F3A20206E
:104700002020BBF1C8A1B0EFD6FAD0C5CFA20D0AC8
:104710000000000068656C703A20BBF1C8A1B0EFE2
:10472000D6FAD0C5CFA20D0A000000006C697374E0
:104730003A20BFC9D3C3B5C4BAAFCAFDC1D0B1ED29
:104740000D0A000069643A202020BFC9D3C3BAAF64
:10475000CAFDB5C44944C1D0B1ED0D0A0000000046
:104760006865783A2020B2CECAFD3136BDF8D6C68B
:10477000CFD4CABE2CBAF3B8FABFD5B8F12BCAFD54
:10478000D7D6BCB4D6B4D0D0BDF8D6C6D7AABBBB9A
:104790000D0A00006465633A2020B2CECAFD3130B4
:1047A000BDF8D6C6CFD4CABE2CBAF3B8FABFD5B8B6
:1047B000F12BCAFDD7D6BCB4D6B4D0D0BDF8D6C67E
:1047C000D7AABBBB0D0A000072756E74696D653A9D
:1047D000312C20BFAAC6F4BAAFCAFDD4CBD0D0BC0E
:1047E000C6CAB13B302CB9D8B1D5BAAFCAFDD4CB0B
:1047F000D0D0BCC6CAB13B0D0A0000002D2D2D2D16
:104800002D2D2D2D2D2D2D2D2D2D2D2D467265650A
:1048100052544F532D2D2D2D2D2D2D2D2D2D2D2D34
:104820002D2D2D0D0A00000070733A092020202044
:10483000C1D0B3F64672656552544F53B8F7B8F617
:10484000C8CECEF1D0C5CFA20D0A00006B696C6C4A
:104850003A092020BAF3B8FABFD5B8F12BC8CECEAA
:10486000F1C3FBD7D6A3ACC9B1CBC0D6B8B6A8C3E9
:10487000FBD7D6B5C4C8CECEF10D0A0073757370E0
:10488000656E643ABAF3B8FABFD5B8F12BC8CECE8C
:10489000F1C3FBD7D6A3ACB9D2C6F0D6B8B6A8C37D
:1048A000FBD7D6B5C4C8CECEF10D0A0072657375BC
:1048B0006D653A20BAF3B8FABFD5B8F12BC8CECEA1
:1048C000F1C3FBD7D6A3ACB0D1C8CECEF1BBD6B81E
:1048D000B4B5BD7265616479D7B4CCAC0D0A000083
:1048E00061626F72743A2020BAF3B8FABFD5B8F19A
:1048F0002BC8CECEF1C3FBD7D6A3ACB0D1C8CECE99
:10490000F1B8C4B3C97265616479D7B4CCAC0D0A8F
:10491000000000002D2D2D2D2D2D2D2D2D2D2D2D7B
:104920002D2D2D2D2D2D2D2D2D2D2D2D2DBAAFCA0B
:10493000FDC7E5B5A52D2D2D2D2D2D2D2D2D2D2D85
:104940002D2D2D2D2D2D2D2D2D2D2D2D2D2D2D2D97
:10495000200D0A000801002025730D0A0000000048
:104960002D2D2D2D2D2D2D2D2D2D2D2D2D2D2D2D77
:104970002D2D2D2D2D2D2D2D2DBAAFCAFD204944C5
:10498000202D2D2D2D2D2D2D2D2D2D2D2D2D2D2D64
:104990002D2D2D2D2D2D2D2D2D2D2D2D200D0A00C4
:1049A00025732069642069733A0D0A305825303820
:1049B000580D0A004845583A305825580D0A00004D
:1049C0003136BDF8D6C6B2CECAFDCFD4CABE210D8F
:1049D0000A0000004445433A256C750D0A000000AA
:1049E0003130BDF8D6C6B2CECAFDCFD4CABE210D75
:1049F0000A00000090F8EC0018B118A0FBF7C4FC06
:104A000007E01DA0FBF7C0FC03E0022037E5022011
:104A100035E51FA0FBF7B8FC1DE0FEF719F91AE019
:104A200001212046FCF77AFB15E002212046FCF725
:104A300075FB10E003212046FCF770FB0BE004211E
:104A40002046FCF76BFB06E005212046FCF766FBE1
:104A500001E0012013E500BF002010E552756E2033
:104A600054696D652043616C63756C6174696F6E28
:104A7000204F4E0D0A00000052756E2054696D657E
:104A80002043616C63756C6174696F6E204F46469C
:104A90000D0A000001460A69D1E901309860D1E9A8
:104AA000010358605068884201D188685060002036
:104AB00008611068401E1060106870472DE9F041D1
:104AC00005468846164600240F2700F0D7FC2648E6
:104AD0000068804543D300BF7F1E07EB8702234B4E
:104AE00003EB820104EB440202EBC40205EB8200FB
:104AF0000122FEF753FC0444002FEDD104EB4401E6
:104B000001EBC40105EB8100022219490968FEF797
:104B100045FC044404EB440101EBC40105EB8100B6
:104B2000022214490968FEF739FC044404EB4401ED
:104B300001EBC40105EB810004220F49FEF72EFCB6
:104B4000044404EB440101EBC40105EB81000322A2
:104B50000A49FEF723FC04440EB10020306001F046
:104B600049F92046BDE8F0815C0000205C56002039
:104B70005000002054000020C4570020D8570020C7
:104B800070B5044600F06AF814B90548006800E002
:104B900020460646F56A00F073F8284670BD00000E
:104BA0004C00002070B505460C462246024903A081
:104BB000FBF7EAFB70BD0000D96900080D0A2573F8
:104BC000202D3E205B25735D202C20706C65617369
:104BD000652061646420737461636B20666F72206A
:104BE000746865205461736B210D0A0D0A00000082
:104BF00000F1080141604FF0FF31816000F10801D0
:104C0000C1600161002101607047002101617047AE
:104C100010B502460B685C1C0CB9106907E002F184
:104C2000080000E04068446824689C42FAD944685F
:104C30004C604C68A160886041600A611468641C23
:104C4000146010BD42684A6093688B609368596035
:104C50009160086103685B1C0360704700BFBF2060
:104C600080F31188BFF34F8FBFF36F8F00BF0348EE
:104C70000068401C014908607047000030000020B7
:104C800006480068401E054908600846006820B9CB
:104C9000002080F3118800BF00BF70473000002063
:104CA00070B506463546B6B1083D2C4600F0E6FB29
:104CB0006168094800E00068026852688A42FAD3D5
:104CC0000268226004600549606809680844034975
:104CD000086001F08FF870BD34000020440000200F
:104CE0000348006808B9002070470120FCE7000075
:104CF0003000002003484FF0E021486107200861A0
:104D0000704700003F9002002DE9F04105460E4635
:104D100017462C46FFF7A2FF94F94400401C10B937
:104D2000002084F8440094F94500401C10B900208C
:104D300084F84500FFF7A4FFA06B28B93A46314636
:104D400004F1240000F0D6F92046FEF722FDBDE86C
:104D5000F081000070B50446002544B100F08EFBE0
:104D600000212046FEF778F801F044F805463DB9E9
:104D70004FF0805003490860BFF34F8FBFF36F8F30
:104D800070BD000004ED00E02DE9F04704468946BF
:104D90004FF0000A00F072FB1D480768206800EB26
:104DA00009052068B84207D92068A8420BD9BD423E
:104DB00009D94FF0010A06E02068A84201D8BD4297
:104DC00001D94FF0010A2560BAF1000F03D0E81BAA
:104DD0000021FEF741F801F00DF88046B8F1000F10
:104DE00007D14FF080500B490860BFF34F8FBFF3DE
:104DF0006F8F00F0E9FE06462168B14205D93246C0
:104E000005A02168FBF7C0FA2660BDE8F087000026
:104E10006000002004ED00E02A7078507265766929
:104E20006F757357616B6554696D653D25752C20F1
:104E300063757272656E743D25750D0A0000000081
:104E400070B50546FFF70AFF15B92748006800E06E
:104E500028460446201DFFF71DFE78B9E06A00EBE6
:104E60008000224951F8200040B994F82C1001200C
:104E700088401F49096881431D480160A06A18B134
:104E800004F11800FFF706FE1A480068401C194993
:104E9000086015480068844209D1211D1648FFF7B3
:104EA000D1FE16480068401C1449086009E0144807
:104EB0000068401E124908602046FEF726F9FEF7FA
:104EC00063FBFFF7DDFE0F48006858B10648006835
:104ED000844207D14FF080500B490860BFF34F8FD9
:104EE000BFF36F8F70BD00004C0000205C560020A7
:104EF0006400002078000020C457002058000020E3
:104F00005C0000206800002004ED00E02DE9F04185
:104F10002DED088B07460C4690461E4617B92948CA
:104F2000006800E038460546256005F138006060FD
:104F3000E86A2061286BE061A86CA060207B0328F0
:104F400007D100F09BFAA86A08B10220207300F094
:104F500051FF286D60610020A061052E01D02673ED
:104F600003E03846FDF7A4FD2073B8F1000F22D00E
:104F7000286BFEF7CBFB2084686B01F07EFA41ECD6
:104F8000190B218C880001F078FA41EC1B0B9FED86
:104F90000E0B53EC102B01F083FA41EC1A0B53EC7F
:104FA000192B01F0E3F841EC180B01F005F86062F1
:104FB000686BA06201E000202084BDEC088BBDE896
:104FC000F08100004C00002000000000000059406B
:104FD0007FB50546582600202870364800680390A3
:104FE000344909682C2201FB02F0FEF727FC044635
:104FF000002C5DD0002220460399FFF75FFD03904F
:10500000002002904DE0029800EB400101EBC0004F
:1050100004EB8000007B012806D0022806D003287C
:1050200006D0042808D105E0522607E0422605E014
:10503000532603E0442601E0002600BF00BF02988B
:1050400000EB400202EBC00004EB80004168284600
:10505000FEF7DEFB0546029800EB400101EBC000C5
:1050600004EB80008068029901EB410202EBC10170
:1050700004EB8101098CCDE90010029800EB40019E
:1050800001EBC00004EB800032460BA10369284607
:10509000FBF786F92846FBF747FB05440298401CBE
:1050A0000290DDE902018842ADD32046FFF7F8FD0A
:1050B0007FBD00005C0000200925630925750925D6
:1050C000750925750D0A0000012001490860704727
:1050D0007000002070B505460C460548016818317F
:1050E0002846FFF795FD01212046FDF7B5FE70BD6E
:1050F0004C00002070B506460D461446064801686F
:1051000018313046FFF79EFD0CB14FF0FF352146B8
:105110002846FDF7A1FE70BD4C00002070B5054685
:105120002C46002D4BD02649E06A0968C96A88429E
:1051300045D2A06900F0004028B921480068C06A43
:10514000C0F10F00A061E16A01EB81011D4A02EB91
:1051500081016069884201D1012000E0002050B344
:10516000201DFFF797FC78B9E06A00EB8000154935
:1051700051F8200040B994F82C10012088401249C1
:1051800009688143104801600D480068C06AE06208
:1051900094F82C10012088400B49096808430A49FB
:1051A0000860E16A01EB8101064A02EB8100211DE2
:1051B000FFF748FD03E002480068C06AE06270BD86
:1051C0004C0000205C560020640000202DE9F047D0
:1051D00080460D464FF000090F2D00D30E25FFF736
:1051E0003DFDB8F1000F02D13148006800E04046B3
:1051F0000446266DAE4256D0B5420BD92C48006805
:1052000084420DD02A480068C06AA84208D84FF0EE
:10521000010905E026480068844201D14FF00109E8
:10522000E76AE16A206D884200D1E5622565A069E0
:1052300000F0004010B9C5F10F00A06107EB870135
:105240001C4A02EB81016069884201D1012000E023
:105250000020E0B1201DFFF71DFC30B90120B8404F
:105260001549096881431448016094F82C10012005
:1052700088401149096808430F490860E16A01EB59
:1052800081010C4A02EB8100211DFFF7DBFCB9F123
:10529000000F07D04FF0805008490860BFF34F8FD0
:1052A000BFF36F8F00BFFFF7EBFCBDE8F087000096
:1052B0004C0000205C5600206400002004ED00E05B
:1052C00070B505462C4674B31748006884422AD04E
:1052D000FFF7C4FC2046FEF72FFA10B3201DFFF79E
:1052E000D9FB94F82C100120884010490968084324
:1052F0000E490860E16A01EB81010D4A02EB810071
:10530000211DFFF79FFC0849E06A0968C96A8842C5
:1053100007D34FF0805007490860BFF34F8FBFF3AA
:105320006F8FFFF7ADFC70BD4C00002064000020C3
:105330005C56002004ED00E0034909680160034960
:105340000968416070470000740000206000002080
:105350001CB5144800210B468022CDE9001012A193
:10536000134800F0B1FB0446012C02D100F0CEFD41
:105370000446012C14D100BFBF2080F31188BFF375
:105380004F8FBFF36F8F00BF4FF0FF3009490860A8
:1053900001200949086000200849086000F0B8F8B9
:1053A0001CBD00008000002049444C450000000066
:1053B0007D3100087C000020680000206000002093
:1053C00070B50546FFF74AFC15B92548006800E0AE
:1053D00028460446201DFFF75DFB78B9E06A00EB24
:1053E0008000204951F8200040B994F82C10012089
:1053F00088401D49096881431B480160A06A18B1B3
:1054000004F11800FFF746FB211D1848FFF71AFCAE
:10541000FFF736FC1648006828B1FFF71FFCFEF7BF
:10542000B3F8FFF72DFC0E480068844217D11048EE
:10543000006840B14FF080500E490860BFF34F8FB5
:10544000BFF36F8F0BE0094800680B490968884279
:1054500003D100200249086001E000F017F870BD98
:105460004C0000205C56002064000020D85700202B
:105470006800002004ED00E05C00002002480068A5
:10548000401C0149086070478400002010B51A488C
:10549000006818B10120194908602BE00020174965
:1054A000086017480068006815490968096B884258
:1054B00005D81348016838310068FFF773FB1148BD
:1054C0000068B0FA80F0C0F11F0101EB81020E4BC1
:1054D00003EB820042685268426000F108024368B0
:1054E000934202D14268526842604268D268044BDB
:1054F0001A6000BF10BD0000840000207000002072
:105500004C000020640000205C56002001607047C1
:1055100010B50E48006840F47F000C49086008464A
:10552000006840F07F400860FFF7E4FB0020084976
:105530000860FAF7CDFE0748006840F04040054992
:105540000860FAF7B5FE002010BD000020ED00E075
:105550003000002034EF00E010B500BFBF20EFF3B3
:10556000118180F31188BFF34F8FBFF36F8F00BF9E
:1055700000F030FB18B14FF0805003490860002064
:1055800080F3118800BF10BD04ED00E02DE9F84361
:1055900007460D4690460DB9002601E007FB05F6CB
:1055A00006F15000FEF74AF9044644B104F15009EF
:1055B00043464A46294638460094FDF7F3FD204607
:1055C000BDE8F8832DE9FF4782B0054689461E46AF
:1055D0004FF0000A2C4600BFFFF740FBD4F838809C
:1055E000B8F1000F3BD0E76849462046FDF73AFD89
:1055F000DEB9A8F10100A063206810B9FEF77AF9BE
:105600006060206908B9012000E0002008BB04F1B7
:10561000100000F0AFFBE0B14FF080503F49086050
:10562000BFF34F8FBFF36F8F13E0E760606A08B975
:10563000012000E0002060B904F1240000F09AFB92
:1056400038B14FF0805035490860BFF34F8FBFF33A
:105650006F8FFFF715FB012006B0BDE8F0870498B7
:1056600018B9FFF70DFB0020F6E7BAF1000F04D1DF
:105670006846FFF761FE4FF0010AFFF701FBFFF7F5
:10568000FDFEFFF7EBFA94F94400401C10B900202E
:1056900084F8440094F94500401C10B9002084F8B7
:1056A0004500FFF7EDFA04A9684600F0D1F940BBC8
:1056B0002046FDF757FEF0B1206830B9FFF7CEFA6B
:1056C0006068FFF72BFDFFF7DBFA04F12400049973
:1056D000FFF700FD2046FEF75CF800F08BFB00288A
:1056E0007FF47AAF4FF080500C490860BFF34F8FC2
:1056F000BFF36F8F70E72046FEF74BF800F07AFBA0
:105700006AE72046FEF745F800F074FB2046FDF7F7
:1057100029FE0028EED000209EE7000004ED00E006
:1057200070B505460E462C46FFF798FAD4E90F12DD
:10573000206801FB020060600020A0632068A06078
:10574000E06B401E226C216800FB0210E060FF202D
:1057500084F8440084F845009EB9206908B9012006
:1057600000E00020A8B904F1100000F003FB80B1B4
:105770004FF0805009490860BFF34F8FBFF36F8F20
:1057800007E004F11000FFF733FA04F12400FFF7FB
:105790002FFAFFF775FA012070BD000004ED00E05C
:1057A0002DE9FF4383B0074688461D464FF00009A8
:1057B0003C4600BFFFF752FAA06BE16B884201D371
:1057C000022D28D12A4641462046FDF760FC0646B8
:1057D000606A08B9012000E0002068B904F12400E3
:1057E00000F0C8FA88B14FF0805032490860BFF32A
:1057F0004F8FBFF36F8F08E03EB14FF080502D49BF
:105800000860BFF34F8FBFF36F8FFFF739FA0120A6
:1058100007B0BDE8F083059818B9FFF731FA00200A
:10582000F6E7B9F1000F04D101A8FFF785FD4FF0AD
:105830000109FFF725FAFFF721FEFFF70FFA94F9A8
:105840004400401C10B9002084F8440094F945003D
:10585000401C10B9002084F84500FFF711FA05A993
:1058600001A800F0F5F8F0B92046FDF788FDA0B1D9
:1058700004F110000599FFF72DFC2046FDF789FF84
:1058800000F0B8FA002895D14FF08050094908601F
:10589000BFF34F8FBFF36F8F8CE72046FDF779FF83
:1058A00000F0A8FA86E72046FDF773FF00F0A2FAA1
:1058B0000020ADE704ED00E02DE9F05F05468A46E3
:1058C00016461F462C4600BFBF21EFF3118081F31F
:1058D0001188BFF34F8FBFF36F8F00BF8146A06B5E
:1058E000E16B884201D3022F20D194F945B03A46AA
:1058F00051462046FDF7CBFB0BF1010070B9606A01
:1059000008B9012000E0002068B904F1240000F08B
:1059100031FA40B13EB10120306004E00BF10100EA
:1059200040B284F845004FF0010801E04FF0000854
:1059300000BF89F3118800BF4046BDE8F09F2DE904
:10594000F04705460E462C4600BFBF21EFF31180FD
:1059500081F31188BFF34F8FBFF36F8F00BF804675
:10596000D4F83890E06B48451DD994F945A009F169
:105970000100A0630AF1010070B9606A08B9012052
:1059800000E0002068B904F1240000F0F3F940B110
:105990003EB10120306004E00AF1010040B284F819
:1059A0004500012700E0002700BF88F3118800BFF1
:1059B0003846BDE8F0870000002801DD0149086095
:1059C000704700002C00002070B505462C460026CC
:1059D000FFF754FD2846FDF76BF802282BD1201D58
:1059E000FFF758F8FFF73AF9A06A30B104F1180050
:1059F000FFF750F8012084F85D00FFF741F994F8B3
:105A00002C10012088400E49096808430C490860A1
:105A1000E16A01EB81010B4A02EB8100211DFFF7D6
:105A200011F90949E06A0968C96A884202D9012066
:105A300006490860012600F0DDF9304670BD00001F
:105A4000640000205C5600204C0000207000002004
:105A500070B505460E46FFF701F918480268184868
:105A6000006890F85D0030B100201549096881F8A0
:105A70005D0001241EE03068401C08B9002419E0D4
:105A8000104928680968884204D06868904201D8A3
:105A900001240FE06868101A3168884209D2306822
:105AA0006968511A401A30602846FFF745FC002407
:105AB00000E00124FFF7E4F8204670BD60000020FC
:105AC0004C000020740000202DE9FF4F85B0804677
:105AD00089461546DDE912ABA800FDF7AFFE074683
