:020000040800F2
:1000000008DB002081030008992C000875270008F0
:10001000952C0008DD1D0008933E0008000000003C
:10002000000000000000000000000000B102000815
:100030002523000800000000050300085D7100088A
:100040009B0300089B0300089B0300080135000880
:100050009B0300089B030008292300089B0300085A
:100060009B03000849230008692300089B0300083C
:100070009B0300089B0300089B0300089B030008E8
:100080009B0300089B030008091B00089B03000852
:100090009B0300089B0300089B0300089B030008C8
:1000A0009B0300089B0300089B0300089B030008B8
:1000B0009B0300089B0300089B0300089B030008A8
:1000C0009B0300089B0300089B0300089B03000898
:1000D0009B030008613B00089B0300089B0300088A
:1000E0009B030008DD3100089B0300089B03000808
:1000F0009B0300089B0300089B0300089B03000868
:100100009B0300089B0300089B0300089B03000857
:100110009B0300089B0300089B0300089B03000847
:100120004D2000089B0300089B0300089B03000868
:100130009B0300089B0300089B0300089B03000827
:100140009B0300089B0300089B0300089B03000817
:100150009B0300089B030008752000089B03000810
:100160009B0300089B0300089B0300089B030008F7
:100170009B0300089B0300089B0300089B030008E7
:100180009B0300089B03000800F002F800F081F8D0
:100190000AA090E8000C82448344AAF10107DA45E2
:1001A00001D100F076F8AFF2090EBAE80F0013F0B3
:1001B000010F18BFFB1A43F00103184730870000F6
:1001C000508700000A444FF0000C10F8013B13F078
:1001D000070408BF10F8014B1D1108BF10F8015BA0
:1001E000641E05D010F8016B641E01F8016BF9D193
:1001F00013F0080F1EBF10F8014BAD1C0C1B09D1EA
:100200006D1E58BF01F801CBFAD505E014F8016B5B
:1002100001F8016B6D1EF9D59142D6D370470000ED
:100220000023002400250026103A28BF78C1FBD8FF
:10023000520728BF30C148BF0B607047702900F0DB
:100240009D81662908F08D81642900F02981752936
:1002500000F02681782900F08481632900F041862E
:10026000732900F04686002070471FB508F06FF92B
:1002700000F0CCFE04000020002107F079FC401CB7
:1002800060600020002107F05DFCE0601FBD10B53C
:1002900010BD01F005F81146FFF7E7FF03F068FF16
:1002A00001F031F803B4FFF7F2FF03BC03F0A1FE45
:1002B0002A4B19680868B0E8F04F80F30988BFF34B
:1002C0006F8F4FF0000080F311887047000000002E
:1002D00006480068006880F3088862B661B6BFF31C
:1002E0004F8FBFF36F8F00DF00BF00BF08ED00E04E
:1002F000DFF80C00016841F470010160704700BF35
:1003000088ED00E0EFF30980BFF36F8F134B1A689D
:100310001EF0100F08BF20ED108A20E9F04F10608A
:1003200008B44FF0BF0080F31188BFF34F8FBFF3C5
:100330006F8F06F0A7FE4FF0000080F3118808BC15
:1003400019680868B0E8F04F1EF0100F08BFB0EC55
:10035000108A80F30988BFF36F8F70475C0000201C
:10036000EFF30580704700004FF0010080F3138821
:10037000014802490160FEE70CED00E00400FA05C7
:100380000948804709480047FEE7FEE7FEE7FEE729
:10039000FEE7FEE7FEE7FEE7FEE7FEE70448054965
:1003A000034A054B70470000F53900088901000831
:1003B00008D7002008DB002008D700207047000085
:1003C0000FB4044910B503AA029800F097FD10BCC1
:1003D0005DF814FB140000200FB41CB5074B06AAEF
:1003E0007B4469460090059800F059FD002069465D
:1003F00000F068FD1CBC5DF814FB0000E10A000081
:1004000070B5044685690068C10601D5302600E054
:100410002026C00707D070BDD4E90121304690479F
:10042000206A401C20626D1EF6D570BD70B5044672
:1004300085690078C00707D170BDD4E9012120206B
:100440009047206A401C20626D1EF6D570BD70B5C5
:100450000C460546012A05D02878800600D5EA69B1
:10046000002302E0012305E05B1C934202D2E05C22
:100470000028F9D1A869E618C01AA861286A1844AA
:1004800028622846FFF7BCFF04E0D5E9012114F8F3
:10049000010B9047B442F8D32846FFF7C7FF70BD61
:1004A0002DE9F0410646002410687529314615A54E
:1004B00010D0AFF30080002802DA404212A507E016
:1004C00031688A0701D511A502E0490704D510A5B6
:1004D000012401E0AFF3008000210A2306F1240784
:1004E00007E0B0FBF3F203FB120030307854104603
:1004F000491C0028F5D123462A463046BDE8F04184
:1005000000F064BA000000002D0000002B00000085
:1005100020000000F0B40D460188090502D51B4CEF
:100520007C4402E0194C7C440E34002100F1240389
:1005300005E002F00F061209A65D5E54491C002A70
:10054000F7D102780023120704D5702D06D009B127
:10055000022311342246F0BC00F038BA01231034D3
:10056000F8E770B504460D4621461068AFF30080E9
:10057000024629462046BDE87040CBE70368126872
:1005800043F0200303600823C361C3E70A8100002E
:100590002DE9F05F894604464FF0000ADFF874B198
:1005A000FB44C0F820A02046E1688847002874D0AA
:1005B000252806D0D4E901219047206A401C2062FA
:1005C000F1E700265F462046E16888472028054677
:1005D00007DB312D05D2781910F8200C08B106433D
:1005E000F1E7B00701D526F00406C4F81CA00027E7
:1005F000C4F818A02A2D09D0284603F0F3FC38B31C
:1006000004EB8708303DC8F8185019E059F8041B6E
:10061000204604EB87029161E1688847012F054677
:1006200018D1E069002820DA26F020061DE0D8F86D
:10063000180000EB800005EB40003038C8F81800C7
:100640002046E1688847054603F0CCFC0028EED13F
:10065000012F0AD02E2D08D12046E16888477F1C43
:100660000546022F46F02006C4DBA069002803DA05
:10067000404246F00106A061F00701D026F01006C6
:100680006C2D0BD0682D09D04C2D39D06A2D35D06A
:10069000742D35D07A2D33D016E038E0E1682F463E
:1006A00020468847B842054609D16C2F26D04FF422
:1006B0008060E168064320468847054604E06C2FC9
:1006C0001AD04FF4807006430DB3A5F141001928EC
:1006D00002D8203546F400664A4629462046266060
:1006E0004E46FFF7ABFD80B101280BD0F61D26F07A
:1006F000070000F1080956E74020E4E78020D8E72A
:100700000020D6E706F104094DE7284652E7206AA3
:10071000BDE8F09FB280000070B5064600F052F9C7
:100720000468054630460A22002100F0F9FB2C60DF
:1007300070BD40EA010310B59B070FD1042A0DD309
:1007400010C808C9121F9C42F8D020BA19BA8842B2
:1007500001D9012010BD4FF0FF3010BD1AB1D307F1
:1007600003D0521C07E0002010BD10F8013B11F827
:10077000014B1B1B07D110F8013B11F8014B1B1B50
:1007800001D1921EF1D1184610BD40EA0103024684
:1007900030B59B0710D14FF0013400E008C208C902
:1007A0001D1B9D4315EAC41FF8D013F0FF0102F88A
:1007B000011B0DD01B0AF8E711F8013B002B02F8D2
:1007C000013B05D011F8013B002B02F8013BF3D1AE
:1007D00030BD10B5431C02E010F8011B71B1810758
:1007E000FAD14FF0013202C88C1A8C4314EAC211BC
:1007F000F9D0C01A0A0603D0C01E10BDC01A10BD21
:100800000A0401D0801E10BD0902FCD0401E10BD9C
:10081000032A40F2308010F0030C00F0158011F82C
:10082000013BBCF1020F624498BF11F801CB00F804
:10083000013B38BF11F8013BA2F1040298BF00F858
:1008400001CB38BF00F8013B11F0030300F0A08397
:10085000083AC0F0088051F8043B083A51F804CB3C
:10086000A0E80810F5E7121D5CBF51F8043B40F802
:10087000043BAFF30080D20724BF11F8013B11F80D
:1008800001CB48BF11F8012B24BF00F8013B00F851
:1008900001CB48BF00F8012B704702F0FF0343EA89
:1008A000032242EA024200F002B84FF0000204299B
:1008B000C0F0128010F0030C00F01B80CCF1040C8F
:1008C000BCF1020F18BF00F8012BA8BF20F8022BC3
:1008D000A1EB0C0100F00DB85FEAC17C24BF00F869
:1008E000012B00F8012B48BF00F8012B70474FF097
:1008F000000200B5134694469646203922BFA0E870
:100900000C50A0E80C50B1F12001BFF4F7AF09077B
:1009100028BFA0E80C5048BF0CC05DF804EB89006C
:1009200028BF40F8042B08BF704748BF20F8022BAF
:1009300011F0804F18BF00F8012B70474FF0013CB9
:1009400050F8042B51F8043B9A4221D1A2EB0C033E
:10095000934313EACC1317D150F8042B51F8043BFE
:100960009A4215D1A2EB0C03934313EACC130BD19B
:1009700050F8042B51F8043B9A4209D1A2EB0C0326
:10098000934313EACC13DBD04FF00000704700BF55
:10099000D01A01BAB1FA81F101F0180122FA01F07E
:1009A000CB40C1F12001DBB2C0B2C01A2CFA01F376
:1009B000D11A914311EAC311E6D1704770477047CD
:1009C0007047704700487047A4D600202DE9F047D3
:1009D0000D4699469246044600F1240801688806AF
:1009E00004D5E06921F01001216000E00120A84257
:1009F00001DD471B00E00027A1697A1902EB09001D
:100A0000081AA0612078C00602D42046FFF7F8FC3F
:100A1000002608E0D4E901211AF806009047206A70
:100A2000401C761C20624E45F4DB2078C0060AD5B7
:100A30002046FFF7E5FC06E0D4E90121302090478D
:100A4000206A401C2062381EA7F10107F4DC07E091
:100A5000D4E9012118F805009047206A401C206263
:100A6000281EA5F10105F3DC2046FFF7DFFC207806
:100A7000000602D50220BDE8F0870120FBE77047A1
:100A80002DE9FF4F0C461E464FF0FF378BB0D2E9E1
:100A90000001DDF860800A908A46C1F30A5505B965
:100AA0003D46002108464FF00000BAF1000F00F467
:100AB000400005DA00EB80004FF4400101EA5000ED
:100AC0004FEA9059B9F1010F00DDB9460A9850EA92
:100AD0004A000ED044F61050A5F2FF3545432F14BE
:100AE000B8F1000F1ED07542291E1EDDC9F10002AB
:100AF0001CE0B8F1010F4FF0000001D0302103E0FD
:100B0000F24305E02154401CB042FBDB304600229A
:100B1000002121540B99C1F80880C1E900200FB0D1
:100B2000BDE8F08FBD1B6D1CDEE74A4600DA694266
:100B300006A800F045FB06AB93E8070003AB83E88B
:100B4000070050460A9900F0E4FB8DE80700A0F585
:100B500000501F3800900398002D09DD42F21F015C
:100B60004A46084403A90390684600F043FE08E0A3
:100B7000A0F500504A461F3803A90390684600F0CC
:100B80004DFE8DE807000004000C03D04FF0FF304D
:100B9000410800E01046B8F1000F03D00022009297
:100BA00015461EE0751E05D400F034FA3032625549
:100BB0006D1EF9D5B3460122084302D000227F1CE6
:100BC00004E02078302801D100227F1E002A0997F6
:100BD00086D01DE0112D07DA00F01CFA3032625584
:100BE0006D1C50EA0102F5D1084302D00098C8B14B
:100BF0000EE00021681E05E0235C625C6354225411
:100C0000401E491C8142F7DBAB46A81B401E0990E1
:100C1000002004F80B000B98099AC0F80880C0E97E
:100C2000002B7CE711264FF0000859E72DE9F04F23
:100C300088460446D21D22F0070191B0D1E9000197
:100C4000CDE90A0103F027F902460B98C00F01D045
:100C50002D2007E02068810701D52B2002E020210C
:100C600001EAC000032A099001D0072A05DB0346E8
:100C70004146204600F014FA09E12078800601D5AB
:100C8000E06900E00620B8F1650F814606D0B8F1B2
:100C9000660F18D0B8F1670F70D131E00020B9F1BC
:100CA000110F009001DB112301E009F101030AAAF1
:100CB00001A90CA8FFF7E4FEDDE90C70002609F19C
:100CC0000105834647E001204B4600904FF0004766
:100CD0000AAA01A90CA8FFF7D3FEDDE90DB00C9913
:100CE0005D46002610B909F101000D18B9EB0500A9
:100CF00003D4C0F1FF3609F10105A5EB09002BE093
:100D0000B9F1010F01DA4FF001090020B9F1110F1B
:100D10000090484601DD112300E003460AAA01A91C
:100D20000CA8FFF7ADFEDDE90C704D4600268346AA
:100D3000207800070AD4AB4500DA5D4601A8012DF2
:100D400004DD411911F8011C302907D04F4502DAA2
:100D500017F1040F04DA012082460FE06D1EEEE762
:100D6000002F02DCED1B3E4403E0781CA84200DDAE
:100D70007D1CB81B00F1010A4FF0004720780007E6
:100D800003D4AA4501DB4FF0FF3A0021B7F1004F31
:100D90000DF143088DF8431022D002202B23002FA1
:100DA00001DA7F422D234FF00A0C011EA0F1010051
:100DB00000DC47B197FBFCF10CFB11720F4630329F
:100DC00008F8012DF1E7A8F1010003702188090559
:100DD00001D5452100E06521A0F1010800F8011CC2
:100DE00009980FA9A1EB0807FF1D00B101204119C7
:100DF00001EBEA70A1693844081A401EA06120780E
:100E0000C00602D42046FFF7FBFA099828B1D4E9BE
:100E100001219047206A401C20622078C00622D51C
:100E20002046FFF7EDFA1EE0002E04DBB34502DD9D
:100E300001A8805D00E03020D4E901219047206ABC
:100E4000401C2062761CAAF101005FEA000A0AD168
:100E500000F0DCF8C0680168405CD4E901219047EB
:100E6000206A401C2062281EA5F10105DCDC07E099
:100E7000D4E9012118F8010B9047206A401C206238
:100E8000381EA7F10107F3DC2046FFF7CFFA022056
:100E900011B045E601694A1C02610878704700B547
:100EA0008FB0CDE901310021059105497944CDE9A3
:100EB000031011466846FFF76BFB0FB000BD000042
:100EC000E5FFFFFF0A6802F8010B0A60704710B5E2
:100ED000436913B1AFF3008001E0FFF7B8FA0120D6
:100EE00010BD127800F124010A7000224A7001221C
:100EF000EDE711684FF0FF32E9E70000074B70B5EE
:100F00000D467B44FFF7CBFF0446284600F0C4F9AA
:100F100010B14FF0FF3070BD204670BD2F32000081
:100F20002DE9F04791460F4680460446002614F806
:100F3000015B2DB100F062F80068405DC007F6D19A
:100F40002B2D02D02D2D18D0641E4A46394620463E
:100F500000F0E6F827B13968A14201D1C7F8008056
:100F60004FF0020471050BD54042002803DDFFF766
:100F700029FD0460A007BDE8F08746F48066E4E739
:100F80000028F8DAFFF71EFD04606FF00040F2E77A
:100F900010B5203AC0F00B80B1E81850203AA0E814
:100FA0001850B1E81850A0E81850BFF4F5AF5FEA48
:100FB000027C24BFB1E81850A0E8185044BF18C9FB
:100FC00018C0BDE810405FEA827C24BF51F8043BA2
:100FD00040F8043B08BF7047D20728BF31F8023BF6
:100FE00048BF11F8012B28BF20F8023B48BF00F88A
:100FF000012B704700487047A4D6002010B500F0C0
:1010000005F8001D10BD00BF696B00000048704767
:10101000C4D6002030B5B0F10A024FEA900E71F14B
:1010200000034EEA817EB0EB0E0061EB91014FEAC6
:10103000101E4EEA017E10EB0E0041EB11114FEA3B
:10104000102E4EEA016E10EB0E0041EB11214FEA1B
:10105000104E4EEA014E10EB0E0041EB11414018CC
:1010600041F100014FEAD00040EA41704FEAD1015E
:1010700010EB80054FEA810444EA907444EB0104CC
:101080006D1944EB0404521BA3414FF0000348BF09
:101090000A3200D530BD401C41F1000130BD0000D6
:1010A0002DE9F0411F46044603260168072A01F492
:1010B000006004DB08B116A505E016A503E008B141
:1010C00015A500E015A521F010002060A069C01E44
:1010D000A0610FB1401EA0612046FFF791F94FB10A
:1010E000D4E9012138469047206A401C2062C01C88
:1010F000206206E0206AFAE7D4E9012115F8010B25
:101100009047761EF8D22046FFF790F9BDE8F081AF
:101110004E414E006E616E00494E4600696E66009B
:101120002DE9F05F824615468B4600270AF101043F
:10113000B9460078302801D09DB113E014F8010BB6
:101140000127782803D0582801D045B10AE00DB115
:10115000102D07D1002714F8010B102502E00825F7
:1011600000E00A250026B0460EE005FB080005FB5E
:1011700006F101271FFA80F801EB1046B6F5803F13
:1011800000D3B94614F8010B294600F0AEF8002848
:10119000EBDABBF1000F05D00FB1641E00E054463E
:1011A000CBF80040B9F1000F06D0FFF70BFC02218D
:1011B0000160C81EBDE8F09F48EA0640FAE700005B
:1011C0002DE9F047814616468AB0324878440DC86A
:1011D0008DE80D002F487844801C03AC0DC884E8CE
:1011E0000D0041F69B303722014491FBF2F0A0F153
:1011F000800502FB10141B3C02D56442012000E074
:101200000020DFF890A080460027FA44AAF1BA0A2D
:101210000DE0E00709D03246684607EB47010AEBCC
:10122000810100F0FBFA8DE8070064107F1C002CA0
:10123000EFD1184F7F44A83F18E0E80714D007EB20
:1012400004100DF1180A90E80E008AE80E00C0683C
:10125000F04201D198190890324606A903A800F07F
:10126000DDFA03AB83E807006D10641C002DE4D1A8
:1012700032466946B8F1000F03A802D000F0BAFA6E
:1012800001E000F0CBFAC9E90001C9F808200AB072
:10129000BDE8F08714750000007B00F08000704707
:1012A0007546FFF7A7FEAE4605006946534620F097
:1012B0000700854618B020B5FFF770F8BDE820405C
:1012C0004FF000064FF000074FF000084FF0000B02
:1012D00021F00701AC46ACE8C009ACE8C009ACE8B5
:1012E000C009ACE8C0098D4670473A2800D23038B2
:1012F00020F02002412A01D3A2F13700884201D315
:101300004FF0FF3070470446AFF300802046FEF7F1
:10131000C9FF5FEA400C08BF91F0000F4FEA8C2331
:101320004FEAC12243EA51514FEA1C5018BF00F561
:10133000F0404FEA300018BF41F000415FEA6C5CBA
:1013400000F02980BCF1FF3F08BF40F080407047AB
:10135000130C06BF12044FF0100C4FF0000C130ECC
:1013600004BF12020CF1080C130F04BF12010CF1A0
:10137000040C930F04BF92000CF1020CD30F04BFB6
:1013800052000CF1010C11464FF00002A0F11F00B9
:10139000A0EB0C00704711F0004F08BF704731F010
:1013A00000413FF4D5AF0B0C06BF09044FF0100C01
:1013B0004FF0000C0B0E04BF09020CF1080C0B0FD0
:1013C00004BF09010CF1040C8B0F04BF89000CF160
:1013D000020CCB0F04BF49000CF1010CCCF120032F
:1013E000A0EB0C0022FA03F302FA0CF241EA03012B
:1013F00000F10100704720F07F4C80EA030023F0E9
:101400007F47ACEB070303F57C5300F0004003F18A
:10141000FF032DE980494FEA154B09B44FEA144305
:1014200025EA0B4E24EA03480FF2042606EB1327A5
:1014300049083E785FEA320203FB0667C7F50007FA
:1014400007FB06F64FEA54374FEAD64606F1020686
:1014500007FB066CCCF1005C4FEA1C472CEA074CFA
:1014600007FB06F40CFB06F504EB15464FEA96164F
:1014700034BF00204FF000404FEAD13706FB07FC95
:101480004FEA1C4C0CFB0BF7D21B03FB0CF761EB78
:1014900007010CFB0EF7B0EB074072EB17420CFB99
:1014A00008F734BFA2EB0742B2EB074261EB1741EA
:1014B0004FEA0C444FEA910706FB07FC4FEA1C4C2D
:1014C0000CFB0BF7B0EBC74072EB573203FB0CF78A
:1014D00034BFA2EBC742B2EBC74261EB57310CFB02
:1014E0000EF7B0EBC70072EB57720CFB08F734BF76
:1014F000A2EBC702B2EBC70261EB5771039F4FEA41
:10150000816141EA921104EBCC044FEAD1374FEAF2
:10151000826206FB07FC42EA90124FEA80604FEAC3
:101520001C4C0CFB0BF7D21B03FB0CF761EB070108
:101530000CFB0EF7B0EB074072EB17420CFB08F701
:1015400034BFA2EB0742B2EB074261EB17414FEA0F
:101550008C554FEA910704EB9C2406FB07FC4FEAED
:101560001C4C0CFB0BF7B0EBC74072EB573203FB84
:101570000CF734BFA2EBC742B2EBC74261EB573165
:101580000CFB0EF7B0EBC70072EB57720CFB08F7C1
:1015900034BFA2EBC702B2EBC70261EB577115EB88
:1015A0004C254FEA816141EA92114FEA82624FEA8B
:1015B000D13742EA901206FB07FC44F100044FEADF
:1015C00080604FEA1C4C0CFB0BF7D21B03FB0CF7A3
:1015D00061EB07010CFB0EF7B0EB074072EB174213
:1015E0000CFB08F734BFA2EB0742B2EB074261EBFA
:1015F000174115EB1C154FEA813141EA92414FEA40
:10160000823242EA90424FEA80304FEA0C7644F14F
:10161000000448EA03434EEA0B484FF0000EB2EBD9
:10162000080C71EB030724BF624639464EEB0E0EE1
:101630004FF0000B0018524149414BEB0B0BB2EB42
:10164000080C71EB03077BF1000B24BF624639469F
:101650004EEB0E0E4FF0000B0018524149414BEB80
:101660000B0BB2EB080C71EB03077BF1000B24BFF3
:10167000624639464EEB0E0E51EA020718BF46F09D
:10168000010616EB0E7655F1000254F1000103D568
:10169000BDE88901BDE80088BDE88901B619BDE84B
:1016A0000048524141EB0101A3F1010370478080E2
:1016B0007F7E7D7C7B7A79787776767574737271AC
:1016C00071706F6E6E6D6C6C6B6A6A696868676664
:1016D00066656464636362616160605F5F5E5E5DF6
:1016E0005D5C5C5B5B5A5A5959585857575656556A
:1016F00055555454535352525251515050504F4FCC
:101700004F4E4E4D4D4D4C4C4C4B4B4B4A4A4A491B
:10171000494948484847474747464646454545445E
:101720004444444343434342424242414141002BEB
:1017300026D4770021D01CB54FEA370703B44FF009
:1017400010004FF010014FF000000FBC0BF1010B27
:10175000BDE81040BBF1010F08BF5FEA170722BFC9
:1017600012F1010211F101014FF0004143F10003B8
:1017700000F0004043EA00007047F9D35708DAE769
:1017800046EA064613F1400F4FEA16461FDD13F1F5
:10179000200FDFBF16430A46002120335B42C8D02A
:1017A000C3F1200746EA064602FA07F74FEA164653
:1017B00046EA0706C3F1200722FA03F201FA07F707
:1017C00021FA03F14FF0000342EA0702B1E746EACB
:1017D000020646EA06464FEA164646EA0106BCBF3E
:1017E00046EA0646360C4FF000034FF000024FF079
:1017F00000019EE72DE9C048934630B491E83800D7
:1018000007C831EA400C48BF34EA430C03D5FFF760
:10181000F2FDFFF78CFFF0BCBDE800882DE9C04861
:10182000934630B491E8380007C810F0804F08BFE5
:1018300013F0804F03D100F005F8FFF778FFF0BCFC
:10184000BDE8008820F07F4780EA030023F07F4C4A
:1018500007EB0C03A3F57C5300F00040A3F1FE035B
:1018600092F0000F00F0B38095F0000F00F0778049
:101870002DE901494FEA11404FEA144621EA004898
:1018800000FB06FC24EA064708FB06F607FB08F8FF
:1018900000FB07F718EB06484CEB164C4FEA124BCF
:1018A00018EB07484FEA15464CEB174022EA0B4E5F
:1018B0000BFB06FC25EA06470EFB06F607FB0EFEB1
:1018C0000BFB07F71EEB064E4CEB164C4FF00006D9
:1018D0001EEB074E4CEB174B18EB0B0840F10000CA
:1018E00018EB0E0B58EB000840F100008F1A4FF078
:1018F00000013CBFC943661B14BFB5EB040C0021BB
:101900003CBFC943F61B4FEA17444EEA8E0E27EA46
:1019100004454FEA1C4704FB07622CEA074C05FB11
:1019200007F70CFB05F604FB0CFC16EB074642EB35
:10193000174216EB0C4642EB1C421BEB060658EB1B
:101940000202414146EA9E0601D5BDE80189B61969
:10195000524141EB0101A3F10103BDE801894FEAC6
:1019600014454FEA114724EA054621EA074C05FBD6
:1019700007F406FB07F70CFB06F105FB0CFC11EB6B
:10198000074144EB17444FEA124711EB0C4144EB7B
:101990001C4422EA074C05FB07F206FB07F70CFB89
:1019A00006F605FB0CFC16EB074642EB174216EB5E
:1019B0000C4642EB1C456A1854F1000148BF7047C1
:1019C000B619524141EB0101A3F10103704795F0B3
:1019D000000F37D04FEA11424FEA144721EA02467E
:1019E00024EA074C02FB07F106FB07F70CFB06F4A1
:1019F00002FB0CFC14EB074441EB17414FEA15477F
:101A000014EB0C4441EB1C4125EA074C02FB07F5A3
:101A100006FB07F70CFB06F602FB0CFC16EB074671
:101A200045EB174516EB0C4645EB1C42121951F1DC
:101A3000000148BF7047B619524141EB0101A3F1C3
:101A4000010370474FEA14454FEA114724EA05465F
:101A500021EA074C05FB07F106FB07F70CFB06F232
:101A60004FF0000605FB0CFC12EB074241EB17415F
:101A700012EB0C4251EB1C4148BF7047921841EBEE
:101A80000101A3F10103704700220A12D34303604E
:101A9000704721B1826842F00102826003E08268EF
:101AA00022F00102826070470021084A1168084A4A
:101AB0001140D0E900231A4383681A43C3681A43CC
:101AC0001143044AC2F80413704700000423014084
:101AD000E030FCFF002001400146C86C80B2704736
:101AE00070B502460020002300240B125568012621
:101AF0008E4005EA060415681D4015B10CB10120A1
:101B000000E0002070BD000008B504F02DFE40F29A
:101B100005210C48FFF7E4FF01280FD140F2052111
:101B20000848FFF7B1FF0748FFF7D6FF00900023F2
:101B30001A4669460448006805F0C0FC04F026FE19
:101B400008BD0000002001406002002010B50B46D7
:101B50000021D9B2012404FA01F11AB144680C43FE
:101B6000446002E044688C43446010BD30B50246D6
:101B7000002000235068104C20400D790C6844EA86
:101B800005242043506090680C4C2040D1E9035458
:101B90002C438D682C434D7944EA450420439060E2
:101BA000D06A20F470000C7D641EE4B2234340EA46
:101BB0000350D06230BD0000FFFEFFFCFDF7FFC008
:101BC000F0B504460D4600200021092D11DDE06826
:101BD000A5F10A0606EB4607072606FA07F1884331
:101BE000A5F10A0606EB460603FA06F10843E06093
:101BF0000CE0206905EB4507072606FA07F1884344
:101C000005EB450603FA06F108432061072A0FDABF
:101C1000606B561E06EB86071F2606FA07F18843FF
:101C2000561E06EB860605FA06F10843606322E0BD
:101C30000D2A0FDA206BD61F06EB86071F2606FA41
:101C400007F18843D61F06EB860605FA06F108431E
:101C5000206310E0E06AA2F10D0606EB86071F265E
:101C600006FA07F18843A2F10D0606EB860605FA8F
:101C700006F10843E062F0BD816841F08041816077
:101C80007047000038B10849096841F40001074A6B
:101C9000C2F8041306E00449096821F40001034A6C
:101CA000C2F80413704700000423014000200140E3
:101CB00000B58DB00121084601F07AF90121080232
:101CC00001F0A6F920200A9003208DF82C000120B5
:101CD0008DF82F000AA9304800F028FC01210802E5
:101CE00001F0A6F900214FF4807001F0A1F9012064
:101CF000FFF7C8FF00200690099008904FF480304D
:101D0000079006A8FFF7D0FE002000908DF8040091
:101D10008DF805000290049001208DF814006946AA
:101D20001E48FFF723FF0723012205211B48FFF769
:101D300047FF0723012210211848FFF741FF012127
:101D40001648FFF7A6FE012240F205211348FFF7CF
:101D5000FDFE12208DF8300001208DF831000220A8
:101D60008DF8320001208DF833000CA800F096FFAA
:101D700000220221032005F00BFA094908600846F9
:101D8000006818B107A0FEF71BFB02E00CA0FEF7ED
:101D900017FB0DB000BD0000000002400020014014
:101DA00060020020696E6974207841646351756532
:101DB000756520737563636573732E2E2E0D0A008F
:101DC000696E697420784164635175657565206634
:101DD00061696C2E2E2E0D0A0000000000BFFEE788
:101DE0007FB50546002600200090019002900390E8
:101DF00000E06D1C28782028FBD029466846FEF7B5
:101E0000C4FC694641A0FEF7DBFA00E0761C1DF831
:101E10000600302803DB1DF806003928F6DD1DF822
:101E2000060018B13EA0FEF7CBFA7FBD6846FEF76C
:101E300073FC04460F2004F02FFDB4F5964F35D007
:101E400009DCB4F5166F10D0B4F5965F19D0B4F56F
:101E5000165F4FD121E0B4F5E13F30D0B4F5613FDA
:101E600036D0B4F5E12F45D13BE003F03DF83548DD
:101E70000460282004F010FD4FF4166003F046F8CB
:101E800041E003F031F82F480460142004F004FD11
:101E90004FF4965003F03AF835E003F025F829485E
:101EA00004604FF4165003F031F82CE003F01CF8F6
:101EB000244804604FF4964003F028F823E003F030
:101EC00013F8204804604FF4E13003F01FF81AE0E3
:101ED00003F00AF81B4804604FF4613003F016F871
:101EE00011E003F001F8174804604FF4E12003F01B
:101EF0000DF808E01348016813A0FEF761FA17A077
:101F0000FEF75EFA00BF00BF00BF8EE75365742086
:101F10006261756420746F202573210D0A00000032
:101F20004572726F7220636F6D6D616E64212075F2
:101F300073652062617564202B206E756D62657219
:101F40000D0A0000380100207843757272656E74C6
:101F500042617564203D2025640D0A00706C656146
:101F6000736520696E70757420393630302F3139C1
:101F70003230302F3131353230302F32333034304F
:101F8000302F34363038303020210D0A0000000068
:101F900010B5044600E0641C20782028FBD02046C1
:101FA000FEF717FC232803D82046FEF712FC38B9A9
:101FB0000E490FA0FEF704FA14A0FEF701FA07E09D
:101FC00024210A48FEF771FC21460848FEF7DDFB94
:101FD0001BA10648FEF7B2FC18B900201A49087088
:101FE00002E001201849087010BD0000AF00002079
:101FF00043757272656E742075736572206E616DC3
:10200000652069732025730D0A000000456E746514
:1020100072207375202B20757365724E616D652C6F
:1020200020757365724E616D6572206D75737420D5
:102030006C656E67746820317E333520210D0A008F
:10204000726F6F7400000000AE00002010B504F045
:102050008BFB0649064800F05BF818B103490448B9
:1020600000F026F804F092FB10BD00002080001064
:102070001064024010B504F077FB0A490A4800F0EA
:1020800047F860B10749084800F012F800210648F7
:1020900000F028F800210548006804F0BDFD04F0B8
:1020A00075FB10BD00800028B864024028000020A5
:1020B0000246094B9A4201D2084801E0064810380E
:1020C00001F000531BB1064B0B40C36002E0044B10
:1020D0000B408360704700001064024000600240C3
:1020E0007D0F7D0F21B1026842F00102026003E022
:1020F000026822F0010202607047014600200A686F
:1021000002F001020AB1012000E000207047000047
:1021100070B50246002000240025124EB24201D2C2
:10212000114B01E00F4B103B104E0E4036B11E26F6
:1021300006EAD124166806EA040502E0566906F0AC
:10214000800501F000560EB15C6800E01C68084E86
:10215000344004EA010616B10DB1012000E0002070
:1021600070BD000010640240006002403C0F3C0F54
:102170007D0F7D0F416070477FB504460E462246B5
:1021800029492AA0FEF71CF9002000900190029036
:10219000039000E0641C20782028FBD0214668468C
:1021A000FEF7F3FA694626A0FEF70AF9684605F03D
:1021B0007FFA0546002D31D0012E06D0022E0CD01C
:1021C000032E12D0042E27D117E0284604F0DAFBA4
:1021D00069461FA0FEF7F4F81FE0284604F0ECFE65
:1021E000694622A0FEF7ECF817E0284604F064FEEA
:1021F000694625A0FEF7E4F80FE0284605F0A2F9AD
:10220000012804D1694627A0FEF7DAF803E0694601
:102210002EA0FEF7D5F800E000BF03E0294634A069
:10222000FEF7CEF87FBD0000FE85000825733A203A
:10223000636F6D6D616E64203D2025730D0A000093
:102240007461736B4E616D65203D2025730D0A002E
:1022500064656C657465207461736B2025732073ED
:10226000756363657373210D0A00000073757370E5
:10227000656E64207461736B2025732073756363CE
:10228000657373210D0A0000726573756D652074A6
:1022900061736B2025732073756363657373210D00
:1022A0000A00000077616B65207570207461736BA4
:1022B0002025732066726F6D20626C6F636B2073D4
:1022C000756363657373210D0A00000077616B65A8
:1022D000207570207461736B2025732066726F6D9A
:1022E00020626C6F636B206661696C210D0A0000CF
:1022F000746172676574203D202570206572726F6D
:10230000722120706C6561736520696E7075742030
:102310007269676874207461736B206E616D652EDD
:102320000D0A00007047000010B5012000F088F889
:1023300004F01AFA00210348006804F06DFC04F070
:1023400025FA10BD2400002010B5082000F078F810
:1023500004F00AFA00210348006804F05DFC04F070
:1023600015FA10BD2400002010B5102000F068F808
:1023700004F0FAF900210348006804F04DFC04F071
:1023800005FA10BD240000200EB500F02DFA012141
:10239000880300F03DFE0321042001F073F90421BD
:1023A000084601F06FF90021084601F06BF90120A1
:1023B000009000208DF8040008208DF80500012011
:1023C0008DF80600684600F041F8182000900020C3
:1023D0008DF804000C208DF8050001208DF8060012
:1023E000684600F033F806208DF8080003208DF8C9
:1023F000090000208DF80A0001208DF80B0002A8CA
:1024000000F04CFC09208DF8080003208DF809002D
:1024100001208DF80A008DF80B0002A800F03EFCA8
:102420000A208DF8080003208DF8090002208DF89D
:102430000A0001208DF80B0002A800F02FFC0EBD51
:102440000149086070470000143C01400021234905
:102450008279002A3AD00A46126803689A430B46EA
:102460001A600A1D126803689A430B1D1A600279EC
:1024700011440A6803681A430A60184A083212684D
:1024800003689A43154B08331A601A1D12680368D3
:102490009A43124B0C331A604279102A0ED11A1F3C
:1024A000126803681A430D4B08331A601A1D12682C
:1024B00003681A43094B0C331A600DE0074942794F
:1024C00011440A6803681A430A6005E0027911445E
:1024D0000A6803689A430A6070470000003C0140A4
:1024E00008B5002004F0D2F804460D21002004F0C5
:1024F00069FC0A490AA0FDF763FF2146002004F0A9
:1025000061FC05F023F9009006E000F03DF94FF47E
:10251000FA61684604F0DAF9F7E7000083850008FD
:102520002573202E2E2E0D0A00000000F0B50A465D
:1025300000210023002400BF3DE0012505FA01F33E
:10254000156805EA03049C4234D105684F00032650
:10255000BE40B543056015794E00B5400668354369
:1025600005601579012D02D01579022D16D18568E7
:102570004F000326BE40B543856055794E00B540F7
:10258000866835438560456801268E40B5434560C1
:10259000456896798E40B6B235434560C5684F00B0
:1025A0000326BE40B543C560D5794E00B540C66828
:1025B0003543C560491C1029BFD3F0BDF0B50023D9
:1025C00000244D07ED0E02FA05F3CE1000F12005B0
:1025D00055F826504E07F70E0F26BE40B543CF10D4
:1025E00000F1200646F82750CE1000F1200555F8DE
:1025F000265045EA0304CE1000F1200545F8264098
:10260000F0BD0246002013690B400BB1012000E031
:10261000002070470183704710B50446072301224C
:1026200021460E48FFF7CCFA0C48FFF725FB0C4873
:1026300000880C4908800023C82209490A4800681C
:1026400004F0C2FD10B10648008810BDA72207495A
:1026500007A0FDF7B5FE03480088F6E7002001401B
:102660006602002068020020600200202686000822
:1026700025732D25642078517565756552656365F0
:10268000697665206572726F72210D0A0000000084
:102690002DE9F04107460C460025002608E03846A3
:1026A000FFF7BAFF0544052004F0F6F8701CC6B227
:1026B000A642F4DBB5FBF4F080B2BDE8F081000087
:1026C00010B52DED088B0A211020FFF7E1FF08EE71
:1026D000100AB8EE480A10EE100A05F0C7FE41ECE9
:1026E0001A0B9FED1A0B53EC102B05F0CBFC41ECB1
:1026F000190B9FED180B53EC102B51EC190B05F037
:10270000CBFD41EC1B0B9FED150B53EC102B05F093
:102710001FFB41EC1A0B9FED130B53EC102B05F034
:102720006FFA41EC190B9FED110B53EC102B51EC90
:10273000190B05F0A7FC41EC190B41EC1A0B05F045
:102740005FFC04B22046BDEC088B10BD6666666671
:1027500066664A3F52B81E85EB51E83F7B14AE4790
:10276000E17A643F000000000000394000000000F2
:102770000000594000BFFEE74CF6CC40014908601C
:10278000704700000030004010B500F013F810BD95
:1027900070B505460C4645F2555000F01FF8284626
:1027A00000F010F8204600F013F800F003F8FFF7EF
:1027B000E3FF70BD4AF6AA20014908607047000097
:1027C0000030004001494860704700000030004080
:1027D00001498860704700000030004001490860EE
:1027E00070470000003000401CB50121112000F0AE
:1027F000DFFB1820009000208DF8040003208DF8E6
:10280000050001208DF8070069460648FFF78EFE97
:102810000120009002208DF8070069460248FFF76A
:1028200085FE1CBD001002400000024000244B4900
:102830004BA0FDF7C5FD8FE04FF0FF31012002F006
:10284000D1FB0A2004F028F8002403E0641C0A20CD
:1028500004F022F801214548FFF7D3FE0128F5D006
:10286000C82C04DD3D4942A0FDF7AAFD05E0002C7F
:1028700003DD3A4944A0FDF7A3FD002403E0641CF6
:102880000A2004F009F808214348FFF7BAFE00289F
:10289000F5D0C82C0CDD4148006808B9012000E0E3
:1028A00000203E4908602D493DA0FDF789FD0DE05F
:1028B000002C0BDD3948006808B9012000E0002039
:1028C0003649086025493CA0FDF77AFD002403E065
:1028D000641C0A2003F0E0FF10212F48FFF791FE4F
:1028E0000028F5D0C82C17DD2C48001F006808B957
:1028F000012000E000202949091F08603248D0F873
:102900009C0208B9012000E0002024490860134916
:102910002EA0FDF755FD18E0002C16DD1F48001F06
:10292000006808B9012000E000201C49091F086068
:102930002548D0F89C0208B9012000E00020174982
:102940000860064927A0FDF73BFD00F019FC05468D
:10295000294628A0FDF734FD6EE70000AF8500088A
:102960002573202E2E2E0D0A0000000000000240CC
:10297000257320504130206C6F6E67207072657334
:1029800073210D0A00000000257320504130207093
:1029900072657373210D0A00001002409C024042D0
:1029A000257320504533206C6F6E672070726573FD
:1029B00073210D0A0000000025732050453320705C
:1029C00072657373210D0A00000040422573205088
:1029D0004534206C6F6E67207072657373210D0A29
:1029E0000000000025732050453420707265737319
:1029F000210D0A0072616E646F6D203D2025640D0B
:102A00000A00000008B5002003F040FE04460D2136
:102A1000002004F0D7F9184918A0FDF7D1FC214691
:102A2000002004F0CFF9184818A3012244F62061D1
:102A3000009017A005F014F81749086004F086FE0E
:102A40000546002003462A460121009012480068EE
:102A500005F03EF80FE01148006808B9012000E0D9
:102A600000200E4908604FF4FA5003F015FF0249A8
:102A70000BA0FDF7A5FCEEE76F8500082573202E5F
:102A80002E2E0D0A00000000253B000854310000E6
:102A900074696D6572310000200000209802404288
:102AA00025730D0A00000000002003F0EFFD04462E
:102AB0000D21002004F086F90C490DA0FDF780FCE3
:102AC0002146002004F07EF90FE00C48006808B9A8
:102AD000012000E000200949086042F2107003F074
:102AE000DBFE024906A0FDF76BFCEEE779850008E6
:102AF0002573202E2E2E0D0A000000009C0240425D
:102B000025730D0A000000001CB50121084600F0E5
:102B10004FFAC020009001208DF8040000208DF8AD
:102B2000060003208DF8050001208DF80700694696
:102B30000348FFF7FBFCC0210148FFF76BFD1CBDFC
:102B40000000024010B5054803F0E4FF04A0FDF7C3
:102B500037FC02490EA0FDF733FC10BDA4D40020C1
:102B60004E616D65202020202020205374617475F3
:102B70007320205072696F726974792020576174D4
:102B800065724D61726B20204E756D0D0A0D0A0045
:102B90002573000008B511A0FDF712FC1648D0F807
:102BA000000200901448D0F80832D0F80422D0F87F
:102BB000101212A0FDF704FC1D48D0F8000200908E
:102BC0001B48D0F80832D0F80422D0F8101219A00F
:102BD000FDF7F6FB01A0FDF7F3FB08BD2A2A2A2A20
:102BE0002A2A2A2A2A7374727563742A2A2A2A2A9C
:102BF0002A2A2A0D0A00000078D00020756172741C
:102C0000316669666F3A206C6F73744279746573CC
:102C10003D25752C20696E3D25752C206F75743D02
:102C200025752C2073697A653D25750D0A00000015
:102C30006C0200206D4C6F674669666F3A20206C0D
:102C40006F737442797465733D25752C20696E3DF0
:102C500025752C206F75743D25752C2073697A6558
:102C60003D25750D0A00000070B504460D46002193
:102C70002046FFF737FA00BF2046FFF73EFA00284C
:102C8000FAD129462046FFF775FA01212046FFF7C1
:102C900029FA70BD00BFFEE77047000070B5002143
:102CA00000230F22C4781CB3174C246804F4E0649A
:102CB000C4F5E064C4F30721C1F10404E3B20A419E
:102CC00044789C40E1B28478144021430C07210EE3
:102CD0000E4C05786155047804F01F050124AC40C2
:102CE00005786D11AD0005F1E025C5F8004109E05A
:102CF000047804F01F050124AC40054D06787611D8
:102D000045F8264070BD00000CED00E000E400E056
:102D100080E100E002490143024A1160704700006F
:102D20000000FA050CED00E010B503A205A108486B
:102D3000FDF746FB10BD000030313A33383A3137E9
:102D4000000000004F637420203420323031360000
:102D5000FC860008002003F099FC054600231A4673
:102D600019461C48006804F02FFA0D21002004F0D9
:102D700029F8194919A0FDF723FB2946002004F082
:102D800021F825E000235A1E19461248006804F075
:102D90001BFA18E022461449144802F040F80120BA
:102DA0001349087001228021124800F031FFA1B2BE
:102DB0001148FFF759FF4FF4FA61012002F012F9B0
:102DC00000200B490870094802F072F8041EE1DC8B
:102DD000D8E700001C0000209F8500082573202EE6
:102DE0002E2E0D0A00000000840400206C0200203A
:102DF0003800002000100140B864024030B52DEDCD
:102E00000A8B83B004F080F90446204605F027F9C8
:102E100041EC1C0B9FED1A0B53EC102B05F032F913
:102E200041EC1B0B9FED180B53EC102B04F090FFA3
:102E300041EC1A0B9FED160B53EC102B05F022F909
:102E400041EC190B9FED120B53EC102B05F018FA07
:102E500041EC180B04F0A2FE0546284605F006FBDF
:102E600041EC180B4FF4484053EC182BCDE90040CF
:102E700009A0FDF7A5FA03B0BDEC0A8B30BD000038
:102E8000000000000000F03F000000000000E940EA
:102E900000000000000059404D656D6F727920758B
:102EA00073656420256625252C20467265652053B0
:102EB000697A65203D2025642C20546F74616C2054
:102EC0003D2025640D0A000070B504F03FFC044667
:102ED0004FF47A70B4FBF0F52246294601A0FDF7C5
:102EE0006FFA70BD537974656D2074696D657320D8
:102EF00066726F6D20626F6F742069732025752074
:102F00002873292C2073797374656D207469636B41
:102F1000203D20257520286D73292E0D0A00000004
:102F200010B50548006804F00DFB012802D003A08D
:102F3000FDF746FA10BD00003000002077616B6598
:102F4000207570207461736B20707854656D707299
:102F500065747572655461736B2066726F6D206263
:102F60006C6F636B206661696C210D0A00000000C4
:102F700010B50548006804F0E5FA012802D003A066
:102F8000FDF71EFA10BD00002C00002077616B6574
:102F9000207570207461736B207274632066726F89
:102FA0006D20626C6F636B206661696C210D0A0095
:102FB00029B1064A12680243044B1A6004E0034A2E
:102FC00012688243014B1A6070470000303802409B
:102FD00029B1064A12680243044B1A6004E0034A0E
:102FE00012688243014B1A60704700003438024077
:102FF00029B1064A12680243044B1A6004E0034AEE
:1030000012688243014B1A6070470000203802406A
:1030100029B1064A12680243044B1A6004E0034ACD
:1030200012688243014B1A60704700004438024026
:1030300029B1064A12680243044B1A6004E0034AAD
:1030400012688243014B1A60704700002438024026
:10305000F0B5002100220024022500260223324F71
:103060003F6807F00C0121B1042905D0082937D1A8
:1030700005E02E4F076036E02D4F076033E02A4F02
:103080003F1F3F68C7F38056274F3F1F3F6807F039
:103090003F036EB1264FB7FBF3F7DFF88CC0ACF1FE
:1030A000040CDCF800C0CCF3881C07FB0CF40CE02B
:1030B0001E4FB7FBF3F7DFF870C0ACF1040CDCF87F
:1030C00000C0CCF3881C07FB0CF4174F3F1F3F6870
:1030D000C7F301477F1C7D00B4FBF5F7076002E0F2
:1030E000124F076000BF00BF0F4F3F6807F0F001AD
:1030F0000909104F7A5C0768D74047600A4F3F685C
:1031000007F4E051890A0B4F7A5C4768D740876023
:10311000054F3F6807F46041490B064F7A5C4768EA
:10312000D740C760F0BD0000083802400024F4001A
:1031300000127A000000002030B10749096841F010
:103140000401054A116005E00349096821F0040102
:10315000014A116070470000000806500146002037
:10316000034A12680A400AB1012000E000207047BB
:10317000040806500148006870470000080806501F
:1031800010B500BF0120FFF7E9FF0028FAD0FFF7D4
:10319000F1FF10BD70B542F21075002401214020EE
:1031A000FFF716FF0120FFF7C7FF06E0601C84B29F
:1031B00000BF2800A5F10105FBD10120FFF7CEFFDC
:1031C00018B942F210708442F0DB42F2107084426F
:1031D00001DB012070BD0020FCE7000010B50A48AB
:1031E000006800F4807040B10748006820F48070E7
:1031F0000549086005A0FDF7E3F80748006840F4BA
:1032000000300549086010BD0C280040414C415277
:103210004D2041210D0A0000143C0140014600BF31
:10322000081100EB8000420001F00F001044C0B212
:1032300070470146002204E0501CC2B2A1F10A000E
:10324000C1B20A29F8DA100741EA1060704700009D
:10325000F0B504460D4616461F46002300BF00F099
:103260006FF90028FBD10A480368C3F30740FFF752
:10327000D5FF2070C3F30420FFF7D0FF287003F0C0
:103280003F00FFF7CBFF3070C3F342303870F0BD22
:1032900004280040F0B504460D4616461F4600239C
:1032A00000BF00F04DF90028FBD10A480368C3F3C2
:1032B0000540FFF7B3FF2070C3F30620FFF7AEFF12
:1032C000287003F07F00FFF7A9FF3070C3F3875029
:1032D0003870F0BD0028004010B541F6FF74394841
:1032E000006840F08050374908603748006840F473
:1032F000807035490860002000F094F845F25A01CA
:1033000088425DD02F483030006840F001002D49E0
:103310003031086004E0601E84B2052000F06CFECD
:1033200034B128483030006800F002000028F2D0A4
:1033300024B926A0FDF744F8012010BD2148303003
:10334000006840F480701F4930310860084600680A
:1033500040F400400860CA202149086053200860FA
:1033600000F040F808B10220E7E7FF201C491439BB
:1033700008600846006840F4FE00086018481C38E1
:10338000006820F0400016491C390860081D0068DC
:1033900020F08000091D0860FF201149086000230B
:1033A0002D220A21162000F079F801231A22092182
:1033B000102000F041F845F25A01002000F0E4F836
:1033C0000020BAE740380240007000404C534520CE
:1033D0006F70656E206661696C210D0A0000000047
:1033E000242800404FF480310D48006800F0400070
:1033F00008B1002070470A48006840F08000084A81
:10340000106000E0491E29B10548006800F0400046
:103410000028F7D009B90120ECE70020EAE7000016
:103420000C28004001460022024800EB810210688F
:1034300070470000502800402DE9F04106460C4638
:1034400015460027CA201449086053200860FFF77A
:10345000C9FF10B10120BDE8F0813046FFF7E9FE59
:10346000000403F0070140EA41382046FFF7E1FE7F
:1034700048EA00282846FFF7DCFE48EA000706482D
:103480002038076004481838006820F0800002499E
:10349000183908600020DEE7242800402DE9F041BB
:1034A00006460C4615460027CA20144908605320DA
:1034B0000860FFF797FF10B10120BDE8F0813046AA
:1034C000FFF7B7FE000403F0010140EA81582046EF
:1034D000FFF7AFFE48EA00282846FFF7AAFE48EAB1
:1034E000000706482438076004481838006820F0B0
:1034F00080000249183908600020DEE724280040D7
:103500000C48006800F4806068B10A48006820F444
:103510008060084908600848006808B9012000E098
:103520000020054908600548006840F48000034910
:10353000086070470C2800409C024042143C014047
:103540000F49CA200F4A1060532010600D481838E8
:10355000006820F020000B4A183A106000E0491E75
:1035600031B108481838006800F020000028F6D073
:1035700009B901207047FF20024A10600020F9E7D6
:10358000FFFF0F00242800400022024B03EB8002C3
:10359000116070475028004094B01E491EA0FCF7EF
:1035A0000FFF04F0D3F801901E4800681D49086021
:1035B0002EE04FF0FF3101A803F088F910AB11AAFB
:1035C00012A913A8FFF766FE9DF8440000909DF82D
:1035D00048309DF84C2014A102A8FCF7FDFE02A97A
:1035E00017A0FCF7EDFE0CAB0DAA0EA90FA8FFF774
:1035F0002FFE9DF8340000909DF838309DF83C2057
:1036000010A102A8FCF7E8FE02A90DA0FCF7D8FE65
:10361000CFE70000BF8500082573202E2E2E0D0A4F
:10362000000000003C00002054696D653A253032EE
:10363000643A253032643A253032640D0A000000C5
:1036400025730000446174653A3230253032642DB0
:10365000253032642D253032640D0A0010B504A0E7
:10366000FCF7AEFE1E2003F017F9FCF77DFE10BD3F
:103670007265626F6F742073797374656D202E2E7E
:103680002E0D0A0030B500228B071C0F0F2303FA02
:1036900004F20B4B8C1053F824309343084C8D10DC
:1036A00044F8253023468C1053F824308C07240F1F
:1036B00000FA04F42343024C8D1044F8253030BD49
:1036C000083801400CB50020019000903448006893
:1036D00040F480303249086000BF3148006800F48F
:1036E000003000900198401C0190009818B9019892
:1036F000B0F5A04FF1D12A48006800F4003010B1B5
:103700000120009001E0002000900098012846D19F
:1037100023484030006840F0805021494031086023
:103720002048006840F440401E4908601C480830AA
:1037300000681B49083108600846006840F40040F2
:1037400008600846006840F4A05008601648091F49
:103750000860081F006840F08070091F086000BF03
:103760000F48006800F000700028F9D040F20570A2
:103770000E4908600A480830006820F00300084934
:10378000083108600846006840F00200086000BF89
:1037900003480830006800F00C000828F8D10CBD80
:1037A000003802400070004008544007003C0240CE
:1037B00070B50446002600E0641C20782028FBD069
:1037C00007E0012E03D10EA0FCF7FAFD70BD2578AD
:1037D000641C20780028F4D1A5F13000002809D419
:1037E000082807DC0D490870084601780CA0FCF792
:1037F000E7FD02E015A0FCF7E3FD00BFE6E70000EF
:103800004572726F72204F73206C6F67206C657603
:10381000656C206C656E210D0A0000001800002008
:103820004F53206C6F67206C6576656C20736574F0
:10383000206F6B212075634F734C6F674C65766505
:103840006C203D2025640D0A000000006F736C653C
:1038500076656C204572726F722120307E38206947
:10386000732072696768742076616C75650D0A0053
:10387000F0B585B00446002522462D492DA0FCF761
:103880009FFD0020019002900390049000E0641CD2
:1038900020782028FBD00CE00F2D04D12AA0FCF7C3
:1038A0008FFD05B0F0BD227828466D1C01A90A5491
:1038B000641C20782028EFD1002001A9485500E0A1
:1038C000641C20782028FBD000250BE0012D03D1BB
:1038D00023A0FCF775FDE4E7227828466D1C0DF85F
:1038E0000020641C20780028F0D10DF805009DF818
:1038F0000000A0F13006324601A91FA0FCF760FDD0
:1039000001A803F0D5FE074667B1002E06DB082E9E
:1039100004DCF1B2384602F0ABFF07E01EA0FCF772
:103920004FFD03E0394626A0FCF74AFD00BFB8E78B
:10393000EB85000825733A20636F6D6D616E64201E
:103940003D2025730D0A00004572726F722074616C
:10395000736B206E616D65206C656E210D0A000031
:103960004572726F72206C6F67206C6576656C2093
:103970006C656E210D0A00007461736B4E616D659C
:10398000203D2025732C206C6F67206C6576656C5C
:10399000203D2025640D0A007365746C6576656CA6
:1039A000204572726F722120307E38206973207238
:1039B000696768742076616C75650D0A0000000007
:1039C000746172676574203D202570206572726F86
:1039D000722120706C6561736520696E707574204A
:1039E0007269676874207461736B206E616D652EF7
:1039F0000D0A000010B51548006840F47000134926
:103A000008601348006840F0010011490860002078
:103A10000F49083108600E4800680E4908400C49FB
:103A200008600D48091D0860081F006820F4802008
:103A3000091F0860002006490C310860FFF742FEAC
:103A40004FF0006001498039086010BD88ED00E04A
:103A500000380240FFFFF6FE10300024002002F084
:103A600015FE07460D21002003F0ACF91E491FA0EA
:103A7000FCF7A6FC3946002003F0A4F933E04FF030
:103A8000FF3002F009FFFEF71BFE0446002C16DA99
:103A9000604204B20D21002003F094F9642094FBED
:103AA000F0F100FB114594FBF0F62A46314612A0D6
:103AB000FCF786FC3946002003F084F913E00D2161
:103AC000002003F07FF9642094FBF0F100FB114526
:103AD00094FBF0F62A4631460DA0FCF771FC3946FE
:103AE000002003F06FF9CAE7918500082573202EA6
:103AF0002E2E0D0A0000000074656D7072617475E1
:103B000072653A202D25642E25640D0A0000000000
:103B100074656D707261747572653A2025642E2526
:103B2000640D0A0070B50446204604F007F8054607
:103B3000294602A0FCF744FC70BD00005379737461
:103B4000656D2074696D65722063616C6C62616380
:103B50006B20696E202575286D73290D0A00000001
:103B600008B50020009002F0FFFD40F225511348F7
:103B700000F0D0F8F8B1114800F086F9C0B200901A
:103B8000012269460E4801F09CF9012806D00C4834
:103B9000D0F81002401C0A49C1F81002002109485F
:103BA000006803F039F802F0F1FD40F225510348B6
:103BB00000F013F801E002F0E9FD08BD001001403B
:103BC00078D000203400002001F40072B2F5007FAC
:103BD00000D100BFCA430280704710B50022002305
:103BE00040F66A14A14200D100BF0A120124944099
:103BF000A3B2DC43048010BD21B1828942F400529B
:103C0000828104E082894DF6FF731A4082817047F9
:103C10001AB1838A0B43838202E0838A8B438382B7
:103C20007047000010B504463248844208D1012193
:103C30001020FFF7FDF900211020FFF7F9F957E0F8
:103C40002D48844209D101214804FFF7D1F9002110
:103C50004FF40030FFF7CCF94AE02848844209D1FC
:103C600001218804FFF7C4F900214FF48020FFF7F9
:103C7000BFF93DE02248844209D10121C804FFF781
:103C8000B7F900214FF40020FFF7B2F930E01D48EA
:103C9000844209D101210805FFF7AAF900214FF458
:103CA0008010FFF7A5F923E01748844208D10121CD
:103CB0002020FFF7BDF900212020FFF7B9F917E018
:103CC0001248844209D101218807FFF791F90021A8
:103CD0004FF08040FFF78CF90AE00D48844207D18D
:103CE00001214005FFF784F900216005FFF780F905
:103CF00010BD00000010014000440040004800409A
:103D0000004C00400050004000140140007800408A
:103D1000007C004070B502460024002300250020EE
:103D200040F66A16B14200D100BFC1F3421501F05E
:103D30001F03012606FA03F3012D02D196893340B1
:103D400006E0022D02D1168A334001E0968A334004
:103D50000C12012606FA04F41688344013B10CB193
:103D6000012000E0002070BDF0B5034600240026CD
:103D70000025002040F66A17B94200D100BF18465E
:103D8000C1F3421401F01F06012707FA06F5012CC2
:103D900001D10C3004E0022C01D1103000E01430CD
:103DA0001AB107682F43076002E00768AF43076056
:103DB000F0BD00002DE9FF4705460E460024A14650
:103DC00000BFA046B08900B100BF2C8A24F4405443
:103DD000F08804432C82AC8941F20C608443B088A3
:103DE00031890843718908430443AC81AC8A24F4C7
:103DF0004074B0890443AC826846FFF729F9204833
:103E0000854202D01F48854202D1DDF80C9001E0C6
:103E1000DDF80890A88900F4004040B109EBC90022
:103E200000EB091031684900B0FBF1F707E009EB3E
:103E3000C90000EB091031688900B0FBF1F764207C
:103E4000B7FBF0F004012009642101FB1078A88978
:103E500000F4004040B1322000EBC800B0FBF1F0AC
:103E600000F00700044308E0322000EB0810642152
:103E7000B0FBF1F000F00F0004432C81BDE8FF8798
:103E8000001001400014014001468888C0F308007A
:103E9000704700BFFEE703B401984100009850EA64
:103EA000C12018BF04204A0D18BF40F0010040F2A5
:103EB000FF72B2EB515F08BF40F00200012808BF5B
:103EC000052002B070472DE9F04104460E46154624
:103ED0000027B84604F5017003C8A0EB010845456A
:103EE00001D2284600E040460546D4F80012491E9B
:103EF000D4F808020840D4F80012081AA84201D9E0
:103F0000284608E0D4F80012491ED4F808020840F8
:103F1000D4F80012081A0746D4F80022521ED4F82A
:103F20000802104001193A463046FCF771FCEA1BC2
:103F3000F0192146FCF76CFCD4F808022844C4F8B8
:103F400008022846BDE8F081014601F5017005C868
:103F5000801A70472DE9F04104460F4615460026A9
:103F600004F5007003C8401AD4F808120844A842A7
:103F700001D9284606E004F5007003C8401AD4F8B9
:103F8000081208440546D4F80012491ED4F8040269
:103F90000840D4F80012081AA84201D9284608E0BF
:103FA000D4F80012491ED4F804020840D4F80012D4
:103FB000081A0646D4F80022521ED4F80412114002
:103FC000081932463946FCF723FCAA1BB9192046CA
:103FD000FCF71EFCD4F804022844C4F80402284666
:103FE000BDE8F08130380A2801D201207047002056
:103FF0007047014600BF704770B504460B490CA0DE
:10400000FCF7DEF903F036F8002503E00A2000F0A3
:1040100019F86D1C64206043A842F7DC03F0ACFC87
:10402000024905A0FCF7CCF970BD000066850008C8
:10403000257320696E0D0A002573206F75740D0AB3
:10404000000000002DE9F047074600264FF0E02071
:10405000D0F814901A48007870B9002018490870F8
:104060000846007800EB4001C1EBC0104FF6FF712D
:1040700001EAC000134908801148007807FB00F8E6
:10408000002602F0F7FF4FF0E020856911E04FF0C5
:10409000E0208469AC420CD0AC4202D2281B06441A
:1040A00003E0A9EB0400284406442546464500D316
:1040B00000E0ECE700BF03F05FFCBDE8F087000024
:1040C00010000020120000202DE9F041064637467E
:1040D00013480068874201D100241EE002F044FB2F
:1040E0007D6902F053FB0F480068854203D00E48FB
:1040F0000068854201D102240FE00C48854205D1B9
:10410000B86A08B9032408E0022406E0084885429A
:1041100000D00DB9042400E001242046BDE8F08160
:104120005C00002060000020640000203CD00020E3
:1041300028D0002013B50C46002000F041FF0A49AA
:104140000978884201DD00981CBD00BF00BF074808
:10415000008800F040000028F9D00098C0B2034960
:1041600088800098F0E7000018000020001001404F
:104170001CB5454800F062FE4FF4A060FEF7CAFD92
:104180004FF4E13000F0C2FE40A243A14548FCF7E5
:1041900017F9FFF7A1F8FEF7B7FCFEF7F5F84FF4B3
:1041A000FA610420FEF7F4FAFDF782FD02E03EA07A
:1041B000FCF706F9FEF7EEFF0028F8D103220021F4
:1041C000012002F0E5FF404908600846006830B170
:1041D00000231A4619463C48006803F0E3F83B48C0
:1041E00002210023CA01CDE9001039A13A4803F0A9
:1041F00029FA0020012103468022CDE9001037A1D1
:10420000374803F01FFA0020012103468022CDE940
:10421000001034A1354803F015FA002002210346AE
:104220008022CDE9001032A1334803F00BFA334865
:10423000032100239422CDE9001031A1314803F07D
:1042400001FA3148032100239E22CDE900102FA15D
:10425000314803F0F7F931480C2100238022CDE9E1
:1042600000102FA12F4803F0EDF92F480E21002355
:104270008022CDE900102DA12D4803F0E3F902F0D2
:1042800063FE00201CBD00006C02002030313A3378
:10429000383A3137000000004F6374202034203258
:1042A00030313600FC8600082020524E47204572EF
:1042B000726F722120524E4720547279696E672EB8
:1042C0002E2E0D0A000000001C00002034000020EB
:1042D00055736D617274000059500008576467008F
:1042E000E12400084C45443000000000052A000885
:1042F0004C45443100000000A92A00082C00002091
:1043000052544300993500083000002054656D7008
:1043100072617475726500005D3A00082400002027
:104320004B6579002D280008280000204C6F67009D
:10433000552D00082DE9F04105460E461F48076837
:1043400000201F49096881F85D001D480068001DB4
:1043500002F026F950B91A48006890F82C10012094
:10436000884018490968814316480160681C38B9BB
:1043700036B113480168091D134802F0E9F91AE043
:104380007C190F4800684460BC4207D20C480168A1
:10439000091D0E48006802F0C1F90CE008480168E8
:1043A000091D0B48006802F0B9F90A480068844208
:1043B00001D208480460BDE8F081000070000020D0
:1043C0005C000020740000203CD00020640000202D
:1043D000600000208C00002010B5044602F0C4F9F3
:1043E00024480068401C234908602348006840B9FD
:1043F000214804600846006801280DD100F0B6F994
:104400000AE01E48006838B91B480068C06AE16AC3
:10441000884201D81848046019480068401C1849AF
:10442000086008460068A06494F82C1001208840B9
:1044300014490968084313490860E16A01EB8101E6
:10444000114A02EB8100211D02F082F902F09EF96F
:104450000A48006868B108480068C06AE16A884292
:1044600007D24FF0805009490860BFF34F8FBFF368
:104470006F8F10BD6C0000205C00002078000020D1
:104480008800002074000020C0CE002004ED00E071
:1044900010B502F069F90C48006890B90B4802F0B9
:1044A0002DF90B4802F02AF908480A490860084823
:1044B0000949086000220C21032002F069FE02492C
:1044C000086002F063F910BDA000002050D0002069
:1044D00064D00020980000209C00002070B523E0EC
:1044E00002F0C8FD1348006808B9012000E0002070
:1044F000054603F041FABDB902F036F90D48C0682F
:10450000C468201D02F04CF80B480068401E0A49A0
:1045100008600A480068401E0849086002F036F941
:10452000204600F060F800BF044800680028D7D19A
:1045300070BD000028D000206C0000206800002022
:1045400070B504460D46206C70B1216CE0680844DB
:10455000E0606168E068884201D32068E060284636
:10456000226CE168FCF754F970BD2DE9F041044676
:104570000F4615464FF00008A66B206C40B9206826
:1045800060BB606803F076F980460020606025E03B
:104590007DB93946226CA068FCF73AF9216CA06815
:1045A0000844A060D4E90110884217D32068A060B5
:1045B00014E03946226CE068FCF72AF9216CE068C7
:1045C000401AE0602168E068884203D2216C60688C
:1045D000401AE060022D01D106B1761E701CA06366
:1045E0004046BDE8F08110B50446206B02F0DEF8CD
:1045F000204602F0DBF810BD0146084A1268126836
:104600000AB9012200E000220A600A6822B9034ABE
:104610001268D268106800E00020704798000020FF
:104620000A4A22F007000A4A10600022084B5A602A
:104630004CF2F872074B5A6000221A6001464CF2A5
:10464000F8724A601A460A60704700008C06002023
:10465000440000204C00002000BFFFF73FFF064849
:1046600000680128F9D94FF0805004490860BFF371
:104670004F8FBFF36F8FF0E7C0CE002004ED00E056
:104680002DE9F04106460D4617469846069C0DB9A1
:10469000246000E02760E66325640121204602F0E3
:1046A00041FE84F84C80BDE8F0812DE9F05F814641
:1046B0000F4690469A460A9E0C9C4FEA8801A52216
:1046C000206BFCF7EAF8A8F10100216B01EB800BED
:1046D0002BF0070B002507E0795D04F13800415508
:1046E000785D00B902E06D1C102DF5D300BF0021EC
:1046F000472001550F2E00D30E26E66226650020C6
:104700006065201D02F007F804F1180002F003F8BC
:104710002461C6F10F00A06164620020A06584F8E6
:104720005C0084F85D0052464946584600F060FB44
:1047300020600B9808B10B980460BDE8F09F2DE94C
:10474000F04705460E4617469846DDE908945CB1E9
:10475000FFF79EFE2560A661E761C4F82080C4F8DB
:104760002490201D01F0D7FFBDE8F08710B500248C
:104770000FE004EB8401134A02EB810001F0BEFF5D
:1047800004EB84000F4901EB80000F4941F824003D
:10479000641C0F2CEDD30D4801F0B0FF0C4801F064
:1047A000ADFF0C4801F0AAFF0B4801F0A7FF0B4832
:1047B00001F0A4FF05480A49086005480949086056
:1047C00010BD0000C0CE002084CE0020ECCF002021
:1047D00000D0002014D0002028D000203CD00020A1
:1047E00060000020640000202DE9F04104460D46E1
:1047F00016461F464FF0000865602461B5420CD88C
:10480000F01BA169884202D34FF0010811E0211D7D
:104810000948006801F082FF0BE0BE4204D2BD42AD
:1048200002D34FF0010804E0211D0448006801F0A4
:1048300075FF4046BDE8F0819C00002098000020F4
:1048400070B5054601F090FFA86B08B9012400E09F
:10485000002401F09BFF204670BD70B5054601F0B5
:1048600083FFA86BE96B884201D1012400E000249A
:1048700001F08CFF204670BD2DE9F04707460C463D
:1048800090460026206858B3204641684968416038
:1048900000F1080142688A4202D1416849684160DA
:1048A0004168D1F80C9000BF2046416849684160DA
:1048B00000F1080142688A4202D1416849684160BA
:1048C0004168CD6806EB460000EBC60007EB8001AF
:1048D00043460122284602F0BBF8761C4D45E3D141
:1048E0003046BDE8F0870000F8B505460E46104892
:1048F0000068C068C468201D01F052FEE06901280C
:1049000011D1A06941192B4632462046FFF76CFFB2
:1049100048B1002003462A4601460090204603F095
:10492000D7F8074600BF2046616A8847F8BD0000F7
:104930009800002070B586B04DE0039800284ADB4F
:10494000059C606908B9012000E0002010B9201D15
:1049500001F026FE02A800F09FF8054603980A28F9
:1049600037D2DFE800F00905072527320608262898
:1049700000BF00BF00BF00BF0498A26981180346B2
:104980002A462046FFF730FF88B12046616A8847F3
:10499000E06901280BD1002000900498A169421819
:1049A00000231946204603F093F8064600BF11E0A5
:1049B00000BF0FE000BF0498A061A06941192B4619
:1049C0002A462046FFF710FF04E0204601F0EEFEE5
:1049D00000E000BF00BF00231A4603A90348006897
:1049E00002F0F2FB0028A8D106B070BDA0000020A4
:1049F000F8B505460C4602F03DFB684600F04CF861
:104A00000646009820BB44B9B54206D802F0B4FF70
:104A100031462846FFF768FF1CE03CB10E480068AD
:104A2000006808B9012000E000200446A91B2246C6
:104A30000A48006801F0EEFE02F09EFF50B94FF008
:104A4000805007490860BFF34F8FBFF36F8F01E0BD
:104A500002F092FFF8BD00009C000020A0000020A2
:104A600004ED00E00A490968096809B9012100E07C
:104A7000002121B14FF0FF31064A116006E00449E0
:104A80000968C968C868034A416811607047000036
:104A9000600000208C00002070B5044602F056FE35
:104AA000054607480068854204D200F05BF8012003
:104AB000206001E00020206001480560284670BDAC
:104AC000A80000202DE9F04102460D46002710689D
:104AD000002843D01046D0F804C0DCF804C0C0F869
:104AE00004C000F1080CD0F80480E04505D1D0F8EE
:104AF00004C0DCF804C0C0F804C0D0F804C0DCF87E
:104B00000C6000BF1046D0F804C0DCF804C0C0F848
:104B100004C000F1080CD0F80480E04505D1D0F8BD
:104B200004C0DCF804C0C0F804C0D0F804C0DCF84D
:104B30000C1000230AE001F13800C45CE85CA042DC
:104B400000D005E00CB90F4602E05B1C102BF2D33D
:104B500000BF07B101E0B142D4D100BF3846BDE883
:104B6000F08100002DE9F84326E01D480068C06888
:104B700005681B480068C068C468201D01F010FD6E
:104B80002046616A8847E069012815D1A069461965
:104B9000AE4207D966602461211D1148006801F00A
:104BA000BDFD09E0002003462A460146009020464C
:104BB00002F08EFF804600BF09480068006808B90F
:104BC000012000E000200028CFD0054807680548F4
:104BD00000680349086003480760BDE8F8830000E7
:104BE000980000209C0000200246002101E0521C99
:104BF000491C1078A528FAD0890888B2704700BFF0
:104C0000BF2080F31188BFF34F8FBFF36F8F00BFBA
:104C100000BFFEE710B5014600200A460B4C536961
:104C2000A34201D1012300E0002373B1084C936A31
:104C3000A34201D1012300E0002333B9936A0BB9E9
:104C4000012300E0002303B1012010BD3CD000206F
:104C500014D0002008B500BF6846FFF7CDFC04461D
:104C600020460099FFF7C4FEFFF764FEF4E770B535
:104C7000044601F079FD94F9455010E0606A08B9E6
:104C8000012000E0002038B904F1240002F034FED5
:104C900018B101F0BBFF00E003E0681E45B2002D33
:104CA000ECDC00BFFF2084F8450001F06FFD01F04F
:104CB0005BFD94F9445010E0206908B9012000E040
:104CC000002048B904F1100002F016FE08B101F00E
:104CD0009DFF681E45B200E001E0002DECDC00BF46
:104CE000FF2084F8440001F051FD70BD70B5054609
:104CF0000E4631462846FBF748FD2846FBF769FD7E
:104D0000044602E020202855641C0F2CFAD3002012
:104D10002855281970BD00002DE9F04104464FF0D8
:104D2000000802F0A7F92648006820B9FFF778FCD0
:104D300001202349086044B1083404F0070020B181
:104D400004F00700C0F108000444002C32D04CF2FB
:104D5000F87084422ED21B4F3846056801E02F467A
:104D60002D686868A04202D228680028F7D116484A
:104D700085421FD0386800F10808286838606868E4
:104D8000001B102810D92E196868001B70606C6019
:104D900071680C4800E00068026852688A42FAD3E1
:104DA00002683260066000BF084968680968081A2E
:104DB0000649086002F0E0FD4046BDE8F0810000D1
:104DC00058000020440000204C0000205400002027
:104DD0000648006830B10549096801F15400496D81
:104DE000491C016001480068704700005C00002019
:104DF000001F4FF080730360001F0160001F054B10
:104E0000036014380260001F6FF002030360203853
:104E100070470000FF4B00080146086870472DE905
:104E2000F04104460D461646324629462046FFF715
:104E30004AF807463846BDE8F081000070B50446E0
:104E40004FF4007524B90EA0FBF7BAFA002070BD2C
:104E500015B1681E284020B10EA0FBF7B1FA002062
:104E6000F5E7012004F50074207540022060002061
:104E70006060A06020732061A4F500742046E6E71E
:104E800072696E675F627566206973204E554C4C7F
:104E90000D0A000073697A65206D75737420626570
:104EA00020706F776572206F6620320D0A00000057
:104EB00010B5034600241846FFF746F8044620467E
:104EC00010BD2DE9F04104460F4615462A463946E5
:104ED0002046FFF73FF80646AE4202D0012084F894
:104EE0000C023046BDE8F08110B5002240F2255199
:104EF0000548FEF739FF00210348FEF77DFE024812
:104F0000FEF790FE10BD00000010014010B588B003
:104F1000044601210846FEF74BF801211020FEF758
:104F200077F8072209212448FDF748FB07220A21C8
:104F30002148FDF743FB4FF4C060069002208DF836
:104F40001C008DF81D0000208DF81E0001208DF83A
:104F50001F0006A91848FDF7E9FA02940020ADF8F1
:104F60000C00ADF80E00ADF81000ADF814000C20E8
:104F7000ADF8120002A91148FEF71CFF01210F48ED
:104F8000FEF73AFE40210D48FEF71EFE012240F2D8
:104F900025510A48FEF7E8FE25208DF8040003207D
:104FA0008DF805008DF8060001208DF8070001A896
:104FB000FDF774FE08B010BD000002400010014073
:104FC00070B5044601F012FC08B1002070BD14B9A0
:104FD0000348006800E02046054695F85E00F5E7C6
:104FE0005C00002070B506460D4601F0BDFB184878
:104FF0000068806D88B901201549096881F85C0056
:105000005DB101212846FFF795F94FF08050114915
:105010000860BFF34F8FBFF36F8F01F0B7FB01F054
:10502000A3FB0B480068846D4CB126B100200849F1
:105030000968886503E0601E0549096888650020E5
:105040000349096881F85C0001F0A0FB204670BDAF
:105050005C00002004ED00E00021084601F008FC9F
:105060000F4801F04BFB0F490FA0FBF7A9F90020F7
:105070001149C8751148FFF7E1FE002204211420F0
:1050800002F086F80E49086008E04FF0FF31012079
:10509000FFF7A8FF0848016900208847F5E70000EE
:1050A00090D40020148600082573207374617274F4
:1050B0002E2E2E0D0A0000006C01002078D000205A
:1050C0003401002030B59FB005461DAB1CAA0EA9C7
:1050D000284600F0F3F9044614B120461FB030BD55
:1050E00000201E9026E0224909689DF8782001EBF7
:1050F000C2011DAB1BAA486801A900F0DFF90446F4
:105100000CB12046EAE70EA901A800F0B7FD60B98E
:105110009DF86C009DF87010884201DD0220DDE7EB
:105120009DF87800124988750AE09DF87800401CC7
:10513000C0B21E900E48007D9DF878108842D2DCE7
:1051400000BF0B48007D9DF87810884201D10420F3
:10515000C4E71EA9284600F091FA04460CB1204687
:10516000BCE79DF87800024948750020B6E70000CA
:105170006C0100202DE9F041A0B08248847D007DC3
:10518000A04202DC20B0BDE8F0817E49096801EB55
:10519000C40107AB08AA486809A900F08FF90026E6
:1051A0001BE07848008B0121B140084048B13046EF
:1051B00000F0EAFA73492431084416A941F82600A0
:1051C00009E0304600F0E0FA6E492431085816A98B
:1051D00041F8260000BF701CC6B29DF82000864230
:1051E000DFDB00F0EFFA6748407D0B280DD2DFE8E7
:1051F00000F0060D151E27323F4E5F728700614991
:10520000096851F834008047054690E05D4A12680D
:1052100052F8341016988847054688E0594B1B68A9
:1052200053F83420DDE91601904705467FE0554FDD
:105230003F6857F8343016A807C89847054676E007
:10524000DFF840C1DCF800C05CF8347016A80FC865
:10525000B84705466BE01A98DFF828C10090DCF8E3
:1052600000C05CF8347016A80FC8B84705465EE069
:10527000DDE91A01DFF80CC1CDE90001DCF800C05E
:105280005CF8347016A80FC8B84705464FE0DDE952
:105290001A121C98DFF8ECC0CDE900120290DCF87D
:1052A00000C05CF8347016A80FC8B84705463EE049
:1052B000DDE91A23DDE91C10DFF8C8C0CDE90023C1
:1052C000CDE90210DCF800C05CF8347016A80FC8F5
:1052D000B84705462BE0DDE91C321B991E98CDE945
:1052E0000232019104901A98DFF898C00090DCF81F
:1052F00000C05CF8347016A80FC8B847054616E021
:10530000DDE91C23DDE91E10CDE90223CDE90410FF
:10531000DDE91A01DFF86CC0CDE90001DCF800C05E
:105320005CF8347016A80FC8B847054600BF00BF28
:1053300000F03AFA9DF81C0001280BD11148C07DFD
:1053400020B9294610A0FBF73BF803E0294610A03E
:10535000FBF736F80B4890F8EC0088B10948D0F814
:10536000F0000A21B0FBF1F201FB12070548D0F86A
:10537000F000B0FBF1F83A46414608A0FBF720F8F0
:1053800000BFFFE66C0100203D256C753B0D0A0057
:105390003D305825583B0D0A0000000046756E63ED
:1053A00074696F6E2052756E2054696D653A25647C
:1053B0002E2531646D730D0A00000000F0B5034620
:1053C0001546002000220026002455E01F782C2FCF
:1053D00001D104B901221F78292F01D01F780FB9FC
:1053E00004B94AE0002E34D11F78302F02DB1F7839
:1053F000392F11DD1F78612F02DB1F78662F0BDD3F
:105400001F78412F02DB1F78462F05DD1F78582FAC
:1054100002D01F78782F0CD102B12EE01F78612FB7
:1054200003DB1F78203F0F7001E01F780F70491CCD
:105430001FE01F78222F04D102B11EE001260124B3
:1054400017E01F78202F14D01F782C2F11D0FF26A3
:1054500013E01F78222F00D1002402B10DE044B1E7
:105460001F785C2F02D15B1C471CF8B21F780F70AD
:10547000491C471CF8B25B1CA8E700BF00270F704F
:105480002E70F0BD10B50446002010700BE020789F
:105490000870641C491C1078401C107010789842E9
:1054A00001DB012010BD2078202802D020780028C0
:1054B000EDD10020087000BFF4E700002DE9FF4F98
:1054C00085B0804689460027002004900390012083
:1054D00002904FF0000B002544461DE02078202864
:1054E00016D005F07F00052812DA0DB945F08005C9
:1054F00005F07F00042803D120782A2800D00EE090
:10550000207805F07F010DF80100681CC5B202E0AB
:10551000852D00D103E0641C20780028DED100BF77
:105520008DB1002005F07F010DF8010051A1684602
:1055300000F0A4FB18B900210898017002E00121D5
:105540000898017000254FF0000A444614E0641CDE
:105550000AF1010000F0FF0A2078202802D020780C
:105560002A2809D1204600F019FB0646282E03D030
:105570002A2E01D0CDF810A02078282802D020783B
:105580000028E4D14446049810B10498401C044417
:105590004FF0000A002654E0207810B94FF0010ABD
:1055A00050E02078282803D116B9781CC7B213E040
:1055B0002078292808D13EB917B1781EC7B201E07A
:1055C0004FF0010A47B93DE02078222804D10EB9F6
:1055D000012000E00020064647B9207820282FD07F
:1055E000207889F8000009F1010929E020782C28A9
:1055F00004D101200290681CC5B214E02078202854
:1056000011D0207828280ED04DB9BBF1050F06DA4D
:1056100020780DF80B000BF1010000F0FF0B029851
:10562000401CC0B20290012F0AD10298022807D173
:105630000298401CC0B202900398401CC0B2039074
:10564000641CA9E700BF0398012809D100200DF8C8
:105650000B0008A1684600F011FB08B90020039078
:10566000079903980870002089F80000504609B097
:10567000BDE8F08F766F6964000000002DE9F0430B
:10568000B5B005460F460024002604E000213D4841
:105690008155701CC6B20A2EF8DB06E06D1C287816
:1056A00018B9012035B0BDE8F08328782828F5D155
:1056B0006D1C61E034AA69462846FFF77FFE064666
:1056C00035449DF8D00020B1012827D0FF284CD1C7
:1056D00049E09DF8000000B333A9684600F069FA7C
:1056E00006460EB10220DDE7204600F04DF82549C0
:1056F0000A31339A0A50A1F12400008B0121A14004
:10570000884320491A39088304211E480155601C2A
:10571000C4B20A2C01DD0320C4E726E0684600F08D
:10572000C9FA401C00F0FF08204600F02DF815498A
:105730000A3100EB01094946684600F0B0FA114809
:105740001A38018B0120A040014388B20D491A3953
:1057500008830C4800F80480601CC4B20A2C01DDE8
:1057600003209FE701E002209CE700BF287829285A
:1057700001D0287800B900E09CE700BF3C70002011
:1057800090E700008601002002460020002105E08D
:10579000044B5B5C0344D8B24B1CD9B29142F7DB9B
:1057A000704700008601002000207047704710B548
:1057B0000246012000E050430B00A1F10104E1B2D8
:1057C000F9D110BD704700002DE9F05F83464FF01E
:1057D00000098FE1CB48CC4A126881180122CB48DE
:1057E000FFF71DFBC848006802286BDBC548C649A7
:1057F0000968405C412805D0C248C3490968405C3B
:1058000042285FD1C0480068401EBE49085C5B2842
:1058100058D1BD480068801E085C1B2852D1BC4886
:10582000006808B9012000E0002018B1B9A0FAF71B
:10583000C7FD46E00024B348B3490968405C4128ED
:1058400013D1B34801464968496802465160014690
:105850004A6808318A4204D10146496849680246CB
:105860005160AB494968CC6819E0A648A649096867
:10587000405C422813D1A64801464968896802461F
:10588000516001464A6808318A4204D1014649689C
:105890008968024651609E494968CC6800BF84B15E
:1058A0009DA02168FAF78CFD4FF400719548FBF735
:1058B0001EF89448D4E90012FAF7AAFF92496068EA
:1058C000086017E18F4890490968405C082815D1A5
:1058D0008D480068002810DD8B480068401E8A490A
:1058E000086008218EA0FAF76BFD20218CA0FAF742
:1058F00067FD08218AA0FAF763FDFBE08248006893
:10590000401C8149086008460068401E7D49085CCB
:105910000D287DD17C480068012803D07A480068B2
:1059200045280EDD78480068452802DD7DA0FAF79D
:1059300047FD814981A0FAF743FD002072490860C4
:10594000D8E0002170480068401E6E4A11547DA0C6
:10595000FAF736FD7C4881686A48884707462FB9C0
:105960004FF001097849C868804724E0654800F095
:10597000ADF905460DB94FF00109012D00D02F46B4
:10598000CFB1012F06D0022F08D0032F0AD0042F49
:1059900010D10BE063A0FAF713FD0BE06BA0FAF750
:1059A0000FFD07E06EA0FAF70BFD03E073A0FAF716
:1059B00007FD00BF00BFB9F1000F71D000245448AB
:1059C000006830B352480146496849680246516050
:1059D00001464A6808318A4204D10146496849684B
:1059E000024651604A494968D1F80C8000BF4848D6
:1059F0000146496849680246516001464A680831D3
:105A00008A4204D10146496849680246516001E072
:105A100067E015E03E494968CE683A48FAF7D9FE92
:105A20008246524637493068FAF783FE28B906F1B4
:105A3000080000F0B5FD344601E04645D7D100BF6F
:105A40007CBB1C20FFF768F904464CB32E48006865
:105A5000FFF762F92060206820B304F1080000F02D
:105A60005AFE64614A480068A06049480068401EC8
:105A700047490860244920680968FAF716FF224957
:105A800020680A681F49FAF7C3FE1F480068606073
:105A900004F108011E4800F041FE1D4920694860DC
:105AA00014E003E0204600F081FE0FE03848006873
:105AB000A06037480068401E3549086004F10801BD
:105AC000134800F02BFE12492069486000200E495F
:105AD000086019492FA0FAF773FC00202E490880AE
