:020000040800F2
:1000000080F501209903000801AF0008D18700089E
:10001000E1AD00081132000845F1000800000000C1
:10002000000000000000000000000000C9020008FD
:1000300055490008000000001D03000845DD0108C7
:10004000B3030008B3030008B3030008A1BC000811
:10005000B3030008B3030008F56A0008B3030008FF
:10006000B3030008156B0008356B0008B3030008E4
:10007000B3030008B3030008B3030008153D0008EC
:10008000B3030008B30300080D270008B3030008FA
:10009000B3030008B3030008B3030008B303000868
:1000A000B3030008B3030008B3030008B303000858
:1000B000B3030008B3030008B3030008B303000848
:1000C000B3030008B3030008B3030008B303000838
:1000D000B3030008D1E70008B303000835E80008BF
:1000E000B30300087DB90008B3030008B303000898
:1000F000B3030008B3030008B3030008B303000808
:10010000B3030008B5C10008B3030008B303000837
:1001100045E70008B3030008B3030008B303000871
:10012000493D0008B3030008B3030008B303000807
:10013000B3030008B3030008B3030008B3030008C7
:10014000B3030008B3030008B3030008B3030008B7
:10015000B3030008B3030008713D000895E80008E8
:10016000B3030008B3030008B3030008B303000897
:10017000B3030008B3030008B3030008B303000887
:10018000B3030008B303000800F002F800F085F89C
:100190000AA090E8000C82448344AAF10107DA45E2
:1001A00001D100F07AF8AFF2090EBAE80F0013F0AF
:1001B000010F18BFFB1A43F00103184730F5020086
:1001C00050F5020010F8013B0A4413F0030408BF85
:1001D00010F8014B1D1108BF10F8015B641E05D01B
:1001E00010F8016B641E01F8016BF9D1002D15D0D8
:1001F00010F8014B03F00C030C2BA1EB04040ABF15
:1002000010F8013BA4EB8314A4EB032405F10103D4
:1002100014F8016B5B1E01F8016BF9D5914238BFF0
:1002200010F8013BD1D3704700230024002500269D
:10023000103A28BF78C1FBD8520728BF30C148BF49
:100240000B607047702900F0D385662921F07F810B
:10025000642900F05F85752900F05C85782900F03D
:10026000BA85632901F0ED83732901F0F283002040
:1002700070471FB521F061F901F08AFC04000020ED
:10028000002120F099FC401C60600020002120F03B
:100290007DFCE0601FBD10B510BD01F0E1FD114611
:1002A000FFF7E7FF17F068F801F00DFE03B4FFF762
:1002B000F2FF03BC0FF0F4FB30BF72B6704762B6BA
:1002C000704780F3088870472A4B19680868B0E8BF
:1002D000F04F80F30988BFF36F8F4FF0000080F379
:1002E000118870470000000006480068006880F32D
:1002F000088862B661B6BFF34F8FBFF36F8F00DF20
:1003000000BF00BF08ED00E0DFF80C00016841F419
:1003100070010160704700BF88ED00E0EFF30980D5
:10032000BFF36F8F134B1A681EF0100F08BF20ED3C
:10033000108A20E9F04F106008B44FF0BF0080F33E
:100340001188BFF34F8FBFF36F8F1DF0B5F84FF0DB
:10035000000080F3118808BC19680868B0E8F04F05
:100360001EF0100F08BFB0EC108A80F30988BFF3AD
:100370006F8F7047D0000020EFF3058070470000BA
:100380004FF0010080F31388014802490160FEE745
:100390000CED00E00400FA050948804709480047D1
:1003A000FEE7FEE7FEE7FEE7FEE7FEE7FEE7FEE725
:1003B000FEE7FEE704480549034A054B7047000085
:1003C000DDE600088901000880F1012080F50120A8
:1003D00080F101202DE9F04F82B001904FF00074C0
:1003E0004FF000784FF000054FF0000952F804CBB1
:1003F00052F804EB0868CB6DC0FB0C45D1F88000C7
:10040000CEF1000EC3FB0E45D1F8DC30C0FB0C89E9
:10041000C3FB0E8952F804CB52F804EB48688B6D8D
:10042000C0FB0C45D1F88400CEF1000EC3FB0E4595
:10043000D1F8D830C0FB0C89C3FB0E8952F804CB2D
:1004400052F804EB88684B6DC0FB0C45D1F888006E
:10045000CEF1000EC3FB0E45D1F8D430C0FB0C89A1
:10046000C3FB0E8952F804CB52F804EBC8680B6D3D
:10047000C0FB0C45D1F88C00CEF1000EC3FB0E453D
:10048000D1F8D030C0FB0C89C3FB0E8952F804CBE5
:1004900052F804EB0869CB6CC0FB0C45D1F8900016
:1004A000CEF1000EC3FB0E45D1F8CC30C0FB0C8959
:1004B000C3FB0E8952F804CB52F804EB48698B6CED
:1004C000C0FB0C45D1F89400CEF1000EC3FB0E45E5
:1004D000D1F8C830C0FB0C89C3FB0E8952F804CB9D
:1004E00052F804EB88694B6CC0FB0C45D1F89800BE
:1004F000CEF1000EC3FB0E45D1F8C430C0FB0C8911
:10050000C3FB0E8952F804CB52F804EBC8690B6C9C
:10051000C0FB0C45D1F89C00CEF1000EC3FB0E458C
:10052000D1F8C030C0FB0C89C3FB0E8901984FF491
:10053000FE4E4EF0FF0E4FEA946444EA85144FEAF3
:10054000E47CBCEBE43F18BF8CEA0E044FEA9868E9
:1005500048EA89184FEAE87CBCEBE83F18BF8CEA10
:100560000E080480A0F8028002F5707201F5805137
:100570004FF000744FF000784FF000054FF0000985
:1005800052F804CB0868D1F88030C0FB0C45C3FB9F
:100590000C8952F804CB4868D1F88430C0FB0C4574
:1005A000C3FB0C8952F804CB8868D1F88830C0FBB3
:1005B0000C45C3FB0C8952F804CBC868D1F88C30C9
:1005C000C0FB0C45C3FB0C8952F804CB0869D1F879
:1005D0009030C0FB0C45C3FB0C8952F804CB486932
:1005E000D1F89430C0FB0C45C3FB0C8952F804CB06
:1005F0008869D1F89830C0FB0C45C3FB0C8952F8D0
:1006000004CBC869D1F89C30C0FB0C45C3FB0C89F6
:1006100001984FF4FE4E4EF0FF0E4FEA946444EA08
:1006200085144FEAE47CBCEBE43F18BF8CEA0E046F
:100630004FEA986848EA89184FEAE87CBCEBE83F43
:1006400018BF8CEA0E08A0F84040A0F84280A2F53E
:100650007872A1F570614FF00F0C00F10400CDF835
:1006600000C001904FF000744FF000784FF000761A
:100670004FF0007A4FF000054FF000094FF00007EF
:100680004FF0000B52F804CB52F804EB0868CB6D26
:10069000C0FB0C45C0FB0E67CEF1000EC3FB0C6720
:1006A000C3FB0E45D1F8DC30D1F88000C3FB0E89C6
:1006B000C3FB0CABCEF1000EC0FB0C89C0FB0EAB34
:1006C00052F804CB52F804EB48688B6DC0FB0C4524
:1006D000C0FB0E67CEF1000EC3FB0C67C3FB0E45DB
:1006E000D1F8D830D1F88400C3FB0E89C3FB0CAB22
:1006F000CEF1000EC0FB0C89C0FB0EAB52F804CB50
:1007000052F804EB88684B6DC0FB0C45C0FB0E67CC
:10071000CEF1000EC3FB0C67C3FB0E45D1F8D430FD
:10072000D1F88800C3FB0E89C3FB0CABCEF1000EE1
:10073000C0FB0C89C0FB0EAB52F804CB52F804EBA3
:10074000C8680B6DC0FB0C45C0FB0E67CEF1000EF8
:10075000C3FB0C67C3FB0E45D1F8D030D1F88C0039
:10076000C3FB0E89C3FB0CABCEF1000EC0FB0C89A2
:10077000C0FB0EAB52F804CB52F804EB0869CB6C0B
:10078000C0FB0C45C0FB0E67CEF1000EC3FB0C672F
:10079000C3FB0E45D1F8CC30D1F89000C3FB0E89D5
:1007A000C3FB0CABCEF1000EC0FB0C89C0FB0EAB43
:1007B00052F804CB52F804EB48698B6CC0FB0C4533
:1007C000C0FB0E67CEF1000EC3FB0C67C3FB0E45EA
:1007D000D1F8C830D1F89400C3FB0E89C3FB0CAB31
:1007E000CEF1000EC0FB0C89C0FB0EAB52F804CB5F
:1007F00052F804EB88694B6CC0FB0C45C0FB0E67DC
:10080000CEF1000EC3FB0C67C3FB0E45D1F8C4301C
:10081000D1F89800C3FB0E89C3FB0CABCEF1000EE0
:10082000C0FB0C89C0FB0EAB52F804CB52F804EBB2
:10083000C8690B6CC0FB0C45C0FB0E67CEF1000E07
:10084000C3FB0C67C3FB0E45D1F8C030D1F89C0048
:10085000C3FB0E89C3FB0CABCEF1000EC0FB0C89B1
:10086000C0FB0EAB01F5807101984FF4FE4E4EF0C7
:10087000FF0E4FEA946444EA85144FEAE47CBCEB33
:10088000E43F18BF8CEA0E044FEA986848EA8918DA
:100890004FEAE87CBCEBE83F18BF8CEA0E084FEA51
:1008A000966646EA87164FEAE67CBCEBE63F18BF41
:1008B0008CEA0E064FEA9A6A4AEA8B1A4FEAEA7CF9
:1008C000BCEBEA3F18BF8CEA0E0ADDF800C000EB73
:1008D000CC0E2EF8026B2EF802AB20F8024B20F85B
:1008E000028BBCF1010C7FF4BAAE02B0BDE8F08F10
:1008F0002DE9F04F82B001904FF000744FF00005E9
:1009000052F804CB52F804EB0868CB6DCEF1000E20
:10091000C0FB0C45C3FB0E4552F804CB52F804EB68
:1009200048688B6DCEF1000EC0FB0C45C3FB0E4535
:1009300052F804CB52F804EB88684B6DCEF1000EF0
:10094000C0FB0C45C3FB0E4552F804CB52F804EB38
:10095000C8680B6DCEF1000EC0FB0C45C3FB0E4505
:1009600052F804CB52F804EB0869CB6CCEF1000EC0
:10097000C0FB0C45C3FB0E4552F804CB52F804EB08
:1009800048698B6CCEF1000EC0FB0C45C3FB0E45D5
:1009900052F804CB52F804EB88694B6CCEF1000E90
:1009A000C0FB0C45C3FB0E4552F804CB52F804EBD8
:1009B000C8690B6CCEF1000EC0FB0C45C3FB0E45A5
:1009C00001984FF4FE4E4EF0FF0E4FEA946444EA55
:1009D00085144FEAE47CBCEBE43F18BF8CEA0E04BC
:1009E000048002F5707201F580514FF000744FF0F1
:1009F000000552F804CB0868C0FB0C4552F804CB44
:100A00004868C0FB0C4552F804CB8868C0FB0C4515
:100A100052F804CBC868C0FB0C4552F804CB0869F7
:100A2000C0FB0C4552F804CB4869C0FB0C4552F89A
:100A300004CB8869C0FB0C4552F804CBC869C0FBE5
:100A40000C4501984FF4FE4E4EF0FF0E4FEA9464B1
:100A500044EA85144FEAE47CBCEBE43F18BF8CEA1F
:100A60000E040484A2F57872A1F570614FF00F0CAA
:100A700000F10200CDF800C001904FF000744FF07B
:100A800000764FF000054FF0000752F804CB52F803
:100A900004EB0868CB6DC0FB0C45C0FB0E67CEF1C4
:100AA000000EC3FB0E45C3FB0C6752F804CB52F893
:100AB00004EB48688B6DC0FB0C45C0FB0E67CEF1A4
:100AC000000EC3FB0E45C3FB0C6752F804CB52F873
:100AD00004EB88684B6DC0FB0C45C0FB0E67CEF184
:100AE000000EC3FB0E45C3FB0C6752F804CB52F853
:100AF00004EBC8680B6DC0FB0C45C0FB0E67CEF164
:100B0000000EC3FB0E45C3FB0C6752F804CB52F832
:100B100004EB0869CB6CC0FB0C45C0FB0E67CEF143
:100B2000000EC3FB0E45C3FB0C6752F804CB52F812
:100B300004EB48698B6CC0FB0C45C0FB0E67CEF123
:100B4000000EC3FB0E45C3FB0C6752F804CB52F8F2
:100B500004EB88694B6CC0FB0C45C0FB0E67CEF103
:100B6000000EC3FB0E45C3FB0C6752F804CB52F8D2
:100B700004EBC8690B6CC0FB0C45C0FB0E67CEF1E3
:100B8000000EC3FB0E45C3FB0C6701F58071019895
:100B90004FF4FE4E4EF0FF0E4FEA946444EA851483
:100BA0004FEAE47CBCEBE43F18BF8CEA0E044FEA4A
:100BB000966646EA87164FEAE67CBCEBE63F18BF2E
:100BC0008CEA0E06DDF800C000EB8C0E2EF8026BEE
:100BD00020F8024BBCF1010C7FF44CAF02B0BDE831
:100BE000F08F000081FB00207047704710B54C105B
:100BF00084EA530404D54042C1F1000138BF491EC4
:100C00001B4204D55242C3F1000338BF5B1E00F003
:100C100015FC14F0804F04D04042C1F1000138BFF0
:100C2000491E14F0004F04D05242C3F1000338BFF4
:100C30005B1E10BD0FB4044910B503AA029800F062
:100C40000DFF10BC5DF814FB100000200FB41CB5A4
:100C5000074B06AA7B4469460090059800F0CFFE3A
:100C60000020694600F0DEFE1CBC5DF814FB0000AD
:100C7000CD0D000070B5044685690068C10601D538
:100C8000302600E02026C00707D070BDD4E901213E
:100C900030469047206A401C20626D1EF6D570BD1C
:100CA00070B5044685690078C00707D170BDD4E9E6
:100CB000012120209047206A401C20626D1EF6D53D
:100CC00070BD70B50C460546012A05D0287880060F
:100CD00000D5EA69002302E0012305E05B1C934292
:100CE00002D2E05C0028F9D1A869E618C01AA86110
:100CF000286A184428622846FFF7BCFF04E0D5E9BB
:100D0000012114F8010B9047B442F8D32846FFF7AD
:100D1000C7FF70BD2DE9F041064600241068752913
:100D2000314615A510D0AFF30080002802DA40420A
:100D300012A507E031688A0701D511A502E049072D
:100D400004D510A5012401E0AFF3008000210A239F
:100D500006F1240707E0B0FBF3F203FB120030308A
:100D600078541046491C0028F5D123462A463046BF
:100D7000BDE8F04100F0D9BB000000002D000000EC
:100D80002B00000020000000F0B40D46018809058A
:100D900002D51B4C7C4402E0194C7C440E340021EB
:100DA00000F1240305E002F00F061209A65D5E546F
:100DB000491C002AF7D102780023120704D5702DB0
:100DC00006D009B1022311342246F0BC00F0ADBBBD
:100DD00001231034F8E770B504460D46214610682B
:100DE000AFF30080024629462046BDE87040CBE7BD
:100DF0000368126843F0200303600823C361C3E75C
:100E0000BCDD02002DE9F05F894604464FF0000A80
:100E1000DFF874B1FB44C0F820A02046E1688847A1
:100E2000002874D0252806D0D4E901219047206AF3
:100E3000401C2062F1E700265F462046E1688847B3
:100E40002028054607DB312D05D2781910F8200C33
:100E500008B10643F1E7B00701D526F00406C4F84F
:100E60001CA00027C4F818A02A2D09D028460EF08F
:100E700010FE38B304EB8708303DC8F8185019E06D
:100E800059F8041B204604EB87029161E16888470A
:100E9000012F054618D1E069002820DA26F0200647
:100EA0001DE0D8F8180000EB800005EB400030385A
:100EB000C8F818002046E168884705460EF0E9FDAD
:100EC0000028EED1012F0AD02E2D08D12046E1684E
:100ED00088477F1C0546022F46F02006C4DBA06928
:100EE000002803DA404246F00106A061F00701D075
:100EF00026F010066C2D0BD0682D09D04C2D39D062
:100F00006A2D35D0742D35D07A2D33D016E038E0E7
:100F1000E1682F4620468847B842054609D16C2F24
:100F200026D04FF48060E168064320468847054696
:100F300004E06C2F1AD04FF4807006430DB3A5F176
:100F40004100192802D8203546F400664A46294651
:100F5000204626604E46FFF775F980B101280BD078
:100F6000F61D26F0070000F1080956E74020E4E7E7
:100F70008020D8E70020D6E706F104094DE728468F
:100F800052E7206ABDE8F09F64DD020070B50646B6
:100F900000F050FA0468054630460A22002100F0AD
:100FA0006FFD2C6070BD002000F0A2FDFFF773F90B
:100FB00001200EF075FD40EA010310B59B070FD12B
:100FC000042A0DD310C808C9121F9C42F8D020BAB9
:100FD00019BA884201D9012010BD4FF0FF3010BD71
:100FE0001AB1D30703D0521C07E0002010BD10F83F
:100FF000013B11F8014B1B1B07D110F8013B11F805
:10100000014B1B1B01D1921EF1D1184610BD40EAC5
:101010000103024630B59B0710D14FF0013400E0C8
:1010200008C208C91D1B9D4315EAC41FF8D013F060
:10103000FF0102F8011B0DD01B0AF8E711F8013B74
:10104000002B02F8013B05D011F8013B002B02F800
:10105000013BF3D130BD10B5431C02E010F8011B79
:1010600071B18107FAD14FF0013202C88C1A8C435A
:1010700014EAC211F9D0C01A0A0603D0C01E10BD6E
:10108000C01A10BD0A0401D0801E10BD0902FCD098
:10109000401E10BD40EA010370B59B072ED14FF0F2
:1010A0000136042A2AD308C810C99D1B9D43121F6C
:1010B00015EAC61517D0D8B2E1B2401A50EA056158
:1010C00010D198B2A1B2401A50EA05410AD123F0DA
:1010D0007F4024F07F41401A50EA052102D1180ECA
:1010E000A0EB146070BDA342DBD018BA21BA8842CD
:1010F00001D9012070BD4FF0FF3070BD0AB900204A
:1011000070BD10F8013B11F8014B63B1A3420AD145
:10111000521E08D010F8013B11F8014B1BB1A3423D
:1011200001D1521EEDD1181B70BD421E12F8013FB5
:10113000002BFBD111F8013B002B02F8013BF9D148
:101140007047032A40F2308010F0030C00F0158045
:1011500011F8013BBCF1020F624498BF11F801CBBA
:1011600000F8013B38BF11F8013BA2F1040298BF1F
:1011700000F801CB38BF00F8013B11F0030300F089
:101180006780083AC0F0088051F8043B083A51F8EB
:1011900004CBA0E80810F5E7121D5CBF51F8043B32
:1011A00040F8043BAFF30080D20724BF11F8013BA5
:1011B00011F801CB48BF11F8012B24BF00F8013B07
:1011C00000F801CB48BF00F8012B7047431A28BF35
:1011D0009A427FF6B6AF032A1044114440F22680AB
:1011E00010F0030F1EBF11F8013D521E00F8013D23
:1011F00010F0030F7FF4F6AF11F0030300F09284B8
:10120000083AC0F00B8051F8043D083A51F804CD7B
:1012100040F8043D40F804CDFFF7F3BF121D5CBF5A
:1012200051F8043D40F8043DAFF30080D20724BFDD
:1012300011F8013D11F801CD48BF11F8012C24BF70
:1012400000F8013D00F801CD48BF00F8012C7047BF
:1012500010B5203AC0F00B80B1E81850203AA0E851
:101260001850B1E81850A0E81850BFF4F5AF5FEA85
:10127000027C24BFB1E81850A0E8185044BF18C938
:1012800018C0BDE810405FEA827C24BF51F8043BDF
:1012900040F8043B08BF7047D20728BF31F8023B33
:1012A00048BF11F8012B28BF20F8023B48BF00F8C7
:1012B000012B704702F0FF0343EA032242EA024295
:1012C00000F002B84FF000020429C0F0128010F0C4
:1012D000030C00F01B80CCF1040CBCF1020F18BF12
:1012E00000F8012BA8BF20F8022BA1EB0C0100F0A5
:1012F0000DB85FEAC17C24BF00F8012B00F8012B78
:1013000048BF00F8012B70474FF0000200B51346AC
:1013100094469646203922BFA0E80C50A0E80C5015
:10132000B1F12001BFF4F7AF090728BFA0E80C50C6
:1013300048BF0CC05DF804EB890028BF40F8042BBF
:1013400008BF704748BF20F8022B11F0804F18BF2C
:1013500000F8012B704710B5044610F0030F08BFCA
:1013600011F0030F40F015804FF0013E121FC0F244
:101370000E8051F8043BA3EB0E0C2CEA030C1CEA84
:10138000CE1C08BF40F8043BF0D0A1F1040102F1EB
:101390000402521E08DB11F8013B002B00F8013B50
:1013A000F7D11146FFF78EFF204610BD4FF0013CEC
:1013B00050F8042B51F8043B9A4221D1A2EB0C03C4
:1013C000934313EACC1317D150F8042B51F8043B84
:1013D0009A4215D1A2EB0C03934313EACC130BD121
:1013E00050F8042B51F8043B9A4209D1A2EB0C03AC
:1013F000934313EACC13DBD04FF00000704700BFDB
:10140000D01A01BAB1FA81F101F0180122FA01F003
:10141000CB40C1F12001DBB2C0B2C01A2CFA01F3FB
:10142000D11A914311EAC311E6D170477047704752
:1014300070470000004870471CF1012053EA020C7D
:1014400000F069802DE9F04B4FF00006002B1FBF24
:10145000B3FA83F503FA05F424FA05F65E4012BFE9
:101460001643B2FA82F502FA05F4C5F120051EBF53
:1014700022FA05FC44EA0C04203556EA044C4FEAF3
:10148000144418BF641C4FF000084FF0000990424C
:1014900071EB030C39D3002919BFB1FA81F701FAB6
:1014A00007F6B0FA80F700FA07F6C7F120071EBF6B
:1014B00020FA07FC46EA0C062037B6FBF4FCA7EB43
:1014C0000507103F07F01F0BCBF120060CFA0BFBB2
:1014D0002CFA06F644BFB3460026202FA4BF5E4672
:1014E0004FF0000B5BEA060C08BF4FF0010B19EB45
:1014F0000B09ABFB027C48EB0608C01B06FB02CCC9
:101500000BFB03CC71EB0C01C1E70B4602464146D5
:101510004846BDE8F08B13B54FF000004FF00001D6
:10152000AFF30080BDE81C4070472DE9F0470D4641
:1015300099469246044600F124080168880604D5BD
:10154000E06921F01001216000E00120A84201DDE6
:10155000471B00E00027A1697A1902EB0900081A6D
:10156000A0612078C00602D42046FFF783FB002646
:1015700008E0D4E901211AF806009047206A401CCF
:10158000761C20624E45F4DB2078C0060AD5204642
:10159000FFF770FB06E0D4E9012130209047206A74
:1015A000401C2062381EA7F10107F4DC07E0D4E9F3
:1015B000012118F805009047206A401C2062281E6F
:1015C000A5F10105F3DC2046FFF76AFB2078000651
:1015D00002D50220BDE8F0870120FBE770472DE926
:1015E000FF4F0C461E464FF0FF378BB0D2E900018B
:1015F000DDF860800A908A46C1F30A5505B93D4678
:10160000002108464FF00000BAF1000F00F440003E
:1016100005DA00EB80004FF4400101EA50004FEA88
:101620009059B9F1010F00DDB9460A9850EA4A0015
:101630000ED044F61050A5F2FF3545432F14B8F1F3
:10164000000F1ED07542291E1EDDC9F100021CE0EC
:10165000B8F1010F4FF0000001D0302103E0F24358
:1016600005E02154401CB042FBDB30460022002143
:1016700021540B99C1F80880C1E900200FB0BDE8E2
:10168000F08FBD1B6D1CDEE74A4600DA694206A8F2
:1016900000F058FB06AB93E8070003AB83E80700B4
:1016A00050460A9900F036FC8DE80700A0F500507E
:1016B0001F3800900398002D09DD42F21F014A46B1
:1016C000084403A90390684600F095FE08E0A0F5E1
:1016D00000504A461F3803A90390684600F09FFE59
:1016E0008DE807000004000C03D04FF0FF304108E4
:1016F00000E01046B8F1000F03D00022009215461A
:101700001EE0751E05D400F047FA303262556D1E9A
:10171000F9D5B3460122084302D000227F1C04E021
:101720002078302801D100227F1E002A099786D018
:101730001DE0112D07DA00F02FFA303262556D1CD2
:1017400050EA0102F5D1084302D00098C8B10EE07A
:101750000021681E05E0235C625C63542254401E35
:10176000491C8142F7DBAB46A81B401E09900020B4
:1017700004F80B000B98099AC0F80880C0E9002B08
:101780007CE711264FF0000859E72DE9F04F884615
:101790000446D21D22F0070191B0D1E90001CDE944
:1017A0000A010EF0CFF802460B98C00F01D02D2091
:1017B00007E02068810701D52B2002E0202101EA03
:1017C000C000032A099001D0072A05DB03464146E1
:1017D000204600F027FA09E12078800601D5E0696B
:1017E00000E00620B8F1650F814606D0B8F1660F1B
:1017F00018D0B8F1670F70D131E00020B9F1110FA6
:10180000009001DB112301E009F101030AAA01A9FB
:101810000CA8FFF7E4FEDDE90C70002609F10105D4
:10182000834647E001204B4600904FF000470AAA4C
:1018300001A90CA8FFF7D3FEDDE90DB00C995D46B8
:10184000002610B909F101000D18B9EB050003D409
:10185000C0F1FF3609F10105A5EB09002BE0B9F154
:10186000010F01DA4FF001090020B9F1110F0090CA
:10187000484601DD112300E003460AAA01A90CA88D
:10188000FFF7ADFEDDE90C704D460026834620785B
:1018900000070AD4AB4500DA5D4601A8012D04DD3E
:1018A000411911F8011C302907D04F4502DA17F110
:1018B000040F04DA012082460FE06D1EEEE7002FD0
:1018C00002DCED1B3E4403E0781CA84200DD7D1CD9
:1018D000B81B00F1010A4FF000472078000703D43D
:1018E000AA4501DB4FF0FF3A0021B7F1004F0DF19F
:1018F00043088DF8431022D002202B23002F01DA59
:101900007F422D234FF00A0C011EA0F1010000DCE4
:1019100047B197FBFCF10CFB11720F46303208F80F
:10192000012DF1E7A8F1010003702188090501D517
:10193000452100E06521A0F1010800F8011C09988B
:101940000FA9A1EB0807FF1D00B10120411901EB10
:10195000EA70A1693844081A401EA0612078C006C8
:1019600002D42046FFF786F9099828B1D4E901216D
:101970009047206A401C20622078C00622D520466D
:10198000FFF778F91EE0002E04DBB34502DD01A865
:10199000805D00E03020D4E901219047206A401C9E
:1019A0002062761CAAF101005FEA000A0AD100F069
:1019B000EFF8C0680168405CD4E901219047206AD3
:1019C000401C2062281EA5F10105DCDC07E0D4E9FB
:1019D000012118F8010B9047206A401C2062381E34
:1019E000A7F10107F3DC2046FFF75AF9022011B0F6
:1019F00045E6000001694A1C02610878704700B59D
:101A00008FB0CDE901310021059105497944CDE937
:101A1000031011466846FFF7F5F90FB000BD00004E
:101A2000E5FFFFFF0A6802F8010B0A60704710B576
:101A3000436913B1AFF3008001E0FFF742F90120E1
:101A400010BD127800F124010A7000224A700122B0
:101A5000EDE711684FF0FF32E9E70000074B70B582
:101A60000D467B44FFF7CBFF0446284600F0D6F92D
:101A700010B14FF0FF3070BD204670BDAB4B010080
:101A80002DE9F04791460F4680460446002614F89B
:101A9000015B2DB100F074F80068405DC007F6D11D
:101AA0002B2D02D02D2D18D0641E4A4639462046D3
:101AB00000F0F8F827B13968A14201D1C7F80080D9
:101AC0004FF0020471050BD54042002803DDFFF7FB
:101AD000B1FC0460A007BDE8F08746F48066E4E747
:101AE0000028F8DAFFF7A6FC04606FF00040F2E788
:101AF00010B500F09DF9BDE8104000F093B9431A0D
:101B000028BF9A427FF6A4AB104410F0030F114493
:101B10001EBF11F8013D521E00F8013D10F0030FE9
:101B20007FF4F6AF103AC0F00A8010B531E91850D2
:101B3000103A20E91850BFF4F9AFBDE81040530740
:101B400024BF31E9081020E9081044BF51F8043DD2
:101B500040F8043D12F0030F08BF7047D20728BFBA
:101B600031F8023D48BF11F8012C28BF20F8023D92
:101B700048BF00F8012C7047004870471CF1012055
:101B800010B500F005F8001D10BD00BF2DF00100DC
:101B9000004870473CF1012030B5B0F10A024FEA2D
:101BA000900E71F100034EEA817EB0EB0E0061EB06
:101BB00091014FEA101E4EEA017E10EB0E0041EB40
:101BC00011114FEA102E4EEA016E10EB0E0041EBA0
:101BD00011214FEA104E4EEA014E10EB0E0041EB80
:101BE0001141401841F100014FEAD00040EA417034
:101BF0004FEAD10110EB80054FEA810444EA90746A
:101C000044EB01046D1944EB0404521BA3414FF053
:101C1000000348BF0A3200D530BD401C41F100012D
:101C200030BD00002DE9F0411F460446032601683F
:101C3000072A01F4006004DB08B116A505E016A52B
:101C400003E008B115A500E015A521F01000206003
:101C5000A069C01EA0610FB1401EA0612046FFF721
:101C600009F84FB1D4E9012138469047206A401C59
:101C70002062C01C206206E0206AFAE7D4E9012154
:101C800015F8010B9047761EF8D22046FFF708F8AA
:101C9000BDE8F0814E414E006E616E00494E460037
:101CA000696E66002DE9F05F824615468B46002777
:101CB0000AF10104B9460078302801D09DB113E043
:101CC00014F8010B0127782803D0582801D045B11A
:101CD0000AE00DB1102D07D1002714F8010B1025D3
:101CE00002E0082500E00A250026B0460EE005FBCC
:101CF000080005FB06F101271FFA80F801EB1046EA
:101D0000B6F5803F00D3B94614F8010B294600F020
:101D1000CCF80028EBDABBF1000F05D00FB1641E40
:101D200000E05446CBF80040B9F1000F06D0FFF7B1
:101D300081FB02210160C81EBDE8F09F48EA064011
:101D4000FAE700002DE9F047814616468AB032488E
:101D500078440DC88DE80D002F487844801C03ACF2
:101D60000DC884E80D0041F69B303722014491FBF9
:101D7000F2F0A0F1800502FB10141B3C02D5644276
:101D8000012000E00020DFF890A080460027FA4400
:101D9000AAF1BA0A0DE0E00709D03246684607EB1F
:101DA00047010AEB810100F03AFB8DE8070064105F
:101DB0007F1C002CEFD1184F7F44A83F18E0E807A4
:101DC00014D007EB04100DF1180A90E80E008AE811
:101DD0000E00C068F04201D198190890324606A959
:101DE00003A800F01CFB03AB83E807006D10641C24
:101DF000002DE4D132466946B8F1000F03A802D0A5
:101E000000F0F9FA01E000F00AFBC9E90001C9F8A5
:101E100008200AB0BDE8F087B8CE0200007B00F0D1
:101E200080007047002801D00DF03ABE70470000D6
:101E300010B5002102A000F04CF8012010BD0000F8
:101E4000534947414252543A2041626E6F726D616C
:101E50006C207465726D696E6174696F6E0000004C
:101E60007546FFF789FEAE4605006946534620F0E9
:101E70000700854618B020B5FEF79CFABDE8204063
:101E80004FF000064FF000074FF000084FF0000B36
:101E900021F00701AC46ACE8C009ACE8C009ACE8E9
:101EA000C009ACE8C0098D4670473A2800D23038E6
:101EB00020F02002412A01D3A2F13700884201D349
:101EC0004FF0FF3070470446AFF300802046FEF726
:101ED000EDF970B505460C460A2000E06D1C00F0D7
:101EE00011F835B128780028F8D102E0641C00F020
:101EF00009F814B120780028F8D1BDE870400A2014
:101F0000AFF3008008B569468DF800000320ABBE32
:101F100008BD70475FEA400C08BF91F0000F4FEA20
:101F20008C234FEAC12243EA51514FEA1C5018BF9B
:101F300000F5F0404FEA300018BF41F000415FEA81
:101F40006C5C00F02980BCF1FF3F08BF40F080408E
:101F50007047130C06BF12044FF0100C4FF0000C2A
:101F6000130E04BF12020CF1080C130F04BF120170
:101F70000CF1040C930F04BF92000CF1020CD30F70
:101F800004BF52000CF1010C11464FF00002A0F109
:101F90001F00A0EB0C00704711F0004F08BF704706
:101FA00031F000413FF4D5AF0B0C06BF09044FF0F0
:101FB000100C4FF0000C0B0E04BF09020CF1080CC2
:101FC0000B0F04BF09010CF1040C8B0F04BF890037
:101FD0000CF1020CCB0F04BF49000CF1010CCCF149
:101FE0002003A0EB0C0022FA03F302FA0CF241EA00
:101FF000030100F10100704720F07F4C80EA0300EC
:1020000023F07F47ACEB070303F57C5300F000405F
:1020100003F1FF032DE980494FEA154B09B44FEA5C
:10202000144325EA0B4E24EA03480FF2042606EB7C
:10203000132749083E785FEA320203FB0667C7F5BB
:10204000000707FB06F64FEA54374FEAD64606F17B
:10205000020607FB066CCCF1005C4FEA1C472CEA39
:10206000074C07FB06F40CFB06F504EB15464FEA9C
:10207000961634BF00204FF000404FEAD13706FBE0
:1020800007FC4FEA1C4C0CFB0BF7D21B03FB0CF7B5
:1020900061EB07010CFB0EF7B0EB074072EB174248
:1020A0000CFB08F734BFA2EB0742B2EB074261EB2F
:1020B00017414FEA0C444FEA910706FB07FC4FEA31
:1020C0001C4C0CFB0BF7B0EBC74072EB573203FB19
:1020D0000CF734BFA2EBC742B2EBC74261EB5731FA
:1020E0000CFB0EF7B0EBC70072EB57720CFB08F756
:1020F00034BFA2EBC702B2EBC70261EB5771039F7B
:102100004FEA816141EA921104EBCC044FEAD137E6
:102110004FEA826206FB07FC42EA90124FEA8060B7
:102120004FEA1C4C0CFB0BF7D21B03FB0CF761EBCB
:1021300007010CFB0EF7B0EB074072EB17420CFBEC
:1021400008F734BFA2EB0742B2EB074261EB17413D
:102150004FEA8C554FEA910704EB9C2406FB07FCE1
:102160004FEA1C4C0CFB0BF7B0EBC74072EB57323D
:1021700003FB0CF734BFA2EBC742B2EBC74261EBE3
:1021800057310CFB0EF7B0EBC70072EB57720CFB2C
:1021900008F734BFA2EBC702B2EBC70261EB57717D
:1021A00015EB4C254FEA816141EA92114FEA8262B8
:1021B0004FEAD13742EA901206FB07FC44F10004D3
:1021C0004FEA80604FEA1C4C0CFB0BF7D21B03FB61
:1021D0000CF761EB07010CFB0EF7B0EB074072EB5D
:1021E00017420CFB08F734BFA2EB0742B2EB0742E1
:1021F00061EB174115EB1C154FEA813141EA924121
:102200004FEA823242EA90424FEA80304FEA0C763F
:1022100044F1000448EA03434EEA0B484FF0000E35
:10222000B2EB080C71EB030724BF624639464EEB54
:102230000E0E4FF0000B0018524149414BEB0B0BB7
:10224000B2EB080C71EB03077BF1000B24BF624675
:1022500039464EEB0E0E4FF0000B0018524149412B
:102260004BEB0B0BB2EB080C71EB03077BF1000B94
:1022700024BF624639464EEB0E0E51EA020718BFE4
:1022800046F0010616EB0E7655F1000254F10001FE
:1022900003D5BDE88901BDE80088BDE88901B6190C
:1022A000BDE80048524141EB0101A3F10103704731
:1022B00080807F7E7D7C7B7A797877767675747383
:1022C000727171706F6E6E6D6C6C6B6A6A69686842
:1022D000676666656464636362616160605F5F5ED8
:1022E0005E5D5D5C5C5B5B5A5A595958585757564E
:1022F00056555555545453535252525151505050B3
:102300004F4F4F4E4E4D4D4D4C4C4C4B4B4B4A4A04
:102310004A49494948484847474747464646454548
:102320004544444444434343434242424241414181
:10233000002B26D4770021D01CB54FEA370703B411
:102340004FF010004FF010014FF000000FBC0BF1E8
:10235000010BBDE81040BBF1010F08BF5FEA170792
:1023600022BF12F1010211F101014FF0004143F1CE
:10237000000300F0004043EA00007047F9D357081B
:10238000DAE746EA064613F1400F4FEA16461FDD2C
:1023900013F1200FDFBF16430A46002120335B42B2
:1023A000C8D0C3F1200746EA064602FA07F74FEA0B
:1023B000164646EA0706C3F1200722FA03F201FA9D
:1023C00007F721FA03F14FF0000342EA0702B1E7F1
:1023D00046EA020646EA06464FEA164646EA01067D
:1023E000BCBF46EA0646360C4FF000034FF0000231
:1023F0004FF000019EE72DE9C048934630B491E8C4
:10240000380007C831EA400C48BF34EA430C03D512
:10241000FFF7F2FDFFF78CFFF0BCBDE800882DE967
:10242000C048934630B491E8380007C810F0804F98
:1024300008BF13F0804F03D100F005F8FFF778FFD5
:10244000F0BCBDE8008820F07F4780EA030023F05D
:102450007F4C07EB0C03A3F57C5300F00040A3F185
:10246000FE0392F0000F00F0B38095F0000F00F033
:1024700077802DE901494FEA11404FEA144621EADD
:10248000004800FB06FC24EA064708FB06F607FBAB
:1024900008F800FB07F718EB06484CEB164C4FEA20
:1024A000124B18EB07484FEA15464CEB174022EA4F
:1024B0000B4E0BFB06FC25EA06470EFB06F607FB58
:1024C0000EFE0BFB07F71EEB064E4CEB164C4FF0C7
:1024D00000061EEB074E4CEB174B18EB0B0840F1B8
:1024E000000018EB0E0B58EB000840F100008F1AAB
:1024F0004FF000013CBFC943661B14BFB5EB040C91
:1025000000213CBFC943F61B4FEA17444EEA8E0E2A
:1025100027EA04454FEA1C4704FB07622CEA074CF4
:1025200005FB07F70CFB05F604FB0CFC16EB074656
:1025300042EB174216EB0C4642EB1C421BEB060625
:1025400058EB0202414146EA9E0601D5BDE80189E9
:10255000B619524141EB0101A3F10103BDE8018924
:102560004FEA14454FEA114724EA054621EA074C91
:1025700005FB07F406FB07F70CFB06F105FB0CFC5B
:1025800011EB074144EB17444FEA124711EB0C41A2
:1025900044EB1C4422EA074C05FB07F206FB07F755
:1025A0000CFB06F605FB0CFC16EB074642EB17424C
:1025B00016EB0C4642EB1C456A1854F1000148BF6B
:1025C0007047B619524141EB0101A3F10103704775
:1025D00095F0000F37D04FEA11424FEA144721EA35
:1025E000024624EA074C02FB07F106FB07F70CFB47
:1025F00006F402FB0CFC14EB074441EB17414FEAD5
:10260000154714EB0C4441EB1C4125EA074C02FB37
:1026100007F506FB07F70CFB06F602FB0CFC16EBB6
:10262000074645EB174516EB0C4645EB1C421219C5
:1026300051F1000148BF7047B619524141EB010109
:10264000A3F1010370474FEA14454FEA114724EA0A
:10265000054621EA074C05FB07F106FB07F70CFBD3
:1026600006F24FF0000605FB0CFC12EB074241EBB3
:10267000174112EB0C4251EB1C4148BF70479218B6
:1026800041EB0101A3F10103704700220A12D34379
:102690000360704721B1826842F00102826003E06A
:1026A000826822F001028260704700000021084A1F
:1026B0001168084A1140D0E900231A4383681A437D
:1026C000C3681A431143044AC2F804137047000058
:1026D00004230140E030FCFF002001400146C86CAB
:1026E00080B2704770B502460020002300240B1210
:1026F000556801268E4005EA060415681D4015B18F
:102700000CB1012000E0002070BD000008B51AF0F7
:102710001BF840F205210C48FFF7E4FF01280FD118
:1027200040F205210848FFF7B0FF0748FFF7D6FF42
:10273000009000231A466946044800681BF0C4FC58
:102740001AF014F808BD0000002001402C040020FD
:1027500010B50B460021D9B2012404FA01F11AB1D7
:1027600044680C43446002E044688C43446010BDFC
:1027700030B50246002000235068104C20400D79EF
:102780000C6844EA05242043506090680C4C2040BB
:10279000D1E903542C438D682C434D7944EA450418
:1027A00020439060D06A20F470000C7D641EE4B277
:1027B000234340EA0350D06230BD0000FFFEFFFC1F
:1027C000FDF7FFC0F0B504460D4600200021092D9D
:1027D00011DDE068A5F10A0606EB4607072606FAB2
:1027E00007F18843A5F10A0606EB460603FA06F14F
:1027F0000843E0600CE0206905EB4507072606FA70
:1028000007F1884305EB450603FA06F1084320610A
:10281000072A0FDA606B561E06EB86071F2606FA9C
:1028200007F18843561E06EB860605FA06F10843B3
:10283000606322E00D2A0FDA206BD61F06EB8607B5
:102840001F2606FA07F18843D61F06EB860605FA0F
:1028500006F10843206310E0E06AA2F10D0606EBE2
:1028600086071F2606FA07F18843A2F10D0606EB3C
:10287000860605FA06F10843E062F0BD38B1084962
:10288000096841F40001074AC2F8041306E004494C
:10289000096821F40001034AC2F8041370470000DC
:1028A00004230140002001402DE9F04F8FB007467E
:1028B0000E46002408E037F814000AA921F8140095
:1028C00015F05AFB601C04B20A2CF4DB09247FE0EB
:1028D0000AA931F914000DF0E6F84FF48051019087
:1028E00017F016FE002800DB78E00AA931F9140081
:1028F000032117F045FD26F8140036F9141036F9B7
:10290000140007F013F903906FF00040039907F0EB
:1029100083F90490049816F0C7F8804641460F20CA
:1029200017F0F6FD82464146049807F011F904902D
:10293000049817F00FFB814649464FF480400FF092
:1029400051FF8346002531E00AA931F9150007F04F
:10295000C3F80490601B401E0AAB33F9102036F90F
:102960001410049807F0D0F80490049817F0F2FAC5
:1029700002905846029907F0D9F8039051460398FF
:1029800007F033F90390039807F07DF847F6FF71DD
:10299000019007F041F9002800DD1FE0039811F0D5
:1029A000ECF805A921F81500681C05B2A542CBDB9F
:1029B000002509E005A830F815000AA921F815003E
:1029C00015F0DAFA681C05B2A542F3DB601E04B20A
:1029D000002CBFF67DAF0FB0BDE8F08F002406E0FD
:1029E000002026F8140015F0C7FA601C04B20A2C67
:1029F000F6DB00BFEFE7000000B58DB0012108460F
:102A000008F088FE0121080208F0C4FE20200A9088
:102A100003208DF82C0001208DF82F000AA93048E2
:102A200005F01CFD0121080208F0C4FE00214FF44E
:102A3000807008F0BFFE0120FFF720FF0020069005
:102A4000099008904FF48030079006A8FFF72EFEFB
:102A5000002000908DF804008DF80500029004908D
:102A600001208DF8140069461E48FFF781FE0723F8
:102A7000012205211B48FFF7A5FE07230122102193
:102A80001848FFF79FFE01211648FFF703FE0122B9
:102A900040F205211348FFF75BFE12208DF830004D
:102AA00001208DF8310002208DF8320001208DF8D0
:102AB00033000CA808F026FA0022022103201BF0A4
:102AC0006CF9094908600846006818B107A0FEF7CC
:102AD000B1F802E00CA0FEF7ADF80DB000BD0000AB
:102AE00000000240002001402C040020696E69743F
:102AF00020784164635175657565207375636365FE
:102B000073732E2E2E0D0A00696E6974207841644D
:102B1000635175657565206661696C2E2E2E0D0AF0
:102B2000000000007FB504460025002000900190C1
:102B30000290039000E0641C20782028FBD02146FE
:102B40006846FEF764FA69460EA0FEF773F800E0E7
:102B50006D1C1DF80500302803DB1DF80500392821
:102B6000F6DD1DF8050018B10CA0FEF763F87FBD77
:102B70006846FEF70BFA064630460DF015FC00BF1E
:102B8000F5E700005365742073616D706C657261C8
:102B9000746520746F202573210D0A004572726FD1
:102BA0007220636F6D6D616E6421207573652061A5
:102BB0006D7272617465202B20726174650D0A005C
:102BC0002DE9F84F04460E4637461CE1904D483437
:102BD000203CD4F81C80D5F800A02D1DD4F82090FE
:102BE000286800902D1D41465046FDF7FBFF8346A7
:102BF00049460098FDF7F6FFABEB00004000E061AE
:102C000049465046FDF7EEFF834641460098FDF7E2
:102C1000E9FF584440002062D4F81880D5F800A09D
:102C20002D1DD4F82490286800902D1D4146504653
:102C3000FDF7D8FF834649460098FDF7D3FFABEB7D
:102C400000004000A06149465046FDF7CBFF834697
:102C500041460098FDF7C6FF584440006062D4F832
:102C60001480D5F800A02D1DD4F828902868009075
:102C70002D1D41465046FDF7B5FF83464946009855
:102C8000FDF7B0FFABEB00004000606149465046E5
:102C9000FDF7A8FF834641460098FDF7A3FF58447F
:102CA0004000A062D4F81080D5F800A02D1DD4F803
:102CB0002C90286800902D1D41465046FDF792FF4C
:102CC000834649460098FDF78DFFABEB00004000BE
:102CD000206149465046FDF785FF834641460098EE
:102CE000FDF780FF58444000E062D4F80C80D5F82E
:102CF00000A02D1DD4F83090286800902D1D41466D
:102D00005046FDF76FFF834649460098FDF76AFF7E
:102D1000ABEB00004000E06049465046FDF762FF23
:102D2000834641460098FDF75DFF5844400020630C
:102D3000D4F80880D5F800A02D1DD4F83490286868
:102D400000902D1D41465046FDF74CFF83464946F5
:102D50000098FDF747FFABEB00004000A06049463C
:102D60005046FDF73FFF834641460098FDF73AFF86
:102D7000584440006063D4F80480D5F800A02D1DAD
:102D8000D4F83890286800902D1D41465046FDF734
:102D900029FF834649460098FDF724FFABEB00006E
:102DA0004000606049465046FDF71CFF834641469F
:102DB0000098FDF717FF58444000A063D4F8008046
:102DC000D5F800A02D1DD4F83C90286800902D1D4A
:102DD00041465046FDF706FF834649460098FDF7F9
:102DE00001FFABEB00004000206049465046FDF774
:102DF000F9FE834641460098FDF7F4FE5844400032
:102E0000E06320347F1E002F3FF7E0AEBDE8F88F6F
:102E100078E602082DE9F04F89B004460F46904647
:102E20001E460020069015F0A7F80020029015F02D
:102E3000A4F8002509E038F9152038F91510029892
:102E400006F050FE0290681C05B2A02DF3DB0221B3
:102E5000029806F07DFE0290029810F08BFE06901C
:102E600047F6FF7A15F088F800250EE017F0F4FB1E
:102E700034F91500514617F04BFB002801DA34F9FC
:102E800015A015F079F8681C05B23C2DEEDB042185
:102E9000504617F075FA0590B4F90000049015F04B
:102EA0006BF801250FE017F0D7FB34F915100498E3
:102EB00017F02EFB002804DA34F91500049015F001
:102EC0005BF8681C05B2382DEDDBB4F950000390B7
:102ED00015F052F829250FE017F0BEFB34F9151054
:102EE000039817F015FB002804DA34F91500039055
:102EF00015F042F8681C05B23C2DEDDB002008906F
:102F000015F03AF817F0A8FB17F0A6FB17F0A4FB92
:102F100017F0A2FB17F0A0FB1421049817F0F8FAA1
:102F2000002834DD44F2AA41069817F0F1FA00288F
:102F30002DDA1421069817F0EBFA002827DDDDE9D9
:102F4000051017F0E5FA002806DB40F2A17103989E
:102F500017F0DEFA00281ADA17F07EFBB4F97800D1
:102F600001210CF0AEFD1E21019017F0D1FA0028CE
:102F700005DD1E20A4F8780014F0FEFF0CE0B4F983
:102F8000780001210CF09DFDA4F8780004E00020F9
:102F9000A4F8780014F0F0FF17F05EFBB4F97800A5
:102FA000012117F0B5FA002801DD0120089014F086
:102FB000E3FF002508E0681C34F8100024F8150031
:102FC00014F0DAFF681C05B23B2DF4DB0698A4F878
:102FD000760014F0D1FF43F26660079014F0CCFF46
:102FE00017F03AFBB4F97800082117F091FA00289D
:102FF00004DD43F6CD40079014F0BEFF17F02CFB24
:10300000B4F978000F2117F083FA002804DD43F6A5
:10301000FF70079014F0B0FF4FF0000B14F0ACFFFE
:1030200017F01AFB052107F1080013F0BBFE019011
:10303000079917F06DFA002803DD4FF0010B14F02B
:103040009BFF17F009FBB4F97800142117F060FA20
:10305000002812DD0921384613F0A4FE01900799DB
:1030600017F056FA002804DD4FF0010B14F084FF2E
:1030700003E04FF0000B14F07FFF17F0EDFABBF107
:10308000000F04D00020308014F076FF16E0B6F96F
:10309000000001210CF015FD814617F0DDFA0A2130
:1030A000484617F035FA002804DD0A20308014F075
:1030B00063FF03E0A6F8009014F05EFF089809B0E3
:1030C000BDE8F08F08B1016801B9704700210160C7
:1030D00000BFFAE770B504462CB907A0FDF7AAFDBA
:1030E0004FF0FF3070BD002020600C4D284600F0EE
:1030F00017F825600020F5E742676E5F7363645F31
:10310000696E69743A20696E76616C6964207061D9
:1031100072616D657465720A00000000848D012083
:1031200010B504462CB907A0FDF784FD4FF0FF3021
:1031300010BD3C2120460AF061FF0020A4F8780071
:1031400000BFF5E742676E5F7363645F7265736526
:10315000743A20696E76616C696420706172616D89
:10316000657465720A0000002DE9F04105460C46C1
:103170004FF0000814F000FF002616E00121404641
:1031800017F0FEF8804634F9027B14F0F5FE17F0D4
:1031900063FA0121384617F0BBF920B901214046F6
:1031A0000CF08FFC8046701C06B2AE42E6DB404657
:1031B000BDE8F0812DE9F04105460E46174614F0B2
:1031C000DBFE002418E0104951F8251031F91400F5
:1031D0003146FFF7C9FF27F8140014F0CDFE0A4866
:1031E00050F8250030F9140006EB4006002108468F
:1031F0000CF067FC601C04B2044830F91500A042D2
:10320000E1DCBDE8F0810000D4060020E61D0208E4
:1032100000BFFEE7014609B920207047002201E007
:10322000521C490001F000400028F9D01046F4E794
:10323000014609B920207047002201E0521C4900D4
:1032400001F000400028F9D01046F4E770B588B0CE
:10325000044600E0641C20782028FBD080213348FD
:10326000FEF752F8032232A12046FDF713FF58B1B2
:10327000032230A12046FDF70DFF28B103222EA125
:103280002046FDF707FF90B92046FDF7E4FE03282E
:1032900009D92046FDF7DFFE06463246214623487F
:1032A000FDF74FFF24E025A0FDF7C4FC20E08021BE
:1032B0001E4814F041F91D48FDF7CDFE401E1B4984
:1032C000085C2F280AD10846FDF7C5FE17494618A5
:1032D00022461FA13046FDF7B9FC09E01348FDF76F
:1032E000BAFE1249461822461AA13046FDF7AEFC36
:1032F0000E48FDF7B0FEB8B169460C4814F0A2FDC7
:10330000054665B9009820B1134908480DF0ACFA9C
:103310000AE0124912A0009AFDF78CFC04E0034A6F
:103320000E4915A0FDF786FC08B070BD6451012060
:10333000313A2F00303A2F00323A2F0066696C651F
:10334000206E616D65206572726F72210D0A00003A
:10335000257300002F257300E84C01207A1702081E
:1033600025733A2066696C652073697A65203D2073
:1033700025640D0A0000000025733A2066696C651B
:10338000206E616D65203D202573206572726F721D
:103390002121210D0A0000002DE9FF4F8FB00546C5
:1033A00090469B46DDF87090CDF8388014F0E4FD2F
:1033B000002408E0601C35F8100025F8140014F013
:1033C000DBFD601C04B2062CF4DBA5F80C8014F0C5
:1033D000D3FD002454E03BF9141039F9140017F020
:1033E00097F801900CF05FFB0590059815F070FBC5
:1033F0000121019017F08CF803900399059816F0BD
:10340000BFFF059039F9140015F062FB029039F9FD
:103410001400029916F0B4FF0490DDE904100FF0D7
:10342000E1F906A921F8140014F0A6FD0220039981
:103430000CF047FB0190029917F06AF8074617F065
:103440000BF9002F0BDB06A931F91400394616F0F1
:10345000C9FF06A921F8140014F08EFD0EE03846CD
:1034600015F018FB06A9019031F91400019916F026
:1034700087FF06A921F8140014F07EFD601C04B239
:103480000A2CA8DBBDF918000D9014F075FD01247D
:1034900008E006A830F914100D980CF012FB0D90FE
:1034A000601C04B20A2CF4DB17F0D6F841F2CD41CF
:1034B0000D9817F02DF8002806DDB5F90E00012152
:1034C0000CF0FFFAE88103E00020E88114F054FDDD
:1034D00017F0C2F8B5F90E000A2117F019F8002804
:1034E00003DD0020288214F047FD4FF4005A14F049
:1034F00043FD17F0B1F80321109817F009F80028E0
:1035000005DD0621109817F003F8002877D117F091
:10351000A3F817F0A1F817F09FF817F09DF817F02F
:103520009BF817F099F817F097F817F095F817F03F
:1035300093F81F9808B1209818B91D9808B91E98DB
:10354000B0B30121229816F0E3FF002837DD21985F
:1035500070B30021109816F0DBFF48B101211098DC
:1035600016F0D6FF20B10221109816F0D1FFF8B95D
:1035700041F29A110D9816F0CBFF064617F06CF841
:10358000002E03DD059614F0F7FC03E00020059003
:1035900014F0F2FC17F060F84FF40060059916F093
:1035A000B7FF002805DA4FF4005A14F0E5FC2CE0D0
:1035B00005E00221059816F0E3FE824625E040F67C
:1035C000CD410D9816F0A4FF064617F045F8002EE1
:1035D00003DD059614F0D0FC03E00020059014F004
:1035E000CBFC17F039F84FF40060059916F090FF06
:1035F000002805DA4FF4005A14F0BEFC05E087E01D
:103600000221059816F0BCFE824617F025F817F047
:1036100023F8B5F91000282116F07AFF002806DB00
:1036200041F2CD410D9816F073FF002803DD4FF4F1
:10363000005A14F0A1FCB5F9041041F69A1006F0F6
:1036400075FA0B90032409E035F9142041F69A111C
:103650000B9806F047FA0B90601C04B2072CF3DBC2
:103660000B9816F077FC0C9016F0F6FF16F0F4FFAE
:1036700016F0F2FF16F0F0FF16F0EEFF16F0ECFF7A
:103680001D9808B91E9848B3219838B300211098A6
:1036900016F03EFF48B10121109816F039FF20B115
:1036A0000221109816F034FFC0B9B5F9001041F2AC
:1036B000492006F03BFA0B90012409E035F914206B
:1036C00041F249210B9806F00DFA0B90601C04B2F0
:1036D000072CF3DB0B9816F03DFC0C9050460E992E
:1036E00006F024FA0B904FF40051DDE90B0206F0CE
:1036F000F9F90B905146DDE90B0206F005FA0B9043
:1037000002210B9806F024FA019016F023FC0E908B
:10371000B5F9100001210CF0D4F928820E9813B0ED
:10372000BDE8F08F08B1016801B970470021016060
:1037300000BFFAE770B504462CB907A0FDF77AFA86
:103740004FF0FF3070BD002020600E4D284600F085
:103750001BF825600020F5E743625F6761696E5FD3
:10376000617665726167655F696E69743A20696E3A
:1037700076616C696420706172616D657465720A4E
:1037800000000000FE8D012010B504462CB907A0F2
:10379000FDF750FA4FF0FF3010BD072120460AF028
:1037A0002DFC0020E081208200BFF5E743625F67C7
:1037B00061696E5F617665726167655F7265736589
:1037C000743A20696E76616C696420706172616D13
:1037D000657465720A0000007FB50546002600206A
:1037E000009001900290039000E06D1C2878202842
:1037F000FBD029466846FDF70AFC694641A0FDF763
:1038000019FA00E0761C1DF80600302803DB1DF8CD
:1038100006003928F6DD1DF8060018B13EA0FDF7B8
:1038200009FA7FBD6846FDF7B1FB04460F2019F089
:1038300041FAB4F5964F35D009DCB4F5166F10D0C7
:10384000B4F5965F19D0B4F5165F4FD121E0B4F509
:10385000E13F30D0B4F5613F36D0B4F5E12F45D12A
:103860003BE016F055FF35480460282019F022FA95
:103870004FF4166016F05EFF41E016F049FF2F4846
:103880000460142019F016FA4FF4965016F052FF07
:1038900035E016F03DFF294804604FF4165016F04D
:1038A00049FF2CE016F034FF244804604FF49640A2
:1038B00016F040FF23E016F02BFF204804604FF481
:1038C000E13016F037FF1AE016F022FF1B480460C3
:1038D0004FF4613016F02EFF11E016F019FF174873
:1038E00004604FF4E12016F025FF08E0134801685A
:1038F00013A0FDF79FF917A0FDF79CF900BF00BFCB
:1039000000BF8EE7536574206261756420746F2078
:103910002573210D0A0000004572726F7220636FDB
:103920006D6D616E64212075736520626175642020
:103930002B206E756D6265720D0A00001C0200205E
:103940007843757272656E7442617564203D2025FE
:10395000640D0A00706C6561736520696E70757422
:1039600020393630302F31393230302F3131353245
:1039700030302F3233303430302F3436303830302E
:1039800020210D0A0000000010B5044600E0641C70
:1039900020782028FBD02046FDF75DFB232803D8A4
:1039A0002046FDF758FB38B90E490FA0FDF742F944
:1039B00014A0FDF73FF907E024210A48FDF782FC37
:1039C00021460848FDF723FB1BA10648FDF7EEFC46
:1039D00018B900201A49087002E00120184908703F
:1039E00010BD00002101002043757272656E7420C5
:1039F00075736572206E616D652069732025730D86
:103A00000A000000456E746572207375202B2075C6
:103A10007365724E616D652C20757365724E616DB4
:103A20006572206D757374206C656E6774682031E3
:103A30007E333520210D0A00726F6F740000000084
:103A40002001002030B502460B460AB1002B01DCF4
:103A5000002030BD0024002102E0505C0444491CD9
:103A60009942FADBFE20B4FBF0F500FB1540F0E7CD
:103A700010B502461346002002E000241C54401CEE
:103A80008842FADB10BD70B500254FF4803404E0A5
:103A9000802008F07BFB00B103E02000A4F10104CA
:103AA000F6D100BF0CB9032070BD40F2FF5008F002
:103AB00043FB2846F8E7000070B5044605E01648C9
:103AC000056805F0450000B100E0F8E700BF0420FC
:103AD00008F05CFB20B1042008F02EFB032070BD31
:103AE000012008F053FB20B1012008F025FB012044
:103AF000F5E7094824380068A04201D01020EEE71D
:103B000040F2FF5008F018FB0348203800680821F5
:103B10000840C0B2E3E70000342C014070B5002635
:103B20004FF4803505E01148046804F0450000B109
:103B300003E02800A5F10105F5D100BF15B104F09F
:103B4000040028B10326042008F0F6FA304670BDC0
:103B5000012008F01BFB18B10126012008F0ECFA47
:103B600040F2FF5008F0E8FA3046F0E7342C01400C
:103B700010B505E00B48046804F0450000B100E012
:103B8000F8E700BF042008F001FB20B1042008F092
:103B9000D3FA032010BD40F2FF5008F0CDFA002008
:103BA000F8E70000342C01402DE9F04105460E46AF
:103BB0004FF0000805E02048076807F0450000B115
:103BC00000E0F8E700BF042008F0E0FA28B1042084
:103BD00008F0B2FA0320BDE8F081012008F0D6FA1F
:103BE00020B1012008F0A8FA0120F4E71248243897
:103BF0000068A84201D01020EDE740F2FF5008F025
:103C00009BFA0D482038046804F4604018B9200C71
:103C100030804046DFE704F4005008B11320DAE7B3
:103C200004F4804008B11020D5E704F4004008B146
:103C30000F20D0E74046CEE7342C014070B5002677
:103C40004FF4803505E00F48046804F0450000B1EA
:103C500003E02800A5F10105F5D100BF15B104F07E
:103C6000040028B10326042008F066FA304670BD2F
:103C700004F0400018B10026402008F05DFA3046FC
:103C8000F5E70000342C0140014640F27F400CE093
:103C900031F81020430021F8132031F810200123BF
:103CA00003EB400321F81320401E0028F0DA704790
:103CB00030B501460023002016E01F2404EB8012DB
:103CC00002F120030AE031F8124021F8134031F8E4
:103CD00012505C1E21F81450521E9B1E002404EB4F
:103CE00080149442EFDD401C2428E6DB30BD2DE932
:103CF000F04105460E461746002407E035F814004B
:103D000026F8140014F038F9601C04B2BC42F5DB4C
:103D1000BDE8F08110B518F017FD0849084800F01B
:103D200043F9012806D10549054800F03FF8054848
:103D30000068804718F01AFD10BD000020800020A8
:103D400070600240C404002010B518F0FDFC064964
:103D5000064800F029F918B10349044800F026F894
:103D600018F004FD10BD0000208000101064024017
:103D700010B518F0E9FC0A490A4800F015F960B1DD
:103D80000749084800F012F80021064800F028F81A
:103D900000210548006819F059F918F0E7FC10BD3A
:103DA00000800028B8640240240000200246094B2D
:103DB0009A4201D2084801E00648103801F0005349
:103DC0001BB1064B0B40C36002E0044B0B40836009
:103DD0007047000010640240006002407D0F7D0FBC
:103DE00021B1026842F00102026003E0026822F0A1
:103DF0000102026070470000016821F001010160CA
:103E00000021016041608160C16001612121416147
:103E10004A49884204D13D21484A103A91608CE0D9
:103E200046491831884205D14FF47461434A103A2B
:103E3000916082E041493031884205D14FF47411DC
:103E40003E4A103A916078E03C494831884205D1B9
:103E50004FF07461394A103A91606EE03749603131
:103E6000884204D13649354A103AD16065E0334979
:103E70007831884204D13349304A103AD1605CE04D
:103E80002E499031884204D12F492C4A103AD160F2
:103E900053E02A49A831884205D14FF03D51274AC5
:103EA000103AD16049E02949884204D13D21274A8E
:103EB000083A116041E025491831884205D14FF494
:103EC0007461224A083A116037E020493031884253
:103ED00005D14FF474111D4A083A11602DE01B49B9
:103EE0004831884205D14FF07461184A083A116090
:103EF00023E016496031884204D11149134A121F48
:103F000011601AE011497831884204D10D490F4AF5
:103F1000121F116011E00D499031884204D10A4905
:103F20000A4A121F116008E00849A831884204D1EA
:103F30004FF03D51054A121F11607047106002405A
:103F40003D000020400F002000003D201064024092
:103F500021B1026842F48022026003E0026822F488
:103F600080220260704722B1036843F4002303609B
:103F700003E0036823F4002303600161704721B16B
:103F8000026842F02002026003E0026822F0200290
:103F900002607047014600200A6802F001020AB17F
:103FA000012000E00020704770B502460020002488
:103FB0000025124EB24201D2114B01E00F4B103BD3
:103FC000104E0E4036B11E2606EAD124166806EAC7
:103FD000040502E0566906F0800501F000560EB1B6
:103FE0005C6800E01C68084E344004EA010616B123
:103FF0000DB1012000E0002070BD000010640240FF
:10400000006002403C0F3C0F7D0F7D0F10B501F0AA
:1040100080034BB122B1436943F08003436103E065
:10402000436923F08003436180290BD02AB10368E0
:1040300001F01E042343036004E0036801F01E0442
:10404000A343036010BD000010B500220268134BAB
:104050001A40CC680B6823434C6923438C69234383
:10406000CC6923430C6A23434C6A23438C6A234361
:104070004C6B23438C6B23431A430260426922F04A
:104080000702D1E90B3423431A4342610B694360B1
:104090004B6883608B68C36010BD00003F801CF0DC
:1040A0002DE9FF4F8DB006461F4616F0D5FA0F9842
:1040B00000285ED000241AE0BC4931F9140040F613
:1040C000CD4114F0D3FC06F11401019031F9140034
:1040D00047F2333114F0CAFC009001990BF0F1FC67
:1040E00002A921F8140013F047FF601C04B20A2C47
:1040F000E2DB16F0B1FA08210E9816F009FAF8B1D1
:1041000000241AE0AA4A32F9141036F9140014F007
:10411000ADFCA649019031F9140001990BF0D1FCD6
:10412000804602A931F91400414616F0F1F926F84B
:10413000140013F021FF601C04B20A2CE2DB22E120
:10414000002413E036F91410984A32F914000BF0E9
:10415000B8FC804602A931F91400414616F0D8F99E
:1041600026F8140013F008FF601C04B20A2CE9DBE7
:1041700009E116F071FA16F06FFA00210E9816F0A8
:10418000C7F920B101210E9816F0C2F960B9DFF825
:10419000249213F0F1FEDFF820A213F0EDFEDFF819
:1041A0001CB213F0E9FE21E005210E9816F0B0F9DB
:1041B00070B916F051FADFF8089213F0DDFEDFF85F
:1041C000F8A113F0D9FEDFF8FCB113F0D5FE0DE035
:1041D00016F042FADFF8DC9113F0CEFEDFF8D8A13A
:1041E00013F0CAFEDFF8DCB113F0C6FE37F9020B9C
:1041F0000C9013F0C1FE0C9908460BF062FC0146CE
:1042000001900C980BF05DFC09EB400513F0B4FE37
:1042100035F8020BADF81C0013F0AEFE35F8020BBA
:10422000ADF81E0013F0A8FE35F8020BADF8200023
:1042300013F0A2FE37F9020B0C9013F09DFE16F05E
:104240000BFA16F009FA00210E9816F061F920B168
:1042500001210E9816F05CF920B901210C9816F096
:104260008FF80C900C9908460BF02BFC014601903E
:104270000C980BF026FC0AEB400513F07DFE35F898
:10428000020BADF8220013F077FE35F8020BADF803
:10429000240013F071FE35F8020BADF8260013F080
:1042A0006BFE37F9020B0C9013F066FE02210C989E
:1042B00016F066F80BEB400513F05EFE35F8020BC6
:1042C000ADF8280013F058FE35F8020BADF82A00BF
:1042D00013F052FE35F8020BADF82C0013F04CFE33
:1042E00035F8020BADF82E0013F046FE08210E98AB
:1042F00016F00EF938B3002422E02D4A32F91410DA
:1043000036F9140014F0B2FB2849019031F9140079
:1043100001990BF0D6FB804607A931F914004146FC
:104320000BF0CFFB02A921F8140013F025FE07A81B
:1043300030F8140026F8140013F01EFE601C04B2BE
:104340000A2CDADB1FE000241BE036F91410174AB0
:1043500032F914000BF0B5FB804607A931F91400BF
:1043600041460BF0AEFB02A921F8140013F004FE45
:1043700007A830F8140026F8140013F0FDFD601CA7
:1043800004B20A2CE1DB0A22CD2102A807F02AFEA2
:104390000A2206F1140102A8FFF7A9FC0A2202A8CA
:1043A0001A9905F083FD11B0BDE8F08FA41C002020
:1043B000B81C0020CC1C0020CC220020CC3E0020C9
:1043C000CC420020CC2E00202DE9F04F97B00646BD
:1043D000894617469A4616F03FF9B9F1000F45D0C5
:1043E000002522E0B64931F9150040F2676114F06A
:1043F0003DFB06F11401029031F9150047F69811C2
:1044000014F034FB019002990BF05BFB08A921F832
:10441000150013F0B1FD08A830F8150003A921F824
:10442000150013F0A9FD681C05B20A2DDADB002582
:1044300019E036F9150045F2333114F017FBA049A5
:10444000029031F9150002990BF03BFB804603A95D
:1044500031F91500414616F05BF826F8150013F007
:104460008BFD681C05B20A2DE3DB0AE1B7F90000F9
:10447000022115F085FF934901EB400413F07CFD08
:1044800034F8020BADF8480013F076FD34F8020B57
:10449000ADF84A0013F070FD34F8020BADF83400AB
:1044A00013F06AFD34F8020BADF8360013F064FD2A
:1044B000B7F90200022115F063FF834901EB4004C4
:1044C00013F05AFD34F8020BADF84C0013F054FD14
:1044D00034F8020BADF84E0013F04EFD34F8020B29
:1044E000ADF8380013F048FD34F8020BADF83A008F
:1044F00013F042FD387900F0010B12F0C1FEB7F95C
:104500000400012115F06EFF05460221284615F032
:1045100037FF6E4901EB400413F02EFD16F09CF8B6
:10452000BBF1000F18D134F8020BADF8500013F0B6
:1045300023FD34F8020BADF8520013F01DFD34F8E2
:10454000020BADF83C0013F017FD34F8020BADF888
:104550003E0013F011FD1FE034F9020B14F09AFA3B
:10456000ADF8500013F008FD34F9020B14F092FA84
:10457000ADF8520013F000FD34F9020B14F08AFA82
:10458000ADF83C0013F0F8FC34F9020B14F082FA99
:10459000ADF83E0013F0F0FCB7F90600022115F06B
:1045A000EFFE4B4901EB400413F0E6FC34F8020B3C
:1045B000ADF8540013F0E0FC34F8020BADF85600EF
:1045C00013F0DAFC34F8020BADF8400013F0D4FC21
:1045D00034F8020BADF8420013F0CEFCB7F9080036
:1045E000022115F0CDFE3B4901EB400413F0C4FC61
:1045F00034F8020BADF8580013F0BEFC34F8020B8F
:10460000ADF85A0013F0B8FC34F8020BADF84400D2
:1046100013F0B2FC34F8020BADF8460013F0ACFC1A
:1046200000252CE036F9150045F2333114F01EFA5E
:104630002349029031F9150002990BF042FA8046A5
:1046400012A931F9150041460BF03BFA08A921F8EF
:10465000150013F091FC0DA931F9150041460BF03E
:1046600030FA03A921F8150013F086FC0DA830F8E4
:10467000150026F8150013F07FFC681C05B20A2D02
:10468000D0DB0A22CD2108A807F0ACFC0A22CD21FC
:1046900003A807F0A7FC0A2206F1140103A8FFF7FC
:1046A00026FB0A22514608A805F000FC0A2203A8AE
:1046B000209905F0FBFB002017B0BDE8F08F00004B
:1046C000844102089841020898450208984D020862
:1046D00098550208985D020808B1016801B9704751
:1046E0000021016000BFFAE770B504462CB907A0AD
:1046F000FCF7A0FA4FF0FF3070BD002020600B4D9A
:10470000284600F015F825600020F5E7445F706C3E
:1047100073665F696E69743A20696E76616C69646C
:1047200020706172616D657465720A00108E0120DF
:1047300070B505462DB90BA0FCF77CFA4FF0FF30A1
:1047400070BD002404E0002025F81400601C04B2B1
:104750000A2CF8DB0A2205F114010B48FFF7C7FA0F
:104760000020EDE7445F706C73665F72657365747B
:104770003A20696E76616C696420706172616D6562
:104780007465720A00000000602302082DE9FF41F1
:1047900004460E46002017F05DFF074622462E49CC
:1047A0002EA0FCF747FA00200090019002900390A1
:1047B00000E0641C20782028FBD021466846FCF7E6
:1047C00026FC69462AA0FCF735FA684619F0B2FDC6
:1047D0000546002D39D0012E06D0022E0CD0032E16
:1047E0001AD0042E2FD11FE0284618F0D9FA6946B6
:1047F00023A0FCF71FFA27E00D21002018F0FCFC95
:10480000284618F0F3FD3946002018F0F5FC6946FB
:1048100022A0FCF70FFA17E0284618F067FD69465A
:1048200025A0FCF707FA0FE0284619F0CDFC012877
:1048300004D1694627A0FCF7FDF903E069462FA0E3
:10484000FCF7F8F900E000BF03E0294634A0FCF7CC
:10485000F1F9BDE8FF810000CC17020825733A206A
:10486000636F6D6D616E64203D2025730D0A00003D
:104870007461736B4E616D65203D2025730D0A00D8
:1048800064656C657465207461736B202573207397
:10489000756363657373210D0A000000737573708F
:1048A000656E64207461736B202573207375636378
:1048B000657373210D0A0000726573756D65207450
:1048C00061736B2025732073756363657373210DAA
:1048D0000A00000077616B65207570207461736B4E
:1048E0002025732066726F6D20626C6F636B20737E
:1048F000756363657373210D0A00000077616B6552
:10490000207570207461736B2025732066726F6D43
:1049100020626C6F636B206661696C210D0A000078
:10492000746172676574203D202570206572726F16
:10493000722120706C6561736520696E70757420DA
:104940007269676874207461736B206E616D652E87
:104950000D0A0000704700002DE9FF4F87B08A461E
:1049600015469B46DDF854900221284615F008FDB7
:10497000054615F071FE15F06FFE15F06DFE06216F
:10498000504615F0C5FD48B10421504615F0C0FD54
:1049900020B10321504615F0BBFDB8B95A4800EBD1
:1049A000450413F0E9FA34F8020BA9F8000013F0FB
:1049B000E3FA34F9028B13F0DFFA34F9027B13F0D7
:1049C000DBFAB4F9006013F0D7FA6BE015F044FE9F
:1049D0000021504615F09CFD00284CD1012014996F
:1049E00015F096FD0121019015F0CAFC01460290D8
:1049F00028460BF066F80546444800EB450413F0E2
:104A0000BBFA34F8020BA9F8000013F0B5FA34F938
:104A1000028B13F0B1FA404605F061F806AA04A92A
:104A2000029005F0D7F90C21BDF9100015F070FDCA
:104A300004900A21BDF9100015F0A2FC0521029096
:104A4000BDF9180015F0EDFC019002990BF039F852
:104A5000074646F25402BDF91810BDF9100006F0E1
:104A6000C1F903900D21039805F072F8029015F03A
:104A700071FA064616E0264800EB450413F07CFA6E
:104A800034F8020BA9F8000013F076FA34F9028B1F
:104A900013F072FA34F9027B13F06EFAB4F9006085
:104AA00013F06AFA002006AACDE9002004AB5A46AA
:104AB00051460290079811F0CBFDBDF918100E2059
:104AC00006F08EFC02900FF058F8059040460599CC
:104AD00005F02CF80390BDF910100A2015F018FD10
:104AE00001460290039805F061F8039003980FF0D7
:104AF00041F81699088032463946079811F07AFF36
:104B00000BB0BDE8F08F0000F4A40208F4AA02087C
:104B1000F4A802082DE9FC5F8046894692469B4630
:104B2000DDE90D4515F098FDBBF1000F34D115F00E
:104B300093FDC521404615F0EBFC002822DA022146
:104B400040460AF0BEFF42F6AB21009013F08EFF04
:104B5000132101900AF0B5FF2080B4F90010084637
:104B60000AF0AFFF0190B4F900100AF0AAFF064660
:104B70003146404615F0CCFC3A2101900AF0A1FFE5
:104B80002880AFE07021404615F0C2FC2080002054
:104B9000288013F0F1F9A5E015F05EFD0F9828BB11
:104BA000022140460AF08DFF42F6AB21009013F03F
:104BB0005DFF0121019015F0ABFC064649463046E9
:104BC0000AF07FFF2080314630460AF07AFF3146F6
:104BD00001900AF076FF06460221404615F098FC47
:104BE0003146019015F094FC28807BE00C9F13F077
:104BF000C3F915F031FD4946384615F089FC052109
:104C0000019015F085FC002804DD052148460AF0D6
:104C100058FF074615F020FD3946504615F078FC40
:104C20000421019015F074FC002804DD0421504695
:104C300015F06EFC074615F00FFD0421404615F0F7
:104C400067FC00280EDA0521384615F061FC06469F
:104C5000414630460AF035FF20800020288013F0BE
:104C60008BF93FE015F0F8FC0C21404615F050FCA4
:104C7000002825DA0521404615F04AFC42F6AB2112
:104C8000009013F0F3FE0121019015F041FC06465F
:104C9000394630460AF015FF2080314630460AF08A
:104CA00010FF314601900AF00CFF064609214046EC
:104CB00015F02EFC3146019015F02AFC288011E0F9
:104CC0000C21404615F024FC394601900AF0F9FE0B
:104CD0000646012130460AF0F4FE2080002028809C
:104CE00013F04AF9BDE8FC9F2DE9FF4F83B08946D8
:104CF00015469A46DDE9104615F0AEFCBAF1000FF4
:104D00003DD115F0A9FC40F2CF11039815F000FC3D
:104D1000002829DA052103980AF0D3FE41F2565102
:104D2000019013F0A3FE112102900AF0CAFE208028
:104D3000B4F9001008460AF0C4FE0290B4F900105D
:104D40000AF0BFFE0746394638460AF0BAFE014669
:104D50000190039815F0DCFB692102900AF0B1FE86
:104D6000308013F009F95CE04FF4B871039815F046
:104D7000CFFB20800020308013F0FEF851E0B4F922
:104D80000000052115F0C4FB804615F065FC49467E
:104D9000404615F0BDFB002802DAC84613F0ECF8D7
:104DA000092140460AF08DFE834615F055FC294640
:104DB000584615F0ADFB002807DDAB4613F0DCF8D4
:104DC0000921584615F0A4FB8046052103980AF0F6
:104DD00078FE41F25651019013F048FE01210290F5
:104DE00015F096FB0746414638460AF06AFE2080D9
:104DF000394638460AF065FE394602900AF061FEEF
:104E00000746394638460AF05CFE032102900398B3
:104E100015F07EFB0190029915F07AFB308013F0BB
:104E2000ABF807B0BDE8F08F70B503460024002052
:104E300010E00E5C451C4D5D46EA0526851C4D5D67
:104E400046EA0546C51C4D5D46EA056543F8245013
:104E5000641C001D9042ECD370BD00002DE9FF4F93
:104E600087B005460E46149C002E03DC00200BB0D4
:104E7000BDE8F08F002B02DA4FF0FF30F7E7059323
:104E8000DFF858B309985BF82000DFF854B30BEB58
:104E900040000190DFF84CB309985BF830C00998E6
:104EA0000BEBC0000079029000221598404200F000
:104EB000070129B114F8010BC1F1200B00FA0BF224
:104EC0005B1A029898B9002006900BE04FF0000B97
:104ED000069845F820B00698401C45F820B0069882
:104EE000801C06900698B042F0DB0020BFE70298D5
:104EF000012879D10198007800F00F000490019802
:104F0000801C01904FF0000A65E0102B10DB14F8B4
:104F1000010BC1F1180B00FA0BF0024314F8010B5E
:104F2000C1F1100B00FA0BF002431031103B22E0EC
:104F3000C818002802DC4FF0FF3098E7002B06DD90
:104F400014F8010BC1F1180B00FA0BF00243082B07
:104F500006DD14F8010BC1F1100B00FA0BF002434F
:104F600019440023481E4FF0004B4BFA00F002405A
:104F70004FF00B0A51442AE00498C0F1200022FAB5
:104F800000F0DDF804B03BF810804FEA183EA1EBCA
:104F90000E0102FA0EF2C8F30319B9F1000F05D0A1
:104FA00002F0004040EA09095200491EC8F30327F5
:104FB00027B102F0004007435200491E514502DA72
:104FC0004FF0FF3053E745F8049B80C5B61E002E16
:104FD00001DD0B29D0DA002E97DCA1EB0A00034497
:104FE0000598C01A43E7FFE70298032802D0029809
:104FF000022876D1019800904FF0000AE2E0102BD1
:1050000010DB14F8010BC1F1180B00FA0BF002438E
:1050100014F8010BC1F1100B00FA0BF00243103130
:10502000103B22E0C818002802DC4FF0FF301EE7DA
:10503000002B06DD14F8010BC1F1180B00FA0BF080
:105040000243082B06DD14F8010BC1F1100B00FA26
:105050000BF0024319440023481E4FF0004B4BFA5B
:1050600000F002404FF00B0A5144A6E0009800788F
:1050700000F00F0004900498C0F1200B22FA0BF00E
:10508000401CDDF800B03BF810804FEA183EBEF13E
:10509000000F08D10498091A04988240009800EB88
:1050A0004800009089E0A1EB0E0102FA0EF2C8F36D
:1050B0000319C8F30327B9F10F0F33D1029803285E
:1050C00030D10FB1012000E000200CF1010B584459
:1050D000039001EB030B0398834503DA4FF0FF3095
:1050E000C5E678E008E014F8010BC1F1180B00FAEE
:1050F0000BF002430831083B03988142F3DB002B9D
:1051000007DA19440023481E4FF0004B4BFA00F019
:105110000240CCF1200022FA00F08144A1EB0C0106
:1051200002FA0CF2B9F1000F05D002F0004040EA9B
:1051300009095200491E0F2F2DD1029803282AD1A8
:105140000CF10100039001EB030B0398834502DA95
:105150004FF0FF308BE608E014F8010BC1F1180B9B
:1051600000FA0BF002430831083B03988142F3DB5D
:10517000002B07DA19440023481E4FF0004B4BFA6E
:1051800000F00240CCF1200022FA00F00744A1EB2D
:105190000C0102FA0CF227B102F000400743520062
:1051A000491E514502DA4FF0FF3060E645F8049B96
:1051B00080C5B61E0198009000BF002E02DD0B29AD
:1051C000BFF654AF002E3FF71AAFA1EB0A0003441D
:1051D0000598C01A4BE64FF0FF3048E628E0020879
:1051E00004BF0208A8E002082DE9FF4F83B005467E
:1051F000109C002B03DC002007B0BDE8F08FDFF827
:1052000058E105985EF82000DFF850E17044009006
:10521000DFF84CE105985EF820000290002211981A
:10522000404200F0070129B114F8010BC1F1200E32
:1052300000FA0EF25B1A0027019785E0102B10DBB5
:1052400014F8010BC1F1180E00FA0EF0024314F825
:10525000010BC1F1100E00FA0EF002431031103BA9
:1052600022E0C818002801DC3846C5E7002B06DD1F
:1052700014F8010BC1F1180E00FA0EF00243082BCE
:1052800006DD14F8010BC1F1100E00FA0EF0024316
:1052900019440023481E4FF0004E4EFA00F0024021
:1052A0000A2001900198014448E00298C0F12000D2
:1052B00022FA00F0DDF800E01EF800604FEA161B4D
:1052C000A1EB0B0102FA0BF2C6F3C00CBCF1000F0C
:1052D00005D002F0004040EA0C0C5200491EC6F313
:1052E0008008B8F1000F05D002F0004040EA08083D
:1052F0005200491EC6F34009B9F1000F05D002F073
:10530000004040EA09095200491E06F0010ABAF1BC
:10531000000F05D002F0004040EA0A0A5200491E80
:105320000198814201DA384666E745F804CB45F832
:10533000048B45F8049B45F804AB3F1D0498C01E40
:10534000B84201DD0A29B0DA0498C01EB8423FF71E
:1053500075AF384650E70000F8E10208A8E10208FE
:1053600000E202080FB5F5B000201E900C900B90E3
:105370000A907598D0F808020890789914F0F8FD12
:10538000099012F0F9FD15F067F90021099815F060
:10539000BFF8E8B30821759801F040FA779B769A38
:1053A0007A997B98CDE90223CDE904107599099883
:1053B000D1F8EC11CDE900107598D0F800020890F2
:1053C0007598D0F8F40107907598D0F80802069007
:1053D000759901F5CE71DDE907230DF06DFA759829
:1053E000D0F8F40114300A220890759901F5C471BF
:1053F00004F05CFD7598D0F8F401143008907598AD
:10540000D0F8F0010790089911F03CFF01F02FB996
:10541000FFE715F021F915F01FF915F01DF903212B
:10542000789815F075F848B10721789815F070F85C
:1054300020B10221789815F06BF820BB01200B9069
:1054400012F09AFD15F008F915F006F90721789881
:1054500015F05EF820B10221789815F059F8D8B906
:10546000FE49769851F82000FD490890769831F968
:10547000100007900146759800F5F470779B089A24
:105480000BF0B4F908E00121789815F041F818B94B
:1054900001200A9012F070FD15F0DEF80B9850B163
:1054A0007598B0F9B801012108900AF00AFB7599C6
:1054B000A1F8B80114E07598B0F9B8010621089078
:1054C00015F026F830B905217598A0F8B81112F03A
:1054D00053FD05E000217598A0F8B81112F04CFDBD
:1054E00015F0BAF87598B0F9B8010621089015F0D2
:1054F0000FF8002805DD06217598A0F8B81112F004
:105500003BFD15F0A9F87598D0F8080290F89601BF
:105510000121089014F0FCFF60B905217598A0F8EE
:10552000B81112F029FD00217598A0F8B41112F0FD
:1055300023FD1BE015F090F87598D0F8080290F85C
:1055400096010221089014F0E3FF08B9012000E061
:10555000002058B105217598A0F8B81112F00CFD83
:1055600001217598A0F8B41112F006FD7598D0F8D5
:10557000F40114300A2265A90890FEF7B8FB15F073
:105580006BF80721769814F0C3FFC8B16FA800909C
:105590007598D0F8F4010890779B0B9A7699FEF7EE
:1055A0007FFD11F053F87798801D779012F0E4FC9E
:1055B0006FA9759800F5C4707B9A03F015FF19E088
:1055C0006FA800907598D0F8F4016AAB0890779AAC
:1055D0000B99FEF7F9FE11F039F877980A307790B9
:1055E00012F0CAFC6FAA6AA9759800F5C4707B9B7B
:1055F00003F0A3FE002023900FE06FA9239831F859
:105600001020759800F5C470239920F8112012F02D
:10561000B3FC2398401C00B2239023980A28ECDBAB
:1056200011F014F87B98749012F0A6FC00200C90F6
:1056300012F0A2FC4FF0FF300D9012F09DFC002004
:10564000229000F0D4BF01210D980AF03AFA0D9093
:1056500001200C9914F05CFF0C902298199012F024
:105660008BFC14F0F9FF5021229814F051FF88B9F7
:1056700014F0F2FF14F0F0FF0021769814F048FFC8
:1056800040B10121769814F043FF18B10020199021
:1056900012F072FC7798B0F900001F907798801C88
:1056A000779012F069FC14F0D7FF0721769814F078
:1056B0002FFF00287ED00020109012F05DFC14F027
:1056C000CBFF14F0C9FF14F0C7FF14F0C5FF002191
:1056D000769814F01DFF70B10121769814F018FF30
:1056E00048B10221769814F013FF20B10321769877
:1056F00014F00EFF18B90120109012F03DFC0520A7
:10570000159012F039FC0920149012F035FC14F0B9
:10571000A3FF0521769814F0FBFE38B90A201590F6
:1057200012F02AFC1320149012F026FC7598B0F9A0
:10573000B2010890159914F0EBFE179014F08CFF4D
:105740001421179814F0E4FE002803DA14201790AF
:1057500012F012FC149917980AF0B3F9169014F08D
:105760007BFF8F21169814F0D3FE002808DD8F20D0
:10577000169012F001FC1499169814F0C9FE1790B7
:1057800020AA21AB7599B1F9B2111098CDE9013277
:1057900000910390199BDDE916211F98FFF7BAF9D4
:1057A000BDF984107598A0F8CC1112F0E5FB14F047
:1057B00053FF00E063E00B98E8B314F04DFF7598D9
:1057C000B0F9B2018F21089014F0A2FE002809DA86
:1057D0007598B0F9B201012108900AF072F9759933
:1057E000A1F8B2017598B0F8B201219012F0C4FB93
:1057F0000020209012F0C0FB14F02EFF14F02CFFBC
:1058000014F02AFF14F028FF14F026FF7598B0F862
:10581000CE0180B17598B0F9D0010421089014F040
:1058200077FE002816DD0021769814F071FE58B13D
:105830000121769800E00DE014F06AFE20B102210B
:10584000769814F065FE28B97598B0F8CC012190CF
:1058500012F092FB10F0FAFE012003E0CC4E002083
:105860002660020800907598D0F8840128230890DB
:10587000BDF98020BDF9841005F0F2FD39E020A8C3
:1058800021A9CDE900108F221221199B1F98FFF743
:105890002BFA14F0E1FE14F0DFFE14F0DDFE0B989D
:1058A00038B91998B0B13D211F9814F031FE002885
:1058B00010DBBDF984107598A0F8CC1112F05CFBD8
:1058C0007598B0F8B201219012F056FB002020909C
:1058D00012F052FB10F0BAFE002000907598D0F83C
:1058E000840128230890BDF98020BDF9841005F0BB
:1058F000B7FD10F0ABFE14F0AFFE14F0ADFE0021CA
:10590000769814F005FE20B10121769814F000FE7F
:1059100020BB7798B0F900001F907798801C779093
:1059200012F02AFB7798B0F9000023907798801C3A
:10593000779012F021FB10F089FE4CAB1F9A23994F
:105940000D980BF09DFE10F081FE7598B0F9B00136
:105950000121089014F014FD1A90EFE002217698CE
:1059600014F0D6FD28BB14F077FE7798B0F900004C
:105970001F907798801C779012F0FEFA7798B0F914
:10598000000023907798801C779012F0F5FA10F0C1
:105990005DFE4CAA1F9923980BF0D6FD10F056FE21
:1059A0007598B0F9B0010121089014F0E9FC1A9043
:1059B000C4E00321769814F0ABFD38BB14F04CFE24
:1059C00014F04AFE7798B0F900001F907798801C79
:1059D000779012F0D1FA7798B0F900002390779879
:1059E000801C779012F0C8FA10F030FE4CAA1F9974
:1059F00023980BF0DDFE10F029FE7598B0F9B00188
:105A00000121089014F0BCFC1A9097E005217698CB
:105A100014F07EFD002829DC14F01EFE14F01CFE9C
:105A200014F01AFE7798B0F900001F907798801C48
:105A3000779012F0A1FA7798B0F900002390779848
:105A4000801C779012F098FA10F000FE4CAA1F9973
:105A500023980BF051FF10F0F9FD7598B0F9B001E3
:105A60000121089014F08CFC1A9067E006217698CA
:105A700014F04EFDD8B914F0EFFD14F0EDFD14F064
:105A8000EBFD10F0E3FD4CA977980BF0E9FC77985B
:105A90000E30779012F070FA10F0D8FD7598B0F9CA
:105AA000B0010121089014F06BFC1A9046E014F04C
:105AB000D3FD14F0D1FD14F0CFFD7798B0F90000BC
:105AC0001F907798801C779012F056FA14F0C4FD5E
:105AD0000B9860B17598B0F9B80108907598D0F836
