:020000040800F2
:1000000040B90120A10300088D640008E1550008F3
:10001000DD6300084D1F00081F9700080000000066
:10002000000000000000000000000000D1020008F5
:1000300025380008000000002503000841A501083C
:10004000BB030008BB030008BB0300089D6C00084D
:10005000BB030008BB03000859380008BB030008B5
:10006000BB0300087938000899380008BB03000872
:10007000BB030008BB03000881320008BD32000842
:10008000BB030008BB0300086D1E0008BB0300088B
:1000900029200008BB030008BB030008BB030008BD
:1000A000BB030008BB030008BB030008BB03000838
:1000B000BB030008BB030008BB030008BB03000828
:1000C000BB030008BB030008BB030008BB03000818
:1000D000BB03000825930008BB03000885930008B4
:1000E000BB03000859690008BB030008BB030008F4
:1000F000BB030008BB030008BB030008BB030008E8
:10010000BB030008DD700008BB030008BB03000848
:10011000C9920008BB030008BB030008BB0300082A
:10012000F1320008BB030008BB030008BB03000852
:10013000BB030008BB030008BB030008BB030008A7
:10014000BB03000819220008BB030008BB0300081A
:10015000BB0300081933000855330008D193000889
:10016000BB030008BB030008BB030008BB03000877
:10017000BB030008BB030008BB030008BB03000867
:10018000BB030008BB03000800F002F800F089F888
:100190000AA090E8000C82448344AAF10107DA45E2
:1001A00001D100F07EF8AFF2090EBAE80F0013F0AB
:1001B000010F18BFFB1A43F00103184728D60100AE
:1001C00048D601000A444FF0000C10F8013B13F030
:1001D000070408BF10F8014B1D1108BF10F8015BA0
:1001E000641E05D010F8016B641E01F8016BF9D193
:1001F00013F0080F1EBF10F8014BAD1C0C1B09D1EA
:100200006D1E58BF01F801CBFAD505E014F8016B5B
:1002100001F8016B6D1EF9D59142D6D370470000ED
:100220000023002400250026103A28BF78C1FBD8FF
:10023000520728BF30C148BF0B607047702900F0DB
:100240001B8266291BF0878403681B0A28BF41F0C4
:100250008001642900F06681752900F063817829A6
:1002600000F0FD81E42900F09781632901F05180BD
:10027000732901F05680002070471FB51BF061FC08
:1002800001F0E0F80400002000211AF055FF401CA6
:100290006060002000211AF065FFE0601FBD10B50E
:1002A00010BD01F0D3F91146FFF7E7FF11F010F987
:1002B00001F0FFF903B4FFF7F2FF03BC09F0BEFC45
:1002C00030BF72B6704762B6704780F308887047D7
:1002D0002A4B19680868B0E8F04F80F30988BFF32B
:1002E0006F8F4FF0000080F311887047000000000E
:1002F00006480068006880F3088862B661B6BFF3FC
:100300004F8FBFF36F8F00DF00BF00BF08ED00E02D
:10031000DFF80C00016841F470010160704700BF14
:1003200088ED00E0EFF30980BFF36F8F134B1A687D
:100330001EF0100F08BF20ED108A20E9F04F10606A
:1003400008B44FF0BF0080F31188BFF34F8FBFF3A5
:100350006F8F1AF05BF84FF0000080F3118808BC33
:1003600019680868B0E8F04F1EF0100F08BFB0EC35
:10037000108A80F30988BFF36F8F7047E40500206F
:10038000EFF30580704700004FF0010080F3138801
:10039000014802490160FEE70CED00E00400FA05A7
:1003A0000948804709480047FEE7FEE7FEE7FEE709
:1003B000FEE7FEE7FEE7FEE7FEE7FEE70448054945
:1003C000034A054B7047000061920008890100084C
:1003D00040B5012040B9012040B5012010B54C10B6
:1003E00084EA530404D54042C1F1000138BF491EDC
:1003F0001B4204D55242C3F1000338BF5B1E00F01C
:1004000041FC14F0804F04D04042C1F1000138BFDC
:10041000491E14F0004F04D05242C3F1000338BF0C
:100420005B1E10BD10B5044600F020FC0068005DA6
:10043000000704D5DF2C02D0A4F1200010BD204617
:1004400010BD00000FB4044910B503AA029800F0D3
:100450006DFF10BC5DF814FB100000200FB41CB53C
:10046000074B06AA7B4469460090059800F02FFFD1
:100470000020694600F03EFF1CBC5DF814FB000044
:100480008D0E000070B5044685690068C10601D56F
:10049000302600E02026C00707D070BDD4E9012136
:1004A00030469047206A401C20626D1EF6D570BD14
:1004B00070B5044685690078C00707D170BDD4E9DE
:1004C000012120209047206A401C20626D1EF6D535
:1004D00070BD70B50C460546012A05D02878800607
:1004E00000D5EA69002302E0012305E05B1C93428A
:1004F00002D2E05C0028F9D1A869E618C01AA86108
:10050000286A184428622846FFF7BCFF04E0D5E9B2
:10051000012114F8010B9047B442F8D32846FFF7A5
:10052000C7FF70BD2DE9F04106460024106875290B
:10053000314615A510D0AFF30080002802DA404202
:1005400012A507E031688A0701D511A502E0490725
:1005500004D510A5012401E0AFF3008000210A2397
:1005600006F1240707E0B0FBF3F203FB1200303082
:1005700078541046491C0028F5D123462A463046B7
:10058000BDE8F04100F03ABC000000002D00000082
:100590002B000000200000002DE9F0418046D21D14
:1005A00022F007020025D2E90002F52914A612D094
:1005B000002A06DA0023D0EB030063EB020211A647
:1005C00008E0D8F800108B0701D50FA602E0490714
:1005D00001D50EA601251146002408F1240704E0E8
:1005E00000F0C7FB30323A55641C50EA0102F7D1E3
:1005F0002B46324621464046BDE8F04100F0FEBBA6
:10060000000000002D0000002B0000002000000072
:10061000F0B40D460188090502D51B4C7C4402E06C
:10062000194C7C440E34002100F1240305E002F053
:100630000F061209A65D5E54491C002AF7D1027804
:100640000023120704D5702D06D009B102231134FE
:100650002246F0BC00F0D2BB01231034F8E770B59D
:1006600004460D4621461068AFF300800246294635
:100670002046BDE87040CBE70368126843F02003D2
:1006800003600823C361C3E7A0C501002DE9F05F43
:10069000894604464FF0000ADFF874B1FB44C0F805
:1006A00020A02046E1688847002874D0252806D07D
:1006B000D4E901219047206A401C2062F1E700261E
:1006C0005F462046E16888472028054607DB312D34
:1006D00005D2781910F8200C08B10643F1E7B007ED
:1006E00001D526F00406C4F81CA00027C4F818A001
:1006F0002A2D09D0284609F09AFA38B304EB870866
:10070000303DC8F8185019E059F8041B204604EB96
:1007100087029161E1688847012F054618D1E06999
:10072000002820DA26F020061DE0D8F8180000EB9B
:10073000800005EB40003038C8F818002046E1681A
:100740008847054609F073FA0028EED1012F0AD038
:100750002E2D08D12046E16888477F1C0546022FD0
:1007600046F02006C4DBA069002803DA404246F0C8
:100770000106A061F00701D026F010066C2D0BD009
:10078000682D09D04C2D39D06A2D35D0742D35D037
:100790007A2D33D016E038E0E1682F4620468847AE
:1007A000B842054609D16C2F26D04FF48060E1682D
:1007B000064320468847054604E06C2F1AD04FF4C4
:1007C000807006430DB3A5F14100192802D82035E9
:1007D00046F400664A462946204626604E46FFF704
:1007E0002DFD80B101280BD0F61D26F0070000F189
:1007F000080956E74020E4E78020D8E70020D6E744
:1008000006F104094DE7284652E7206ABDE8F09F4B
:1008100048C5010070B5064600F030FA0468054688
:1008200030460A22002100F093FD2C6070BD40EAA2
:10083000010310B59B070FD1042A0DD310C808C9B6
:10084000121F9C42F8D020BA19BA884201D901205F
:1008500010BD4FF0FF3010BD1AB1D30703D0521CAA
:1008600007E0002010BD10F8013B11F8014B1B1BE5
:1008700007D110F8013B11F8014B1B1B01D1921E4F
:10088000F1D1184610BD40EA0103024630B59B077E
:1008900010D14FF0013400E008C208C91D1B9D4370
:1008A00015EAC41FF8D013F0FF0102F8011B0DD0A8
:1008B0001B0AF8E711F8013B002B02F8013B05D0B9
:1008C00011F8013B002B02F8013BF3D130BD10B50C
:1008D000431C02E010F8011B71B18107FAD14FF0FF
:1008E000013202C88C1A8C4314EAC211F9D0C01A22
:1008F0000A0603D0C01E10BDC01A10BD0A0401D0E4
:10090000801E10BD0902FCD0401E10BDCBB22AB122
:1009100001788B4203D0401C521EF9D10020704751
:1009200040EA010370B59B072ED14FF00136042A2F
:100930002AD308C810C99D1B9D43121F15EAC6156E
:1009400017D0D8B2E1B2401A50EA056110D198B27E
:10095000A1B2401A50EA05410AD123F07F4024F0A9
:100960007F41401A50EA052102D1180EA0EB146015
:1009700070BDA342DBD018BA21BA884201D9012048
:1009800070BD4FF0FF3070BD0AB9002070BD10F887
:10099000013B11F8014B63B1A3420AD1521E08D0AA
:1009A00010F8013B11F8014B1BB1A34201D1521EBB
:1009B000EDD1181B70BD421E12F8013F002BFBD178
:1009C00011F8013B002B02F8013BF9D17047032AD3
:1009D00040F2308010F0030C00F0158011F8013B5C
:1009E000BCF1020F624498BF11F801CB00F8013B43
:1009F00038BF11F8013BA2F1040298BF00F801CB07
:100A000038BF00F8013B11F0030300F06780083A9B
:100A1000C0F0088051F8043B083A51F804CBA0E834
:100A20000810F5E7121D5CBF51F8043B40F8043B89
:100A3000AFF30080D20724BF11F8013B11F801CBBE
:100A400048BF11F8012B24BF00F8013B00F801CB8F
:100A500048BF00F8012B7047431A28BF9A427FF61F
:100A6000B6AF032A1044114440F2268010F0030F61
:100A70001EBF11F8013D521E00F8013D10F0030F9A
:100A80007FF4F6AF11F0030300F0AD84083AC0F034
:100A90000B8051F8043D083A51F804CD40F8043D6C
:100AA00040F804CDFFF7F3BF121D5CBF51F8043DC1
:100AB00040F8043DAFF30080D20724BF11F8013D98
:100AC00011F801CD48BF11F8012C24BF00F8013DF9
:100AD00000F801CD48BF00F8012C704710B5203A4E
:100AE000C0F00B80B1E81850203AA0E81850B1E8E7
:100AF0001850A0E81850BFF4F5AF5FEA027C24BF9D
:100B0000B1E81850A0E8185044BF18C918C0BDE893
:100B100010405FEA827C24BF51F8043B40F8043B5C
:100B200008BF7047D20728BF31F8023B48BF11F811
:100B3000012B28BF20F8023B48BF00F8012B70476B
:100B400002F0FF0343EA032242EA024200F002B845
:100B50004FF000020429C0F0128010F0030C00F0E6
:100B60001B80CCF1040CBCF1020F18BF00F8012B64
:100B7000A8BF20F8022BA1EB0C0100F00DB85FEA32
:100B8000C17C24BF00F8012B00F8012B48BF00F8FE
:100B9000012B70474FF0000200B51346944696466D
:100BA000203922BFA0E80C50A0E80C50B1F1200180
:100BB000BFF4F7AF090728BFA0E80C5048BF0CC02E
:100BC0005DF804EB890028BF40F8042B08BF70478C
:100BD00048BF20F8022B11F0804F18BF00F8012BFE
:100BE000704700004FF0013C50F8042B51F8043BD3
:100BF0009A4221D1A2EB0C03934313EACC1317D1F1
:100C000050F8042B51F8043B9A4215D1A2EB0C0387
:100C1000934313EACC130BD150F8042B51F8043B47
:100C20009A4209D1A2EB0C03934313EACC13DBD015
:100C30004FF00000704700BFD01A01BAB1FA81F13D
:100C400001F0180122FA01F0CB40C1F12001DBB222
:100C5000C0B2C01A2CFA01F3D11A914311EAC311A0
:100C6000E6D17047704770477047000010B500F03C
:100C7000E9FB001D10BD00BFC1A401000048704782
:100C8000DCB4012053EA020C00F069802DE9F04B3E
:100C90004FF00006002B1FBFB3FA83F503FA05F4EB
:100CA00024FA05F65E4012BF1643B2FA82F502FA44
:100CB00005F4C5F120051EBF22FA05FC44EA0C0428
:100CC000203556EA044C4FEA144418BF641C4FF018
:100CD00000084FF00009904271EB030C39D3002952
:100CE00019BFB1FA81F701FA07F6B0FA80F700FAF6
:100CF00007F6C7F120071EBF20FA07FC46EA0C06DC
:100D00002037B6FBF4FCA7EB0507103F07F01F0BDD
:100D1000CBF120060CFA0BFB2CFA06F644BFB346C7
:100D20000026202FA4BF5E464FF0000B5BEA060CA6
:100D300008BF4FF0010B19EB0B09ABFB027C48EB32
:100D40000608C01B06FB02CC0BFB03CC71EB0C01AD
:100D5000C1E70B46024641464846BDE8F08B13B555
:100D60004FF000004FF00001AFF30080BDE81C40E1
:100D7000704730B5B0F10A024FEA900E71F10003EE
:100D80004EEA817EB0EB0E0061EB91014FEA101E3E
:100D90004EEA017E10EB0E0041EB11114FEA102ECE
:100DA0004EEA016E10EB0E0041EB11214FEA104E9E
:100DB0004EEA014E10EB0E0041EB1141401841F19B
:100DC00000014FEAD00040EA41704FEAD10110EB38
:100DD00080054FEA810444EA907444EB01046D19E4
:100DE00044EB0404521BA3414FF0000348BF0A32F6
:100DF00000D530BD401C41F1000130BD2DE9F04768
:100E00000D4699469246044600F12408016888067A
:100E100004D5E06921F01001216000E00120A84222
:100E200001DD471B00E00027A1697A1902EB0900E8
:100E3000081AA0612078C00602D42046FFF722FBE2
:100E4000002608E0D4E901211AF806009047206A3C
:100E5000401C761C20624E45F4DB2078C0060AD583
:100E60002046FFF70FFB06E0D4E901213020904730
:100E7000206A401C2062381EA7F10107F4DC07E05D
:100E8000D4E9012118F805009047206A401C20622F
:100E9000281EA5F10105F3DC2046FFF709FB2078A9
:100EA000000602D50220BDE8F0870120FBE770476D
:100EB0002DE9FF4F0C461E464FF0FF378BB0D2E9AD
:100EC0000001DDF860800A908A46C1F30A5505B931
:100ED0003D46002108464FF00000BAF1000F00F433
:100EE000400005DA00EB80004FF4400101EA5000B9
:100EF0004FEA9059B9F1010F00DDB9460A9850EA5E
:100F00004A000ED044F61050A5F2FF3545432F1489
:100F1000B8F1000F1ED07542291E1EDDC9F1000276
:100F20001CE0B8F1010F4FF0000001D0302103E0C8
:100F3000F24305E02154401CB042FBDB3046002266
:100F4000002121540B99C1F80880C1E900200FB09D
:100F5000BDE8F08FBD1B6D1CDEE74A4600DA694232
:100F600006A800F003FB06AB93E8070003AB83E899
:100F7000070050460A9900F0A2FB8DE80700A0F593
:100F800000501F3800900398002D09DD42F21F0128
:100F90004A46084403A90390684600F001FE08E0B1
:100FA000A0F500504A461F3803A90390684600F098
:100FB0000BFE8DE807000004000C03D04FF0FF305B
:100FC000410800E01046B8F1000F03D00022009263
:100FD00015461EE0751E05D4FFF7CBFE3032625574
:100FE0006D1EF9D5B3460122084302D000227F1CB2
:100FF00004E02078302801D100227F1E002A0997C2
:1010000086D01DE0112D07DAFFF7B3FE30326255AE
:101010006D1C50EA0102F5D1084302D00098C8B116
:101020000EE00021681E05E0235C625C63542254DC
:10103000401E491C8142F7DBAB46A81B401E0990AD
:10104000002004F80B000B98099AC0F80880C0E94A
:10105000002B7CE711264FF0000859E72DE9F04FEF
:1010600088460446D21D22F0070191B0D1E9000163
:10107000CDE90A0108F044FD02460B98C00F01D0EB
:101080002D2007E02068810701D52B2002E02021D8
:1010900001EAC000032A099001D0072A05DB0346B4
:1010A0004146204600F0D2F909E12078800601D5BA
:1010B000E06900E00620B8F1650F814606D0B8F17E
:1010C000660F18D0B8F1670F70D131E00020B9F188
:1010D000110F009001DB112301E009F101030AAABD
:1010E00001A90CA8FFF7E4FEDDE90C70002609F168
:1010F0000105834647E001204B4600904FF0004732
:101100000AAA01A90CA8FFF7D3FEDDE90DB00C99DE
:101110005D46002610B909F101000D18B9EB050074
:1011200003D4C0F1FF3609F10105A5EB09002BE05E
:10113000B9F1010F01DA4FF001090020B9F1110FE7
:101140000090484601DD112300E003460AAA01A9E8
:101150000CA8FFF7ADFEDDE90C704D460026834676
:10116000207800070AD4AB4500DA5D4601A8012DBE
:1011700004DD411911F8011C302907D04F4502DA6E
:1011800017F1040F04DA012082460FE06D1EEEE72E
:10119000002F02DCED1B3E4403E0781CA84200DD7A
:1011A0007D1CB81B00F1010A4FF0004720780007B2
:1011B00003D4AA4501DB4FF0FF3A0021B7F1004FFD
:1011C0000DF143088DF8431022D002202B23002F6D
:1011D00001DA7F422D234FF00A0C011EA0F101001D
:1011E00000DC47B197FBFCF10CFB11720F4630326B
:1011F00008F8012DF1E7A8F1010003702188090525
:1012000001D5452100E06521A0F1010800F8011C8D
:1012100009980FA9A1EB0807FF1D00B10120411992
:1012200001EBEA70A1693844081A401EA0612078D9
:10123000C00602D42046FFF725F9099828B1D4E961
:1012400001219047206A401C20622078C00622D5E8
:101250002046FFF717F91EE0002E04DBB34502DD40
:1012600001A8805D00E03020D4E901219047206A88
:10127000401C2062761CAAF101005FEA000A0AD134
:1012800000F0E0F8C0680168405CD4E901219047B3
:10129000206A401C2062281EA5F10105DCDC07E065
:1012A000D4E9012118F8010B9047206A401C206204
:1012B000381EA7F10107F3DC2046FFF7F9F80220FA
:1012C00011B045E601694A1C02610878704700B513
:1012D0008FB0CDE901310021059105497944CDE96F
:1012E000031011466846FFF7D1F90FB000BD0000AA
:1012F000E5FFFFFF0A6802F8010B0A60704710B5AE
:10130000436913B1AFF3008001E0FFF7E2F8012079
:1013100010BD127800F124010A7000224A700122E7
:10132000EDE711684FF0FF32E9E70000074B70B5B9
:101330000D467B44FFF7CBFF0446284600F082F9B8
:1013400010B14FF0FF3070BD204670BDFBEF0000C4
:101350002DE9F04791460F4680460446002614F8D2
:10136000015B2DB1FFF782FC0068405DC007F6D13C
:101370002B2D02D02D2D18D0641E4A46394620460A
:1013800000F0A4F827B13968A14201D1C7F8008064
:101390004FF0020471050BD54042002803DDFFF732
:1013A0006DFC0460A007BDE8F08746F48066E4E7C2
:1013B0000028F8DAFFF762FC04606FF00040F2E703
:1013C000431A28BF9A427FF689AB104410F0030FEE
:1013D00011441EBF11F8013D521E00F8013D10F0EE
:1013E000030F7FF4F6AF103AC0F00A8010B531E970
:1013F0001850103A20E91850BFF4F9AFBDE810407A
:10140000530724BF31E9081020E9081044BF51F800
:10141000043D40F8043D12F0030F08BF7047D207A7
:1014200028BF31F8023D48BF11F8012C28BF20F831
:10143000023D48BF00F8012C70470000004870478B
:10144000DCB4012000487047FCB401202DE9F041D4
:101450001F46044603260168072A01F4006004DBE6
:1014600008B116A505E016A503E008B115A500E032
:1014700015A521F010002060A069C01EA0610FB169
:10148000401EA0612046FEF7FDFF4FB1D4E90121C7
:1014900038469047206A401C2062C01C206206E04B
:1014A000206AFAE7D4E9012115F8010B9047761E6E
:1014B000F8D22046FEF7FCFFBDE8F0814E414E0019
:1014C0006E616E00494E4600696E66002DE9F05F60
:1014D000824615468B4600270AF10104B94600787A
:1014E000302801D09DB113E014F8010B01277828B2
:1014F00003D0582801D045B10AE00DB1102D07D115
:10150000002714F8010B102502E0082500E00A2549
:101510000026B0460EE005FB080005FB06F101279A
:101520001FFA80F801EB1046B6F5803F00D3B946AC
:1015300014F8010B294600F0AEF80028EBDABBF1F5
:10154000000F05D00FB1641E00E05446CBF80040F8
:10155000B9F1000F06D0FFF791FB02210160C81E10
:10156000BDE8F09F48EA0640FAE700002DE9F047A1
:10157000814616468AB0324878440DC88DE80D0081
:101580002F487844801C03AC0DC884E80D0041F658
:101590009B303722014491FBF2F0A0F1800502FB61
:1015A00010141B3C02D56442012000E00020DFF84B
:1015B00090A080460027FA44AAF1BA0A0DE0E0079D
:1015C00009D03246684607EB47010AEB810100F07B
:1015D000FBFA8DE8070064107F1C002CEFD1184F38
:1015E0007F44A83F18E0E80714D007EB04100DF182
:1015F000180A90E80E008AE80E00C068F04201D197
:1016000098190890324606A903A800F0DDFA03AB4A
:1016100083E807006D10641C002DE4D13246694652
:10162000B8F1000F03A802D000F0BAFA01E000F010
:10163000CBFAC9E90001C9F808200AB0BDE8F08773
:10164000FCB60100007B00F0800070477546FFF794
:10165000F5FEAE4605006946534620F00700854674
:1016600018B020B5FEF7AAFEBDE820404FF00006F6
:101670004FF000074FF000084FF0000B21F007017A
:10168000AC46ACE8C009ACE8C009ACE8C009ACE8BD
:10169000C0098D4670473A2800D2303820F0200229
:1016A000412A01D3A2F13700884201D34FF0FF3025
:1016B00070470446AFF300802046FEF7FBFD5FEA6B
:1016C000400C08BF91F0000F4FEA8C234FEAC12273
:1016D00043EA51514FEA1C5018BF00F5F0404FEA61
:1016E000300018BF41F000415FEA6C5C00F02980D7
:1016F000BCF1FF3F08BF40F080407047130C06BFAD
:1017000012044FF0100C4FF0000C130E04BF120225
:101710000CF1080C130F04BF12010CF1040C930F11
:1017200004BF92000CF1020CD30F04BF52000CF165
:10173000010C11464FF00002A0F11F00A0EB0C00BD
:10174000704711F0004F08BF704731F000413FF47F
:10175000D5AF0B0C06BF09044FF0100C4FF0000C76
:101760000B0E04BF09020CF1080C0B0F04BF09019A
:101770000CF1040C8B0F04BF89000CF1020CCB0F91
:1017800004BF49000CF1010CCCF12003A0EB0C00CC
:1017900022FA03F302FA0CF241EA030100F101001C
:1017A000704720F07F4C80EA030023F07F47ACEBCA
:1017B000070303F57C5300F0004003F1FF032DE91C
:1017C00080494FEA154B09B44FEA144325EA0B4E02
:1017D00024EA03480FF2042606EB132749083E7853
:1017E0005FEA320203FB0667C7F5000707FB06F650
:1017F0004FEA54374FEAD64606F1020607FB066C5D
:10180000CCF1005C4FEA1C472CEA074C07FB06F4BE
:101810000CFB06F504EB15464FEA961634BF002084
:101820004FF000404FEAD13706FB07FC4FEA1C4C53
:101830000CFB0BF7D21B03FB0CF761EB07010CFB56
:101840000EF7B0EB074072EB17420CFB08F734BF02
:10185000A2EB0742B2EB074261EB17414FEA0C449F
:101860004FEA910706FB07FC4FEA1C4C0CFB0BF7F9
:10187000B0EBC74072EB573203FB0CF734BFA2EB5F
:10188000C742B2EBC74261EB57310CFB0EF7B0EB2E
:10189000C70072EB57720CFB08F734BFA2EBC7020C
:1018A000B2EBC70261EB5771039F4FEA816141EAD6
:1018B000921104EBCC044FEAD1374FEA826206FB67
:1018C00007FC42EA90124FEA80604FEA1C4C0CFB86
:1018D0000BF7D21B03FB0CF761EB07010CFB0EF7B8
:1018E000B0EB074072EB17420CFB08F734BFA2EBDA
:1018F0000742B2EB074261EB17414FEA8C554FEAC2
:10190000910704EB9C2406FB07FC4FEA1C4C0CFBE4
:101910000BF7B0EBC74072EB573203FB0CF734BF49
:10192000A2EBC742B2EBC74261EB57310CFB0EF79B
:10193000B0EBC70072EB57720CFB08F734BFA2EB99
:10194000C702B2EBC70261EB577115EB4C254FEAAA
:10195000816141EA92114FEA82624FEAD13742EA4D
:10196000901206FB07FC44F100044FEA80604FEA46
:101970001C4C0CFB0BF7D21B03FB0CF761EB0701B4
:101980000CFB0EF7B0EB074072EB17420CFB08F7AD
:1019900034BFA2EB0742B2EB074261EB174115EBF4
:1019A0001C154FEA813141EA92414FEA823242EA04
:1019B00090424FEA80304FEA0C7644F1000448EA46
:1019C00003434EEA0B484FF0000EB2EB080C71EBEC
:1019D000030724BF624639464EEB0E0E4FF0000B54
:1019E0000018524149414BEB0B0BB2EB080C71EB69
:1019F00003077BF1000B24BF624639464EEB0E0E07
:101A00004FF0000B0018524149414BEB0B0BB2EB6E
:101A1000080C71EB03077BF1000B24BF62463946CB
:101A20004EEB0E0E51EA020718BF46F0010616EB08
:101A30000E7655F1000254F1000103D5BDE889018D
:101A4000BDE80088BDE88901B619BDE800485241EB
:101A500041EB0101A3F10103704780807F7E7D7C13
:101A60007B7A7978777676757473727171706F6E30
:101A70006E6D6C6C6B6A6A696868676666656464DB
:101A8000636362616160605F5F5E5E5D5D5C5C5B65
:101A90005B5A5A59595858575756565555555454D4
:101AA000535352525251515050504F4F4F4E4E4D32
:101AB0004D4D4C4C4C4B4B4B4A4A4A49494948487E
:101AC00048474747474646464545454444444443BE
:101AD00043434342424242414141002B26D47700D6
:101AE00021D01CB54FEA370703B44FF010004FF078
:101AF00010014FF000000FBC0BF1010BBDE81040CE
:101B0000BBF1010F08BF5FEA170722BF12F1010204
:101B100011F101014FF0004143F1000300F00040DA
:101B200043EA00007047F9D35708DAE746EA064669
:101B300013F1400F4FEA16461FDD13F1200FDFBFF0
:101B400016430A46002120335B42C8D0C3F1200768
:101B500046EA064602FA07F74FEA164646EA07063D
:101B6000C3F1200722FA03F201FA07F721FA03F181
:101B70004FF0000342EA0702B1E746EA020646EAEE
:101B800006464FEA164646EA0106BCBF46EA064646
:101B9000360C4FF000034FF000024FF000019EE7BB
:101BA0002DE9C048934630B491E8380007C831EABF
:101BB000400C48BF34EA430C03D5FFF7F2FDFFF7B2
:101BC0008CFFF0BCBDE800882DE9C048934630B4D6
:101BD00091E8380007C810F0804F08BF13F0804F1D
:101BE00003D100F005F8FFF778FFF0BCBDE80088EE
:101BF00020F07F4780EA030023F07F4C07EB0C03C3
:101C0000A3F57C5300F00040A3F1FE0392F0000F17
:101C100000F0B38095F0000F00F077802DE90149C6
:101C20004FEA11404FEA144621EA004800FB06FC47
:101C300024EA064708FB06F607FB08F800FB07F74F
:101C400018EB06484CEB164C4FEA124B18EB0748C2
:101C50004FEA15464CEB174022EA0B4E0BFB06FCF5
:101C600025EA06470EFB06F607FB0EFE0BFB07F701
:101C70001EEB064E4CEB164C4FF000061EEB074ECB
:101C80004CEB174B18EB0B0840F1000018EB0E0B58
:101C900058EB000840F100008F1A4FF000013CBFE4
:101CA000C943661B14BFB5EB040C00213CBFC943FC
:101CB000F61B4FEA17444EEA8E0E27EA04454FEA18
:101CC0001C4704FB07622CEA074C05FB07F70CFBDB
:101CD00005F604FB0CFC16EB074642EB174216EB2D
:101CE0000C4642EB1C421BEB060658EB020241413C
:101CF00046EA9E0601D5BDE80189B619524141EB7D
:101D00000101A3F10103BDE801894FEA14454FEA3F
:101D1000114724EA054621EA074C05FB07F406FBB8
:101D200007F70CFB06F105FB0CFC11EB074144EB3C
:101D300017444FEA124711EB0C4144EB1C4422EAD2
:101D4000074C05FB07F206FB07F70CFB06F605FB45
:101D50000CFC16EB074642EB174216EB0C4642EB27
:101D60001C456A1854F1000148BF7047B61952412A
:101D700041EB0101A3F10103704795F0000F37D04B
:101D80004FEA11424FEA144721EA024624EA074C7F
:101D900002FB07F106FB07F70CFB06F402FB0CFC49
:101DA00014EB074441EB17414FEA154714EB0C4481
:101DB00041EB1C4125EA074C02FB07F506FB07F740
:101DC0000CFB06F602FB0CFC16EB074645EB174531
:101DD00016EB0C4645EB1C42121951F1000148BFAD
:101DE0007047B619524141EB0101A3F1010370475D
:101DF0004FEA14454FEA114724EA054621EA074C09
:101E000005FB07F106FB07F70CFB06F24FF0000697
:101E100005FB0CFC12EB074241EB174112EB0C42A5
:101E200051EB1C4148BF7047921841EB0101A3F1EF
:101E30000103704700220A12D34303607047014632
:101E4000C86C80B2704770B50246002000230024A1
:101E50000B12556801268E4005EA060415681D40E0
:101E600015B10CB1012000E0002070BD08B517F0DD
:101E700003FC40F205210C48FFF7E5FF01280FD1D4
:101E800040F205210848FFF7D5FF0748FFF7D7FFC5
:101E9000009000231A4669460448006818F012FDB5
:101EA00017F0FCFB08BD0000002001405409002091
:101EB0007FB5044600250020009001900290039019
:101EC00000E0641C20782028FBD021466846FEF7FD
:101ED000DAFC69460EA0FEF7B5FA00E06D1C1DF8AD
:101EE0000500302803DB1DF805003928F6DD1DF854
:101EF000050018B10CA0FEF7A5FA7FBD6846FEF7F5
:101F000089FC0646304608F065FA00BFF5E7000098
:101F10005365742073616D706C65726174652074B3
:101F20006F202573210D0A004572726F7220636F56
:101F30006D6D616E64212075736520616D727261D3
:101F40007465202B20726174650D0A0000BFFEE7E6
:101F50002DE9F04186B004460D4616461F46DDF8D1
:101F600030800121022004F0E1FB0121480604F049
:101F7000FDFB4FF44070049002208DF81400002007
:101F80008DF8160003208DF8150001208DF817003C
:101F900004A9224802F0E6FF092211461F4803F077
:101FA00029F8092208211D4803F024F81C4800F0F4
:101FB000ABF900208DF80A008DF80B008DF80C00AD
:101FC0008DF80D008DF80E008DF80F008DF806804D
:101FD0008DF807408DF808608DF80950ADF8047051
:101FE00001A90F4800F058FC0E4800F02DFA01221C
:101FF00002210B4800F047FC14208DF8000002205D
:102000008DF801008DF8020001208DF8030068466C
:1020100004F03EFA002006B0BDE8F0810004024062
:1020200000640040540A002010B586B0194C1A48CC
:102030000068401C1849086017F01EFB01AA002127
:10204000164800F0B3FC06E060690830606117F0E4
:1020500025FB06B010BD204614F0ACFB6168081AE1
:102060000C28F1D39DF80C0078B9042201A9204670
:1020700014F0A9FB08220DF10F01204614F0A3FB78
:1020800000210748006817F079FF17F007FB00BF31
:10209000DFE700002C0B00206C0A002000640040E9
:1020A000440000202DE9F04186B0074688461546D9
:1020B000002401971220029000208DF80C008DF86A
:1020C0000D008DF80E5000BF06E018F804100DF159
:1020D0000F000155601C84B2AC42F6DB01A90D482B
:1020E00000F0DCFC0646002401E0601C84B23146AE
:1020F000084800F067FD18B940F6FF708442F4DB31
:1021000040F6FF70844203DB012006B0BDE8F08199
:102110000020FAE7006400402DE9F04186B0044653
:102120000D4616461F46DDF830800121022004F0DE
:10213000FDFA01214FF0C06004F018FB602004900C
:1021400002208DF8140000208DF8160003208DF871
:10215000150001208DF8170004A9234802F002FFA2
:1021600009220521204802F045FF092206211E48C8
:1021700002F040FF1D4800F0C7F800208DF80A006B
:102180008DF80B008DF80C008DF80D008DF80E0009
:102190008DF80F008DF806808DF807408DF80860E7
:1021A0008DF80950ADF8047001A9104800F074FBD7
:1021B000012802D00EA0FEF745F9012210210B489C
:1021C00000F061FB41208DF8000002208DF8010035
:1021D00001208DF802008DF80300684604F058F9DC
:1021E000002006B0BDE8F081000402400068004015
:1021F0006572726F72202D3E20696E697420636172
:102200006E323A2043414E5F496E697420666169BF
:102210006C2E0D0A0000000010B586B0194C1A484B
:102220000068401C1849086017F026FA01AA01212D
:10223000164800F0BBFB06E060690830606117F0EB
:102240002DFA06B010BD204614F0B4FA6168081AE1
:102250000C28F1D39DF80C0078B9042201A920467E
:1022600014F0B1FA08220DF10F01204614F0ABFA78
:1022700000210748006817F081FE17F00FFA00BF31
:10228000DFE700002C0B0020740A002000680040EB
:10229000440000202DE9F04186B0074688461546E7
:1022A000002401971220029000208DF80C008DF878
:1022B0000D008DF80E5000BF06E018F804100DF167
:1022C0000F000155601C84B2AC42F6DB01A90D4839
:1022D00000F0E4FB0646002401E0601C84B23146B5
:1022E000084800F06FFC18B940F6FF708442F4DB38
:1022F00040F6FF70844203DB012006B0BDE8F081A8
:102300000020FAE70068004010B504460B488442FC
:1023100009D10121480604F039FA00214FF000707C
:1023200004F034FA08E00121880604F02FFA0021B5
:102330004FF0806004F02AFA10BD000000640040F5
:1023400010B50021837A012202FA03F13D4A126896
:1023500042F001023B4B1A603A4A1C3212688A432F
:10236000384B1C331A60027BCAB9364A0C321268E9
:102370008A43344B0C331A604288C38842EA0343D1
:10238000304A4032847A42F834300288838842EA04
:1023900003432C4A4032847A02EBC4025360027B2E
:1023A000012A19D1274A0C3212680A43254B0C33F3
:1023B0001A604288038842EA0343224A4032847A00
:1023C00042F83430C288838842EA03431D4A4032CF
:1023D000847A02EBC4025360C27A3AB9194A121DD8
:1023E00012688A43174B1B1D1A6006E0154A121D1E
:1023F00012680A43134B1B1D1A60028932B9114A35
:10240000143212688A430F4B14331A600289012A6E
:1024100006D10C4A143212680A430A4B14331A606C
:10242000427B012A06D1074A1C3212680A43054B37
:102430001C331A60034A126822F00102014B1A6031
:1024400010BD0000006600407FB505460026287CD0
:1024500000287DD1FE48006840F00100FC4908607A
:102460000846006820F47C5008600846006840F484
:1024700060600860F748F649143108602878382809
:1024800067DC28783828FBDC002400BFD2E0F04865
:10249000001D00680121A1400843ED49091D0860A5
:1024A000EB481C3000680121A1408843E8491C31F9
:1024B0000860E748403050F834000021E4484030DC
:1024C00040F8341068680088E34901EA4051E04868
:1024D000403040F83410701CC0B20646297888425B
:1024E00018D1DB48403050F83410686800884FF647
:1024F000FF7202EA40100143D548403040F83410E2
:10250000D3481C3000680121A1400843D0491C3148
:10251000086093E06868801C6860CD48403050F8DF
:102520003410686800884FF6FF7202EA40100143D9
:10253000C748403040F83410701CC0B206462978B5
:1025400088420CD1C2481C3000680121A14001E042
:102550005CE151E10843BE491C3108606EE06868E7
:10256000801C6860BA48403000EBC400406800211D
:10257000B748403000EBC400416068680088B64945
:1025800001EA4051B248403000EBC4004160701C89
:10259000C0B20646297888421AD1AD48403000EBD7
:1025A000C4004168686800884FF6FF7202EA401074
:1025B0000143A748403000EBC4004160A4481C30F0
:1025C00001680120A0400143A1481C30016035E0B2
:1025D0006868801C68609E48403000EBC400416819
:1025E000686800884FF6FF7202EA4010014398487D
:1025F000403000EBC4004160701CC0B20646297830
:10260000884209D192481C3001680120A040014352
:102610008F481C30016011E06868801C68608C483D
:102620001C3000680121A140084389491C31086021
:10263000601CC4B22878A0423FF729AF00BF0E2427
:102640000E26D3E08248001D00680121A140084306
:102650007F49091D08607E481C3000680121A140A7
:1026600088437B491C3108607948403050F8340079
:1026700000217748403040F83410E86800887649F7
:1026800001EA40517248403040F83410701CC1B229
:102690000E4628890E30814218D16D48403050F8DE
:1026A0003410E86800884FF6FF7202EA40100143D8
:1026B0006748403040F8341065481C3001680120FC
:1026C000A040014362481C30016094E0E868801C2F
:1026D000E8605F48403050F83410E86800884FF6F2
:1026E000FF7202EA401001435948403040F834106C
:1026F000701CC1B20E4628890E30814209D154485F
:102700001C3000680121A140084351491C31086078
:1027100071E0E868801CE8604D48403000EBC40080
:10272000406800214A48403000EBC4004160E8683E
:102730000088494901EA40514548403000EBC40057
:102740004160701CC1B20E4628890E3081421AD1F8
:102750003F48403000EBC4004168E86800884FF60D
:10276000FF7202EA401001433948403000EBC400D8
:10277000416037481C3000680121A14008433449BA
:102780001C31086037E0E868801CE8603048403061
:1027900000EBC4004168E86800884FF6FF7202EA67
:1027A000401001432A48403000EBC4004160701CD7
:1027B000C1B20E4628890E30814209D124481C300E
:1027C00000680121A140084321491C31086012E042
:1027D000E868801CE8601E481C3001680120A040A9
:1027E00001431B481C300160601CC4B228890E30B4
:1027F000A0423FF727AF02E0012004B070BD1448AB
:10280000006820F00100124908603AE000208DF8CD
:102810000A008DF80B0001208DF80C000020ADF8A7
:102820000000ADF80200ADF80400ADF80600ADF808
:10283000080001208DF80D006846FFF781FD10208B
:102840008DF80A0000208DF80B00012006E0000042
:102850000066004000C0FF0F0000FFFF8DF80C0075
:102860000020ADF80000ADF80200ADF80400ADF8AE
:1028700006000120ADF808008DF80D006846FFF74E
:102880005FFD0020B9E71AB143690B43436102E0E1
:1028900043698B434361704730B5024600200023F3
:1028A000146824F002041460146844F001041460F5
:1028B00000E05B1C546804F001041CB94FF6FF747F
:1028C000A342F6D1546804F001040CB900206CE076
:1028D0008C79012C04D1146844F08004146003E066
:1028E000146824F080041460CC79012C04D114689D
:1028F00044F04004146003E0146824F040041460C1
:102900000C7A012C04D1146844F02004146003E014
:10291000146824F0200414604C7A012C04D114684B
:1029200044F01004146003E0146824F010041460F0
:102930008C7A012C04D1146844F00804146003E07C
:10294000146824F008041460CC7A012C04D11468B3
:1029500044F00404146003E0146824F004041460D8
:102960008C78A407CD7844EA05640D7944EA0544DF
:102970004D7944EA05540D886D1E2C43D4611468CA
:1029800024F001041460002300E05B1C546804F090
:1029900001041CB14FF6FF74A342F6D1546804F051
:1029A00001040CB1002000E0012030BD10B500F59D
:1029B000D87303EB01131B6803F004031372137A3B
:1029C00053B900F5D87303EB01131B6840F2FF7491
:1029D00004EA5353136009E000F5D87303EB0113C5
:1029E0001B686FF0604404EAD303536000F5D873AA
:1029F00003EB01131B6803F00203537200F5D87355
:102A000003EB01135B6803F00F03937200F5D873B7
:102A100003EB01135B681B0AD37400F5D87303EB57
:102A200001139B68D37200F5D87303EB01139B6805
:102A30001C0A147300F5D87303EB01139B681C0C7C
:102A4000547300F5D87303EB01139B681B0E93734B
:102A500000F5D87303EB0113DB68D37300F5D8736B
:102A600003EB0113DB681C0A147400F5D87303EB45
:102A70000113DB681C0C547400F5D87303EB0113CD
:102A8000DB681B0E937421B9C36843F02003C36055
:102A900003E0036943F02003036110BD10B5024653
:102AA0000020936803F08063B3F1806F00D110E0E1
:102AB000936803F00063B3F1006F01D1012008E0D7
:102AC000936803F08053B3F1805F01D1022000E0EE
:102AD0000420042874D002F5C07303EB00131B68B4
:102AE00003F0010402F5C07303EB00131C600B7AC2
:102AF0007BB94B7A0C8843EA445302F5C07404EB6B
:102B000000142468234302F5C07404EB001423600E
:102B100010E00B7A4C6843EAC4034C7A234302F575
:102B2000C07404EB00142468234302F5C07404EB62
:102B3000001423608B7A03F00F038B7202F5C073CD
:102B400003EB00135B6823F00F0402F5C07303EB83
:102B500000135C6002F5C07303EB00135B688C7AB2
:102B6000234302F5C07404EB001463608B7B1C06E6
:102B70004B7B44EA03440B7B44EA0323CC7A234394
:102B800002F5C07404EB0014A3608B7C1C064B7C24
:102B900044EA03440B7C44EA0323CC7B234302F541
:102BA000C07404EB0014E36002F5C07303EB001380
:102BB0001B6843F0010402F5C07303EB00131C60B3
:102BC00010BD000010B50246002321B1012907D035
:102BD00002290FD109E090681D4C00EA04030BE0C4
:102BE00090681C4C00EA040306E090681A4C00EA66
:102BF000040301E0002300BF00BF184C181BA342D0
:102C000016D007DC83B16FF08060184470B10228E1
:102C100018D111E0B0F5007F10D0114C204448B11C
:102C2000B0F5003F0ED10BE002230DE000230BE0D6
:102C3000002309E0002307E0012305E0012303E06E
:102C4000012301E0002300BF00BFD8B210BD000087
:102C50000300000400030008000003100001000846
:102C60000001FFF770B588B0044600E0641C2078CE
:102C70002028FBD080213348FDF78CFF032232A1AE
:102C80002046FDF74DFE58B1032230A12046FDF746
:102C900047FE28B103222EA12046FDF741FE90B940
:102CA0002046FDF714FE032809D92046FDF70FFE44
:102CB0000646324621462348FDF789FE24E025A03A
:102CC000FDF7C0FB20E080211E480EF085FD1D4869
:102CD000FDF7FDFD401E1B49085C2F280AD1084660
:102CE000FDF7F5FD1749461822461FA13046FDF7AE
:102CF000B5FB09E01348FDF7EAFD124946182246E4
:102D00001AA13046FDF7AAFB0E48FDF7E0FDB8B169
:102D100069460C480FF0E6F9054665B9009820B100
:102D20001349084808F0C2F80AE0124912A0009AB4
:102D3000FDF788FB04E0034A0E4915A0FDF782FB6E
:102D400008B070BDBC400120313A2F00303A2F004E
:102D5000323A2F0066696C65206E616D6520657280
:102D6000726F72210D0A0000257300002F25730079
:102D70003C3E0120F9C4010825733A2066696C6560
:102D80002073697A65203D2025640D0A000000004B
:102D900025733A2066696C65206E616D65203D2063
:102DA0002573206572726F722121210D0A000000C7
:102DB0002DE9FF4107464FF00008002000900190E8
:102DC0000290039000E07F1C38782028FBD0394621
:102DD0006846FDF758FD69463CA0FDF733FB01E06E
:102DE00008F101081DF80800302803DB1DF8080071
:102DF0003928F5DD1DF8080020B139A0FDF722FBC8
:102E0000BDE8FF816846FDF705FD0446072016F082
:102E1000E9FE3C4D3C4EB4F5964F2FD009DCB4F59D
:102E2000166F10D0B4F5965F17D0B4F5165F41D188
:102E30001DE0B4F5E13F28D0B4F5613F2CD0B4F5E6
:102E4000E12F37D12FE0A84730480460142016F056
:102E5000C9FE4FF41660B04735E0A8472B48046020
:102E60000A2016F0BFFE4FF49650B0472BE0A8475B
:102E7000264804604FF41650B04724E0A847234882
:102E800004604FF49640B0471DE0A8471F48046017
:102E90004FF4E130B04716E0A8471C4804604FF4F7
:102EA0006130B0470FE0A847184804604FF4E120B4
:102EB000B04708E01548016815A0FDF7C3FA19A04E
:102EC000FDF7C0FA00BF00BF00BF99E7536574204B
:102ED0006261756420746F202573210D0A00000063
:102EE0004572726F7220636F6D6D616E6421207523
:102EF00073652062617564202B206E756D6265724A
:102F00000D0A0000E5740108097501084407002056
:102F10007843757272656E7442617564203D202538
:102F2000640D0A00706C6561736520696E7075745C
:102F300020393630302F31393230302F313135327F
:102F400030302F3233303430302F34363038303068
:102F500020210D0A0000000010B5044600E0641CAA
:102F600020782028FBD02046FDF7B1FC232803D889
:102F70002046FDF7ACFC38B90E490FA0FDF762FA08
:102F800014A0FDF75FFA07E024210A48FDF7E0FDF1
:102F900021460848FDF777FC1BA10648FDF722FEF5
:102FA00018B900201A49087002E001201849087079
:102FB00010BD00003506002043757272656E7420E6
:102FC00075736572206E616D652069732025730DC0
:102FD0000A000000456E746572207375202B207501
:102FE0007365724E616D652C20757365724E616DEF
:102FF0006572206D757374206C656E67746820311E
:103000007E333520210D0A00726F6F7400000000BE
:103010003406002070B500254FF4803404E0802091
:1030200004F048F800B103E02000A4F10104F6D157
:1030300000BF0CB9032070BD40F2FF5004F010F83F
:103040002846F8E770B5044605E01648056805F01F
:10305000450000B100E0F8E700BF042004F02AF8C2
:1030600020B1042003F0FCFF032070BD012004F018
:1030700021F820B1012003F0F3FF0120F5E7094812
:1030800024380068A04201D01020EEE740F2FF5043
:1030900003F0E6FF03482038006808210840C0B26A
:1030A000E3E70000342C014070B500264FF4803572
:1030B00005E01148046804F0450000B103E0280071
:1030C000A5F10105F5D100BF15B104F0040028B148
:1030D0000326042003F0C4FF304670BD012003F036
:1030E000E9FF18B10126012003F0BAFF40F2FF50BA
:1030F00003F0B6FF3046F0E7342C014010B505E090
:103100000B48046804F0450000B100E0F8E700BF98
:10311000042003F0CFFF20B1042003F0A1FF03201F
:1031200010BD40F2FF5003F09BFF0020F8E70000C5
:10313000342C01402DE9F04105460E464FF00008C1
:1031400005E02048076807F0450000B100E0F8E717
:1031500000BF042003F0AEFF28B1042003F080FF7D
:103160000320BDE8F081012003F0A4FF20B101207D
:1031700003F076FF0120F4E7124824380068A842E3
:1031800001D01020EDE740F2FF5003F069FF0D4839
:103190002038046804F4604018B9200C30804046A0
:1031A000DFE704F4005008B11320DAE704F48040AC
:1031B00008B11020D5E704F4004008B10F20D0E793
:1031C0004046CEE7342C014070B500264FF48035E0
:1031D00005E00F48046804F0450000B103E0280052
:1031E000A5F10105F5D100BF15B104F0040028B127
:1031F0000326042003F034FF304670BD04F0400085
:1032000018B10026402003F02BFF3046F5E7000000
:10321000342C01407CB5044620780C4901EB802514
:103220006178012088400090E0788DF80400607992
:103230008DF8060020798DF80500A0798DF807003B
:103240006946284601F08EFE7CBD00000000024069
:1032500070B504460D462078084901EB8026A07819
:1032600018B90DB9012500E00025627801209040D1
:1032700081B22A46304601F0E0FE70BD00000240F7
:1032800010B516F0F9F90A490A4800F069F960B179
:103290000749084800F07CF80021064800F092F841
:1032A00000210548006817F050FB16F0F7F910BD33
:1032B0000080001858600240D400002010B516F0BD
:1032C000DBF90849084800F04BF9012806D1054907
:1032D000054800F05DF805480068804716F0DEF903
:1032E00010BD00002080002070600240E409002032
:1032F00010B516F0C1F90649064800F031F918B1C9
:103300000349044800F044F816F0C8F910BD000065
:10331000208000101064024010B516F0ADF90A4983
:103320000A4800F01DF960B10749084800F030F87C
:103330000021064800F046F800210548006817F013
:1033400004FB16F0ABF910BD00802020A064024001
:10335000D400002010B516F08FF90A490A4800F091
:10336000FFF860B10749084800F012F8002106484C
:1033700000F028F800210548006817F0E6FA16F07A
:103380008DF910BD00800028B8640240D4000020F0
:103390000246094B9A4201D2084801E0064810381B
:1033A00001F000531BB1064B0B40C36002E0044B1D
:1033B0000B408360704700001064024000600240D0
:1033C0007D0F7D0F21B1026842F00102026003E02F
:1033D000026822F00102026070470000016821F0DB
:1033E000010101600021016041608160C1600161F3
:1033F000212141614A49884204D13D21484A103A7D
:1034000091608CE046491831884205D14FF47461CF
:10341000434A103A916082E041493031884205D1F7
:103420004FF474113E4A103A916078E03C494831BB
:10343000884205D14FF07461394A103A91606EE0CC
:1034400037496031884204D13649354A103AD16053
:1034500065E033497831884204D13349304A103A23
:10346000D1605CE02E499031884204D12F492C4A2A
:10347000103AD16053E02A49A831884205D14FF073
:103480003D51274A103AD16049E02949884204D188
:103490003D21274A083A116041E025491831884208
:1034A00005D14FF47461224A083A116037E020498F
:1034B0003031884205D14FF474111D4A083A116029
:1034C0002DE01B494831884205D14FF07461184AFC
:1034D000083A116023E016496031884204D111494D
:1034E000134A121F11601AE011497831884204D141
:1034F0000D490F4A121F116011E00D4990318842A9
:1035000004D10A490A4A121F116008E00849A8318B
:10351000884204D14FF03D51054A121F1160704797
:10352000106002403D000020400F002000003D20C0
:103530001064024021B1026842F02002026003E000
:10354000026822F0200202607047014600200A68EB
:1035500002F001020AB1012000E0002070470000E3
:1035600070B50246002000240025124EB24201D25E
:10357000114B01E00F4B103B104E0E4036B11E2692
:1035800006EAD124166806EA040502E0566906F048
:10359000800501F000560EB15C6800E01C68084E22
:1035A000344004EA010616B10DB1012000E000200C
:1035B00070BD000010640240006002403C0F3C0FF0
:1035C0007D0F7D0F10B501F080034BB122B143692F
:1035D00043F08003436103E0436923F080034361C8
:1035E00080290BD02AB1036801F01E042343036035
:1035F00004E0036801F01E04A343036010BD000053
:1036000010B500220268134B1A40CC680B682343A4
:103610004C6923438C692343CC6923430C6A2343BD
:103620004C6A23438C6A23434C6B23438C6B2343A8
:103630001A430260426922F00702D1E90B342343A6
:103640001A4342610B6943604B6883608B68C360B7
:1036500010BD00003F801CF0416070472DE9FF4124
:1036600004460E46002015F08DFF074622462E49DF
:103670002EA0FCF7E7FE002000900190029003903E
:1036800000E0641C20782028FBD021466846FDF726
:10369000FAF869462AA0FCF7D5FE684617F0AAFAA0
:1036A0000546002D39D0012E06D0022E0CD0032E57
:1036B0001AD0042E2FD11FE0284616F009FB6946C8
:1036C00023A0FCF7BFFE27E00D21002016F02CFD03
:1036D000284616F035FE3946002016F025FD6946CD
:1036E00022A0FCF7AFFE17E0284616F097FD6946CA
:1036F00025A0FCF7A7FE0FE0284617F063F9012884
:1037000004D1694627A0FCF79DFE03E069462FA07F
:10371000FCF798FE00E000BF03E0294634A0FCF768
:1037200091FEBDE8FF8100004BC5010825733A20DA
:10373000636F6D6D616E64203D2025730D0A00007E
:103740007461736B4E616D65203D2025730D0A0019
:1037500064656C657465207461736B2025732073D8
:10376000756363657373210D0A00000073757370D0
:10377000656E64207461736B2025732073756363B9
:10378000657373210D0A0000726573756D65207491
:1037900061736B2025732073756363657373210DEB
:1037A0000A00000077616B65207570207461736B8F
:1037B0002025732066726F6D20626C6F636B2073BF
:1037C000756363657373210D0A00000077616B6593
:1037D000207570207461736B2025732066726F6D85
:1037E00020626C6F636B206661696C210D0A0000BA
:1037F000746172676574203D202570206572726F58
:10380000722120706C6561736520696E707574201B
:103810007269676874207461736B206E616D652EC8
:103820000D0A0000704770B503460024002010E028
:103830000E5C451C4D5D46EA0526851C4D5D46EA3D
:103840000546C51C4D5D46EA056543F82450641CD9
:10385000001D9042ECD370BD10B5012000F02CF893
:1038600015F00AFF00210348006816F087FB15F0E9
:1038700015FF10BD2000002010B5082000F01CF836
:1038800015F0FAFE00210348006816F077FB15F0EA
:1038900005FF10BD2000002010B5102000F00CF82E
:1038A00015F0EAFE00210348006816F067FB15F0EA
:1038B000F5FE10BD2000002001490860704700009F
:1038C000143C014070B5034614460022002015E068
:1038D00011F822501D5431F82250C5F30726451C1B
:1038E0005E5551F82250C5F30746851C5E5551F8C8
:1038F00022502D0EC61C9D55521C001DA042E7D320
:1039000070BD000030B10749096841F48061054A83
:10391000116005E00349096821F48061014A1160E2
:1039200070470000003C024070B504460A4600267D
:10393000092502B909E0012A01D1160205E0022A8F
:1039400001D1160201E04FF4407600F0F3F805468D
:10395000092D28D11548006820F4407013490860EB
:1039600008460068304308600846006820F0F80008
:1039700008600846006844F0020108430B490860EB
:103980000846006840F48030086000F0D3F805462F
:103990000648006820F002000449086008460068F4
:1039A00020F0F8000860284670BD0000103C02407E
:1039B00009201349096801F48031B1F5803F01D134
:1039C00001201CE00E49096801F0100109B1062030
:1039D00015E00B49096801F4807109B102200EE07D
:1039E0000749096801F0E00109B1072007E004492F
:1039F000096801F0020109B1082000E009207047C0
:103A00000C3C024070B504460825002600F080F802
:103A10000020FFF777FF204605F080F8054600BF3D
:103A200019E002212846FFF77FFF092806D02B4620
:103A300022460D490DA0FCF705FD0BE00120FFF724
:103A400061FF00F033F82246074911A0FCF7FAFCA9
:103A5000002070BD761C0A2EE3D90120FFF752FF2B
:103A600000F024F80120F4E773C5010825733A201B
:103A7000616464723D305825582C20736563746FFF
:103A8000723D25642C206572726F720D0A00000071
:103A900025733A20616464723D305825582073754F
:103AA0006363657373210D0A00000000034800681A
:103AB00040F000400149086070470000103C02409F
:103AC00030B502460C46092500F034F80546092DAC
:103AD00019D10E48006820F440700C49086008466F
:103AE000006840F4007008600846006840F001007B
:103AF0000860146000F01EF805460448006820F0D5
:103B0000010002490860284630BD0000103C024018
:103B10000548006800F0004028B1044802490C390B
:103B20000860034808607047103C02402301674565
:103B3000AB89EFCD08B509200090FFF739FF009061
:103B400002E0FFF735FF00909DF800000128F8D053
:103B50009DF8000008BD000070B5ADF5147D044669
:103B600000E0641C20782028FBD080214848FDF725
:103B700011F8032247A12046FCF7D2FE58B10322D8
:103B800045A12046FCF7CCFE28B1032243A12046E4
:103B9000FCF7C6FE90B92046FCF799FE032809D928
:103BA0002046FCF794FE0646324621463848FCF78C
:103BB0000EFF24E03AA0FCF745FC20E080213448C9
:103BC0000DF00AFE3248FCF782FE401E3049085CC8
:103BD0002F280AD10846FCF77AFE2D4946182246BE
:103BE00034A13046FCF73AFC09E02948FCF76FFEA7
:103BF00027494618224630A13046FCF72FFC2448BE
:103C0000FCF765FE00283FD002A921480EF06AFAB1
:103C10000546002D33D1029858B301221C490AA849
:103C20000AF020FE28BB1EE0002601AB012223493A
:103C30000AA80BF0A8F8064626B1314620A0FCF7EA
:103C400001FC11E01D4800780A2803D118A0FCF7F8
:103C5000F9FB04E0194801781DA0FCF7F3FB01987B
:103C600000B901E000BFDFE700BF0AA809F034FD9A
:103C70000AE0184918A0029AFCF7E4FB04E0044AA1
:103C800014491BA0FCF7DEFB0DF5147D70BD000090
:103C9000BC400120313A2F00303A2F00323A2F0039
:103CA00066696C65206E616D65206572726F722148
:103CB0000D0A0000257300002F2573003C3E0120F3
:103CC00052656164204572726F723A25640D0A0074
:103CD0002563000019C5010825733A2066696C65E3
:103CE0002073697A65203D2025640D0A00000000DC
:103CF00025733A2066696C65206E616D65203D20F4
:103D00002573206572726F722121210D0A00000057
:103D10002DE9F0410446002015F034FC054600E092
:103D2000641C20782028FBD00E21002016F0FCF91E
:103D30002046FCF7CCFD0646324638A12046FCF76B
:103D4000EFFD08BB802136480DF046FD3448FCF7F6
:103D5000BEFD0646324633A13148FCF7E1FD20B9ED
:103D600031A0FCF76FFBBDE8F0812D48FCF7AFFDFB
:103D70002B494618234633A233A13046FCF76EFB8D
:103D800027480DF0F7FC43E0032226A12046FCF76C
:103D9000C7FD58B103222EA12046FCF7C1FD28B172
:103DA00003222CA12046FCF7BBFD18B920460DF0DC
:103DB000E1FC2DE0022228A12046FCF7B1FDA8B9C4
:103DC000802117480DF008FD2046FCF780FD0746CE
:103DD0001348FCF77CFD124946183A462146304606
:103DE000FCF7F5FD0E480DF0C5FC11E080210C48F4
:103DF0000DF0F2FC0A48FCF76AFD09494618234613
:103E000015A211A13046FCF729FB05480DF0B2FCC4
:103E10002946002016F088F900BFA4E72E2E0000E6
:103E2000BC400120313A2F005761726E6E696E6797
:103E30003A20696E20726F6F7420646972210D0AD6
:103E4000000000002F000000257325730000000013
:103E5000303A2F00323A2F002E2F000070B5ADF50A
:103E6000916D04460025002000900190029003907F
:103E700000E0641C20782028FBD0214667A0FCF7D6
:103E8000E1FA80216848FCF785FE0CE0802D05D31F
:103E900066A0FCF7D7FA0DF5916D70BD20786249E8
:103EA0004855641C6D1C20782028EFD10DF58C61DD
:103EB0005D480EF017F9F0B99DF86804C0F34010A2
:103EC000A8B1012258498EA80AF0CCFC78B90DF2AD
:103ED0006940FCF7FCFC064632460DF26941684633
:103EE000FCF775FD504958A0FCF7ACFA07E05EA05E
:103EF000FCF7A8FACFE75CA0FCF7A4FACBE700E058
:103F0000641C20782028FBD0002521465BA0FCF70C
:103F100099FA80214448FCF73DFE0DE0802D06D340
:103F200059A0FCF78FFA8EA809F0D6FBB3E72078EA
:103F30003D494855641C6D1C2078202802D020780B
:103F40000028EBD1681E3849085C2F2809D10846A3
:103F5000FCF7BDFC344946186A4652A13046FCF7CE
:103F60007DFA314950A0FCF76DFA0DF58C612E48B1
:103F70000EF0B8F838B92C4951A0FCF763FA8EA8B6
:103F800009F0AAFB87E70622274904A80AF06AFC81
:103F900000283AD125E00DF590634F4904A8DDF8DB
:103FA00084240BF09EFBDDF88014DDF88404884245
:103FB00009D04AA0FCF746FA8EA809F08DFB04A8A8
:103FC00009F08AFB67E7DDF88404FF2809D84DA0D3
:103FD000FCF738FA8EA809F07FFB04A809F07CFBF7
:103FE00059E70DF284434FF480723B498EA80AF0E2
:103FF000CAFE0028CFD047A0FCF724FA8EA809F00B
:104000006BFB04A809F068FB06E0074947A0FCF732
:1040100019FA8EA809F060FB00BF3CE731207374E9
:1040200072282573290D0A00BC40012066696C6561
:10403000207061746820697320746F6F206C6F6EDC
:10404000672E0D0A0000000066696C6520706174BF
:10405000682028257329206F70656E20736375654D
:104060007373210D0A00000066696C65207061742D
:1040700068206572726F72210D0A0000322073741D
:1040800072282573290D0A00232366696C65207048
:1040900061746820697320746F6F206C6F6E672E77
:1040A0000D0A00002573000064657374696E617405
:1040B000696F6E2070617468282573290000000004
:1040C0002366696C652070617468282573292065F2
:1040D000787A69742E0D0A003C3E0120665F777283
:1040E000697465206466696C65206661696C2E2060
:1040F000706C6561736520636865636B2064660D31
:104100000A000000636F70792066696E6973680D3C
:104110000A000000665F72656164207366696C6501
:10412000206661696C2E0D0A000000006F70656EDC
:10413000207061746828257329206661696C2E0DD2
:104140000A000000FEB504464FF0FF3500E0641C95
:1041500020782028FBD002222DA12046FCF767FB07
:1041600008B9002513E005222AA12046FCF75FFBD1
:1041700008B901250BE0032228A12046FCF757FBD4
:1041800008B9022503E026A0FCF75CF9FEBD00E0BB
:10419000641C20782028FBD100E0641C20782028B3
:1041A000FBD0002000900190029020680090606891
:1041B0000190A06802900BE02078302802DB207884
:1041C000392804DD204921A0FCF73CF9DEE7641C16
:1041D00020780028F0D16846FCF71CFB064625B184
:1041E000012D06D0022D0CD107E0304615F0EAFB78
:1041F0000BE0304615F096FA07E0304615F030FB3C
:1042000003E007A0FCF71EF900BF00BF00BFBDE739
:1042100073640000666C61736800000072616D0079
:10422000636F6D6D616E64206572726F72212064C0
:10423000756D702073642F666C6173682F72616D89
:10424000206E756D0D0A00000AC5010825733A201D
:10425000636F6D6D616E64206572726F7221206490
:10426000756D70202B20736563746F72206E756D91
:104270006265720D0A00000070B5ADF5147D04464C
:10428000002500E0641C20782028FBD080214B48CA
:10429000FCF780FC4FF400714948FCF77BFC05E01B
:1042A000227828466D1C46490A54641C2078202830
:1042B000F6D100E0641C20782028FBD020783E282E
:1042C00076D1641C00E0641C20782028FBD00322F7
:1042D0003CA12046FCF724FB58B103223AA120461A
:1042E000FCF71EFB28B1032238A12046FCF718FB7F
:1042F00090B92046FCF7EBFA032809D92046FCF7D1
:10430000E6FA0646324621462C48FCF760FB24E0DC
:104310002FA0FCF797F820E0802128480DF05CFAE8
:104320002648FCF7D4FA401E2449085C2F280AD1FD
:104330000846FCF7CCFA21494618224629A1304606
:10434000FCF78CF809E01D48FCF7C1FA1B49461838
:10435000224625A13046FCF781F802A917480DF046
:10436000C1FE00BB9DF81000202817D1022213497E
:104370000AA80AF077FA88B90AA8029909F0A3FBFB
:104380000F48FCF7A4FA064601AB32460C490AA8CE
:104390000BF0A7F90AA809F09FF90CE013A0FCF7AD
:1043A00051F808E004E0054916A0FCF74BF802E0DC
:1043B00019A0FCF747F80DF5147D70BDBC40012035
:1043C0003C3E0120313A2F00303A2F00323A2F0084
:1043D00066696C65206E616D65206572726F722111
:1043E0000D0A0000257300002F2573006D617962AE
:1043F0006520697320646972206572726F72210D85
:104400000A00000066696C65202573206E6F7420B9
:1044100065786973740D0A006572726F7220636F3C
:104420006D6D616E642E0D0A0000000070B50446CB
:1044300000E0641C20782028FBD080212048FCF775
:10444000A9FB2046FCF743FA20B980211C480DF057
:10445000C3F92AE002221BA12046FCF761FA58B1F9
:10446000032219A12046FCF75BFA28B1032217A109
:104470002046FCF755FA48B92046FCF728FA0546CD
:104480002A4621460E48FCF7A2FA0EE080210C488D
:104490000DF0A2F90A48FCF71AFA09494518234613
:1044A0000BA20CA12846FBF7D9FF0548FCF70FFA31
:1044B00028B14FF40072094901480DF011FC70BD9C
:1044C000BC400120313A0000303A2F00323A2F0030
:1044D0002E2F000025732573000000003C3E0120B4
:1044E00070B5044600E0641C20782028FBD08021B1
:1044F0002848FCF74FFB2046FCF7E9F920B980215A
:1045000024480DF069F93CE0022223A12046FCF783
:1045100007FA58B1032221A12046FCF701FA28B17D
:1045200003221FA12046FCF7FBF948B92046FCF7FF
:10453000CEF905462A4621461648FCF748FA20E0FF
:10454000802114480DF048F91248FCF7C0F9401ECC
:104550001049085C2F280AD10846FCF7B8F90D4924
:10456000451822460FA12846FBF778FF09E00948C5
:10457000FCF7ADF90749451822460BA12846FBF781
:104580006DFF0448FCF7A3F910B102480DF05CFB85
:1045900070BD0000BC400120313A0000303A2F00CD
:1045A000323A2F00257300002F25730010B5044602
:1045B00000E0641C20782028FBD0022220A12046A5
:1045C000FCF735F930B91FA0FBF73CFF20A00DF038
:1045D00097FC33E005221FA12046FCF728F930B9EB
:1045E0001EA0FBF72FFF20A00DF08AFC26E003227F
:1045F0001EA12046FCF71BF930B91DA0FBF722FFD6
:104600001DA00DF07DFC19E02046FCF760F990B983
:104610000CA0FBF717FF0EA00DF072FC0FA0FBF72C
:1046200011FF11A00DF06CFC11A0FBF70BFF12A005
:104630000DF066FC02E011A0FBF704FF10BD0000C6
:1046400073640000534420436172643A0D0A000011
:10465000303A0000666C617368000000464C4153BC
:10466000483A0D0A00000000313A000072616D0006
:1046700052414D3A0D0A0000323A0000706C6561FB
:10468000736520696E707574206466205B73642F97
:10469000666C6173682F72616D5D000070B50025F6
:1046A00050E02A4850F82540002C4AD028A0FBF7BB
:1046B000C9FE617831A0FBF7C5FE2078012801D141
:1046C00036A00AE02078022801D136A005E0207843
:1046D000032801D135A000E036A0014637A0FBF742
:1046E000B1FEA17839A0FBF7ADFEE1783EA0FBF763
:1046F000A9FEE18843A0FBF7A5FE218948A0FBF7AE
:10470000A1FE54A02169FBF79DFE5AA06169FBF749
:1047100099FE60A0E169FBF795FE6CA0216AFBF7AA
:1047200091FE70A0616AFBF78DFE75A0A16AFBF790
:1047300089FE79A0E16AFBF785FE84A0216BFBF777
:1047400081FE6D1C032DACDB70BD00008CB401201C
:104750002A2A2A2A2A2A2A2A2A2A2A2A2A2A2A2AB9
:104760002A2A2A2A2A2A2A2A2A2A2A2A2A2A2A2AA9
:104770002A2A2A2A2A2A2A0D0A0000005068797358
:104780006963616C206472697665206E756D62651F
:104790007220282564290D0A00000000666174312A
:1047A00032000000666174313600000066617433C7
:1047B00032000000756E6B6E6F77000066617420CA
:1047C0007479706520282573290D0A005365637478
:1047D0006F72732070657220636C757374657220DC
:1047E00020282564290D0A004E756D626572206FC0
:1047F000662046415420636F7069657320282564E4
:10480000290D0A0046696C652073797374656D2003
:104810006D6F756E7420494420282564290D0A00A7
:104820004E756D626572206F6620726F6F742064C2
:1048300069726563746F727920656E7472696573ED
:10484000202846415431322F313629202825642929
:104850000D0A00004C61737420616C6C6F636174AD
:10486000656420636C757374657220202825752932
:104870000D0A00004E756D626572206F66206672CB
:10488000656520636C7573746572732028257529BE
:104890000D0A00004E756D626572206F66204641FC
:1048A0005420656E74726965732C203D206E756DA1
:1048B000626572206F6620636C7573746572732015
:1048C0002B203220282564290D0A000053656374CB
:1048D0006F72732070657220464154202825642928
:1048E0000D0A0000566F6C756D65207374617274EB
:1048F00020736563746F7220282564290D0A0000F7
:1049000046415420737461727420736563746F72CE
:1049100020282564290D0A00526F6F742064697283
:104920006563746F72792073746172742073656348
:10493000746F72202846415433323A436C75737455
:104940006572232920282564290D0A0044617461B9
:1049500020737461727420736563746F72202825EC
:1049600064290D0A0000000070B50446002014F010
:1049700009FE054600E0641C20782028FBD00E21AB
:10498000002015F0D1FB032215A12046FBF7C8FF3C
:1049900058B1032213A12046FBF7C2FF28B103221E
:1049A00011A12046FBF7BCFF18B920460CF090FF80
:1049B00011E080210D480CF00FFF0C48FBF787FF3A
:1049C0000A49461823460AA20AA13046FBF746FDCB
:1049D00006480CF07DFF2946002015F0A5FB70BDB0
:1049E000313A2F00303A2F00323A2F00BC400120DC
:1049F0002E2F0000257325730000000010B504461B
:104A000000E0641C20782028FBD002221CA1204654
:104A1000FBF70DFF58B91BA00CF0B2FE18B91AA095
:104A2000FBF710FD2AE01DA0FBF70CFD26E0052298
:104A30001FA12046FBF7FBFE58B91FA00CF0A0FEFB
:104A400018B91EA0FBF7FEFC18E022A0FBF7FAFC49
:104A500014E0032224A12046FBF7E9FE58B923A065
:104A60000CF08EFE18B922A0FBF7ECFC06E026A0A5
:104A7000FBF7E8FC02E029A0FBF7E4FC10BD000016
:104A800073640000303A00006D6F756E74207364BB
:104A90002073637565657373210D0A006D6F756E04
:104AA00074207364206661696C210D0A00000000A7
:104AB000666C617368000000313A00006D6F756EBE
:104AC0007420666C61736820736375656573732108
:104AD0000D0A00006D6F756E7420666C617368203E
:104AE0006661696C210D0A0072616D00323A000046
:104AF0006D6F756E742072616D207363756565737B
:104B000073210D0A000000006D6F756E74207261D4
:104B10006D206661696C210D0A000000706C656192
:104B2000736520696E707574206D6F756E74207377
:104B3000642F666C6173682F72616D0D0A0000004E
:104B400070B50446002014F01DFD054600E0641C0D
:104B500020782028FBD00E21002015F0E5FA032252
:104B600023A12046FBF7DCFE58B1032221A12046F9
:104B7000FBF7D6FE28B103221FA12046FBF7D0FE8B
:104B800060B92046FBF7A3FE032803D920460DF0A9
:104B9000DBFA27E019A0FBF755FC23E080211B4836
:104BA0000CF01AFE1948FBF792FE401E1749085CEC
:104BB0002F280AD10846FBF78AFE144946182246D8
:104BC00013A13046FBF74AFC09E01048FBF77FFED3
:104BD0000E49461822460FA13046FBF73FFC0B4812
:104BE0000DF0B2FA2946002015F09EFA70BD0000C3
:104BF000313A2F00303A2F00323A2F006469726543
:104C00006374206572726F72210D0A00BC4001202E
:104C1000257300002F25730070B5ADF5127D044695
:104C200000E0641C20782028FBD0002014F0AAFCAF
:104C300006460E21002015F077FA80213B48FBF74D
:104C4000A9FF03223AA12046FBF76AFE60B10322C6
:104C500038A12046FBF764FE30B1032236A120467E
:104C6000FBF75EFE002821D12046FBF730FE03282B
:104C700018D9694620460AF0CFFB20B921462FA05B
:104C8000FBF7E0FB4AE00A22214608A809F0EAFD0A
:104C9000002843D121462DA0FBF7D4FB08A808F03B
:104CA0001BFD3BE030A0FBF7CDFB37E080211F4828
:104CB0000CF092FD1D48FBF70AFE401E1B49085CE4
:104CC0002F280AD10846FBF702FE1849451822464C
:104CD0002AA12846FBF7C2FB09E01448FBF7F7FDC1
:104CE00012494518224626A12846FBF7B7FB69461C
:104CF0000E480AF091FB20B90C4910A0FBF7A2FB6B
:104D00000CE00A22094908A809F0ACFD30B90749AE
:104D10000EA0FBF797FB08A808F0DEFC3146002048
:104D200015F002FA0DF5127D70BD0000BC400120A7
:104D3000313A2F00303A2F00323A2F0066696C6505
:104D40002025732065786973740D0A0066696C65A7
:104D500020257320637265617465207375636573C4
:104D600073210D0A0000000066696C65206E616D9C
:104D700065206572726F72210D0A000025730000B4
:104D80002F25730008B5002014F0FCFB04460D210C
:104D9000002015F0C9F90A490AA0FBF753FB214688
:104DA000002015F0C1F915F073FF009006E000F047
:104DB000D5FC4FF47A71684614F02EFFF7E7000037
:104DC000A9BB01082573202E2E2E0D0A000000001D
:104DD0002DE9FC4107460D460026002400200090E6
:104DE000019008205B4908601020486040208860DE
:104DF0000020C8604FF480600861084602F0A6F900
:104E00001020FEF71FF9044614B12046BDE8FC81CE
:104E10005148008800044F4908603720486040200E
:104E200088600020C8604FF480600861084602F086
:104E30008DF93720FEF706F904460CB12046E5E768
:104E40004FF0FF30454908600820486030208860F6
:104E50000220C8600020086101204861084602F075
:104E60000FF900203B4908603320486040208860EB
:104E70000020C8604FF480600861084602F066F9BF
:104E80003320FEF7DFF804460CB12046BEE70CE005
:104E90004FF4001002F00EF938B1314800684DF8B7
:104EA0002600761C022E00D307E02D484C380068FF
:104EB00040F22A6108400028EAD000BF082002F032
:104EC000F9F820B1082002F0CBF804209EE7022078
:104ED00002F0F0F820B1022002F0C2F8022095E7BB
:104EE000202002F0E7F820B1202002F0B9F80620D7
:104EF0008CE74FF4007002F0DDF828B14FF4007039
:104F000002F0AEF8072081E740F2FF5002F0A8F867
:104F100000980006009901F47F4140EA01200099C1
:104F200001F47F0140EA1120009940EA11606860B5
:104F300001980006019901F47F4140EA012001999E
:104F400001F47F0140EA1120019940EA11602860D4
:104F500020465BE758510120640900206C51012074
:104F6000802C0140F0B50A4600210023002400BF38
:104F70003DE0012505FA01F3156805EA03049C42AA
:104F800034D105684F000326BE40B543056015794E
:104F90004E00B5400668354305601579012D02D0F5
:104FA0001579022D16D185684F000326BE40B54302
:104FB000856055794E00B540866835438560456803
:104FC00001268E40B5434560456896798E40B6B25D
:104FD00035434560C5684F000326BE40B543C560F4
:104FE000D5794E00B540C6683543C560491C1029C7
:104FF000BFD3F0BDF0B5002300244D07ED0E02FA3B
:1050000005F3CE1000F1200555F826504E07F70E97
:105010000F26BE40B543CF1000F1200646F82750BA
:10502000CE1000F1200555F8265045EA0304CE10B5
:1050300000F1200545F82640F0BD0AB1018300E0EB
:105040004183704708B50127012015F093FA3549CF
:1050500008600321002014F0B1FD334933A0FBF7B1
:10506000F1F9402010F0AEFE06461EB92E4932A0DE
:10507000FBF7E8F9002407E03A4800EB4410007D14
:10508000022800D17F1C641C102CF5D3002440E0C2
:10509000344800EB4415012015F06CFAE861E8692A
:1050A00018B9214930A0FBF7CDF936480090EA68DD
:1050B00051082B460122286915F074FF46F8240098
:1050C00056F8240000B356F82400A861287D022871
:1050D0001ED115F0DDFD80460020009056F824001A
:1050E00000234246012115F095FF20B922460E49C2
:1050F00025A0FBF7A7F9642090FBF7F04FEA5008D2
:10510000404614F06FFD03E007492AA0FBF79AF927
:10511000641C102CBCD304E04FF0FF31002012F0CF
:10512000F7FAF9E70C0300208DC001082573202E43
:105130002E2E0D0A000000002573206661696C2088
:10514000746F207076506F72744D616C6C6F632059
:105150006D54696D657248616E646C6572210D0AEB
:1051600000000000900300202573206661696C2018
:10517000746F20637265617465206D757465782E37
:105180000D0A000081D400082573206661696C2037
:10519000746F2073746172742074696D6572286D08
:1051A00054696D657248616E646C65725B25645DFF
:1051B000290D0A002573206661696C20746F2070C8
:1051C00076506F72744D616C6C6F63206D54696DB5
:1051D000657248616E646C65725B695D210D0A00E1
:1051E0001FB54FF480511A4811F098FA0020062399
:1051F0001A4605210090FCF7ABFE002006231A4654
:1052000005210090FCF788FF0321002014F0D6FC54
:10521000104911A0FBF716F918E04FF0FF310120FB
:1052200012F076FA0DE0042203A9094811F068FA99
:10523000082201A9064811F063FA01A903980FF0AA
:1052400049FE034811F0B6FA0C28ECD2E5E700005D
:105250002C0B002061BF010825733A207374617222
:10526000742E2E2E0D0A0000ADF5087D002410F0DE
:1052700059FF012015F07EF92049086001202049DE
:10528000087100208860032114F098FC1D491EA0BD
:10529000FBF7D8F830E04FF0FF31012012F038FA78
:1052A00024E004AA08A91C4805F0E8FE0446022CE4
:1052B00014D108A901A8049A0BF033F8BDF80C200A
:1052C0000198B0F8011005A80AF090FB0A2105A882
:1052D0000FF0F8FD01A80BF099FC07E0012C04D1B8
:1052E00008AD28460BF064FA00E004E00A4811F02B
:1052F00061FA0028D5D100BFCDE70000CC00002026
:10530000480B002039BF010825733A20737461727D
:10531000742E2E2E0D0A0000F40A0020364837495C
:10532000C1F838043648C1F81C043648C1F81804DE
:10533000002081F83C04D1F838044FF4006111F0EA
:10534000EDF94FF4E13012F073F82C480DF0A2F9AA
:105350002A4A00212C48006814F09CFF322014F0E7
:1053600041FC0321002014F029FC284928A0FBF768
:1053700069F83FE0214890F83C0440B1234928A057
:10538000FBF760F84FF0FF31012012F0C1F91F491F
:105390002DA0FBF757F815E0184900235A1ED1F845
:1053A0004004194615F014F914480BF0FFFB13489C
:1053B0000BF014FB114900231A46D1F8400419469A
:1053C00015F0F4F90D4890F83C040028E4D00B499E
:1053D00000235A1ED1F84004194615F0F9F8074881
:1053E0000CF014FF054900231A46D1F84004194671
:1053F00015F0DCF9BEE70000A00A0020C024002060
:105400006C2F0020082900204C000020E8C401086F
:1054100025733A2073746172742E2E2E0D0A0000CB
:1054200025733A20616E64726F696420706F7765CE
:1054300072206F6E2C20676F20746F20736C65650F
:10544000702E2E0D0A00000025733A20616E6472E2
:105450006F696420706F776572206F66662C2067B5
:105460006F20746F20776F726B2E2E0D0A00000074
:10547000CEB0494D494CFF206080012015F07AF8EC
:10548000474908600321002014F098FB4FF40051B5
:10549000284611F043F903220021012015F07BF882
:1054A000404908600846006830B100231A46194692
:1054B0003C48006815F07AF900231A461946394825
:1054C000006815F085F803220021012015F063F82B
:1054D000354908600846006830B100231A4619466D
:1054E0003148006815F062F900231A4619462E4823
:1054F000006815F06DF84FF496702C4B2C4A4FF065
:10550000206100902B4800F0FDFE142014F06AFB8F
:1055100029492AA0FAF796FF3DE001202071811E5B
:1055200012F0F6F832E002224DA9284611F0E8F810
:1055300002E0002014F056FB284611F03BF9BDF9BB
:1055400034118842F5D3BDF9342102A9284611F05F
:10555000D7F8BDF80B002080BDF93401801E02A9E8
:10556000085A60800020207100BFBDF9341102A8E4
:1055700012F07EF805F00AFC2079012803D00E49CC
:1055800012A0FAF75FFF20790128EED1284611F02A
:1055900011F90228C7D8C0E7100B0020480B0020E3
:1055A000D0000020C8000020D4000020540B0020B0
:1055B00004140140A06402404EBF010825733A2044
:1055C00073746172742E2E2E0D0A000025733A201A
:1055D00073656E6420616761696E0D0A00000000EA
:1055E00000BFFEE770B504461548006820F440206F
:1055F000134908600846006840F4802008600020D5
:1056000010490860002517E0E0090E49091D0860EF
:105610006006040E022006F0C7FF01200A49C1F807
:10562000A002022006F0C0FF002006490860022008
:1056300006F0BAFF681CC5B2082DE5DB70BD00009E
:1056400000040240A08240420080404210B50F4852
:10565000006820F440200D4908600846006840F4C6
:105660008020086001200A4908600A49C1F8A002A8
:10567000042006F099FF002005490860042006F088
:1056800093FF00200349C1F8A00210BD00040240AE
:10569000A48240420080404210B50F48006820F4C8
:1056A00040200D4908600846006840F480200860EA
:1056B00000200A4908600A49C1F8A402042006F043
:1056C00073FF0120054908600549C1F8A4020420C0
:1056D00006F06AFF10BD000000040240A0824042B4
:1056E0000080404210B500241348006820F4402098
:1056F0001149086008460068086001200F490860E9
:1057000006F052FF01200E49C1F8A00206F04CFF3E
:1057100007E0601CC4B2FA2C03DDFFF7BDFF0120D7
:1057200010BD0648803800680028F2D10349091FDF
:10573000086000BFF4E7000000040240A482404279
:105740000080404200604060704700004CF6CC4052
:1057500001490860704700000030004010B500F0BB
:1057600013F810BD70B505460C4645F2555000F0D3
:105770001FF8284600F010F8204600F013F800F05B
:1057800003F8FFF7E3FF70BD4AF6AA20014908605D
:105790007047000000300040014948607047000039
:1057A0000030004001498860704700000030004030
:1057B0000149086070470000003000401CB50446F5
:1057C00000200190009022480088000421490860D0
:1057D0000D204860402088600020C8604FF4806041
:1057E0000861084601F0B2FC1B480068009002E026
:1057F000194800680090009800F045000028F7D094
:10580000012001F057FC20B1012001F029FC01200A
:105810001CBD042001F04EFC20B1042001F020FC4E
:105820000320F5E70C48243800680D2801D010202B
:10583000EEE740F2FF5001F013FC07482038006803
:1058400001900198C0F3432020700020E0E70000A1
:105850006409002058510120342C014010B505483E
:1058600014F002FB04A0FAF7EDFD024910A0FAF7CC
:10587000E9FD10BD3C3E01204E616D6509202020F0
:1058800053746174757320205072696F72697479F2
:10589000202057617465724D61726B094E756D20E1
:1058A000204C6F676C6576656C0D0A0D0A00000070
:1058B00025730D0A0000000008B517A0FAF7C2FD15
:1058C0001C48406800901B48C368826841691AA060
:1058D000FAF7B8FD2648406800902548C3688268FA
:1058E000416924A0FAF7AEFD3048406800902F4887
:1058F000C368826841692EA0FAF7A4FD3A4840685F
:1059000000903948C3688268416938A0FAF79AFD67
:1059100001A0FAF797FD08BD2A2A2A2A2A2A2A2A4C
:105920002A7374727563742A2A2A2A2A2A2A2A0D4B
:105930000A0000003C40012075617274316669669E
:105940006F3A2009096C6F73744279746573282566
:1059500075292C20696E282575292C206F757428CF
:105960002575292C2073697A65282575290D0A006B
:10597000F40A002075617274366669666F3A200910
:10598000096C6F73744279746573282575292C200E
:10599000696E282575292C206F7574282575292C8A
:1059A0002073697A65282575290D0A002C0B0020C3
:1059B00063616E6669666F3A20202009096C6F7317
:1059C000744279746573282575292C20696E282501
:1059D00075292C206F7574282575292C2073697AF8
:1059E00065282575290D0A00100B00207570537469
:1059F0007265616D4669666F3A202020096C6F738D
:105A0000744279746573282575292C20696E2825C0
:105A100075292C206F7574282575292C2073697AB7
:105A200065282575290D0A002DE9FC4106460C461E
:105A3000082204F110016846FDF744FF208AC0F3F4
:105A4000C505382D02D2C5F1380001E0C5F1780056
:105A500007463A460949204600F012FC08226946EA
:105A6000204600F00DFC102221463046FDF72AFFAB
:105A700058212046FBF78EF8BDE8FC816600002027
:105A80000022426102610549016005494160034904
:105A9000C94381600249C943C1607047012345671A
:105AA00089ABCDEF2DE9F04391B080468946D8F817
:105AB0000040D8F80450D8F80860D8F80C7040229C
:105AC000494601A8FDF7AFFE05EA060027EA0501F1
:105AD000084301990844FE4908440444E00140EAAF
