:020000040800F2
:100000005819012091030008694D00083542000885
:100010002D4D0008D51F0008BF7F0008000000001C
:10002000000000000000000000000000C102000805
:100030007D2900080000000015030008291A0108A6
:10004000AB030008AB030008AB03000865550008CC
:10005000AB030008AB03000881290008AB030008CC
:10006000AB030008A1290008C1290008AB03000860
:10007000AB030008AB030008AB03000845240008ED
:10008000AB030008AB030008011D0008AB03000828
:10009000AB030008AB030008AB030008AB03000888
:1000A000AB030008AB030008AB030008AB03000878
:1000B000AB030008AB030008AB030008AB03000868
:1000C000AB030008AB030008AB030008AB03000858
:1000D000AB030008A17C0008AB030008AB030008D9
:1000E000AB03000841520008AB030008AB03000853
:1000F000AB030008AB030008AB030008AB03000828
:10010000AB03000849590008AB030008AB03000823
:10011000AB030008AB030008AB030008AB03000807
:1001200079240008AB030008AB030008AB03000808
:10013000AB030008AB030008AB030008AB030008E7
:10014000AB030008AB030008AB030008AB030008D7
:10015000AB030008AB030008A1240008AB030008B0
:10016000AB030008AB030008AB030008AB030008B7
:10017000AB030008AB030008AB030008AB030008A7
:10018000AB030008AB03000800F002F800F081F8B0
:100190000AA090E8000C82448344AAF10107DA45E2
:1001A00001D100F076F8AFF2090EBAE80F0013F0B3
:1001B000010F18BFFB1A43F001031847F83C010078
:1001C000183D01000A444FF0000C10F8013B13F0F9
:1001D000070408BF10F8014B1D1108BF10F8015BA0
:1001E000641E05D010F8016B641E01F8016BF9D193
:1001F00013F0080F1EBF10F8014BAD1C0C1B09D1EA
:100200006D1E58BF01F801CBFAD505E014F8016B5B
:1002100001F8016B6D1EF9D59142D6D370470000ED
:100220000023002400250026103A28BF78C1FBD8FF
:10023000520728BF30C148BF0B607047702900F0DB
:10024000C981662912F00586642900F05581752957
:1002500000F05281782900F0B081632900F03D87D9
:10026000732900F04287002070471FB512F0E7FDA8
:1002700000F0C8FF04000020002112F0F1F8401C3B
:1002800060600020002112F0D5F8E0601FBD10B5BD
:1002900010BD01F001F91146FFF7E7FF0CF056FC25
:1002A00001F02DF903B4FFF7F2FF03BC08F06CFA7C
:1002B00030BF72B6704762B6704780F308887047E7
:1002C0002A4B19680868B0E8F04F80F30988BFF33B
:1002D0006F8F4FF0000080F311887047000000001E
:1002E00006480068006880F3088862B661B6BFF30C
:1002F0004F8FBFF36F8F00DF00BF00BF08ED00E03E
:10030000DFF80C00016841F470010160704700BF24
:1003100088ED00E0EFF30980BFF36F8F134B1A688D
:100320001EF0100F08BF20ED108A20E9F04F10607A
:1003300008B44FF0BF0080F31188BFF34F8FBFF3B5
:100340006F8F11F001F84FF0000080F3118808BCA6
:1003500019680868B0E8F04F1EF0100F08BFB0EC45
:10036000108A80F30988BFF36F8F70476400002004
:10037000EFF30580704700004FF0010080F3138811
:10038000014802490160FEE70CED00E00400FA05B7
:100390000948804709480047FEE7FEE7FEE7FEE719
:1003A000FEE7FEE7FEE7FEE7FEE7FEE70448054955
:1003B000034A054B70470000357B0008890100089F
:1003C000581501205819012058150120704710B503
:1003D0004C1084EA530404D54042C1F1000138BFF7
:1003E000491E1B4204D55242C3F1000338BF5B1EB5
:1003F00000F070FB14F0804F04D04042C1F10001C6
:1004000038BF491E14F0004F04D05242C3F100031C
:1004100038BF5B1E10BD00000FB4044910B503AA1D
:10042000029800F067FE10BC5DF814FB100000207D
:100430000FB41CB5074B06AA7B446946009005988B
:1004400000F029FE0020694600F038FE1CBC5DF873
:1004500014FB0000810C000070B50446856900683B
:10046000C10601D5302600E02026C00707D070BDA8
:10047000D4E9012130469047206A401C20626D1E5D
:10048000F6D570BD70B5044685690078C00707D100
:1004900070BDD4E9012120209047206A401C2062D1
:1004A0006D1EF6D570BD70B50C460546012A05D007
:1004B0002878800600D5EA69002302E0012305E0E0
:1004C0005B1C934202D2E05C0028F9D1A869E618CF
:1004D000C01AA861286A184428622846FFF7BCFFA2
:1004E00004E0D5E9012114F8010B9047B442F8D398
:1004F0002846FFF7C7FF70BD2DE9F04106460024EE
:1005000010687529314615A510D0AFF3008000287A
:1005100002DA404212A507E031688A0701D511A529
:1005200002E0490704D510A5012401E0AFF30080E3
:1005300000210A2306F1240707E0B0FBF3F203FBD6
:100540001200303078541046491C0028F5D123465B
:100550002A463046BDE8F04100F033BB0000000001
:100560002D0000002B00000020000000F0B40D461C
:100570000188090502D51B4C7C4402E0194C7C44DF
:100580000E34002100F1240305E002F00F061209E9
:10059000A65D5E54491C002AF7D102780023120799
:1005A00004D5702D06D009B1022311342246F0BCC7
:1005B00000F007BB01231034F8E770B504460D4680
:1005C00021461068AFF30080024629462046BDE868
:1005D0007040CBE70368126843F0200303600823F0
:1005E000C361C3E7203001002DE9F05F894604466E
:1005F0004FF0000ADFF874B1FB44C0F820A0204699
:10060000E1688847002874D0252806D0D4E9012164
:100610009047206A401C2062F1E700265F46204692
:10062000E16888472028054607DB312D05D2781977
:1006300010F8200C08B10643F1E7B00701D526F009
:100640000406C4F81CA00027C4F818A02A2D09D05D
:10065000284608F092F838B304EB8708303DC8F814
:10066000185019E059F8041B204604EB87029161E9
:10067000E1688847012F054618D1E069002820DA93
:1006800026F020061DE0D8F8180000EB800005EBEE
:1006900040003038C8F818002046E1688847054611
:1006A00008F06BF80028EED1012F0AD02E2D08D1CA
:1006B0002046E16888477F1C0546022F46F0200649
:1006C000C4DBA069002803DA404246F00106A061BD
:1006D000F00701D026F010066C2D0BD0682D09D044
:1006E0004C2D39D06A2D35D0742D35D07A2D33D09C
:1006F00016E038E0E1682F4620468847B8420546B4
:1007000009D16C2F26D04FF48060E1680643204663
:100710008847054604E06C2F1AD04FF480700643DA
:100720000DB3A5F14100192802D8203546F4006622
:100730004A462946204626604E46FFF77FFD80B197
:1007400001280BD0F61D26F0070000F1080956E736
:100750004020E4E78020D8E70020D6E706F104092E
:100760004DE7284652E7206ABDE8F09FC82F0100F8
:1007700070B5064600F0AAF90468054630460A221C
:10078000002100F0C9FC2C6070BD40EA010310B5E7
:100790009B070FD1042A0DD310C808C9121F9C4211
:1007A000F8D020BA19BA884201D9012010BD4FF003
:1007B000FF3010BD1AB1D30703D0521C07E0002050
:1007C00010BD10F8013B11F8014B1B1B07D110F8AD
:1007D000013B11F8014B1B1B01D1921EF1D11846B0
:1007E00010BD40EA0103024630B59B0710D14FF01F
:1007F000013400E008C208C91D1B9D4315EAC41F4F
:10080000F8D013F0FF0102F8011B0DD01B0AF8E726
:1008100011F8013B002B02F8013B05D011F8013B18
:10082000002B02F8013BF3D130BD10B5431C02E0B0
:1008300010F8011B71B18107FAD14FF0013202C8E3
:100840008C1A8C4314EAC211F9D0C01A0A0603D0DC
:10085000C01E10BDC01A10BD0A0401D0801E10BDFC
:100860000902FCD0401E10BD40EA010370B59B0791
:100870002ED14FF00136042A2AD308C810C99D1B77
:100880009D43121F15EAC61517D0D8B2E1B2401A1F
:1008900050EA056110D198B2A1B2401A50EA054160
:1008A0000AD123F07F4024F07F41401A50EA05210D
:1008B00002D1180EA0EB146070BDA342DBD018BAB1
:1008C00021BA884201D9012070BD4FF0FF3070BDC0
:1008D0000AB9002070BD10F8013B11F8014B63B15B
:1008E000A3420AD1521E08D010F8013B11F8014B67
:1008F0001BB1A34201D1521EEDD1181B70BD421E87
:1009000012F8013F002BFBD111F8013B002B02F83C
:10091000013BF9D17047032A40F2308010F0030CFC
:1009200000F0158011F8013BBCF1020F624498BF42
:1009300011F801CB00F8013B38BF11F8013BA2F1DF
:10094000040298BF00F801CB38BF00F8013B11F05A
:10095000030300F01984083AC0F0088051F8043B02
:10096000083A51F804CBA0E80810F5E7121D5CBF67
:1009700051F8043B40F8043BAFF30080D20724BF9A
:1009800011F8013B11F801CB48BF11F8012B24BF2E
:1009900000F8013B00F801CB48BF00F8012B70477D
:1009A00002F0FF0343EA032242EA024200F002B8E7
:1009B0004FF000020429C0F0128010F0030C00F088
:1009C0001B80CCF1040CBCF1020F18BF00F8012B06
:1009D000A8BF20F8022BA1EB0C0100F00DB85FEAD4
:1009E000C17C24BF00F8012B00F8012B48BF00F8A0
:1009F000012B70474FF0000200B51346944696460F
:100A0000203922BFA0E80C50A0E80C50B1F1200121
:100A1000BFF4F7AF090728BFA0E80C5048BF0CC0CF
:100A20005DF804EB890028BF40F8042B08BF70472D
:100A300048BF20F8022B11F0804F18BF00F8012B9F
:100A4000704700004FF0013C50F8042B51F8043B74
:100A50009A4221D1A2EB0C03934313EACC1317D192
:100A600050F8042B51F8043B9A4215D1A2EB0C0329
:100A7000934313EACC130BD150F8042B51F8043BE9
:100A80009A4209D1A2EB0C03934313EACC13DBD0B7
:100A90004FF00000704700BFD01A01BAB1FA81F1DF
:100AA00001F0180122FA01F0CB40C1F12001DBB2C4
:100AB000C0B2C01A2CFA01F3D11A914311EAC31142
:100AC000E6D17047704770477047704700487047DD
:100AD000F414012053EA020C00F069802DE9F04B78
:100AE0004FF00006002B1FBFB3FA83F503FA05F49D
:100AF00024FA05F65E4012BF1643B2FA82F502FAF6
:100B000005F4C5F120051EBF22FA05FC44EA0C04D9
:100B1000203556EA044C4FEA144418BF641C4FF0C9
:100B200000084FF00009904271EB030C39D3002903
:100B300019BFB1FA81F701FA07F6B0FA80F700FAA7
:100B400007F6C7F120071EBF20FA07FC46EA0C068D
:100B50002037B6FBF4FCA7EB0507103F07F01F0B8F
:100B6000CBF120060CFA0BFB2CFA06F644BFB34679
:100B70000026202FA4BF5E464FF0000B5BEA060C58
:100B800008BF4FF0010B19EB0B09ABFB027C48EBE4
:100B90000608C01B06FB02CC0BFB03CC71EB0C015F
:100BA000C1E70B46024641464846BDE8F08B13B507
:100BB0004FF000004FF00001AFF30080BDE81C4093
:100BC00070472DE9F0470D4699469246044600F1DC
:100BD00024080168880604D5E06921F0100121602D
:100BE00000E00120A84201DD471B00E00027A169C9
:100BF0007A1902EB0900081AA0612078C00602D415
:100C00002046FFF729FC002608E0D4E901211AF864
:100C100006009047206A401C761C20624E45F4DB9B
:100C20002078C0060AD52046FFF716FC06E0D4E976
:100C3000012130209047206A401C2062381EA7F115
:100C40000107F4DC07E0D4E9012118F8050090471A
:100C5000206A401C2062281EA5F10105F3DC204615
:100C6000FFF710FC2078000602D50220BDE8F087CF
:100C70000120FBE770472DE9FF4F0C461E464FF061
:100C8000FF378BB0D2E90001DDF860800A908A4618
:100C9000C1F30A5505B93D46002108464FF0000052
:100CA000BAF1000F00F4400005DA00EB80004FF4C9
:100CB000400101EA50004FEA9059B9F1010F00DDFF
:100CC000B9460A9850EA4A000ED044F61050A5F2F0
:100CD000FF3545432F14B8F1000F1ED07542291E71
:100CE0001EDDC9F100021CE0B8F1010F4FF0000059
:100CF00001D0302103E0F24305E02154401CB04212
:100D0000FBDB30460022002121540B99C1F80880FA
:100D1000C1E900200FB0BDE8F08FBD1B6D1CDEE700
:100D20004A4600DA694206A800F046FB06AB93E8A3
:100D3000070003AB83E8070050460A9900F0E5FB83
:100D40008DE80700A0F500501F3800900398002D93
:100D500009DD42F21F014A46084403A90390684690
:100D600000F044FE08E0A0F500504A461F3803A9F1
:100D70000390684600F04EFE8DE807000004000C6A
:100D800003D04FF0FF30410800E01046B8F1000FEB
:100D900003D00022009215461EE0751E05D400F017
:100DA00035FA303262556D1EF9D5B346012208433B
:100DB00002D000227F1C04E02078302801D10022DC
:100DC0007F1E002A099786D01DE0112D07DA00F05A
:100DD0001DFA303262556D1C50EA0102F5D108430C
:100DE00002D00098C8B10EE00021681E05E0235C27
:100DF000625C63542254401E491C8142F7DBAB46BF
:100E0000A81B401E0990002004F80B000B98099ABB
:100E1000C0F80880C0E9002B7CE711264FF00008DD
:100E200059E72DE9F04F88460446D21D22F007010C
:100E300091B0D1E90001CDE90A0107F0F7FB0246C4
:100E40000B98C00F01D02D2007E02068810701D545
:100E50002B2002E0202101EAC000032A099001D0E2
:100E6000072A05DB03464146204600F015FA09E152
:100E70002078800601D5E06900E00620B8F1650F12
:100E8000814606D0B8F1660F18D0B8F1670F70D15F
:100E900031E00020B9F1110F009001DB112301E0D6
:100EA00009F101030AAA01A90CA8FFF7E4FEDDE994
:100EB0000C70002609F10105834647E001204B46EE
:100EC00000904FF000470AAA01A90CA8FFF7D3FE33
:100ED000DDE90DB00C995D46002610B909F101005D
:100EE0000D18B9EB050003D4C0F1FF3609F1010577
:100EF000A5EB09002BE0B9F1010F01DA4FF0010970
:100F00000020B9F1110F0090484601DD112300E0E7
:100F100003460AAA01A90CA8FFF7ADFEDDE90C7093
:100F20004D4600268346207800070AD4AB4500DAF8
:100F30005D4601A8012D04DD411911F8011C30297D
:100F400007D04F4502DA17F1040F04DA0120824678
:100F50000FE06D1EEEE7002F02DCED1B3E4403E0C8
:100F6000781CA84200DD7D1CB81B00F1010A4FF07F
:100F700000472078000703D4AA4501DB4FF0FF3A71
:100F80000021B7F1004F0DF143088DF8431022D036
:100F900002202B23002F01DA7F422D234FF00A0C71
:100FA000011EA0F1010000DC47B197FBFCF10CFB36
:100FB00011720F46303208F8012DF1E7A8F1010057
:100FC00003702188090501D5452100E06521A0F1C4
:100FD000010800F8011C09980FA9A1EB0807FF1DE3
:100FE00000B10120411901EBEA70A1693844081AE7
:100FF000401EA0612078C00602D42046FFF72CFADC
:10100000099828B1D4E901219047206A401C206248
:101010002078C00622D52046FFF71EFA1EE0002EDB
:1010200004DBB34502DD01A8805D00E03020D4E997
:1010300001219047206A401C2062761CAAF1010021
:101040005FEA000A0AD100F0DDF8C0680168405C80
:10105000D4E901219047206A401C2062281EA5F196
:101060000105DCDC07E0D4E9012118F8010B904709
:10107000206A401C2062381EA7F10107F3DC2046DD
:10108000FFF700FA022011B045E6000001694A1C92
:1010900002610878704700B58FB0CDE901310021B9
:1010A000059105497944CDE9031011466846FFF7DB
:1010B0009BFA0FB000BD0000E5FFFFFF0A6802F8D1
:1010C000010B0A60704710B5436913B1AFF300809C
:1010D00001E0FFF7E8F9012010BD127800F12401CA
:1010E0000A7000224A700122EDE711684FF0FF32CA
:1010F000E9E70000074B70B50D467B44FFF7CBFFD7
:101100000446284600F0C4F910B14FF0FF3070BD1E
:10111000204670BD37B600002DE9F04791460F46D6
:1011200080460446002614F8015B2DB100F062F8F9
:101130000068405DC007F6D12B2D02D02D2D18D0B0
:10114000641E4A463946204600F0E6F827B1396861
:10115000A14201D1C7F800804FF0020471050BD500
:101160004042002803DDFFF7B1FC0460A007BDE8A2
:10117000F08746F48066E4E70028F8DAFFF7A6FC7B
:1011800004606FF00040F2E710B5203AC0F00B8029
:10119000B1E81850203AA0E81850B1E81850A0E87B
:1011A0001850BFF4F5AF5FEA027C24BFB1E81850D5
:1011B000A0E8185044BF18C918C0BDE810405FEA45
:1011C000827C24BF51F8043B40F8043B08BF7047C1
:1011D000D20728BF31F8023B48BF11F8012B28BFC6
:1011E00020F8023B48BF00F8012B704700487047C9
:1011F000F414012010B500F005F8001D10BD00BF6B
:1012000061120100004870471415012030B5B0F19B
:101210000A024FEA900E71F100034EEA817EB0EBB4
:101220000E0061EB91014FEA101E4EEA017E10EBB9
:101230000E0041EB11114FEA102E4EEA016E10EB39
:101240000E0041EB11214FEA104E4EEA014E10EB19
:101250000E0041EB1141401841F100014FEAD0006E
:1012600040EA41704FEAD10110EB80054FEA81045A
:1012700044EA907444EB01046D1944EB0404521BDE
:10128000A3414FF0000348BF0A3200D530BD401CD7
:1012900041F1000130BD00002DE9F0411F46044638
:1012A00003260168072A01F4006004DB08B116A5D3
:1012B00005E016A503E008B115A500E015A521F08D
:1012C00010002060A069C01EA0610FB1401EA06187
:1012D0002046FFF7C1F84FB1D4E9012138469047C5
:1012E000206A401C2062C01C206206E0206AFAE7E7
:1012F000D4E9012115F8010B9047761EF8D220465B
:10130000FFF7C0F8BDE8F0814E414E006E616E00FF
:10131000494E4600696E66002DE9F05F824615462B
:101320008B4600270AF10104B9460078302801D025
:101330009DB113E014F8010B0127782803D0582839
:1013400001D045B10AE00DB1102D07D1002714F8E6
:10135000010B102502E0082500E00A250026B04612
:101360000EE005FB080005FB06F101271FFA80F8D7
:1013700001EB1046B6F5803F00D3B94614F8010BD7
:10138000294600F0AEF80028EBDABBF1000F05D0DB
:101390000FB1641E00E05446CBF80040B9F1000FD5
:1013A00006D0FFF793FB02210160C81EBDE8F09F45
:1013B00048EA0640FAE700002DE9F0478146164664
:1013C0008AB0324878440DC88DE80D002F48784423
:1013D000801C03AC0DC884E80D0041F69B30372219
:1013E000014491FBF2F0A0F1800502FB10141B3CBC
:1013F00002D56442012000E00020DFF890A0804682
:101400000027FA44AAF1BA0A0DE0E00709D03246F3
:10141000684607EB47010AEB810100F0FBFA8DE813
:10142000070064107F1C002CEFD1184F7F44A83FA9
:1014300018E0E80714D007EB04100DF1180A90E843
:101440000E008AE80E00C068F04201D19819089099
:10145000324606A903A800F0DDFA03AB83E80700D3
:101460006D10641C002DE4D132466946B8F1000FBE
:1014700003A802D000F0BAFA01E000F0CBFAC9E903
:101480000001C9F808200AB0BDE8F0878C220100ED
:10149000007B00F0800070477546FFF7A7FEAE4660
:1014A00005006946534620F00700854618B020B570
:1014B000FEF77CFFBDE820404FF000064FF000072C
:1014C0004FF000084FF0000B21F00701AC46ACE8EC
:1014D000C009ACE8C009ACE8C009ACE8C0098D4659
:1014E00070473A2800D2303820F02002412A01D338
:1014F000A2F13700884201D34FF0FF307047044615
:10150000AFF300802046FEF7CDFE5FEA400C08BF37
:1015100091F0000F4FEA8C234FEAC12243EA515168
:101520004FEA1C5018BF00F5F0404FEA300018BFDA
:1015300041F000415FEA6C5C00F02980BCF1FF3FA4
:1015400008BF40F080407047130C06BF12044FF0F4
:10155000100C4FF0000C130E04BF12020CF1080C1B
:10156000130F04BF12010CF1040C930F04BF92007F
:101570000CF1020CD30F04BF52000CF1010C114608
:101580004FF00002A0F11F00A0EB0C00704711F01B
:10159000004F08BF704731F000413FF4D5AF0B0C4E
:1015A00006BF09044FF0100C4FF0000C0B0E04BFE7
:1015B00009020CF1080C0B0F04BF09010CF1040C1B
:1015C0008B0F04BF89000CF1020CCB0F04BF490044
:1015D0000CF1010CCCF12003A0EB0C0022FA03F378
:1015E00002FA0CF241EA030100F10100704720F019
:1015F0007F4C80EA030023F07F47ACEB070303F541
:101600007C5300F0004003F1FF032DE980494FEACD
:10161000154B09B44FEA144325EA0B4E24EA03485C
:101620000FF2042606EB132749083E785FEA3202E0
:1016300003FB0667C7F5000707FB06F64FEA5437BA
:101640004FEAD64606F1020607FB066CCCF1005CB9
:101650004FEA1C472CEA074C07FB06F40CFB06F587
:1016600004EB15464FEA961634BF00204FF00040B9
:101670004FEAD13706FB07FC4FEA1C4C0CFB0BF77B
:10168000D21B03FB0CF761EB07010CFB0EF7B0EB71
:10169000074072EB17420CFB08F734BFA2EB07427E
:1016A000B2EB074261EB17414FEA0C444FEA910756
:1016B00006FB07FC4FEA1C4C0CFB0BF7B0EBC740DA
:1016C00072EB573203FB0CF734BFA2EBC742B2EB0D
:1016D000C74261EB57310CFB0EF7B0EBC70072EB62
:1016E00057720CFB08F734BFA2EBC702B2EBC7027C
:1016F00061EB5771039F4FEA816141EA921104EB5C
:10170000CC044FEAD1374FEA826206FB07FC42EA7B
:1017100090124FEA80604FEA1C4C0CFB0BF7D21B77
:1017200003FB0CF761EB07010CFB0EF7B0EB074076
:1017300072EB17420CFB08F734BFA2EB0742B2EB87
:10174000074261EB17414FEA8C554FEA910704EBD2
:101750009C2406FB07FC4FEA1C4C0CFB0BF7B0EB80
:10176000C74072EB573203FB0CF734BFA2EBC74202
:10177000B2EBC74261EB57310CFB0EF7B0EBC70081
:1017800072EB57720CFB08F734BFA2EBC702B2EB47
:10179000C70261EB577115EB4C254FEA816141EAB5
:1017A00092114FEA82624FEAD13742EA901206FB69
:1017B00007FC44F100044FEA80604FEA1C4C0CFB2C
:1017C0000BF7D21B03FB0CF761EB07010CFB0EF7C9
:1017D000B0EB074072EB17420CFB08F734BFA2EBEB
:1017E0000742B2EB074261EB174115EB1C154FEABC
:1017F000813141EA92414FEA823242EA90424FEA15
:1018000080304FEA0C7644F1000448EA03434EEA84
:101810000B484FF0000EB2EB080C71EB030724BF2E
:10182000624639464EEB0E0E4FF0000B0018524147
:1018300049414BEB0B0BB2EB080C71EB03077BF14F
:10184000000B24BF624639464EEB0E0E4FF0000BE4
:101850000018524149414BEB0B0BB2EB080C71EBFA
:1018600003077BF1000B24BF624639464EEB0E0E98
:1018700051EA020718BF46F0010616EB0E7655F145
:10188000000254F1000103D5BDE88901BDE80088DC
:10189000BDE88901B619BDE80048524141EB01019C
:1018A000A3F10103704780807F7E7D7C7B7A79780D
:1018B000777676757473727171706F6E6E6D6C6C15
:1018C0006B6A6A69686867666665646463636261B7
:1018D0006160605F5F5E5E5D5D5C5C5B5B5A5A5938
:1018E00059585857575656555555545453535252A4
:1018F0005251515050504F4F4F4E4E4D4D4D4C4CFC
:101900004C4B4B4B4A4A4A49494948484847474744
:101910004746464645454544444444434343434281
:10192000424242414141002B26D4770021D01CB5D0
:101930004FEA370703B44FF010004FF010014FF09B
:1019400000000FBC0BF1010BBDE81040BBF1010F13
:1019500008BF5FEA170722BF12F1010211F101016E
:101960004FF0004143F1000300F0004043EA000063
:101970007047F9D35708DAE746EA064613F1400FF5
:101980004FEA16461FDD13F1200FDFBF16430A464C
:10199000002120335B42C8D0C3F1200746EA064647
:1019A00002FA07F74FEA164646EA0706C3F1200790
:1019B00022FA03F201FA07F721FA03F14FF00003CC
:1019C00042EA0702B1E746EA020646EA06464FEA5D
:1019D000164646EA0106BCBF46EA0646360C4FF0FC
:1019E00000034FF000024FF000019EE72DE9C048D0
:1019F000934630B491E8380007C831EA400C48BF3C
:101A000034EA430C03D5FFF7F2FDFFF78CFFF0BC7F
:101A1000BDE800882DE9C048934630B491E838000D
:101A200007C810F0804F08BF13F0804F03D100F0BB
:101A300005F8FFF778FFF0BCBDE8008820F07F478D
:101A400080EA030023F07F4C07EB0C03A3F57C53E3
:101A500000F00040A3F1FE0392F0000F00F0B3800D
:101A600095F0000F00F077802DE901494FEA114011
:101A70004FEA144621EA004800FB06FC24EA064728
:101A800008FB06F607FB08F800FB07F718EB06480B
:101A90004CEB164C4FEA124B18EB07484FEA154631
:101AA0004CEB174022EA0B4E0BFB06FC25EA0647DF
:101AB0000EFB06F607FB0EFE0BFB07F71EEB064EB2
:101AC0004CEB164C4FF000061EEB074E4CEB174B41
:101AD00018EB0B0840F1000018EB0E0B58EB000858
:101AE00040F100008F1A4FF000013CBFC943661B54
:101AF00014BFB5EB040C00213CBFC943F61B4FEAF1
:101B000017444EEA8E0E27EA04454FEA1C4704FBB1
:101B100007622CEA074C05FB07F70CFB05F604FBF4
:101B20000CFC16EB074642EB174216EB0C4642EB59
:101B30001C421BEB060658EB0202414146EA9E0698
:101B400001D5BDE80189B619524141EB0101A3F16C
:101B50000103BDE801894FEA14454FEA114724EA21
:101B6000054621EA074C05FB07F406FB07F70CFBCB
:101B700006F105FB0CFC11EB074144EB17444FEA5F
:101B8000124711EB0C4144EB1C4422EA074C05FBC5
:101B900007F206FB07F70CFB06F605FB0CFC16EB41
:101BA000074642EB174216EB0C4642EB1C456A18FF
:101BB00054F1000148BF7047B619524141EB010191
:101BC000A3F10103704795F0000F37D04FEA11429F
:101BD0004FEA144721EA024624EA074C02FB07F1C8
:101BE00006FB07F70CFB06F402FB0CFC14EB0744A6
:101BF00041EB17414FEA154714EB0C4441EB1C41F4
:101C000025EA074C02FB07F506FB07F70CFB06F677
:101C100002FB0CFC16EB074645EB174516EB0C4692
:101C200045EB1C42121951F1000148BF7047B6192B
:101C3000524141EB0101A3F1010370474FEA144502
:101C40004FEA114724EA054621EA074C05FB07F154
:101C500006FB07F70CFB06F24FF0000605FB0CFC39
:101C600012EB074241EB174112EB0C4251EB1C41C6
:101C700048BF7047921841EB0101A3F1010370477F
:101C800000220A12D3430360704721B1826842F0F8
:101C90000102826003E0826822F0010282607047E4
:101CA0000021084A1168084A1140D0E900231A436C
:101CB00083681A43C3681A431143044AC2F80413E1
:101CC0007047000004230140E030FCFF0020014089
:101CD0000146C86C80B2704770B5024600200023F0
:101CE00000240B12556801268E4005EA060415688B
:101CF0001D4015B10CB1012000E0002070BD0000B6
:101D000008B50EF069FC40F205210C48FFF7E4FF2E
:101D100001280FD140F205210848FFF7B1FF07481D
:101D2000FFF7D6FF009000231A4669460448006872
:101D300010F03CF80EF062FC08BD000000200140ED
:101D40009403002010B50B460021D9B2012404FAF7
:101D500001F11AB144680C43446002E044688C43CA
:101D6000446010BD30B50246002000235068104C7E
:101D700020400D790C6844EA0524204350609068A7
:101D80000C4C2040D1E903542C438D682C434D79F1
:101D900044EA450420439060D06A20F470000C7D32
:101DA000641EE4B2234340EA0350D06230BD000019
:101DB000FFFEFFFCFDF7FFC0F0B504460D46002016
:101DC0000021092D11DDE068A5F10A0606EB4607A2
:101DD000072606FA07F18843A5F10A0606EB460630
:101DE00003FA06F10843E0600CE0206905EB4507C3
:101DF000072606FA07F1884305EB450603FA06F1C4
:101E000008432061072A0FDA606B561E06EB86072F
:101E10001F2606FA07F18843561E06EB860605FACA
:101E200006F10843606322E00D2A0FDA206BD61F0B
:101E300006EB86071F2606FA07F18843D61F06EB36
:101E4000860605FA06F10843206310E0E06AA2F175
:101E50000D0606EB86071F2606FA07F18843A2F156
:101E60000D0606EB860605FA06F10843E062F0BDB2
:101E7000816841F0804181607047000038B10849B5
:101E8000096841F40001074AC2F8041306E0044956
:101E9000096821F40001034AC2F8041370470000E6
:101EA000042301400020014000B58DB00121084607
:101EB00003F092F80121080203F0CEF820200A90E6
:101EC00003208DF82C0001208DF82F000AA930483E
:101ED00002F08CF80121080203F0CEF800214FF443
:101EE000807003F0C9F80120FFF7C8FF00200690BA
:101EF000099008904FF48030079006A8FFF7D0FEB5
:101F0000002000908DF804008DF8050002900490E8
:101F100001208DF8140069461E48FFF723FF0723B0
:101F2000012205211B48FFF747FF0723012210214B
:101F30001848FFF741FF01211648FFF7A6FE0122CE
:101F400040F205211348FFF7FDFE12208DF8300006
:101F500001208DF8310002208DF8320001208DF82B
:101F600033000CA802F002FF0022022103200FF030
:101F700086FD094908600846006818B107A0FEF709
:101F80004BFA02E00CA0FEF747FA0DB000BD0000CE
:101F9000000002400020014094030020696E697433
:101FA0002078416463517565756520737563636559
:101FB00073732E2E2E0D0A00696E697420784164A9
:101FC000635175657565206661696C2E2E2E0D0A4C
:101FD0000000000000BFFEE77FB505460026002098
:101FE000009001900290039000E06D1C287820285A
:101FF000FBD029466846FEF7F4FB694641A0FEF790
:102000000BFA00E0761C1DF80600302803DB1DF8F3
:1020100006003928F6DD1DF8060018B13EA0FEF7CF
:10202000FBF97FBD6846FEF7A3FB04460F200EF0C8
:1020300089FDB4F5964F35D009DCB4F5166F10D094
:10204000B4F5965F19D0B4F5165F4FD121E0B4F521
:10205000E13F30D0B4F5613F36D0B4F5E12F45D142
:102060003BE00CF0E1FB3548046028200EF06AFDEF
:102070004FF416600CF0EAFB41E00CF0D5FB2F4862
:10208000046014200EF05EFD4FF496500CF0DEFB61
:1020900035E00CF0C9FB294804604FF416500CF0F1
:1020A000D5FB2CE00CF0C0FB244804604FF49640B4
:1020B0000CF0CCFB23E00CF0B7FB204804604FF49D
:1020C000E1300CF0C3FB1AE00CF0AEFB1B480460DF
:1020D0004FF461300CF0BAFB11E00CF0A5FB17488F
:1020E00004604FF4E1200CF0B1FB08E013480168F4
:1020F00013A0FEF791F917A0FEF78EF900BF00BFFD
:1021000000BF8EE7536574206261756420746F2090
:102110002573210D0A0000004572726F7220636FF3
:102120006D6D616E64212075736520626175642038
:102130002B206E756D6265720D0A0000840100200F
:102140007843757272656E7442617564203D202516
:10215000640D0A00706C6561736520696E7075743A
:1021600020393630302F31393230302F313135325D
:1021700030302F3233303430302F34363038303046
:1021800020210D0A0000000010B5044600E0641C88
:1021900020782028FBD02046FEF747FB232803D8D1
:1021A0002046FEF742FB38B90E490FA0FEF734F97E
:1021B00014A0FEF731F907E024210A48FEF7F8FBE6
:1021C00021460848FEF70DFB1BA10648FEF73AFC26
:1021D00018B900201A49087002E001201849087057
:1021E00010BD0000B500002043757272656E74204A
:1021F00075736572206E616D652069732025730D9E
:102200000A000000456E746572207375202B2075DE
:102210007365724E616D652C20757365724E616DCC
:102220006572206D757374206C656E6774682031FB
:102230007E333520210D0A00726F6F74000000009C
:10224000B400002070B500254FF4803404E08020F5
:1022500003F066FB00B103E02000A4F10104F6D115
:1022600000BF0CB9032070BD40F2FF5003F02EFBFD
:102270002846F8E770B5044605E01648056805F0FD
:10228000450000B100E0F8E700BF042003F048FB80
:1022900020B1042003F01AFB032070BD012003F0DD
:1022A0003FFB20B1012003F011FB0120F5E70948B5
:1022B00024380068A04201D01020EEE740F2FF5021
:1022C00003F004FB03482038006808210840C0B22E
:1022D000E3E70000342C014070B500264FF4803550
:1022E00005E01148046804F0450000B103E028004F
:1022F000A5F10105F5D100BF15B104F0040028B126
:102300000326042003F0E2FA304670BD012003F0FA
:1023100007FB18B10126012003F0D8FA40F2FF5064
:1023200003F0D4FA3046F0E7342C014010B505E054
:102330000B48046804F0450000B100E0F8E700BF76
:10234000042003F0EDFA20B1042003F0BFFA0320CB
:1023500010BD40F2FF5003F0B9FA0020F8E700008A
:10236000342C01402DE9F04105460E464FF000089F
:1023700005E02048076807F0450000B100E0F8E7F5
:1023800000BF042003F0CCFA28B1042003F09EFA29
:102390000320BDE8F081012003F0C2FA20B1012042
:1023A00003F094FA0120F4E7124824380068A842A8
:1023B00001D01020EDE740F2FF5003F087FA0D48FE
:1023C0002038046804F4604018B9200C308040467E
:1023D000DFE704F4005008B11320DAE704F480408A
:1023E00008B11020D5E704F4004008B10F20D0E771
:1023F0004046CEE7342C014070B500264FF48035BE
:1024000005E00F48046804F0450000B103E028002F
:10241000A5F10105F5D100BF15B104F0040028B104
:102420000326042003F052FA304670BD04F0400049
:1024300018B10026402003F049FA3046F5E70000C5
:10244000342C014010B50EF0C7F80849084800F0D8
:1024500043F9012806D10549054800F03FF8054831
:10246000006880470EF0CAF810BD000020800020F0
:1024700070600240B803002010B50EF0ADF80649B8
:10248000064800F029F918B10349044800F026F87D
:102490000EF0B4F810BD000020800010106402405F
:1024A00010B50EF099F80A490A4800F015F960B124
:1024B0000749084800F012F80021064800F028F803
:1024C0000021054800680EF009FD0EF097F810BDD8
:1024D00000800028B8640240240000200246094B16
:1024E0009A4201D2084801E00648103801F0005332
:1024F0001BB1064B0B40C36002E0044B0B408360F2
:102500007047000010640240006002407D0F7D0FA4
:1025100021B1026842F00102026003E0026822F089
:102520000102026070470000016821F001010160B2
:102530000021016041608160C16001612121416130
:102540004A49884204D13D21484A103A91608CE0C2
:1025500046491831884205D14FF47461434A103A14
:10256000916082E041493031884205D14FF47411C5
:102570003E4A103A916078E03C494831884205D1A2
:102580004FF07461394A103A91606EE0374960311A
:10259000884204D13649354A103AD16065E0334962
:1025A0007831884204D13349304A103AD1605CE036
:1025B0002E499031884204D12F492C4A103AD160DB
:1025C00053E02A49A831884205D14FF03D51274AAE
:1025D000103AD16049E02949884204D13D21274A77
:1025E000083A116041E025491831884205D14FF47D
:1025F0007461224A083A116037E02049303188423C
:1026000005D14FF474111D4A083A11602DE01B49A1
:102610004831884205D14FF07461184A083A116078
:1026200023E016496031884204D11149134A121F30
:1026300011601AE011497831884204D10D490F4ADE
:10264000121F116011E00D499031884204D10A49EE
:102650000A4A121F116008E00849A831884204D1D3
:102660004FF03D51054A121F116070471060024043
:102670003D000020400F002000003D20106402407B
:1026800021B1026842F48022026003E0026822F471
:1026900080220260704722B1036843F40023036084
:1026A00003E0036823F4002303600161704721B154
:1026B000026842F02002026003E0026822F0200279
:1026C00002607047014600200A6802F001020AB168
:1026D000012000E00020704770B502460020002471
:1026E0000025124EB24201D2114B01E00F4B103BBC
:1026F000104E0E4036B11E2606EAD124166806EAB0
:10270000040502E0566906F0800501F000560EB19E
:102710005C6800E01C68084E344004EA010616B10B
:102720000DB1012000E0002070BD000010640240E7
:10273000006002403C0F3C0F7D0F7D0F10B501F093
:1027400080034BB122B1436943F08003436103E04E
:10275000436923F08003436180290BD02AB10368C9
:1027600001F01E042343036004E0036801F01E042B
:10277000A343036010BD000010B500220268134B94
:102780001A40CC680B6823434C6923438C6923436C
:10279000CC6923430C6A23434C6A23438C6A23434A
:1027A0004C6B23438C6B23431A430260426922F033
:1027B0000702D1E90B3423431A4342610B6943609A
:1027C0004B6883608B68C36010BD00003F801CF0C5
:1027D0007FB504460E46224629492AA0FDF71CFE75
:1027E0000020009001900290039000E0641C20788B
:1027F0002028FBD021466846FDF7F3FF694626A056
:10280000FDF70AFE68460FF0CBFB0546002D31D0E0
:10281000012E06D0022E0CD0032E12D0042E27D16A
:1028200017E028460EF004FA69461FA0FDF7F4FDF4
:102830001FE028460EF022FD694622A0FDF7ECFDC0
:1028400017E028460EF09AFC694625A0FDF7E4FD46
:102850000FE028460FF0EEFA012804D1694627A0C0
:10286000FDF7DAFD03E069462EA0FDF7D5FD00E097
:1028700000BF03E0294634A0FDF7CEFD7FBD000078
:10288000892F010825733A20636F6D6D616E642096
:102890003D2025730D0A00007461736B4E616D65F8
:1028A000203D2025730D0A0064656C6574652074F5
:1028B00061736B2025732073756363657373210DDA
:1028C0000A00000073757370656E64207461736B29
:1028D0002025732073756363657373210D0A0000EF
:1028E000726573756D65207461736B202573207339
:1028F000756363657373210D0A00000077616B6572
:10290000207570207461736B2025732066726F6D63
:1029100020626C6F636B2073756363657373210D45
:102920000A00000077616B65207570207461736B1D
:102930002025732066726F6D20626C6F636B20665A
:1029400061696C210D0A0000746172676574203D35
:10295000202570206572726F722120706C65617322
:102960006520696E7075742072696768742074617F
:10297000736B206E616D652E0D0A000070470000BC
:1029800010B5012000F088F80DF026FE0021034864
:1029900000680EF0A3FA0DF031FE10BD20000020FB
:1029A00010B5082000F078F80DF016FE002103485D
:1029B00000680EF093FA0DF021FE10BD20000020FB
:1029C00010B5102000F068F80DF006FE0021034855
:1029D00000680EF083FA0DF011FE10BD20000020FB
:1029E0000EB501F043FF0121880302F035FB0321FE
:1029F000042004F0E5FC0421084604F0E1FC002179
:102A0000084604F0DDFC0120009000208DF8040051
:102A100008208DF8050001208DF80600684600F0BA
:102A200041F81820009000208DF804000C208DF84B
:102A3000050001208DF80600684600F033F80620F6
:102A40008DF8080003208DF8090000208DF80A0099
:102A500001208DF80B0002A802F088F909208DF8FA
:102A6000080003208DF8090001208DF80A008DF878
:102A70000B0002A802F07AF90A208DF80800032062
:102A80008DF8090002208DF80A0001208DF80B0056
:102A900002A802F06BF90EBD014908607047000002
:102AA000143C0140002123498279002A3AD00A4689
:102AB000126803689A430B461A600A1D126803687D
:102AC0009A430B1D1A60027911440A6803681A437D
:102AD0000A60184A0832126803689A43154B083393
:102AE0001A601A1D126803689A43124B0C331A605D
:102AF0004279102A0ED11A1F126803681A430D4B2F
:102B000008331A601A1D126803681A43094B0C3304
:102B10001A600DE00749427911440A6803681A43B4
:102B20000A6005E0027911440A6803689A430A6062
:102B300070470000003C014070B5ADF5147D0446BF
:102B400000E0641C20782028FBD080214748FDF756
:102B500051FF032246A12046FDF786FE58B103220D
:102B600044A12046FDF780FE28B1032242A1204661
:102B7000FDF77AFE90B92046FDF757FE032809D9E4
:102B80002046FDF752FE0646324621463748FDF7FD
:102B9000C2FE24E039A0FDF73FFC20E0802133484D
:102BA0000AF0F8F83148FDF740FE401E2F49085C56
:102BB0002F280AD10846FDF738FE2C494618224630
:102BC00033A13046FDF734FC09E02848FDF72DFE1F
:102BD0002649461822462FA13046FDF729FC2348F6
:102BE000FDF723FE00283ED002A920480AF04EFD42
:102BF0000546002D32D1029850B301221B490AA884
:102C000008F002F920BB1DE000264FF400712248B5
:102C1000FDF7F0FE01AB4FF400721F490AA808F05F
:102C200084FB064626B131461CA0FDF7F5FB0AE001
:102C3000194917A0FDF7F0FB0198B0F5007F00D20D
:102C400001E000BFE0E700BF0AA807F017F80AE0BC
:102C5000164917A0029AFDF7DFFB04E0034A134967
:102C600019A0FDF7D9FB0DF5147D70BDD8D8002053
:102C7000313A2F00303A2F00323A2F0066696C65E6
:102C8000206E616D65206572726F72210D0A000001
:102C9000257300002F257300C0D2002052656164A7
:102CA000204572726F723A25640D0A00572F010891
:102CB00025733A2066696C652073697A65203D202A
:102CC00025640D0A0000000025733A2066696C65D2
:102CD000206E616D65203D202573206572726F72D4
:102CE0002121210D0A0000002DE9F04104460020B9
:102CF0000DF0F8FB054600E0641C20782028FBD08E
:102D00000E2100200EF0C0F92046FDF78EFD06468C
:102D1000324638A12046FDF7A7FD08BB8021364882
:102D20000AF038F83448FDF780FD0646324633A1F4
:102D30003148FDF799FD20B931A0FDF76DFBBDE8E5
:102D4000F0812D48FDF771FD2B494618234633A22B
:102D500033A13046FDF76CFB274809F0E9FF43E05B
:102D6000032226A12046FDF77FFD58B103222EA1A4
:102D70002046FDF779FD28B103222CA12046FDF75E
:102D800073FD18B9204609F0D3FF2DE0022228A1D7
:102D90002046FDF769FDA8B98021174809F0FAFF20
:102DA0002046FDF742FD07461348FDF73EFD124958
:102DB00046183A4621463046FDF7ADFD0E4809F06B
:102DC000B7FF11E080210C4809F0E4FF0A48FDF745
:102DD0002CFD09494618234615A211A13046FDF7DE
:102DE00027FB054809F0A4FF294600200EF04CF906
:102DF00000BFA4E72E2E0000D8D80020313A2F00C3
:102E00005761726E6E696E673A20696E20726F6FDD
:102E10007420646972210D0A000000002F00000078
:102E20002573257300000000303A2F00323A2F003E
:102E30002E2F000070B5ADF5916D044600250020E1
:102E4000009001900290039000E0641C20782028FC
:102E5000FBD0214667A0FDF7DFFA80216848FDF727
:102E6000C9FD0CE0802D05D366A0FDF7D5FA0DF560
:102E7000916D70BD207862494855641C6D1C2078A6
:102E80002028EFD10DF58C615D480AF0FFFBF0B909
:102E90009DF86804C0F34010A8B1012258498EA8DB
:102EA00007F0B2FF78B90DF26940FDF7BEFC0646A7
:102EB00032460DF269416846FDF72DFD504958A094
:102EC000FDF7AAFA07E05EA0FDF7A6FACFE75CA03F
:102ED000FDF7A2FACBE700E0641C20782028FBD0A5
:102EE000002521465BA0FDF797FA80214448FDF7B5
:102EF00081FD0DE0802D06D359A0FDF78DFA8EA837
:102F000006F0BCFEB3E720783D494855641C6D1CB3
:102F10002078202802D020780028EBD1681E38497C
:102F2000085C2F2809D10846FDF77FFC3449461874
:102F30006A4652A13046FDF77BFA314950A0FDF7B1
:102F40006BFA0DF58C612E480AF0A0FB38B92C49BC
:102F500051A0FDF761FA8EA806F090FE87E70622E1
:102F6000274904A807F050FF00283AD125E00DF5C5
:102F700090634F4904A8DDF8842408F07CFEDDF856
:102F80008014DDF88404884209D04AA0FDF744FA91
:102F90008EA806F073FE04A806F070FE67E7DDF861
:102FA0008404FF2809D84DA0FDF736FA8EA806F054
:102FB00065FE04A806F062FE59E70DF284434FF463
:102FC00080723B498EA808F0B0F90028CFD047A006
:102FD000FDF722FA8EA806F051FE04A806F04EFE78
:102FE00006E0074947A0FDF717FA8EA806F046FE4F
:102FF00000BF3CE73120737472282573290D0A0045
:10300000D8D8002066696C65207061746820697387
:1030100020746F6F206C6F6E672E0D0A0000000029
:1030200066696C6520706174682028257329206F9B
:1030300070656E20736375657373210D0A0000005F
:1030400066696C652070617468206572726F7221A8
:103050000D0A00003220737472282573290D0A00AE
:10306000232366696C65207061746820697320741D
:103070006F6F206C6F6E672E0D0A000025730000C5
:1030800064657374696E6174696F6E2070617468D1
:1030900028257329000000002366696C6520706193
:1030A0007468282573292065787A69742E0D0A00C2
:1030B000C0D20020665F7772697465206466696CAF
:1030C00065206661696C2E20706C65617365206394
:1030D0006865636B2064660D0A000000636F707999
:1030E0002066696E6973680D0A000000665F72658C
:1030F0006164207366696C65206661696C2E0D0AD7
:10310000000000006F70656E207061746828257380
:1031100029206661696C2E0D0A000000FEB5044688
:103120004FF0FF3500E0641C20782028FBD00222FD
:103130002DA12046FDF729FB08B9002513E0052243
:103140002AA12046FDF721FB08B901250BE0032247
:1031500028A12046FDF719FB08B9022503E026A0A7
:10316000FDF75AF9FEBD00E0641C20782028FBD151
:1031700000E0641C20782028FBD000200090019003
:1031800002902068009060680190A06802900BE0B7
:103190002078302802DB2078392804DD204921A05E
:1031A000FDF73AF9DEE7641C20780028F0D1684684
:1031B000FDF7DEFA064625B1012D06D0022D0CD111
:1031C00007E030460DF0AEFB0BE030460DF05AFA4A
:1031D00007E030460DF0F4FA03E007A0FDF71CF914
:1031E00000BF00BF00BFBDE773640000666C617381
:1031F0006800000072616D00636F6D6D616E642028
:103200006572726F72212064756D702073642F6611
:103210006C6173682F72616D206E756D0D0A000010
:10322000482F010825733A20636F6D6D616E64202D
:103230006572726F72212064756D70202B2073652A
:1032400063746F72206E756D6265720D0A00000006
:1032500070B5ADF5147D0446002500E0641C2078AF
:103260002028FBD080214B48FDF7C4FB4FF40071B0
:103270004948FDF7BFFB05E0227828466D1C46490A
:103280000A54641C20782028F6D100E0641C2078C1
:103290002028FBD020783E2876D1641C00E0641CF6
:1032A00020782028FBD003223CA12046FDF7DCFA41
:1032B00058B103223AA12046FDF7D6FA28B10322DD
:1032C00038A12046FDF7D0FA90B92046FDF7ADFAB7
:1032D000032809D92046FDF7A8FA064632462146BA
:1032E0002C48FDF718FB24E02FA0FDF795F820E00F
:1032F0008021284809F04EFD2648FDF796FA401E29
:103300002449085C2F280AD10846FDF78EFA214986
:103310004618224629A13046FDF78AF809E01D48E3
:10332000FDF783FA1B494618224625A13046FDF7D2
:103330007FF802A917480AF0A9F900BB9DF8100010
:10334000202817D1022213490AA807F05DFD88B989
:103350000AA8029906F089FE0F48FDF766FA0646AC
:1033600001AB32460C490AA808F085FC0AA806F011
:1033700085FC0CE013A0FDF74FF808E004E00549D8
:1033800016A0FDF749F802E019A0FDF745F80DF584
:10339000147D70BDD8D80020C0D20020313A2F0053
:1033A000303A2F00323A2F0066696C65206E616DED
:1033B00065206572726F72210D0A0000257300008E
:1033C0002F2573006D6179626520697320646972CD
:1033D000206572726F72210D0A00000066696C65CB
:1033E000202573206E6F742065786973740D0A0050
:1033F0006572726F7220636F6D6D616E642E0D0A5F
:103400000000000070B5044600E0641C207820280D
:10341000FBD080212048FDF7EDFA2046FDF705FAA4
:1034200020B980211C4809F0B5FC2AE002221BA12A
:103430002046FDF719FA58B1032219A12046FDF7DD
:1034400013FA28B1032217A12046FDF70DFA48B957
:103450002046FDF7EAF905462A4621460E48FDF7C3
:103460005AFA0EE080210C4809F094FC0A48FDF756
:10347000DCF90949451823460BA20CA12846FCF7A4
:10348000D7FF0548FDF7D1F928B14FF4007209497B
:10349000014809F0FFFE70BDD8D80020313A000085
:1034A000303A2F00323A2F002E2F0000257325735B
:1034B00000000000C0D2002070B5044600E0641C8B
:1034C00020782028FBD080212848FDF793FA204659
:1034D000FDF7ABF920B98021244809F05BFC3CE002
:1034E000022223A12046FDF7BFF958B1032221A1F2
:1034F0002046FDF7B9F928B103221FA12046FDF7A8
:10350000B3F948B92046FDF790F905462A46214609
:103510001648FDF700FA20E08021144809F03AFC33
:103520001248FDF782F9401E1049085C2F280AD185
:103530000846FDF77AF90D49451822460FA128469D
:10354000FCF776FF09E00948FDF76FF907494518D0
:1035500022460BA12846FCF76BFF0448FDF765F9EE
:1035600010B1024809F04EFE70BD0000D8D800200E
:10357000313A0000303A2F00323A2F002573000014
:103580002F25730010B5044600E0641C2078202825
:10359000FBD0022220A12046FDF7F7F830B91FA08A
:1035A000FCF73AFF20A009F07FFF33E005221FA1BE
:1035B0002046FDF7EAF830B91EA0FCF72DFF20A049
:1035C00009F072FF26E003221EA12046FDF7DDF878
:1035D00030B91DA0FCF720FF1DA009F065FF19E020
:1035E0002046FDF722F990B90CA0FCF715FF0EA0BC
:1035F00009F05AFF0FA0FCF70FFF11A009F054FFCC
:1036000011A0FCF709FF12A009F04EFF02E011A083
:10361000FCF702FF10BD0000736400005344204318
:103620006172643A0D0A0000303A0000666C617302
:1036300068000000464C4153483A0D0A0000000063
:10364000313A000072616D0052414D3A0D0A00009E
:10365000323A0000706C6561736520696E70757434
:10366000206466205B73642F666C6173682F7261DF
:103670006D5D000070B5002550E02A4850F82540E7
:10368000002C4AD028A0FCF7C7FE617831A0FCF7D7
:10369000C3FE2078012801D136A00AE02078022854
:1036A00001D136A005E02078032801D135A000E043
:1036B00036A0014637A0FCF7AFFEA17839A0FCF791
:1036C000ABFEE1783EA0FCF7A7FEE18843A0FCF743
:1036D000A3FE218948A0FCF79FFE54A02169FCF7B6
:1036E0009BFE5AA06169FCF797FE60A0E169FCF7B8
:1036F00093FE6CA0216AFCF78FFE70A0616AFCF754
:103700008BFE75A0A16AFCF787FE79A0E16AFCF741
:1037100083FE84A0216BFCF77FFE6D1C032DACDBC8
:1037200070BD0000A41401202A2A2A2A2A2A2A2A43
:103730002A2A2A2A2A2A2A2A2A2A2A2A2A2A2A2AE9
:103740002A2A2A2A2A2A2A2A2A2A2A2A2A2A2A0DF6
:103750000A000000506879736963616C20647269C3
:103760007665206E756D62657220282564290D0AC4
:10377000000000006661743132000000666174313F
:10378000360000006661743332000000756E6B6EA7
:103790006F77000066617420747970652028257346
:1037A000290D0A00536563746F727320706572206F
:1037B000636C75737465722020282564290D0A00D6
:1037C0004E756D626572206F662046415420636FAE
:1037D0007069657320282564290D0A0046696C65A7
:1037E0002073797374656D206D6F756E7420494414
:1037F00020282564290D0A004E756D626572206FC0
:103800006620726F6F74206469726563746F727979
:1038100020656E7472696573202846415431322FD9
:1038200031362920282564290D0A00004C61737463
:1038300020616C6C6F636174656420636C75737474
:1038400065722020282575290D0A00004E756D62CD
:103850006572206F66206672656520636C7573748F
:1038600065727320282575290D0A00004E756D625A
:103870006572206F662046415420656E74726965DA
:10388000732C203D206E756D626572206F6620631B
:103890006C757374657273202B203220282564297F
:1038A0000D0A0000536563746F7273207065722097
:1038B00046415420282564290D0A0000566F6C7576
:1038C0006D6520737461727420736563746F722008
:1038D000282564290D0A0000464154207374617242
:1038E0007420736563746F7220282564290D0A00A3
:1038F000526F6F74206469726563746F727920739C
:103900007461727420736563746F72202846415429
:1039100033323A436C757374657223292028256409
:10392000290D0A00446174612073746172742073FC
:103930006563746F7220282564290D0A0000000059
:1039400070B5044600200CF0CDFD054600E0641C77
:1039500020782028FBD00E2100200DF095FB0322BB
:1039600015A12046FCF780FF58B1032213A1204681
:10397000FCF77AFF28B1032211A12046FCF774FF5F
:1039800018B9204609F082FA11E080210D4809F0AB
:1039900001FA0C48FCF749FF0A49461823460AA2D7
:1039A0000AA13046FCF744FD064809F06FFA2946A3
:1039B00000200DF069FB70BD313A2F00303A2F0026
:1039C000323A2F00D8D800202E2F000025732573FF
:1039D0000000000010B5044600E0641C2078202898
:1039E000FBD002221CA12046FCF7CFFE58B91BA039
:1039F00009F0A4F918B91AA0FCF70EFD2AE01DA0E1
:103A0000FCF70AFD26E005221FA12046FCF7BDFEBB
:103A100058B91FA009F092F918B91EA0FCF7FCFCD8
:103A200018E022A0FCF7F8FC14E0032224A12046B1
:103A3000FCF7ABFE58B923A009F080F918B922A011
:103A4000FCF7EAFC06E026A0FCF7E6FC02E029A071
:103A5000FCF7E2FC10BD000073640000303A000087
:103A60006D6F756E74207364207363756565737311
:103A7000210D0A006D6F756E742073642066616994
:103A80006C210D0A00000000666C61736800000084
:103A9000313A00006D6F756E7420666C617368203A
:103AA00073637565657373210D0A00006D6F756E24
:103AB0007420666C617368206661696C210D0A0070
:103AC00072616D00323A00006D6F756E7420726124
:103AD0006D2073637565657373210D0A0000000026
:103AE0006D6F756E742072616D206661696C210D59
:103AF0000A000000706C6561736520696E707574F2
:103B0000206D6F756E742073642F666C6173682FFF
:103B100072616D0D0A00000070B5044600200CF0C3
:103B2000E1FC054600E0641C20782028FBD00E2133
:103B300000200DF0A9FA032223A12046FCF794FEF1
:103B400058B1032221A12046FCF78EFE28B10322A2
:103B50001FA12046FCF788FE60B92046FCF765FEF1
:103B6000032803D9204609F0C9FD27E019A0FCF776
:103B700053FC23E080211B4809F00CF91948FCF79D
:103B800054FE401E1749085C2F280AD10846FCF74E
:103B90004CFE14494618224613A13046FCF748FC57
:103BA00009E01048FCF741FE0E49461822460FA1D5
:103BB0003046FCF73DFC0B4809F0A0FD29460020EB
:103BC0000DF062FA70BD0000313A2F00303A2F003C
:103BD000323A2F00646972656374206572726F7285
:103BE000210D0A00D8D80020257300002F2573006E
:103BF00070B5ADF5127D044600E0641C20782028E5
:103C0000FBD000200CF06EFC06460E2100200DF0CB
:103C10003BFA80213B48FCF7EDFE03223AA1204607
:103C2000FCF722FE60B1032238A12046FCF71CFEFF
:103C300030B1032236A12046FCF716FE002821D120
:103C40002046FCF7F2FD032818D96946204607F004
:103C5000B5FE20B921462FA0FCF7DEFB4AE00A2280
:103C6000214608A807F0D0F8002843D121462DA00E
:103C7000FCF7D2FB08A806F001F83BE030A0FCF707
:103C8000CBFB37E080211F4809F084F81D48FCF782
:103C9000CCFD401E1B49085C2F280AD10846FCF7C2
:103CA000C4FD1849451822462AA12846FCF7C0FB46
:103CB00009E01448FCF7B9FD12494518224626A12F
:103CC0002846FCF7B5FB69460E4807F077FE20B999
:103CD0000C4910A0FCF7A0FB0CE00A22094908A837
:103CE00007F092F830B907490EA0FCF795FB08A839
:103CF00005F0C4FF314600200DF0C6F90DF5127D28
:103D000070BD0000D8D80020313A2F00303A2F0083
:103D1000323A2F0066696C652025732065786973D7
:103D2000740D0A0066696C652025732063726561F5
:103D3000746520737563657373210D0A00000000BC
:103D400066696C65206E616D65206572726F7221A7
:103D50000D0A0000257300002F25730008B5002010
:103D60000CF0C0FB04460D2100200DF08DF90A492E
:103D70000AA0FCF751FB214600200DF085F90EF05A
:103D80005DF9009006E000F0F1FC4FF4FA6168463E
:103D90000CF0F2FEF7E70000AA2E01082573202E92
:103DA0002E2E0D0A000000002DE9FC4107460D46AD
:103DB0000026002400200090019008205B49086044
:103DC00010204860402088600020C8604FF4806068
:103DD0000861084601F0F0FD1020FEF74BFA04469A
:103DE00014B12046BDE8FC815148008800044F49C9
:103DF000086037204860402088600020C8604FF489
:103E000080600861084601F0D7FD3720FEF732FADE
:103E100004460CB12046E5E74FF0FF304549086005
:103E200008204860302088600220C86000200861B7
:103E300001204861084601F059FD00203B49086017
:103E400033204860402088600020C8604FF48060C4
:103E50000861084601F0B0FD3320FEF70BFA044676
:103E60000CB12046BEE70CE04FF4001001F058FD05
:103E700038B1314800684DF82600761C022E00D378
:103E800007E02D484C38006840F22A6108400028BD
:103E9000EAD000BF082001F043FD20B1082001F066
:103EA00015FD04209EE7022001F03AFD20B102201A
:103EB00001F00CFD022095E7202001F031FD20B13A
:103EC000202001F003FD06208CE74FF4007001F084
:103ED00027FD28B14FF4007001F0F8FC072081E7BE
:103EE00040F2FF5001F0F2FC00980006009901F446
:103EF0007F4140EA0120009901F47F0140EA11204E
:103F0000009940EA1160686001980006019901F487
:103F10007F4140EA0120019901F47F0140EA11202C
:103F2000019940EA1160286020465BE770E90020B3
:103F3000AC03002084E90020802C01402DE9F041F1
:103F40008AB04FF00008264B0FCB05AC0FC4244BB2
:103F500010330FCB01AC0FC40024224D39E00122F5
:103F600009A9284603F019FA0998070C099886B29E
:103F700000F0FCFB1C4885420ED2600005A931F818
:103F80001000B84205D16000401C31F81000B0426A
:103F900016D04FF001081DE01348854210D3201FB2
:103FA000400001A931F81000B84206D1201F40009E
:103FB000401C31F81000B04202D04FF0010809E077
:103FC000641C2D1D042C01D1074D02E0082C00D1EA
:103FD00000E0C4E700BF40460AB0BDE8F081000041
:103FE000B03101080000040800000608F0B50A46D8
:103FF00000210023002400BF3DE0012505FA01F364
:10400000156805EA03049C4234D105684F00032675
:10401000BE40B543056015794E00B540066835438E
:1040200005601579012D02D01579022D16D185680C
:104030004F000326BE40B543856055794E00B5401C
:10404000866835438560456801268E40B5434560E6
:10405000456896798E40B6B235434560C5684F00D5
:104060000326BE40B543C560D5794E00B540C6684D
:104070003543C560491C1029BFD3F0BDF0B50023FE
:1040800000244D07ED0E02FA05F3CE1000F12005D5
:1040900055F826504E07F70E0F26BE40B543CF10F9
:1040A00000F1200646F82750CE1000F1200555F803
:1040B000265045EA0304CE1000F1200545F82640BD
:1040C000F0BD0246002013690B400BB1012000E057
:1040D000002070470183704710B504460723012272
:1040E00021460E48FDF768FE0C48FDF7C1FE0C485E
:1040F00000880C4908800023C82209490A48006842
:104100000DF0DAFC10B10648008810BDA72207495F
:1041100007A0FCF781F903480088F6E7002001407A
:104120009A0300209C03002094030020B12F010873
:1041300025732D2564207851756575655265636515
:10414000697665206572726F72210D0A00000000A9
:104150002DE9F04107460C460025002608E03846C8
:10416000FFF7BAFF054405200CF0ECFC701CC6B24A
:10417000A642F4DBB5FBF4F080B2BDE8F0810000AC
:1041800010B52DED088B0A211020FFF7E1FF08EE96
:10419000100AB8EE480A10EE100A0EF0DFFD41ECEE
:1041A0001A0B9FED1A0B53EC102B0EF0E3FB41ECB6
:1041B000190B9FED180B53EC102B51EC190B0EF053
:1041C000E3FC41EC1B0B9FED150B53EC102B0EF099
:1041D00037FA41EC1A0B9FED130B53EC102B0EF03A
:1041E00087F941EC190B9FED110B53EC102B51EC9F
:1041F000190B0EF0BFFB41EC190B41EC1A0B0EF042
:1042000077FB04B22046BDEC088B10BD666666667F
:1042100066664A3F52B81E85EB51E83F7B14AE47B5
:10422000E17A643F00000000000039400000000017
:104230000000594000BFFEE72DE9FF4104460F464C
:1042400015461E460121880300F0E6FE0121880381
:1042500000F0F2FE00214FF4804000F0EDFEADF8DA
:104260000070ADF80240ADF804600020ADF8060023
:1042700002200290ADF80C506946074800F0BCF8E7
:1042800001220221044803F053F80121024800F002
:10429000A7F8BDE8FF8100000038004070B5054672
:1042A000002400260A20B5FBF0F500BF09E004EB6E
:1042B00084001F4931F81000A84200D103E0601CBF
:1042C000C4B20B2CF3D300BF002000F059FF0B2C1D
:1042D00001D1012070BD04EB8402154B03EB4202B7
:1042E000918804EB840203EB4202508800F04EFFF9
:1042F0001048006840F080600E49086000BF0D481B
:10430000006800F000600028F9D004EB8400084940
:1043100001EB4000C68804EB840001EB40000089FB
:1043200046EA002646F4007603490E800020D1E7D5
:10433000DA2F0108003802402038004070B590B0F4
:1043400004460E4615460121480500F045FE224868
:10435000FEF7EAF800BF2048FEF7B4F90028FAD1CA
:1043600000901E4801900294402003900495002084
:1043700005904FF480600690400007908000089000
:104380004011099040020A9000200B900C900D9073
:104390000E9069461048FEF7EFF9002231460E48AC
:1043A000FEF779F901210C48FEF76AF90122102184
:1043B0000948FEF7C3F90F208DF83C0000208DF866
:1043C0003D008DF83E0001208DF83F000FA800F061
:1043D000CDFC10B070BD0000706002400C38004091
:1043E00021B1828B42F48062828304E0828B4FF69B
:1043F000FF331A40828370472DE9F04F00250223D6
:1044000000244FF001090022002600279446904620
:10441000B0F81CA04FF2400B0AEA0B0AA0F81CA04F
:104420004FF0020AA0F820A0858BD1F808A0BAF1BD
:10443000020F01D100BF82E0B1F804A0BAF1000F71
:1044400002D14FF0010901E04FF00209DFF834A179
:10445000DAF800A00AF4000ABAF1000F09D0DFF878
:1044600024A1DAF800A02AF4000ADFF818B1CBF88A
:1044700000A0DFF810A10AF17C0ADAF800A0CAF364
:10448000881CDFF800A10AF17C0ADAF800A0CAF360
:104490000278DFF8F0A0AAF1040ADAF800A00AF026
:1044A0003F07DFF8E0A0AAF1040ADAF800A00AF456
:1044B000800ABAF5800F08D1DFF8CCA0BAFBF7FA72
:1044C0000AFB0CFABAFBF8F607E0DFF8C0A0BAFB6B
:1044D000F7FA0AFB0CFABAFBF8F6B1F806A0BAF53F
:1044E000007F0ED14FEA162A0AEB8A0A4FEA4A0ADF
:1044F000D1F808B0BAFBFBFA0AF1050A1FFA8AF2F2
:104500000FE04FEA491AB6FBFAFA0AEB8A0A4FEAB9
:104510004A0AD1F808B0BAFBFBFA0AF1050A1FFAF9
:104520008AF24FF00A0AB2FBFAF202F00104A2EB9F
:10453000040ACAF34F034FF6FF7A0AEA0424022B57
:1045400001DBFF2B01DD02230024B1F806A04AEABB
:10455000040A4AEA030AA0F820A0B1F804A0B1F8BE
:104560000CB04AEA0B0AB1F802B04AEA0B0AB1F8F9
:1045700000B04AEA0B0A4AF4006A4AEA0505858354
:10458000BDE8F08F0838024000127A000024F400E1
:1045900010B501210148FDF7BBFF10BD706002405E
:1045A00010B500210148FDF7B3FF10BD7060024057
:1045B0001CB50121022000F00FFD4FF44070009067
:1045C00001208DF8040000208DF8060003208DF8EE
:1045D000050001208DF8070069460548FFF706FD34
:1045E0000120044908600449C1F8A4021CBD000070
:1045F00000040240A08240420080404270B5044660
:104600001548006820F440201349086008460068F7
:1046100040F480200860002010490860002517E061
:10462000E0090E49091D08606006040E022004F02E
:1046300045FD01200A49C1F8A002022004F03EFD18
:10464000002006490860022004F038FD681CC5B24D
:10465000082DE5DB70BD000000040240A08240424E
:104660000080404210B50F48006820F440200D49FA
:1046700008600846006840F48020086001200A496C
:1046800008600A49C1F8A002042004F017FD0020C8
:1046900005490860042004F011FD00200349C1F819
:1046A000A00210BD00040240A482404200804042AB
:1046B00010B50F48006820F440200D4908600846F6
:1046C000006840F48020086000200A4908600A4918
:1046D000C1F8A402042004F0F1FC0120054908609F
:1046E0000549C1F8A402042004F0E8FC10BD000054
:1046F00000040240A08240420080404210B50024E5
:104700001348006820F440201149086008460068FA
:10471000086001200F49086004F0D0FC01200E4918
:10472000C1F8A00204F0CAFC07E0601CC4B2FA2C75
:1047300003DDFFF7BDFF012010BD0648803800688B
:104740000028F2D10349091F086000BFF4E7000008
:1047500000040240A4824042008040424CF6CC401B
:1047600001490860704700000030004010B500F0BB
:1047700013F810BD70B505460C4645F2555000F0D3
:104780001FF8284600F010F8204600F013F800F05B
:1047900003F8FFF7E3FF70BD4AF6AA20014908605D
:1047A0007047000000300040014948607047000039
:1047B0000030004001498860704700000030004030
:1047C0000149086070470000003000401CB50446F5
:1047D00000200190009022480088000421490860D0
:1047E0000D204860402088600020C8604FF4806041
:1047F0000861084601F0E0F81B480068009002E0FC
:10480000194800680090009800F045000028F7D093
:10481000012001F085F820B1012001F057F80120B6
:104820001CBD042001F07CF820B1042001F04EF8FA
:104830000320F5E70C48243800680D2801D010202B
:10484000EEE740F2FF5001F041F8074820380068D9
:1048500001900198C0F3432020700020E0E70000A1
:10486000AC03002070E90020342C01401CB501216C
:10487000112000F0B1FB1820009000208DF80400FA
:1048800003208DF8050001208DF8070069460648D1
:10489000FFF7ACFB0120009002208DF8070069466D
:1048A0000248FFF7A3FB1CBD0010024000000240BD
:1048B00000245A495AA0FBF7AFFD002108460CF02E
:1048C0002DF9A9E04FF0FF3101200AF02BF80A2062
:1048D0000CF038F9002403E0641C0A200CF032F9D3
:1048E00001215248FFF7EDFB0128F5D0C82C04DD6B
:1048F0004A494FA0FBF790FD08E0002C06DD474930
:1049000051A0FBF789FD042053490870002403E0FF
:10491000641C0A200CF016F908215048FFF7D1FB5F
:104920000028F5D0502C16DD4D48006808B901204C
:1049300000E000204A49086038494AA0FBF76CFDB6
:104940004E480078401F4D490870084601780078AD
:1049500003F021FD10E0002C0EDD4148006808B98D
:10496000012000E000203E4908602C4944A0FBF7EC
:1049700053FD012038490870002403E0641C0A201C
:104980000CF0E0F810213548FFF79BFB0028F5D02C
:10499000502C21DD3248001F006808B9012000E0DA
:1049A00000202F49091F08603948D0F89C0208B937
:1049B000012000E000202A490860184935A0FBF7D3
:1049C0002BFD2E480078401D2C49087008460178C0
:1049D000007803F0E0FC1BE0002C19DD2048001FEC
:1049E000006808B9012000E000201D49091F086087
:1049F0002748D0F89C0208B9012000E0002018499F
:104A00000860064929A0FBF707FD0320124908703A
:104A100000F0E8FB054600BF54E70000D62E010871
:104A20002573202E2E2E0D0A0000000000000240EB
:104A3000257320504130206C6F6E67207072657353
:104A400073210D0A000000002573205041302070B2
:104A500072657373210D0A004400002000100240AB
:104A60009C024042257320504533206C6F6E6720B6
:104A70007072657373210D0A000000003800002079
:104A8000257320504533207072657373210D0A0021
:104A900000004042257320504534206C6F6E672023
:104AA0007072657373210D0A000000002573205099
:104AB0004534207072657373210D0A0008B500201B
:104AC0000BF010FD04460D2100200CF0DDFA184912
:104AD00018A0FBF7A1FC214600200CF0D5FA1848DD
:104AE00018A3012244F62061009017A00DF030FCBD
:104AF000174908600DF0A2FA0546002003462A4631
:104B000001210090124800680DF05AFC0FE0114896
:104B1000006808B9012000E000200E4908604FF449
:104B2000FA500CF00FF802490BA0FBF775FCEEE70A
:104B3000962E01082573202E2E2E0D0A000000004F
:104B4000657C00085431000074696D6572310000A5
:104B50001C0000209802404225730D0A000000004E
:104B600000200BF0BFFC04460D2100200CF08CFA55
:104B70000C490DA0FBF750FC214600200CF084FAF4
:104B80000FE00C48006808B9012000E00020094946
:104B9000086042F210700BF0D5FF024906A0FBF747
:104BA0003BFCEEE7A02E01082573202E2E2E0D0AC9
:104BB000000000009C02404225730D0A0000000026
:104BC0001CB50121084600F007FAC0200090012022
:104BD0008DF8040000208DF8060003208DF80500F4
:104BE00001208DF8070069460348FFF7FFF9C0214F
:104BF0000148FFF76FFA1CBD0000024010B50548E0
:104C00000CF0E2F804A0FBF707FC024910A0FBF748
:104C100003FC10BDC0D200204E616D65092020202C
:104C200053746174757320205072696F726974795E
:104C3000202057617465724D61726B094E756D204D
:104C4000204C6F676C6576656C0D0A0D0A000000DC
:104C500025730D0A0000000008B511A0FBF7DCFB6E
:104C60001648D0F8000200901448D0F80832D0F866
:104C70000422D0F8101212A0FBF7CEFB1D48D0F88A
:104C8000000200901B48D0F80832D0F80422D0F877
:104C9000101219A0FBF7C0FB01A0FBF7BDFB08BD7C
:104CA0002A2A2A2A2A2A2A2A2A7374727563742ABB
:104CB0002A2A2A2A2A2A2A0D0A000000C0D4002003
:104CC00075617274316669666F3A206C6F737442F5
:104CD000797465733D25752C20696E3D25752C20F2
:104CE0006F75743D25752C2073697A653D25750DAA
:104CF0000A000000540400206D4C6F674669666F1F
:104D00003A20206C6F737442797465733D25752C5D
:104D100020696E3D25752C206F75743D25752C20FE
:104D200073697A653D25750D0A00000000BFFEE736
:104D300000200BF0D7FB04460D2100200CF0A4F955
:104D4000054906A0FBF768FB214600200CF09CF902
:104D500001E003F05FFDFCE77E2E01082573202EA5
:104D60002E2E0D0A000000007047000070B50021D3
:104D700000230F22C4781CB3174C246804F4E064A9
:104D8000C4F5E064C4F30721C1F10404E3B20A41AD
:104D900044789C40E1B28478144021430C07210EF2
:104DA0000E4C05786155047804F01F050124AC40D1
:104DB00005786D11AD0005F1E025C5F8004109E069
:104DC000047804F01F050124AC40054D06787611E7
:104DD00045F8264070BD00000CED00E000E400E066
:104DE00080E100E002490143024A1160704700007F
:104DF0000000FA050CED00E010B503A205A108487B
:104E0000FBF70AFB10BD000032323A34363A323238
:104E1000000000004F6374203133203230313600FF
:104E20006C36010830B52DED0A8B83B00CF0D2FD45
:104E3000044620460DF08BFD41EC1C0B9FED1A0B38
:104E400053EC102B0DF096FD41EC1B0B9FED180B56
:104E500053EC102B0DF0F4FB41EC1A0B9FED160BED
:104E600053EC102B0DF086FD41EC190B9FED120B4E
:104E700053EC102B0DF07CFE41EC180B0DF006FBF3
:104E8000054628460DF06AFF41EC180B4FF44840E8
:104E900053EC182BCDE9004009A0FBF7BDFA03B095
:104EA000BDEC0A8B30BD0000000000000000F03FA8
:104EB000000000000000E940000000000000594030
:104EC0004D656D6F727920757365642025662525A3
:104ED0002C20467265652053697A65203D20256443
:104EE0002C20546F74616C203D2025640D0A000055
:104EF00070B50DF0A3F804464FF47A70B4FBF0F5EA
:104F00002246294601A0FBF787FA70BD53797465E4
:104F10006D2074696D65732066726F6D20626F6FAE
:104F200074206973202575202873292C20737973C8
:104F300074656D207469636B203D20257520286D94
:104F400073292E0D0A00000010B5054800680CF00A
:104F500071FF012802D003A0FBF75EFA10BD00002C
:104F60002C00002077616B65207570207461736B75
:104F700020707854656D70726574757265546173D4
:104F80006B2066726F6D20626C6F636B2066616967
:104F90006C210D0A0000000010B5054800680CF0F7
:104FA00049FF012802D003A0FBF736FA10BD00002C
:104FB0002800002077616B65207570207461736B29
:104FC000207274632066726F6D20626C6F636B2059
:104FD0006661696C210D0A0029B1064A1268024314
:104FE000044B1A6004E0034A12688243014B1A60C2
:104FF000704700003038024029B1064A1268024367
:10500000044B1A6004E0034A12688243014B1A60A1
:10501000704700003438024029B1064A1268024342
:10502000044B1A6004E0034A12688243014B1A6081
:10503000704700004038024029B1064A1268024316
:10504000044B1A6004E0034A12688243014B1A6061
:10505000704700002038024029B1064A1268024316
:10506000044B1A6004E0034A12688243014B1A6041
:10507000704700004438024029B1064A12680243D2
:10508000044B1A6004E0034A12688243014B1A6021
:105090007047000024380240F0B5002100220024AF
:1050A000022500260223324F3F6807F00C0121B190
:1050B000042905D0082937D105E02E4F076036E0D6
:1050C0002D4F076033E02A4F3F1F3F68C7F38056DC
:1050D000274F3F1F3F6807F03F036EB1264FB7FBD6
:1050E000F3F7DFF88CC0ACF1040CDCF800C0CCF3B3
:1050F000881C07FB0CF40CE01E4FB7FBF3F7DFF83E
:1051000070C0ACF1040CDCF800C0CCF3881C07FBC9
:105110000CF4174F3F1F3F68C7F301477F1C7D000A
:10512000B4FBF5F7076002E0124F076000BF00BF55
:105130000F4F3F6807F0F0010909104F7A5C0768CC
:10514000D74047600A4F3F6807F4E051890A0B4F88
:105150007A5C4768D7408760054F3F6807F4604135
:10516000490B064F7A5C4768D740C760F0BD000026
:10517000083802400024F40000127A0000000020E9
:10518000014988667047000000004742820142EAF8
:105190000172014B1A6070478438024030B10749F0
:1051A000096841F00401054A116005E003490968F6
:1051B00021F00401014A1160704700000008065008
:1051C00001460020034A12680A400AB1012000E0AB
:1051D000002070470408065001480068704700002E
:1051E0000808065010B500BF0120FFF7E9FF0028AE
:1051F000FAD0FFF7F1FF10BD70B542F21075002430
:1052000001214020FFF7F8FE0120FFF7C7FF06E06D
:10521000601C84B200BF2800A5F10105FBD101206C
:10522000FFF7CEFF18B942F210708442F0DB42F271
:105230001070844201DB012070BD0020FCE70000FB
:1052400010B50A48006800F4807040B10748006853
:1052500020F480700549086005A0FBF7DDF80748D9
:10526000006840F400300549086010BD0C2800407B
:10527000414C41524D2041210D0A0000143C014097
:10528000014600BF081100EB8000420001F00F0052
:105290001044C0B270470146002204E0501CC2B264
:1052A000A1F10A00C1B20A29F8DA100741EA106038
:1052B00070470000F0B504460D4616461F46002311
:1052C00000BF00F06FF90028FBD10A480368C3F360
:1052D0000740FFF7D5FF2070C3F30420FFF7D0FF8E
:1052E000287003F03F00FFF7CBFF3070C3F342306C
:1052F0003870F0BD04280040F0B504460D4616464F
:105300001F46002300BF00F04DF90028FBD10A48DA
:105310000368C3F30540FFF7B3FF2070C3F3062013
:10532000FFF7AEFF287003F07F00FFF7A9FF307092
:10533000C3F387503870F0BD0028004010B541F627
:10534000FF743948006840F080503749086037489A
:10535000006840F4807035490860002000F094F83F
:1053600045F25A0188425DD02F483030006840F045
:1053700001002D493031086004E0601E84B2052030
:1053800003F076FE34B128483030006800F00200A7
:105390000028F2D024B926A0FBF73EF8012010BD6A
:1053A00021483030006840F480701F493031086077
:1053B0000846006840F400400860CA20214908609F
:1053C0005320086000F040F808B10220E7E7FF2012
:1053D0001C49143908600846006840F4FE00086063
:1053E00018481C38006820F0400016491C39086035
:1053F000081D006820F08000091D0860FF20114989
:10540000086000232D220A21162000F079F80123DC
:105410001A220921102000F041F845F25A0100201B
:1054200000F0E4F80020BAE7403802400070004085
:105430004C5345206F70656E206661696C210D0AC2
:1054400000000000242800404FF480310D4800681F
:1054500000F0400008B1002070470A48006840F0A2
:105460008000084A106000E0491E29B10548006824
:1054700000F040000028F7D009B90120ECE7002037
:10548000EAE700000C28004001460022024800EB39
:105490008102106870470000502800402DE9F0415B
:1054A00006460C4615460027CA20144908605320BA
:1054B0000860FFF7C9FF10B10120BDE8F081304658
:1054C000FFF7E9FE000403F0070140EA41382046F7
:1054D000FFF7E1FE48EA00282846FFF7DCFE48EA2D
:1054E000000706482038076004481838006820F094
:1054F00080000249183908600020DEE724280040B7
:105500002DE9F04106460C4615460027CA201449ED
:10551000086053200860FFF797FF10B10120BDE835
:10552000F0813046FFF7B7FE000403F0010140EAC6
:1055300081582046FFF7AFFE48EA00282846FFF7CB
:10554000AAFE48EA000706482438076004481838CD
:10555000006820F080000249183908600020DEE76A
:10556000242800400C48006800F4806068B10A48B4
:10557000006820F48060084908600848006808B99D
:10558000012000E00020054908600548006840F45B
:1055900080000349086070470C2800409C0240428C
:1055A000143C01400F49CA200F4A1060532010607C
:1055B0000D481838006820F020000B4A183A106097
:1055C00000E0491E31B108481838006800F020009A
:1055D0000028F6D009B901207047FF20024A106068
:1055E0000020F9E7FFFF0F00242800400022024BB3
:1055F00003EB8002116070475028004094B02049AE
:1056000020A0FAF709FF012100200BF087FA0CF027
:1056100015FD01901E4800681D4908602EE04FF0FE
:10562000FF3101A80BF0A8FA10AB11AA12A913A818
:10563000FFF762FE9DF8440000909DF848309DF809
:105640004C2014A102A8FAF7F3FE02A917A0FAF75A
:10565000E3FE0CAB0DAA0EA90FA8FFF72BFE9DF8D9
:10566000340000909DF838309DF83C2010A102A82D
:10567000FAF7DEFE02A90DA0FAF7CEFECFE7000092
:10568000F52E01082573202E2E2E0D0A0000000095
:105690003C00002054696D653A253032643A25306B
:1056A00032643A253032640D0A0000002573000090
:1056B000446174653A3230253032642D25303264CD
:1056C0002D253032640D0A0070B506460C4615468D
:1056D0006019B0F5205F06D8054801192A46304602
:1056E0000CF06AF903E0034903A0FAF795FE70BDD8
:1056F00018EC00206430010825733A206572726F3F
:1057000072206164647220210D0A000070B50546A4
:105710000C461646A019B0F5205F06D805490819B1
:10572000324629460CF048F903E0034903A0FAF792
:1057300073FE70BD18EC00207130010825733A200B
:105740006572726F72206164647220210D0A00001C
:1057500070B506460C46601C08F06CFE054625B97F
:105760000E490FA0FAF758FE70BD611C2846FBF7E2
:105770001FF912A0FAF750FEA2B23146284602F0F5
:10578000A9FC15A0FAF748FE294619A0FAF744FE2D
:1057900028460AF043FF00BFE6E70000132F010888
:1057A00025733A207076506F72744D616C6C6F6324
:1057B000204661696C210D0A00000000537461727B
:1057C000742052656164205732355131362E2E2EA9
:1057D0002E200D0A000000005468652044617461A9
:1057E000205265616465642049733A0D0A00000027
:1057F00025730D0A0000000010B504A0FAF70CFE96
:105800001E200BF09FF9FAF7B7FD10BD7265626FAD
:105810006F742073797374656D202E2E2E0D0A001F
:105820007CB50546002400200090019000260DB1B3
:10583000022600E000262248006800F0007008B14F
:105840000E207CBD1F49098888B26946FEF7ACFA74
:1058500004460CB12046F4E7019800F4802060B3C0
:105860001848008800041849086037204860402024
:1058700088600020C8604FF480600861084600F02E
:105880009BF83720FCF7F6FC04460CB12046D8E71D
:105890000D48066006200C494860402088600020C2
:1058A000C8604FF480600861084600F085F8062063
:1058B000FCF7E0FC04462046C3E72520C1E70000D2
:1058C000142C0140AC03002070E90020014908605D
:1058D00070470000382C01400146034A106820F050
:1058E000FF00084310607047042C014000210B4B5F
:1058F00002681A601B1D42681A601A1D116821F0A7
:10590000F701D0E902231A4303691A4343691A4392
:105910001143024A0832116070470000242C0140F4
:1059200001460020034A12680A400AB1012000E043
:1059300000207047342C01400248006800F003004A
:1059400070470000002C014010B500F08BFC10BD2A
:1059500000210A4A116847F6FF629143027D83687D
:105960001A4343681A43C3681A4303681A43036916
:105970001A431143014A116070470000042C014092
:1059800000200B490860091D0860091D0860091DF9
:105990000860074924310860091D0860091D086076
:1059A00004480349383108600020091D0860704729
:1059B000002C0140FF07C0000021094B02681A605B
:1059C0001A1D11686FF30A01D0E901231A43C36855
:1059D0001A4303691A431143014A121D11607047AB
:1059E000082C01400149086070470000002C01406C
:1059F00070B590B004460E46154600BF1A48FCF735
:105A000061FE0028FAD11848FCF78EFD4FF00060C7
:105A1000019016480290039404950020059006908A
:105A20004FF480600790800008908000099000206B
:105A30000A904FF440300B9004200C9003200D90FE
:105A40004FF400000E9080100F9001A90648FCF75B
:105A500093FE20210448FCF72AFE01210248FCF7AE
:105A600057FD10B070BD000058640240802C01400A
:105A700070B50446002516480078032802D1272572
:105A8000284670BD1248007838B1114800780128C6
:105A900003D00F480078022817D1B4F5805F02D1F7
:105AA00027252846EDE7E0B2FFF7BAFE054665B9BF
:105AB0000848006820F4C05006490860084600689D
:105AC000204308600846006808602846D9E70000BF
:105AD000A8030020042C0140F0B50146002000225C
