:020000040800F2
:10000000E0FD01209903000899A30008FF8500087E
:10001000B1A200085D3200080DE5000800000000F4
:10002000000000000000000000000000C9020008FD
:10003000C9480008000000001D03000891CD010818
:10004000B3030008B3030008B3030008D5B10008E8
:10005000B3030008B30300087D6A0008B303000877
:10006000B30300089D6A0008BD6A0008B3030008D6
:10007000B3030008B3030008B30300083D3C0008C5
:10008000B3030008B30300080D270008B3030008FA
:10009000B3030008B3030008B3030008B303000868
:1000A000B3030008B3030008B3030008B303000858
:1000B000B3030008B3030008B3030008B303000848
:1000C000B3030008B3030008B3030008B303000838
:1000D000B303000875DC0008B3030008B30300088D
:1000E000B3030008B1AE0008B3030008B30300086F
:1000F000B3030008B3030008B3030008B303000808
:10010000B3030008E9B60008B3030008B30300080E
:10011000B3030008B3030008B3030008B3030008E7
:10012000713C0008B3030008B3030008B3030008E0
:10013000B3030008B3030008B3030008B3030008C7
:10014000B3030008B3030008B3030008B3030008B7
:10015000B3030008B3030008993C0008B303000888
:10016000B3030008B3030008B3030008B303000897
:10017000B3030008B3030008B3030008B303000887
:10018000B3030008B303000800F002F800F085F89C
:100190000AA090E8000C82448344AAF10107DA45E2
:1001A00001D100F07AF8AFF2090EBAE80F0013F0AF
:1001B000010F18BFFB1A43F001031847CCE30200FC
:1001C000ECE3020010F8013B0A4413F0030408BFFB
:1001D00010F8014B1D1108BF10F8015B641E05D01B
:1001E00010F8016B641E01F8016BF9D1002D15D0D8
:1001F00010F8014B03F00C030C2BA1EB04040ABF15
:1002000010F8013BA4EB8314A4EB032405F10103D4
:1002100014F8016B5B1E01F8016BF9D5914238BFF0
:1002200010F8013BD1D3704700230024002500269D
:10023000103A28BF78C1FBD8520728BF30C148BF49
:100240000B607047702900F0D385662920F0698122
:10025000642900F05F85752900F05C85782900F03D
:10026000BA85632901F0ED83732901F0F283002040
:1002700070471FB520F04BF901F08AFC0400002004
:1002800000211FF083FC401C6060002000211FF053
:1002900067FCE0601FBD10B510BD01F0E1FD114627
:1002A000FFF7E7FF16F046F901F00DFE03B4FFF784
:1002B000F2FF03BC0EF0D8FD30BF72B6704762B6D5
:1002C000704780F3088870472A4B19680868B0E8BF
:1002D000F04F80F30988BFF36F8F4FF0000080F379
:1002E000118870470000000006480068006880F32D
:1002F000088862B661B6BFF34F8FBFF36F8F00DF20
:1003000000BF00BF08ED00E0DFF80C00016841F419
:1003100070010160704700BF88ED00E0EFF30980D5
:10032000BFF36F8F134B1A681EF0100F08BF20ED3C
:10033000108A20E9F04F106008B44FF0BF0080F33E
:100340001188BFF34F8FBFF36F8F1CF0F3F84FF09E
:10035000000080F3118808BC19680868B0E8F04F05
:100360001EF0100F08BFB0EC108A80F30988BFF3AD
:100370006F8F704768000020EFF305807047000022
:100380004FF0010080F31388014802490160FEE745
:100390000CED00E00400FA050948804709480047D1
:1003A000FEE7FEE7FEE7FEE7FEE7FEE7FEE7FEE725
:1003B000FEE7FEE704480549034A054B7047000085
:1003C0000DDC000889010008E0F90120E0FD0120B2
:1003D000E0F9012081FB0020704770472DE9F04FC4
:1003E00082B001904FF000744FF000784FF000059C
:1003F0004FF0000952F804CB52F804EB0868CB6DBB
:10040000C0FB0C45D1F88000CEF1000EC3FB0E45B9
:10041000D1F8DC30C0FB0C89C3FB0E8952F804CB49
:1004200052F804EB48688B6DC0FB0C45D1F8840092
:10043000CEF1000EC3FB0E45D1F8D830C0FB0C89BD
:10044000C3FB0E8952F804CB52F804EB88684B6D5D
:10045000C0FB0C45D1F88800CEF1000EC3FB0E4561
:10046000D1F8D430C0FB0C89C3FB0E8952F804CB01
:1004700052F804EBC8680B6DC0FB0C45D1F88C003A
:10048000CEF1000EC3FB0E45D1F8D030C0FB0C8975
:10049000C3FB0E8952F804CB52F804EB0869CB6C0D
:1004A000C0FB0C45D1F89000CEF1000EC3FB0E4509
:1004B000D1F8CC30C0FB0C89C3FB0E8952F804CBB9
:1004C00052F804EB48698B6CC0FB0C45D1F89400E2
:1004D000CEF1000EC3FB0E45D1F8C830C0FB0C892D
:1004E000C3FB0E8952F804CB52F804EB88694B6CBD
:1004F000C0FB0C45D1F89800CEF1000EC3FB0E45B1
:10050000D1F8C430C0FB0C89C3FB0E8952F804CB70
:1005100052F804EBC8690B6CC0FB0C45D1F89C0089
:10052000CEF1000EC3FB0E45D1F8C030C0FB0C89E4
:10053000C3FB0E8901984FF4FE4E4EF0FF0E4FEABA
:10054000946444EA85144FEAE47CBCEBE43F18BFB2
:100550008CEA0E044FEA986848EA89184FEAE87C6A
:10056000BCEBE83F18BF8CEA0E080480A0F80280BC
:1005700002F5707201F580514FF000744FF0007871
:100580004FF000054FF0000952F804CB0868D1F88D
:100590008030C0FB0C45C3FB0C8952F804CB486883
:1005A000D1F88430C0FB0C45C3FB0C8952F804CB56
:1005B0008868D1F88830C0FB0C45C3FB0C8952F821
:1005C00004CBC868D1F88C30C0FB0C45C3FB0C8948
:1005D00052F804CB0869D1F89030C0FB0C45C3FB3E
:1005E0000C8952F804CB4869D1F89430C0FB0C4513
:1005F000C3FB0C8952F804CB8869D1F89830C0FB52
:100600000C45C3FB0C8952F804CBC869D1F89C3067
:10061000C0FB0C45C3FB0C8901984FF4FE4E4EF015
:10062000FF0E4FEA946444EA85144FEAE47CBCEB85
:10063000E43F18BF8CEA0E044FEA986848EA89182C
:100640004FEAE87CBCEBE83F18BF8CEA0E08A0F844
:100650004040A0F84280A2F57872A1F570614FF099
:100660000F0C00F10400CDF800C001904FF00074B1
:100670004FF000784FF000764FF0007A4FF0000511
:100680004FF000094FF000074FF0000B52F804CB79
:1006900052F804EB0868CB6DC0FB0C45C0FB0E673D
:1006A000CEF1000EC3FB0C67C3FB0E45D1F8DC3066
:1006B000D1F88000C3FB0E89C3FB0CABCEF1000E5A
:1006C000C0FB0C89C0FB0EAB52F804CB52F804EB14
:1006D00048688B6DC0FB0C45C0FB0E67CEF1000E69
:1006E000C3FB0C67C3FB0E45D1F8D830D1F88400AA
:1006F000C3FB0E89C3FB0CABCEF1000EC0FB0C8913
:10070000C0FB0EAB52F804CB52F804EB88684B6D7B
:10071000C0FB0C45C0FB0E67CEF1000EC3FB0C679F
:10072000C3FB0E45D1F8D430D1F88800C3FB0E8945
:10073000C3FB0CABCEF1000EC0FB0C89C0FB0EABB3
:1007400052F804CB52F804EBC8680B6DC0FB0C45A3
:10075000C0FB0E67CEF1000EC3FB0C67C3FB0E455A
:10076000D1F8D030D1F88C00C3FB0E89C3FB0CABA1
:10077000CEF1000EC0FB0C89C0FB0EAB52F804CBCF
:1007800052F804EB0869CB6CC0FB0C45C0FB0E674C
:10079000CEF1000EC3FB0C67C3FB0E45D1F8CC3085
:1007A000D1F89000C3FB0E89C3FB0CABCEF1000E59
:1007B000C0FB0C89C0FB0EAB52F804CB52F804EB23
:1007C00048698B6CC0FB0C45C0FB0E67CEF1000E78
:1007D000C3FB0C67C3FB0E45D1F8C830D1F89400B9
:1007E000C3FB0E89C3FB0CABCEF1000EC0FB0C8922
:1007F000C0FB0EAB52F804CB52F804EB88694B6C8B
:10080000C0FB0C45C0FB0E67CEF1000EC3FB0C67AE
:10081000C3FB0E45D1F8C430D1F89800C3FB0E8954
:10082000C3FB0CABCEF1000EC0FB0C89C0FB0EABC2
:1008300052F804CB52F804EBC8690B6CC0FB0C45B2
:10084000C0FB0E67CEF1000EC3FB0C67C3FB0E4569
:10085000D1F8C030D1F89C00C3FB0E89C3FB0CABB0
:10086000CEF1000EC0FB0C89C0FB0EAB01F5807110
:1008700001984FF4FE4E4EF0FF0E4FEA946444EAA6
:1008800085144FEAE47CBCEBE43F18BF8CEA0E040D
:100890004FEA986848EA89184FEAE87CBCEBE83FE1
:1008A00018BF8CEA0E084FEA966646EA87164FEAAA
:1008B000E67CBCEBE63F18BF8CEA0E064FEA9A6A6C
:1008C0004AEA8B1A4FEAEA7CBCEBEA3F18BF8CEA93
:1008D0000E0ADDF800C000EBCC0E2EF8026B2EF8ED
:1008E00002AB20F8024B20F8028BBCF1010C7FF424
:1008F000BAAE02B0BDE8F08F2DE9F04F82B00190A2
:100900004FF000744FF0000552F804CB52F804EB9E
:100910000868CB6DCEF1000EC0FB0C45C3FB0E4545
:1009200052F804CB52F804EB48688B6DCEF1000E00
:10093000C0FB0C45C3FB0E4552F804CB52F804EB48
:1009400088684B6DCEF1000EC0FB0C45C3FB0E4515
:1009500052F804CB52F804EBC8680B6DCEF1000ED0
:10096000C0FB0C45C3FB0E4552F804CB52F804EB18
:100970000869CB6CCEF1000EC0FB0C45C3FB0E45E5
:1009800052F804CB52F804EB48698B6CCEF1000EA0
:10099000C0FB0C45C3FB0E4552F804CB52F804EBE8
:1009A00088694B6CCEF1000EC0FB0C45C3FB0E45B5
:1009B00052F804CB52F804EBC8690B6CCEF1000E70
:1009C000C0FB0C45C3FB0E4501984FF4FE4E4EF0A4
:1009D000FF0E4FEA946444EA85144FEAE47CBCEBD2
:1009E000E43F18BF8CEA0E04048002F5707201F532
:1009F00080514FF000744FF0000552F804CB0868A6
:100A0000C0FB0C4552F804CB4868C0FB0C4552F8BB
:100A100004CB8868C0FB0C4552F804CBC868C0FB07
:100A20000C4552F804CB0869C0FB0C4552F804CBC6
:100A30004869C0FB0C4552F804CB8869C0FB0C45E3
:100A400052F804CBC869C0FB0C4501984FF4FE4E28
:100A50004EF0FF0E4FEA946444EA85144FEAE47CBA
:100A6000BCEBE43F18BF8CEA0E040484A2F5787254
:100A7000A1F570614FF00F0C00F10200CDF800C03D
:100A800001904FF000744FF000764FF000054FF0EA
:100A9000000752F804CB52F804EB0868CB6DC0FB9A
:100AA0000C45C0FB0E67CEF1000EC3FB0E45C3FB29
:100AB0000C6752F804CB52F804EB48688B6DC0FB0E
:100AC0000C45C0FB0E67CEF1000EC3FB0E45C3FB09
:100AD0000C6752F804CB52F804EB88684B6DC0FBEE
:100AE0000C45C0FB0E67CEF1000EC3FB0E45C3FBE9
:100AF0000C6752F804CB52F804EBC8680B6DC0FBCE
:100B00000C45C0FB0E67CEF1000EC3FB0E45C3FBC8
:100B10000C6752F804CB52F804EB0869CB6CC0FBAD
:100B20000C45C0FB0E67CEF1000EC3FB0E45C3FBA8
:100B30000C6752F804CB52F804EB48698B6CC0FB8D
:100B40000C45C0FB0E67CEF1000EC3FB0E45C3FB88
:100B50000C6752F804CB52F804EB88694B6CC0FB6D
:100B60000C45C0FB0E67CEF1000EC3FB0E45C3FB68
:100B70000C6752F804CB52F804EBC8690B6CC0FB4D
:100B80000C45C0FB0E67CEF1000EC3FB0E45C3FB48
:100B90000C6701F5807101984FF4FE4E4EF0FF0E88
:100BA0004FEA946444EA85144FEAE47CBCEBE43FEA
:100BB00018BF8CEA0E044FEA966646EA87164FEA9B
:100BC000E67CBCEBE63F18BF8CEA0E06DDF800C001
:100BD00000EB8C0E2EF8026B20F8024BBCF1010CDE
:100BE0007FF44CAF02B0BDE8F08F10B54C1084EA32
:100BF000530404D54042C1F1000138BF491E1B42D5
:100C000004D55242C3F1000338BF5B1E00F016FC4E
:100C100014F0804F04D04042C1F1000138BF491E9A
:100C200014F0004F04D05242C3F1000338BF5B1EE2
:100C300010BD00000FB4044910B503AA029800F0DB
:100C40000DFF10BC5DF814FB100000200FB41CB5A4
:100C5000074B06AA7B4469460090059800F0CFFE3A
:100C60000020694600F0DEFE1CBC5DF814FB0000AD
:100C7000CD0D000070B5044685690068C10601D538
:100C8000302600E02026C00707D070BDD4E901213E
:100C900030469047206A401C20626D1EF6D570BD1C
:100CA00070B5044685690078C00707D170BDD4E9E6
:100CB000012120209047206A401C20626D1EF6D53D
:100CC00070BD70B50C460546012A05D0287880060F
:100CD00000D5EA69002302E0012305E05B1C934292
:100CE00002D2E05C0028F9D1A869E618C01AA86110
:100CF000286A184428622846FFF7BCFF04E0D5E9BB
:100D0000012114F8010B9047B442F8D32846FFF7AD
:100D1000C7FF70BD2DE9F041064600241068752913
:100D2000314615A510D0AFF30080002802DA40420A
:100D300012A507E031688A0701D511A502E049072D
:100D400004D510A5012401E0AFF3008000210A239F
:100D500006F1240707E0B0FBF3F203FB120030308A
:100D600078541046491C0028F5D123462A463046BF
:100D7000BDE8F04100F0D9BB000000002D000000EC
:100D80002B00000020000000F0B40D46018809058A
:100D900002D51B4C7C4402E0194C7C440E340021EB
:100DA00000F1240305E002F00F061209A65D5E546F
:100DB000491C002AF7D102780023120704D5702DB0
:100DC00006D009B1022311342246F0BC00F0ADBBBD
:100DD00001231034F8E770B504460D46214610682B
:100DE000AFF30080024629462046BDE87040CBE7BD
:100DF0000368126843F0200303600823C361C3E75C
:100E0000B6CC02002DE9F05F894604464FF0000A97
:100E1000DFF874B1FB44C0F820A02046E1688847A1
:100E2000002874D0252806D0D4E901219047206AF3
:100E3000401C2062F1E700265F462046E1688847B3
:100E40002028054607DB312D05D2781910F8200C33
:100E500008B10643F1E7B00701D526F00406C4F84F
:100E60001CA00027C4F818A02A2D09D028460DF090
:100E7000F4FF38B304EB8708303DC8F8185019E088
:100E800059F8041B204604EB87029161E16888470A
:100E9000012F054618D1E069002820DA26F0200647
:100EA0001DE0D8F8180000EB800005EB400030385A
:100EB000C8F818002046E168884705460DF0CDFFC8
:100EC0000028EED1012F0AD02E2D08D12046E1684E
:100ED00088477F1C0546022F46F02006C4DBA06928
:100EE000002803DA404246F00106A061F00701D075
:100EF00026F010066C2D0BD0682D09D04C2D39D062
:100F00006A2D35D0742D35D07A2D33D016E038E0E7
:100F1000E1682F4620468847B842054609D16C2F24
:100F200026D04FF48060E168064320468847054696
:100F300004E06C2F1AD04FF4807006430DB3A5F176
:100F40004100192802D8203546F400664A46294651
:100F5000204626604E46FFF775F980B101280BD078
:100F6000F61D26F0070000F1080956E74020E4E7E7
:100F70008020D8E70020D6E706F104094DE728468F
:100F800052E7206ABDE8F09F5ECC020070B50646CD
:100F900000F050FA0468054630460A22002100F0AD
:100FA0006FFD2C6070BD002000F0A2FDFFF773F90B
:100FB00001200DF059FF40EA010310B59B070FD146
:100FC000042A0DD310C808C9121F9C42F8D020BAB9
:100FD00019BA884201D9012010BD4FF0FF3010BD71
:100FE0001AB1D30703D0521C07E0002010BD10F83F
:100FF000013B11F8014B1B1B07D110F8013B11F805
:10100000014B1B1B01D1921EF1D1184610BD40EAC5
:101010000103024630B59B0710D14FF0013400E0C8
:1010200008C208C91D1B9D4315EAC41FF8D013F060
:10103000FF0102F8011B0DD01B0AF8E711F8013B74
:10104000002B02F8013B05D011F8013B002B02F800
:10105000013BF3D130BD10B5431C02E010F8011B79
:1010600071B18107FAD14FF0013202C88C1A8C435A
:1010700014EAC211F9D0C01A0A0603D0C01E10BD6E
:10108000C01A10BD0A0401D0801E10BD0902FCD098
:10109000401E10BD40EA010370B59B072ED14FF0F2
:1010A0000136042A2AD308C810C99D1B9D43121F6C
:1010B00015EAC61517D0D8B2E1B2401A50EA056158
:1010C00010D198B2A1B2401A50EA05410AD123F0DA
:1010D0007F4024F07F41401A50EA052102D1180ECA
:1010E000A0EB146070BDA342DBD018BA21BA8842CD
:1010F00001D9012070BD4FF0FF3070BD0AB900204A
:1011000070BD10F8013B11F8014B63B1A3420AD145
:10111000521E08D010F8013B11F8014B1BB1A3423D
:1011200001D1521EEDD1181B70BD421E12F8013FB5
:10113000002BFBD111F8013B002B02F8013BF9D148
:101140007047032A40F2308010F0030C00F0158045
:1011500011F8013BBCF1020F624498BF11F801CBBA
:1011600000F8013B38BF11F8013BA2F1040298BF1F
:1011700000F801CB38BF00F8013B11F0030300F089
:101180006780083AC0F0088051F8043B083A51F8EB
:1011900004CBA0E80810F5E7121D5CBF51F8043B32
:1011A00040F8043BAFF30080D20724BF11F8013BA5
:1011B00011F801CB48BF11F8012B24BF00F8013B07
:1011C00000F801CB48BF00F8012B7047431A28BF35
:1011D0009A427FF6B6AF032A1044114440F22680AB
:1011E00010F0030F1EBF11F8013D521E00F8013D23
:1011F00010F0030F7FF4F6AF11F0030300F09284B8
:10120000083AC0F00B8051F8043D083A51F804CD7B
:1012100040F8043D40F804CDFFF7F3BF121D5CBF5A
:1012200051F8043D40F8043DAFF30080D20724BFDD
:1012300011F8013D11F801CD48BF11F8012C24BF70
:1012400000F8013D00F801CD48BF00F8012C7047BF
:1012500010B5203AC0F00B80B1E81850203AA0E851
:101260001850B1E81850A0E81850BFF4F5AF5FEA85
:10127000027C24BFB1E81850A0E8185044BF18C938
:1012800018C0BDE810405FEA827C24BF51F8043BDF
:1012900040F8043B08BF7047D20728BF31F8023B33
:1012A00048BF11F8012B28BF20F8023B48BF00F8C7
:1012B000012B704702F0FF0343EA032242EA024295
:1012C00000F002B84FF000020429C0F0128010F0C4
:1012D000030C00F01B80CCF1040CBCF1020F18BF12
:1012E00000F8012BA8BF20F8022BA1EB0C0100F0A5
:1012F0000DB85FEAC17C24BF00F8012B00F8012B78
:1013000048BF00F8012B70474FF0000200B51346AC
:1013100094469646203922BFA0E80C50A0E80C5015
:10132000B1F12001BFF4F7AF090728BFA0E80C50C6
:1013300048BF0CC05DF804EB890028BF40F8042BBF
:1013400008BF704748BF20F8022B11F0804F18BF2C
:1013500000F8012B704710B5044610F0030F08BFCA
:1013600011F0030F40F015804FF0013E121FC0F244
:101370000E8051F8043BA3EB0E0C2CEA030C1CEA84
:10138000CE1C08BF40F8043BF0D0A1F1040102F1EB
:101390000402521E08DB11F8013B002B00F8013B50
:1013A000F7D11146FFF78EFF204610BD4FF0013CEC
:1013B00050F8042B51F8043B9A4221D1A2EB0C03C4
:1013C000934313EACC1317D150F8042B51F8043B84
:1013D0009A4215D1A2EB0C03934313EACC130BD121
:1013E00050F8042B51F8043B9A4209D1A2EB0C03AC
:1013F000934313EACC13DBD04FF00000704700BFDB
:10140000D01A01BAB1FA81F101F0180122FA01F003
:10141000CB40C1F12001DBB2C0B2C01A2CFA01F3FB
:10142000D11A914311EAC311E6D170477047704752
:1014300070470000004870477CF9012053EA020C15
:1014400000F069802DE9F04B4FF00006002B1FBF24
:10145000B3FA83F503FA05F424FA05F65E4012BFE9
:101460001643B2FA82F502FA05F4C5F120051EBF53
:1014700022FA05FC44EA0C04203556EA044C4FEAF3
:10148000144418BF641C4FF000084FF0000990424C
:1014900071EB030C39D3002919BFB1FA81F701FAB6
:1014A00007F6B0FA80F700FA07F6C7F120071EBF6B
:1014B00020FA07FC46EA0C062037B6FBF4FCA7EB43
:1014C0000507103F07F01F0BCBF120060CFA0BFBB2
:1014D0002CFA06F644BFB3460026202FA4BF5E4672
:1014E0004FF0000B5BEA060C08BF4FF0010B19EB45
:1014F0000B09ABFB027C48EB0608C01B06FB02CCC9
:101500000BFB03CC71EB0C01C1E70B4602464146D5
:101510004846BDE8F08B13B54FF000004FF00001D6
:10152000AFF30080BDE81C4070472DE9F0470D4641
:1015300099469246044600F124080168880604D5BD
:10154000E06921F01001216000E00120A84201DDE6
:10155000471B00E00027A1697A1902EB0900081A6D
:10156000A0612078C00602D42046FFF783FB002646
:1015700008E0D4E901211AF806009047206A401CCF
:10158000761C20624E45F4DB2078C0060AD5204642
:10159000FFF770FB06E0D4E9012130209047206A74
:1015A000401C2062381EA7F10107F4DC07E0D4E9F3
:1015B000012118F805009047206A401C2062281E6F
:1015C000A5F10105F3DC2046FFF76AFB2078000651
:1015D00002D50220BDE8F0870120FBE770472DE926
:1015E000FF4F0C461E464FF0FF378BB0D2E900018B
:1015F000DDF860800A908A46C1F30A5505B93D4678
:10160000002108464FF00000BAF1000F00F440003E
:1016100005DA00EB80004FF4400101EA50004FEA88
:101620009059B9F1010F00DDB9460A9850EA4A0015
:101630000ED044F61050A5F2FF3545432F14B8F1F3
:10164000000F1ED07542291E1EDDC9F100021CE0EC
:10165000B8F1010F4FF0000001D0302103E0F24358
:1016600005E02154401CB042FBDB30460022002143
:1016700021540B99C1F80880C1E900200FB0BDE8E2
:10168000F08FBD1B6D1CDEE74A4600DA694206A8F2
:1016900000F058FB06AB93E8070003AB83E80700B4
:1016A00050460A9900F036FC8DE80700A0F500507E
:1016B0001F3800900398002D09DD42F21F014A46B1
:1016C000084403A90390684600F095FE08E0A0F5E1
:1016D00000504A461F3803A90390684600F09FFE59
:1016E0008DE807000004000C03D04FF0FF304108E4
:1016F00000E01046B8F1000F03D00022009215461A
:101700001EE0751E05D400F047FA303262556D1E9A
:10171000F9D5B3460122084302D000227F1C04E021
:101720002078302801D100227F1E002A099786D018
:101730001DE0112D07DA00F02FFA303262556D1CD2
:1017400050EA0102F5D1084302D00098C8B10EE07A
:101750000021681E05E0235C625C63542254401E35
:10176000491C8142F7DBAB46A81B401E09900020B4
:1017700004F80B000B98099AC0F80880C0E9002B08
:101780007CE711264FF0000859E72DE9F04F884615
:101790000446D21D22F0070191B0D1E90001CDE944
:1017A0000A010DF0B3FA02460B98C00F01D02D20AC
:1017B00007E02068810701D52B2002E0202101EA03
:1017C000C000032A099001D0072A05DB03464146E1
:1017D000204600F027FA09E12078800601D5E0696B
:1017E00000E00620B8F1650F814606D0B8F1660F1B
:1017F00018D0B8F1670F70D131E00020B9F1110FA6
:10180000009001DB112301E009F101030AAA01A9FB
:101810000CA8FFF7E4FEDDE90C70002609F10105D4
:10182000834647E001204B4600904FF000470AAA4C
:1018300001A90CA8FFF7D3FEDDE90DB00C995D46B8
:10184000002610B909F101000D18B9EB050003D409
:10185000C0F1FF3609F10105A5EB09002BE0B9F154
:10186000010F01DA4FF001090020B9F1110F0090CA
:10187000484601DD112300E003460AAA01A90CA88D
:10188000FFF7ADFEDDE90C704D460026834620785B
:1018900000070AD4AB4500DA5D4601A8012D04DD3E
:1018A000411911F8011C302907D04F4502DA17F110
:1018B000040F04DA012082460FE06D1EEEE7002FD0
:1018C00002DCED1B3E4403E0781CA84200DD7D1CD9
:1018D000B81B00F1010A4FF000472078000703D43D
:1018E000AA4501DB4FF0FF3A0021B7F1004F0DF19F
:1018F00043088DF8431022D002202B23002F01DA59
:101900007F422D234FF00A0C011EA0F1010000DCE4
:1019100047B197FBFCF10CFB11720F46303208F80F
:10192000012DF1E7A8F1010003702188090501D517
:10193000452100E06521A0F1010800F8011C09988B
:101940000FA9A1EB0807FF1D00B10120411901EB10
:10195000EA70A1693844081A401EA0612078C006C8
:1019600002D42046FFF786F9099828B1D4E901216D
:101970009047206A401C20622078C00622D520466D
:10198000FFF778F91EE0002E04DBB34502DD01A865
:10199000805D00E03020D4E901219047206A401C9E
:1019A0002062761CAAF101005FEA000A0AD100F069
:1019B000EFF8C0680168405CD4E901219047206AD3
:1019C000401C2062281EA5F10105DCDC07E0D4E9FB
:1019D000012118F8010B9047206A401C2062381E34
:1019E000A7F10107F3DC2046FFF75AF9022011B0F6
:1019F00045E6000001694A1C02610878704700B59D
:101A00008FB0CDE901310021059105497944CDE937
:101A1000031011466846FFF7F5F90FB000BD00004E
:101A2000E5FFFFFF0A6802F8010B0A60704710B576
:101A3000436913B1AFF3008001E0FFF742F90120E1
:101A400010BD127800F124010A7000224A700122B0
:101A5000EDE711684FF0FF32E9E70000074B70B582
:101A60000D467B44FFF7CBFF0446284600F0D6F92D
:101A700010B14FF0FF3070BD204670BDC33D010076
:101A80002DE9F04791460F4680460446002614F89B
:101A9000015B2DB100F074F80068405DC007F6D11D
:101AA0002B2D02D02D2D18D0641E4A4639462046D3
:101AB00000F0F8F827B13968A14201D1C7F80080D9
:101AC0004FF0020471050BD54042002803DDFFF7FB
:101AD000B1FC0460A007BDE8F08746F48066E4E747
:101AE0000028F8DAFFF7A6FC04606FF00040F2E788
:101AF00010B500F09DF9BDE8104000F093B9431A0D
:101B000028BF9A427FF6A4AB104410F0030F114493
:101B10001EBF11F8013D521E00F8013D10F0030FE9
:101B20007FF4F6AF103AC0F00A8010B531E91850D2
:101B3000103A20E91850BFF4F9AFBDE81040530740
:101B400024BF31E9081020E9081044BF51F8043DD2
:101B500040F8043D12F0030F08BF7047D20728BFBA
:101B600031F8023D48BF11F8012C28BF20F8023D92
:101B700048BF00F8012C7047004870477CF90120ED
:101B800010B500F005F8001D10BD00BF01E0010018
:101B9000004870479CF9012030B5B0F10A024FEAC5
:101BA000900E71F100034EEA817EB0EB0E0061EB06
:101BB00091014FEA101E4EEA017E10EB0E0041EB40
:101BC00011114FEA102E4EEA016E10EB0E0041EBA0
:101BD00011214FEA104E4EEA014E10EB0E0041EB80
:101BE0001141401841F100014FEAD00040EA417034
:101BF0004FEAD10110EB80054FEA810444EA90746A
:101C000044EB01046D1944EB0404521BA3414FF053
:101C1000000348BF0A3200D530BD401C41F100012D
:101C200030BD00002DE9F0411F460446032601683F
:101C3000072A01F4006004DB08B116A505E016A52B
:101C400003E008B115A500E015A521F01000206003
:101C5000A069C01EA0610FB1401EA0612046FFF721
:101C600009F84FB1D4E9012138469047206A401C59
:101C70002062C01C206206E0206AFAE7D4E9012154
:101C800015F8010B9047761EF8D22046FFF708F8AA
:101C9000BDE8F0814E414E006E616E00494E460037
:101CA000696E66002DE9F05F824615468B46002777
:101CB0000AF10104B9460078302801D09DB113E043
:101CC00014F8010B0127782803D0582801D045B11A
:101CD0000AE00DB1102D07D1002714F8010B1025D3
:101CE00002E0082500E00A250026B0460EE005FBCC
:101CF000080005FB06F101271FFA80F801EB1046EA
:101D0000B6F5803F00D3B94614F8010B294600F020
:101D1000CCF80028EBDABBF1000F05D00FB1641E40
:101D200000E05446CBF80040B9F1000F06D0FFF7B1
:101D300081FB02210160C81EBDE8F09F48EA064011
:101D4000FAE700002DE9F047814616468AB032488E
:101D500078440DC88DE80D002F487844801C03ACF2
:101D60000DC884E80D0041F69B303722014491FBF9
:101D7000F2F0A0F1800502FB10141B3C02D5644276
:101D8000012000E00020DFF890A080460027FA4400
:101D9000AAF1BA0A0DE0E00709D03246684607EB1F
:101DA00047010AEB810100F03AFB8DE8070064105F
:101DB0007F1C002CEFD1184F7F44A83F18E0E807A4
:101DC00014D007EB04100DF1180A90E80E008AE811
:101DD0000E00C068F04201D198190890324606A959
:101DE00003A800F01CFB03AB83E807006D10641C24
:101DF000002DE4D132466946B8F1000F03A802D0A5
:101E000000F0F9FA01E000F00AFBC9E90001C9F8A5
:101E100008200AB0BDE8F087B0BD0200007B00F0EA
:101E200080007047002801D00DF01EB870470000F8
:101E300010B5002102A000F04CF8012010BD0000F8
:101E4000534947414252543A2041626E6F726D616C
:101E50006C207465726D696E6174696F6E0000004C
:101E60007546FFF789FEAE4605006946534620F0E9
:101E70000700854618B020B5FEF79CFABDE8204063
:101E80004FF000064FF000074FF000084FF0000B36
:101E900021F00701AC46ACE8C009ACE8C009ACE8E9
:101EA000C009ACE8C0098D4670473A2800D23038E6
:101EB00020F02002412A01D3A2F13700884201D349
:101EC0004FF0FF3070470446AFF300802046FEF726
:101ED000EDF970B505460C460A2000E06D1C00F0D7
:101EE00011F835B128780028F8D102E0641C00F020
:101EF00009F814B120780028F8D1BDE870400A2014
:101F0000AFF3008008B569468DF800000320ABBE32
:101F100008BD70475FEA400C08BF91F0000F4FEA20
:101F20008C234FEAC12243EA51514FEA1C5018BF9B
:101F300000F5F0404FEA300018BF41F000415FEA81
:101F40006C5C00F02980BCF1FF3F08BF40F080408E
:101F50007047130C06BF12044FF0100C4FF0000C2A
:101F6000130E04BF12020CF1080C130F04BF120170
:101F70000CF1040C930F04BF92000CF1020CD30F70
:101F800004BF52000CF1010C11464FF00002A0F109
:101F90001F00A0EB0C00704711F0004F08BF704706
:101FA00031F000413FF4D5AF0B0C06BF09044FF0F0
:101FB000100C4FF0000C0B0E04BF09020CF1080CC2
:101FC0000B0F04BF09010CF1040C8B0F04BF890037
:101FD0000CF1020CCB0F04BF49000CF1010CCCF149
:101FE0002003A0EB0C0022FA03F302FA0CF241EA00
:101FF000030100F10100704720F07F4C80EA0300EC
:1020000023F07F47ACEB070303F57C5300F000405F
:1020100003F1FF032DE980494FEA154B09B44FEA5C
:10202000144325EA0B4E24EA03480FF2042606EB7C
:10203000132749083E785FEA320203FB0667C7F5BB
:10204000000707FB06F64FEA54374FEAD64606F17B
:10205000020607FB066CCCF1005C4FEA1C472CEA39
:10206000074C07FB06F40CFB06F504EB15464FEA9C
:10207000961634BF00204FF000404FEAD13706FBE0
:1020800007FC4FEA1C4C0CFB0BF7D21B03FB0CF7B5
:1020900061EB07010CFB0EF7B0EB074072EB174248
:1020A0000CFB08F734BFA2EB0742B2EB074261EB2F
:1020B00017414FEA0C444FEA910706FB07FC4FEA31
:1020C0001C4C0CFB0BF7B0EBC74072EB573203FB19
:1020D0000CF734BFA2EBC742B2EBC74261EB5731FA
:1020E0000CFB0EF7B0EBC70072EB57720CFB08F756
:1020F00034BFA2EBC702B2EBC70261EB5771039F7B
:102100004FEA816141EA921104EBCC044FEAD137E6
:102110004FEA826206FB07FC42EA90124FEA8060B7
:102120004FEA1C4C0CFB0BF7D21B03FB0CF761EBCB
:1021300007010CFB0EF7B0EB074072EB17420CFBEC
:1021400008F734BFA2EB0742B2EB074261EB17413D
:102150004FEA8C554FEA910704EB9C2406FB07FCE1
:102160004FEA1C4C0CFB0BF7B0EBC74072EB57323D
:1021700003FB0CF734BFA2EBC742B2EBC74261EBE3
:1021800057310CFB0EF7B0EBC70072EB57720CFB2C
:1021900008F734BFA2EBC702B2EBC70261EB57717D
:1021A00015EB4C254FEA816141EA92114FEA8262B8
:1021B0004FEAD13742EA901206FB07FC44F10004D3
:1021C0004FEA80604FEA1C4C0CFB0BF7D21B03FB61
:1021D0000CF761EB07010CFB0EF7B0EB074072EB5D
:1021E00017420CFB08F734BFA2EB0742B2EB0742E1
:1021F00061EB174115EB1C154FEA813141EA924121
:102200004FEA823242EA90424FEA80304FEA0C763F
:1022100044F1000448EA03434EEA0B484FF0000E35
:10222000B2EB080C71EB030724BF624639464EEB54
:102230000E0E4FF0000B0018524149414BEB0B0BB7
:10224000B2EB080C71EB03077BF1000B24BF624675
:1022500039464EEB0E0E4FF0000B0018524149412B
:102260004BEB0B0BB2EB080C71EB03077BF1000B94
:1022700024BF624639464EEB0E0E51EA020718BFE4
:1022800046F0010616EB0E7655F1000254F10001FE
:1022900003D5BDE88901BDE80088BDE88901B6190C
:1022A000BDE80048524141EB0101A3F10103704731
:1022B00080807F7E7D7C7B7A797877767675747383
:1022C000727171706F6E6E6D6C6C6B6A6A69686842
:1022D000676666656464636362616160605F5F5ED8
:1022E0005E5D5D5C5C5B5B5A5A595958585757564E
:1022F00056555555545453535252525151505050B3
:102300004F4F4F4E4E4D4D4D4C4C4C4B4B4B4A4A04
:102310004A49494948484847474747464646454548
:102320004544444444434343434242424241414181
:10233000002B26D4770021D01CB54FEA370703B411
:102340004FF010004FF010014FF000000FBC0BF1E8
:10235000010BBDE81040BBF1010F08BF5FEA170792
:1023600022BF12F1010211F101014FF0004143F1CE
:10237000000300F0004043EA00007047F9D357081B
:10238000DAE746EA064613F1400F4FEA16461FDD2C
:1023900013F1200FDFBF16430A46002120335B42B2
:1023A000C8D0C3F1200746EA064602FA07F74FEA0B
:1023B000164646EA0706C3F1200722FA03F201FA9D
:1023C00007F721FA03F14FF0000342EA0702B1E7F1
:1023D00046EA020646EA06464FEA164646EA01067D
:1023E000BCBF46EA0646360C4FF000034FF0000231
:1023F0004FF000019EE72DE9C048934630B491E8C4
:10240000380007C831EA400C48BF34EA430C03D512
:10241000FFF7F2FDFFF78CFFF0BCBDE800882DE967
:10242000C048934630B491E8380007C810F0804F98
:1024300008BF13F0804F03D100F005F8FFF778FFD5
:10244000F0BCBDE8008820F07F4780EA030023F05D
:102450007F4C07EB0C03A3F57C5300F00040A3F185
:10246000FE0392F0000F00F0B38095F0000F00F033
:1024700077802DE901494FEA11404FEA144621EADD
:10248000004800FB06FC24EA064708FB06F607FBAB
:1024900008F800FB07F718EB06484CEB164C4FEA20
:1024A000124B18EB07484FEA15464CEB174022EA4F
:1024B0000B4E0BFB06FC25EA06470EFB06F607FB58
:1024C0000EFE0BFB07F71EEB064E4CEB164C4FF0C7
:1024D00000061EEB074E4CEB174B18EB0B0840F1B8
:1024E000000018EB0E0B58EB000840F100008F1AAB
:1024F0004FF000013CBFC943661B14BFB5EB040C91
:1025000000213CBFC943F61B4FEA17444EEA8E0E2A
:1025100027EA04454FEA1C4704FB07622CEA074CF4
:1025200005FB07F70CFB05F604FB0CFC16EB074656
:1025300042EB174216EB0C4642EB1C421BEB060625
:1025400058EB0202414146EA9E0601D5BDE80189E9
:10255000B619524141EB0101A3F10103BDE8018924
:102560004FEA14454FEA114724EA054621EA074C91
:1025700005FB07F406FB07F70CFB06F105FB0CFC5B
:1025800011EB074144EB17444FEA124711EB0C41A2
:1025900044EB1C4422EA074C05FB07F206FB07F755
:1025A0000CFB06F605FB0CFC16EB074642EB17424C
:1025B00016EB0C4642EB1C456A1854F1000148BF6B
:1025C0007047B619524141EB0101A3F10103704775
:1025D00095F0000F37D04FEA11424FEA144721EA35
:1025E000024624EA074C02FB07F106FB07F70CFB47
:1025F00006F402FB0CFC14EB074441EB17414FEAD5
:10260000154714EB0C4441EB1C4125EA074C02FB37
:1026100007F506FB07F70CFB06F602FB0CFC16EBB6
:10262000074645EB174516EB0C4645EB1C421219C5
:1026300051F1000148BF7047B619524141EB010109
:10264000A3F1010370474FEA14454FEA114724EA0A
:10265000054621EA074C05FB07F106FB07F70CFBD3
:1026600006F24FF0000605FB0CFC12EB074241EBB3
:10267000174112EB0C4251EB1C4148BF70479218B6
:1026800041EB0101A3F10103704700220A12D34379
:102690000360704721B1826842F00102826003E06A
:1026A000826822F001028260704700000021084A1F
:1026B0001168084A1140D0E900231A4383681A437D
:1026C000C3681A431143044AC2F804137047000058
:1026D00004230140E030FCFF002001400146C86CAB
:1026E00080B2704770B502460020002300240B1210
:1026F000556801268E4005EA060415681D4015B18F
:102700000CB1012000E0002070BD000008B519F0F8
:1027100059F840F205210C48FFF7E4FF01280FD1DA
:1027200040F205210848FFF7B0FF0748FFF7D6FF42
:10273000009000231A466946044800681AF0EAFC33
:1027400019F052F808BD000000200140B803002035
:1027500010B50B460021D9B2012404FA01F11AB1D7
:1027600044680C43446002E044688C43446010BDFC
:1027700030B50246002000235068104C20400D79EF
:102780000C6844EA05242043506090680C4C2040BB
:10279000D1E903542C438D682C434D7944EA450418
:1027A00020439060D06A20F470000C7D641EE4B277
:1027B000234340EA0350D06230BD0000FFFEFFFC1F
:1027C000FDF7FFC0F0B504460D4600200021092D9D
:1027D00011DDE068A5F10A0606EB4607072606FAB2
:1027E00007F18843A5F10A0606EB460603FA06F14F
:1027F0000843E0600CE0206905EB4507072606FA70
:1028000007F1884305EB450603FA06F1084320610A
:10281000072A0FDA606B561E06EB86071F2606FA9C
:1028200007F18843561E06EB860605FA06F10843B3
:10283000606322E00D2A0FDA206BD61F06EB8607B5
:102840001F2606FA07F18843D61F06EB860605FA0F
:1028500006F10843206310E0E06AA2F10D0606EBE2
:1028600086071F2606FA07F18843A2F10D0606EB3C
:10287000860605FA06F10843E062F0BD38B1084962
:10288000096841F40001074AC2F8041306E004494C
:10289000096821F40001034AC2F8041370470000DC
:1028A00004230140002001402DE9F04F8FB007467E
:1028B0000E46002408E037F814000AA921F8140095
:1028C00014F048FC601C04B20A2CF4DB09247FE0FD
:1028D0000AA931F914000CF0CAFA4FF480510190A2
:1028E00016F014FF002800DB78E00AA931F9140083
:1028F000032116F043FE26F8140036F9141036F9B9
:10290000140007F013F803906FF00040039907F0EC
:1029100083F80490049815F0B5F9804641460F20DD
:1029200016F0F4FE82464146049807F011F8049030
:10293000049816F049FC814649464FF480400EF059
:1029400085FF8346002531E00AA931F9150006F01C
:10295000C3FF0490601B401E0AAB33F9102036F908
:102960001410049806F0D0FF0490049816F02CFC84
:1029700002905846029906F0D9FF039051460398F9
:1029800007F033F80390039806F07DFF47F6FF71D8
:10299000019007F041F8002800DD1FE0039810F0D7
:1029A00094F905A921F81500681C05B2A542CBDBF6
:1029B000002509E005A830F815000AA921F815003E
:1029C00014F0C8FB681C05B2A542F3DB601E04B21C
:1029D000002CBFF67DAF0FB0BDE8F08F002406E0FD
:1029E000002026F8140014F0B5FB601C04B20A2C79
:1029F000F6DB00BFEFE7000000B58DB0012108460F
:102A000008F022F90121080208F05EF920200A905E
:102A100003208DF82C0001208DF82F000AA93048E2
:102A200005F018FD0121080208F05EF900214FF4BD
:102A3000807008F059F90120FFF720FF0020069070
:102A4000099008904FF48030079006A8FFF72EFEFB
:102A5000002000908DF804008DF80500029004908D
:102A600001208DF8140069461E48FFF781FE0723F8
:102A7000012205211B48FFF7A5FE07230122102193
:102A80001848FFF79FFE01211648FFF703FE0122B9
:102A900040F205211348FFF75BFE12208DF830004D
:102AA00001208DF8310002208DF8320001208DF8D0
:102AB00033000CA807F072FC0022022103201AF058
:102AC00092F9094908600846006818B107A0FEF7A6
:102AD000B1F802E00CA0FEF7ADF80DB000BD0000AB
:102AE0000000024000200140B8030020696E6974B4
:102AF00020784164635175657565207375636365FE
:102B000073732E2E2E0D0A00696E6974207841644D
:102B1000635175657565206661696C2E2E2E0D0AF0
:102B2000000000007FB504460025002000900190C1
:102B30000290039000E0641C20782028FBD02146FE
:102B40006846FEF764FA69460EA0FEF773F800E0E7
:102B50006D1C1DF80500302803DB1DF80500392821
:102B6000F6DD1DF8050018B10CA0FEF763F87FBD77
:102B70006846FEF70BFA064630460CF01BFE00BF17
:102B8000F5E700005365742073616D706C657261C8
:102B9000746520746F202573210D0A004572726FD1
:102BA0007220636F6D6D616E6421207573652061A5
:102BB0006D7272617465202B20726174650D0A005C
:102BC0002DE9F84F04460E4637461CE1904D483437
:102BD000203CD4F81C80D5F800A02D1DD4F82090FE
:102BE000286800902D1D41465046FDF7F3FB8346B3
:102BF00049460098FDF7EEFBABEB00004000E061BA
:102C000049465046FDF7E6FB834641460098FDF7EE
:102C1000E1FB584440002062D4F81880D5F800A0A9
:102C20002D1DD4F82490286800902D1D4146504653
:102C3000FDF7D0FB834649460098FDF7CBFBABEB95
:102C400000004000A06149465046FDF7C3FB8346A3
:102C500041460098FDF7BEFB584440006062D4F83E
:102C60001480D5F800A02D1DD4F828902868009075
:102C70002D1D41465046FDF7ADFB83464946009861
:102C8000FDF7A8FBABEB00004000606149465046F1
:102C9000FDF7A0FB834641460098FDF79BFB584497
:102CA0004000A062D4F81080D5F800A02D1DD4F803
:102CB0002C90286800902D1D41465046FDF78AFB58
:102CC000834649460098FDF785FBABEB00004000CA
:102CD000206149465046FDF77DFB834641460098FA
:102CE000FDF778FB58444000E062D4F80C80D5F83A
:102CF00000A02D1DD4F83090286800902D1D41466D
:102D00005046FDF767FB834649460098FDF762FB96
:102D1000ABEB00004000E06049465046FDF75AFB2F
:102D2000834641460098FDF755FB58444000206318
:102D3000D4F80880D5F800A02D1DD4F83490286868
:102D400000902D1D41465046FDF744FB8346494601
:102D50000098FDF73FFBABEB00004000A060494648
:102D60005046FDF737FB834641460098FDF732FB9E
:102D7000584440006063D4F80480D5F800A02D1DAD
:102D8000D4F83890286800902D1D41465046FDF734
:102D900021FB834649460098FDF71CFBABEB000086
:102DA0004000606049465046FDF714FB83464146AB
:102DB0000098FDF70FFB58444000A063D4F8008052
:102DC000D5F800A02D1DD4F83C90286800902D1D4A
:102DD00041465046FDF7FEFA834649460098FDF706
:102DE000F9FAABEB00004000206049465046FDF781
:102DF000F1FA834641460098FDF7ECFA584440004A
:102E0000E06320347F1E002F3FF7E0AEBDE8F88F6F
:102E1000503C02082DE9F04F89B004460F46904619
:102E20001E460020069014F095F90020029014F040
:102E300092F9002509E038F9152038F915100298A3
:102E400006F050FD0290681C05B2A02DF3DB0221B4
:102E5000029806F07DFD029002980FF033FF069075
:102E600047F6FF7A14F076F900250EE016F0F2FC32
:102E700034F91500514616F049FC002801DA34F9FE
:102E800015A014F067F9681C05B23C2DEEDB042197
:102E9000504616F073FB0590B4F90000049014F04E
:102EA00059F901250FE016F0D5FC34F915100498F6
:102EB00016F02CFC002804DA34F91500049014F004
:102EC00049F9681C05B2382DEDDBB4F950000390C8
:102ED00014F040F929250FE016F0BCFC34F9151068
:102EE000039816F013FC002804DA34F91500039057
:102EF00014F030F9681C05B23C2DEDDB0020089081
:102F000014F028F916F0A6FC16F0A4FC16F0A2FCAA
:102F100016F0A0FC16F09EFC1421049816F0F6FBA7
:102F2000002834DD44F2AA41069816F0EFFB002891
:102F30002DDA1421069816F0E9FB002827DDDDE9DB
:102F4000051016F0E3FB002806DB40F2A1710398A0
:102F500016F0DCFB00281ADA16F07CFCB4F97800D5
:102F600001210BF092FF1E21019016F0CFFB0028EB
:102F700005DD1E20A4F8780014F0ECF80CE0B4F99C
:102F8000780001210BF081FFA4F8780004E0002014
:102F9000A4F8780014F0DEF816F05CFCB4F97800C0
:102FA000012116F0B3FB002801DD0120089014F088
:102FB000D1F8002508E0681C34F8100024F815004A
:102FC00014F0C8F8681C05B23B2DF4DB0698A4F891
:102FD000760014F0BFF843F26660079014F0BAF878
:102FE00016F038FCB4F97800082116F08FFB0028A1
:102FF00004DD43F6CD40079014F0ACF816F02AFC3F
:10300000B4F978000F2116F081FB002804DD43F6A7
:10301000FF70079014F09EF84FF0000B14F09AF830
:1030200016F018FC052107F1080013F015F80190BF
:10303000079916F06BFB002803DD4FF0010B14F02D
:1030400089F816F007FCB4F97800142116F05EFB3D
:10305000002812DD0921384612F0FEFF0190079981
:1030600016F054FB002804DD4FF0010B14F072F849
:1030700003E04FF0000B14F06DF816F0EBFBBBF122
:10308000000F04D00020308014F064F816E0B6F988
:10309000000001210BF0F9FE814616F0DBFB0A214E
:1030A000484616F033FB002804DD0A20308014F077
:1030B00051F803E0A6F8009014F04CF8089809B015
:1030C000BDE8F08F10B504460CB1206800B910BD02
:1030D000206818F099FB0020206000BFF7E700008F
:1030E00070B504462CB90CA0FDF7A4FD4FF0FF30DD
:1030F00070BD002020607A2015F048FF050004D143
:103100000EA0FDF797FD681EF2E7284600F02EF8A6
:1031100025600020ECE7000042676E5F7363645F28
:10312000696E69743A20696E76616C6964207061B9
:1031300072616D657465720A0000000042676E5F1F
:103140007363645F696E69743A2063616E206E6FA9
:1031500074206D616C6C6F6320737461746520738F
:1031600074727563747572650A00000010B50446C8
:103170002CB907A0FDF75EFD4FF0FF3010BD3C21DC
:1031800020460AF0E7F90020A4F8780000BFF5E730
:1031900042676E5F7363645F72657365743A20693A
:1031A0006E76616C696420706172616D65746572C0
:1031B0000A0000002DE9F04105460C464FF00008DA
:1031C00013F0C8FF002616E00121404616F0D6F99C
:1031D000804634F9027B13F0BDFF16F03BFB012162
:1031E000384616F093FA20B9012140460BF04DFE07
:1031F0008046701C06B2AE42E6DB4046BDE8F08178
:103200002DE9F04105460E46174613F0A3FF0024B2
:1032100018E0104951F8251031F914003146FFF734
:10322000C9FF27F8140013F095FF0A4850F825004D
:1032300030F9140006EB4006002108460BF025FE8D
:10324000601C04B2044830F91500A042E1DCBDE87E
:10325000F0810000600600204641020800BFFEE742
:10326000014609B920207047002201E0521C4900A4
:1032700001F000400028F9D01046F4E7014609B9F2
:1032800020207047002201E0521C490001F000405C
:103290000028F9D01046F4E72DE9FF4F8FB005461E
:1032A00090469B46DDF87090CDF8388013F052FFC1
:1032B000002408E0601C35F8100025F8140013F015
:1032C00049FF601C04B2062CF4DBA5F80C8013F057
:1032D00041FF002454E03BF9141039F9140016F0B2
:1032E00015FA01900BF0C3FD0590059814F0DEFC73
:1032F0000121019016F00AFA03900399059816F03F
:103300003DF9059039F9140014F0D0FC029039F918
:103310001400029916F032F90490DDE904100EF061
:1033200095FA06A921F8140013F014FF022003995E
:103330000BF0ABFD0190029916F0E8F9074616F084
:1033400089FA002F0BDB06A931F91400394616F073
:1033500047F906A921F8140013F0FCFE0EE03846E8
:1033600014F086FC06A9019031F91400019916F0B9
:1033700005F906A921F8140013F0ECFE601C04B254
:103380000A2CA8DBBDF918000D9013F0E3FE012410
:1033900008E006A830F914100D980BF076FD0D909A
:1033A000601C04B20A2CF4DB16F054FA41F2CD4151
:1033B0000D9816F0ABF9002806DDB5F90E000121D5
:1033C0000BF063FDE88103E00020E88113F0C2FE0A
:1033D00016F040FAB5F90E000A2116F097F9002808
:1033E00003DD0020288213F0B5FE4FF4005A13F0DD
:1033F000B1FE16F02FFA0321109816F087F9002875
:1034000005DD0621109816F081F9002877D116F015
:1034100021FA16F01FFA16F01DFA16F01BFA16F034
:1034200019FA16F017FA16F015FA16F013FA16F044
:1034300011FA1F9808B1209818B91D9808B91E985C
:10344000B0B30121229816F061F9002837DD2198E8
:1034500070B30021109816F059F948B10121109865
:1034600016F054F920B10221109816F04FF9F8B96E
:1034700041F29A110D9816F049F9064616F0EAF94C
:10348000002E03DD059613F065FE03E00020059095
:1034900013F060FE16F0DEF94FF40060059916F0A7
:1034A00035F9002805DA4FF4005A13F053FE2CE0EA
:1034B00005E00221059816F061F8824625E040F605
:1034C000CD410D9816F022F9064616F0C3F9002EEC
:1034D00003DD059613F03EFE03E00020059013F097
:1034E00039FE16F0B7F94FF40060059916F00EF9A1
:1034F000002805DA4FF4005A13F02CFE05E087E0AF
:103500000221059816F03AF8824616F0A3F916F053
:10351000A1F9B5F91000282116F0F8F8002806DB0B
:1035200041F2CD410D9816F0F1F8002803DD4FF47B
:10353000005A13F00FFEB5F9041041F69A1006F088
:10354000F5F90B90032409E035F9142041F69A119E
:103550000B9806F0C7F90B90601C04B2072CF3DB44
:103560000B9815F031FE0C9016F074F916F072F904
:1035700016F070F916F06EF916F06CF916F06AF99B
:103580001D9808B91E9848B3219838B300211098A7
:1035900016F0BCF848B10121109816F0B7F820B128
:1035A0000221109816F0B2F8C0B9B5F9001041F236
:1035B000492006F0BBF90B90012409E035F91420ED
:1035C00041F249210B9806F08DF90B90601C04B272
:1035D000072CF3DB0B9815F0F7FD0C9050460E9975
:1035E00006F0A4F90B904FF40051DDE90B0206F050
:1035F00079F90B905146DDE90B0206F085F90B9045
:1036000002210B9806F0A4F9019015F0DDFD0E9053
:10361000B5F9100001210BF038FC28820E9813B088
:10362000BDE8F08F10B504460CB1206800B910BD9C
:10363000206818F0E9F80020206000BFF7E70000DC
:1036400070B504462CB90CA0FDF7F4FA4FF0FF302A
:1036500070BD00202060122015F098FC050004D1F8
:1036600010A0FDF7E7FA681EF2E7284600F036F8EA
:1036700025600020ECE7000043625F6761696E5FD0
:10368000617665726167655F696E69743A20696E1B
:1036900076616C696420706172616D657465720A2F
:1036A0000000000043625F6761696E5F617665726A
:1036B0006167655F696E69743A2063616E206E6F41
:1036C00074206D616C6C6F6320737461746520731A
:1036D00074727563747572650A00000010B5044653
:1036E0002CB907A0FDF7A6FA4FF0FF3010BD072157
:1036F000204609F02FFF0020E081208200BFF5E77F
:1037000043625F6761696E5F617665726167655F7D
:1037100072657365743A20696E76616C69642070B5
:103720006172616D657465720A0000007FB50546BF
:1037300000260020009001900290039000E06D1C94
:1037400028782028FBD029466846FDF760FC6946AA
:1037500041A0FDF76FFA00E0761C1DF80600302846
:1037600003DB1DF806003928F6DD1DF8060018B148
:103770003EA0FDF75FFA7FBD6846FDF707FC0446F3
:103780000F2018F0D5FAB4F5964F35D009DCB4F512
:10379000166F10D0B4F5965F19D0B4F5165F4FD1FF
:1037A00021E0B4F5E13F30D0B4F5613F36D0B4F557
:1037B000E12F45D13BE016F04FF835480460282052
:1037C00018F0B6FA4FF4166016F058F841E016F00B
:1037D00043F82F480460142018F0AAFA4FF49650CA
:1037E00016F04CF835E016F037F8294804604FF42D
:1037F000165016F043F82CE016F02EF8244804601A
:103800004FF4964016F03AF823E016F025F82048D9
:1038100004604FF4E13016F031F81AE016F01CF8AD
:103820001B4804604FF4613016F028F811E016F0E0
:1038300013F8174804604FF4E12016F01FF808E071
:103840001348016813A0FDF7F5F917A0FDF7F2F989
:1038500000BF00BF00BF8EE75365742062617564CE
:1038600020746F202573210D0A0000004572726FCD
:103870007220636F6D6D616E6421207573652062C7
:10388000617564202B206E756D6265720D0A0000F3
:10389000A80100207843757272656E744261756488
:1038A000203D2025640D0A00706C656173652069F8
:1038B0006E70757420393630302F31393230302FF8
:1038C0003131353230302F3233303430302F3436DE
:1038D0003038303020210D0A0000000010B50446B9
:1038E00000E0641C20782028FBD02046FDF7B3FBC5
:1038F000232803D82046FDF7AEFB38B90E490FA0A8
:10390000FDF798F914A0FDF795F907E024210A487E
:10391000FDF7D8FC21460848FDF779FB1BA10648B6
:10392000FDF744FD18B900201A49087002E0012093
:103930001849087010BD0000B9000020437572726C
:10394000656E742075736572206E616D6520697394
:103950002025730D0A000000456E74657220737592
:10396000202B20757365724E616D652C2075736513
:10397000724E616D6572206D757374206C656E6733
:10398000746820317E333520210D0A00726F6F7408
:1039900000000000B800002010B5024613460020C9
:1039A00002E000241C54401C8842FADB10BD70B5B4
:1039B00000254FF4803404E0802007F081FE00B140
:1039C00003E02000A4F10104F6D100BF0CB90320EC
:1039D00070BD40F2FF5007F049FE2846F8E70000AE
:1039E00070B5044605E01648056805F0450000B1CD
:1039F00000E0F8E700BF042007F062FE20B10420D9
:103A000007F034FE032070BD012007F059FE20B1FD
:103A1000012007F02BFE0120F5E709482438006853
:103A2000A04201D01020EEE740F2FF5007F01EFE4A
:103A300003482038006808210840C0B2E3E70000CE
:103A4000342C014070B500264FF4803505E0114854
:103A5000046804F0450000B103E02800A5F1010569
:103A6000F5D100BF15B104F0040028B103260420ED
:103A700007F0FCFD304670BD012007F021FE18B1B3
:103A80000126012007F0F2FD40F2FF5007F0EEFDA5
:103A90003046F0E7342C014010B505E00B480468CF
:103AA00004F0450000B100E0F8E700BF042007F093
:103AB00007FE20B1042007F0D9FD032010BD40F21D
:103AC000FF5007F0D3FD0020F8E70000342C014040
:103AD0002DE9F04105460E464FF0000805E020486C
:103AE000076807F0450000B100E0F8E700BF0420D8
:103AF00007F0E6FD28B1042007F0B8FD0320BDE87B
:103B0000F081012007F0DCFD20B1012007F0AEFDBF
:103B10000120F4E7124824380068A84201D01020A0
:103B2000EDE740F2FF5007F0A1FD0D482038046892
:103B300004F4604018B9200C30804046DFE704F4FC
:103B4000005008B11320DAE704F4804008B11020D7
:103B5000D5E704F4004008B10F20D0E74046CEE797
:103B6000342C014070B500264FF4803505E00F4835
:103B7000046804F0450000B103E02800A5F1010548
:103B8000F5D100BF15B104F0040028B103260420CC
:103B900007F06CFD304670BD04F0400018B10026FF
:103BA000402007F063FD3046F5E70000342C01406B
:103BB000014640F27F400CE031F81020430021F82C
:103BC000132031F81020012303EB400321F81320C8
:103BD000401E0028F0DA704730B50146002300206F
:103BE00016E01F2404EB801202F120030AE031F8F2
:103BF000124021F8134031F812505C1E21F8145085
:103C0000521E9B1E002404EB80149442EFDD401CE6
:103C10002428E6DB30BD2DE9F04105460E46174667
:103C2000002407E035F8140026F8140013F092FA87
:103C3000601C04B2BC42F5DBBDE8F08110B517F0A2
:103C4000C1FD0849084800F043F9012806D105499B
:103C5000054800F03FF805480068804717F0C4FDAC
:103C600010BD000020800020706002405004002041
:103C700010B517F0A7FD0649064800F029F918B15C
:103C80000349044800F026F817F0AEFD10BD00000F
:103C9000208000101064024010B517F093FD0A490F
:103CA0000A4800F015F960B10749084800F012F819
:103CB0000021064800F028F800210548006818F0A7
:103CC00003FA17F091FD10BD00800028B86402408F
:103CD000240000200246094B9A4201D2084801E024
:103CE0000648103801F000531BB1064B0B40C3606F
:103CF00002E0044B0B4083607047000010640240F8
:103D0000006002407D0F7D0F21B1026842F0010288
:103D1000026003E0026822F00102026070470000C6
:103D2000016821F0010101600021016041608160B2
:103D3000C1600161212141614A49884204D13D218C
:103D4000484A103A91608CE046491831884205D1C2
:103D50004FF47461434A103A916082E04149303136
:103D6000884205D14FF474113E4A103A916078E0D0
:103D70003C494831884205D14FF07461394A103AC4
:103D800091606EE037496031884204D13649354A46
:103D9000103AD16065E033497831884204D1334923
:103DA000304A103AD1605CE02E499031884204D10B
:103DB0002F492C4A103AD16053E02A49A831884251
:103DC00005D14FF03D51274A103AD16049E02949C9
:103DD000884204D13D21274A083A116041E0254933
:103DE0001831884205D14FF47461224A083A1160B3
:103DF00037E020493031884205D14FF474111D4A13
:103E0000083A11602DE01B494831884205D14FF036
:103E10007461184A083A116023E0164960318842FB
:103E200004D11149134A121F11601AE01149783167
:103E3000884204D10D490F4A121F116011E00D494B
:103E40009031884204D10A490A4A121F116008E0E1
:103E50000849A831884204D14FF03D51054A121F4C
:103E600011607047106002403D000020400F0020AC
:103E700000003D201064024021B1026842F480221B
:103E8000026003E0026822F480220260704722B1DF
:103E9000036843F40023036003E0036823F4002372
:103EA00003600161704721B1026842F020020260A4
:103EB00003E0026822F02002026070470146002001
:103EC0000A6802F001020AB1012000E000207047F8
:103ED00070B50246002000240025124EB24201D2E5
:103EE000114B01E00F4B103B104E0E4036B11E2619
:103EF00006EAD124166806EA040502E0566906F0CF
:103F0000800501F000560EB15C6800E01C68084EA8
:103F1000344004EA010616B10DB1012000E0002092
:103F200070BD000010640240006002403C0F3C0F76
:103F30007D0F7D0F10B501F080034BB122B14369B5
:103F400043F08003436103E0436923F0800343614E
:103F500080290BD02AB1036801F01E0423430360BB
:103F600004E0036801F01E04A343036010BD0000D9
:103F700010B500220268134B1A40CC680B6823432B
:103F80004C6923438C692343CC6923430C6A234344
:103F90004C6A23438C6A23434C6B23438C6B23432F
:103FA0001A430260426922F00702D1E90B3423432D
:103FB0001A4342610B6943604B6883608B68C3603E
:103FC00010BD00003F801CF02DE9FF4F8DB006466C
:103FD0001F4615F03FFC0F9800285ED000241AE021
:103FE000BC4931F9140040F6CD4113F02DFE06F125
:103FF0001401019031F9140047F2333113F024FE1B
:10400000009001990AF041FF02A921F8140013F071
:10401000A1F8601C04B20A2CE2DB15F01BFC08219D
:104020000E9815F073FBF8B100241AE0AA4A32F991
:10403000141036F9140013F007FEA649019031F967
:10404000140001990AF021FF804602A931F91400F9
:10405000414615F05BFB26F8140013F07BF8601C5A
:1040600004B20A2CE2DB22E1002413E036F914103A
:10407000984A32F914000AF008FF804602A931F983
:104080001400414615F042FB26F8140013F062F8C4
:10409000601C04B20A2CE9DB09E115F0DBFB15F02A
:1040A000D9FB00210E9815F031FB20B101210E98AB
:1040B00015F02CFB60B9DFF8249213F04BF8DFF811
:1040C00020A213F047F8DFF81CB213F043F821E008
:1040D00005210E9815F01AFB70B915F0BBFBDFF83F
:1040E000089213F037F8DFF8F8A113F033F8DFF88F
:1040F000FCB113F02FF80DE015F0ACFBDFF8DC910C
:1041000013F028F8DFF8D8A113F024F8DFF8DCB1B9
:1041100013F020F837F9020B0C9013F01BF80C99F0
:1041200008460AF0B2FE014601900C980AF0ADFE76
:1041300009EB400513F00EF835F8020BADF81C0042
:1041400013F008F835F8020BADF81E0013F002F872
:1041500035F8020BADF8200012F0FCFF37F9020B26
:104160000C9012F0F7FF15F075FB15F073FB0021B2
:104170000E9815F0CBFA20B101210E9815F0C6FA71
:1041800020B901210C9815F0F9F90C900C9908460A
:104190000AF07BFE014601900C980AF076FE0AEBCD
:1041A000400512F0D7FF35F8020BADF8220012F0EF
:1041B000D1FF35F8020BADF8240012F0CBFF35F833
:1041C000020BADF8260012F0C5FF37F9020B0C9078
:1041D00012F0C0FF02210C9815F0D0F90BEB40054E
:1041E00012F0B8FF35F8020BADF8280012F0B2FF5C
:1041F00035F8020BADF82A0012F0ACFF35F8020BCF
:10420000ADF82C0012F0A6FF35F8020BADF82E0029
:1042100012F0A0FF08210E9815F078FA38B30024A8
:1042200022E02D4A32F9141036F9140013F00CFD77
:104230002849019031F9140001990AF026FE8046C0
:1042400007A931F9140041460AF01FFE02A921F81E
:10425000140012F07FFF07A830F8140026F81400AD
:1042600012F078FF601C04B20A2CDADB1FE0002495
:104270001BE036F91410174A32F914000AF005FE53
:10428000804607A931F9140041460AF0FEFD02A953
:1042900021F8140012F05EFF07A830F8140026F889
:1042A000140012F057FF601C04B20A2CE1DB0A2252
:1042B000CD2102A807F030F90A2206F1140102A864
:1042C000FFF7A9FC0A2202A81A9905F0C5FC11B053
:1042D000BDE8F08F301C0020441C0020581C00203A
:1042E00058220020583E002058420020582E00201E
:1042F0002DE9F04F97B00646894617469A4615F0C5
:10430000A9FAB9F1000F45D0002522E0B64931F9EC
:10431000150040F2676113F097FC06F1140102905A
:1043200031F9150047F6981113F08EFC01900299AF
:104330000AF0ABFD08A921F8150012F00BFF08A840
:1043400030F8150003A921F8150012F003FF681CCE
:1043500005B20A2DDADB002519E036F9150045F221
:10436000333113F071FCA049029031F91500029924
:104370000AF08BFD804603A931F91500414615F07E
:10438000C5F926F8150012F0E5FE681C05B20A2DE5
:10439000E3DB0AE1B7F90000022115F0EFF89349D9
:1043A00001EB400412F0D6FE34F8020BADF84800E1
:1043B00012F0D0FE34F8020BADF84A0012F0CAFE3B
:1043C00034F8020BADF8340012F0C4FE34F8020BDE
:1043D000ADF8360012F0BEFEB7F90200022115F06A
:1043E000CDF8834901EB400412F0B4FE34F8020B1F
:1043F000ADF84C0012F0AEFE34F8020BADF84E00F2
:1044000012F0A8FE34F8020BADF8380012F0A2FE4C
:1044100034F8020BADF83A0012F09CFE387900F047
:10442000010B11F0E5FFB7F90400012115F0D8F8F0
:1044300005460221284615F0A1F86E4901EB40041B
:1044400012F088FE15F006FABBF1000F18D134F80F
:10445000020BADF8500012F07DFE34F8020BADF8FF
:10446000520012F077FE34F8020BADF83C0012F067
:1044700071FE34F8020BADF83E0012F06BFE1FE047
:1044800034F9020B13F0F4FBADF8500012F062FEA9
:1044900034F9020B13F0ECFBADF8520012F05AFEA7
:1044A00034F9020B13F0E4FBADF83C0012F052FEBD
:1044B00034F9020B13F0DCFBADF83E0012F04AFEBB
:1044C000B7F90600022115F059F84B4901EB4004F9
:1044D00012F040FE34F8020BADF8540012F03AFE30
:1044E00034F8020BADF8560012F034FE34F8020B2B
:1044F000ADF8400012F02EFE34F8020BADF8420089
:1045000012F028FEB7F90800022115F037F83B49F0
:1045100001EB400412F01EFE34F8020BADF8580017
:1045200012F018FE34F8020BADF85A0012F012FE29
:1045300034F8020BADF8440012F00CFE34F8020B14
:10454000ADF8460012F006FE00252CE036F9150005
:1045500045F2333113F078FB2349029031F915000D
:1045600002990AF092FC804612A931F915004146E1
:104570000AF08BFC08A921F8150012F0EBFD0DA93B
:1045800031F9150041460AF080FC03A921F8150015
:1045900012F0E0FD0DA830F8150026F8150012F015
:1045A000D9FD681C05B20A2DD0DB0A22CD2108A84E
:1045B00006F0B2FF0A22CD2103A806F0ADFF0A22C1
:1045C00006F1140103A8FFF726FB0A22514608A8AA
:1045D00005F042FB0A2203A8209905F03DFB0020CC
:1045E00017B0BDE8F08F0000E4640208F864020828
:1045F000F8680208F8700208F8780208F8800208E3
:1046000010B504460CB1206800B910BD206817F041
:10461000FBF80020206000BFF7E7000070B50446FB
:104620002CB90CA0FCF706FB4FF0FF3070BD00204A
:104630002060282014F0AAFC050004D10DA0FCF78E
:10464000F9FA681EF2E7284600F02CF825600020F1
:10465000ECE70000445F706C73665F696E69743AE2
:1046600020696E76616C696420706172616D657439
:1046700065720A00445F706C73665F696E69743AB4
:104680002063616E206E6F74206D616C6C6F6320AF
:104690007374617465207374727563747572650ADE
:1046A0000000000070B505462DB90BA0FCF7C2FA5A
:1046B0004FF0FF3070BD002404E0002025F8140006
:1046C000601C04B20A2CF8DB0A2205F114010B4825
:1046D000FFF7A1FA0020EDE7445F706C73665F722C
:1046E000657365743A20696E76616C6964207061E7
:1046F00072616D657465720A00000000C0460208B0
:104700002DE9FF4104460E46002016F0E1FF074662
:1047100022462E492EA0FCF78DFA00200090019031
:104720000290039000E0641C20782028FBD02146F2
:104730006846FCF76CFC69462AA0FCF77BFA6846E1
:1047400018F0E2FD0546002D39D0012E06D0022ECC
:104750000CD0032E1AD0042E2FD11FE0284617F0BC
:104760005DFB694623A0FCF765FA27E00D210020D8
:1047700017F080FD284617F077FE3946002017F025
:1047800079FD694622A0FCF755FA17E0284617F094
:10479000EBFD694625A0FCF74DFA0FE0284618F01E
:1047A000FDFC012804D1694627A0FCF743FA03E089
:1047B00069462FA0FCF73EFA00E000BF03E029465F
:1047C00034A0FCF737FABDE8FF810000BF060208FD
:1047D00025733A20636F6D6D616E64203D202573F3
:1047E0000D0A00007461736B4E616D65203D2025DC
:1047F000730D0A0064656C657465207461736B20C9
:1048000025732073756363657373210D0A000000BF
:1048100073757370656E64207461736B20257320EB
:1048200073756363657373210D0A00007265737598
:104830006D65207461736B202573207375636365E8
:104840007373210D0A00000077616B65207570207D
:104850007461736B2025732066726F6D20626C6FBC
:10486000636B2073756363657373210D0A00000029
:1048700077616B65207570207461736B20257320E0
:1048800066726F6D20626C6F636B206661696C216C
:104890000D0A0000746172676574203D2025702048
:1048A0006572726F722120706C6561736520696E2C
:1048B000707574207269676874207461736B206E00
:1048C000616D652E0D0A0000704700002DE9FF4F55
:1048D00087B08A4615469B46DDF85490022128464B
:1048E00014F04CFE054614F0B5FF14F0B3FF14F0BD
:1048F000B1FF0621504614F009FF48B1042150468B
:1049000014F004FF20B10321504614F0FFFEB8B9A3
:104910005A4800EB450412F01DFC34F8020BA9F8CC
:10492000000012F017FC34F9028B12F013FC34F97A
:10493000027B12F00FFCB4F9006012F00BFC6BE08C
:1049400014F088FF0021504614F0E0FE00284CD1FE
:104950000120149914F0DAFE0121019014F00EFEEA
:104960000146029028460AF090FA0546444800EBBA
:10497000450412F0EFFB34F8020BA9F8000012F026
:10498000E9FB34F9028B12F0E5FB404604F0A7FF87
:1049900006AA04A9029005F0F3F80C21BDF9100055
:1049A00014F0B4FE04900A21BDF9100014F0E6FDE5
:1049B00005210290BDF9180014F031FE0190029912
:1049C0000AF063FA074646F25402BDF91810BDF921
:1049D000100005F06FFC03900D21039804F0B8FF60
:1049E000029014F0F1FB064616E0264800EB450461
:1049F00012F0B0FB34F8020BA9F8000012F0AAFB89
:104A000034F9028B12F0A6FB34F9027B12F0A2FB00
:104A1000B4F9006012F09EFB002006AACDE9002048
:104A200004AB5A4651460290079810F01DFFBDF99D
:104A300018100E2005F06EFF02900EF046F905905A
:104A40004046059904F072FF0390BDF910100A204A
:104A500014F05CFE01460290039804F0A7FF039057
:104A600003980EF02FF916990880324639460798B8
:104A700011F0F2F80BB0BDE8F08F000054C8020846
:104A800054CE020854CC02082DE9FC5F80468946CA
:104A900092469B46DDE90D4514F0DCFEBBF1000FAC
:104AA00034D114F0D7FEC521404614F02FFE002863
:104AB00022DA022140460AF0E8F942F6AB210090E2
:104AC00013F0C2F8132101900AF0DFF92080B4F945
:104AD000001008460AF0D9F90190B4F900100AF064
:104AE000D4F906463146404614F010FE3A210190B2
:104AF0000AF0CBF92880AFE07021404614F006FEA2
:104B000020800020288012F025FBA5E014F0A2FEF2
:104B10000F9828BB022140460AF0B7F942F6AB21B4
:104B2000009013F091F80121019014F0EFFD06467A
:104B3000494630460AF0A9F92080314630460AF04D
:104B4000A4F9314601900AF0A0F906460221404638
:104B500014F0DCFD3146019014F0D8FD28807BE094
:104B60000C9F12F0F7FA14F075FE4946384614F01F
:104B7000CDFD0521019014F0C9FD002804DD0521BB
:104B800048460AF082F9074614F064FE394650465A
:104B900014F0BCFD0421019014F0B8FD002804DDE0
:104BA0000421504614F0B2FD074614F053FE0421D0
:104BB000404614F0ABFD00280EDA0521384614F00B
:104BC000A5FD0646414630460AF05FF920800020E8
:104BD000288012F0BFFA3FE014F03CFE0C21404662
:104BE00014F094FD002825DA0521404614F08EFDCE
:104BF00042F6AB21009013F027F80121019014F048
:104C000085FD0646394630460AF03FF92080314698
:104C100030460AF03AF9314601900AF036F9064674
:104C20000921404614F072FD3146019014F06EFDEA
:104C3000288011E00C21404614F068FD39460190AF
:104C40000AF023F90646012130460AF01EF92080B9
:104C50000020288012F07EFABDE8FC9F2DE9FF4F6E
:104C600083B0894615469A46DDE9104614F0F2FDF8
:104C7000BAF1000F3DD114F0EDFD40F2CF110398D1
:104C800014F044FD002829DA052103980AF0FDF804
:104C900041F25651019012F0D7FF112102900AF013
:104CA000F4F82080B4F9001008460AF0EEF80290FB
:104CB000B4F900100AF0E9F80746394638460AF018
:104CC000E4F801460190039814F020FD6921029058
:104CD0000AF0DBF8308012F03DFA5CE04FF4B87176
:104CE000039814F013FD20800020308012F032FA77
:104CF00051E0B4F90000052114F008FD804614F0DD
:104D0000A9FD4946404614F001FD002802DAC846D4
:104D100012F020FA092140460AF0B7F8834614F051
:104D200099FD2946584614F0F1FC002807DDAB46F2
:104D300012F010FA0921584614F0E8FC80460521CB
:104D400003980AF0A2F841F25651019012F07CFF4C
:104D50000121029014F0DAFC0746414638460AF079
:104D600094F82080394638460AF08FF83946029088
:104D70000AF08BF80746394638460AF086F80321D0
:104D80000290039814F0C2FC0190029914F0BEFC4A
:104D9000308012F0DFF907B0BDE8F08F2DE9FF4F4A
:104DA00087B005460E46149C002E03DC00200BB095
:104DB000BDE8F08F002B02DA4FF0FF30F7E70593E4
:104DC000DFF858B309985BF82000DFF854B30BEB19
:104DD00040000190DFF84CB309985BF830C00998A7
:104DE0000BEBC0000079029000221598404200F0C1
:104DF000070129B114F8010BC1F1200B00FA0BF2E5
:104E00005B1A029898B9002006900BE04FF0000B57
:104E1000069845F820B00698401C45F820B0069842
:104E2000801C06900698B042F0DB0020BFE7029895
:104E3000012879D10198007800F00F0004900198C2
:104E4000801C01904FF0000A65E0102B10DB14F875
:104E5000010BC1F1180B00FA0BF0024314F8010B1F
:104E6000C1F1100B00FA0BF002431031103B22E0AD
:104E7000C818002802DC4FF0FF3098E7002B06DD51
:104E800014F8010BC1F1180B00FA0BF00243082BC8
:104E900006DD14F8010BC1F1100B00FA0BF0024310
:104EA00019440023481E4FF0004B4BFA00F002401B
:104EB0004FF00B0A51442AE00498C0F1200022FA76
:104EC00000F0DDF804B03BF810804FEA183EA1EB8B
:104ED0000E0102FA0EF2C8F30319B9F1000F05D062
:104EE00002F0004040EA09095200491EC8F30327B6
:104EF00027B102F0004007435200491E514502DA33
:104F00004FF0FF3053E745F8049B80C5B61E002ED6
:104F100001DD0B29D0DA002E97DCA1EB0A00034457
:104F20000598C01A43E7FFE70298032802D00298C9
:104F3000022876D1019800904FF0000AE2E0102B91
:104F400010DB14F8010BC1F1180B00FA0BF002434F
:104F500014F8010BC1F1100B00FA0BF002431031F1
:104F6000103B22E0C818002802DC4FF0FF301EE79B
:104F7000002B06DD14F8010BC1F1180B00FA0BF041
:104F80000243082B06DD14F8010BC1F1100B00FAE7
:104F90000BF0024319440023481E4FF0004B4BFA1C
:104FA00000F002404FF00B0A5144A6E00098007850
:104FB00000F00F0004900498C0F1200B22FA0BF0CF
:104FC000401CDDF800B03BF810804FEA183EBEF1FF
:104FD000000F08D10498091A04988240009800EB49
:104FE0004800009089E0A1EB0E0102FA0EF2C8F32E
:104FF0000319C8F30327B9F10F0F33D1029803281F
:1050000030D10FB1012000E000200CF1010B584419
:10501000039001EB030B0398834503DA4FF0FF3055
:10502000C5E678E008E014F8010BC1F1180B00FAAE
:105030000BF002430831083B03988142F3DB002B5D
:1050400007DA19440023481E4FF0004B4BFA00F0DA
:105050000240CCF1200022FA00F08144A1EB0C01C7
:1050600002FA0CF2B9F1000F05D002F0004040EA5C
:1050700009095200491E0F2F2DD1029803282AD169
:105080000CF10100039001EB030B0398834502DA56
:105090004FF0FF308BE608E014F8010BC1F1180B5C
:1050A00000FA0BF002430831083B03988142F3DB1E
:1050B000002B07DA19440023481E4FF0004B4BFA2F
:1050C00000F00240CCF1200022FA00F00744A1EBEE
:1050D0000C0102FA0CF227B102F000400743520023
:1050E000491E514502DA4FF0FF3060E645F8049B57
:1050F00080C5B61E0198009000BF002E02DD0B296E
:10510000BFF654AF002E3FF71AAFA1EB0A000344DD
:105110000598C01A4BE64FF0FF3048E6003602080B
:10512000DC140208803602082DE9FF4F83B00546E3
:10513000109C002B03DC002007B0BDE8F08FDFF8E7
:1051400058E105985EF82000DFF850E170440090C7
:10515000DFF84CE105985EF82000029000221198DB
:10516000404200F0070129B114F8010BC1F1200EF3
:1051700000FA0EF25B1A0027019785E0102B10DB76
:1051800014F8010BC1F1180E00FA0EF0024314F8E6
:10519000010BC1F1100E00FA0EF002431031103B6A
:1051A00022E0C818002801DC3846C5E7002B06DDE0
:1051B00014F8010BC1F1180E00FA0EF00243082B8F
:1051C00006DD14F8010BC1F1100E00FA0EF00243D7
:1051D00019440023481E4FF0004E4EFA00F00240E2
:1051E0000A2001900198014448E00298C0F1200093
:1051F00022FA00F0DDF800E01EF800604FEA161B0E
:10520000A1EB0B0102FA0BF2C6F3C00CBCF1000FCC
:1052100005D002F0004040EA0C0C5200491EC6F3D3
:105220008008B8F1000F05D002F0004040EA0808FD
:105230005200491EC6F34009B9F1000F05D002F033
:10524000004040EA09095200491E06F0010ABAF17D
:10525000000F05D002F0004040EA0A0A5200491E41
:105260000198814201DA384666E745F804CB45F8F3
:10527000048B45F8049B45F804AB3F1D0498C01E01
:10528000B84201DD0A29B0DA0498C01EB8423FF7DF
:1052900075AF384650E70000D03702088037020863
:1052A000D83702080FB5F5B000201E900C900B9077
:1052B0000A907598D0F808020890789913F092FF38
:1052C000099011F047FF14F0C5FA0021099814F075
:1052D0001DFAE8B30821759801F064FA779B769A75
:1052E0007A997B98CDE90223CDE904107599099844
:1052F000D1F8EC11CDE900107598D0F800020890B3
:105300007598D0F8F40107907598D0F808020690C7
:10531000759901F5CE71DDE907230CF001FB759855
:10532000D0F8F40114300A220890759901F5C4717F
:1053300004F092FC7598D0F8F40114300890759838
:10534000D0F8F0010790089911F054F801F02FB946
:10535000FFE714F07FFA14F07DFA14F07BFA0321D2
:10536000789814F0D3F948B10721789814F0CEF961
:1053700020B10221789814F0C9F920BB01200B90CC
:1053800011F0E8FE14F066FA14F064FA0721789838
:1053900014F0BCF920B10221789814F0B7F9D8B90B
:1053A000FE49769851F82000FD490890769831F929
:1053B000100007900146759800F5F470779B089AE5
:1053C0000AF018FC08E00121789814F09FF918B948
:1053D00001200A9011F0BEFE14F03CFA0B9850B177
:1053E0007598B0F9B8010121089009F04EFD759942
:1053F000A1F8B80114E07598B0F9B8010621089039
:1054000014F084F930B905217598A0F8B81111F09D
:10541000A1FE05E000217598A0F8B81111F09AFEE0
:1054200014F018FA7598B0F9B8010621089014F034
:105430006DF9002805DD06217598A0F8B81111F066
:1054400089FE14F007FA7598D0F8080290F89601D2
:105450000121089014F05AF960B905217598A0F857
:10546000B81111F077FE00217598A0F8B41111F071
:1054700071FE1BE014F0EEF97598D0F8080290F870
:1054800096010221089014F041F908B9012000E0CA
:10549000002058B105217598A0F8B81111F05AFEF6
:1054A00001217598A0F8B41111F054FE7598D0F848
:1054B000F40114300A2265A90890FEF7ACFB14F041
:1054C000C9F90721769814F021F9C8B16FA80090A6
:1054D0007598D0F8F4010890779B0B9A7699FEF7AF
:1054E00073FD10F0BFF97798801D779011F032FEB0
:1054F0006FA9759800F5C4707B9A03F08DFE19E0D2
:105500006FA800907598D0F8F4016AAB0890779A6C
:105510000B99FEF7EDFE10F0A5F977980A30779019
:1055200011F018FE6FAA6AA9759800F5C4707B9BEC
:1055300003F01BFE002023900FE06FA9239831F8A1
:105540001020759800F5C470239920F8112011F0EF
:1055500001FE2398401C00B2239023980A28ECDB1C
:1055600010F080F97B98749011F0F4FD00200C90FD
:1055700011F0F0FD4FF0FF300D9011F0EBFD002029
:10558000229000F0D4BF01210D9809F07EFC0D900F
:1055900001200C9914F0BAF80C902298199011F08F
:1055A000D9FD14F057F95021229814F0AFF888B9BA
:1055B00014F050F914F04EF90021769814F0A6F882
:1055C00040B10121769814F0A1F818B1002019908B
:1055D00011F0C0FD7798B0F900001F907798801CFB
:1055E000779011F0B7FD14F035F90721769814F093
:1055F0008DF800287ED00020109011F0ABFD14F043
:1056000029F914F027F914F025F914F023F90021F1
:10561000769814F07BF870B10121769814F076F842
:1056200048B10221769814F071F820B103217698E0
:1056300014F06CF818B90120109011F08BFD0520C2
:10564000159011F087FD0920149011F083FD14F0DE
:1056500001F90521769814F059F838B90A20159007
:1056600011F078FD1320149011F074FD7598B0F9C5
:10567000B2010890159914F049F8179014F0EAF85F
:105680001421179814F042F8002803DA1420179018
:1056900011F060FD1499179809F0F7FB169014F0BB
:1056A000D9F88F21169814F031F8002808DD8F20E2
:1056B000169011F04FFD1499169814F027F81790D2
:1056C00020AA21AB7599B1F9B2111098CDE9013238
:1056D00000910390199BDDE916211F98FFF7D4F97B
:1056E000BDF984107598A0F8CC1111F033FD14F0B9
:1056F000B1F800E063E00B98E8B314F0ABF87598EC
:10570000B0F9B2018F21089014F000F8002809DAEE
:105710007598B0F9B2010121089009F0B6FB7599AE
:10572000A1F8B2017598B0F8B201219011F012FD04
:105730000020209011F00EFD14F08CF814F08AF87F
:1057400014F088F814F086F814F084F87598B0F81E
:10575000CE0180B17598B0F9D0010421089013F002
:10576000D5FF002816DD0021769813F0CFFF58B141
:105770000121769800E00DE013F0C8FF20B102216E
:10578000769813F0C3FF28B97598B0F8CC01219032
:1057900011F0E0FC10F066F8012003E0584E002004
:1057A0008683020800907598D0F884012823089019
:1057B000BDF98020BDF9841005F0ECF839E020A88F
:1057C00021A9CDE900108F221221199B1F98FFF704
:1057D00045FA14F03FF814F03DF814F03BF80B983C
:1057E00038B91998B0B13D211F9813F08FFF0028E8
:1057F00010DBBDF984107598A0F8CC1111F0AAFC4B
:105800007598B0F8B201219011F0A4FC002020900E
:1058100011F0A0FC10F026F8002000907598D0F848
:10582000840128230890BDF98020BDF9841005F07B
:10583000B1F810F017F814F00DF814F00BF800217F
:10584000769813F063FF20B10121769813F05EFF84
:1058500020BB7798B0F900001F907798801C779054
:1058600011F078FC7798B0F9000023907798801CAD
:10587000779011F06FFC0FF0F5FF4CAB1F9A239956
:105880000D980AF031FF0FF0EDFF7598B0F9B001F7
:105890000121089013F072FE1A90EFE00221769831
:1058A00013F034FF28BB13F0D5FF7798B0F9000050
:1058B0001F907798801C779011F04CFC7798B0F986
:1058C000000023907798801C779011F043FC0FF034
:1058D000C9FF4CAA1F9923980AF06AFE0FF0C2FF75
:1058E0007598B0F9B0010121089013F047FE1A90A5
:1058F000C4E00321769813F009FF38BB13F0AAFF28
:1059000013F0A8FF7798B0F900001F907798801CDB
:10591000779011F01FFC7798B0F9000023907798EA
:10592000801C779011F016FC0FF09CFF4CAA1F9979
:1059300023980AF071FF0FF095FF7598B0F9B00148
:105940000121089013F01AFE1A9097E0052176982D
:1059500013F0DCFE002829DC13F07CFF13F07AFF43
:1059600013F078FF7798B0F900001F907798801CAB
:10597000779011F0EFFB7798B0F9000023907798BB
:10598000801C779011F0E6FB0FF06CFF4CAA1F997A
:1059900023980AF0E5FF0FF065FF7598B0F9B001A4
:1059A0000121089013F0EAFD1A9067E0062176982D
:1059B00013F0ACFED8B913F04DFF13F04BFF13F00A
:1059C00049FF0FF04FFF4CA977980AF07DFD7798BB
:1059D0000E30779011F0BEFB0FF044FF7598B0F9D0
:1059E000B0010121089013F0C9FD1A9046E013F0B0
:1059F00031FF13F02FFF13F02DFF7798B0F900005F
:105A00001F907798801C779011F0A4FB13F022FF71
:105A10000B9860B17598B0F9B80108907598D0F8F6
:105A2000F8011DAA079008990CF0C0FF06E01F9925
:105A300076980AF09FFC1D9011F08CFB7598B0F9D8
:105A4000B40108907598D0F8F8011DAB0790089A3A
:105A50000B990DF055F80FF005FF4CA977980AF057
:105A6000ADFC77981430779011F074FB0FF0FAFECC
:105A70000121BDF9740013F081FD1A90BDF9840075
:105A800023901EE0BDF984102398401A4CA931F9E7
:105A9000100008901A9912F0D7F812904CA9239888
:105AA00031F910000890BDF9481009F0EEF94CAA40
:105AB000239922F8110011F04DFB2398401C00B2ED
:105AC000239023982828DDDB0FF0CCFE13F0C2FED4
:105AD0000021769813F01AFE08B9012000E000209A
