:020000040800F2
:10000000583E002011010008D92A0008DB2A000808
:10001000E32A0008E72A0008EB2A00080000000095
:10002000000000000000000000000000EF2A0008AF
:10003000F12A000800000000F32A0008F52A000851
:100040002B0100082B0100082B010008733A00085F
:100050002B0100082B0100082B0100082B010008D0
:100060002B0100082B0100082B0100082B010008C0
:100070002B0100082B0100082B0100082B010008B0
:100080002B0100082B0100082B0100082B010008A0
:100090002B0100082B0100082B0100086B2B000826
:1000A0002B0100085D2F00082B0100082B01000820
:1000B000CB2F000839300008BD3000082B010008A4
:1000C0002B0100082B0100082B0100082B01000860
:1000D0002B0100080F4D0008FF2A0008232B000801
:1000E0002B0100082B0100082B010008DFF80CD0C1
:1000F0000BF086F8004800479D280008583E002075
:100100007047000030BF72B662B680F3088870474F
:100110000648804706480047FEE7FEE7FEE7FEE7A1
:10012000FEE7FEE7FEE7FEE7FEE7FEE71302000854
:10013000ED0000080CB50020019000906C480068AC
:1001400040F480306A49086000BF6948006800F4E4
:10015000003000900198401C0190009818B9019857
:10016000B0F5A06FF1D16248006800F4003010B122
:100170000120009001E0002000900098012843D168
:100180005C48006840F010005A4908600846006862
:1001900020F0030008600846006840F00200086094
:1001A00053484068524948600846406848600846DD
:1001B000406840F4806048600846406820F47C1045
:1001C00048600846406840F4E81048600846006807
:1001D00040F08070086000BF4548006800F0007083
:1001E0000028F9D04248406820F0030040494860A8
:1001F0000846406840F00200486000BF3C48406844
:1002000000F00C000828F9D10CBD10B5FFF792FFE3
:1002100010BD10B53648006840F001003449086050
:10022000084640683449084031494860084600683B
:10023000324908402E4908600846006820F48020B2
:1002400008600846406820F4FE0048604FF41F0034
:100250008860FFF7DAFF4FF000602949086010BDA1
:1002600010B5002100200022214B5B6803F00C0137
:1002700021B1042906D0082928D107E0214B224CBE
:10028000236027E01F4B204C236023E0184B5B6862
:1002900003F47010164B5B6803F48032022303EB07
:1002A000904022B9194B4343174C23600DE0104B8B
:1002B0005B6803F4003323B1144B4343124C2360B7
:1002C00003E0104B4343104C236003E00D4B0E4CF6
:1002D000236000BF00BF064B5B68C3F303130C4CE5
:1002E000E15C094B1B68CB40074C236010BD00004C
:1002F00000100240002002400000FFF8FFFFF6FE61
:1003000008ED00E000127A000000002000093D0026
:100310000400002031490143314A1160704770B533
:10032000002100230F22C47804B32D4C246804F468
:10033000E064C4F5E064210AC1F10403CA404478D2
:1003400004FA03F18478144021430901254C06780E
:10035000A155047804F01F050124AC4005786D1107
:10036000AD0005F1E025C5F8004109E0047804F08E
:100370001F050124AC401C4D0678761145F8264037
:1003800070BD1A4A0A400243154B1B1F1A60704782
:1003900039B1134A121D12680243114B1B1D1A601A
:1003A00006E00F4A121D126882430D4B1B1D1A6096
:1003B0007047042808D14FF0E021096941F0040199
:1003C0004FF0E022116107E04FF0E021096921F0D0
:1003D00004014FF0E0221161704700000000FA05AF
:1003E0000CED00E000E400E080E100E080FFFF1F92
:1003F00010B50446FA48844208D10121401500F0A6
:10040000CBFE0021601500F0C7FE17E0F5488442DE
:1004100008D10121001500F0BFFE0021201500F0D9
:10042000BBFE0BE0F048844208D10121C80300F074
:10043000B3FE00214FF4004000F0AEFE10BD30B519
:100440000246002000235068E84C20400D790C68DB
:1004500044EA0524204350609068E54C2040D1E9EF
:1004600002542C434D7944EA450420439060D06AFD
:1004700020F470000C7C641EE4B2234340EA035075
:10048000D06230BD00210160017141718160C160A5
:1004900001210174704721B1826842F0010282603B
:1004A00003E0826822F001028260704721B1826815
:1004B00042F48072826003E0826822F4807282607B
:1004C000704710B50023CBB21AB144681C43446096
:1004D00002E044689C43446010BD816841F008011B
:1004E00081607047014600208A6802F008020AB164
:1004F000012000E000207047816841F00401816024
:100500007047014600208A6802F004020AB1012007
:1005100000E00020704721B1826842F4A0028260AE
:1005200003E0826822F4A002826070470146002046
:100530008A6802F480020AB1012000E000207047BE
:1005400010B50A4600210023416821F46041531E82
:1005500041EA4331416010BD21B1426842F400627A
:10056000426003E0426822F4006242607047F0B5E6
:1005700004460D4600200021092D11DDE068A5F19B
:100580000A0606EB4607072606FA07F18843A5F197
:100590000A0606EB460603FA06F10843E0600CE0A3
:1005A000206905EB4507072606FA07F1884305EBA6
:1005B000450603FA06F108432061072A0FDA606B4B
:1005C000561E06EB86071F2606FA07F18843561EBD
:1005D00006EB860605FA06F10843606322E00D2A61
:1005E0000FDA206BD61F06EB86071F2606FA07F1E7
:1005F0008843D61F06EB860605FA06F108432063FA
:1006000010E0E06AA2F10D0606EB86071F2606FA47
:1006100007F18843A2F10D0606EB860605FA06F1FE
:100620000843E062F0BD21B1826842F4801282602A
:1006300003E0826822F48012826070470146C86C31
:1006400080B2704766484C300068704721B14268FC
:1006500042F48062426003E0426822F480624260B9
:10066000704721B1426842F48052426003E0426820
:1006700022F48052426070470A460021816821F4CA
:10068000E04111438160704721B1826842F4004229
:10069000826003E0826822F400428260704721B1E8
:1006A000826842F40212826003E0826822F402123D
:1006B00082607047014600208A6802F400120AB185
:1006C000012000E000207047F0B5044615460020E8
:1006D00000220026092911DDE068A1F10A0707EBD5
:1006E000470C072707FA0CF29043A1F10A0707EB22
:1006F000470703FA07F21043E0600CE0206901EBC2
:10070000410C072707FA0CF2904301EB410703FA6B
:1007100007F210432061A06BC0F30156EF1C06F1F5
:10072000010CA7EB0C0707EB870C1F2707FA0CF24D
:100730009043EF1C06F1010CA7EB0C0707EB8707B2
:1007400001FA07F21043A063F0BD10B50A4600217C
:100750000023816B21F44011531E41EA0351816350
:1007600010BD08B5002300930090009B0B4400933C
:10077000009B1A6008BD08B5024600200090009258
:1007800001F12800009B184400900098006880B296
:1007900008BD0A4600214168164B194011434160CB
:1007A00070474162826270470A460021416821F029
:1007B0001F0111434160704740B109490831096880
:1007C00041F40001064A0832116007E0044908318B
:1007D000096821F40001024A0832116070470000E4
:1007E0000024014000280140003C0140FFFEF0FFD2
:1007F000FDF7F1FFFFFD3FFF0246002013680B40AD
:100800000BB1012000E000207047CA43026070472E
:1008100070B502460020002300240B125568CEB2AA
:1008200005EA060415681D4015B10CB1012000E071
:10083000002070BD00220A12D343036070470000FD
:1008400010B5012000F0C2FC002000F0BFFC10BD7C
:100850002A49086070472949091F086070472749DD
:1008600084310860704701460020254A10884FF601
:100870007F4210400843224A108070470146002002
:100880001F4A10884FF68072104008431C4A10809F
:10089000704708B500220092194A2C3A0092009A3B
:1008A00002440092009A116008BD08B5014600207C
:1008B000009013482C38009000980844009000984D
:1008C000008808BD0D489C300068C0B270470C48D5
:1008D0000830008840F0010009490831088070475D
:1008E0000648A0300068C0B270470548083000884C
:1008F00040F00200024908310880704704860D422A
:100900002C6C0040002044490860091D0860091D46
:100910000860091D086041483F491431086070476C
:1009200000213D498279002A3AD00A4612680368BC
:100930009A430B461A600A1D126803689A430B1DFE
:100940001A60027911440A6803681A430A60324A3D
:100950000832126803689A432F4B08331A601A1D35
:10096000126803689A432C4B0C331A604279102AA0
:100970000ED11A1F126803681A43274B08331A60F6
:100980001A1D126803681A43234B0C331A600DE0DA
:100990002149427911440A6803681A430A6005E054
:1009A000027911440A6803689A430A60704700217B
:1009B000016001710C21417100218171704716495C
:1009C000103109680143144A103211607047014622
:1009D0000020114A143212680A400AB1012000E0D6
:1009E000002070470C491431086070470146002010
:1009F0000022094B1B6803EA0102074B14331B68F2
:100A00000B4013B10AB1012000E0002070470249F9
:100A1000143108607047000000040140FFFF0F0020
:100A200010B50446CC48844208D10121042000F0CE
:100A3000B3FB0021042000F0AFFB46E0C74884422E
:100A400008D10121082000F0A7FB0021082000F0B8
:100A5000A3FB3AE0C248844208D10121102000F0F3
:100A60009BFB0021102000F097FB2EE0BD48844244
:100A700008D10121202000F08FFB0021202000F070
:100A80008BFB22E0B848844208D10121402000F0CD
:100A900083FB0021402000F07FFB16E0B348844236
:100AA00008D10121802000F077FB0021802000F098
:100AB00073FB0AE0AE48844207D10121801500F0A3
:100AC0006BFB0021A01500F067FB10BD10B50121E4
:100AD000084600F061FB0021012000F05DFB10BD25
:100AE0002DE9F041024600250026002000230024C5
:100AF000002791F803C00CF00F0591F803C00CF02B
:100B0000100CBCF1000F03D091F802C04CEA0505AF
:100B100091F800C0BCF1000F31D0146800202BE028
:100B20004FF0010C0CFA00F3B1F800C00CEA030618
:100B30009E4220D183004FF00F0C0CFA03F7BC4308
:100B400005FA03FC4CEA040491F803C0BCF1280F39
:100B500006D14FF0010C0CFA00FCC2F814C00AE0F8
:100B600091F803C0BCF1480F05D14FF0010C0CFA0D
:100B700000FCC2F810C0401C0828D1D31460B1F8A2
:100B800000C0BCF1FF0F34DD546800202EE000F1FE
:100B9000080C4FF0010808FA0CF3B1F800C00CEA99
:100BA00003069E4221D183004FF00F0C0CFA03F78D
:100BB000BC4305FA03FC4CEA040491F803C0BCF101
:100BC000280F05D100F1080C08FA0CF8C2F81480BF
:100BD00091F803C0BCF1480F07D100F1080C4FF0A9
:100BE000010808FA0CF8C2F81080401C0828CED37F
:100BF0005460BDE8F0814FF6FF71018002218170E1
:100C00000421C17070470246002093680B400BB16D
:100C1000012000E0002070470146886880B27047DC
:100C200002460020D3680B400BB1012000E00020F9
:100C300070470146C86880B27047016170474161E2
:100C400070470AB1016100E041617047C1607047BF
:100C50004FF480320A4382618161826182698269D4
:100C6000704702460020434B18684FF680731840C7
:100C700040EA021008433F4B186070473E49C86184
:100C80007047F0B50A46002300240021002500F03B
:100C90000046B6F1004F02D1364EF16901E0354E03
:100CA0007168C0F3034583B200F44016B6F5401FE7
:100CB00008D121F070612F4E766826F070662D4FB6
:100CC0007E6012E000F48016B6F5801F06D1032680
:100CD00006FA05F4A14341F0706106E0460D3601C5
:100CE00003FA06F6B14341F0706122B1460D3601B8
:100CF00003FA06F6314300F00046B6F1004F02D188
:100D00001C4EF16101E01B4E7160F0BD30B5002258
:100D10008B071C0F0F2303FA04F2164B08338C10B9
:100D200053F824309343134C08348D1044F8253085
:100D300023468C1053F824308C07240F00FA04F457
:100D400023430C4C08348D1044F8253030BD0A493B
:100D5000DC3108607047000000080140000C0140D1
:100D6000001001400014014000180140001C014027
:100D70000020014000000140000020420E490860B0
:100D800070470D49486070470B49886070474AF6C4
:100D9000AA200949086070474CF6CC400649086013
:100DA000704701460020044AD2680A400AB1012077
:100DB00000E00020704700000030004010B5012125
:100DC000080700F0F6F900214FF0805000F0F1F92B
:100DD00010BD2A49086270472849086170470146DA
:100DE0000020274A106820F0E00008431060704798
:100DF0002249A0310860704710B502460020204B00
:100E0000186820F00300104318601E4B1B6843F065
:100E100004031C4C2360012901D130BF00E020BF36
:100E2000184B1B6823F00403164C236010BD1448B4
:100E3000006840F00400124908600846006840F06D
:100E4000020008600F48006840F004000D49086087
:100E500000BF00BF30BF704701460020084A5268FB
:100E60000A400AB1012000E00020704704490968E7
:100E700041EA8001024A11607047000000000E4202
:100E80000070004010ED00E0DF48006840F0010015
:100E9000DD49086008464068DC490840DA49486096
:100EA00008460068DA490840D749086008460068E3
:100EB00020F4802008600846406820F4FE00486066
:100EC0004FF41F0088607047CF49096821F48031D2
:100ED000CD4A11601146096821F480211160B0F5F6
:100EE000803F03D0B0F5802F0ED106E0C6490968D7
:100EF00041F48031C44A116007E0C349096841F4F4
:100F0000A021C14A116000E000BF00BF704710B5CA
:100F100001460022002300204A11012A02D1BA4CC6
:100F2000236806E0022A02D1B74C236A01E0B64CDE
:100F3000636A01F01F02012494401C400CB101209F
:100F400000E0002010BD38B50020009000240025EE
:100F500000BF3120FFF7DBFF05460098401C0090E2
:100F60000098B0F5A06F01D0002DF2D03120FFF72E
:100F7000CEFF08B1012400E00024204638BD014620
:100F80000020A14A106820F0F80040EAC10010607B
:100F90007047A04908607047024600209A4B586885
:100FA00020F47C1042EA01031843974B58607047C5
:100FB00098490866704701460020934A506820F01F
:100FC00003000843506070478F48406800F00C00F1
:100FD0007047014600208C4A506820F0F00008431A
:100FE0005060704701460020874A506820F4E06056
:100FF00008435060704701460020834A506820F43F
:10100000605040EAC1005060704729B17E4A527A70
:1010100002437D4B5A7204E07B4A527A82437A4BF8
:101020005A7270477B49D8310860704701460020EA
:10103000754A506820F440400843506070470021D2
:10104000714A20321170704A82F82010012802D0B3
:1010500004280AD104E001216B4A2032117005E016
:101060000521694A2032117000E000BF00BF7047BF
:101070006949086070476449096A0143624A11621C
:101080007047654944390860704730B50021002237
:10109000002400235C4D6D6805F00C0121B104298A
:1010A00005D0082923D105E05C4D056022E05B4DA9
:1010B00005601FE0544D6D6805F47012524D6D6867
:1010C00005F48034022505EB92421CB9544D55437A
:1010D00005600BE04C4D6D6805F400351DB1504DB9
:1010E0005543056002E04D4D5543056002E04B4D10
:1010F000056000BF00BF444D6D6805F0F0010909AF
:10110000484D6B5C0568DD4045603F4D6D6805F4FA
:10111000E061090A434D6B5C4568DD4085603A4DEE
:101120006D6805F46051C90A3E4D6B5C4568DD4051
:10113000C560354D6D6805F44041890B3A4D6B5CD7
:10114000C568B5FBF3F5056130BD29B12E4A52697A
:1011500002432D4B5A6104E02B4A526982432A4BC9
:101160005A61704729B1284A92690243264B9A6115
:1011700004E0254A92698243234B9A61704729B162
:10118000214AD2690243204BDA6104E01E4AD26947
:1011900082431D4BDA61704729B11B4AD268024372
:1011A000194BDA6004E0184AD2688243164BDA60C1
:1011B000704729B1144A12690243134B1A6104E0C3
:1011C000114A12698243104B1A6170471249403923
:1011D000086070470F49C86470470B49C871704771
:1011E0000948406A40F080700749486270470146EC
:1011F0000020054A92680A400AB1012000E0002060
:101200007047014988727047001002400000FFF8E3
:10121000FFFFF6FE000042428004424200127A00C4
:1012200000093D00140000202400002029B1504A8C
:10123000128802434E4B1A8004E04D4A12888243C2
:101240004B4B1A8070474A48001D008840F0100040
:101250004749091D088070474548001D00884FF622
:10126000EF7108404249091D08807047002140483D
:101270001C300188001F008841EA0040704700B51B
:101280000246FFF7E0FF100C394918310880091DAC
:101290000A80FFF7E1FF00BD00B50246FFF7D3FF6C
:1012A000C2F30340324908310880091D0A80FFF764
:1012B000D3FF00BD00B50246FFF7C5FF100C2C4957
:1012C00020310880091D0A80FFF7C6FF00BD0020FD
:1012D0002749103109880907080B25491431098865
:1012E0000843704700BF2248001D008800F020001E
:1012F0000028F8D070471E48001D00884FF6F7718F
:1013000008401B49091D088000BF1948001D0088BE
:1013100000F008000028F8D0704701460020144A69
:10132000121D12880A400AB1012000E00020704717
:101330000F49091D098881430D4A121D118070470C
:10134000014600200A4A121D12880A40D0B2084AFB
:1013500012880A4012B108B1012000E00020704755
:101360000349091D09888143014A121D11807047F4
:101370000028004010B50446FE48844208D10121EF
:10138000C014FFF709FF0021E014FFF705FFC4E0D8
:10139000B4F1804F08D101210846FFF70AFF002170
:1013A0000120FFF706FFB8E0F348844208D101218D
:1013B0000220FFF7FEFE00210220FFF7FAFEACE05C
:1013C000EE48844208D101210420FFF7F2FE0021FB
:1013D0000420FFF7EEFEA0E0E948844208D1012195
:1013E0000820FFF7E6FE00210820FFF7E2FE94E068
:1013F000E448844208D101211020FFF7DAFE0021E1
:101400001020FFF7D6FE88E0DF48844208D1012192
:101410002020FFF7CEFE00212020FFF7CAFE7CE04F
:10142000DA48844208D101214014FFF7B5FE0021BB
:101430006014FFF7B1FE70E0D548844209D1012164
:10144000C804FFF7A9FE00214FF40020FFF7A4FE17
:1014500063E0D048844209D101210805FFF79CFED2
:1014600000214FF48010FFF797FE56E0CA488442EF
:1014700009D101214805FFF78FFE00214FF400102C
:10148000FFF78AFE49E0C548844208D10121402087
:10149000FFF78FFE00214020FFF78BFE3DE0C048A4
:1014A000844208D101218020FFF783FE00218020A3
:1014B000FFF77FFE31E0BB48844208D1012180154F
:1014C000FFF777FE0021A015FFF773FE25E0B64871
:1014D000844209D101210804FFF75EFE00214FF488
:1014E0008030FFF759FE18E0B048844209D101214D
:1014F0004804FFF751FE00214FF40030FFF74CFE87
:101500000BE0AB48844208D101218804FFF744FE78
:1015100000214FF48020FFF73FFE10BD002202881B
:10152000944B98420ED0994B98420BD0B0F1804F1B
:1015300008D0914B984205D0904B984202D0904BE6
:10154000984204D14FF68F731A404B881A438D4B43
:10155000984207D08C4B984204D04FF6FF431A4074
:10156000CB881A4302808B8883850B880385814B47
:1015700098420BD0854B984208D08B4B984205D0AF
:101580008A4B984202D08A4B984201D10B7A03864B
:1015900001238382704770B5002400220023058C4C
:1015A0004FF6FE7635400584028C8388048B4FF617
:1015B0008F752C40B51E2C400D882C43751E2A407B
:1015C0000D892A434D882A436A4DA8420BD06F4D9E
:1015D000A84208D0744DA84205D0744DA84202D04C
:1015E000734DA84213D14FF6F7752A404D892A430F
:1015F0004FF6FB752A408D882A434FF6FF652B4036
:101600004FF6FF552B408D892B43CD892B4383808B
:101610000483CD888586028470BD70B500240022C5
:101620000023058C4FF6EF7635400584028C8388C5
:10163000048B48F6FF752C404FF6FF452C400D8873
:101640004FF6FF7606EA05252C434FF6DF752A4054
:101650000D8906EA05152A434D8806EA05152A4331
:10166000444DA84202D0494DA8421DD14FF67F7586
:101670002A404D894FF6FF7606EA05152A434FF6B4
:10168000BF752A408D8806EA05152A434FF6FF35B7
:101690002B404FF2FF752B408D8906EA85052B43C1
:1016A000CD8906EA85052B4383800483CD88058791
:1016B000028470BD70B5002400220023058C4FF613
:1016C000FF6635400584028C8388848B4FF68F75C6
:1016D0002C404FF6FC752C400D882C434FF6FF55DF
:1016E0002A400D894FF6FF7606EA05252A434D88E4
:1016F00006EA05252A431F4DA84202D0234DA842E1
:101700001DD14FF2FF752A404D894FF6FF7606EA4C
:1017100005252A434FF6FF352A408D8806EA052520
:101720002A434EF6FF752B404DF6FF752B408D89F1
:1017300006EA05152B43CD8906EA05152B43838060
:101740008483CD888587028470BD70B50022002314
:101750000024058C4EF6FF7635400584038C848882
:10176000828B48F6FF752A404FF6FF452A400D88C8
:1017700020E00000002C0140000400400008004070
:10178000000C0040001000400014004000340140F4
:10179000004C01400050014000540140001800403E
:1017A000001C004000200040004001400044014077
:1017B000004801404FF6FF7606EA05252A434DF61C
:1017C000FF752B400D8906EA05352B434D8806EA47
:1017D00005352B43FA4DA84202D0FA4DA84208D154
:1017E0004BF6FF752C408D894FF6FF7606EA85157E
:1017F0002C4384808283CD88A0F84050038470BD40
:10180000828B4FF2FF331A408283828B4FF6FF7335
:1018100003EA01231A4382837047F0B50C4615464C
:10182000002200210026078C4EF6FF7C07EA0C07F9
:101830000784828B018C4FF6FF7707EA043640F667
:10184000FF473A404FF6FF7707EA05273A434FF63E
:10185000FF7707EA03373A43D94FB8420ED0D94F42
:10186000B8420BD0B0F1804F08D0D74FB84205D066
:10187000D64FB84202D0D64FB84206D14DF6FF77C8
:10188000394046F48057394305E047F6FF57394061
:1018900044F48057394382830184F0BD828B4FF634
:1018A000F3731A408283828B0A4382837047F0B5B8
:1018B0000C461546002200210026078C4FF6FF6CCF
:1018C00007EA0C070784828B018C4FF6FF7707EA43
:1018D00004264FF60C773A404FF6FF7707EA0317D6
:1018E0002F433A43B64FB8420ED0B64FB8420BD052
:1018F000B0F1804F08D0B44FB84205D0B34FB842D2
:1019000002D0B34FB84206D14FF6FF57394046F4E4
:101910008077394305E04FF2FF57394044F4807730
:10192000394382830184F0BD028B4FF2FF331A40AA
:101930000283028B4FF6FF7303EA01231A430283EB
:101940007047F0B50C461546002200210026078C92
:101950004FF6EF7C07EA0C070784028B018C4FF6E9
:10196000FF7707EA041640F6FF473A404FF6FF7745
:1019700007EA03373A434FF6FF7707EA05273A436A
:101980008F4FB8420ED08F4FB8420BD0B0F1804F7E
:1019900008D08D4FB84205D08C4FB84202D08C4F42
:1019A000B84206D14FF6DF77394046F01007394389
:1019B00005E04FF65F77394044F010073943028362
:1019C0000184F0BD028B4FF6F3731A400283028B41
:1019D0000A4302837047F0B50C46154600220021E9
:1019E000068C4FF6FE773E400684028B018C4FF644
:1019F0000C7632407E1C06EA03162E433243704EAC
:101A0000B0420ED06F4EB0420BD0B0F1804F08D034
:101A10006D4EB04205D06D4EB04202D06C4EB04219
:101A200006D14FF6FD76314044F00106314305E022
:101A30004FF6F576314044F00106314302830184CC
:101A4000F0BD70B505460C465D4885420ED05D4838
:101A500085420BD0B5F1804F08D05B48854205D058
:101A60005A48854202D05A48854200D100E000BF62
:101A7000208850B92389A28861882846FFF7ABFFE8
:101A8000E1882846FFF79EFF25E0208804280AD138
:101A90002389A28861882846FFF753FFE1882846FA
:101AA000FFF742FF17E0208808280AD12389A2887F
:101AB00061882846FFF7FBFEE1882846FFF7EEFE27
:101AC00009E02389A28861882846FFF7A6FEE188FD
:101AD0002846FFF795FE70BD2DE9F04105460C46FE
:101AE00000260127608808B9022600E00026A088A9
:101AF000012801D1022700E001272088A0B923890D
:101B0000A28861882846FFF766FFE1882846FFF72C
:101B100059FF23893A4631462846FFF712FFE188EC
:101B20002846FFF701FF13E02389A2886188284631
:101B3000FFF707FFE1882846FFF7F6FE23893A46BC
:101B400031462846FFF747FFE1882846FFF73AFF6E
:101B5000BDE8F0810A884B881A438B881A43CB88EA
:101B60001A430B891A434B891A438B891A43A0F8ED
:101B7000442070474FF6FF71818000210180C180B1
:101B80004180017270470021018041808180C180C5
:101B9000018141818181C1817047002101804180A3
:101BA000012181800021C1800181704700210180D5
:101BB00041808180C1800181418181817047000025
:101BC000002C0140003401400004004000080040A7
:101BD000000C004021B1028842F00102028004E0C2
:101BE00002884FF6FE731A400280704731B1B0F898
:101BF000442042F40042A0F8442005E0B0F844201C
:101C0000C2F30E02A0F8442070471AB183890B4337
:101C1000838102E083898B4383817047818270478F
:101C200041EA0203A0F8483070471AB183890B4398
:101C3000838102E083898B438381704701894FF65A
:101C4000F8721140018170470A46002101894FF660
:101C50008F73194011430181704730B504460D461A
:101C600029462046FFF7F0FF208940F00700208139
:101C700030BD2DE9F04104460D4616461F46602D45
:101C800006D13B46012231462046FFF75AFE05E0C9
:101C90003B46012231462046FFF79DFE294620465D
:101CA000FFF7D2FF208940F007002081BDE8F081D6
:101CB00030B50C4600210189C9B24FF6FF7505EA1F
:101CC0000325154325432943018130BD2DE9F0410A
:101CD00005460E4617469846002443463A46314686
:101CE0002846FFF7E5FF2C894FF6F870044044F0D2
:101CF00007044FF68F70044044F070042C81BDE857
:101D0000F081F0B504460D4616461F463B46324666
:101D100029462046FFF7CCFF208940F480402081EF
:101D2000F0BD0185828270470A46002101884FF686
:101D30008F731940114301807047F0B50C4615466A
:101D40001E460021002200230189028B038C4FF6DE
:101D5000F877394021434FF6FC473A4040F20117EB
:101D60003A434FF6DD773B404FF6FF7707EA061719
:101D70002F433B43018102830384F0BD0A460021C7
:101D8000018B4FF68F7319401143018370470A4648
:101D90000021018B48F6FF7319404FF6FF7303EAE9
:101DA00002231943018370470A460021818B4FF6B5
:101DB0008F7319401143818370470A460021818B3C
:101DC00048F6FF7319404FF6FF7303EA02231943E5
:101DD0008183704721B1028842F08002028004E0D2
:101DE00002884FF67F731A400280704721B18288C3
:101DF00042F00402828004E082884FF6FB731A40AE
:101E00008280704721B1828842F00802828004E01B
:101E100082884FF6F7731A408280704721B182881A
:101E200042F00102828004E082884FF6FE731A407D
:101E3000828070470A460021018B4FF6F7731940E4
:101E40001143018370470A460021018B4FF2FF7353
:101E500019404FF6FF7303EA0223194301837047C9
:101E60000A460021818B4FF6F77319401143818395
:101E700070470A460021818B4FF2FF7319404FF6DD
:101E8000FF7303EA02231943818370470A46002146
:101E9000018B4FF6FB7319401143018370470A46CB
:101EA0000021018B4FF6FF3319404FF6FF7303EA11
:101EB00002231943018370470A460021818B4FF6A4
:101EC000FB7319401143818370470A460021818BBF
:101ED0004FF6FF3319404FF6FF7303EA022319430D
:101EE000818370470A460021018B4FF67F731940AA
:101EF0001143018370470A460021018BC1F30E0193
:101F00004FF6FF7303EA02231943018370470A4621
:101F10000021818B4FF67F731940114381837047F5
:101F20000A460021818BC1F30E014FF6FF7303EACD
:101F300002231943818370470A460021018C4FF622
:101F4000FD7319401143018470470A460021018C3A
:101F50004FF6F77319401143018470470A46002178
:101F6000018C4FF6DF7319404FF6FF7303EA02133B
:101F70001943018470470A460021018C4FF67F7394
:101F800019404FF6FF7303EA0213194301847047A7
:101F90000A460021018C4FF6FF5319404FF6FF739C
:101FA00003EA02231943018470470A460021018C89
:101FB0004FF2FF7319404FF6FF7303EA02231943F0
:101FC000018470470A460021018C4DF6FF731940C9
:101FD0004FF6FF7303EA023319430184704730B5AB
:101FE000002301248C40A3B2048C9C430484048C01
:101FF00002FA01F5ADB22C43048430BD30B50023A4
:1020000004248C40A3B2048C9C430484048C02FA04
:1020100001F5ADB22C43048430BD70B503460020F9
:1020200000241846183001258D40ACB21D8CA54304
:102030001D8409B1082909D100EB6100056825F06C
:10204000700505600568154305600EE00D1FC5F3BA
:102050004E052844056825F4E045056005684FF6FF
:10206000FF7606EA02263543056070BD21B102887D
:1020700042F00202028004E002884FF6FD731A402B
:102080000280704721B1028842F00402028004E01D
:1020900002884FF6FB731A400280704721B1828894
:1020A00042F08002828004E082884FF67F731A40FB
:1020B0008280704702884FF6F7731A4002800288C8
:1020C0000A430280704782884FF68F731A408280DD
:1020D00082880A438280704702894FF6F8731A405B
:1020E000028102890A430281704702894FF67F7399
:1020F0001A40028102890A43028170478184704735
:102100008185704781867047018770478187704756
:10211000A0F84010704702884FF6FF431A40028033
:1021200002880A43028070470146888E7047014644
:10213000088F70470146888F70470146B1F840000C
:1021400070470146888C70470146088D70470246EB
:102150000020138A0B400BB1012000E000207047E3
:10216000CA430282704730B5024600200023002493
:10217000158A05EA0103958905EA010413B10CB13A
:10218000012000E0002030BDCA43028270470000F9
:1021900010B50446FB48844209D101218803FEF7AB
:1021A000FBFF00214FF48040FEF7F6FF32E0F648D7
:1021B000844209D101214804FEF7FBFF00214FF4BE
:1021C0000030FEF7F6FF25E0F048844209D10121F6
:1021D0008804FEF7EEFF00214FF48020FEF7E9FFB0
:1021E00018E0EB48844209D10121C804FEF7E1FF61
:1021F00000214FF40020FEF7DCFF0BE0E5488442AD
:1022000008D101210805FEF7D4FF00214FF480100A
:10221000FEF7CFFF10BD2DE9F04786B005460E460C
:102220000024A24600BFA1460027B08900B100BF2C
:102230002F462C8A4CF6FF700440F08804432C8211
:10224000AC894EF6F3100440B08831890843718997
:1022500008430443AC81AC8A4FF6FF400440B08988
:102260000443AC8201A8FEF710FFC648874202D1A2
:10227000DDF810A001E0DDF80CA0A88900F4004012
:1022800040B10AEBCA0000EB0A1031684900B0FB0C
:10229000F1F807E00AEBCA0000EB0A103168890088
:1022A000B0FBF1F86420B8FBF0F0040120096421D0
:1022B00001FB1089A88900F4004040B1322000EBF6
:1022C000C900B0FBF1F000F00700044308E0322041
:1022D00000EB09106421B0FBF1F000F00F000443A3
:1022E0002C8106B0BDE8F0874FF416510160002143
:1022F0008180C18001810C21418100218181704751
:1023000010B502460020108A4FF2FF0318400B88D8
:102310004C8823438C882343CC8823431843108262
:1023200010BD0021018041808180C180704721B1B2
:10233000828942F40052828104E082894DF6FF7363
:102340001A4082817047F0B503460024002600251C
:10235000002040F66A17B94200D100BF1846C1F309
:10236000421401F01F06012707FA06F5012C01D1DE
:102370000C3004E0022C01D1103000E014301AB10E
:1023800007682F43076002E00768AF430760F0BDAE
:102390001AB1838A0B43838202E0838A8B43838250
:1023A0007047028A4FF6F0731A400282028A0A438B
:1023B0000282704782894FF2FF731A4082818289BC
:1023C0000A438281704721B1828942F002028281F0
:1023D00004E082894FF6FD731A4082817047028AB9
:1023E0004FF6DF731A400282028A0A430282704764
:1023F00021B1028A42F48042028204E0028A4BF652
:10240000FF731A4002827047C1F30802828070474E
:1024100001468888C0F308007047818941F00101B6
:1024200081817047028BD2B20283028B42EA012281
:1024300002837047028B02F47F420283028B0A43BD
:102440000283704721B1828A42F02002828204E036
:10245000828A4FF6DF731A408282704721B1828AE6
:1024600042F01002828204E0828A4FF6EF731A4033
:102470008282704721B1828A42F00802828204E09F
:10248000828A4FF6F7731A408282704721B182899F
:1024900042F40042828103E08289C2F30E0282810B
:1024A000704721B1828A42F40062828204E0828A0B
:1024B0004FF2FF731A4082827047828A4FF6FB7395
:1024C0001A408282828A0A438282704721B1828ABC
:1024D00042F00202828204E0828A4FF6FD731A40C3
:1024E0008282704702460020B1F5007F00D100BF14
:1024F00013880B400BB1012000E00020704701F46D
:102500000072B2F5007F00D100BFCA43028070475D
:1025100070B50246002400230025002040F66A160C
:10252000B14200D100BFC1F3421501F01F030126E3
:1025300006FA03F3012D02D19689334006E0022DFD
:1025400002D1168A334001E0968A33400C120126EC
:1025500006FA04F41688344013B10CB1012000E0EF
:10256000002070BD10B50022002340F66A14A1427D
:1025700000D100BF0A1201249440A3B2DC430480BE
:1025800010BD0000003801400044004000480040F9
:10259000004C00400050004038B50446204600F092
:1025A00068FCF0B101226946204600F06BFC01286E
:1025B00017D1D448006880B1D34800789DF8001046
:1025C00088420AD001226946632002F03BFD05469D
:1025D000CC480168284602F063FD9DF80000CA4916
:1025E000087038BD70B50446254695F8280028B116
:1025F000E86A10B1E86A02F062FD70BD00F051FFB8
:1026000000BFFAE738B505462C4694F8280078B1A3
:10261000E06A60B1E06A007A0090E06ABB49D0E904
:102620000032BBA008F07AFEE06A02F048FD38BD37
:10263000C0480068401CBF49086000BF0020086017
:10264000BD480168BDA008F069FE00BFEFE770B5A6
:102650000446254695F8280028B1E86A10B1E86AD2
:1026600002F02DFD70BD012000F044FB18B10120E7
:1026700000F00AFB02E0012000F02EFB00BFF1E7B2
:1026800070B50446254695F8280028B1E86A10B1CF
:10269000E86A02F014FD70BD02F0BAFB00BFFAE771
:1026A00008B5002002F0CFFBA84800F031FB00F095
:1026B0001FFE00200123AFF237024FF4C8710090D3
:1026C000A3A000F016FDA4490860A449486880470B
:1026D00099480123AFF2890264210090A0A000F084
:1026E00008FDA249086094480123AFF2E70242F2D4
:1026F000107100909EA000F0FCFC9F490860002033
:102700000123AFF21F12072100909CA000F0F1FC02
:102710009C4801239C4A642100909CA000F0E9FCA5
:10272000002001239C4A052100909CA000F0E1FCC0
:10273000744908609CA008F0F1FD08BD10B504467E
:10274000012000F0D7FA18B1012000F09DFA02E054
:10275000012000F0C1FA012C0CD19A48007808B988
:10276000012000E0002097490870974997A008F0E1
:10277000D5FD14E0022C0CD19248007808B9012054
:1027800000E000208F4908708F4992A008F0C6FD34
:1027900005E0032C03D18C4990A008F0BFFD10BDCB
:1027A00030B585B08FA008F0B9FDFEF70DFC0446EA
:1027B000042C03D190A008F0B1FD09E01CB994A04D
:1027C00008F0ACFD04E0082C02D197A008F0A6FDAB
:1027D0006846FEF75AFC9A490098B0FBF1F5294685
:1027E00098A008F09BFD96490198B0FBF1F52946A9
:1027F00099A008F093FD92490298B0FBF1F52946A3
:102800009BA008F08BFD8E490398B0FBF1F529469B
:102810009DA008F083FD8A490498B0FBF1F5294694
:102820009FA008F07BFD05B030BD10B5482000F03A
:10283000D5F9022004F0CCFA012004F0C9FA4FF4D3
:10284000A06000F0C5F902F0A6FA032002F0CAFA6F
:1028500041F61F41092000F0C3FB9A4808F05EFDD5
:10286000FFF79EFF00F01FFAAFF22F1220219648CB
:1028700000F058FE04F079F804F022F902F09AFC16
:1028800007F061FC07F073FC07F0FCFE07F057FF50
:10289000002141F61F4003F059FD10BDFDF7B9FCC2
:1028A000FFF7C3FFFFF7FCFE04E000F0A8FC274899
:1028B000FFF772FEF9E710B5012000F01BFA18B11E
:1028C000012000F0E1F902E0012000F005FA7F4963
:1028D0007FA008F023FD10BD2DE9F04105460C4610
:1028E000204608F01CF807463A462146284602F0E2
:1028F000A9FB064620480168304602F0D1FBBDE83E
:10290000F08100003400002040000020ACC300082B
:1029100025733A206D73672D3E646174613D2573A4
:102920002C2073697A653D25642C20636D643D25F8
:10293000640D0A00440000202800002073797354BD
:1029400069636B3D25640D0A000000004803002008
:1029500066656564446F6700300000209C000020BD
:102960004C6564466C617368000000002C00002018
:102970006D5365636F6E6400380000204B657953BA
:1029800063616E003C000020056400084C636444F1
:102990006973706C61790000C16100086D696E69CE
:1029A000436F7265000000004D696E6962616C6181
:1029B0006E636520496E6974204F6B202E2E2E0D9C
:1029C0000A000000D701002088C3000825732031C9
:1029D0000D0A0000257320320D0A000025732033F4
:1029E0000D0A000053797374656D207374617274FD
:1029F0002E2E2E0D0A000000535953434C4B536F9B
:102A000075726365206973204853450D0A00000004
:102A1000535953434C4B536F757263652069732050
:102A20004853490D0A000000535953434C4B536F10
:102A30007572636520697320504C210D0A000000F7
:102A400040420F0053595320636C6F636B203D2548
:102A5000644D487A200D0A0048434C4B20636C6F4C
:102A6000636B203D25644D487A200D0A000000006C
:102A700050434C4B3120636C6F636B203D25644D9C
:102A8000487A200D0A00000050434C4B325F636CC3
:102A90006F636B203D25644D487A200D0A000000CD
:102AA00053414443434C4B5F4672657175656E6399
:102AB00079636C6F636B203D25644D487A200D0A65
:102AC00000000000F0DB000800080140A0C300087F
:102AD00025730D0A00000000704710B5FDF710FBCC
:102AE00010BD00BFFEE700BFFEE700BFFEE7704776
:102AF0007047704700204FF0E0218861704710B5A3
:102B0000002440F225512848FFF702FD40B140F271
:102B100025512548FFF726FD2348FFF779FCC4B26D
:102B200010BD08B540F225512048FFF7F1FCD8B19F
:102B300040F225511D48FFF715FD1C48FFF768FCC2
:102B4000C0B200901A4890F8140268B10122694698
:102B5000174800F0A5F9012806D01548D0F8100252
:102B6000401C1349C1F8100208BD10B51148006897
:102B700020F002000F49086009E00FA008F0CEFB2A
:102B800080211248FEF73FF88020FDF740FF8020AB
:102B9000FDF72CFF0028F0D10648006840F0020045
:102BA0000449086010BD0000004400400048004097
:102BB0004803002004040140496E66726172656436
:102BC0005F455854492E2E2E0D0A0000000C01407E
:102BD00010B504462046FDF79DFB10BD10B5044618
:102BE0006FF00400FDF7E5FBE11704EB5171C1F351
:102BF000C701234A11701046007800EB4001C1EB79
:102C0000C0104FF6FF7101EAC0001E49088010BDD8
:102C100001461B4A12784A434FF0E0235A610022D2
:102C20009A6101221A6100BF4FF0E022106900F0A2
:102C300001021AB100F48032002AF5D000224FF0D0
:102C4000E0231A619A61704701460E4A12884A438E
:102C50004FF0E0235A6100229A6101221A6100BFFD
:102C60004FF0E022106900F001021AB100F4803246
:102C7000002AF5D000224FF0E0231A619A617047D4
:102C8000480000204A00002010B50446012C07D15E
:102C900000201D49087010211C48FDF7D0FF00E0FE
:102CA00000BF00BF10BD08B501210420FEF75AFA8D
:102CB00003208DF8020010208DF8030003208DF80A
:102CC00002001020ADF8000069461048FDF708FF2B
:102CD0000120FFF7D9FF08BD10B50446012C06D12D
:102CE0000949087010210948FDF7A7FF00E000BF5F
:102CF00000BF10BD0146012902D10348007870478A
:102D000000BF00BF00BFFAE74C00002000080140F0
:102D100070B504464FF4007524B96EA008F0FEFAB1
:102D2000002070BD15B1681E284020B16EA008F0CB
:102D3000F5FA0020F5E7012004F500742075400243
:102D4000206000206060A06020732061A4F5007402
:102D50002046E6E7014601F5017005C8801A704774
:102D60002DE9F04104460E4615460027B84604F505
:102D7000017003C8A0EB0108454501D2284600E0D8
:102D800040460546D4F80012491ED4F8080208400F
:102D9000D4F80012081AA84201D9284608E0D4F84D
:102DA0000012491ED4F808020840D4F80012081A8C
:102DB0000746D4F80022521ED4F808021040011928
:102DC0003A46304607F087FDEA1BF019214607F026
:102DD00082FDD4F808022844C4F808022846BDE859
:102DE000F0812DE9F04104460F461546002604F512
:102DF000007003C8401AD4F808120844A84201D948
:102E0000284606E004F5007003C8401AD4F80812FA
:102E100008440546D4F80012491ED4F804020840BC
:102E2000D4F80012081AA84201D9284608E0D4F8BC
:102E30000012491ED4F804020840D4F80012081AFF
:102E40000646D4F80022521ED4F804121140081984
:102E50003246394607F03FFDAA1BB919204607F054
:102E60003AFDD4F804022844C4F804022846BDE818
:102E7000F08110B5034600241846FFF76BFF0446A7
:102E8000204610BD2DE9F04104460D461646324657
:102E900029462046FFF764FF07463846BDE8F08123
:102EA0002DE9F04104460F4615462A46394620468C
:102EB000FFF797FF0646AE4202D0012084F80C02CD
:102EC0003046BDE8F0810021C0F80412C0F80812B5
:102ED0007047000072696E675F62756620697320D3
:102EE0004E554C4C0D0A000073697A65206D757360
:102EF0007420626520706F776572206F6620320DD6
:102F00000A0000007FB505460C4600208DF80C0035
:102F10000121C802FEF726F9ADF80850ADF80440CB
:102F20000020ADF80600ADF80A0001A9F848FEF748
:102F3000F5FA01221146F648FEF767FE19208DF8D2
:102F4000000001208DF8010003208DF8020001200F
:102F50008DF803006846FDF7E2F97FBD10B5012149
:102F6000EB48FFF700F918B10121E948FFF70CF928
:102F700010BD7FB505460C4601210846FEF7FFF857
:102F8000ADF80850ADF804400020ADF80A00ADF8E7
:102F9000060001A94FF08040FEF7C0FA0122114659
:102FA0009007FEF732FE1C208DF8000001208DF8FE
:102FB00001008DF802008DF803006846FDF7AFF9B7
:102FC00001218807FEF706FE7FBD10B501218807A5
:102FD000FFF7C9F818B101218807FFF7D5F810BD30
:102FE0007FB505460C4601210220FEF7C8F8ADF872
:102FF0000850ADF804400020ADF80A00ADF8060016
:1030000001A9C448FEF78AFA01221146C148FEF719
:10301000FCFD1D208DF8000000208DF801008DF8CA
:10302000020001208DF803006846FDF778F90121C0
:10303000B848FEF7CFFD7FBD10B50121B548FFF7B9
:1030400092F868B10121B348FFF79EF8B2480068D2
:10305000401CB1490860B1480068401CAF49086095
:1030600010BD7FB505460C4601210420FEF787F808
:10307000ADF80850ADF804400020ADF80A00ADF8F6
:10308000060001A9A648FEF749FA01221146A44804
:10309000FEF7BBFD1E208DF8000001208DF8010019
:1030A00000208DF8020001208DF803006846FDF72E
:1030B00036F901219A48FEF78DFD7FBD10B501213B
:1030C0009748FFF750F818B101219548FFF75CF8D1
:1030D00010BD10B5044600206076E076A076E06171
:1030E00020622063E06360621921204607F00CFC37
:1030F00010BD2DE9F84F06460F4690469946DDF87B
:1031000028A00024874800680F2840D2002506E048
:10311000854800EB8510407E00B902E06D1C0F2D44
:10312000F6D300BF0F2D32D27F4800EB851401206B
:1031300060760020E063C4F830A0E076E7612762A3
:1031400084F81A901921204607F0DEFB304607F07C
:10315000E6FB83465A463146204607F0BCFBC4F8DE
:10316000248072480068E0637048046004F1340011
:1031700000F08CFA6B480068401C6A4908600846F9
:10318000009522466A4903686AA008F0C7F834B976
:10319000644832466649036873A008F0BFF82046C9
:1031A000BDE8F88F2DE9F04105464FF0FF375F4C41
:1031B00000261DE02068A84217D126682068C06B51
:1031C000206058480068401E56490860084632464C
:1031D0006E4903686EA008F0A1F83046FFF779FF4A
:1031E000304601F095FF002705E0206800F13C041F
:1031F00020680028DED100BF3846BDE8F0812DE907
:10320000F0474FF00008494CC146444807686B48F6
:1032100000683D1A69480760002D67D02E4662E0BD
:1032200000202168C86209E00120216881F8280097
:103230002068C0F82C802068416A8847206801F027
:1032400086FF5FEA0008EFD12068C069B04240D82D
:103250000020216881F828002068416A884720689A
:10326000C069361A2068006A2168C86106B13AE070
:103270002068807E01281AD12068C07E012811D1E3
:10328000D4F800902068C06B20602E462548006866
:10329000401E244908604846FFF71BFF484601F0DE
:1032A00037FF20E0206800F13C042E461AE0D4F8F5
:1032B00000902068C06B20602E461A480068401EAF
:1032C000184908604846FFF704FF484601F020FF10
:1032D00009E02068C069801B2168C861206800F18E
:1032E0003C042E4600BF2068002899D1BDE8F08735
:1032F00010B5002400200B49086000BF05E00A4912
:1033000001EB8410FFF7E5FE641C0F2CF7D310BD12
:10331000002C014000040040280000205400002040
:10332000000800405C0000206005002058000020DC
:10333000BCC3000825733A206164642074696D651C
:10334000725B25735D20737563636573732E2073E1
:10335000797354696D6572546F74616C3D25642C8A
:1033600020693D25640D0A0025733A202573204607
:1033700061696C2121212073797354696D657254E0
:103380006F74616C203D2025640D0A00D2C30008D3
:1033900025733A2064656C6574652074696D657287
:1033A000205B25735D2E2073797354696D657254AB
:1033B0006F74616C3D25640D0A0000006000002000
:1033C00070B505460C4621896068FDF71CFC18B9EC
:1033D000E08A401CE08201E00020E08221896068F0
:1033E000FDF711FC18B9207C08B901202074607C1D
:1033F00078B9207C012804D1A07C401CA074012055
:103400006074A07C022804D10020A074A082022055
:1034100070BD21896068FDF7F6FB012802D100200C
:1034200020746074A07C012813D1A08A401CA08263
:10343000A08AA84207DDE08AA84204DA0020A0742E
:10344000A0820120E4E7E08AA84202DD0020A07407
:10345000A0820020DCE710B50446608B40B92189CA
:103460006068FDF7D0FB18B9208B401C208301E079
:1034700000202083208BB0F5967F05DD012060833E
:1034800000202083012010BD608B012807D12189F5
:103490006068FDF7B8FB012801D10020608300209F
:1034A000F1E770B5002431E0C4EBC4005C4A02EBE4
:1034B00080013220FFF784FF0546012D08D1C4EBBF
:1034C000C400574A02EB8000C1680120884709E028
:1034D000022D07D1C4EBC400514A02EB8000C16841
:1034E00002208847C4EBC4014D4A02EB8100FFF77C
:1034F000B2FF0646012E07D1C4EBC400484A02EBD6
:103500008000C16803208847601CC4B24548006839
:10351000844206D2C4EBC400414911F820000028BF
:10352000C2D170BD2DE9F84304460F4690460026EF
:103530003D48844204D101210420FDF713FE31E00F
:103540003A48844204D101210820FDF70BFE29E00E
:103550003748844204D101211020FDF703FE21E009
:103560003448844204D101212020FDF7FBFD19E0FD
:103570003148844204D101214020FDF7F3FD11E0E0
:103580002E48844204D101218020FDF7EBFD09E0A3
:103590002B48844204D101218015FDF7E3FD01E0B1
:1035A000BDE8F88303208DF8020048208DF8030061
:1035B000ADF8007069462046FDF792FA1948006898
:1035C0000A2825D2002507E0C5EBC500144911F8EB
:1035D000200000B902E06D1C0A2DF5D300BF0A2DB2
:1035E00016D2C5EBC5000E4901EB800601203070F4
:1035F00074603781C6F80C800A480068401C09498D
:10360000086008462A460F4903680FA007F086FEA7
:1036100026B90C4919A007F081FEC1E700BFBFE73A
:10362000200900206400002000080140000C014037
:10363000001001400014014000180140001C01402E
:1036400000200140EAC3000825733A206164642029
:103650006B65795B25645D206465746563742073B4
:103660007563636573732E206B65794576656E743B
:10367000546F74616C3D25640D0A000025733A2077
:103680004661696C2121210D0A0000000060406044
:1036900070475060026041600860704710B5044692
:1036A0000B46194620461A68FFF7F3FF10BD10B508
:1036B00004460B461A4620465968FFF7EAFF10BD3C
:1036C00048600160704700B50246D2E90010FFF77C
:1036D000F7FF00BD00B50246D2E90010FFF7F0FF8A
:1036E00000BD30B504460D462046FFF7ECFF2946E5
:1036F0002046FFF7D3FF30BD30B504460D462046C7
:10370000FFF7E1FF29462046FFF7D1FF30BD014614
:103710000868884201D1012070470020FCE70000C2
:1037200008B503208DF8000000208DF8010002206C
:103730008DF8020001208DF803006846FCF7EFFDCC
:1037400008BDF0B503460C461546642093FBF0F027
:10375000C6B2642093FBF0F700FB1730C1B2132E02
:1037600002DD01F16400C1B20846CF1701EB977783
:1037700001EBA707BAB2072092FBF0F700FB172076
:1037800082B25719601EDFF8F0C31CF800003844FD
:1037900082B2CF1701EB9777BF10A1EB87071FB954
:1037A000032C01DA501E82B2072092FBF0F700FBD7
:1037B0001720C0B2F0BD0146CA1701EB92729210F9
:1037C000A1EB820292B9642091FBF0F200FB12108F
:1037D00050B94FF4C87091FBF0F200FB121008B919
:1037E000012070470020FCE70120FAE70020F8E7FD
:1037F00070B5002600240025FDF738FD0646DF4899
:10380000B6FBF0F4DE480088A0423CD0DC490C80D6
:1038100040F2B27510E02846FFF7CDFF40B1B4F595
:10382000B77F02D3A4F5B77404E0681C85B206E044
:10383000A4F26D14681C85B2B4F5B67FEBD800BF56
:10384000D0488580002516E0CE498888FFF7B3FF71
:1038500030B1012D04D11D2C01D31D3C09E00CE039
:10386000C948405DA04203D8C748405D241A00E023
:1038700003E0681C85B21C2CE6D200BF681CC1495D
:103880008871601CC871BD48B6FBF0F100FB116483
:103890004FF46160B4FBF0F0BA4908704FF4616016
:1038A000B4FBF0F100FB11403C21B0FBF1F0B54955
:1038B00048704FF46160B4FBF0F100FB11403C2113
:1038C000B0FBF1F201FB1200AE4988700B46DA79C9
:1038D00099799888FFF735FFAA490872002070BDD2
:1038E0002DE9F05F06460F4690469946DDE90AABA2
:1038F000002440F2B270864203DB40F63300864279
:1039000002DD0120BDE8F09F40F2B2750AE02846D2
:10391000FFF751FF10B19D48044401E09C48044466
:10392000681C85B2B542F2DB781EC7B2002510E0F4
:103930009548405D40F2A321484304EBC014304653
:10394000FFF739FF18B1012D01D18C480444681CE0
:1039500085B2BD42ECDBA8F1010040F2A32148434F
:1039600004EBC014C9EB4910C0EB092004EB0014B0
:10397000CAEB0A1004EB80045C4401214FF0C050F4
:10398000FDF7FDFB0120FDF724FA2046FDF777FC4B
:10399000FDF7A8FC0020B5E71CB5002401214FF07D
:1039A000C050FDF7ECFB0120FDF713FA0420FCF7F3
:1039B0007CFF45F2500188424DD0764976A007F051
:1039C000ADFCFCF73DFF0120FDF739FB04E0601C76
:1039D000C4B20A20FFF738F94120FDF798FA08B978
:1039E000FA2CF4DBFA2C03DB6A4970A007F096FC92
:1039F000FA2C04DB4FF44070FDF73DFB03E04FF47D
:103A00008070FDF738FB0120FDF73BFBFDF76AFCFA
:103A1000FDF771FC01210846FDF708FCFDF762FC8B
:103A2000FDF711FC47F6FF70FDF736FCFDF75AFC79
:103A300037202A2111230E22CDE90010012140F266
:103A4000DF70FFF74DFFFDF707FC45F25001042042
:103A5000FCF71FFF07E0FDF74EFC01210846FDF7CC
:103A6000E5FBFDF73FFCFFF75BFEFFF7C1FE002023
:103A70001CBD0EB50120FDF763FC08B1FFF7B8FED1
:103A80000220FDF75DFCA0B10220FDF769FCFFF705
:103A9000AFFE3C4880783B4949783A4A1278CDE9F4
:103AA000002102903748C3798279818843A007F0CA
:103AB00035FC0520FDF754FCFDF714FC0EBD2DE987
:103AC000F05F06460F4690469946DDE90AAB0024B2
:103AD00040F2B270864203DB40F63300864202DDDC
:103AE0000120BDE8F09F40F2B2750AE02846FFF7DA
:103AF00062FE10B12548044401E025480444681CD6
:103B000085B2B542F2DB781EC7B2002510E01E4830
:103B1000405D40F2A321484304EBC0143046FFF758
:103B20004AFE18B1012D01D114480444681C85B225
:103B3000BD42ECDBA8F1010040F2A321484304EBB5
:103B4000C014C9EB4910C0EB092004EB0014CAEB08
:103B50000A1004EB80045C4401214FF0C050FDF7D3
:103B60000EFB0120FDF735F92046FDF7A3FBFDF71D
:103B7000B9FB0020B5E70000FDC30008805101003B
:103B800068000020380A002009C400080085E2010E
:103B90008033E10115C4000825733A207365742051
:103BA00074696D652E2E0D0A0000000025733A2001
:103BB0006572726F722121210D0A0000416C6172E1
:103BC0006D2054696D653A25642D25642D2564208A
:103BD00025643A25643A25640A00000002460AE09A
:103BE00010780B78984201D001207047107800B906
:103BF00002E0521C491CF3E700BF0020F5E706E095
:103C000002780A70027802B902E0401C491CF7E70A
:103C100000BF70470146002005E00A7802B903E0C2
:103C2000421CD0B2491CF8E700BF704710B50246ED
:103C3000012000E050430B00A1F10104E1B2F9D1F1
:103C400010BD2DE9F04307460E4600254FF00A0847
:103C50003C46002030601FE02078392802DC2078C4
:103C600030280ADA2078462802DC2078412804DA55
:103C70002078582809D1012D07D12078412801DB6F
:103C80004FF01008681CC5B205E0207800B904E0C8
:103C90000120BDE8F083641CDEE700BF3C46B8F1BC
:103CA000100F0FD1032D01DA0220F2E7207830281F
:103CB00006D16078582803D1A41CA81EC5B204E020
:103CC0000320E6E70DB90420E3E71BE00DB1681E11
:103CD000C5B22078392806DC2078302803DB20782C
:103CE000A0F1300902E02078A0F1370929464046CA
:103CF000FFF79CFF316809FB00103060641C2078DE
:103D000000B900E0E2E700BF0020C2E710B50446BA
:103D1000002010700BE020780870641C491C10789B
:103D2000401C10701078984201DB012010BD2078F3
:103D3000202802D020780028EDD10020087000BF94
:103D4000F4E70146491C00E0491C0878202801D10D
:103D50000029F9D1087870472DE9FF4F85B08046DA
:103D600089460027002004900390012002904FF024
:103D7000000B002544461DE02078202816D005F0D1
:103D80007F00052812DA0DB945F0800505F07F00A7
:103D9000042803D120782A2800D00EE0207805F0EE
:103DA0007F010DF80100681CC5B202E0852D00D12D
:103DB00003E0641C20780028DED100BF8DB1002014
:103DC00005F07F010DF80100CBA16846FFF706FF63
:103DD00018B900210898017002E0012108980170CB
:103DE00000254FF0000A444614E0641C0AF101006B
:103DF00000F0FF0A2078202802D020782A2809D154
:103E00002046FFF79EFF0646282E03D02A2E01D01B
:103E1000CDF810A02078282802D020780028E4D1FE
:103E20004446049810B10498401C04444FF0000A22
:103E3000002654E0207810B94FF0010A50E02078B5
:103E4000282803D116B9781CC7B213E02078292896
:103E500008D13EB917B1781EC7B201E04FF0010A90
:103E600047B93DE02078222804D10EB9012000E0B6
:103E70000020064647B9207820282FD0207889F8DE
:103E8000000009F1010929E020782C2804D1012043
:103E90000290681CC5B214E02078202811D0207848
:103EA00028280ED04DB9BBF1050F06DA20780DF8A1
:103EB0000B000BF1010000F0FF0B0298401CC0B298
:103EC0000290012F0AD10298022807D10298401CC3
:103ED000C0B202900398401CC0B20390641CA9E7D2
:103EE00000BF0398012809D100200DF80B0082A122
:103EF0006846FFF773FE08B90020039007990398FE
:103F00000870002089F80000504609B0BDE8F08F25
:103F1000F0B503461546002000220026002455E097
:103F20001F782C2F01D104B901221F78292F01D02D
:103F30001F780FB904B94AE0002E34D11F78302F12
:103F400002DB1F78392F11DD1F78612F02DB1F780C
:103F5000662F0BDD1F78412F02DB1F78462F05DD12
:103F60001F78582F02D01F78782F0CD102B12EE085
:103F70001F78612F03DB1F78203F0F7001E01F784F
:103F80000F70491C1FE01F78222F04D102B11EE0E0
:103F90000126012417E01F78202F14D01F782C2F22
:103FA00011D0FF2613E01F78222F00D1002402B188
:103FB0000DE044B11F785C2F02D15B1C471CF8B2A6
:103FC0001F780F70491C471CF8B25B1CA8E700BFA4
:103FD00000270F702E70F0BD02460020002105E082
:103FE000474B5B5C0344D8B24B1CD9B29142F7DB20
:103FF00070472DE9F043B5B005460F460024002672
:1040000004E000213E488155701CC6B20A2EF8DB40
:1040100006E06D1C287818B9012035B0BDE8F083A2
:1040200028782828F5D16D1C61E034AA6946284615
:10403000FFF76EFF064635449DF8D00020B10128F9
:1040400027D0FF284CD149E09DF8000000B333A9E8
:104050006846FFF7F6FD06460EB10220DDE7204672
:10406000FFF7BAFF26490A31339A0A50A1F124001A
:10407000008B0121A140884321491A39088304217A
:104080001F480155601CC4B20A2C01DD0320C4E79F
:1040900026E06846FFF7BEFD401C00F0FF08204602
:1040A000FFF79AFF16490A3100EB010949466846B5
:1040B000FFF7A5FD12481A38018B0120A0400143EB
:1040C00088B20F491A3908830D4800F80480601C33
:1040D000C4B20A2C01DD03209FE701E002209CE727
:1040E00000BF2878292801D0287800B900E09CE793
:1040F00000BF3C70002090E7766F6964000000000C
:10410000B600002010B58CB004461E230BAA03A9EC
:104110002046FFF7FBFD0090009810B101200CB085
:1041200010BD9DF82C00044400200B900EE0A44824
:104130009DF82C2050F8221003A8FFF74FFD00B97E
:1041400008E09DF82C00401CC0B20B909DF82C009C
:104150000728ECD300BF9DF82C00072878D2DFE8B1
:1041600000F00405274978A3CE0000BF95A007F012
:10417000D5F895A007F0D2F899A007F0CFF89EA047
:1041800007F0CCF8A2A007F0C9F8A8A007F0C6F87D
:10419000ADA007F0C3F8BAA007F0C0F8C6A007F0BA
:1041A000BDF8D2A007F0BAF8DDA007F0B7F8D3E069
:1041B00084A007F0B3F8EAA007F0B0F800200B9055
:1041C0000EE0F74800689DF82C2000EBC200416823
:1041D000F4A007F0A3F89DF82C00401CC0B20B908F
:1041E000EF48007D9DF82C108842EADC75A007F0AE
:1041F00095F8B1E073A007F091F8ECA007F08EF805
:1042000000200B901AE0E64909689DF82C2001EB8C
:10421000C20101AB02AA486803A9FFF79DFDE0486F
:1042200000689DF82C1050F8312003A9EFA007F08A
:1042300075F89DF82C00401CC0B20B90D848007D4A
:104240009DF82C108842DEDC5EA007F067F883E062
:1042500080E05CA007F062F80BAA03A92046FFF7F4
:1042600057FE9DF82C00C8B9694603A8FFF7E9FC82
:104270000B909DF82C0020B9E1A0009907F04EF8B2
:104280000EE09DF82C00042801D0022047E7DFA0B3
:1042900007F044F80120C249C87501E002203EE75A
:1042A00048A007F03BF857E046A007F037F80BAA04
:1042B00003A92046FFF72CFE9DF82C00C8B96946DB
:1042C00003A8FFF7BEFC0B909DF82C0020B9D4A0EA
:1042D000009907F023F80EE09DF82C00042801D087
:1042E00002201CE7D1A007F019F80020AC49C875DE
:1042F00001E0022013E733A007F010F82CE031A012
:1043000007F00CF80BAA03A92046FFF701FE9DF861
:104310002C00C8B9694603A8FFF793FC0B909DF8E1
:104320002C0078B99E49009881F8EC00084690F876
:10433000EC0018B1C2A006F0F1FF07E0C7A006F03C
:10434000EDFF03E00220EAE60220E8E61DA006F009
:10435000E5FF01E00120E2E600BF0020DFE610B546
:104360000121C548FDF7FCFE4FF6FF71C248FDF77D
:10437000C7FE0021C048FDF7C1FE00208849C1F8F2
:10438000F00010BD10B50121BB48FDF7E0FE01288B
:1043900008D18348D0F8F0004FF6FF7108448049F7
:1043A000C1F8F000B448FDF7CCFE7D49D1F8F0101B
:1043B00008447B49C1F8F0000846D0F8F00010BD71
:1043C000940100200D0A000055534D415254D3D0A2
:1043D00037B8F6CFB5CDB3C3FCC1EE3A0D0A000035
:1043E0003F3A202020202020BBF1C8A1B0EFD6FA10
:1043F000D0C5CFA20D0A000068656C703A2020205D
:10440000BBF1C8A1B0EFD6FAD0C5CFA20D0A00000B
:104410006C6973743A202020BFC9D3C3B5C4BAAF46
:10442000CAFDC1D0B1ED0D0A0A00000069643A204E
:1044300020202020BFC9D3C3BAAFCAFDB5C44944A8
:10444000C1D0B1ED0D0A0A006865783A202020201D
:10445000B2CECAFD3136BDF8D6C6CFD4CABE2CBA4C
:10446000F3B8FABFD5B8F12BCAFDD7D6BCB4D6B4D1
:10447000D0D0BDF8D6C6D7AABBBB0D0A0A00000033
:104480006465633A20202020B2CECAFD3130BDF8E9
:10449000D6C6CFD4CABE2CBAF3B8FABFD5B8F12B62
:1044A000CAFDD7D6BCB4D6B4D0D0BDF8D6C6D7AA2C
:1044B000BBBB0D0A0A00000072756E74696D653A27
:1044C000312CBFAAC6F4BAAFCAFDD4CBD0D0BCC67B
:1044D000CAB13B302CB9D8B1D5BAAFCAFDD4CBD014
:1044E000D0BCC6CAB13B0D0A0A000000C7EBB0B48D
:1044F000D5D5B3CCD0F2B1E0D0B4B8F1CABDCAE4DE
:10450000C8EBBAAFCAFDC3FBBCB0B2CECAFDB2A203
:10451000D2D4BBD8B3B5BCFCBDE1CAF82E0D0A009D
:104520002D2D2D2D2D2D2D2D2D2D2D2D2D2D2D2DBB
:104530002D2D2D2D2D2D2D2D2D2D414C49454E54FC
:10454000454B2D2D2D2D2D2D2D2D2D2D2D2D2D2D65
:104550002D2D2D2D2D2D2D2D2D2D2D200D0A000035
:104560002D2D2D2D2D2D2D2D2D2D2D2D2D2D2D2D7B
:104570002D2D2D2D2D2D2D2D2DBAAFCAFDC7E5B515
:10458000A52D2D2D2D2D2D2D2D2D2D2D2D2D2D2DE3
:104590002D2D2D2D2D2D2D2D2D2D2D2D200D0A00C8
:1045A0009C00002025730D0A000000002D2D2D2DEC
:1045B0002D2D2D2D2D2D2D2D2D2D2D2D2D2D2D2D2B
:1045C0002D2D2D2D2DBAAFCAFD204944202D2D2D86
:1045D0002D2D2D2D2D2D2D2D2D2D2D2D2D2D2D2D0B
:1045E0002D2D2D2D2D2D2D2D200D0A00257320690B
:1045F000642069733A0D0A3058253038580D0A0086
:104600004845583A305825580D0A00003136BDF853
:10461000D6C6B2CECAFDCFD4CABE210D0A00000054
:104620004445433A256C750D0A0000003130BDF851
:10463000D6C6B2CECAFDCFD4CABE210D0A00000034
:1046400052756E2054696D652043616C63756C61B1
:1046500074696F6E204F4E0D0A00000052756E2077
:1046600054696D652043616C63756C6174696F6E2C
:10467000204F46460D0A00000008004070B5044671
:10468000254695F8280028B1E86A10B1E86A00F0DC
:1046900016FD70BDF2490869804700BFF9E708B50B
:1046A00000200123AFF22B0264210090EDA0FEF761
:1046B00020FD0020EA49C87508BD30B595B0054613
:1046C00013AB12AA09A92846FFF746FB044614B10A
:1046D000204615B030BD0020149026E0E04909685E
:1046E0009DF8502001EBC20113AB11AA486801A943
:1046F000FFF732FB04460CB12046EAE709A901A8FE
:10470000FFF76CFA60B99DF844009DF848108842A4
:1047100001DD0220DDE79DF85000D14988750AE0EF
:104720009DF85000401CC0B21490CD48007D9DF80B
:1047300050108842D2DC00BFC948007D9DF850105F
:10474000884201D10420C4E714A92846FFF751FC90
:1047500004460CB12046BCE79DF85000C04948759E
:104760000020B6E72DE9F0419AB0BD48847D007D78
:10477000A04202DC1AB0BDE8F081B949096801EB3A
:10478000C40106AB07AA486808A9FFF7E5FA08A91B
:10479000B6A006F0C3FD002644E0B148008B01211D
:1047A000B1400840D8B12221B2A006F0B7FD304692
:1047B000FFF712FCAA49243147183946AEA006F08B
:1047C000ADFD2221ABA006F0A9FD3046FFF704FCA9
:1047D000A3492431084410A941F8260018E03046C6
:1047E000FFF7FAFB9E492431085810A941F826002A
:1047F0009B48C07D30B910A850F826109FA006F045
:104800008DFD05E010A850F826109DA006F086FD4D
:104810009DF81C00401EB04202D09BA006F07EFD19
:10482000701CC6B29DF81C008642B6DB97A006F04D
:1048300075FDFFF794FD8A48407D0B280DD2DFE817
:1048400000F0060D151E27323F4E5F728700844927
:10485000096851F834008047054690E0804A1268A4
:1048600052F8341010988847054688E07C4B1B6846
:1048700053F83420DDE91001904705467FE0784F7A
:104880003F6857F8343010A807C89847054676E0C7
:10489000DFF8CCC1DCF800C05CF8347010A80FC899
:1048A000B84705466BE01498DFF8B4C10090DCF817
:1048B00000C05CF8347010A80FC8B84705465EE029
:1048C000DDE91401DFF898C1CDE90001DCF800C092
:1048D0005CF8347010A80FC8B84705464FE0DDE912
:1048E00014121698DFF878C1CDE900120290DCF8B6
:1048F00000C05CF8347010A80FC8B84705463EE009
:10490000DDE91423DDE91610DFF854C1CDE90023F9
:10491000CDE90210DCF800C05CF8347010A80FC8B4
:10492000B84705462BE0DDE91523DDE91710CDE991
:104930000123CDE903101498DFF824C10090DCF8BE
:1049400000C05CF8347010A80FC8B847054616E0E0
:10495000DDE91623DDE91810CDE90223CDE90410C5
:10496000DDE91401DFF8F8C0CDE90001DCF800C092
:104970005CF8347010A80FC8B847054600BF00BFE8
:10498000FFF700FD9DF8180001280CD13448C07DC8
:1049900020B929463EA006F0C1FC07E029463EA00A
:1049A00006F0BCFC02E03BA006F0B8FC2C4890F8F6
:1049B000EC0088B12A48D0F8F0000A21B0FBF1F2EF
:1049C00001FB12072648D0F8F000B0FBF1F83A4698
:1049D000414634A006F0A2FC00BFCBE670B53948D2
:1049E000008800F40040002833D0364805780020C5
:1049F000354948551A4881683348884704461CB9E8
:104A00001749C868804721E02F48FFF77BFB054620
:104A1000012D00D02C46CCB1012C06D0022C08D0A0
:104A2000032C0AD0042C10D10BE028A006F076FC51
:104A30000BE029A006F072FC07E02AA006F06EFC4D
:104A400003E02BA006F06AFC00BF00BF00201D4958
:104A5000088070BD0146086870470160704700001B
:104A60009C0000207573616D727400000D0A25733F
:104A7000280000002563000025730000256C7500E8
:104A800030582558000000002C00000029000000CC
:104A90003D256C753B0D0A003D305825583B0D0AED
:104AA0000000000046756E6374696F6E2052756E6B
:104AB0002054696D653A25642E2531646D730D0AA5
:104AC0000000000090010020420A0020BAAFCAFD99
:104AD000B4EDCEF3210D0A00B2CECAFDB4EDCEF393
:104AE000210D0A00B2CECAFDCCABB6E0210D0A0002
:104AF000CEB4D5D2B5BDC6A5C5E4B5C4BAAFCAFD5E
:104B0000210D0A0008B501210420FCF72BFB01212F
:104B10000846FCF727FB01218803FCF723FB4FF431
:104B20000070ADF8000018208DF8030003208DF808
:104B300002006946A448FBF7D3FF4FF48060ADF84C
:104B4000000004208DF8030069469F48FBF7C8FF6A
:104B500001210820FCF706FB01218804FCF70FFB6C
:104B600001210846FCF7FEFA4FF48060ADF8000022
:104B700018208DF8030003208DF802006946934841
:104B8000FBF7AEFF4FF40060ADF8000004208DF895
:104B9000030069468D48FBF7A3FF08BD1FB54FF41E
:104BA000E13000900020ADF80400ADF80600ADF84B
:104BB0000800ADF80C000C20ADF80A0069468448E6
:104BC000FDF729FB012240F225518148FDF7BBFB8F
:104BD00001217F48FDF7ABFB40217D48FDF78FFCAD
:104BE0004FF4E13000900020ADF80400ADF806006D
:104BF000ADF80800ADF80C000C20ADF80A006946CD
:104C00007448FDF708FB012240F225517148FDF779
:104C10009AFB01216F48FDF78AFB40216D48FDF7A3
:104C20006EFC1FBD08B525208DF8000001208DF811
:104C3000010003208DF8020001208DF80300684672
:104C4000FBF76DFB27208DF8000001208DF8010097
:104C50008DF802008DF803006846FBF760FB08BD85
:104C600010B5044621465C48FDF7CEFB00BF80210D
:104C70005948FDF737FC0028F9D010BD10B504469F
:104C800021465348FDF7C0FB00BF80215048FDF787
:104C900029FC0028F9D010BD10B5044621464D4826
:104CA000FDF7B2FB00BF80214A48FDF71BFC00283E
:104CB000F9D010BD70B50546284605F030FE064611
:104CC000002403E0285DFFF7E7FF641CB442F9DB32
:104CD00070BD70B50546284605F021FE0646002445
:104CE00003E0285DFFF7BCFF641CB442F9DB70BD34
:104CF00070B50546284605F012FE0646002403E07E
:104D0000285DFFF7BBFF641CB442F9DB70BD10B532
:104D1000002440F225512E48FDF7FAFB002839D037
:104D200040F225512A48FDF71DFC2948FDF770FB8C
:104D3000C4B22A48008800F4004058BB27480088C5
:104D400000F4804060B10A2C03D000202349088081
:104D500020E02248008840F400402049088019E003
:104D60000D2C06D11D48008840F480401B49088066
:104D700010E01A480088C0F30D0019490C54174878
:104D80000088401C1549088008460088C72801DDB6
:104D90000020088010BD10B5FFF7B4FEFFF7FEFE3F
:104DA000FFF740FF10BD70B504460D46E1B208485C
:104DB000FDF72AFB00BF80210548FDF793FB002883
:104DC000F9D0204670BD000000080140000C0140F1
:104DD000003801400048004000440040900100209D
:104DE000420A002070B50446042540F27120604359
:104DF00086B245F25550FBF7C1FF2846FBF7C1FFCD
:104E00003046FBF7C1FFFBF7C2FFFBF7C5FF70BDE4
:104E100010B5FBF7BCFF10BD70B503460C4603E0B0
:104E200014F8015B03F8015B1500A2F10102F7D150
:104E300070BD30B5034601E003F8011B1400A2F178
:104E40000102F9D130BD10B504467A4951F8241059
:104E50004A00794951F824000021FFF7EAFF774919
:104E600051F824207449083951F824000021FFF733
:104E7000E0FF012170480830015510BD10B5014612
:104E80000023002207E06C4850F8210030F812009F
:104E900000B15B1C521C674850F821009042F2D8C8
:104EA00064205843634C54F82140B0FBF4F0C0B286
:104EB00010BD2DE9F04704460F460025A9465E487F
:104EC0000830005D20B95C481038016820468847EA
:104ED0001FB94FF0FF30BDE8F087594850F8240063
:104EE000B7FBF0F6564850F82400B7FBF0F100FB92
:104EF000117000B1761C4F4850F82400451E20E088
:104F00004D4850F8240030F8150010B909F1010996
:104F100001E04FF00009B14512D14FF0000808E060
:104F2000454850F8240005EB080220F8126008F10B
:104F30000108B045F4D3424850F824006843CAE75A
:104F40006D1E002DDCDA4FF0FF30C4E72DE9F04193
:104F500004460E4638480830005D38B936481038E7
:104F60000168204688470120BDE8F081334850F8A9
:104F70002400B04217D9324850F82400B6FBF0F1B3
:104F80002D4850F8240030F81120002507E00023B8
:104F9000294850F824004F1920F817306D1C95420D
:104FA000F5DB0020E0E70220DEE770B505460C46A1
:104FB00004B970BD2048083850F82500261A31463B
:104FC0002846FFF7C3FF00BFF3E770B504460E465F
:104FD00031462046FFF76DFF0546681C08B90020E2
:104FE00070BD1548083850F824002844F8E72DE92A
:104FF000F04104460F46164631462046FFF759FF5A
:105000000546681C10B90020BDE8F0810A4908393E
:1050100051F82410481932463946FFF7FDFE39464B
:105020002046FFF7C2FF0448083850F824002844FF
:10503000EAE7000020C40008C001002030C40008D6
:1050400028C400082DE9F04106460F461546002405
:1050500018210020FFF7B9FF0446D4B129460020EB
:10506000FFF7B3FF6060606848B921460020FFF792
:105070009CFF00243F4940A006F050F90DE02A466D
:105080003946606805F027FC2560267201206072B1
:1050900003E0384940A006F041F92046BDE8F08120
:1050A00070B504460D464DB144B10120A072E560D3
:1050B00005F1340104F11000FEF7F9FA70BD2DE995
:1050C000F04104460027002500260CB9BDE8F08118
:1050D000E068456B2E6815E0A5F11007A7420FD1D7
:1050E0002846FEF7F7FA606850B12068002807DD0F
:1050F00000206168FFF759FF21460020FFF755FFA8
:1051000035462E68E0683430A842E5D100BFDDE7BF
:105110002DE9F04105460026002400276C6B276826
:105120000FE0A4F11006706830B13068002803DD8C
:1051300000207168FFF739FF2046FEF7CBFA3C46A6
:10514000276805F134008442EBD1BDE8F08110B549
:1051500001460020002200234A6B136804E0A2F1FC
:1051600010000224847203E001F13404A242F6D15B
:1051700000BF10BD38C4000825733A206D616C6C07
:105180006F63206D6573736167652D3E6461746143
:10519000206661696C0D0A0025733A206D616C6CA4
:1051A0006F63206D657373616765206661696C0D5F
:1051B0000A000000F748806940F00800F54988615E
:1051C000F548006820F0FF00F349086008460068D1
:1051D00040F033000860704710B5EF48006820F0D9
:1051E000F000ED4908600846006840F030000860B3
:1051F0000120EA490860EA48D0F8240108B90020F3
:1052000010BD0120E549091F0860FDF701FD0020E0
:10521000E349C1F8A401E1488038006808B10020E2
:10522000EEE70120FDF7F4FC0020DC49091F0860CF
:105230000120E5E710B5D848006820F0F000D64915
:1052400008600846006840F0300008600020D3493C
:10525000091F0860D249C1F8A4010120FDF7D8FC5C
:105260000120CE49091F0860CD49C1F8A401FDF70E
:10527000CFFC10BD10B50024C748006820F0F00036
:10528000C54908600846006840F0800008600120B9
:10529000C2490860FDF7BCFC0120C149C1F8A0016A
:1052A000FDF7B6FC0AE0601CC4B2322C03DDFFF748
:1052B000C1FF002010BD0120FDF7AAFCB7488038CF
:1052C00000680028EFD1B549091F08600120F1E707
:1052D00010B50020B149091F0860AF48006820F0F0
:1052E000F000AD4908600846006840F030000860F2
:1052F0000020AB49C1F8A4010120FDF789FC012081
:10530000A649091F0860FDF783FC0020A449C1F8E5
:10531000A00110BD10B50020A049091F08609E48DB
:10532000006820F0F0009C4908600846006840F0E2
:105330003000086001209A49C1F8A401FDF768FC1B
:1053400001209649091F0860FDF762FC002094497E
:10535000C1F8A00110BD70B504468F48006820F068
:10536000F0008D4908600846006840F03000086091
:1053700000208A49091F0860002516E0E0098749D6
:1053800008606006040E0120FDF742FC01208449FC
:10539000C1F8A001FDF73CFC00208049091F08600E
:1053A0000120FDF735FC681CC5B2082DE6DB70BD99
:1053B0002DE9F04105460E4617469846FFF70CFFCB
:1053C00010B90120BDE8F0816906080EFFF7C3FFA0
:1053D000FFF750FF18B9FFF72DFF0120F2E7304625
:1053E000FFF7B9FFFFF746FF00240BE018F80400B1
:1053F000FFF7B1FFFFF73EFF18B9FFF71BFF0020D3
:10540000E0E7641CBC42F1DBFFF714FF0020D9E7A2
:1054100070B5054600246048006820F0F0005E4941
:1054200008600846006840F080000860002617E029
:1054300000205A49091F08600220FDF7E9FB0120FE
:105440005749C1F8A0016006040E5448803800682E
:1054500008B1601CC4B20220FDF7DAFB701CC6B2B2
:10546000082EE5DB15B1FFF733FF01E0FFF752FF30
:10547000204670BD2DE9F04106460F4614461D46F4
:10548000FFF7AAFE10B90120BDE8F0817106080EF1
:10549000FFF761FFFFF7EEFE18B9FFF7CBFE012023
:1054A000F2E73846FFF757FFFFF7E4FEFFF794FEF9
:1054B000012101EB4601C8B2FFF74DFFFFF7DAFE0D
:1054C0000DE0012C04D10020FFF7A2FF287003E0BB
:1054D0000120FFF79DFF28706D1C601EC4B2002CD8
:1054E000EFD1FFF7A7FE0020CEE770B505460E46C8
:1054F0000024FFF771FE2846FFF72DFF641CFFF71D
:10550000B9FE3046FFF727FF641CFFF7B3FEFFF735
:1055100063FE691CC8B2FFF71EFF641CFFF7AAFEFA
:105520000020FFF775FF0446FFF784FE204670BD9C
:105530002DE9F0410746884615461E460024FFF730
:105540004BFE3846FFF707FFFFF794FE4046FFF794
:1055500002FFFFF78FFEFFF73FFE791CC8B2FFF78F
:10556000FAFEFFF787FE00BF0DE0681EA04204D0E0
:105570000120FFF74DFF305503E00020FFF748FF03
:105580003055601CC4B2AC42EFDBFFF753FE20463F
:10559000BDE8F08100100240040C0140A4812142CA
:1055A000008021422DE9F04180460D4616461F46F7
:1055B0000024FFF711FE4046FFF7CDFEFFF75AFE2D
:1055C0002846FFF7C8FEFFF755FE00BF06E0385D2E
:1055D000FFF7C1FEFFF74EFE601CC4B2B442F6DB1B
:1055E000FFF728FE0120BDE8F08170B505460E46A4
:1055F000144631462846FFF778FF2070012070BD21
:1056000037B504460D4602AB012229462046FFF776
:10561000C9FF3EBD2DE9F8430746884614461D469E
:10562000089E6A4641463846FFF7DFFF28B3601CF4
:10563000FF2101FA00F0C4F108012944491EFF22AC
:105640000A41104300F0FF09C5F1080006FA00F016
:10565000C6B2C4F1070006419DF8000000EA090047
:1056600000909DF80000304300909DF800204146D6
:105670003846FFF7C5FFBDE8F8830020FBE7F8B523
:1056800006460F4614461D466A4639463046FFF721
:10569000ACFF2DB10120A0409DF80010084305E0AB
:1056A0000120A0409DF8001021EA0000C0B2009047
:1056B0009DF8002039463046FFF7A2FFF8BD0000F4
:1056C0000146002901DA484200E00846704710B55B
:1056D00003460A464FF4C874002B07DA0120F74945
:1056E00008600020F649C1F8B80106E00020F3493F
:1056F00008600120F249C1F8B8011846FFF7E0FF41
:105700002044F038EF490880002A08DA0120EB49EC
:10571000083908600020EA49C1F8B00107E000201C
:10572000E649083908600120E549C1F8B001104692
:10573000FFF7C6FF20444138E2490C31088010BD14
:1057400070B506460D46E049304605F00BFC0CD31B
:10575000DE49304605F010FC07D3DD48007801280B
:1057600003D040F26A4085420EDA01240020D3497A
:10577000091F0860D249C1F8BC01D0490839086046
:10578000CF49C1F8B00100E00024204670BD2DE9EA
:10579000F04180460C461546CD48007810B90020EF
:1057A000BDE8F081CB480088C0B9404605F082FBD7
:1057B00006464FF06632C84B05F0A4FB0ED24046B9
:1057C00005F078FB06464FF03332C44B05F086FBFC
:1057D00004D21CB915B90120BE490880BD48008813
:1057E00001281DD1BE480088401C80B2BC490880F9
:1057F000322803DD00200880B649088014F1030F29
:105800000EDA15F1030F0BDA14F11E0F08DD15F196
:105810001E0F05DD0020AF49088008800120BFE78A
:10582000B0480088401C80B2AE4908804FF4167121
:1058300090FBF1F201FB120010B90020A949088089
:105840000020ADE72DE9F04781460E4614461D467F
:10585000A5480088E0B92046FFF732FF02462846F7
:10586000FFF72EFF10441E2805DAA0480088401CD0
:105870009E49088002E000209C4908809B480088DF
:105880000A2805DD012098490880002097490880F2
:1058900095480088012834D195480088401C80B282
:1058A00093490880C82803DD002008808E490880BD
:1058B000484605F0FFFA074600228E4B05F022FB12
:1058C0001FD2304605F0F6FA07464FF033328A4BC6
:1058D00005F018FB15D2304605F0ECFA0746874A6A
:1058E000874B05F0FBFA0CD2484605F0E3FA074671
:1058F0003A460B46834984A005F010FD02207A4900
:10590000088079480088022816D185480088401C04
:1059100080B283490880642803DD00200880724932
:1059200008806019FFF7CCFE8C2805DD00206E4949
:1059300008800120BDE8F0877A480088401C80B2CA
:10594000784908804FF4167190FBF1F201FB1200C8
:1059500010B90020734908800020EBE741F6F420DD
:10596000714909684242914202DA41426E4A11602D
:105970006D490968814201DD6B4908606B4909681E
:105980004242914202DA4142684A1160674909681D
:10599000814201DD6549086070472DE9F047054601
:1059A0000E46914662480078322191FBF0F7384666
:1059B00005F019FA04465F480078012803D05E48D4
:1059C0000078012835D14FF07E515C48006804F022
:1059D000BAFF5A49074608604FF07E5105F0C2FAF7
:1059E00007D1A819FFF76CFE074605F0FCF95449EA
:1059F000086053480168534805F02FF85249086081
:105A00000846006805F056FA0746504A504B05F024
:105A100065FA02D24F484C4908604FF07E514A481F
:105A2000006805F0A9FA0CD24FF07E504649086094
:105A300007E049484449086000204049086040495F
:105A400008603C480078012808D13F480168434875
:105A5000006804F0CAFF414908600FE0364800784A
:105A6000012808D1384801683C48006804F06BFF01
:105A70003A49086002E0002038490860214637486A
:105A8000006805F079FA01D23448046084F00047D8
:105A900032480168384605F06FFA03D284F00040BE
:105AA0002E4908602E480078012803D02D48007840
:105AB00001285DD12C482D4908605CE0BC81214261
:105AC00000802142342C0140000034C200003442E6
:105AD000D70100207A020020666628C033331F40B9
