:020000040800F2
:10000000A03B002011010008892200088B22000873
:1000100093220008972200089B220008000000009D
:100020000000000000000000000000009F22000807
:10003000A122000800000000A3220008A522000859
:100040002B0100082B0100082B0100080F320008CB
:100050002B0100082B0100082B0100082B010008D0
:100060002B0100082B0100082B0100082B010008C0
:100070002B0100082B0100082B0100082B010008B0
:100080002B0100082B0100082B0100082B010008A0
:100090002B0100082B0100082B0100081B2300087E
:1000A0002B010008852600082B0100082B01000801
:1000B000F32600085F270008E32700082B0100084B
:1000C0002B0100082B0100082B0100082B01000860
:1000D0002B010008AD440008AF220008D32200081D
:1000E0002B0100082B0100082B010008DFF80CD0C1
:1000F00005F0AAFC00480047F9210008A03B0020B9
:100100007047000030BF72B662B680F3088870474F
:100110000648804706480047FEE7FEE7FEE7FEE7A1
:10012000FEE7FEE7FEE7FEE7FEE7FEE71302000854
:10013000ED0000080CB50020019000906C480068AC
:1001400040F480306A49086000BF6948006800F4E4
:10015000003000900198401C0190009818B9019857
:10016000B0F5A06FF1D16248006800F4003010B122
:100170000120009001E0002000900098012843D168
:100180005C48006840F010005A4908600846006862
:1001900020F0030008600846006840F00200086094
:1001A00053484068524948600846406848600846DD
:1001B000406840F4806048600846406820F47C1045
:1001C00048600846406840F4E81048600846006807
:1001D00040F08070086000BF4548006800F0007083
:1001E0000028F9D04248406820F0030040494860A8
:1001F0000846406840F00200486000BF3C48406844
:1002000000F00C000828F9D10CBD10B5FFF792FFE3
:1002100010BD10B53648006840F001003449086050
:10022000084640683449084031494860084600683B
:10023000324908402E4908600846006820F48020B2
:1002400008600846406820F4FE0048604FF41F0034
:100250008860FFF7DAFF4FF000602949086010BDA1
:1002600010B5002100200022214B5B6803F00C0137
:1002700021B1042906D0082928D107E0214B224CBE
:10028000236027E01F4B204C236023E0184B5B6862
:1002900003F47010164B5B6803F48032022303EB07
:1002A000904022B9194B4343174C23600DE0104B8B
:1002B0005B6803F4003323B1144B4343124C2360B7
:1002C00003E0104B4343104C236003E00D4B0E4CF6
:1002D000236000BF00BF064B5B68C3F303130C4CE5
:1002E000E15C094B1B68CB40074C236010BD00004C
:1002F00000100240002002400000FFF8FFFFF6FE61
:1003000008ED00E000127A000000002000093D0026
:100310000400002031490143314A1160704770B533
:10032000002100230F22C47804B32D4C246804F468
:10033000E064C4F5E064210AC1F10403CA404478D2
:1003400004FA03F18478144021430901254C06780E
:10035000A155047804F01F050124AC4005786D1107
:10036000AD0005F1E025C5F8004109E0047804F08E
:100370001F050124AC401C4D0678761145F8264037
:1003800070BD1A4A0A400243154B1B1F1A60704782
:1003900039B1134A121D12680243114B1B1D1A601A
:1003A00006E00F4A121D126882430D4B1B1D1A6096
:1003B0007047042808D14FF0E021096941F0040199
:1003C0004FF0E022116107E04FF0E021096921F0D0
:1003D00004014FF0E0221161704700000000FA05AF
:1003E0000CED00E000E400E080E100E080FFFF1F92
:1003F00010B5012000F0C2FC002000F0BFFC10BDD1
:100400002A49086070472949091F08607047274931
:1004100084310860704701460020254A10884FF655
:100420007F4210400843224A108070470146002056
:100430001F4A10884FF68072104008431C4A1080F3
:10044000704708B500220092194A2C3A0092009A8F
:1004500002440092009A116008BD08B501460020D0
:10046000009013482C3800900098084400900098A1
:10047000008808BD0D489C300068C0B270470C4829
:100480000830008840F001000949083108807047B1
:100490000648A0300068C0B27047054808300088A0
:1004A00040F00200024908310880704704860D427E
:1004B0002C6C0040002044490860091D0860091D9B
:1004C0000860091D086041483F49143108607047C1
:1004D00000213D498279002A3AD00A461268036811
:1004E0009A430B461A600A1D126803689A430B1D53
:1004F0001A60027911440A6803681A430A60324A92
:100500000832126803689A432F4B08331A601A1D89
:10051000126803689A432C4B0C331A604279102AF4
:100520000ED11A1F126803681A43274B08331A604A
:100530001A1D126803681A43234B0C331A600DE02E
:100540002149427911440A6803681A430A6005E0A8
:10055000027911440A6803689A430A6070470021CF
:10056000016001710C2141710021817170471649B0
:10057000103109680143144A103211607047014676
:100580000020114A143212680A400AB1012000E02A
:10059000002070470C491431086070470146002064
:1005A0000022094B1B6803EA0102074B14331B6846
:1005B0000B4013B10AB1012000E00020704702494E
:1005C000143108607047000000040140FFFF0F0075
:1005D00010B50446CC48844208D10121042000F023
:1005E000B3FB0021042000F0AFFB46E0C748844283
:1005F00008D10121082000F0A7FB0021082000F00D
:10060000A3FB3AE0C248844208D10121102000F047
:100610009BFB0021102000F097FB2EE0BD48844298
:1006200008D10121202000F08FFB0021202000F0C4
:100630008BFB22E0B848844208D10121402000F021
:1006400083FB0021402000F07FFB16E0B34884428A
:1006500008D10121802000F077FB0021802000F0EC
:1006600073FB0AE0AE48844207D10121801500F0F7
:100670006BFB0021A01500F067FB10BD10B5012138
:10068000084600F061FB0021012000F05DFB10BD79
:100690002DE9F04102460025002600200023002419
:1006A000002791F803C00CF00F0591F803C00CF07F
:1006B000100CBCF1000F03D091F802C04CEA050504
:1006C00091F800C0BCF1000F31D0146800202BE07D
:1006D0004FF0010C0CFA00F3B1F800C00CEA03066D
:1006E0009E4220D183004FF00F0C0CFA03F7BC435D
:1006F00005FA03FC4CEA040491F803C0BCF1280F8E
:1007000006D14FF0010C0CFA00FCC2F814C00AE04C
:1007100091F803C0BCF1480F05D14FF0010C0CFA61
:1007200000FCC2F810C0401C0828D1D31460B1F8F6
:1007300000C0BCF1FF0F34DD546800202EE000F152
:10074000080C4FF0010808FA0CF3B1F800C00CEAED
:1007500003069E4221D183004FF00F0C0CFA03F7E1
:10076000BC4305FA03FC4CEA040491F803C0BCF155
:10077000280F05D100F1080C08FA0CF8C2F8148013
:1007800091F803C0BCF1480F07D100F1080C4FF0FD
:10079000010808FA0CF8C2F81080401C0828CED3D3
:1007A0005460BDE8F0814FF6FF7101800221817035
:1007B0000421C17070470246002093680B400BB1C2
:1007C000012000E0002070470146886880B2704731
:1007D00002460020D3680B400BB1012000E000204E
:1007E00070470146C86880B2704701617047416137
:1007F00070470AB1016100E041617047C160704714
:100800004FF480320A438261816182618269826928
:10081000704702460020434B18684FF6807318401B
:1008200040EA021008433F4B186070473E49C861D8
:100830007047F0B50A46002300240021002500F08F
:100840000046B6F1004F02D1364EF16901E0354E57
:100850007168C0F3034583B200F44016B6F5401F3B
:1008600008D121F070612F4E766826F070662D4F0A
:100870007E6012E000F48016B6F5801F06D10326D4
:1008800006FA05F4A14341F0706106E0460D360119
:1008900003FA06F6B14341F0706122B1460D36010C
:1008A00003FA06F6314300F00046B6F1004F02D1DC
:1008B0001C4EF16101E01B4E7160F0BD30B50022AD
:1008C0008B071C0F0F2303FA04F2164B08338C100E
:1008D00053F824309343134C08348D1044F82530DA
:1008E00023468C1053F824308C07240F00FA04F4AC
:1008F00023430C4C08348D1044F8253030BD0A4990
:10090000DC3108607047000000080140000C014025
:10091000001001400014014000180140001C01407B
:100920000020014000000140000020420E49086004
:1009300070470D49486070470B49886070474AF618
:10094000AA200949086070474CF6CC400649086067
:10095000704701460020044AD2680A400AB10120CB
:1009600000E00020704700000030004010B5012179
:10097000080700F0F6F900214FF0805000F0F1F97F
:1009800010BD2A490862704728490861704701462E
:100990000020274A106820F0E000084310607047EC
:1009A0002249A0310860704710B502460020204B54
:1009B000186820F00300104318601E4B1B6843F0BA
:1009C00004031C4C2360012901D130BF00E020BF8B
:1009D000184B1B6823F00403164C236010BD144809
:1009E000006840F00400124908600846006840F0C2
:1009F000020008600F48006840F004000D490860DC
:100A000000BF00BF30BF704701460020084A52684F
:100A10000A400AB1012000E000207047044909683B
:100A200041EA8001024A11607047000000000E4256
:100A30000070004010ED00E0DF48006840F0010069
:100A4000DD49086008464068DC490840DA494860EA
:100A500008460068DA490840D74908600846006837
:100A600020F4802008600846406820F4FE004860BA
:100A70004FF41F0088607047CF49096821F4803126
:100A8000CD4A11601146096821F480211160B0F54A
:100A9000803F03D0B0F5802F0ED106E0C64909682B
:100AA00041F48031C44A116007E0C349096841F448
:100AB000A021C14A116000E000BF00BF704710B51F
:100AC00001460022002300204A11012A02D1BA4C1B
:100AD000236806E0022A02D1B74C236A01E0B64C33
:100AE000636A01F01F02012494401C400CB10120F4
:100AF00000E0002010BD38B5002000900024002543
:100B000000BF3120FFF7DBFF05460098401C009036
:100B10000098B0F5A06F01D0002DF2D03120FFF782
:100B2000CEFF08B1012400E00024204638BD014674
:100B30000020A14A106820F0F80040EAC1001060CF
:100B40007047A04908607047024600209A4B5868D9
:100B500020F47C1042EA01031843974B5860704719
:100B600098490866704701460020934A506820F073
:100B700003000843506070478F48406800F00C0045
:100B80007047014600208C4A506820F0F00008436E
:100B90005060704701460020874A506820F4E060AA
:100BA00008435060704701460020834A506820F493
:100BB000605040EAC1005060704729B17E4A527AC5
:100BC00002437D4B5A7204E07B4A527A82437A4B4D
:100BD0005A7270477B49D83108607047014600203F
:100BE000754A506820F44040084350607047002127
:100BF000714A20321170704A82F82010012802D008
:100C000004280AD104E001216B4A2032117005E06A
:100C10000521694A2032117000E000BF00BF704713
:100C20006949086070476449096A0143624A116270
:100C30007047654944390860704730B5002100228B
:100C4000002400235C4D6D6805F00C0121B10429DE
:100C500005D0082923D105E05C4D056022E05B4DFD
:100C600005601FE0544D6D6805F47012524D6D68BB
:100C700005F48034022505EB92421CB9544D5543CE
:100C800005600BE04C4D6D6805F400351DB1504D0D
:100C90005543056002E04D4D5543056002E04B4D64
:100CA000056000BF00BF444D6D6805F0F001090903
:100CB000484D6B5C0568DD4045603F4D6D6805F44F
:100CC000E061090A434D6B5C4568DD4085603A4D43
:100CD0006D6805F46051C90A3E4D6B5C4568DD40A6
:100CE000C560354D6D6805F44041890B3A4D6B5C2C
:100CF000C568B5FBF3F5056130BD29B12E4A5269CF
:100D000002432D4B5A6104E02B4A526982432A4B1D
:100D10005A61704729B1284A92690243264B9A6169
:100D200004E0254A92698243234B9A61704729B1B6
:100D3000214AD2690243204BDA6104E01E4AD2699B
:100D400082431D4BDA61704729B11B4AD2680243C6
:100D5000194BDA6004E0184AD2688243164BDA6015
:100D6000704729B1144A12690243134B1A6104E017
:100D7000114A12698243104B1A6170471249403977
:100D8000086070470F49C86470470B49C8717047C5
:100D90000948406A40F08070074948627047014640
:100DA0000020054A92680A400AB1012000E00020B4
:100DB0007047014988727047001002400000FFF838
:100DC000FFFFF6FE000042428004424200127A0019
:100DD00000093D00140000202400002029B1504AE1
:100DE000128802434E4B1A8004E04D4A1288824317
:100DF0004B4B1A8070474A48001D008840F0100095
:100E00004749091D088070474548001D00884FF676
:100E1000EF7108404249091D088070470021404891
:100E20001C300188001F008841EA0040704700B56F
:100E30000246FFF7E0FF100C394918310880091D00
:100E40000A80FFF7E1FF00BD00B50246FFF7D3FFC0
:100E5000C2F30340324908310880091D0A80FFF7B8
:100E6000D3FF00BD00B50246FFF7C5FF100C2C49AB
:100E700020310880091D0A80FFF7C6FF00BD002051
:100E80002749103109880907080B254914310988B9
:100E90000843704700BF2248001D008800F0200072
:100EA0000028F8D070471E48001D00884FF6F771E3
:100EB00008401B49091D088000BF1948001D008813
:100EC00000F008000028F8D0704701460020144ABE
:100ED000121D12880A400AB1012000E0002070476C
:100EE0000F49091D098881430D4A121D1180704761
:100EF000014600200A4A121D12880A40D0B2084A50
:100F000012880A4012B108B1012000E000207047A9
:100F10000349091D09888143014A121D1180704748
:100F20000028004010B50446FE48844208D1012143
:100F3000C014FFF709FF0021E014FFF705FFC4E02C
:100F4000B4F1804F08D101210846FFF70AFF0021C4
:100F50000120FFF706FFB8E0F348844208D10121E1
:100F60000220FFF7FEFE00210220FFF7FAFEACE0B0
:100F7000EE48844208D101210420FFF7F2FE00214F
:100F80000420FFF7EEFEA0E0E948844208D10121E9
:100F90000820FFF7E6FE00210820FFF7E2FE94E0BC
:100FA000E448844208D101211020FFF7DAFE002135
:100FB0001020FFF7D6FE88E0DF48844208D10121E7
:100FC0002020FFF7CEFE00212020FFF7CAFE7CE0A4
:100FD000DA48844208D101214014FFF7B5FE002110
:100FE0006014FFF7B1FE70E0D548844209D10121B9
:100FF000C804FFF7A9FE00214FF40020FFF7A4FE6C
:1010000063E0D048844209D101210805FFF79CFE26
:1010100000214FF48010FFF797FE56E0CA48844243
:1010200009D101214805FFF78FFE00214FF4001080
:10103000FFF78AFE49E0C548844208D101214020DB
:10104000FFF78FFE00214020FFF78BFE3DE0C048F8
:10105000844208D101218020FFF783FE00218020F7
:10106000FFF77FFE31E0BB48844208D101218015A3
:10107000FFF777FE0021A015FFF773FE25E0B648C5
:10108000844209D101210804FFF75EFE00214FF4DC
:101090008030FFF759FE18E0B048844209D10121A1
:1010A0004804FFF751FE00214FF40030FFF74CFEDB
:1010B0000BE0AB48844208D101218804FFF744FECD
:1010C00000214FF48020FFF73FFE10BD0022028870
:1010D000944B98420ED0994B98420BD0B0F1804F70
:1010E00008D0914B984205D0904B984202D0904B3B
:1010F000984204D14FF68F731A404B881A438D4B98
:10110000984207D08C4B984204D04FF6FF431A40C8
:10111000CB881A4302808B8883850B880385814B9B
:1011200098420BD0854B984208D08B4B984205D003
:101130008A4B984202D08A4B984201D10B7A03869F
:1011400001238382704770B5002400220023058CA0
:101150004FF6FE7635400584028C8388048B4FF66B
:101160008F752C40B51E2C400D882C43751E2A40CF
:101170000D892A434D882A436A4DA8420BD06F4DF2
:10118000A84208D0744DA84205D0744DA84202D0A0
:10119000734DA84213D14FF6F7752A404D892A4363
:1011A0004FF6FB752A408D882A434FF6FF652B408A
:1011B0004FF6FF552B408D892B43CD892B438380E0
:1011C0000483CD888586028470BD70B5002400221A
:1011D0000023058C4FF6EF7635400584028C83881A
:1011E000048B48F6FF752C404FF6FF452C400D88C8
:1011F0004FF6FF7606EA05252C434FF6DF752A40A9
:101200000D8906EA05152A434D8806EA05152A4385
:10121000444DA84202D0494DA8421DD14FF67F75DA
:101220002A404D894FF6FF7606EA05152A434FF608
:10123000BF752A408D8806EA05152A434FF6FF350B
:101240002B404FF2FF752B408D8906EA85052B4315
:10125000CD8906EA85052B4383800483CD880587E5
:10126000028470BD70B5002400220023058C4FF667
:10127000FF6635400584028C8388848B4FF68F751A
:101280002C404FF6FC752C400D882C434FF6FF5533
:101290002A400D894FF6FF7606EA05252A434D8838
:1012A00006EA05252A431F4DA84202D0234DA84235
:1012B0001DD14FF2FF752A404D894FF6FF7606EAA1
:1012C00005252A434FF6FF352A408D8806EA052575
:1012D0002A434EF6FF752B404DF6FF752B408D8946
:1012E00006EA05152B43CD8906EA05152B438380B5
:1012F0008483CD888587028470BD70B50022002369
:101300000024058C4EF6FF7635400584038C8488D6
:10131000828B48F6FF752A404FF6FF452A400D881C
:1013200020E00000002C01400004004000080040C4
:10133000000C004000100040001400400034014048
:10134000004C014000500140005401400018004092
:10135000001C0040002000400040014000440140CB
:10136000004801404FF6FF7606EA05252A434DF670
:10137000FF752B400D8906EA05352B434D8806EA9B
:1013800005352B43FA4DA84202D0FA4DA84208D1A8
:101390004BF6FF752C408D894FF6FF7606EA8515D2
:1013A0002C4384808283CD88A0F84050038470BD94
:1013B000828B4FF2FF331A408283828B4FF6FF738A
:1013C00003EA01231A4382837047F0B50C461546A1
:1013D000002200210026078C4EF6FF7C07EA0C074E
:1013E0000784828B018C4FF6FF7707EA043640F6BC
:1013F000FF473A404FF6FF7707EA05273A434FF693
:10140000FF7707EA03373A43D94FB8420ED0D94F96
:10141000B8420BD0B0F1804F08D0D74FB84205D0BA
:10142000D64FB84202D0D64FB84206D14DF6FF771C
:10143000394046F48057394305E047F6FF573940B5
:1014400044F48057394382830184F0BD828B4FF688
:10145000F3731A408283828B0A4382837047F0B50C
:101460000C461546002200210026078C4FF6FF6C23
:1014700007EA0C070784828B018C4FF6FF7707EA97
:1014800004264FF60C773A404FF6FF7707EA03172A
:101490002F433A43B64FB8420ED0B64FB8420BD0A6
:1014A000B0F1804F08D0B44FB84205D0B34FB84226
:1014B00002D0B34FB84206D14FF6FF57394046F439
:1014C0008077394305E04FF2FF57394044F4807785
:1014D000394382830184F0BD028B4FF2FF331A40FF
:1014E0000283028B4FF6FF7303EA01231A43028340
:1014F0007047F0B50C461546002200210026078CE7
:101500004FF6EF7C07EA0C070784028B018C4FF63D
:10151000FF7707EA041640F6FF473A404FF6FF7799
:1015200007EA03373A434FF6FF7707EA05273A43BE
:101530008F4FB8420ED08F4FB8420BD0B0F1804FD2
:1015400008D08D4FB84205D08C4FB84202D08C4F96
:10155000B84206D14FF6DF77394046F010073943DD
:1015600005E04FF65F77394044F0100739430283B6
:101570000184F0BD028B4FF6F3731A400283028B95
:101580000A4302837047F0B50C461546002200213D
:10159000068C4FF6FE773E400684028B018C4FF698
:1015A0000C7632407E1C06EA03162E433243704E00
:1015B000B0420ED06F4EB0420BD0B0F1804F08D089
:1015C0006D4EB04205D06D4EB04202D06C4EB0426E
:1015D00006D14FF6FD76314044F00106314305E077
:1015E0004FF6F576314044F0010631430283018421
:1015F000F0BD70B505460C465D4885420ED05D488D
:1016000085420BD0B5F1804F08D05B48854205D0AC
:101610005A48854202D05A48854200D100E000BFB6
:10162000208850B92389A28861882846FFF7ABFF3C
:10163000E1882846FFF79EFF25E0208804280AD18C
:101640002389A28861882846FFF753FFE18828464E
:10165000FFF742FF17E0208808280AD12389A288D3
:1016600061882846FFF7FBFEE1882846FFF7EEFE7B
:1016700009E02389A28861882846FFF7A6FEE18851
:101680002846FFF795FE70BD2DE9F04105460C4652
:1016900000260127608808B9022600E00026A088FD
:1016A000012801D1022700E001272088A0B9238961
:1016B000A28861882846FFF766FFE1882846FFF781
:1016C00059FF23893A4631462846FFF712FFE18841
:1016D0002846FFF701FF13E02389A2886188284686
:1016E000FFF707FFE1882846FFF7F6FE23893A4611
:1016F00031462846FFF747FFE1882846FFF73AFFC3
:10170000BDE8F0810A884B881A438B881A43CB883E
:101710001A430B891A434B891A438B891A43A0F841
:10172000442070474FF6FF71818000210180C18005
:101730004180017270470021018041808180C18019
:10174000018141818181C1817047002101804180F7
:10175000012181800021C180018170470021018029
:1017600041808180C1800181418181817047000079
:10177000002C0140003401400004004000080040FB
:10178000000C004021B1028842F00102028004E016
:1017900002884FF6FE731A400280704731B1B0F8EC
:1017A000442042F40042A0F8442005E0B0F8442070
:1017B000C2F30E02A0F8442070471AB183890B438C
:1017C000838102E083898B438381704781827047E4
:1017D00041EA0203A0F8483070471AB183890B43ED
:1017E000838102E083898B438381704701894FF6AF
:1017F000F8721140018170470A46002101894FF6B5
:101800008F73194011430181704730B504460D466E
:1018100029462046FFF7F0FF208940F0070020818D
:1018200030BD2DE9F04104460D4616461F46602D99
:1018300006D13B46012231462046FFF75AFE05E01D
:101840003B46012231462046FFF79DFE29462046B1
:10185000FFF7D2FF208940F007002081BDE8F0812A
:1018600030B50C4600210189C9B24FF6FF7505EA73
:101870000325154325432943018130BD2DE9F0415E
:1018800005460E4617469846002443463A463146DA
:101890002846FFF7E5FF2C894FF6F870044044F026
:1018A00007044FF68F70044044F070042C81BDE8AB
:1018B000F081F0B504460D4616461F463B463246BB
:1018C00029462046FFF7CCFF208940F48040208144
:1018D000F0BD0185828270470A46002101884FF6DB
:1018E0008F731940114301807047F0B50C461546BF
:1018F0001E460021002200230189028B038C4FF633
:10190000F877394021434FF6FC473A4040F201173F
:101910003A434FF6DD773B404FF6FF7707EA06176D
:101920002F433B43018102830384F0BD0A4600211B
:10193000018B4FF68F7319401143018370470A469C
:101940000021018B48F6FF7319404FF6FF7303EA3D
:1019500002231943018370470A460021818B4FF609
:101960008F7319401143818370470A460021818B90
:1019700048F6FF7319404FF6FF7303EA0223194339
:101980008183704721B1028842F08002028004E026
:1019900002884FF67F731A400280704721B1828817
:1019A00042F00402828004E082884FF6FB731A4002
:1019B0008280704721B1828842F00802828004E070
:1019C00082884FF6F7731A408280704721B182886F
:1019D00042F00102828004E082884FF6FE731A40D2
:1019E000828070470A460021018B4FF6F773194039
:1019F0001143018370470A460021018B4FF2FF73A8
:101A000019404FF6FF7303EA02231943018370471D
:101A10000A460021818B4FF6F773194011438183E9
:101A200070470A460021818B4FF2FF7319404FF631
:101A3000FF7303EA02231943818370470A4600219A
:101A4000018B4FF6FB7319401143018370470A461F
:101A50000021018B4FF6FF3319404FF6FF7303EA65
:101A600002231943018370470A460021818B4FF6F8
:101A7000FB7319401143818370470A460021818B13
:101A80004FF6FF3319404FF6FF7303EA0223194361
:101A9000818370470A460021018B4FF67F731940FE
:101AA0001143018370470A460021018BC1F30E01E7
:101AB0004FF6FF7303EA02231943018370470A4676
:101AC0000021818B4FF67F7319401143818370474A
:101AD0000A460021818BC1F30E014FF6FF7303EA22
:101AE00002231943818370470A460021018C4FF677
:101AF000FD7319401143018470470A460021018C8F
:101B00004FF6F77319401143018470470A460021CC
:101B1000018C4FF6DF7319404FF6FF7303EA02138F
:101B20001943018470470A460021018C4FF67F73E8
:101B300019404FF6FF7303EA0213194301847047FB
:101B40000A460021018C4FF6FF5319404FF6FF73F0
:101B500003EA02231943018470470A460021018CDD
:101B60004FF2FF7319404FF6FF7303EA0223194344
:101B7000018470470A460021018C4DF6FF7319401D
:101B80004FF6FF7303EA023319430184704730B5FF
:101B9000002301248C40A3B2048C9C430484048C55
:101BA00002FA01F5ADB22C43048430BD30B50023F8
:101BB00004248C40A3B2048C9C430484048C02FA59
:101BC00001F5ADB22C43048430BD70B5034600204E
:101BD00000241846183001258D40ACB21D8CA54359
:101BE0001D8409B1082909D100EB6100056825F0C1
:101BF000700505600568154305600EE00D1FC5F30F
:101C00004E052844056825F4E045056005684FF653
:101C1000FF7606EA02263543056070BD21B10288D1
:101C200042F00202028004E002884FF6FD731A407F
:101C30000280704721B1028842F00402028004E071
:101C400002884FF6FB731A400280704721B18288E8
:101C500042F08002828004E082884FF67F731A404F
:101C60008280704702884FF6F7731A40028002881C
:101C70000A430280704782884FF68F731A40828031
:101C800082880A438280704702894FF6F8731A40AF
:101C9000028102890A430281704702894FF67F73ED
:101CA0001A40028102890A43028170478184704789
:101CB00081857047818670470187704781877047AB
:101CC000A0F84010704702884FF6FF431A40028088
:101CD00002880A43028070470146888E7047014699
:101CE000088F70470146888F70470146B1F8400061
:101CF00070470146888C70470146088D7047024640
:101D00000020138A0B400BB1012000E00020704737
:101D1000CA430282704730B50246002000230024E7
:101D2000158A05EA0103958905EA010413B10CB18E
:101D3000012000E0002030BDCA430282704700004D
:101D400010B50446FB48844209D101218803FEF7FF
:101D5000FBFF00214FF48040FEF7F6FF32E0F6482B
:101D6000844209D101214804FEF7FBFF00214FF412
:101D70000030FEF7F6FF25E0F048844209D101214A
:101D80008804FEF7EEFF00214FF48020FEF7E9FF04
:101D900018E0EB48844209D10121C804FEF7E1FFB5
:101DA00000214FF40020FEF7DCFF0BE0E548844201
:101DB00008D101210805FEF7D4FF00214FF480105F
:101DC000FEF7CFFF10BD2DE9F04786B005460E4661
:101DD0000024A24600BFA1460027B08900B100BF81
:101DE0002F462C8A4CF6FF700440F08804432C8266
:101DF000AC894EF6F3100440B088318908437189EC
:101E000008430443AC81AC8A4FF6FF400440B089DC
:101E10000443AC8201A8FEF710FFC648874202D1F6
:101E2000DDF810A001E0DDF80CA0A88900F4004066
:101E300040B10AEBCA0000EB0A1031684900B0FB60
:101E4000F1F807E00AEBCA0000EB0A1031688900DC
:101E5000B0FBF1F86420B8FBF0F004012009642124
:101E600001FB1089A88900F4004040B1322000EB4A
:101E7000C900B0FBF1F000F00700044308E0322095
:101E800000EB09106421B0FBF1F000F00F000443F7
:101E90002C8106B0BDE8F0874FF416510160002197
:101EA0008180C18001810C214181002181817047A5
:101EB00010B502460020108A4FF2FF0318400B882D
:101EC0004C8823438C882343CC88234318431082B7
:101ED00010BD0021018041808180C180704721B107
:101EE000828942F40052828104E082894DF6FF73B8
:101EF0001A4082817047F0B5034600240026002571
:101F0000002040F66A17B94200D100BF1846C1F35D
:101F1000421401F01F06012707FA06F5012C01D132
:101F20000C3004E0022C01D1103000E014301AB162
:101F300007682F43076002E00768AF430760F0BD02
:101F40001AB1838A0B43838202E0838A8B438382A4
:101F50007047028A4FF6F0731A400282028A0A43DF
:101F60000282704782894FF2FF731A408281828910
:101F70000A438281704721B1828942F00202828144
:101F800004E082894FF6FD731A4082817047028A0D
:101F90004FF6DF731A400282028A0A4302827047B8
:101FA00021B1028A42F48042028204E0028A4BF6A6
:101FB000FF731A4002827047C1F3080282807047A3
:101FC00001468888C0F308007047818941F001010B
:101FD00081817047028BD2B20283028B42EA0122D6
:101FE00002837047028B02F47F420283028B0A4312
:101FF0000283704721B1828A42F02002828204E08B
:10200000828A4FF6DF731A408282704721B1828A3A
:1020100042F01002828204E0828A4FF6EF731A4087
:102020008282704721B1828A42F00802828204E0F3
:10203000828A4FF6F7731A408282704721B18289F3
:1020400042F40042828103E08289C2F30E0282815F
:10205000704721B1828A42F40062828204E0828A5F
:102060004FF2FF731A4082827047828A4FF6FB73E9
:102070001A408282828A0A438282704721B1828A10
:1020800042F00202828204E0828A4FF6FD731A4017
:102090008282704702460020B1F5007F00D100BF68
:1020A00013880B400BB1012000E00020704701F4C1
:1020B0000072B2F5007F00D100BFCA4302807047B2
:1020C00070B50246002400230025002040F66A1661
:1020D000B14200D100BFC1F3421501F01F03012638
:1020E00006FA03F3012D02D19689334006E0022D52
:1020F00002D1168A334001E0968A33400C12012641
:1021000006FA04F41688344013B10CB1012000E043
:10211000002070BD10B50022002340F66A14A142D1
:1021200000D100BF0A1201249440A3B2DC43048012
:1021300010BD00000038014000440040004800404D
:10214000004C00400050004008B5002002F059FA51
:10215000314800F071F900F05EFC30494868804772
:10216000002001232E4AC82100902EA000F054FB2D
:102170002F4908602F4801232F4A42F21071009026
:102180002EA000F049FB30490860002001232F4AAF
:10219000052100902EA000F03FFB3049086002F0BE
:1021A000ACFF02F0D9FC2EA003F08CFC08BD10B5EA
:1021B000482000F0EBF8022003F024F9012003F09E
:1021C00021F94FF4A06000F0DBF802F0B3F903202E
:1021D00002F0D6F941F61F41092000F095FA274890
:1021E00003F070FC02F068FC02F0D1FB244A2021CD
:1021F000244800F062FD10BDFEF70BF8FFF7D7FF93
:10220000FFF7A2FF06E000F08DFB02F0C3FF0248DB
:1022100002F090FDF7E700009C0200208000002003
:10222000B545000846656564446F675461736B008B
:1022300094010020280000204F4A00085465737460
:102240005461736B00000000BC0100209B2C00084F
:102250004B65795363616E5461736B0048000020D5
:102260004D696E6962616C616E636520496E697467
:10227000204F6B202E2E2E0D0A00000064640008F3
:102280004D2C000800080140704710B5FDF738FFDD
:1022900010BD00BFFEE700BFFEE700BFFEE77047CE
:1022A0007047704700204FF0E0218861704710B5FB
:1022B000002440F225512848FFF702FF40B140F2C8
:1022C00025512548FFF726FF2348FFF779FEC4B2C2
:1022D00010BD08B540F225512048FFF7F1FED8B1F6
:1022E00040F225511D48FFF715FF1C48FFF768FE17
:1022F000C0B200901A4890F8140268B101226946F1
:10230000174800F061F9012806D01548D0F81002EE
:10231000401C1349C1F8100208BD10B511480068EF
:1023200020F002000F49086009E00FA003F0CAFB8B
:1023300080211248FEF73FFA8020FEF740F9802006
:10234000FEF72CF90028F0D10648006840F00200A2
:102350000449086010BD00000044004000480040EF
:102360009C02002004040140496E6672617265643B
:102370005F455854492E2E2E0D0A0000000C0140D6
:1023800010B504462046FDF7C5FF10BD10B5044644
:102390006FF00400FEF70DF8E11704EB5171C1F383
:1023A000C701234A11701046007800EB4001C1EBD1
:1023B000C0104FF6FF7101EAC0001E49088010BD31
:1023C00001461B4A12784A434FF0E0235A6100222B
:1023D0009A6101221A6100BF4FF0E022106900F0FB
:1023E00001021AB100F48032002AF5D000224FF029
:1023F000E0231A619A61704701460E4A12884A43E7
:102400004FF0E0235A6100229A6101221A6100BF55
:102410004FF0E022106900F001021AB100F480329E
:10242000002AF5D000224FF0E0231A619A6170472C
:102430002C0000202E00002070B504464FF40075DB
:1024400024B96EA003F03EFB002070BD15B1681EDC
:10245000284020B16EA003F035FB0020F5E70120F5
:1024600004F5007420754002206000206060A060C8
:1024700020732061A4F500742046E6E7014601F5CB
:10248000017005C8801A70472DE9F04104460E46D8
:1024900015460027B84604F5017003C8A0EB0108F3
:1024A000454501D2284600E040460546D4F80012D2
:1024B000491ED4F808020840D4F80012081AA842AD
:1024C00001D9284608E0D4F80012491ED4F80802C1
:1024D0000840D4F80012081A0746D4F80022521E09
:1024E000D4F80802104001193A46304602F0F8FFCD
:1024F000EA1BF019214602F0F3FFD4F80802284441
:10250000C4F808022846BDE8F0812DE9F0410446F0
:102510000F461546002604F5007003C8401AD4F88B
:1025200008120844A84201D9284606E004F50070C4
:1025300003C8401AD4F8081208440546D4F800121B
:10254000491ED4F804020840D4F80012081AA84220
:1025500001D9284608E0D4F80012491ED4F8040234
:102560000840D4F80012081A0646D4F80022521E79
:10257000D4F80412114008193246394602F0B0FF6F
:10258000AA1BB919204602F0ABFFD4F80402284474
:10259000C4F804022846BDE8F08110B503460024C3
:1025A0001846FFF76BFF0446204610BD2DE9F041A9
:1025B00004460D461646324629462046FFF764FF7C
:1025C00007463846BDE8F0812DE9F04104460F4644
:1025D00015462A4639462046FFF797FF0646AE4283
:1025E00002D0012084F80C023046BDE8F0810021C1
:1025F000C0F80412C0F808127047000072696E67D4
:102600005F627566206973204E554C4C0D0A0000C0
:1026100073697A65206D75737420626520706F77B9
:102620006572206F6620320D0A0000007FB50546F6
:102630000C4600208DF80C000121C802FEF76AFB51
:10264000ADF80850ADF804400020ADF80600ADF834
:102650000A0001A9F848FEF739FD01221146F648A3
:10266000FFF7ABF819208DF8000001208DF801006C
:1026700003208DF8020001208DF803006846FDF765
:102680004EFE7FBD10B50121EB48FFF744FB18B1AA
:102690000121E948FFF750FB10BD7FB505460C4608
:1026A00001210846FEF743FBADF80850ADF80440A1
:1026B0000020ADF80A00ADF8060001A94FF08040F7
:1026C000FEF704FD012211469007FFF776F81C2063
:1026D0008DF8000001208DF801008DF802008DF8C2
:1026E00003006846FDF71BFE01218807FFF74AF843
:1026F0007FBD10B501218807FFF70DFB18B101213F
:102700008807FFF719FB10BD7FB505460C46012170
:102710000220FEF70CFBADF80850ADF80440002095
:10272000ADF80A00ADF8060001A9C448FEF7CEFCDA
:1027300001221146C148FFF740F81D208DF8000026
:1027400001208DF801008DF802008DF80300684625
:10275000FDF7E5FD0121B948FFF714F87FBD10B57D
:102760000121B648FFF7D7FA68B10121B348FFF756
:10277000E3FAB3480068401CB1490860B1480068FA
:10278000401CB049086010BD7FB505460C460121CC
:102790000420FEF7CCFAADF80850ADF80440002054
:1027A000ADF80A00ADF8060001A9A748FEF78EFCB7
:1027B00001221146A448FFF700F81E208DF8000002
:1027C00001208DF8010000208DF8020001208DF815
:1027D00003006846FDF7A3FD01219B48FEF7D2FFE9
:1027E0007FBD10B501219848FFF795FA18B1012176
:1027F0009548FFF7A1FA10BD10B504460020607699
:10280000E076A076E06120622063E06360621921D7
:10281000204602F07EFE10BD2DE9F84F06460F4619
:1028200090469946DDF828A00024884800680F28C3
:1028300040D2002506E0864800EB8510407E00B9B6
:1028400002E06D1C0F2DF6D300BF0F2D32D2804851
:1028500000EB8514012060760020E063C4F830A00E
:10286000E076E761276284F81A901921204602F089
:1028700050FE304602F058FE83465A463146204606
:1028800002F02EFEC4F8248072480068E0637148AC
:10289000046004F1340000F0C7FA6C480068401C82
:1028A0006A4908600846009522466B4903686BA098
:1028B00003F008F934B9654832466749036874A0E3
:1028C00003F000F92046BDE8F88F2DE9F0410546F8
:1028D0004FF0FF375F4C00261DE02068A84217D15B
:1028E00026682068C06B206058480068401E574921
:1028F0000860084632466F4903686FA003F0E2F8AB
:102900003046FFF779FF304601F0E0FF002705E091
:10291000206800F13C0420680028DED100BF384662
:10292000BDE8F0812DE9F0474FF00008494CC14661
:10293000444807686B4800683D1A6A480760002DE4
:1029400067D02E4662E000202168C86209E00120BD
:10295000216881F828002068C0F82C802068416A2E
:102960008847206801F0D1FF5FEA0008EFD12068B6
:10297000C069B04240D80020216881F82800206852
:10298000416A88472068C069361A2068006A216851
:10299000C86106B13AE02068807E01281AD120681B
:1029A000C07E012811D1D4F800902068C06B20604F
:1029B0002E4626480068401E244908604846FFF716
:1029C0001BFF484601F082FF20E0206800F13C0434
:1029D0002E461AE0D4F800902068C06B20602E4686
:1029E0001A480068401E194908604846FFF704FF6E
:1029F000484601F06BFF09E02068C069801B216830
:102A0000C861206800F13C042E4600BF2068002801
:102A100099D1BDE8F08710B5002400200B4908606B
:102A200000BF05E00A4901EB8410FFF7E5FE641CD6
:102A30000F2CF7D310BD0000002C01400004004013
:102A40002800002034000020000800403C00002046
:102A5000B4040020380000209663000825733A2053
:102A60006164642074696D65725B25735D207375A4
:102A700063636573732E2073797354696D65725443
:102A80006F74616C3D25642C20693D25640D0A003E
:102A900025733A202573204661696C21212120731A
:102AA000797354696D6572546F74616C203D202593
:102AB000640D0A00AC63000825733A2064656C65F8
:102AC00074652074696D6572205B25735D2E2073BB
:102AD000797354696D6572546F74616C3D25640D32
:102AE0000A0000004000002070B505460C46218910
:102AF0006068FDF760FE18B9E08A401CE08201E0E2
:102B00000020E08221896068FDF755FE18B9207C1D
:102B100008B901202074607C78B9207C012804D198
:102B2000A07C401CA07401206074A07C022804D109
:102B30000020A074A082022070BD21896068FDF78A
:102B40003AFE012802D1002020746074A07C012884
:102B500013D1A08A401CA082A08AA84207DDE08A87
:102B6000A84204DA0020A074A0820120E4E7E08AF1
:102B7000A84202DD0020A074A0820020DCE710B58E
:102B80000446608B40B921896068FDF714FE18B9CE
:102B9000208B401C208301E000202083208BB0F597
:102BA000967F05DD0120608300202083012010BD79
:102BB000608B012807D121896068FDF7FCFD0128A1
:102BC00001D1002060830020F1E770B5002431E0DE
:102BD000C4EBC400784A02EB80013220FFF784FF87
:102BE0000546012D08D1C4EBC400734A02EB8000F6
:102BF000C1680120884709E0022D07D1C4EBC40059
:102C00006D4A02EB8000C16802208847C4EBC40112
:102C1000694A02EB8100FFF7B2FF0646012E07D199
:102C2000C4EBC400644A02EB8000C16803208847FB
:102C3000601CC4B261480068844206D2C4EBC40080
:102C40005D4911F820000028C2D170BD38B5044696
:102C5000012001F0C3FE18B1012001F089FE02E05D
:102C6000012001F0ADFE012C02D10120009008E00E
:102C7000022C02D10220009003E0032C01D103209A
:102C8000009001226946642001F0BAFD05464C48D7
:102C90000168284601F0E2FD38BD70B504462546BE
:102CA00095F8280028B1E86A10B1E86A01F0E5FD5E
:102CB00070BDFFF78AFF00BFFAE72DE9F84304462D
:102CC0000F46904600263F48844204D1012104204B
:102CD000FEF720F831E03C48844204D1012108206D
:102CE000FEF718F829E03948844204D10121102068
:102CF000FEF710F821E03648844204D1012120205B
:102D0000FEF708F819E03348844204D1012140203D
:102D1000FEF700F811E03048844204D10121802000
:102D2000FDF7F8FF09E02D48844204D10121801508
:102D3000FDF7F0FF01E0BDE8F88303208DF8020005
:102D400048208DF80300ADF8007069462046FDF775
:102D50009FFC1A4800680A2825D2002507E0C5EB29
:102D6000C500154911F8200000B902E06D1C0A2DBC
:102D7000F5D300BF0A2D16D2C5EBC5000E4901EBF5
:102D800080060120307074603781C6F80C800B48D3
:102D90000068401C0949086008462A461049036833
:102DA00010A002F08FFE26B90D491BA002F08AFE8A
:102DB000C1E700BFBFE70000740800204400002006
:102DC000D801002000080140000C01400010014023
:102DD0000014014000180140001C01400020014087
:102DE000C463000825733A20616464206B65795BD5
:102DF00025645D2064657465637420737563636521
:102E000073732E206B65794576656E74546F7461AB
:102E10006C3D25640D0A000025733A204661696CFB
:102E20002121210D0A0000000060406070475060C1
:102E3000026041600860704710B504460B461946B1
:102E400020461A68FFF7F3FF10BD10B504460B4685
:102E50001A4620465968FFF7EAFF10BD4860016036
:102E6000704700B50246D2E90010FFF7F7FF00BD3A
:102E700000B50246D2E90010FFF7F0FF00BD30B503
:102E800004460D462046FFF7ECFF29462046FFF793
:102E9000D3FF30BD30B504460D462046FFF7E1FFB5
:102EA00029462046FFF7D1FF30BD01460868884219
:102EB00001D1012070470020FCE7000008B5032085
:102EC0008DF8000000208DF8010002208DF802002E
:102ED00001208DF803006846FDF721FA08BDF0B522
:102EE00003460C461546642093FBF0F0C6B26420FE
:102EF00093FBF0F700FB1730C1B2132E02DD01F196
:102F00006400C1B20846CF1701EB977701EBA70722
:102F1000BAB2072092FBF0F700FB172082B25719D4
:102F2000601EDFF8F0C31CF80000384482B2CF17EF
:102F300001EB9777BF10A1EB87071FB9032C01DACC
:102F4000501E82B2072092FBF0F700FB1720C0B2A0
:102F5000F0BD0146CA1701EB92729210A1EB8202FA
:102F600092B9642091FBF0F200FB121050B94FF4BB
:102F7000C87091FBF0F200FB121008B901207047F5
:102F80000020FCE70120FAE70020F8E770B50026F2
:102F900000240025FDF742FF0646DF48B6FBF0F4AB
:102FA000DE480088A0423CD0DC490C8040F2B2757B
:102FB00010E02846FFF7CDFF40B1B4F5B77F02D34C
:102FC000A4F5B77404E0681C85B206E0A4F26D14A1
:102FD000681C85B2B4F5B67FEBD800BFD0488580B9
:102FE000002516E0CE498888FFF7B3FF30B1012DE8
:102FF00004D11D2C01D31D3C09E00CE0C948405D03
:10300000A04203D8C748405D241A00E003E0681CD2
:1030100085B21C2CE6D200BF681CC1498871601CB7
:10302000C871BD48B6FBF0F100FB11644FF461605C
:10303000B4FBF0F0BA4908704FF46160B4FBF0F1F2
:1030400000FB11403C21B0FBF1F0B54948704FF452
:103050006160B4FBF0F100FB11403C21B0FBF1F2E8
:1030600001FB1200AE4988700B46DA79997998888D
:10307000FFF735FFAA490872002070BD2DE9F05F07
:1030800006460F4690469946DDE90AAB002440F219
:10309000B270864203DB40F63300864202DD012037
:1030A000BDE8F09F40F2B2750AE02846FFF751FFF5
:1030B00010B19D48044401E09C480444681C85B25A
:1030C000B542F2DB781EC7B2002510E09548405D9E
:1030D00040F2A321484304EBC0143046FFF739FF08
:1030E00018B1012D01D18C480444681C85B2BD4241
:1030F000ECDBA8F1010040F2A321484304EBC0142B
:10310000C9EB4910C0EB092004EB0014CAEB0A100C
:1031100004EB80045C4401214FF0C050FDF707FE32
:103120000120FDF72EFC2046FDF781FEFDF7B2FEE3
:103130000020B5E71CB5002401214FF0C050FDF779
:10314000F6FD0120FDF71DFC0420FDF786F945F290
:10315000500188424DD0764976A002F0B3FCFDF7CD
:1031600047F90120FDF743FD04E0601CC4B20A20CA
:10317000FFF742F94120FDF7A2FC08B9FA2CF4DB75
:10318000FA2C03DB6A4970A002F09CFCFA2C04DBE9
:103190004FF44070FDF747FD03E04FF48070FDF7FA
:1031A00042FD0120FDF745FDFDF774FEFDF77BFEB6
:1031B00001210846FDF712FEFDF76CFEFDF71BFE30
:1031C00047F6FF70FDF740FEFDF764FE37202A2129
:1031D00011230E22CDE90010012140F2DF70FFF72C
:1031E0004DFFFDF711FE45F250010420FDF729F9CE
:1031F00007E0FDF758FE01210846FDF7EFFDFDF75A
:1032000049FEFFF75BFEFFF7C1FE00201CBD0EB5B7
:103210000120FDF76DFE08B1FFF7B8FE0220FDF7B3
:1032200067FEA0B10220FDF773FEFFF7AFFE3C483A
:1032300080783B4949783A4A1278CDE900210290DA
:103240003748C3798279818843A002F03BFC05208E
:10325000FDF75EFEFDF71EFE0EBD2DE9F05F064692
:103260000F4690469946DDE90AAB002440F2B27061
:10327000864203DB40F63300864202DD0120BDE8D2
:10328000F09F40F2B2750AE02846FFF762FE10B1E7
:103290002548044401E025480444681C85B2B54231
:1032A000F2DB781EC7B2002510E01E48405D40F2F8
:1032B000A321484304EBC0143046FFF74AFE18B17F
:1032C000012D01D114480444681C85B2BD42ECDBD9
:1032D000A8F1010040F2A321484304EBC014C9EB5C
:1032E0004910C0EB092004EB0014CAEB0A1004EBF0
:1032F00080045C4401214FF0C050FDF718FD01200F
:10330000FDF73FFB2046FDF7ADFDFDF7C3FD0020B7
:10331000B5E70000D7630008805101004C00002091
:103320008C090020E36300080085E2018033E1019D
:10333000EF63000825733A207365742074696D6526
:103340002E2E0D0A0000000025733A206572726F60
:10335000722121210D0A0000416C61726D205469B7
:103360006D653A25642D25642D25642025643A2554
:10337000643A25640A00000002460AE010780B78DF
:10338000984201D001207047107800B902E0521C29
:10339000491CF3E700BF0020F5E706E002780A7059
:1033A000027802B902E0401C491CF7E700BF7047F1
:1033B0000146002005E00A7802B903E0421CD0B2C1
:1033C000491CF8E700BF704710B50246012000E035
:1033D00050430B00A1F10104E1B2F9D110BD2DE978
:1033E000F04307460E4600254FF00A083C460020F1
:1033F00030601FE02078392802DC207830280ADA93
:103400002078462802DC2078412804DA20785828E1
:1034100009D1012D07D12078412801DB4FF0100898
:10342000681CC5B205E0207800B904E00120BDE8C1
:10343000F083641CDEE700BF3C46B8F1100F0FD1EB
:10344000032D01DA0220F2E72078302806D16078D7
:10345000582803D1A41CA81EC5B204E00320E6E747
:103460000DB90420E3E71BE00DB1681EC5B220785A
:10347000392806DC2078302803DB2078A0F13009D9
:1034800002E02078A0F1370929464046FFF79CFF6B
:10349000316809FB00103060641C207800B900E03E
:1034A000E2E700BF0020C2E710B50446002010701C
:1034B0000BE020780870641C491C1078401C1070C8
:1034C0001078984201DB012010BD2078202802D01E
:1034D00020780028EDD10020087000BFF4E70146F5
:1034E000491C00E0491C0878202801D10029F9D1A5
:1034F000087870472DE9FF4F85B080468946002740
:10350000002004900390012002904FF0000B002552
:1035100044461DE02078202816D005F07F000528BD
:1035200012DA0DB945F0800505F07F00042803D1BB
:1035300020782A2800D00EE0207805F07F010DF8D1
:103540000100681CC5B202E0852D00D103E0641CB7
:1035500020780028DED100BF8DB1002005F07F016A
:103560000DF80100CBA16846FFF706FF18B900214E
:103570000898017002E001210898017000254FF0C1
:10358000000A444614E0641C0AF1010000F0FF0A3E
:103590002078202802D020782A2809D12046FFF759
:1035A0009EFF0646282E03D02A2E01D0CDF810A06B
:1035B0002078282802D020780028E4D144460498B6
:1035C00010B10498401C04444FF0000A002654E057
:1035D000207810B94FF0010A50E02078282803D154
:1035E00016B9781CC7B213E02078292808D13EB953
:1035F00017B1781EC7B201E04FF0010A47B93DE0AC
:103600002078222804D10EB9012000E000200646CF
:1036100047B9207820282FD0207889F8000009F1B8
:10362000010929E020782C2804D101200290681C8F
:10363000C5B214E02078202811D0207828280ED098
:103640004DB9BBF1050F06DA20780DF80B000BF130
:10365000010000F0FF0B0298401CC0B20290012F45
:103660000AD10298022807D10298401CC0B20290E9
:103670000398401CC0B20390641CA9E700BF0398E4
:10368000012809D100200DF80B0082A16846FFF740
:1036900073FE08B900200390079903980870002072
:1036A00089F80000504609B0BDE8F08FF0B5034638
:1036B0001546002000220026002455E01F782C2FFC
:1036C00001D104B901221F78292F01D01F780FB929
:1036D00004B94AE0002E34D11F78302F02DB1F7866
:1036E000392F11DD1F78612F02DB1F78662F0BDD6C
:1036F0001F78412F02DB1F78462F05DD1F78582FDA
:1037000002D01F78782F0CD102B12EE01F78612FE4
:1037100003DB1F78203F0F7001E01F780F70491CFA
:103720001FE01F78222F04D102B11EE001260124E0
:1037300017E01F78202F14D01F782C2F11D0FF26D0
:1037400013E01F78222F00D1002402B10DE044B114
:103750001F785C2F02D15B1C471CF8B21F780F70DA
:10376000491C471CF8B25B1CA8E700BF00270F707C
:103770002E70F0BD02460020002105E0474B5B5C47
:103780000344D8B24B1CD9B29142F7DB70472DE904
:10379000F043B5B005460F460024002604E00021A2
:1037A0003E488155701CC6B20A2EF8DB06E06D1C3F
:1037B000287818B9012035B0BDE8F083287828288A
:1037C000F5D16D1C61E034AA69462846FFF76EFF0B
:1037D000064635449DF8D00020B1012827D0FF28A7
:1037E0004CD149E09DF8000000B333A96846FFF7CB
:1037F000F6FD06460EB10220DDE72046FFF7BAFFD0
:1038000026490A31339A0A50A1F12400008B012184
:10381000A140884321491A39088304211F480155D2
:10382000601CC4B20A2C01DD0320C4E726E0684610
:10383000FFF7BEFD401C00F0FF082046FFF79AFF8F
:1038400016490A3100EB010949466846FFF7A5FD14
:1038500012481A38018B0120A040014388B20F4959
:103860001A3908830D4800F80480601CC4B20A2C81
:1038700001DD03209FE701E002209CE700BF2878DC
:10388000292801D0287800B900E09CE700BF3C70EF
:10389000002090E7766F6964000000009A00002025
:1038A00010B58CB004461E230BAA03A92046FFF7CF
:1038B000FBFD0090009810B101200CB010BD9DF8E8
:1038C0002C00044400200B900EE0A4489DF82C200E
:1038D00050F8221003A8FFF74FFD00B908E09DF84B
:1038E0002C00401CC0B20B909DF82C000728ECD394
:1038F00000BF9DF82C00072878D2DFE800F004050F
:10390000274978A3CE0000BF95A002F0DBF895A070
:1039100002F0D8F899A002F0D5F89EA002F0D2F8F3
:10392000A2A002F0CFF8A8A002F0CCF8ADA002F05F
:10393000C9F8BAA002F0C6F8C6A002F0C3F8D2A037
:1039400002F0C0F8DDA002F0BDF8D3E084A002F0E0
:10395000B9F8EAA002F0B6F800200B900EE0F748A4
:1039600000689DF82C2000EBC2004168F4A002F032
:10397000A9F89DF82C00401CC0B20B90EF48007DC8
:103980009DF82C108842EADC75A002F09BF8B1E0AB
:1039900073A002F097F8ECA002F094F800200B90CE
:1039A0001AE0E64909689DF82C2001EBC20101AB41
:1039B00002AA486803A9FFF79DFDE04800689DF84A
:1039C0002C1050F8312003A9EFA002F07BF89DF8ED
:1039D0002C00401CC0B20B90D848007D9DF82C10E4
:1039E0008842DEDC5EA002F06DF883E080E05CA03F
:1039F00002F068F80BAA03A92046FFF757FE9DF8CE
:103A00002C00C8B9694603A8FFF7E9FC0B909DF8A4
:103A10002C0020B9E1A0009902F054F80EE09DF8C6
:103A20002C00042801D0022047E7DFA002F04AF86A
:103A30000120C249C87501E002203EE748A002F01B
:103A400041F857E046A002F03DF80BAA03A9204632
:103A5000FFF72CFE9DF82C00C8B9694603A8FFF7B4
:103A6000BEFC0B909DF82C0020B9D4A0009902F068
:103A700029F80EE09DF82C00042801D002201CE754
:103A8000D1A002F01FF80020AC49C87501E0022067
:103A900013E733A002F016F82CE031A002F012F880
:103AA0000BAA03A92046FFF701FE9DF82C00C8B918
:103AB000694603A8FFF793FC0B909DF82C0078B99A
:103AC0009E49009881F8EC00084690F8EC0018B187
:103AD000C2A001F0F7FF07E0C7A001F0F3FF03E089
:103AE0000220EAE60220E8E61DA001F0EBFF01E07B
:103AF0000120E2E600BF0020DFE610B50121C54845
:103B0000FEF706F94FF6FF71C248FEF7D1F8002123
:103B1000C048FEF7CBF800208849C1F8F00010BD7E
:103B200010B50121BB48FEF7EAF8012808D1834807
:103B3000D0F8F0004FF6FF7108448049C1F8F0005A
:103B4000B448FEF7D6F87D49D1F8F01008447B4917
:103B5000C1F8F0000846D0F8F00010BD7801002050
:103B60000D0A000055534D415254D3D037B8F6CF0B
:103B7000B5CDB3C3FCC1EE3A0D0A00003F3A202098
:103B800020202020BBF1C8A1B0EFD6FAD0C5CFA22B
:103B90000D0A000068656C703A202020BBF1C8A1B6
:103BA000B0EFD6FAD0C5CFA20D0A00006C697374CD
:103BB0003A202020BFC9D3C3B5C4BAAFCAFDC1D013
:103BC000B1ED0D0A0A00000069643A20202020208F
:103BD000BFC9D3C3BAAFCAFDB5C44944C1D0B1ED62
:103BE0000D0A0A006865783A20202020B2CECAFD6E
:103BF0003136BDF8D6C6CFD4CABE2CBAF3B8FABF98
:103C0000D5B8F12BCAFDD7D6BCB4D6B4D0D0BDF848
:103C1000D6C6D7AABBBB0D0A0A0000006465633A8A
:103C200020202020B2CECAFD3130BDF8D6C6CFD478
:103C3000CABE2CBAF3B8FABFD5B8F12BCAFDD7D695
:103C4000BCB4D6B4D0D0BDF8D6C6D7AABBBB0D0A7B
:103C50000A00000072756E74696D653A312CBFAA56
:103C6000C6F4BAAFCAFDD4CBD0D0BCC6CAB13B30C3
:103C70002CB9D8B1D5BAAFCAFDD4CBD0D0BCC6CA46
:103C8000B13B0D0A0A000000C7EBB0B4D5D5B3CCE8
:103C9000D0F2B1E0D0B4B8F1CABDCAE4C8EBBAAF53
:103CA000CAFDC3FBBCB0B2CECAFDB2A2D2D4BBD84F
:103CB000B3B5BCFCBDE1CAF82E0D0A002D2D2D2D8B
:103CC0002D2D2D2D2D2D2D2D2D2D2D2D2D2D2D2D24
:103CD0002D2D2D2D2D2D414C49454E54454B2D2D2F
:103CE0002D2D2D2D2D2D2D2D2D2D2D2D2D2D2D2D04
:103CF0002D2D2D2D2D2D2D200D0A00002D2D2D2D9E
:103D00002D2D2D2D2D2D2D2D2D2D2D2D2D2D2D2DE3
:103D10002D2D2D2D2DBAAFCAFDC7E5B5A52D2D2D05
:103D20002D2D2D2D2D2D2D2D2D2D2D2D2D2D2D2DC3
:103D30002D2D2D2D2D2D2D2D200D0A008000002044
:103D400025730D0A000000002D2D2D2D2D2D2D2D5C
:103D50002D2D2D2D2D2D2D2D2D2D2D2D2D2D2D2D93
:103D60002DBAAFCAFD204944202D2D2D2D2D2D2DEE
:103D70002D2D2D2D2D2D2D2D2D2D2D2D2D2D2D2D73
:103D80002D2D2D2D200D0A002573206964206973C7
:103D90003A0D0A3058253038580D0A004845583A2F
:103DA000305825580D0A00003136BDF8D6C6B2CEBF
:103DB000CAFDCFD4CABE210D0A0000004445433AD3
:103DC000256C750D0A0000003130BDF8D6C6B2CEA4
:103DD000CAFDCFD4CABE210D0A00000052756E2064
:103DE00054696D652043616C63756C6174696F6EB5
:103DF000204F4E0D0A00000052756E2054696D650B
:103E00002043616C63756C6174696F6E204F464628
:103E10000D0A00000008004070B50446254695F8DC
:103E2000280028B1E86A10B1E86A00F026FD70BDEC
:103E3000F2490869804700BFF9E708B5002001236F
:103E4000AFF22B0264210090EDA0FEF7E5FC00200C
:103E5000EA49C87508BD30B595B0054613AB12AA3E
:103E600009A92846FFF746FB044614B1204615B0C1
:103E700030BD0020149026E0E04909689DF85020EC
:103E800001EBC20113AB11AA486801A9FFF732FB8D
:103E900004460CB12046EAE709A901A8FFF76CFA2D
:103EA00060B99DF844009DF84810884201DD022069
:103EB000DDE79DF85000D14988750AE09DF8500073
:103EC000401CC0B21490CD48007D9DF8501088422F
:103ED000D2DC00BFC948007D9DF85010884201D156
:103EE0000420C4E714A92846FFF751FC04460CB18E
:103EF0002046BCE79DF85000C04948750020B6E751
:103F00002DE9F0419AB0BD48847D007DA04202DCDD
:103F10001AB0BDE8F081B949096801EBC40106ABEC
:103F200007AA486808A9FFF7E5FA08A9B6A001F0B2
:103F3000C9FD002644E0B148008B0121B140084092
:103F4000D8B12221B2A001F0BDFD3046FFF712FC2E
:103F5000AA49243147183946AEA001F0B3FD222109
:103F6000ABA001F0AFFD3046FFF704FCA3492431BC
:103F7000084410A941F8260018E03046FFF7FAFB84
:103F80009E492431085810A941F826009B48C07D5D
:103F900030B910A850F826109FA001F093FD05E05D
:103FA00010A850F826109DA001F08CFD9DF81C0073
:103FB000401EB04202D09BA001F084FD701CC6B22E
:103FC0009DF81C008642B6DB97A001F07BFDFFF751
:103FD00094FD8A48407D0B280DD2DFE800F0060DE5
:103FE000151E27323F4E5F7287008449096851F8D9
:103FF00034008047054690E0804A126852F8341039
:1040000010988847054688E07C4B1B6853F834209D
:10401000DDE91001904705467FE0784F3F6857F88B
:10402000343010A807C89847054676E0DFF8CCC1C1
:10403000DCF800C05CF8347010A80FC8B84705461B
:104040006BE01498DFF8B4C10090DCF800C05CF8B5
:10405000347010A80FC8B84705465EE0DDE91401CA
:10406000DFF898C1CDE90001DCF800C05CF83470DD
:1040700010A80FC8B84705464FE0DDE9141216989E
:10408000DFF878C1CDE900120290DCF800C05CF8DE
:10409000347010A80FC8B84705463EE0DDE9142388
:1040A000DDE91610DFF854C1CDE90023CDE9021097
:1040B000DCF800C05CF8347010A80FC8B84705469B
:1040C0002BE0DDE91523DDE91710CDE90123CDE96A
:1040D00003101498DFF824C10090DCF800C05CF8ED
:1040E000347010A80FC8B847054616E0DDE916235E
:1040F000DDE91810CDE90223CDE90410DDE9140152
:10410000DFF8F8C0CDE90001DCF800C05CF83470DD
:1041100010A80FC8B847054600BF00BFFFF700FD55
:104120009DF8180001280CD13448C07D20B92946DB
:104130003EA001F0C7FC07E029463EA001F0C2FC0A
:1041400002E03BA001F0BEFC2C4890F8EC0088B1E6
:104150002A48D0F8F0000A21B0FBF1F201FB120767
:104160002648D0F8F000B0FBF1F83A46414634A0BA
:1041700001F0A8FC00BFCBE670B53948008800F418
:104180000040002833D0364805780020354948558E
:104190001A4881683348884704461CB91749C868DB
:1041A000804721E02F48FFF77BFB0546012D00D01B
:1041B0002C46CCB1012C06D0022C08D0032C0AD0FE
:1041C000042C10D10BE028A001F07CFC0BE029A00E
:1041D00001F078FC07E02AA001F074FC03E02BA0BA
:1041E00001F070FC00BF00BF00201D49088070BDB9
:1041F0000146086870470160704700008000002099
:104200007573616D727400000D0A2573280000003B
:104210002563000025730000256C75003058255873
:10422000000000002C000000290000003D256C75F6
:104230003B0D0A003D305825583B0D0A0000000098
:1042400046756E6374696F6E2052756E2054696D89
:10425000653A25642E2531646D730D0A0000000057
:104260007401002096090020BAAFCAFDB4EDCEF368
:10427000210D0A00B2CECAFDB4EDCEF3210D0A0025
:10428000B2CECAFDCCABB6E0210D0A00CEB4D5D279
:10429000B5BDC6A5C5E4B5C4BAAFCAFD210D0A00B7
:1042A00008B501210420FCF735FD01210846FCF783
:1042B00031FD01218803FCF72DFD4FF40070ADF8AE
:1042C000000018208DF8030003208DF802006946D5
:1042D000A448FCF7DDF94FF48060ADF8000004203D
:1042E0008DF8030069469F48FCF7D2F901210820A8
:1042F000FCF710FD01218804FCF719FD0121084697
:10430000FCF708FD4FF48060ADF8000018208DF830
:10431000030003208DF8020069469348FCF7B8F9C2
:104320004FF40060ADF8000004208DF803006946EA
:104330008D48FCF7ADF908BD1FB54FF4E130009092
:104340000020ADF80400ADF80600ADF80800ADF8A7
:104350000C000C20ADF80A0069468448FDF733FDD7
:10436000012240F225518148FDF7C5FD01217F481A
:10437000FDF7B5FD40217D48FDF799FE4FF4E13092
:1043800000900020ADF80400ADF80600ADF808007C
:10439000ADF80C000C20ADF80A0069467448FDF732
:1043A00012FD012240F225517148FDF7A4FD0121C3
:1043B0006F48FDF794FD40216D48FDF778FE1FBD65
:1043C00008B525208DF8000000208DF8010002209E
:1043D0008DF8020001208DF803006846FBF79FFF6F
:1043E00027208DF8000000208DF801008DF80200D4
:1043F00001208DF803006846FBF791FF08BD10B55A
:10440000044621465B48FDF7D7FD00BF802159488F
:10441000FDF740FE0028F9D010BD10B50446214636
:104420005248FDF7C9FD00BF80215048FDF732FE1C
:104430000028F9D010BD10B5044621464C48FDF7C0
:10444000BBFD00BF80214A48FDF724FE0028F9D0BB
:1044500010BD70B50546284601F066F806460024F2
:1044600003E0285DFFF7E7FF641CB442F9DB70BD91
:1044700070B50546284601F057F80646002403E0CB
:10448000285DFFF7BCFF641CB442F9DB70BD70B55A
:104490000546284601F048F80646002403E0285D5A
:1044A000FFF7BBFF641CB442F9DB70BD10B50024FC
:1044B00040F225512D48FDF703FE002839D040F287
:1044C00025512A48FDF726FE2848FDF779FDC4B29C
:1044D0002948008800F4004058BB2748008800F4B1
:1044E000804060B10A2C03D000202349088020E0DE
:1044F0002148008840F400401F49088019E00D2C35
:1045000006D11D48008840F480401B49088010E017
:1045100019480088C0F30D0018490C54164800884B
:10452000401C1549088008460088C72801DD002086
:10453000088010BD10B5FFF7B3FEFFF7FDFEFFF7D3
:104540003FFF10BD70B504460D46E1B20748FDF7C8
:1045500033FD00BF80210548FDF79CFD0028F9D000
:10456000204670BD00080140000C014000380140A9
:1045700000480040004400407401002096090020DB
:1045800070B50446042540F27120604386B245F2BE
:104590005550FCF7CBF92846FCF7CBF93046FCF731
:1045A000CBF9FCF7CCF9FCF7CFF970BD10B5FCF7EF
:1045B000C6F910BD70B50446254695F8280028B107
:1045C000E86A10B1E86A00F058F970BDFFF7EEFF35
:1045D00000BFFAE770B503460C4603E014F8015B30
:1045E00003F8015B1500A2F10102F7D170BD30B5EF
:1045F000034601E003F8011B1400A2F10102F9D106
:1046000030BD10B504467A4951F824104A00794962
:1046100051F824000021FFF7EAFF774951F82420E0
:104620007449083951F824000021FFF7E0FF012107
:1046300070480830015510BD10B501460023002216
:1046400007E06C4850F8210030F8120000B15B1C04
:10465000521C674850F821009042F2D86420584319
:10466000634C54F82140B0FBF4F0C0B210BD2DE90A
:10467000F04704460F460025A9465E480830005D15
:1046800020B95C4810380168204688471FB94FF0B0
:10469000FF30BDE8F087594850F82400B7FBF0F62A
:1046A000564850F82400B7FBF0F100FB117000B140
:1046B000761C4F4850F82400451E20E04D4850F825
:1046C000240030F8150010B909F1010901E04FF09C
:1046D0000009B14512D14FF0000808E0454850F8F4
:1046E000240005EB080220F8126008F10108B0452B
:1046F000F4D3424850F824006843CAE76D1E002DE9
:10470000DCDA4FF0FF30C4E72DE9F04104460E46F5
:1047100038480830005D38B93648103801682046FE
:1047200088470120BDE8F081334850F82400B042AA
:1047300017D9324850F82400B6FBF0F12D4850F854
:10474000240030F81120002507E00023294850F804
:1047500024004F1920F817306D1C9542F5DB00201E
:10476000E0E70220DEE770B505460C4604B970BDEF
:104770002048083850F82500261A31462846FFF709
:10478000C3FF00BFF3E770B504460E46314620462E
:10479000FFF76DFF0546681C08B9002070BD15487D
:1047A000083850F824002844F8E72DE9F041044681
:1047B0000F46164631462046FFF759FF0546681C4E
:1047C00010B90020BDE8F0810A49083951F82410D9
:1047D000481932463946FFF7FDFE39462046FFF7B5
:1047E000C2FF0448083850F824002844EAE70000D3
:1047F000F8630008A80100200864000800640008AD
:104800002DE9F04106460F461546002418210020E8
:10481000FFF7B9FF0446D4B129460020FFF7B3FFE4
:104820006060606848B921460020FFF79CFF0024C3
:104830003F4940A001F046F90DE02A46394660683C
:1048400000F04EFE256026720120607203E03849B8
:1048500040A001F037F92046BDE8F08170B504466C
:104860000D464DB144B10120A072E56005F134015F
:1048700004F11000FEF7E9FA70BD2DE9F04104469D
:104880000027002500260CB9BDE8F081E068456BE3
:104890002E6815E0A5F11007A7420FD12846FEF7B4
:1048A000E7FA606850B12068002807DD00206168E1
:1048B000FFF759FF21460020FFF755FF35462E68C8
:1048C000E0683430A842E5D100BFDDE72DE9F041D2
:1048D00005460026002400276C6B27680FE0A4F132
:1048E0001006706830B13068002803DD0020716860
:1048F000FFF739FF2046FEF7BBFA3C46276805F173
:1049000034008442EBD1BDE8F08110B501460020AF
:10491000002200234A6B136804E0A2F11000022475
:10492000847203E001F13404A242F6D100BF10BD4D
:104930001064000825733A206D616C6C6F63206D04
:104940006573736167652D3E64617461206661699A
:104950006C0D0A0025733A206D616C6C6F63206DDD
:10496000657373616765206661696C0D0A000000FC
:1049700010B50446012C07D100202A4908701021E7
:104980002948FBF734FF00E000BF00BF10BD08B5A9
:1049900001210420FCF7BEF903208DF8020010204D
:1049A0008DF8030003208DF802001020ADF8000000
:1049B00069461D48FBF76CFE0120FFF7D9FF08BDD3
:1049C00010B50446012C06D116490870102116486E
:1049D000FBF70BFF00E000BF00BF10BD014601293F
:1049E00002D110480078704700BF00BF00BFFAE74F
:1049F00070B50446254695F8280028B1E86A10B13C
:104A0000E86AFFF73AFF70BD0120FFF7E7FF18B132
:104A10000120FFF7ADFF02E00120FFF7D1FF00BF4B
:104A2000F1E70000B40100200008014010B50120AA
:104A3000FFF7D4FF18B10120FFF79AFF02E0012031
:104A4000FFF7BEFF554956A001F03CF810BD38B540
:104A500005462C4694F8280078B1E06A60B1E06A17
:104A6000007A0090E06A5049D0E900324FA001F08E
:104A700029F8E06AFFF701FF38BD55480068401C7F
:104A80005349086000BF0020086000BFF4E72DE92B
:104A9000F04105460C46204600F046FD07463A46E2
:104AA00021462846FFF7ACFE06464A4801683046D4
:104AB000FFF7D4FEBDE8F08130B585B046A001F027
:104AC00001F8FCF759F80446042C03D147A000F084
:104AD000F9FF09E01CB94BA000F0F4FF04E0082C3A
:104AE00002D14EA000F0EEFF6846FCF7A6F851494F
:104AF0000098B0FBF1F529464FA000F0E3FF4D49C7
:104B00000198B0FBF1F5294650A000F0DBFF4949C0
:104B10000298B0FBF1F5294652A000F0D3FF4549B9
:104B20000398B0FBF1F5294654A000F0CBFF4149B2
:104B30000498B0FBF1F5294656A000F0C3FF05B07C
:104B400030BD70B504460D465B48226A5B49036878
:104B50005BA000F0B7FF70BD1FB503A860A1564A67
:104B6000AFF22103CDE9002102900222142141F28B
:104B7000883000F022F904469DF80C0040B95B49EA
:104B80005BA000F09FFF03A9204600F0EBF903E0D3
:104B9000564960A000F096FF1FBD00001D6400088C
:104BA00025730D0A000000002964000825733A20CF
:104BB0006D73672D3E646174613D25732C207369AC
:104BC0007A653D25642C20636D643D25640D0A00E3
:104BD000C0010020BC01002053797374656D2073FF
:104BE000746172742E2E2E0D0A0000005359534327
:104BF0004C4B536F75726365206973204853450DA4
:104C00000A000000535953434C4B536F7572636550
:104C1000206973204853490D0A000000535953433B
:104C20004C4B536F7572636520697320504C210D96
:104C30000A00000040420F0053595320636C6F6319
:104C40006B203D25644D487A200D0A0048434C4BAB
:104C500020636C6F636B203D25644D487A200D0AFC
:104C60000000000050434C4B3120636C6F636B209D
:104C70003D25644D487A200D0A00000050434C4BFE
:104C8000325F636C6F636B203D25644D487A200D65
:104C90000A00000053414443434C4B5F4672657128
:104CA00075656E6379636C6F636B203D25644D4859
:104CB0007A200D0A00000000280000203C64000853
:104CC00025733A202573202D53797374656D5469CB
:104CD0006D65436F756E743D25640D0A000000001C
:104CE0006F7354696D657254657374005364000882
:104CF00025737C20637265617465206F7354696DE0
:104D000065725465737420736375656573730D0AFA
:104D10000000000025737C20637265617465206F5C
:104D20007354696D657254657374206661696C0DA6
:104D30000A00000038B504462046FDF72EFCF0B10D
:104D4000012269462046FDF731FC012817D10C48A5
:104D5000006880B10B4800789DF8001088420AD0A6
:104D6000012269466320FFF74BFD054604480168B0
:104D70002846FFF773FD9DF800000249087038BD12
:104D8000D8010020C4010020FB48006808B90020B9
:104D90007047F9480168F84AC86810600020C86088
:104DA0000861F6480088401CF44A1080F4480088E6
:104DB000401EF34A10800846EAE72DE9F05F0646F8
:104DC0000F4690469946DDE90AAB0C9DB8F1010FFC
:104DD00009D0B8F1020F0CD127B983202870002028
:104DE000BDE8F09F09E01EB9822028700020F7E797
:104DF00003E0842028700020F2E700BFFFF7C4FF23
:104E000004461CB9862028700020E9E7012084F8B8
:104E10002500A661E76184F82480C4F80490C4F8F2
:104E200008A0C4F820B0002028702046D8E7002150
:104E300080F8251080F82410C161416141608160D3
:104E4000D0A1016200210161CB490968C160CA4952
:104E50000860CA490988491EC84A1180C84909889A
:104E6000491CC74A1180704730B5057D05F007041D
:104E7000C54D05EBC4031D68854205D1C1681960A5
:104E800039B100250D6104E00169C268CA6002B150
:104E90001161012580F825500025C56005619D88B8
:104EA0006D1E9D8030BD70B505460C46287864287F
:104EB00003D089202070002070BD95F82500B8B17E
:104EC00001280DD002280CD0032815D12846FFF761
:104ED000CBFF2846FFF7ABFF002020700120EBE757
:104EE00000BF2846FFF7A3FF002020700120E3E762
:104EF000872020700020DFE78D2020700020DBE776
:104F000070B50B46032580F82550012B05D19F4E27
:104F1000C5693668354445610CE085692DB99B4EFD
:104F2000C56936683544456104E0984E8569366840
:104F300035444561057D05F00704934D05EBC4013B
:104F40000D682DB908600025C56001258D8006E03B
:104F50000A680860C26010618D886D1C8D80002514
:104F6000056170BD70B505460C461CB98A202070DD
:104F7000002070BD1DB98A2020700020F9E7287834
:104F8000642803D0892020700020F2E795F82500DE
:104F9000C8B101280ED002280DD0032817D1284609
:104FA000FFF762FF00212846FFF7AAFF00202070CC
:104FB0000120DEE700BF00212846FFF7A1FF002007
:104FC00020700120D5E7872020700020D1E78D20B8
:104FD00020700020CDE72DE9F04105460F469046B0
:104FE0001C4625B98A2020700020BDE8F081287871
:104FF000642803D0892020700020F6E795F825006A
:1050000070B3012828D0022825D003282CD12846A7
:10501000FFF72AFF00202070B7B1032F02D0042F22
:1050200013D108E06E681EB12846A968B04701E0B8
:105030008F2020700CE06E681EB141462846B047B4
:1050400001E08F20207003E002E08420207000BF88
:1050500000BF0120C9E700BF8E2020700120C4E7F7
:10506000872020700020C0E78D2020700020BCE742
:1050700010B5024619B98A200870002010BD1AB96F
:105080008A2008700020F9E71078642803D089206E
:1050900008700020F2E792F8250030B301280BD009
:1050A00002281FD0032824D1384C50692468031BE0
:1050B000002008701846E1E792F8240001280AD081
:1050C000022807D1906908B9D36900E093690020EC
:1050D000087004E000BF93690020087000BF00BFA3
:1050E0001846CBE700200870C8E78720087000202A
:1050F000C4E78D2008700020C0E72DE9F0414FF48F
:105100002071234800F005FA40211F4800F001FA01
:10511000002514E0681C86B205EB85001C4901EBF4
:10512000C00406EB860001EBC0076420207000205D
:1051300084F82500E76013A02062681C85B20F2D5B
:10514000E8D305EB8500124901EBC0046420207010
:10515000002084F82500E0600AA0206200200B49AE
:10516000086006490880102005490880084802495F
:105170000860BDE8F0810000C8010020CE010020D9
:10518000CC0100203F00000060370020D00100204B
:10519000E03400202DE9F0471E48D0F800901E486A
:1051A0000068A9EB000A1C48C0F800902AE01B48E0
:1051B0000068401C194908600846007800F007089C
:1051C000174800EBC8073C681AE0E66813496069B5
:1051D0000968884213D12046FFF746FE94F8240060
:1051E000022804D101212046FFF78AFE02E00220B6
:1051F00084F82500656815B12046A168A8473446A3
:10520000002CE2D15FEA0A00AAF1010ACFD1BDE881
:10521000F087000034000020D4010020D0010020DD
:1052200060370020A34A0A400243A34B1A6070472C
:105230000146072323EA010212029F4B1B1D186837
:105240004FF6FF0318409D4B184310439A4B1B1D0C
:10525000186070472DE9F0410746884614461D4600
:105260002846FFF7E5FFC5F1040007FA00F60F2016
:10527000284100EA0800064306F00F06E21704EB97
:10528000D2625211920002F1E022D2F800212146AE
:10529000E31704EBD3635B11A4EB431C012303FA74
:1052A0000CF31A432046E31704EBD3635B119B0016
:1052B00003F1E023C3F800218148005D40EA0610B5
:1052C0007F490855BDE8F08170B504460B46CE17FE
:1052D00001EB9676C6F38700CE1701EB9676B610F3
:1052E000A1EB8606B606350E764B9B6943F00103AB
:1052F000744EB3614FEAB63353F820300F26AE40F8
:10530000B343714E46F82030334653F8203004FA48
:1053100005F61E436C4B43F820606C4B1B6801265E
:105320008E403343694E336002F0010343B1674B53
:105330000C331B6801268E403343644E0C363360B9
:1053400002F0020343B1614B08331E6801238B4016
:105350001E435E4B08331E6070BD00B500205949E6
:105360000861C8601420486100208861C86108464F
:10537000006840F001000860084640685449084051
:105380005049486008460068524908404D49086045
:105390000846006820F4802008600846406820F431
:1053A000FE0048600020886000214FF00060FFF799
:1053B00039FF00BD10B540480830006840F00400D7
:1053C0003D49083108603F48C06940F080503D4980
:1053D000C8614148406840F480703F4948600846D1
:1053E000006840F0040008600846006840F00200D1
:1053F0000860FAF787FE10BD3048001D2E49091DD0
:1054000008607047014649062E4A926942F001023F
:105410002C4B9A612C4A083A526822F0E0622A4BDF
:10542000083B5A601A4652680A435A60704730B5C2
:1054300004460025FFF791FF2248006840F48030C1
:105440002049086000BF1F480068400C0028FAD0BF
:105450004FF480601B494860A01EC4B208464068F3
:1054600040EA844048600846406840F48030486024
:105470001A48006840F03200184908601148006876
:1054800040F080700F49086000BF0E480068400E71
:105490000028FAD00B48406840F0020009494860F3
:1054A00005E008484068C0F3870505F00305022DB4
:1054B000F7D130BD80FFFF1F08ED00E00000FA05C6
:1054C00000E400E000100240080001400004014038
:1054D0000000FFF8FFFFF6FE0070004000200240D1
:1054E00040EA01039B0703D009E008C9121F08C066
:1054F000042AFAD203E011F8013B00F8013B521EE6
:10550000F9D27047D2B201E000F8012B491EFBD25C
:1055100070470022F6E710B513460A4604461946BE
:10552000FFF7F0FF204610BD421C10F8011B0029B8
:10553000FBD1801A70472DE9FE4F804681EA0300B7
:10554000C00F0C46009021F0004123F00045B8EB5D
:105550000200A94105D24046214690461C460B4612
:10556000024623F00040104347D0270DC7F30A003E
:10557000C3F30A510290401A019040286BDAC3F33A
:10558000130040F4801B0098924620B10023D2EB18
:10559000030A63EB0B0B01985946C0F140025046D9
:1055A00000F0ADF906460D4650465946019A00F006
:1055B000C5F910EB08006141002487EA115284EA22
:1055C000E7731A4340D0009A62B3019A012A4FEA66
:1055D000075215DC001B61EB02014FF0004202EAAA
:1055E0000752CDE90042001C41F5801132462B469E
:1055F00000F0C3F903B0BDE8F08F40462146F9E75B
:10560000001B61EB0201001C41F5801300185B4197
:105610002018A2F5001747EB030140EAD570B61930
:105620006D4111E06D084FEA360645EAC0754FEA54
:105630000752001B61EB0201001C41F58011490873
:105640004FEA30000019514132462B4603B0BDE805
:10565000F04F00F085B90098012240000023D0EB04
:10566000020263EBE073009821464FEAE074B8EB66
:10567000000061EB0401E9E783F000435BE781F0A0
:10568000004158E72DE9FE4F81EA030404F000448D
:1056900021F0004100944FF0000B23F0004350EA4A
:1056A00001045ED052EA03045BD0C3F30A54C1F391
:1056B0000A552C44A4F2F3340194A0FB0254C1F324
:1056C000130141F48011C3F3130343F4801301FB6E
:1056D000024400FB034E840A970A44EA815447EAD5
:1056E0008357A4FB076802958D0A05FB07854FEADF
:1056F000932C04FB0C542705029D4FEA065847EAF9
:105700001637B5EB08056EEB070C870E920E47EACD
:10571000811742EA8312A7FB0201B6EB0B0164EB8F
:1057200000042B0D43EA0C335E1844EB1C50DA46A0
:105730005146E7FB0201C5F313044FEA0B3343EA7A
:1057400014534FEA0432019C43EA0603A4F10C040B
:105750000294009CCDE900B400F00FF903B0BDE85D
:10576000F08F00200146F9E72DE9F04D81EA0304AE
:1057700004F0004B21F0004514464FF0000A23F0DE
:10578000004150EA050220D054EA01021DD0C5F3C1
:105790000A570246C5F31303C1F31300C1F30A56B7
:1057A00040F4801543F48013A7EB0608101BD6467F
:1057B00008F2FD3873EB050002D308F1010801E09F
:1057C00092185B41B8F1000F03DA00200146BDE8F2
:1057D000F08D00204FF48011064684460EE0171B22
:1057E00073EB050705D3121B63EB050306434CEA75
:1057F000010C49084FEA300092185B4150EA01075A
:10580000EDD152EA030012D082EA040083EA0501D6
:10581000084305D0101BAB4106D20122002306E04D
:1058200000224FF0004302E06FF0010253101AEB28
:1058300006004CEB085110EB0A0041EB0B01BDE8F0
:10584000F04D00F08DB8000030B5002904DB4FF0BA
:105850000044404264EB0101002B04DB4FF00044A4
:10586000524264EB0303994208BF904230BD0000EE
:1058700030B50B46014600202022012409E021FA20
:1058800002F59D4205D303FA02F5491B04FA02F51D
:105890002844151EA2F10102F1DC30BD2DE9F05FB4
:1058A0000546002092469B4688460646814640248F
:1058B0001BE0284641464746224600F02FF8534653
:1058C0005A46C01A914110D311461846224600F09C
:1058D00016F82D1A67EB01084F46224601200021D9
:1058E00000F00DF817EB00094E41201EA4F1010451
:1058F000DFDC484631462A464346BDE8F09F202A71
:1059000004DB203A00FA02F1002070479140C2F116
:10591000200320FA03F3194390407047202A04DB48
:10592000203A21FA02F00021704721FA02F3D04018
:10593000C2F120029140084319467047202A06DB35
:10594000CB17203A41FA02F043EAE07306E041FA4D
:1059500002F3D040C2F1200291400843194670473B
:1059600010B5002B08DA401C41F1000192185B4190
:105970001A4301D120F0010010BD2DE9F04D9246EF
:105980009B4611B1B1FA81F202E0B0FA80F2203206
:105990009046FFF7B4FF04460F4640EA0A0041EA8A
:1059A0000B0153465A46084313D0114653EA0100EF
:1059B00019D0C8F140025046FFF7B0FF05460E4629
:1059C000504659464246FFF79AFF084305D001204A
:1059D00004E020463946BDE8F08D0020054346EA44
:1059E000E0762C4337430A986305E40AA0EB0800ED
:1059F0000022FD0A44EA47540A3002D5002001463D
:105A0000E9E7010510196941DDE908450019694117
:105A1000BDE8F04DA4E7C1F30A52C1F3130140F20F
:105A2000FF3341F480119A4202DA002001467047A8
:105A300040F233439A42A2F2334202DC5242FFF771
:105A40006DBFFFF75CBF0000064C074D06E0E06845
:105A500040F0010394E8070098471034AC42F6D3B5
:105A6000FAF748FBCC650008EC65000870B58C18A7
:105A700010F8015B15F0070301D110F8013B2A1162
:105A800006D110F8012B03E010F8016B01F8016B4F
:105A90005B1EF9D12B0705D40023521E0DD401F84B
:105AA000013BFAE710F8013BCB1A921C03E013F814
:105AB000015B01F8015B521EF9D5A142D8D3002049
:105AC00070BD00000FB4054B10B503A9044A02983D
:105AD00000F0CAF810BC5DF814FB00004545000852
