:020000040800F2
:10000000004D002029150008650B0008670B00084B
:100010006B0B00086F0B0008730B0008000000005A
:100020000000000000000000000000004501000882
:10003000770B00080000000089010008DB51000870
:100040004315000843150008431500084315000830
:100050004315000843150008431500084315000820
:100060004315000843150008431500084315000810
:100070004315000843150008431500084315000800
:1000800043150008431500084315000843150008F0
:1000900043150008431500084315000843150008E0
:1000A000431500089D0F000843150008431500087C
:1000B0000B10000879100008F31000084315000821
:1000C00043150008431500084315000843150008B0
:1000D00043150008BB0E000843150008E10E000898
:1000E0004315000843150008431500084315000890
:1000F0004315000843150008431500084315000880
:10010000431500084315000843150008431500086F
:10011000431500084315000843150008431500085F
:10012000431500084315000843150008431500084F
:10013000DFF80CD005F01AFD00480047FF04000866
:10014000004D0020224B19680868B0E8F00F80F3DA
:100150000988BFF36F8F4FF0000080F311884EF0D5
:100160000D0E70470000000006480068006880F32C
:10017000088862B661B6BFF34F8FBFF36F8F00DFA1
:1001800000BF00BF08ED00E0EFF30980BFF36F8F01
:100190000F4B1A6820E9F00F106008B54FF0BF0050
:1001A00080F31188BFF34F8FBFF36F8F03F028FFE9
:1001B0004FF0000080F31188BDE808401968086816
:1001C000B0E8F00F80F30988BFF36F8F704700BF6E
:1001D00068000020EFF30580704700000146062903
:1001E00010D2DFE801F0030507090B0DF4A07047FA
:1001F000F5A0FCE7F6A0FAE7F7A0F8E7F8A0F6E725
:10020000F9A0F4E7FAA0F2E72DE9F0438BB0054638
:1002100000240020287004F0BDF80A903CB92C227C
:100220000A9800FB02F1002005F0EDF804460020DA
:1002300005F03EF807463A462146EFA005F0DAFC05
:10024000002C7CD008AA20460A9904F04BF90A90A9
:1002500064210898B0FBF1F00890089800286FD04E
:10026000002009909CE0099800EB400101EBC000E0
:1002700004EB800080690899B0FBF1F6002E43D0B2
:10028000099901EB410202EBC10104EB8101486ACB
:1002900005F090FA07468846099901EB410202EB06
:1002A000C10104EB8101087BFFF798FF81460998A3
:1002B00000EB400101EBC00004EB8000806909996C
:1002C00001EB410202EBC10104EB8101896A89085B
:1002D000CDE90278CDE905060491099800EB4001CB
:1002E00001EBC00004EB800000690090099800EB6E
:1002F000400101EBC00004EB80004B46CAA14268FC
:10030000284605F087FC44E0099901EB410202EB25
:10031000C10104EB8101486A05F04CFA07468846A2
:10032000099901EB410202EBC10104EB8101087B59
:10033000FFF754FF8146099800EB400101E038E0E7
:1003400033E001EBC00004EB80008069099901EB08
:10035000410202EBC10104EB8101896A8908CDE900
:100360000278CDE90410099800EB400101EBC000D0
:1003700004EB800000690090099800EB400101EB5C
:10038000C00004EB80004B46B0A14268284605F04F
:1003900041FC284605F0A4F805440998401C099042
:1003A000DDE909018842FFF45EAF2146002005F037
:1003B00016F80BB0BDE8F0832DE9F041074603F0D5
:1003C000E9FF05465A2005FB00F1002005F01BF867
:1003D0000446A749A7A005F00DFC9CB12046FFF7F5
:1003E00013FF2146AAA005F005FC2146002004F0D9
:1003F000F6FF002004F05CFF06463146ABA005F096
:10040000F9FB02E0AFA005F0F5FBBDE8F08108B50F
:1004100000BFB449B4A005F0EDFB03F0B4FF0090B9
:1004200010E041F27071684603F0D7FC02F0CAFD9B
:10043000064605F0BFF9044622460B46A949ADA081
:1004400005F0D8FBEDE7F0B58FB0B3480068401C6D
:10045000B1490860084600680321B0FBF1F201FBD6
:100460001200AD490968AC4A126801FB020703F0AB
:100470008AFF054642F23410B5FBF0F100FB115043
:1004800028B9A64802682946A5A005F0B3FBA248F2
:1004900000684FF4A051B0FBF1F201FB1200461CC2
:1004A0003146002004F0AFFF04467CB99A4800684A
:1004B0004FF4A051B0FBF1F201FB1200461C324692
:1004C000A549A6A005F096FB00BFFEE72146002047
:1004D00004F085FF90480068A849B0FBF1F201FBE9
:1004E000120050B98C489C4AA5A10368684605F0E3
:1004F00091FB6946A4A005F07DFB0FB0F0BD7CB573
:100500004FF4A06001F022F84FF4B461042000F031
:1005100087FD00F0F6FC9E4805F06CFB9DA005F001
:1005200069FBA248012100238022CDE90010A0A18F
:10053000AFF2251003F066FA0446012C03D19EA009
:1005400005F058FB02E0A4A005F054FB00200221B6
:1005500003468022CDE90010A6A1A74803F052FA75
:100560000446012C03D1A5A005F044FB02E0ACA099
:1005700005F040FB0020032103468022CDE9001056
:10058000AFA1B04803F03EFA0446012C03D1AEA05F
:1005900005F030FB02E0B7A005F02CFBAFF2E7104E
:1005A000BDA3012243F660310090BCA004F059FDC8
:1005B000BC4908600846006800B175E185E10000AB
:1005C00052756E6E696E6700526561647900000055
:1005D000426C6F636B00000053757370656E64004E
:1005E00044656C6574650000496E76616C696400F1
:1005F000556E6B6E6F77000070785461736B537437
:100600006174757341727261793D25702C20786D2B
:10061000656D5F757365645F706563656E743D25B8
:100620006425250D0A0000005B2573092573092543
:1006300030316409252E30316625250925640925C8
:100640006C7509256C7525255D0D0A005B25730900
:100650002573092530316409252E30316625250999
:10066000256409256C75093C203125255D0D0A009E
:10067000F864000824242424242424242424257316
:10068000242424242424242424240D0A00000000EB
:1006900053797374656D205461736B20496E666F76
:1006A0006D6174696F6E3A0D0A257300786D656D22
:1006B0005F757365645F706563656E743D25642561
:1006C000250D0A00786D616C6C6F63207063577242
:1006D000697465427566666572206661696C210D94
:1006E0000A0000000465000825732020656E74650B
:1006F000720D0A00257320686561705F31204672B3
:1007000065654865617050657263656E743D256608
:1007100025250D0A000000002000002040000020D8
:100720004F4F4F4F4F4F4F4F4F4F4F4F4F4F4F4FD9
:100730004F4F4F4F4F4F4F4F4F4F4F4F20746963A5
:100740006B20636F756E74203D20256C642C2074C3
:10075000333D256C640D0A000F65000825733A20AF
:10076000786D616C6C6F63202564206279746573A9
:10077000206661696C210D0A0000000080841E0063
:1007800025733A256C64000025730D0A00000000F3
:100790008C6500080D0A4672656552544F532073EC
:1007A000746172742E2E2E0D0A0000001C000020B1
:1007B000665461736B00000078466972737454610B
:1007C000736B206372656174652020737563636564
:1007D00073732E2E2E0D0A0078466972737454615D
:1007E000736B20637265617465206661696C2E0DA0
:1007F0000A0000006C656400991100086C65645F74
:10080000666C6173685F7461736B20637265617499
:10081000652020737563636573732E2E2E0D0A0099
:100820006C65645F666C6173685F7461736B206391
:100830007265617465206661696C2E0D0A000000A6
:100840006B6579007B1400086B65796576656E745D
:100850005F6465746563745F7461736B2063726554
:100860006174652020737563636573732E2E2E0D7E
:100870000A0000006B65796576656E745F64657467
:100880006563745F7461736B206372656174652066
:100890006661696C2E0D0A006868000074696D65F8
:1008A000723000000000002054A005F0A3F903F00E
:1008B0006AFD054644F6206000232A460121009087
:1008C0005748006804F030FA02E056A005F092F9AB
:1008D00003F01EFD00207CBD08B50546009500BF55
:1008E0001421009890FBF1F00099081A4FF47A71E6
:1008F00000FB01F6304603F0A5FA00231A466946CC
:100900004E48006802F0CAFC0446012C03D04CA0FB
:1009100005F070F9E4E7524952A0009A05F06AF92F
:10092000DEE708B500BF00BF4448006802F02AFFB8
:1009300010B151A005F05EF900235A1E69463F48E8
:10094000006802F004FE0446012C04D152A0009974
:1009500005F050F9E8E755A005F04CF9E4E71BE095
:100960005B480068401C5A49086000235A1E19461B
:100970005848006802F0EBFD5548016856A005F0A4
:1009800039F94FF47A7003F05DFA00231A461946DC
:100990005048006802F082FCE2E700BF00BF5948FF
:1009A0000068401C5749086000235A1E19464948F0
:1009B000006802F0CCFD5348016853A005F01AF915
:1009C0004FF47A7003F03EFA00231A461946414864
:1009D000006802F063FCC82003F034FADFE710B5CA
:1009E0009AB00446534A54A101A805F013F901AA8C
:1009F000504953A005F0FEF81AB010BD7854696D47
:100A000065724372656174652074696D657230202A
:100A1000737563636573732E2E2E0D0A000000003C
:100A2000000000207854696D6572437265617465D9
:100A3000206661696C2E2E2E0D0A00000C0000202D
:100A4000436F756C64206E6F742073656E642074E0
:100A50006F207468652071756575652E0D0A00003C
:100A600024650008257320256C642073656E64205E
:100A70006F6B0D0A00000000517565756520736885
:100A80006F756C642068617665206265656E2065AF
:100A90006D707479210D0A0052656365697665642D
:100AA000203D20256C640D0A00000000436F756C2A
:100AB00064206E6F74207265636569766520667266
:100AC0006F6D207468652071756575652E0D0A005F
:100AD00024000020180000205461736B32207853EA
:100AE00065616D6170686F72654D757465782077AA
:100AF000616B65207570202C2069203D2025640DD8
:100B00000A000000280000205461736B31207853E4
:100B100065616D6170686F72654D75746578207779
:100B2000616B65207570202C2069203D2025640DA7
:100B30000A00000030650008202573200000000036
:100B40002A2A2A2A2A2A2A2A2A2A2A2A2A2A2A2A05
:100B500025732A2A2A2A2A2A2A2A2A2A2A2A2A0DCE
:100B60000A000000704700BFFEE700BFFEE700BFBD
:100B7000FEE700BFFEE770470CB500200190009033
:100B80006C48006840F480306A49086000BF6948DA
:100B9000006800F4003000900198401C019000981B
:100BA00018B90198B0F5A06FF1D16248006800F45F
:100BB000003010B10120009001E00020009000986A
:100BC000012843D15C48006840F010005A49086091
:100BD0000846006820F0030008600846006840F0FE
:100BE000020008605348406852494860084640681F
:100BF00048600846406840F48060486008464068A5
:100C000020F47C1048600846406840F4E8104860D2
:100C10000846006840F08070086000BF45480068E2
:100C200000F000700028F9D04248406820F003002E
:100C3000404948600846406840F00200486000BFF4
:100C40003C48406800F00C000828F9D10CBD10B5F4
:100C5000FFF792FF10BD10B53648006840F0010064
:100C600034490860084640683449084031494860C2
:100C700008460068324908402E4908600846006866
:100C800020F4802008600846406820F4FE00486098
:100C90004FF41F008860FFF7DAFF4FF0006029492A
:100CA000086010BD10B5002100200022214B5B68B8
:100CB00003F00C0121B1042906D0082928D107E04E
:100CC000214B224C236027E01F4B204C236023E064
:100CD000184B5B6803F47010164B5B6803F48032AA
:100CE000022303EB904022B9194B4343174C236076
:100CF0000DE0104B5B6803F4003323B1144B434306
:100D0000124C236003E0104B4343104C236003E07C
:100D10000D4B0E4C236000BF00BF064B5B68C3F356
:100D200003130C4CE15C094B1B68CB40074C236060
:100D300010BD000000100240002002400000FFF83B
:100D4000FFFFF6FE08ED00E000127A002C00002004
:100D500000093D003000002008B50121042000F00A
:100D60007FFF0121084600F07BFF0121880300F08E
:100D700077FF4FF40070ADF8000018208DF80300E5
:100D800003208DF8020069466A4800F0ADFC4FF47C
:100D90008060ADF8000004208DF8030069466548C6
:100DA00000F0A2FC08BD1FB54FF4E1300090002018
:100DB000ADF80400ADF80600ADF80800ADF80C0081
:100DC0000C20ADF80A0069465B4800F0F0FF0122F4
:100DD00040F22551584801F082F80121564801F0AF
:100DE00072F84021544801F056F91FBD08B525207E
:100DF0008DF8000002208DF8010001208DF802001E
:100E00008DF80300684600F0A6FB08BD10B5044647
:100E100021464A4801F0C4F800BF8021474801F04C
:100E20002DF90028F9D010BD10B5044621464248DE
:100E300001F0B6F800BF80213F4801F01FF90028FB
:100E4000F9D010BD10B5044621463D4801F0A8F880
:100E500000BF80213A4801F011F90028F9D010BDF7
:100E600070B50546284604F03BFB0646002403E027
:100E7000285DFFF7E7FF641CB442F9DB70BD70B575
:100E80000546284604F02CFB0646002403E0285DB6
:100E9000FFF7BCFF641CB442F9DB70BD70B50546BA
:100EA000284604F01DFB0646002403E0285DFFF7FA
:100EB000BBFF641CB442F9DB70BD70B50024002593
:100EC00040F225511C4801F0EFF840B140F22551A5
:100ED000194801F013F9184801F066F8C5B270BD61
:100EE00010B540F22551164801F0DEF840B140F24D
:100EF0002551134801F002F9114801F055F8C4B228
:100F000010BD10B5FFF728FFFFF74DFFFFF76EFF8D
:100F100010BD70B504460D46E1B2074801F040F837
:100F200000BF8021044801F0A9F80028F9D020462C
:100F300070BD00000008014000380140004400403E
:100F4000004800407FB505460C4600208DF80C0097
:100F50000121C80200F084FEADF80850ADF804404D
:100F60000020ADF80600ADF80A0001A9664801F0BE
:100F7000B3F901221146644801F025FD19208DF8CE
:100F8000000001208DF8010003208DF802000120EF
:100F90008DF80300684600F0DEFA7FBD10B5012130
:100FA000594801F0BEFF18B10121574801F0CAFFAE
:100FB00010BD7FB505460C460121084600F05DFED8
:100FC000ADF80850ADF804400020ADF80A00ADF8C7
:100FD000060001A94FF0804001F07EF90122114680
:100FE000900701F0F0FC1C208DF8000001208DF826
:100FF00001008DF802008DF80300684600F0ABFA9E
:101000000121880701F0C4FC7FBD10B501218807CC
:1010100001F087FF18B10121880701F093FF10BD8F
:101020007FB505460C460121022000F026FEADF8F2
:101030000850ADF804400020ADF80A00ADF80600F5
:1010400001A9324801F048F9012211462F4801F068
:10105000BAFC1D208DF8000002208DF8010001204F
:101060008DF802008DF80300684600F074FA012143
:10107000264801F08DFC7FBD10B50121234801F009
:1010800050FF40B10121214801F05CFF2048006879
:10109000401C1F49086010BD7FB505460C46012164
:1010A000042000F0EAFDADF80850ADF8044000203F
:1010B000ADF80A00ADF8060001A9164801F00CF9D8
:1010C00001221146134801F07EFC1E208DF800001D
:1010D00001208DF8010000208DF8020001208DF81C
:1010E0000300684600F037FA01210A4801F050FC7D
:1010F0007FBD10B50121074801F013FF18B1012190
:10110000044801F01FFF10BD002C01400004004006
:10111000400000200008004010B50446012C07D113
:101120000020294908701021284800F08CFB00E0BD
:1011300000BF00BF10BD08B50121042000F090FDE4
:1011400003208DF8020010208DF8030003208DF895
:1011500002001020ADF8000069461C4800F0C4FAF7
:101160000120FFF7D9FF08BD10B50446012C06D1B8
:10117000154908701021154800F063FB00E000BF1E
:1011800000BF10BD0146012902D10F480078704709
:1011900000BF00BF00BFFAE708B5FFF7CCFF03F0C0
:1011A000F2F800900FE00120FFF7ECFF18B10120EA
:1011B000FFF7B2FF02E00120FFF7D6FF41F27071A6
:1011C000684602F00AFEEEE74400002000080140F5
:1011D00070B505460C462189606800F018FB18B907
:1011E000E08A401CE08201E00020E0822189606802
:1011F00000F00DFB18B9207C08B901202074607C38
:1012000078B9207C012804D1A07C401CA074012066
:101210006074A07C022804D10020A074A082022067
:1012200070BD2189606800F0F2FA012802D1002027
:1012300020746074A07C012813D1A08A401CA08275
:10124000A08AA84207DDE08AA84204DA0020A07440
:10125000A0820120E4E7E08AA84202DD0020A07419
:10126000A0820020DCE710B50446608B40B92189DC
:10127000606800F0CCFA18B9208B401C208301E094
:1012800000202083208BB0F5967F05DD0120608350
:1012900000202083012010BD608B012807D1218907
:1012A000606800F0B4FA012801D1002060830020BA
:1012B000F1E770B5002431E0C4EBC400784A02EBDA
:1012C00080013220FFF784FF0546012D08D1C4EBD1
:1012D000C400734A02EB8000C1680120884709E01E
:1012E000022D07D1C4EBC4006D4A02EB8000C16837
:1012F00002208847C4EBC401694A02EB8100FFF772
:10130000B2FF0646012E07D1C4EBC400644A02EBCB
:101310008000C16803208847601CC4B2614800682F
:10132000844206D2C4EBC4005D4911F820000028B5
:10133000C2D170BD70B504460120FFF723FF18B17C
:101340000120FFF7E9FE02E00120FFF70DFF012C6D
:1013500005D10125544955A004F04CFC0EE0022CA7
:1013600005D10225504953A004F044FC06E0032CAB
:1013700004D103254C4951A004F03CFC70BD2DE97B
:10138000F84304460F46904600264E48844204D156
:101390000121042000F064FC31E04B48844204D178
:1013A0000121082000F05CFC29E04848844204D177
:1013B0000121102000F054FC21E04548844204D172
:1013C0000121202000F04CFC19E04248844204D165
:1013D0000121402000F044FC11E03F48844204D148
:1013E0000121802000F03CFC09E03C48844204D10B
:1013F0000121801500F034FC01E0BDE8F8830320F2
:101400008DF8020048208DF80300ADF800706946A1
:10141000204600F069F9234800680A2825D20025F3
:1014200007E0C5EBC5001E4911F8200000B902E035
:101430006D1C0A2DF5D300BF0A2D16D2C5EBC500D1
:10144000174901EB80060120307074603781C6F8BF
:101450000C8014480068401C1249086008462A465F
:101460001F4903681FA004F0C5FB26B91C492AA028
:1014700004F0C0FBC1E700BFBFE708B5AFF24B12F5
:1014800020211048FFF77BFF02F07DFF009005E070
:101490000621684602F0A1FCFFF70BFFF8E7000009
:1014A000E8000020480000203C650008257320313A
:1014B0000D0A0000257320320D0A00002573203329
:1014C0000D0A000000080140000C0140001001401E
:1014D0000014014000180140001C014000200140A0
:1014E0005465000825733A20616464206B65795B5C
:1014F00025645D206465746563742073756363653A
:1015000073732E206B65794576656E74546F7461C4
:101510006C3D25640D0A000025733A204661696C14
:101520002121210D0A000000064880470648004797
:10153000FEE7FEE7FEE7FEE7FEE7FEE7FEE7FEE783
:10154000FEE7FEE7570C000831010008314901436E
:10155000314A1160704770B5002100230F22C47812
:1015600004B32D4C246804F4E064C4F5E064210A5B
:10157000C1F10403CA40447804FA03F184781440AA
:1015800021430901254C0678A155047804F01F0574
:101590000124AC4005786D11AD0005F1E025C5F8DA
:1015A000004109E0047804F01F050124AC401C4D03
:1015B0000678761145F8264070BD1A4A0A40024363
:1015C000154B1B1F1A60704739B1134A121D126860
:1015D0000243114B1B1D1A6006E00F4A121D1268D0
:1015E00082430D4B1B1D1A607047042808D14FF031
:1015F000E021096941F004014FF0E022116107E0A8
:101600004FF0E021096921F004014FF0E02211615F
:10161000704700000000FA050CED00E000E400E077
:1016200080E100E080FFFF1F10B50446CC488442F3
:1016300008D10121042000F02DFB0021042000F03E
:1016400029FB46E0C748844208D10121082000F068
:1016500021FB0021082000F01DFB3AE0C248844233
:1016600008D10121102000F015FB0021102000F00E
:1016700011FB2EE0BD48844208D10121202000F05A
:1016800009FB0021202000F005FB22E0B84884423D
:1016900008D10121402000F0FDFA0021402000F097
:1016A000F9FA16E0B348844208D10121802000F005
:1016B000F1FA0021802000F0EDFA0AE0AE48844201
:1016C00007D10121801500F0E5FA0021A01500F0F6
:1016D000E1FA10BD10B50121084600F0DBFA002147
:1016E000012000F0D7FA10BD2DE9F0410246002597
:1016F0000026002000230024002791F803C00CF0EE
:101700000F0591F803C00CF0100CBCF1000F03D0D2
:1017100091F802C04CEA050591F800C0BCF1000F39
:1017200031D0146800202BE04FF0010C0CFA00F3CC
:10173000B1F800C00CEA03069E4220D183004FF0AE
:101740000F0C0CFA03F7BC4305FA03FC4CEA040443
:1017500091F803C0BCF1280F06D14FF0010C0CFA30
:1017600000FCC2F814C00AE091F803C0BCF1480FB5
:1017700005D14FF0010C0CFA00FCC2F810C0401C5F
:101780000828D1D31460B1F800C0BCF1FF0F34DDDC
:10179000546800202EE000F1080C4FF0010808FA10
:1017A0000CF3B1F800C00CEA03069E4221D183007D
:1017B0004FF00F0C0CFA03F7BC4305FA03FC4CEA9C
:1017C000040491F803C0BCF1280F05D100F1080C06
:1017D00008FA0CF8C2F8148091F803C0BCF1480F65
:1017E00007D100F1080C4FF0010808FA0CF8C2F814
:1017F0001080401C0828CED35460BDE8F0814FF61D
:10180000FF710180022181700421C170704702467E
:10181000002093680B400BB1012000E000207047CE
:101820000146886880B2704702460020D3680B40AA
:101830000BB1012000E0002070470146C86880B26B
:10184000704701617047416170470AB1016100E072
:1018500041617047C16070474FF480320A43826132
:101860008161826182698269704702460020434B30
:1018700018684FF68073184040EA021008433F4B47
:10188000186070473E49C8617047F0B50A460023AA
:1018900000240021002500F00046B6F1004F02D1DF
:1018A000364EF16901E0354E7168C0F3034583B2ED
:1018B00000F44016B6F5401F08D121F070612F4E9C
:1018C000766826F070662D4F7E6012E000F4801678
:1018D000B6F5801F06D1032606FA05F4A14341F0B0
:1018E000706106E0460D360103FA06F6B14341F099
:1018F000706122B1460D360103FA06F6314300F05D
:101900000046B6F1004F02D11C4EF16101E01B4EC2
:101910007160F0BD30B500228B071C0F0F2303FA56
:1019200004F2164B08338C1053F824309343134CB5
:1019300008348D1044F8253023468C1053F8243099
:101940008C07240F00FA04F423430C4C08348D1048
:1019500044F8253030BD0A49DC310860704700008A
:1019600000080140000C014000100140001401403B
:1019700000180140001C014000200140000001400F
:1019800000002042DF48006840F00100DD490860A7
:1019900008464068DC490840DA4948600846006863
:1019A000DA490840D74908600846006820F48020DA
:1019B00008600846406820F4FE0048604FF41F00AD
:1019C00088607047CF49096821F48031CD4A1160A1
:1019D0001146096821F480211160B0F5803F03D0E1
:1019E000B0F5802F0ED106E0C649096841F4803178
:1019F000C44A116007E0C349096841F4A021C14A03
:101A0000116000E000BF00BF704710B50146002222
:101A1000002300204A11012A02D1BA4C236806E0B3
:101A2000022A02D1B74C236A01E0B64C636A01F086
:101A30001F02012494401C400CB1012000E0002052
:101A400010BD38B5002000900024002500BF3120D3
:101A5000FFF7DBFF05460098401C00900098B0F5AA
:101A6000A06F01D0002DF2D03120FFF7CEFF08B1DA
:101A7000012400E00024204638BD01460020A14A90
:101A8000106820F0F80040EAC10010607047A049DB
:101A900008607047024600209A4B586820F47C107A
:101AA00042EA01031843974B58607047984908660B
:101AB000704701460020934A506820F00300084315
:101AC000506070478F48406800F00C007047014636
:101AD00000208C4A506820F0F000084350607047A6
:101AE00001460020874A506820F4E06008435060B7
:101AF000704701460020834A506820F4605040EA55
:101B0000C1005060704729B17E4A527A02437D4B32
:101B10005A7204E07B4A527A82437A4B5A72704777
:101B20007B49D8310860704701460020754A5068EB
:101B300020F440400843506070470021714A203231
:101B40001170704A82F82010012802D004280AD1AE
:101B500004E001216B4A2032117005E00521694A39
:101B60002032117000E000BF00BF70476949086073
:101B700070476449096A0143624A116270476549C6
:101B800044390860704730B500210022002400234A
:101B90005C4D6D6805F00C0121B1042905D00829C0
:101BA00023D105E05C4D056022E05B4D05601FE040
:101BB000544D6D6805F47012524D6D6805F4803413
:101BC000022505EB92421CB9544D554305600BE0CC
:101BD0004C4D6D6805F400351DB1504D5543056001
:101BE00002E04D4D5543056002E04B4D056000BFDE
:101BF00000BF444D6D6805F0F0010909484D6B5C6C
:101C00000568DD4045603F4D6D6805F4E061090AF7
:101C1000434D6B5C4568DD4085603A4D6D6805F469
:101C20006051C90A3E4D6B5C4568DD40C560354D6D
:101C30006D6805F44041890B3A4D6B5CC568B5FB96
:101C4000F3F5056130BD29B12E4A526902432D4B8F
:101C50005A6104E02B4A526982432A4B5A61704709
:101C600029B1284A92690243264B9A6104E0254A29
:101C700092698243234B9A61704729B1214AD26904
:101C80000243204BDA6104E01E4AD26982431D4BB5
:101C9000DA61704729B11B4AD2680243194BDA60F6
:101CA00004E0184AD2688243164BDA60704729B1C3
:101CB000144A12690243134B1A6104E0114A126973
:101CC0008243104B1A6170471249403908607047CF
:101CD0000F49C86470470B49C87170470948406A8A
:101CE00040F0807007494862704701460020054A6D
:101CF00092680A400AB1012000E0002070470149C3
:101D000088727047001002400000FFF8FFFFF6FEE7
:101D1000000042428004424200127A0000093D0065
:101D20004C0000205C00002010B50446FB488442B3
:101D300009D101218803FFF7ADFF00214FF4804056
:101D4000FFF7A8FF32E0F648844209D10121480498
:101D5000FFF7ADFF00214FF40030FFF7A8FF25E0AB
:101D6000F048844209D101218804FFF7A0FF002137
:101D70004FF48020FFF79BFF18E0EB48844209D125
:101D80000121C804FFF793FF00214FF40020FFF763
:101D90008EFF0BE0E548844208D101210805FFF7DA
:101DA00086FF00214FF48010FFF781FF10BD2DE961
:101DB000F04786B005460E460024A24600BFA14665
:101DC0000027B08900B100BF2F462C8A4CF6FF7067
:101DD0000440F08804432C82AC894EF6F310044092
:101DE000B08831890843718908430443AC81AC8AC7
:101DF0004FF6FF400440B0890443AC8201A8FFF7CE
:101E0000C2FEC648874202D1DDF810A001E0DDF82D
:101E10000CA0A88900F4004040B10AEBCA0000EB16
:101E20000A1031684900B0FBF1F807E00AEBCA007C
:101E300000EB0A1031688900B0FBF1F86420B8FBB0
:101E4000F0F004012009642101FB1089A88900F445
:101E5000004040B1322000EBC900B0FBF1F000F0CF
:101E60000700044308E0322000EB09106421B0FBB6
:101E7000F1F000F00F0004432C8106B0BDE8F087BC
:101E80004FF41651016000218180C18001810C2135
:101E9000418100218181704710B502460020108ADF
:101EA0004FF2FF0318400B884C8823438C88234350
:101EB000CC8823431843108210BD0021018041804B
:101EC0008180C180704721B1828942F400528281B1
:101ED00004E082894DF6FF731A4082817047F0B5A5
:101EE0000346002400260025002040F66A17B94268
:101EF00000D100BF1846C1F3421401F01F060127AC
:101F000007FA06F5012C01D10C3004E0022C01D1B6
:101F1000103000E014301AB107682F43076002E068
:101F20000768AF430760F0BD1AB1838A0B43838211
:101F300002E0838A8B4383827047028A4FF6F073F4
:101F40001A400282028A0A430282704782894FF253
:101F5000FF731A40828182890A438281704721B1CE
:101F6000828942F00202828104E082894FF6FD7389
:101F70001A4082817047028A4FF6DF731A4002824C
:101F8000028A0A430282704721B1028A42F48042E7
:101F9000028204E0028A4BF6FF731A400282704705
:101FA000C1F308028280704701468888C0F30800A8
:101FB0007047818941F0010181817047028BD2B263
:101FC0000283028B42EA012202837047028B02F4F1
:101FD0007F420283028B0A430283704721B1828AC7
:101FE00042F02002828204E0828A4FF6DF731A40B8
:101FF0008282704721B1828A42F01002828204E01C
:10200000828A4FF6EF731A408282704721B1828A2A
:1020100042F00802828204E0828A4FF6F7731A4087
:102020008282704721B1828942F40042828103E0BA
:102030008289C2F30E028281704721B1828A42F402
:102040000062828204E0828A4FF2FF731A40828229
:102050007047828A4FF6FB731A408282828A0A4353
:102060008282704721B1828A42F00202828204E0B9
:10207000828A4FF6FD731A40828270470246002022
:10208000B1F5007F00D100BF13880B400BB10120D8
:1020900000E00020704701F40072B2F5007F00D12B
:1020A00000BFCA430280704770B502460024002377
:1020B0000025002040F66A16B14200D100BFC1F3EE
:1020C000421501F01F03012606FA03F3012D02D188
:1020D0009689334006E0022D02D1168A334001E092
:1020E000968A33400C12012606FA04F4168834400E
:1020F00013B10CB1012000E0002070BD10B500222A
:10210000002340F66A14A14200D100BF0A12012444
:102110009440A3B2DC43048010BD000000380140AD
:102120000044004000480040004C00400050004087
:1021300010B50446FE48844208D10121C014FFF7BF
:10214000A9FD0021E014FFF7A5FDC4E0B4F1804F24
:1021500008D101210846FFF7AAFD00210120FFF761
:10216000A6FDB8E0F348844208D101210220FFF720
:102170009EFD00210220FFF79AFDACE0EE4884426C
:1021800008D101210420FFF792FD00210420FFF770
:102190008EFDA0E0E948844208D101210820FFF724
:1021A00086FD00210820FFF782FD94E0E448844288
:1021B00008D101211020FFF77AFD00211020FFF740
:1021C00076FD88E0DF48844208D101212020FFF716
:1021D0006EFD00212020FFF76AFD7CE0DA48844292
:1021E00008D101214014FFF755FD00216014FFF7CD
:1021F00051FD70E0D548844209D10121C804FFF7A0
:1022000049FD00214FF40020FFF744FD63E0D04872
:10221000844209D101210805FFF73CFD00214FF45C
:102220008010FFF737FD56E0CA48844209D10121EA
:102230004805FFF72FFD00214FF40010FFF72AFD9E
:1022400049E0C548844208D101214020FFF72FFD15
:1022500000214020FFF72BFD3DE0C048844208D11B
:1022600001218020FFF723FD00218020FFF71FFDC3
:1022700031E0BB48844208D101218015FFF717FDEA
:102280000021A015FFF713FD25E0B648844209D1CF
:1022900001210804FFF7FEFC00214FF48030FFF716
:1022A000F9FC18E0B048844209D101214804FFF745
:1022B000F1FC00214FF40030FFF7ECFC0BE0AB48E1
:1022C000844208D101218804FFF7E4FC00214FF487
:1022D0008020FFF7DFFC10BD00220288944B98425B
:1022E0000ED0994B98420BD0B0F1804F08D0914B53
:1022F000984205D0904B984202D0904B984204D11E
:102300004FF68F731A404B881A438D4B984207D073
:102310008C4B984204D04FF6FF431A40CB881A43A7
:1023200002808B8883850B880385814B98420BD074
:10233000854B984208D08B4B984205D08A4B9842E7
:1023400002D08A4B984201D10B7A03860123838203
:10235000704770B5002400220023058C4FF6FE76EE
:1023600035400584028C8388048B4FF68F752C4092
:10237000B51E2C400D882C43751E2A400D892A431A
:102380004D882A436A4DA8420BD06F4DA84208D011
:10239000744DA84205D0744DA84202D0734DA84296
:1023A00013D14FF6F7752A404D892A434FF6FB7536
:1023B0002A408D882A434FF6FF652B404FF6FF5584
:1023C0002B408D892B43CD892B4383800483CD887B
:1023D0008586028470BD70B5002400220023058C20
:1023E0004FF6EF7635400584028C8388048B48F6DF
:1023F000FF752C404FF6FF452C400D884FF6FF76B9
:1024000006EA05252C434FF6DF752A400D8906EABA
:1024100005152A434D8806EA05152A43444DA8426E
:1024200002D0494DA8421DD14FF67F752A404D89F3
:102430004FF6FF7606EA05152A434FF6BF752A4088
:102440008D8806EA05152A434FF6FF352B404FF2DB
:10245000FF752B408D8906EA85052B43CD8906EA59
:1024600085052B4383800483CD880587028470BD56
:1024700070B5002400220023058C4FF6FF6635401E
:102480000584028C8388848B4FF68F752C404FF621
:10249000FC752C400D882C434FF6FF552A400D89C2
:1024A0004FF6FF7606EA05252A434D8806EA0525FC
:1024B0002A431F4DA84202D0234DA8421DD14FF2FE
:1024C000FF752A404D894FF6FF7606EA05252A4317
:1024D0004FF6FF352A408D8806EA05252A434EF639
:1024E000FF752B404DF6FF752B408D8906EA0515CB
:1024F0002B43CD8906EA05152B4383808483CD8841
:102500008587028470BD70B5002200230024058CED
:102510004EF6FF7635400584038C8488828B48F61E
:10252000FF752A404FF6FF452A400D8820E0000045
:10253000002C01400004004000080040000C004056
:10254000001000400014004000340140004C0140E5
:10255000005001400054014000180040001C0040A1
:10256000002000400040014000440140004801407C
:102570004FF6FF7606EA05252A434DF6FF752B40F8
:102580000D8906EA05352B434D8806EA05352B43B0
:10259000FA4DA84202D0FA4DA84208D14BF6FF7579
:1025A0002C408D894FF6FF7606EA85152C438480F2
:1025B0008283CD88A0F84050038470BD828B4FF297
:1025C000FF331A408283828B4FF6FF7303EA0123A5
:1025D0001A4382837047F0B50C461546002200214D
:1025E0000026078C4EF6FF7C07EA0C070784828BD7
:1025F000018C4FF6FF7707EA043640F6FF473A4072
:102600004FF6FF7707EA05273A434FF6FF7707EAC9
:1026100003373A43D94FB8420ED0D94FB8420BD006
:10262000B0F1804F08D0D74FB84205D0D64FB8424E
:1026300002D0D64FB84206D14DF6FF77394046F466
:102640008057394305E047F6FF57394044F4805737
:10265000394382830184F0BD828B4FF6F3731A40B5
:102660008283828B0A4382837047F0B50C461546FD
:10267000002200210026078C4FF6FF6C07EA0C07AA
:102680000784828B018C4FF6FF7707EA04264FF60A
:102690000C773A404FF6FF7707EA03172F433A4388
:1026A000B64FB8420ED0B64FB8420BD0B0F1804F03
:1026B00008D0B44FB84205D0B34FB84202D0B34FA0
:1026C000B84206D14FF6FF57394046F48077394378
:1026D00005E04FF2FF57394044F480773943828355
:1026E0000184F0BD028B4FF2FF331A400283028B4C
:1026F0004FF6FF7303EA01231A4302837047F0B5D4
:102700000C461546002200210026078C4FF6EF7C70
:1027100007EA0C070784028B018C4FF6FF7707EA64
:10272000041640F6FF473A404FF6FF7707EA0337B3
:102730003A434FF6FF7707EA05273A438F4FB842EF
:102740000ED08F4FB8420BD0B0F1804F08D08D4FD4
:10275000B84205D08C4FB84202D08C4FB84206D157
:102760004FF6DF77394046F01007394305E04FF662
:102770005F77394044F01007394302830184F0BD8C
:10278000028B4FF6F3731A400283028B0A430283D3
:102790007047F0B50C46154600220021068C4FF616
:1027A000FE773E400684028B018C4FF60C76324059
:1027B0007E1C06EA03162E433243704EB0420ED002
:1027C0006F4EB0420BD0B0F1804F08D06D4EB0428A
:1027D00005D06D4EB04202D06C4EB04206D14FF6DD
:1027E000FD76314044F00106314305E04FF6F576C1
:1027F000314044F00106314302830184F0BD70B5DD
:1028000005460C465D4885420ED05D4885420BD09A
:10281000B5F1804F08D05B48854205D05A488542C3
:1028200002D05A48854200D100E000BF208850B94C
:102830002389A28861882846FFF7ABFFE1882846F4
:10284000FFF79EFF25E0208804280AD12389A2886B
:1028500061882846FFF753FFE1882846FFF742FFCB
:1028600017E0208808280AD12389A2886188284691
:10287000FFF7FBFEE1882846FFF7EEFE09E023891B
:10288000A28861882846FFF7A6FEE1882846FFF760
:1028900095FE70BD2DE9F04105460C460026012746
:1028A000608808B9022600E00026A088012801D12E
:1028B000022700E001272088A0B92389A288618827
:1028C0002846FFF766FFE1882846FFF759FF23896E
:1028D0003A4631462846FFF712FFE1882846FFF7BF
:1028E00001FF13E02389A28861882846FFF707FFCC
:1028F000E1882846FFF7F6FE23893A463146284606
:10290000FFF747FFE1882846FFF73AFFBDE8F0816F
:102910000A884B881A438B881A43CB881A430B8941
:102920001A434B891A438B891A43A0F844207047F5
:102930004FF6FF71818000210180C18041800172CA
:1029400070470021018041808180C18001814181E7
:102950008181C181704700210180418001218180F6
:102960000021C18001817047002101804180818068
:10297000C18001814181818170470000002C0140AC
:10298000003401400004004000080040000C0040FA
:1029900021B1028842F00102028004E002884FF671
:1029A000FE731A400280704731B1B0F8442042F4FF
:1029B0000042A0F8442005E0B0F84420C2F30E0223
:1029C000A0F8442070471AB183890B43838102E049
:1029D00083898B43838170478182704741EA020378
:1029E000A0F8483070471AB183890B43838102E015
:1029F00083898B438381704701894FF6F8721140B8
:102A0000018170470A46002101894FF68F731940F2
:102A100011430181704730B504460D4629462046D2
:102A2000FFF7F0FF208940F00700208130BD2DE93D
:102A3000F04104460D4616461F46602D06D13B4622
:102A4000012231462046FFF75AFE05E03B460122AF
:102A500031462046FFF79DFE29462046FFF7D2FF6C
:102A6000208940F007002081BDE8F08130B50C4698
:102A700000210189C9B24FF6FF7505EA0325154308
:102A800025432943018130BD2DE9F04105460E461D
:102A900017469846002443463A4631462846FFF7F3
:102AA000E5FF2C894FF6F870044044F007044FF618
:102AB0008F70044044F070042C81BDE8F081F0B5C3
:102AC00004460D4616461F463B46324629462046DA
:102AD000FFF7CCFF208940F480402081F0BD0185C4
:102AE000828270470A46002101884FF68F73194091
:102AF000114301807047F0B50C4615461E46002173
:102B0000002200230189028B038C4FF6F8773940AD
:102B100021434FF6FC473A4040F201173A434FF643
:102B2000DD773B404FF6FF7707EA06172F433B431D
:102B3000018102830384F0BD0A460021018B4FF618
:102B40008F7319401143018370470A460021018B9E
:102B500048F6FF7319404FF6FF7303EA0223194347
:102B6000018370470A460021818B4FF68F7319400D
:102B70001143818370470A460021818B48F6FF7319
:102B800019404FF6FF7303EA02231943818370470C
:102B900021B1028842F08002028004E002884FF6F0
:102BA0007F731A400280704721B1828842F004028C
:102BB000828004E082884FF6FB731A40828070475F
:102BC00021B1828842F00802828004E082884FF6B8
:102BD000F7731A408280704721B1828842F0010267
:102BE000828004E082884FF6FE731A40828070472C
:102BF0000A460021018B4FF6F773194011430183F8
:102C000070470A460021018B4FF2FF7319404FF6BF
:102C1000FF7303EA02231943018370470A46002128
:102C2000818B4FF6F77319401143818370470A4631
:102C30000021818B4FF2FF7319404FF6FF7303EAB7
:102C400002231943818370470A460021018B4FF606
:102C5000FB7319401143018370470A460021018B21
:102C60004FF6FF3319404FF6FF7303EA022319436F
:102C7000018370470A460021818B4FF6FB73194090
:102C80001143818370470A460021818B4FF6FF3341
:102C900019404FF6FF7303EA0223194381837047FB
:102CA0000A460021018B4FF67F73194011430183BF
:102CB00070470A460021018BC1F30E014FF6FF73E6
:102CC00003EA02231943018370470A460021818BDE
:102CD0004FF67F7319401143818370470A460021E4
:102CE000818BC1F30E014FF6FF7303EA02231943F0
:102CF000818370470A460021018C4FF6FD7319400D
:102D00001143018470470A460021018C4FF6F77386
:102D100019401143018470470A460021018C4FF687
:102D2000DF7319404FF6FF7303EA0213194301845E
:102D300070470A460021018C4FF67F7319404FF609
:102D4000FF7303EA02131943018470470A46002106
:102D5000018C4FF6FF5319404FF6FF7303EA02232D
:102D60001943018470470A460021018C4FF2FF731A
:102D700019404FF6FF7303EA022319430184704799
:102D80000A460021018C4DF6FF7319404FF6FF7380
:102D900003EA023319430184704730B5002301244C
:102DA0008C40A3B2048C9C430484048C02FA01F589
:102DB000ADB22C43048430BD30B5002304248C40D4
:102DC000A3B2048C9C430484048C02FA01F5ADB2D6
:102DD0002C43048430BD70B50346002000241846FF
:102DE000183001258D40ACB21D8CA5431D8409B15E
:102DF000082909D100EB6100056825F07005056020
:102E00000568154305600EE00D1FC5F34E05284407
:102E1000056825F4E045056005684FF6FF7606EA8B
:102E200002263543056070BD21B1028842F00202DE
:102E3000028004E002884FF6FD731A40028070475A
:102E400021B1028842F00402028004E002884FF6B9
:102E5000FB731A400280704721B1828842F08002E1
:102E6000828004E082884FF67F731A408280704728
:102E700002884FF6F7731A40028002880A430280E4
:102E8000704782884FF68F731A40828082880A4387
:102E90008280704702894FF6F8731A4002810289D6
:102EA0000A430281704702894FF67F731A400281FC
:102EB00002890A4302817047818470478185704787
:102EC000818670470187704781877047A0F840105E
:102ED000704702884FF6FF431A40028002880A4377
:102EE000028070470146888E70470146088F704700
:102EF0000146888F70470146B1F84000704701468F
:102F0000888C70470146088D704702460020138A5E
:102F10000B400BB1012000E000207047CA43028241
:102F2000704730B50246002000230024158A05EAC8
:102F30000103958905EA010413B10CB1012000E0F9
:102F4000002030BDCA4302827047000070B50446BD
:102F5000002504F0070020B104F00700C0F10800CC
:102F6000044400F034FF2648006820B9254820F0CA
:102F700007002349086024480068204442F2F871A1
:102F8000884210D22048006820441F4909688842BE
:102F900009D91B4800681C49096845181A48006887
:102FA00020441949086000F047FE284670BD70476C
:102FB00000201549086070471348006842F2F87114
:102FC000081A70472DE9F0410F49096842F2F8727A
:102FD000501A02F0DDFB07464FF07E5102F087FAEF
:102FE00006460A4902F083FA0546094902F0B1FA99
:102FF00004464FF07E5102F07AFABDE8F0810000FD
:103000006400002008020020600000200000C84288
:1030100000E01F4600F1080141604FF0FF31816080
:1030200000F10801C16001610021016070470021C9
:103030000161704742684A6093688B609368596089
:103040009160086103685B1C0360704710B502461D
:103050000B685C1C0CB9106907E002F1080000E085
:103060004068446824689C42FAD944684C604C68C3
:10307000A160886041600A611468641C146010BD1E
:1030800001460A69D1E901309860D1E9010358602D
:103090005068884201D1886850600020086110683B
:1030A000401E10601068704770B505460E462C46ED
:1030B00002F076F8D4E90F12206801FB020060608C
:1030C0000020A0632068A060E06B401E226C216895
:1030D00000FB0210E060FF2084F8440084F8450003
:1030E0009EB9206908B9012000E00020A8B904F1C8
:1030F000100001F0A9FA80B14FF08050FA49086041
:10310000BFF34F8FBFF36F8F07E004F11000FFF79D
:1031100081FF04F12400FFF77DFF02F050F8012049
:1031200070BD2DE9F04106460D4617469846069CAF
:103130000DB9246000E02760E66325640121204684
:10314000FFF7B2FF84F84C80BDE8F0812DE9F84329
:1031500007460D4690460DB9002601E007FB05F62F
:1031600006F15000FFF7F2FE044644B104F15009A5
:1031700043464A46294638460094FFF7D2FF204688
:10318000BDE8F88370B5044602F00AF894F945509A
:1031900010E0606A08B9012000E0002038B904F1AD
:1031A000240001F051FA18B101F0E2FA00E003E066
:1031B000681E45B2002DECDC00BFFF2084F84500FE
:1031C00001F0FDFF01F0ECFF94F9445010E020699C
:1031D00008B9012000E0002048B904F1100001F016
:1031E00033FA08B101F0C4FA681E45B200E001E00C
:1031F000002DECDC00BFFF2084F8440001F0DFFF6D
:1032000070BD70B5054601F0CBFFA86BE96B884235
:1032100001D1012400E0002401F0D1FF204670BD5F
:103220002DE9F04104460F4615464FF00008A66B05
:10323000206C40B9206860BB606801F01AFB8046D2
:103240000020606025E07DB93946226CA06802F05C
:1032500023F9216CA0680844A060D4E901108842D9
:1032600017D32068A06014E03946226CE06802F0B1
:1032700013F9216CE068401AE0602168E068884238
:1032800003D2216C6068401AE060022D01D106B1C2
:10329000761E701CA0634046BDE8F0812DE9FF4317
:1032A00083B0074688461D464FF000093C4600BFE4
:1032B00001F076FFA06BE16B884201D3022D28D18B
:1032C0002A4641462046FFF7ABFF0646606A08B92A
:1032D000012000E0002068B904F1240001F0B4F9F5
:1032E00088B14FF0805080490860BFF34F8FBFF323
:1032F0006F8F08E03EB14FF080507B490860BFF30C
:103300004F8FBFF36F8F01F05AFF012007B0BDE868
:10331000F083059818B901F052FF0020F6E7B9F1E3
:10332000000F04D101A801F0F2F94FF0010901F0FA
:1033300046FF00F04CFD01F033FF94F94400401CBF
:1033400010B9002084F8440094F94500401C10B9DD
:10335000002084F8450001F032FF05A901A801F022
:10336000DDF9F0B92046FFF74CFFA0B104F11000E1
:10337000059901F035F92046FFF704FF00F05CFCE9
:10338000002895D14FF0805057490860BFF34F8F08
:10339000BFF36F8F8CE72046FFF7F4FE00F04CFC84
:1033A00086E72046FFF7EEFE00F046FC0020ADE782
:1033B00010B504464CB1002060602060E06000233E
:1033C0001A4619462046FFF769FF10BD2DE9F04166
:1033D000044601260027224600210120FFF7B6FE01
:1033E00005462846FFF7E4FF2846BDE8F08170B5A2
:1033F00006460D46022200213046FFF7A7FE04468E
:1034000004B1A563204670BD2DE9F05F05468A46EC
:1034100016461F462C4600BFBF21EFF3118081F3F3
:103420001188BFF34F8FBFF36F8F00BF8146A06B32
:10343000E16B884201D3022F20D194F945B03A467E
:1034400051462046FFF7ECFE0BF1010070B9606AAF
:1034500008B9012000E0002068B904F1240001F05F
:10346000F3F840B13EB10120306004E00BF10100FF
:1034700040B284F845004FF0010801E04FF0000829
:1034800000BF89F3118800BF4046BDE8F09F2DE9D9
:10349000F04705460E462C4600BFBF21EFF31180D2
:1034A00081F31188BFF34F8FBFF36F8F00BF80464A
:1034B000D4F83890E06B48451FD994F945A009F13C
:1034C0000100A0630AF1010080B9606A08B9012017
:1034D00000E0002078B904F1240001F0B5F850B103
:1034E0004EB10120306006E004ED00E00AF1010079
:1034F00040B284F84500012700E0002700BF88F3B0
:10350000118800BF3846BDE8F08770B5054601F068
:1035100047FEA86B08B9012400E0002401F04FFE2B
:10352000204670BD70B504460D46206C70B1216C0C
:10353000E0680844E0606168E068884201D3206880
:10354000E0602846226CE16801F0A6FF70BD2DE91D
:10355000FF4782B0054689461E464FF0000A2C46BA
:1035600000BF01F01DFED4F83880B8F1000F3ED046
:10357000E768B3A002F03EFB49462046FFF7D2FFC2
:10358000DEB9A8F10100A063206810B901F0BAF912
:103590006060206908B9012000E0002008BB04F148
:1035A000100001F051F8E0B14FF08050AA490860D6
:1035B000BFF34F8FBFF36F8F13E0E760606A08B906
:1035C000012000E0002060B904F1240001F03CF883
:1035D00038B14FF08050A0490860BFF34F8FBFF360
:1035E0006F8F01F0ECFD012006B0BDE8F087049874
:1035F00018B901F0E4FD0020F6E7BAF1000F04D19C
:10360000684601F084F84FF0010A01F0D8FD00F09F
:10361000DEFB01F0C5FD94F94400401C10B9002008
:1036200084F8440094F94500401C10B9002084F847
:10363000450001F0C4FD04A9684601F06FF80028B8
:103640002ED12046FFF761FF20B3206830B901F08A
:10365000A7FD606801F0BBF801F0B1FD04F12400A2
:10366000049900F0BDFF2046FFF78CFD00F0E4FA5E
:1036700000287FF476AF79A002F0BCFA4FF08050BA
:1036800075490860BFF34F8FBFF36F8F7AA002F0C8
:10369000B1FA66E72046FFF775FD00F0CDFA60E766
:1036A0002046FFF76FFD00F0C7FA2046FFF72DFF19
:1036B0000028EED0002097E72DE9F05F05468A4606
:1036C00016462C4600BFBF21EFF3118081F311880D
:1036D000BFF34F8FBFF36F8F00BF8046D4F8389091
:1036E000B9F1000F21D094F944B051462046FFF7BC
:1036F00019FFA9F10100A0630BF1010070B9206965
:1037000008B9012000E0002068B904F1100000F0C1
:103710009BFF40B13EB10120306004E00BF101009D
:1037200040B284F84400012700E0002700BF88F37E
:10373000118800BF3846BDE8F09F2DE9F0470546E7
:1037400089462C4600BFBF21EFF3118081F3118819
:10375000BFF34F8FBFF36F8F00BF0746A06B48B119
:10376000D4F80C8049462046FFF7DCFEC4F80C80F4
:10377000012600E0002600BF87F3118800BF304615
:10378000BDE8F08770B5044601F00AFDA56B01F0B5
:1037900016FD284670BD70B50446254601F000FDB3
:1037A000D5E90E10461A01F00AFD304670BD0146FB
:1037B000886B704770B5044625462846FFF7F7FB2F
:1037C00070BD0146886C704781647047014691F86E
:1037D0004C00704701468A6B0AB9012000E00020C6
:1037E000704701468A6BCB6B9A4201D1012000E001
:1037F000002070472DE9F04105460E4617462C463D
:1038000001F0CEFC94F94400401C10B9002084F86B
:10381000440094F94500401C10B9002084F845008C
:1038200001F0CDFCA06B28B93A46314604F12400E2
:1038300000F0F8FE2046FFF7A5FCBDE8F08100008F
:1038400078717565756520636F7079206461746146
:1038500020686572650D0A0004ED00E078717565F9
:103860007565207265616420626C6F636B206865AA
:103870007265210D0A000000787175657565207705
:10388000616B652075702068657265210D0A000006
:1038900010B5002407E004EB8401FE4A02EB81002E
:1038A000FFF7B8FB641C082CF5D3FB48FFF7B2FB0D
:1038B000FA48FFF7AFFBFA48FFF7ACFBF948FFF710
:1038C000A9FBF948FFF7A6FBF348F8490860F3485D
:1038D000F749086010BD10B5044601F061FCF548D9
:1038E0000068401CF3490860F348006840B9F2489A
:1038F00004600846006801280DD1FFF7C9FF0AE0FF
:10390000EE48006838B9EC480068C06AE16A88424D
:1039100001D8E9480460EA480068401CE8490860AA
:1039200008460068A06494F82C1001208840E549FE
:1039300009680843E3490860E16A01EB8101D54A5F
:1039400002EB8100211DFFF775FB01F038FCDB481D
:10395000006868B1D8480068C06AE16A884207D246
:103960004FF08050D8490860BFF34F8FBFF36F8F7F
:1039700010BD2DE9F05F81460F4690469A460A9E9B
:103980000C9C4FEA8801A522206B01F097FDA8F15D
:103990000100216B01EB800B2BF0070B002507E0EA
:1039A000795D04F138004155785D00B902E06D1C85
:1039B000102DF5D300BF002147200155082E00D35C
:1039C0000726E662266500206065201DFFF72FFBB5
:1039D00004F11800FFF72BFB2461C6F10800A06179
:1039E00064620020A065E06584F8600052464946A4
:1039F000584601F0A2FB20600B9808B10B980460B8
:103A0000BDE8F09F2DE9FF4F85B0804689461546F9
:103A1000DDE912ABA800FFF799FA074667B1642009
:103A2000FFF794FA04461CB12763A800606304E022
:103A30003846FFF7BCFA00E000247CB10020CDE955
:103A400000ABCDE902402A4649464046089BFFF7B5
:103A500090FF2046FFF73FFF012601E04FF0FF36C1
:103A6000304609B0BDE8F08F90490968096809B986
:103A7000012100E0002121B14FF0FF31934A116094
:103A800006E08A490968C968C868904A41681160B7
:103A9000704710B50446206BFFF789FA2046FFF700
:103AA00086FA10BD70B5054601F07AFB15B982485B
:103AB000006800E028460446201DFFF7E1FA78B9C7
:103AC000E06A00EB8000734951F8200040B994F897
:103AD0002C10012088407B490968814379480160A6
:103AE000A06A18B104F11800FFF7CAFA7448006818
:103AF000401C7349086070480068844209D1211D48
:103B00006848FFF797FA72480068401C70490860DF
:103B100009E068480068401E664908602046FFF7D3
:103B2000B8FFFFF7A1FF01F04AFB6448006858B1F5
:103B300061480068844207D14FF0805062490860B4
:103B4000BFF34F8FBFF36F8F70BD2DE9F04100279A
:103B500060480068002863D15F480068451C5E48E3
:103B600005608DB95148D0F80080514800684F4930
:103B700008604F48C0F8008058480068401C57490A
:103B80000860FFF771FF00BF5048006885423BD3D3
:103B900000BF46480068006808B9012000E0002026
:103BA00020B14FF0FF30494908602CE03F480068E1
:103BB000C068C4686668B54202D24448066022E024
:103BC000201DFFF75DFAA06A18B104F11800FFF795
:103BD00057FA94F82C10012088403A4909680843A4
:103BE00038490860E16A01EB81012A4A02EB810051
:103BF000211DFFF71FFA3049E06A0968C96A884247
:103C0000C7D30127C5E700BF2B480068C06A00EB97
:103C10008000204951F82000012800D9012704E044
:103C20002F480068401C2E4908602E48006800B1EB
:103C300001273846BDE8F08170B50024002601F068
:103C4000AFFA24480068401E224908600846006810
:103C500000287AD117480068002876D04FE0104835
:103C6000C068C46804F11800FFF70AFA201DFFF7C6
:103C700007FA94F82C10012088401249096808437B
:103C800010490860E16A01EB8101024A02EB810000
:103C9000211D29E0002A0020A02A0020B42A0020AB
:103CA000C82A0020DC2A0020F02A00206C00002016
:103CB00070000020780000206800002084000020B0
:103CC000940000208000002004ED00E09800002017
:103CD00074000020A00000207C0000209000002044
:103CE000880000208C000020FFF7A4F9FE49E06A5C
:103CF0000968C96A884202D30120FC490860FC486F
:103D0000006808B9012000E000200028A7D00CB10D
:103D1000FFF7AAFEF748056865B100BFFFF715FF7A
:103D200010B10120F14908606D1E002DF6D1002070
:103D3000F0490860ED48006838B101263007EE49C7
:103D40000860BFF34F8FBFF36F8F01F038FA304632
:103D500070BD2DE9F04105460E46E8480768E24887
:103D60000068001DFFF78CF950B9DF48006890F833
:103D70002C1001208840E24909688143E048016035
:103D8000681C38B936B1D8480168091DDD48FFF70D
:103D900051F91AE07C19D44800684460BC4207D24B
:103DA000D1480168091DD8480068FFF74FF90CE0B9
:103DB000CD480168091DD5480068FFF747F9D44888
:103DC0000068844201D2D2480460BDE8F081D14845
:103DD0000068401CCF49086070472DE9F047044651
:103DE00088464FF00009FFF7F2FFC44806682068D4
:103DF00000EB08052068B04207D92068A8420BD91B
:103E0000B54209D94FF0010906E02068A84201D85F
:103E1000B54201D94FF001092560B9F1000F03D077
:103E2000A81B0021FFF795FFFFF706FF07463FB9E4
:103E30004FF08050B0490860BFF34F8FBFF36F8FD2
:103E4000BDE8F08770B50446002544B1FFF7BFFF19
:103E500000212046FFF77DFFFFF7EEFE05463DB946
:103E60004FF08050A4490860BFF34F8FBFF36F8FAE
:103E700070BD2DE9F041064637469B4800688742F1
:103E800001D100241EE001F08BF97D6901F097F962
:103E90009E480068854203D09B480068854201D156
:103EA00002240FE09748854205D1B86A08B9032477
:103EB00008E0022406E09848854200D00DB90424A9
:103EC00000E001242046BDE8F08170B5044601F011
:103ED00067F914B98448006800E020460646F56A90
:103EE00001F06DF9284670BD70B5024600BFBF25D0
:103EF000EFF3118485F31188BFF34F8FBFF36F8FFA
:103F000000BF214612B9784C246800E014462346CD
:103F1000D86A00BF81F3118800BF70BD2DE9F0475A
:103F200080460D464FF00009082D00D3072501F00B
:103F300037F9B8F1000F02D16B48006800E0404645
:103F40000446266DAE4256D0B5420BD9664800688D
:103F500084420DD064480068C06AA84208D84FF077
:103F6000010905E060480068844201D14FF0010971
:103F7000E76AE16A206D884200D1E5622565A069A3
:103F800000F0004010B9C5F10800A06107EB8701FF
:103F9000624A02EB81016069884201D1012000E0A0
:103FA0000020E0B1201DFFF76BF830B90120B840C8
:103FB0005349096881435248016094F82C1001204C
:103FC00088404F49096808434D490860E16A01EBA0
:103FD0008101524A02EB8100211DFFF72BF8B9F154
:103FE000000F07D04FF0805043490860BFF34F8F58
:103FF000BFF36F8F00BF01F0E2F8BDE8F0877047B4
:1040000000B54448006818B10120384908603AE01A
:104010000020364908604248006842490860084666
:1040200000684149096888420BD92F49096801F1A4
:104030005800896D3B4A12683B4B1B68D21A1144E9
:10404000016038480068384908602D480068B0FAB7
:1040500080F0C0F11F0101EB8102304B03EB8200C5
:1040600042685268426000F108024368934202D1FC
:104070004268526842604268D2681B4B1A60184618
:104080000068FFF7BCFF00BD70B5054601F088F879
:1040900015B91548006800E028460446201DFEF7C3
:1040A000EFFF78B9E06A00EB80001C4951F820006E
:1040B00040B994F82C1001208840114909688143C7
:1040C0000F480160A06A18B104F11800FEF7D8FF8C
:1040D000211D0C48FEF7AEFF01F071F8134800688F
:1040E00030B301F05DF824E0680000208C0000206F
:1040F000C82A00208800002004ED00E07C00002099
:1041000080000020F02A0020700000206C000020B9
:1041100098000020A0000020DC2A0020002A0020B7
:1041200040000020A8000020A400002084000020FF
:1041300003E0FFF799FC01F042F8FE480068844272
:1041400017D1FD48006840B14FF08050FB4908602E
:10415000BFF34F8FBFF36F8F0BE0F9480068F94949
:104160000968884203D10020F249086001E0FFF7A6
:1041700047FF70BD10B5014600200A46F04C536958
:10418000A34201D1012300E0002373B1EE4C936AF6
:10419000A34201D1012300E0002333B9936A0BB994
:1041A000012300E0002303B1012010BD70B50546D6
:1041B0002C4674B3DF48006884422AD000F0F0FF38
:1041C0002046FFF7D7FF10B3201DFEF759FF94F8E4
:1041D0002C1001208840DD4909680843DB4908604C
:1041E000E16A01EB8101DA4A02EB8100211DFEF751
:1041F00021FFD049E06A0968C96A884207D34FF0B5
:104200008050CE490860BFF34F8FBFF36F8F00F02F
:10421000D6FF70BD2DE9F04106460027344600BFA9
:10422000BF21EFF3118081F31188BFF34F8FBFF3EC
:104230006F8F00BF05462046FFF79CFF20B3C5489F
:104240000068E0B9BB49E06A0968C96A884200D3DE
:104250000127201DFEF714FF94F82C100120884040
:10426000BA4909680843B9490860E16A01EB81016C
:10427000B74A02EB8100211DFEF7DCFE04E004F1E9
:104280001801B148FEF7D6FE00BF85F3118800BFC4
:104290003846BDE8F08170B523E0FFF798FDAE48E1
:1042A000006808B9012000E000200546FFF7C4FCC3
:1042B000BDB900F075FFA848C068C468201DFEF7AE
:1042C000DFFEA0480068401E9E490860A3480068C1
:1042D000401EA249086000F072FF2046FFF7D9FB9C
:1042E00000BF9E4800680028D7D170BD00BFFFF70F
:1042F000D2FF97480068012807D94FF080508F49B6
:104300000860BFF34F8FBFF36F8FFCF79CF8EEE7A9
:104310001CB5934800210B468022CDE9001091A1E5
:104320009248FFF76FFB0446012C02D100F06DFEAE
:104330000446012C16D100BFBF2080F31188BFF3C3
:104340004F8FBFF36F8F00BF4FF0FF308849086079
:104350000120794908600020864908608649086084
:1043600000F008FF1CBD10B500BFBF2080F311880E
:10437000BFF34F8FBFF36F8F00BF00206E490860FF
:1043800000F00DFF10BD7B49086870470021794A95
:10439000106870476B4800687047014611B965485E
:1043A000006800E00846024602F138007047024605
:1043B000002101E0521C491C1078A528FAD0890878
:1043C00088B270472DE9F04786B081460C46924688
:1043D0001E46B9F1000F02D15648006800E0484679
:1043E0000546256005F138006060E86A2061286BA9
:1043F000E061A86CA060207B032807D1FFF7E7FCF1
:10440000A86A08B102202073FFF716FC286D6061CE
:10441000A86DA061052E01D0267303E04846FFF782
:1044200028FD2073BAF1000F20D0286BFFF7BFFFE3
:104430002084686B01F0B1F907468846218C88001A
:1044400001F0ABF900224D4BCDE9000101F0BFF8BE
:104450003A464346CDE9020101F02BF9CDE90401CA
:1044600001F0BBF96062686BA06201E0002020846B
:1044700006B0BDE8F0872DE9F04707460C469046A8
:104480000026206858B3204641684968416000F121
:10449000080142688A4202D1416849684160416826
:1044A000D1F80C9000BF204641684968416000F196
:1044B000080142688A4202D1416849684160416806
:1044C000CD6806EB460000EBC60007EB80014346D3
:1044D00001222846FFF776FF761C4D45E3D1304692
:1044E000BDE8F0872DE9F0410546884616460024D0
:1044F0000827FFF76CFC1348006880456BD300BFAA
:104500007F1E07EB8702124B03EB820104EB440290
:1045100002EBC40205EB82000522FFF7ACFF044466
:10452000002FEDD104EB440101EBC40105EB810048
:10453000022225E0680000208400002004ED00E055
:10454000F02A002078000020C82A002080000020E7
:10455000002A0020A0000020DC2A00207400002097
:104560009C00002049444C4500000000ED4200083A
:10457000980000207C0000204000002000005940EE
:10458000FB490968FFF777FF044404EB440101EBA2
:10459000C40105EB81000222F6490968FFF76BFFB1
:1045A000044404EB440101EBC40105EB8100042247
:1045B000F149FFF760FF044404EB440101EBC4013F
:1045C00005EB81000322ED49FFF755FF044416B1C6
:1045D000EB4800683060FFF72FFB2046BDE8F08114
:1045E00070B505460C46E748016818312846FEF7C5
:1045F0002DFD01212046FFF7ACFB70BD70B50646CE
:104600000C46154644F00040DE4909688861DD48E3
:10461000016818313046FEF70DFD01212846FFF7ED
:1046200098FB70BD70B506460D461446D548016826
:1046300018313046FEF7FEFC0CB14FF0FF35214635
:104640002846FFF786FB70BD70B50646F068C46863
:1046500004F11800FEF714FDCB480068A8B9201D2E
:10466000FEF70EFD94F82C1001208840C749096818
:104670000843C6490860E16A01EB8101C44A02EBC4
:104680008100211DFEF7D6FC04E004F11801C148A9
:10469000FEF7D0FCBB49E06A0968C96A884204D9C0
:1046A00001250120BC49086000E00025284670BDB6
:1046B0002DE9F04105460F4647F000402860EC68C0
:1046C0002846FEF7DDFC201DFEF7DAFC94F82C10DE
:1046D00001208840AD4909680843AC490860E16A97
:1046E00001EB8101AA4A02EB8100211DFEF7A2FC29
:1046F000A449E06A0968C96A884204D901260120F0
:10470000A549086000E000263046BDE8F081A349D5
:1047100009680160A24909684160704770B50446A4
:104720000D4600F03DFD9E4802682868401C08B90F
:10473000002619E0994920680968884204D0606819
:10474000904201D801260FE06068101A296888425B
:1047500009D228686168511A401A28602046FFF77C
:10476000D6FF002600E0012600F029FD304670BD8E
:104770000120894908607047014611B10A46D06C92
:1047800000E00020704708B10246D16470472DE96F
:10479000F041044614B97B48006800E02046074613
:1047A0003D6B2846FFF703FE06463046BDE8F08124
:1047B0007449086870477B49096809B9012005E018
:1047C0007149096809B9022000E00020704770B5FE
:1047D00005462C46002D4BD06A49E06A0968C96A33
:1047E000884245D2A06900F0004028B965480068B9
:1047F000C06AC0F10800A061E16A01EB8101644A6E
:1048000002EB81016069884201D1012000E00020B3
:1048100050B3201DFEF734FC78B9E06A00EB80004D
:104820005B4951F8200040B994F82C1001208840D1
:104830005649096881435548016052480068C06A7A
:10484000E06294F82C100120884050490968084320
:104850004E490860E16A01EB81014D4A02EB81009B
:10486000211DFEF7E7FB03E046480068C06AE062EE
:1048700070BD70B505462C460026ADB3606D401E78
:104880006065216DE06A88422ED0606D60BB201D9E
:10489000FEF7F6FB78B9E06A00EB80003C4951F87E
:1048A000200040B994F82C1001208840374909684D
:1048B000814336480160206DE062E06AC0F1080083
:1048C000A06194F82C100120884030490968084301
:1048D0002E490860E16A01EB81012D4A02EB81005B
:1048E000211DFEF7A7FB0126304670BD254909684A
:1048F000886924490968C96AC1F10801214A126816
:10490000916170471F48006830B11E49096801F184
:104910005400496D491C01601A480068704770B521
:1049200006460D4600F03CFC16480068C06D88B98C
:1049300001201449096881F860005DB10121284611
:10494000FFF707FA4FF0805017490860BFF34F8F09
:10495000BFF36F8F00F033FC00F022FC09480068C1
:10496000C46D3CB316B3002006490968C86521E050
:104970006C00002070000020DC2A0020F02A0020BB
:104980004000002068000020A000002080000020DF
:10499000002A0020C82A00208C000020900000205F
:1049A0007C0000208400002004ED00E0601EC3496C
:1049B0000968C8650020C149096881F8600000F0F5
:1049C000FEFB204670BD2DE9F0410746884614469F
:1049D0001D4600F0E5FBB948006890F86000022829
:1049E00018D0B649096801F15C00C96DB94301608E
:1049F0000120B249096881F860005DB101212846B3
:104A0000FFF7A7F94FF08050AD490860BFF34F8F13
:104A1000BFF36F8F00F0D3FB00F0C2FB1CB1A748BF
:104A20000068C06D2060A548006890F8600001280B
:104A300001D1002608E0A149096801F15C00C96DB7
:104A400021EA08010160012600209C49096881F8DB
:104A5000600000F0B4FB3046BDE8F0812DE9F0477E
:104A600081460D4616461F464FF0010A4C4600F09F
:104A700097FB0FB1E06D386094F86080022084F8F5
:104A80006000052E17D2DFE806F01503070B0D00B6
:104A9000E06D2843E0650EE0E06D401CE0650AE053
:104AA000E56508E0B8F1020F01D0E56501E04FF0DF
:104AB000000A00E000BF00BFB8F1010F22D1201DA5
:104AC000FEF7DEFA94F82C10012088407D49096831
:104AD00008437C490860E16A01EB81017A4A02EBF4
:104AE0008100211DFEF7A6FA7449E06A0968C96AC7
:104AF000884207D94FF0805071490860BFF34F8F4B
:104B0000BFF36F8F00F05BFB5046BDE8F0872DE9E7
:104B1000F84F82460D4616461F46DDF828B00120A4
:104B20000090544600BFBF21EFF3118081F311883C
:104B3000BFF34F8FBFF36F8F00BF81460FB1E06DA2
:104B4000386094F86080022084F86000052E17D247
:104B5000DFE806F01503070B0D00E06D2843E06564
:104B60000EE0E06D401CE0650AE0E56508E0B8F1A4
:104B7000020F01D0E56501E00020009000E000BFD9
:104B800000BFB8F1010F2DD150480068A8B9201D11
:104B9000FEF776FA94F82C100120884049490968FC
:104BA000084348490860E16A01EB8101464A02EB8B
:104BB0008100211DFEF73EFA04E004F1180144488B
:104BC000FEF738FA3D49E06A0968C96A884209D99E
:104BD000BBF1000F03D00120CBF8000002E0012060
:104BE0003C49086000BF89F3118800BF0098BDE808
:104BF000F88F2DE9F04105460E462C4600BFBF2137
:104C0000EFF3118081F31188BFF34F8FBFF36F8FE4
:104C100000BF074694F86080022084F86000E06DD1
:104C2000401CE065B8F1010F2AD128480068A8B9F6
:104C3000201DFEF725FA94F82C1001208840214908
:104C4000096808431F490860E16A01EB81011E4AB7
:104C500002EB8100211DFEF7EDF904E004F11801DB
:104C60001B48FEF7E7F91549E06A0968C96A8842F6
:104C700006D916B10120306002E001201549086014
:104C800000BF87F3118800BFBDE8F08170B505460D
:104C900015B90A48006800E02846064600F080FA88
:104CA00096F86000022804D1002086F860000124F4
:104CB00000E0002400F083FA204670BD6800002068
:104CC00004ED00E080000020002A0020A000002069
:104CD000C82A00208C0000202DE9F04104460D4632
:104CE00016461F464FF0000865602461B5420CD897
:104CF000F01BA169884202D34FF0010811E0211D89
:104D0000F8480068FEF7A2F90BE0BE4204D2BD42AB
:104D100002D34FF0010804E0211DF3480068FEF7BC
:104D200095F94046BDE8F0812DE9FE4305460C4665
:104D300016461F46DDF828804FF00009EB48006852
:104D400010B3009401960295062C15DAFFF733FD97
:104D5000022808D1002342466946E4480068FEF76D
:104D60009DFA814610E000231A466946DF48006834
:104D7000FEF794FA814607E000233A466946DB488D
:104D80000068FEF741FB81464846BDE8FE832DE9F9
:104D9000F84326E0D4480068C0680568D248006837
:104DA000C068C468201DFEF76BF92046616A884719
:104DB000E069012815D1A0694619AE4207D966609D
:104DC0002461211DC8480068FEF740F909E0002071
:104DD00003462A46014600902046FFF7A5FF80467D
:104DE00000BFC1480068006808B9012000E0002049
:104DF0000028CFD0BC480768BA480068BA490860A4
:104E0000B8480760BDE8F88370B50446FFF7BBFA01
:104E10000546B7480068854204D2FFF7B8FF012075
:104E2000206001E000202060B1480560284670BD88
:104E300070B586B04DE0039800284ADB059C606998
:104E400008B9012000E0002010B9201DFEF718F974
:104E500002A8FFF7D9FF054603980A2837D2DFE8F2
:104E600000F00905072527320608262800BF00BFE5
:104E700000BF00BF0498A269811803462A46204655
:104E8000FFF72AFF88B12046616A8847E069012858
:104E90000BD1002000900498A16942180023194604
:104EA0002046FFF741FF064600BF11E000BF0FE0BC
:104EB00000BF0498A061A06941192B462A462046EC
:104EC000FFF70AFF04E02046FEF771F800E000BF9C
:104ED00000BF00231A4603A984480068FEF737FB89
:104EE0000028A8D106B070BDF8B505460E467E482C
:104EF0000068C068C468201DFEF7C2F8E069012898
:104F000011D1A06941192B4632462046FFF7E4FE35
:104F100048B1002003462A46014600902046FFF78C
:104F200003FF074600BF2046616A8847F8BDF8B511
:104F300005460C46FEF74BFF6846FFF765FF064641
:104F4000009820BB44B9B54206D8FEF775FE31463D
:104F50002846FFF7C9FF1CE03CB1624800680068C2
:104F600008B9012000E000200446A91B22465F4842
:104F70000068FEF73FFCFEF75FFE50B94FF080502F
:104F80005C490860BFF34F8FBFF36F8F01E0FEF7FE
:104F900053FEF8BD0146544A126812680AB901224C
:104FA00000E000220A600A6822B94F4A1268D268FB
:104FB000106800E00020704708B500BF6846FFF7A2
:104FC000E9FF044620460099FFF7B1FFFFF730FFE5
:104FD000F4E710B500F0E4F84448006890B946489A
:104FE000FEF718F84548FEF715F843483E490860B3
:104FF00042483C49086000220C210320FEF7A6F835
:105000003A49086000F0DBF810BD1CB50024FFF73A
:10501000E0FF3648006858B13948072100234FF4B3
:105020008072CDE9001037A13848FEF7EBFC04464A
:1050300020461CBD2DE9F04705460E46174698460A
:10504000DDE908945CB1FFF7C4FF2560A661E76164
:10505000C4F82080C4F82490201DFDF7E8FFBDE8C7
:10506000F0872DE9FC4705460E4617469846DDF8C1
:1050700028902C20FDF76AFF04463CB143463A468F
:1050800031462846CDE90094FFF7D4FF2046BDE81D
:10509000FC871B480068704701460A4690697047C4
:1050A00001460A465068704701460A461068704734
:1050B00070B50446264600F073F8706908B90120FF
:1050C00000E0002080F0010500F079F8284670BD6E
:1050D00070B50446264600F063F8356A00F06FF8B4
:1050E000284670BDB0000020AC000020B4000020B5
:1050F000BC00002004ED00E0042B0020182B002051
:10510000B8000020546D722053766300B94F000838
:1051100070B504460D46264600F042F8356200F0B0
:105120004EF870BD00BFBF2080F31188BFF34F8FD2
:10513000BFF36F8F00BF00BFFEE7001F4FF080730B
:105140000360001F21F001030360001F2F4B036069
:10515000143802602038704710B504462C492DA041
:1051600000F048FD10BD36484FF0E02148610720AF
:105170000861704710B53348006840F47F0031493A
:1051800008600846006840F07F400860FFF7EBFFCA
:1051900000202D490860FAF7E7FF002010BD704796
:1051A00000BFBF2080F31188BFF34F8FBFF36F8F15
:1051B00000BF25480068401C23490860704722480A
:1051C0000068401E204908600846006820B9002099
:1051D00080F3118800BF00BF704710B500BFBF202B
:1051E00080F31188BFF34F8FBFF36F8F00BFFEF7BF
:1051F000ACFC20B14FF0805012491C39086000BF50
:10520000002080F3118800BF10BD00002551000868
:1052100067650008404040404040404040404040BA
:10522000257320696E766F6B65206F6E65207469DB
:105230006D6521404040404040404040400D0A00E4
:105240003F19010020ED00E0C000002070B50346CA
:105250000C4603E014F8015B03F8015B1500A2F1B2
:105260000102F7D170BD30B5034601E003F8011B20
:105270001400A2F10102F9D130BD10B504468249F3
:1052800051F824104A00814951F824000021FFF709
:10529000EAFF7F4951F824207C49083951F824005D
:1052A0000021FFF7E0FF012178480830015510BDCB
:1052B00010B501460023002207E0744850F8210091
:1052C00030F8120000B15B1C521C6F4850F82100EE
:1052D0009042F2D8642058436B4C54F82140B0FB04
:1052E000F4F0C0B210BD2DE9F04704460F4600258A
:1052F000A94666480830005D20B964481038016846
:10530000204688471FB94FF0FF30BDE8F08761485D
:1053100050F82400B7FBF0F65E4850F82400B7FBC5
:10532000F0F100FB117000B1761C574850F82400D2
:10533000451E20E0554850F8240030F8150010B9FB
:1053400009F1010901E04FF00009B14512D14FF018
:10535000000808E04D4850F8240005EB080220F84A
:10536000126008F10108B045F4D34A4850F824000F
:105370006843CAE76D1E002DDCDA4FF0FF30C4E74A
:105380002DE9F04104460E4640480830005D38B92A
:105390003E4810380168204688470120BDE8F0816A
:1053A0003B4850F82400B04217D93A4850F824003E
:1053B000B6FBF0F1354850F8240030F811200025F4
:1053C00007E00023314850F824004F1920F8173027
:1053D0006D1C9542F5DB0020E0E70220DEE770B5AA
:1053E00005460C4604B970BDFEF7F1FC27480838A5
:1053F00050F82500261A31462846FFF7C1FFFEF770
:105400001BFC00BFEFE770B504460E46FEF7DFFC5D
:1054100031462046FFF767FF0546FEF70DFC681C86
:1054200008B9002070BD1948083850F824002844F5
:10543000F8E72DE9F04104460F461646FEF7C7FC93
:1054400031462046FFF74FFF0546FEF7F5FB681C87
:1054500010B90020BDE8F081FEF7B9FC0B4908390E
:1054600051F82410481932463946FFF7EFFE394605
:105470002046FFF7B4FFFEF7DFFB0448083850F87A
:1054800024002844E6E7000074650008D8000020E6
:10549000846500087C65000840EA01039B0703D08F
:1054A00009E008C9121F08C0042AFAD203E011F863
:1054B000013B00F8013B521EF9D27047D2B201E025
:1054C00000F8012B491EFBD270470022F6E710B509
:1054D00013460A4604461946FFF7F0FF204610BD62
:1054E000421C10F8011B0029FBD1801A704780EA8A
:1054F000010210B502F00043400022D04A001FD044
:10550000010E01EB1261C0F35600C2F3560240F4E3
:10551000000042F40002A0FB022000047F391404C2
:1055200000D0401C50EA124001D44000491EC2B2D3
:105530000C0604EBD010401C4008802A02D003E087
:10554000002010BD20F00100002900DA00201843DF
:1055500010BD30B480EA010202F0004530F0004294
:1055600021F0004013D090B1C30DD40DC2F3160149
:10557000C0F31600E41A41F4000140F400027D3447
:10558000914201D3641C00E04900002C02DA30BCD7
:10559000002070474FF400000023914201D3891A84
:1055A000034340084FEA4101F7D151B1914202D182
:1055B0004FF0004105E002D24FF0010101E06FF031
:1055C000010103EBC450284430BC00F069B92DE957
:1055D000FE4F81EA030404F0004421F000410094EE
:1055E0004FF0000B23F0004350EA01045ED052EA72
:1055F00003045BD0C3F30A54C1F30A552C44A4F24C
:10560000F3340194A0FB0254C1F3130141F480115F
:10561000C3F3130343F4801301FB024400FB034E66
:10562000840A970A44EA815447EA8357A4FB07682F
:1056300002958D0A05FB07854FEA932C04FB0C5459
:105640002705029D4FEA065847EA1637B5EB0805CD
:105650006EEB070C870E920E47EA811742EA83121F
:10566000A7FB0201B6EB0B0164EB00042B0D43EA30
:105670000C335E1844EB1C50DA465146E7FB02013E
:10568000C5F313044FEA0B3343EA14534FEA0432D1
:10569000019C43EA0603A4F10C040294009CCDE9AA
:1056A00000B400F041F903B0BDE8F08F00200146DE
:1056B000F9E72DE9F04D81EA030404F0004B21F0F5
:1056C000004514464FF0000A23F0004150EA05025D
:1056D00020D054EA01021DD0C5F30A570246C5F393
:1056E0001303C1F31300C1F30A5640F4801543F4C9
:1056F0008013A7EB0608101BD64608F2FD3873EBA3
:10570000050002D308F1010801E092185B41B8F1ED
:10571000000F03DA00200146BDE8F08D00204FF4B1
:105720008011064684460EE0171B73EB050705D370
:10573000121B63EB050306434CEA010C49084FEAD0
:10574000300092185B4150EA0107EDD152EA0300A4
:1057500012D082EA040083EA0501084305D0101B39
:10576000AB4106D20122002306E000224FF00043A5
:1057700002E06FF0010253101AEB06004CEB0851E7
:1057800010EB0A0041EB0B01BDE8F04D00F0BFB893
:1057900096230022114600F08CB80EB540F233413A
:1057A00002910021CDE900110A460B4600F0BCF839
:1057B00003B000BD00F0004230F000400AD0C10D3F
:1057C00001F56071C0F3160042EA0151C2084007BA
:1057D0001143704700200146704701F0004330B488
:1057E00021F0004150EA010206D00A0DA2F56072D4
:1057F000C1F31301002A02DC30BC00207047440FC3
:1058000044EAC104C100E01830BC00EBC25000F013
:1058100047B830B50B46014600202022012409E09C
:1058200021FA02F59D4205D303FA02F5491B04FA59
:1058300002F52844151EA2F10102F1DC30BD2DE96C
:10584000F05F0546002092469B4688460646814604
:1058500040241BE0284641464746224600F0A7F96F
:1058600053465A46C01A914110D311461846224653
:1058700000F08EF92D1A67EB01084F4622460120F1
:10588000002100F085F917EB00094E41201EA4F11C
:105890000104DFDC484631462A464346BDE8F09F16
:1058A0000029A8BF7047401C490008BF20F0010034
:1058B000704710B4B0FA80FC00FA0CF050EA010412
:1058C00004BF10BC704749B1CCF1200421FA04F4A4
:1058D00011FA0CF118BF012121430843A3EB0C017D
:1058E000CB1D4FEA00614FEA102042BF002010BCE0
:1058F000704700EBC35010440029A4BF10BC704790
:10590000401C490008BF20F0010010BC704710B5D2
:10591000002B08DA401C41F1000192185B411A4348
:1059200001D120F0010010BD2DE9F04D92469B46BB
:1059300011B1B1FA81F202E0B0FA80F22032904661
:1059400000F026F904460F4640EA0A0041EA0B013E
:1059500053465A46084313D0114653EA010019D062
:10596000C8F14002504600F022F905460E46504666
:105970005946424600F00CF9084305D0012004E0E6
:1059800020463946BDE8F08D0020054346EAE07622
:105990002C4337430A986305E40AA0EB0800002271
:1059A000FD0A44EA47540A3002D500200146E9E7DF
:1059B000010510196941DDE9084500196941BDE893
:1059C000F04DA4E72DE9FE4F804681EA0300C00FA9
:1059D0000C46009021F0004123F00045B8EB020096
:1059E000A94105D24046214690461C460B46024638
:1059F00023F00040104347D0270DC7F30A00C3F33C
:105A00000A510290401A019040286BDAC3F3130048
:105A100040F4801B0098924620B10023D2EB030A89
:105A200063EB0B0B01985946C0F14002504600F061
:105A3000AFF806460D4650465946019A00F0C7F8A1
:105A400010EB08006141002487EA115284EAE773F1
:105A50001A4340D0009A62B3019A012A4FEA0752D2
:105A600015DC001B61EB02014FF0004202EA075215
:105A7000CDE90042001C41F5801132462B46FFF76C
:105A800053FF03B0BDE8F08F40462146F9E7001B05
:105A900061EB0201001C41F5801300185B412018E6
:105AA000A2F5001747EB030140EAD570B6196D4126
:105AB00011E06D084FEA360645EAC0754FEA075215
:105AC000001B61EB0201001C41F5801149084FEAFF
:105AD00030000019514132462B4603B0BDE8F04F6B
