:020000040800F2
:10000000A04B0020990E0008E5080008E70800084A
:10001000EB080008EF080008F308000800000000E3
:100020000000000000000000000000004501000882
:10003000F7080008000000008901000825490008B1
:10004000B30E0008B30E0008B30E0008B30E00088C
:10005000B30E0008B30E0008B30E0008B30E00087C
:10006000B30E0008B30E0008B30E0008B30E00086C
:10007000B30E0008B30E0008B30E0008B30E00085C
:10008000B30E0008B30E0008B30E0008B30E00084C
:10009000B30E0008B30E0008B30E0008B30E00083C
:1000A000B30E00081D0D0008B30E0008B30E0008C3
:1000B0008B0D0008F90D0008730E0008B30E000840
:1000C000B30E0008B30E0008B30E0008B30E00080C
:1000D000B30E00083B0C0008B30E0008610C0008CA
:1000E000B30E0008B30E0008B30E0008B30E0008EC
:1000F000B30E0008B30E0008B30E0008B30E0008DC
:10010000B30E0008B30E0008B30E0008B30E0008CB
:10011000B30E0008B30E0008B30E0008B30E0008BB
:10012000B30E0008B30E0008B30E0008B30E0008AB
:10013000DFF80CD005F022F80048004799040008C9
:10014000A04B0020224B19680868B0E8F00F80F33C
:100150000988BFF36F8F4FF0000080F311884EF0D5
:100160000D0E70470000000006480068006880F32C
:10017000088862B661B6BFF34F8FBFF36F8F00DFA1
:1001800000BF00BF08ED00E0EFF30980BFF36F8F01
:100190000F4B1A6820E9F00F106008B54FF0BF0050
:1001A00080F31188BFF34F8FBFF36F8F03F09AFB7B
:1001B0004FF0000080F31188BDE808401968086816
:1001C000B0E8F00F80F30988BFF36F8F704700BF6E
:1001D00048000020EFF30580704700002DE9FF4143
:1001E000054600240020287003F053FD03903CB91D
:1001F000039800EBC0008100002004F090FC04464E
:10020000002004F0E1FB07463A462146F0A005F045
:1002100053F8002C4BD001AA2046039903F0BFFDF0
:10022000039064210198B0FBF1F00190019800283F
:1002300039D00020029032E0029800EBC00004EBBD
:10024000800080690199B0FBF1F68EB100960298AA
:1002500000EBC00004EB80008369029800EBC00053
:1002600004EB8000E6A14268284605F035F80FE06F
:10027000029800EBC00004EB80008369029800EB59
:10028000C00004EB8000E3A14268284605F024F892
:10029000284604F0B1FC05440298401C0290DDE9B8
:1002A00002018842C8D32146002004F024FCBDE8A6
:1002B000FF812DE9F041804603F0EBFC05465A2012
:1002C00005FB00F1002004F02AFC0446D649D7A023
:1002D00004F0F2FF002003F0AFFE06463246D2499A
:1002E000D4A004F0E9FF9CB12046FFF777FF214638
:1002F000D5A004F0E1FF2146002004F0FCFB002023
:1003000004F062FB07463946D4A004F0D5FF02E0B2
:10031000D8A004F0D1FFBDE8F08170B50546DD49F5
:10032000C2A004F0C9FF002003F086FE0446224666
:10033000D849C0A004F0C0FF70BD08B500BFD649C1
:10034000D6A004F0B9FF03F09DFC009019E0002056
:1003500003F072FE06463246CF49B6A004F0ACFF69
:1003600043F69821684603F0A7F902F0E3FA07463E
:1003700004F0BEFC044622460B46C749CAA004F05E
:100380009BFFE4E770B5D3480068401CD149086082
:1003900008460068D049B0FBF1F201FB120090B9A9
:1003A000002003F049FE04462246CC49A1A004F0F7
:1003B00083FF03F067FC05462B46C648C749026821
:1003C000C7A004F079FF70BD08B50646009600BFCF
:1003D0006422009901FB02F003F0A3F9002003F06E
:1003E0002BFE05462A46CA4992A004F065FF002369
:1003F0001A466946C748006802F0FFFB0446012C14
:10040000E6D0C5A004F058FFE2E708B500BF00BF82
:10041000C048006802F029FE10B1C7A004F04CFFEC
:10042000002003F009FE05462A46CB4981A004F0CE
:1004300043FF00235A1E6946B648006802F00AFDD1
:100440000446012C04D1C5A0009904F035FFDFE774
:10045000C7A004F031FFDBE710B50446CDA004F0DF
:100460002BFF002002F08DFF10BD1CB500BF00BFA8
:10047000D4A004F021FF0020022103464FF47A7239
:10048000CDE90010D4A1AFF22F0002F02CFF42F210
:10049000107003F046F9EBE77CB54FF4A06000F074
:1004A0000DFD40F2CF21092000F07AFC00F0E9FBBD
:1004B000CB4804F001FFCBA004F0FEFECE480121A2
:1004C00000238022CDE90010CCA1AFF2911002F000
:1004D0000AFF0446012C03D1CAA004F0EDFE02E09D
:1004E000D0A004F0E9FEAFF23520D5A3012243F2FB
:1004F000C8210090D3A004F060F9D44908600846F0
:10050000006880B1D2A004F0D7FE03F0BBFB054623
:1005100044F6206000232A4601210090CB48006861
:1005200003F0AEFF02E0D3A004F0C6FEAFF2152048
:10053000D6A3012242F6F8210090D5A004F03DF99F
:10054000D54908600846006880B1D4A004F0B4FE24
:1005500003F098FB054644F6206000232A4601215B
:100560000090CD48006803F08BFF02E0C1A004F0CA
:10057000A3FE00220421052002F0A0FA65490860CC
:1005800008460068F8B10020032164238022CDE9E9
:100590000010CBA1CC4802F0A6FE00200221C82307
:1005A0008022CDE90010C9A1C74802F09CFE0020BE
:1005B000042103468022CDE90010C6A1C84802F0FC
:1005C00092FE03F024FB03F022FB00207CBD000020
:1005D00070785461736B5374617475734172726196
:1005E000793D25702C20786D656D5F757365645F4E
:1005F000706563656E743D256425250D0A00000055
:1006000025730909256C750909256C7525250D0AC1
:100610000000000025730909256C7509093C20318B
:1006200025250D0A00000000BC5B000825730D0A9B
:10063000000000002573207846726565537461637D
:100640006B203D20256C64007063577269746542AD
:1006500075666665720D0A2573000000786D656D1C
:100660005F757365645F706563656E743D256425B1
:10067000250D0A00786D616C6C6F63207063577292
:10068000697465427566666572206661696C210DE4
:100690000A000000C85B0008D45B000825732065D1
:1006A0006E7465720D0A000025732C2068692E2E69
:1006B0002E2078506F727447657446726565486580
:1006C000617050657263656E743D256625250D0A5F
:1006D000000000001000002060E31600DF5B00084F
:1006E0002573207849646C65436F756E74546F741C
:1006F000616C3D256C642C20785461736B47657484
:100700005469636B436F756E743D25640D0A000078
:10071000F45B000808000020436F756C64206E6F66
:10072000742073656E6420746F2074686520717521
:100730006575652E0D0A0000517565756520736835
:100740006F756C642068617665206265656E2065F2
:100750006D707479210D0A00005C000852656365B4
:1007600069766564203D20256C640D0A0000000058
:10077000436F756C64206E6F742072656365697673
:10078000652066726F6D207468652071756575658A
:100790002E0D0A005461736B322069732072756EDE
:1007A0006E696E6720616E642061626F757420747B
:1007B0006F2064656C65746520697473656C660D83
:1007C0000A0000005461736B312069732072756EEA
:1007D0006E696E670D0A00005461736B2032000071
:1007E000385C00084672656552544F53207374613B
:1007F00072742E2E2E0D0A000C00002066546173B8
:100800006B0000007846697273745461736B2063E7
:1008100072656174652020737563636573732E2E32
:100820002E0D0A007846697273745461736B2063ED
:100830007265617465206661696C2E0D0A000000A6
:100840006868000074696D65723000000000002067
:100850007854696D65724372656174652074696D61
:1008600065723020737563636573732E2E2E0D0AC7
:10087000000000007854696D6572437265617465AB
:10088000206661696C2E2E2E0D0A00006464000043
:1008900074696D6572310000040000207854696D40
:1008A00065724372656174652074696D657231208B
:1008B000737563636573732E2E2E0D0A000000009E
:1008C00053656E6431000000C903000853656E640F
:1008D00032000000526563656976657200000000B1
:1008E0000B040008704700BFFEE700BFFEE700BF33
:1008F000FEE700BFFEE770470CB5002001900090B6
:100900006C48006840F480306A49086000BF69485C
:10091000006800F4003000900198401C019000989D
:1009200018B90198B0F5A06FF1D16248006800F4E1
:10093000003010B10120009001E0002000900098EC
:10094000012843D15C48006840F010005A49086013
:100950000846006820F0030008600846006840F080
:1009600002000860534840685249486008464068A1
:1009700048600846406840F4806048600846406827
:1009800020F47C1048600846406840F4E810486055
:100990000846006840F08070086000BF4548006865
:1009A00000F000700028F9D04248406820F00300B1
:1009B000404948600846406840F00200486000BF77
:1009C0003C48406800F00C000828F9D10CBD10B577
:1009D000FFF792FF10BD10B53648006840F00100E7
:1009E0003449086008464068344908403149486045
:1009F00008460068324908402E49086008460068E9
:100A000020F4802008600846406820F4FE0048601A
:100A10004FF41F008860FFF7DAFF4FF000602949AC
:100A2000086010BD10B5002100200022214B5B683A
:100A300003F00C0121B1042906D0082928D107E0D0
:100A4000214B224C236027E01F4B204C236023E0E6
:100A5000184B5B6803F47010164B5B6803F480322C
:100A6000022303EB904022B9194B4343174C2360F8
:100A70000DE0104B5B6803F4003323B1144B434388
:100A8000124C236003E0104B4343104C236003E0FF
:100A90000D4B0E4C236000BF00BF064B5B68C3F3D9
:100AA00003130C4CE15C094B1B68CB40074C2360E3
:100AB00010BD000000100240002002400000FFF8BE
:100AC000FFFFF6FE08ED00E000127A00140000209F
:100AD00000093D001800002008B50121042000F0A5
:100AE00077FD0121084600F073FD0121880300F025
:100AF0006FFD4FF40070ADF8000018208DF8030072
:100B000003208DF8020069466A4800F0A5FA4FF408
:100B10008060ADF8000004208DF803006946654848
:100B200000F09AFA08BD1FB54FF4E13000900020A4
:100B3000ADF80400ADF80600ADF80800ADF80C0003
:100B40000C20ADF80A0069465B4800F0E8FD012280
:100B500040F22551584800F07AFE0121564800F035
:100B60006AFE4021544800F04EFF1FBD08B5252005
:100B70008DF8000002208DF8010001208DF80200A0
:100B80008DF80300684600F09EF908BD10B50446D4
:100B900021464A4800F0BCFE00BF8021474800F0D3
:100BA00025FF0028F9D010BD10B504462146424863
:100BB00000F0AEFE00BF80213F4800F017FF002884
:100BC000F9D010BD10B5044621463D4800F0A0FE06
:100BD00000BF80213A4800F009FF0028F9D010BD7D
:100BE00070B50546284604F007F80646002403E0E1
:100BF000285DFFF7E7FF641CB442F9DB70BD70B5F8
:100C00000546284603F0F8FF0646002403E0285D69
:100C1000FFF7BCFF641CB442F9DB70BD70B505463C
:100C2000284603F0E9FF0646002403E0285DFFF7AD
:100C3000BBFF641CB442F9DB70BD70B50024002515
:100C400040F225511C4800F0E7FE40B140F225512A
:100C5000194800F00BFF184800F05EFEC5B270BDE9
:100C600010B540F22551164800F0D6FE40B140F2D2
:100C70002551134800F0FAFE114800F04DFEC4B2B1
:100C800010BD10B5FFF728FFFFF74DFFFFF76EFF10
:100C900010BD70B504460D46E1B2074800F038FEBD
:100CA00000BF8021044800F0A1FE0028F9D02046B2
:100CB00070BD0000000801400038014000440040C1
:100CC000004800407FB505460C4600208DF80C001A
:100CD0000121C80200F07CFCADF80850ADF80440DA
:100CE0000020ADF80600ADF80A0001A9664800F042
:100CF000ABFF01221146644801F01DFB19208DF85D
:100D0000000001208DF8010003208DF80200012071
:100D10008DF80300684600F0D6F87FBD10B50121BC
:100D2000594801F0B6FD18B10121574801F0C2FD44
:100D300010BD7FB505460C460121084600F055FC64
:100D4000ADF80850ADF804400020ADF80A00ADF849
:100D5000060001A94FF0804000F076FF0122114605
:100D6000900701F0E8FA1C208DF8000001208DF8B2
:100D700001008DF802008DF80300684600F0A3F82A
:100D80000121880701F0BCFA7FBD10B50121880759
:100D900001F07FFD18B10121880701F08BFD10BD26
:100DA0007FB505460C460121022000F01EFCADF87F
:100DB0000850ADF804400020ADF80A00ADF8060078
:100DC00001A9324800F040FF012211462F4801F0EE
:100DD000B2FA1D208DF8000002208DF801000120DC
:100DE0008DF802008DF80300684600F06CF80121D0
:100DF000264801F085FA7FBD10B50121234801F096
:100E000048FD40B10121214801F054FD204800680F
:100E1000401C1F49086010BD7FB505460C460121E6
:100E2000042000F0E2FBADF80850ADF804400020CB
:100E3000ADF80A00ADF8060001A9164800F004FF5D
:100E400001221146134801F076FA1E208DF80000A9
:100E500001208DF8010000208DF8020001208DF89E
:100E60000300684600F02FF801210A4801F048FA13
:100E70007FBD10B50121074801F00BFD18B101211C
:100E8000044801F017FD10BD002C01400004004093
:100E90002800002000080040064880470648004718
:100EA000FEE7FEE7FEE7FEE7FEE7FEE7FEE7FEE71A
:100EB000FEE7FEE7D7090008310100083149014388
:100EC000314A1160704770B5002100230F22C478A9
:100ED00004B32D4C246804F4E064C4F5E064210AF2
:100EE000C1F10403CA40447804FA03F18478144041
:100EF00021430901254C0678A155047804F01F050B
:100F00000124AC4005786D11AD0005F1E025C5F870
:100F1000004109E0047804F01F050124AC401C4D99
:100F20000678761145F8264070BD1A4A0A400243F9
:100F3000154B1B1F1A60704739B1134A121D1268F6
:100F40000243114B1B1D1A6006E00F4A121D126866
:100F500082430D4B1B1D1A607047042808D14FF0C7
:100F6000E021096941F004014FF0E022116107E03E
:100F70004FF0E021096921F004014FF0E0221161F6
:100F8000704700000000FA050CED00E000E400E00E
:100F900080E100E080FFFF1F10B50446CC4884428A
:100FA00008D10121042000F02DFB0021042000F0D5
:100FB00029FB46E0C748844208D10121082000F0FF
:100FC00021FB0021082000F01DFB3AE0C2488442CA
:100FD00008D10121102000F015FB0021102000F0A5
:100FE00011FB2EE0BD48844208D10121202000F0F1
:100FF00009FB0021202000F005FB22E0B8488442D4
:1010000008D10121402000F0FDFA0021402000F02D
:10101000F9FA16E0B348844208D10121802000F09B
:10102000F1FA0021802000F0EDFA0AE0AE48844297
:1010300007D10121801500F0E5FA0021A01500F08C
:10104000E1FA10BD10B50121084600F0DBFA0021DD
:10105000012000F0D7FA10BD2DE9F041024600252D
:101060000026002000230024002791F803C00CF084
:101070000F0591F803C00CF0100CBCF1000F03D069
:1010800091F802C04CEA050591F800C0BCF1000FD0
:1010900031D0146800202BE04FF0010C0CFA00F363
:1010A000B1F800C00CEA03069E4220D183004FF045
:1010B0000F0C0CFA03F7BC4305FA03FC4CEA0404DA
:1010C00091F803C0BCF1280F06D14FF0010C0CFAC7
:1010D00000FCC2F814C00AE091F803C0BCF1480F4C
:1010E00005D14FF0010C0CFA00FCC2F810C0401CF6
:1010F0000828D1D31460B1F800C0BCF1FF0F34DD73
:10110000546800202EE000F1080C4FF0010808FAA6
:101110000CF3B1F800C00CEA03069E4221D1830013
:101120004FF00F0C0CFA03F7BC4305FA03FC4CEA32
:10113000040491F803C0BCF1280F05D100F1080C9C
:1011400008FA0CF8C2F8148091F803C0BCF1480FFB
:1011500007D100F1080C4FF0010808FA0CF8C2F8AA
:101160001080401C0828CED35460BDE8F0814FF6B3
:10117000FF710180022181700421C1707047024615
:10118000002093680B400BB1012000E00020704765
:101190000146886880B2704702460020D3680B4041
:1011A0000BB1012000E0002070470146C86880B202
:1011B000704701617047416170470AB1016100E009
:1011C00041617047C16070474FF480320A438261C9
:1011D0008161826182698269704702460020434BC7
:1011E00018684FF68073184040EA021008433F4BDE
:1011F000186070473E49C8617047F0B50A46002341
:1012000000240021002500F00046B6F1004F02D175
:10121000364EF16901E0354E7168C0F3034583B283
:1012200000F44016B6F5401F08D121F070612F4E32
:10123000766826F070662D4F7E6012E000F480160E
:10124000B6F5801F06D1032606FA05F4A14341F046
:10125000706106E0460D360103FA06F6B14341F02F
:10126000706122B1460D360103FA06F6314300F0F3
:101270000046B6F1004F02D11C4EF16101E01B4E59
:101280007160F0BD30B500228B071C0F0F2303FAED
:1012900004F2164B08338C1053F824309343134C4C
:1012A00008348D1044F8253023468C1053F8243030
:1012B0008C07240F00FA04F423430C4C08348D10DF
:1012C00044F8253030BD0A49DC3108607047000021
:1012D00000080140000C01400010014000140140D2
:1012E00000180140001C01400020014000000140A6
:1012F00000002042DF48006840F00100DD4908603E
:1013000008464068DC490840DA49486008460068F9
:10131000DA490840D74908600846006820F4802070
:1013200008600846406820F4FE0048604FF41F0043
:1013300088607047CF49096821F48031CD4A116037
:101340001146096821F480211160B0F5803F03D077
:10135000B0F5802F0ED106E0C649096841F480310E
:10136000C44A116007E0C349096841F4A021C14A99
:10137000116000E000BF00BF704710B501460022B9
:10138000002300204A11012A02D1BA4C236806E04A
:10139000022A02D1B74C236A01E0B64C636A01F01D
:1013A0001F02012494401C400CB1012000E00020E9
:1013B00010BD38B5002000900024002500BF31206A
:1013C000FFF7DBFF05460098401C00900098B0F541
:1013D000A06F01D0002DF2D03120FFF7CEFF08B171
:1013E000012400E00024204638BD01460020A14A27
:1013F000106820F0F80040EAC10010607047A04972
:1014000008607047024600209A4B586820F47C1010
:1014100042EA01031843974B5860704798490866A1
:10142000704701460020934A506820F003000843AB
:10143000506070478F48406800F00C0070470146CC
:1014400000208C4A506820F0F0000843506070473C
:1014500001460020874A506820F4E060084350604D
:10146000704701460020834A506820F4605040EAEB
:10147000C1005060704729B17E4A527A02437D4BC9
:101480005A7204E07B4A527A82437A4B5A7270470E
:101490007B49D8310860704701460020754A506882
:1014A00020F440400843506070470021714A2032C8
:1014B0001170704A82F82010012802D004280AD145
:1014C00004E001216B4A2032117005E00521694AD0
:1014D0002032117000E000BF00BF7047694908600A
:1014E00070476449096A0143624A1162704765495D
:1014F00044390860704730B50021002200240023E1
:101500005C4D6D6805F00C0121B1042905D0082956
:1015100023D105E05C4D056022E05B4D05601FE0D6
:10152000544D6D6805F47012524D6D6805F48034A9
:10153000022505EB92421CB9544D554305600BE062
:101540004C4D6D6805F400351DB1504D5543056097
:1015500002E04D4D5543056002E04B4D056000BF74
:1015600000BF444D6D6805F0F0010909484D6B5C02
:101570000568DD4045603F4D6D6805F4E061090A8E
:10158000434D6B5C4568DD4085603A4D6D6805F400
:101590006051C90A3E4D6B5C4568DD40C560354D04
:1015A0006D6805F44041890B3A4D6B5CC568B5FB2D
:1015B000F3F5056130BD29B12E4A526902432D4B26
:1015C0005A6104E02B4A526982432A4B5A617047A0
:1015D00029B1284A92690243264B9A6104E0254AC0
:1015E00092698243234B9A61704729B1214AD2699B
:1015F0000243204BDA6104E01E4AD26982431D4B4C
:10160000DA61704729B11B4AD2680243194BDA608C
:1016100004E0184AD2688243164BDA60704729B159
:10162000144A12690243134B1A6104E0114A126909
:101630008243104B1A617047124940390860704765
:101640000F49C86470470B49C87170470948406A20
:1016500040F0807007494862704701460020054A03
:1016600092680A400AB1012000E000207047014959
:1016700088727047001002400000FFF8FFFFF6FE7E
:10168000000042428004424200127A0000093D00FC
:101690002C0000203C00002010B50446FB4884428A
:1016A00009D101218803FFF7ADFF00214FF48040ED
:1016B000FFF7A8FF32E0F648844209D1012148042F
:1016C000FFF7ADFF00214FF40030FFF7A8FF25E042
:1016D000F048844209D101218804FFF7A0FF0021CE
:1016E0004FF48020FFF79BFF18E0EB48844209D1BC
:1016F0000121C804FFF793FF00214FF40020FFF7FA
:101700008EFF0BE0E548844208D101210805FFF770
:1017100086FF00214FF48010FFF781FF10BD2DE9F7
:10172000F04786B005460E460024A24600BFA146FB
:101730000027B08900B100BF2F462C8A4CF6FF70FD
:101740000440F08804432C82AC894EF6F310044028
:10175000B08831890843718908430443AC81AC8A5D
:101760004FF6FF400440B0890443AC8201A8FFF764
:10177000C2FEC648874202D1DDF810A001E0DDF8C4
:101780000CA0A88900F4004040B10AEBCA0000EBAD
:101790000A1031684900B0FBF1F807E00AEBCA0013
:1017A00000EB0A1031688900B0FBF1F86420B8FB47
:1017B000F0F004012009642101FB1089A88900F4DC
:1017C000004040B1322000EBC900B0FBF1F000F066
:1017D0000700044308E0322000EB09106421B0FB4D
:1017E000F1F000F00F0004432C8106B0BDE8F08753
:1017F0004FF41651016000218180C18001810C21CC
:10180000418100218181704710B502460020108A75
:101810004FF2FF0318400B884C8823438C882343E6
:10182000CC8823431843108210BD002101804180E1
:101830008180C180704721B1828942F40052828147
:1018400004E082894DF6FF731A4082817047F0B53B
:101850000346002400260025002040F66A17B942FE
:1018600000D100BF1846C1F3421401F01F06012742
:1018700007FA06F5012C01D10C3004E0022C01D14D
:10188000103000E014301AB107682F43076002E0FF
:101890000768AF430760F0BD1AB1838A0B438382A8
:1018A00002E0838A8B4383827047028A4FF6F0738B
:1018B0001A400282028A0A430282704782894FF2EA
:1018C000FF731A40828182890A438281704721B165
:1018D000828942F00202828104E082894FF6FD7320
:1018E0001A4082817047028A4FF6DF731A400282E3
:1018F000028A0A430282704721B1028A42F480427E
:10190000028204E0028A4BF6FF731A40028270479B
:10191000C1F308028280704701468888C0F308003E
:101920007047818941F0010181817047028BD2B2F9
:101930000283028B42EA012202837047028B02F487
:101940007F420283028B0A430283704721B1828A5D
:1019500042F02002828204E0828A4FF6DF731A404E
:101960008282704721B1828A42F01002828204E0B2
:10197000828A4FF6EF731A408282704721B1828AC1
:1019800042F00802828204E0828A4FF6F7731A401E
:101990008282704721B1828942F40042828103E051
:1019A0008289C2F30E028281704721B1828A42F499
:1019B0000062828204E0828A4FF2FF731A408282C0
:1019C0007047828A4FF6FB731A408282828A0A43EA
:1019D0008282704721B1828A42F00202828204E050
:1019E000828A4FF6FD731A408282704702460020B9
:1019F000B1F5007F00D100BF13880B400BB101206F
:101A000000E00020704701F40072B2F5007F00D1C1
:101A100000BFCA430280704770B50246002400230D
:101A20000025002040F66A16B14200D100BFC1F384
:101A3000421501F01F03012606FA03F3012D02D11E
:101A40009689334006E0022D02D1168A334001E028
:101A5000968A33400C12012606FA04F416883440A4
:101A600013B10CB1012000E0002070BD10B50022C0
:101A7000002340F66A14A14200D100BF0A120124DB
:101A80009440A3B2DC43048010BD00000038014044
:101A90000044004000480040004C0040005000401E
:101AA00010B50446FE48844208D10121C014FFF756
:101AB000A9FD0021E014FFF7A5FDC4E0B4F1804FBB
:101AC00008D101210846FFF7AAFD00210120FFF7F8
:101AD000A6FDB8E0F348844208D101210220FFF7B7
:101AE0009EFD00210220FFF79AFDACE0EE48844203
:101AF00008D101210420FFF792FD00210420FFF707
:101B00008EFDA0E0E948844208D101210820FFF7BA
:101B100086FD00210820FFF782FD94E0E44884421E
:101B200008D101211020FFF77AFD00211020FFF7D6
:101B300076FD88E0DF48844208D101212020FFF7AC
:101B40006EFD00212020FFF76AFD7CE0DA48844228
:101B500008D101214014FFF755FD00216014FFF763
:101B600051FD70E0D548844209D10121C804FFF736
:101B700049FD00214FF40020FFF744FD63E0D04809
:101B8000844209D101210805FFF73CFD00214FF4F3
:101B90008010FFF737FD56E0CA48844209D1012181
:101BA0004805FFF72FFD00214FF40010FFF72AFD35
:101BB00049E0C548844208D101214020FFF72FFDAC
:101BC00000214020FFF72BFD3DE0C048844208D1B2
:101BD00001218020FFF723FD00218020FFF71FFD5A
:101BE00031E0BB48844208D101218015FFF717FD81
:101BF0000021A015FFF713FD25E0B648844209D166
:101C000001210804FFF7FEFC00214FF48030FFF7AC
:101C1000F9FC18E0B048844209D101214804FFF7DB
:101C2000F1FC00214FF40030FFF7ECFC0BE0AB4877
:101C3000844208D101218804FFF7E4FC00214FF41D
:101C40008020FFF7DFFC10BD00220288944B9842F1
:101C50000ED0994B98420BD0B0F1804F08D0914BE9
:101C6000984205D0904B984202D0904B984204D1B4
:101C70004FF68F731A404B881A438D4B984207D00A
:101C80008C4B984204D04FF6FF431A40CB881A433E
:101C900002808B8883850B880385814B98420BD00B
:101CA000854B984208D08B4B984205D08A4B98427E
:101CB00002D08A4B984201D10B7A0386012383829A
:101CC000704770B5002400220023058C4FF6FE7685
:101CD00035400584028C8388048B4FF68F752C4029
:101CE000B51E2C400D882C43751E2A400D892A43B1
:101CF0004D882A436A4DA8420BD06F4DA84208D0A8
:101D0000744DA84205D0744DA84202D0734DA8422C
:101D100013D14FF6F7752A404D892A434FF6FB75CC
:101D20002A408D882A434FF6FF652B404FF6FF551A
:101D30002B408D892B43CD892B4383800483CD8811
:101D40008586028470BD70B5002400220023058CB6
:101D50004FF6EF7635400584028C8388048B48F675
:101D6000FF752C404FF6FF452C400D884FF6FF764F
:101D700006EA05252C434FF6DF752A400D8906EA51
:101D800005152A434D8806EA05152A43444DA84205
:101D900002D0494DA8421DD14FF67F752A404D898A
:101DA0004FF6FF7606EA05152A434FF6BF752A401F
:101DB0008D8806EA05152A434FF6FF352B404FF272
:101DC000FF752B408D8906EA85052B43CD8906EAF0
:101DD00085052B4383800483CD880587028470BDED
:101DE00070B5002400220023058C4FF6FF663540B5
:101DF0000584028C8388848B4FF68F752C404FF6B8
:101E0000FC752C400D882C434FF6FF552A400D8958
:101E10004FF6FF7606EA05252A434D8806EA052592
:101E20002A431F4DA84202D0234DA8421DD14FF294
:101E3000FF752A404D894FF6FF7606EA05252A43AD
:101E40004FF6FF352A408D8806EA05252A434EF6CF
:101E5000FF752B404DF6FF752B408D8906EA051561
:101E60002B43CD8906EA05152B4383808483CD88D7
:101E70008587028470BD70B5002200230024058C84
:101E80004EF6FF7635400584038C8488828B48F6B5
:101E9000FF752A404FF6FF452A400D8820E00000DC
:101EA000002C01400004004000080040000C0040ED
:101EB000001000400014004000340140004C01407C
:101EC000005001400054014000180040001C004038
:101ED0000020004000400140004401400048014013
:101EE0004FF6FF7606EA05252A434DF6FF752B408F
:101EF0000D8906EA05352B434D8806EA05352B4347
:101F0000FA4DA84202D0FA4DA84208D14BF6FF750F
:101F10002C408D894FF6FF7606EA85152C43848088
:101F20008283CD88A0F84050038470BD828B4FF22D
:101F3000FF331A408283828B4FF6FF7303EA01233B
:101F40001A4382837047F0B50C46154600220021E3
:101F50000026078C4EF6FF7C07EA0C070784828B6D
:101F6000018C4FF6FF7707EA043640F6FF473A4008
:101F70004FF6FF7707EA05273A434FF6FF7707EA60
:101F800003373A43D94FB8420ED0D94FB8420BD09D
:101F9000B0F1804F08D0D74FB84205D0D64FB842E5
:101FA00002D0D64FB84206D14DF6FF77394046F4FD
:101FB0008057394305E047F6FF57394044F48057CE
:101FC000394382830184F0BD828B4FF6F3731A404C
:101FD0008283828B0A4382837047F0B50C46154694
:101FE000002200210026078C4FF6FF6C07EA0C0741
:101FF0000784828B018C4FF6FF7707EA04264FF6A1
:102000000C773A404FF6FF7707EA03172F433A431E
:10201000B64FB8420ED0B64FB8420BD0B0F1804F99
:1020200008D0B44FB84205D0B34FB84202D0B34F36
:10203000B84206D14FF6FF57394046F4807739430E
:1020400005E04FF2FF57394044F4807739438283EB
:102050000184F0BD028B4FF2FF331A400283028BE2
:102060004FF6FF7303EA01231A4302837047F0B56A
:102070000C461546002200210026078C4FF6EF7C07
:1020800007EA0C070784028B018C4FF6FF7707EAFB
:10209000041640F6FF473A404FF6FF7707EA03374A
:1020A0003A434FF6FF7707EA05273A438F4FB84286
:1020B0000ED08F4FB8420BD0B0F1804F08D08D4F6B
:1020C000B84205D08C4FB84202D08C4FB84206D1EE
:1020D0004FF6DF77394046F01007394305E04FF6F9
:1020E0005F77394044F01007394302830184F0BD23
:1020F000028B4FF6F3731A400283028B0A4302836A
:102100007047F0B50C46154600220021068C4FF6AC
:10211000FE773E400684028B018C4FF60C763240EF
:102120007E1C06EA03162E433243704EB0420ED098
:102130006F4EB0420BD0B0F1804F08D06D4EB04220
:1021400005D06D4EB04202D06C4EB04206D14FF673
:10215000FD76314044F00106314305E04FF6F57657
:10216000314044F00106314302830184F0BD70B573
:1021700005460C465D4885420ED05D4885420BD031
:10218000B5F1804F08D05B48854205D05A4885425A
:1021900002D05A48854200D100E000BF208850B9E3
:1021A0002389A28861882846FFF7ABFFE18828468B
:1021B000FFF79EFF25E0208804280AD12389A28802
:1021C00061882846FFF753FFE1882846FFF742FF62
:1021D00017E0208808280AD12389A2886188284628
:1021E000FFF7FBFEE1882846FFF7EEFE09E02389B2
:1021F000A28861882846FFF7A6FEE1882846FFF7F7
:1022000095FE70BD2DE9F04105460C4600260127DC
:10221000608808B9022600E00026A088012801D1C4
:10222000022700E001272088A0B92389A2886188BD
:102230002846FFF766FFE1882846FFF759FF238904
:102240003A4631462846FFF712FFE1882846FFF755
:1022500001FF13E02389A28861882846FFF707FF62
:10226000E1882846FFF7F6FE23893A46314628469C
:10227000FFF747FFE1882846FFF73AFFBDE8F08106
:102280000A884B881A438B881A43CB881A430B89D8
:102290001A434B891A438B891A43A0F8442070478C
:1022A0004FF6FF71818000210180C1804180017261
:1022B00070470021018041808180C180018141817E
:1022C0008181C1817047002101804180012181808D
:1022D0000021C180018170470021018041808180FF
:1022E000C18001814181818170470000002C014043
:1022F000003401400004004000080040000C004091
:1023000021B1028842F00102028004E002884FF607
:10231000FE731A400280704731B1B0F8442042F495
:102320000042A0F8442005E0B0F84420C2F30E02B9
:10233000A0F8442070471AB183890B43838102E0DF
:1023400083898B43838170478182704741EA02030E
:10235000A0F8483070471AB183890B43838102E0AB
:1023600083898B438381704701894FF6F87211404E
:10237000018170470A46002101894FF68F73194089
:1023800011430181704730B504460D462946204669
:10239000FFF7F0FF208940F00700208130BD2DE9D4
:1023A000F04104460D4616461F46602D06D13B46B9
:1023B000012231462046FFF75AFE05E03B46012246
:1023C00031462046FFF79DFE29462046FFF7D2FF03
:1023D000208940F007002081BDE8F08130B50C462F
:1023E00000210189C9B24FF6FF7505EA032515439F
:1023F00025432943018130BD2DE9F04105460E46B4
:1024000017469846002443463A4631462846FFF789
:10241000E5FF2C894FF6F870044044F007044FF6AE
:102420008F70044044F070042C81BDE8F081F0B559
:1024300004460D4616461F463B4632462946204670
:10244000FFF7CCFF208940F480402081F0BD01855A
:10245000828270470A46002101884FF68F73194027
:10246000114301807047F0B50C4615461E46002109
:10247000002200230189028B038C4FF6F877394044
:1024800021434FF6FC473A4040F201173A434FF6DA
:10249000DD773B404FF6FF7707EA06172F433B43B4
:1024A000018102830384F0BD0A460021018B4FF6AF
:1024B0008F7319401143018370470A460021018B35
:1024C00048F6FF7319404FF6FF7303EA02231943DE
:1024D000018370470A460021818B4FF68F731940A4
:1024E0001143818370470A460021818B48F6FF73B0
:1024F00019404FF6FF7303EA0223194381837047A3
:1025000021B1028842F08002028004E002884FF686
:102510007F731A400280704721B1828842F0040222
:10252000828004E082884FF6FB731A4082807047F5
:1025300021B1828842F00802828004E082884FF64E
:10254000F7731A408280704721B1828842F00102FD
:10255000828004E082884FF6FE731A4082807047C2
:102560000A460021018B4FF6F7731940114301838E
:1025700070470A460021018B4FF2FF7319404FF656
:10258000FF7303EA02231943018370470A460021BF
:10259000818B4FF6F77319401143818370470A46C8
:1025A0000021818B4FF2FF7319404FF6FF7303EA4E
:1025B00002231943818370470A460021018B4FF69D
:1025C000FB7319401143018370470A460021018BB8
:1025D0004FF6FF3319404FF6FF7303EA0223194306
:1025E000018370470A460021818B4FF6FB73194027
:1025F0001143818370470A460021818B4FF6FF33D8
:1026000019404FF6FF7303EA022319438183704791
:102610000A460021018B4FF67F7319401143018355
:1026200070470A460021018BC1F30E014FF6FF737C
:1026300003EA02231943018370470A460021818B74
:102640004FF67F7319401143818370470A4600217A
:10265000818BC1F30E014FF6FF7303EA0223194386
:10266000818370470A460021018C4FF6FD731940A3
:102670001143018470470A460021018C4FF6F7731D
:1026800019401143018470470A460021018C4FF61E
:10269000DF7319404FF6FF7303EA021319430184F5
:1026A00070470A460021018C4FF67F7319404FF6A0
:1026B000FF7303EA02131943018470470A4600219D
:1026C000018C4FF6FF5319404FF6FF7303EA0223C4
:1026D0001943018470470A460021018C4FF2FF73B1
:1026E00019404FF6FF7303EA022319430184704730
:1026F0000A460021018C4DF6FF7319404FF6FF7317
:1027000003EA023319430184704730B500230124E2
:102710008C40A3B2048C9C430484048C02FA01F51F
:10272000ADB22C43048430BD30B5002304248C406A
:10273000A3B2048C9C430484048C02FA01F5ADB26C
:102740002C43048430BD70B5034600200024184695
:10275000183001258D40ACB21D8CA5431D8409B1F4
:10276000082909D100EB6100056825F070050560B6
:102770000568154305600EE00D1FC5F34E0528449E
:10278000056825F4E045056005684FF6FF7606EA22
:1027900002263543056070BD21B1028842F0020275
:1027A000028004E002884FF6FD731A4002807047F1
:1027B00021B1028842F00402028004E002884FF650
:1027C000FB731A400280704721B1828842F0800278
:1027D000828004E082884FF67F731A4082807047BF
:1027E00002884FF6F7731A40028002880A4302807B
:1027F000704782884FF68F731A40828082880A431E
:102800008280704702894FF6F8731A40028102896C
:102810000A430281704702894FF67F731A40028192
:1028200002890A430281704781847047818570471D
:10283000818670470187704781877047A0F84010F4
:10284000704702884FF6FF431A40028002880A430D
:10285000028070470146888E70470146088F704796
:102860000146888F70470146B1F840007047014625
:10287000888C70470146088D704702460020138AF5
:102880000B400BB1012000E000207047CA430282D8
:10289000704730B50246002000230024158A05EA5F
:1028A0000103958905EA010413B10CB1012000E090
:1028B000002030BDCA4302827047000070B5044654
:1028C000002504F0070020B104F00700C0F1080063
:1028D000044400F0EBFE2648006820B9254820F0AB
:1028E00007002349086024480068204442F2F87138
:1028F000884210D22048006820441F490968884255
:1029000009D91B4800681C49096845181A4800681D
:1029100020441949086000F0FEFD284670BD70474C
:1029200000201549086070471348006842F2F871AA
:10293000081A70472DE9F0410F49096842F2F87210
:10294000501A02F0D0F907464FF07E5102F05BF9C1
:1029500006460A4902F057F90546094902F085F989
:1029600004464FF07E5102F04EF9BDE8F0810000C0
:1029700044000020CC000020400000200000C8429D
:1029800000E01F4600F1080141604FF0FF31816017
:1029900000F10801C1600161002101607047002160
:1029A0000161704742684A6093688B609368596020
:1029B0009160086103685B1C0360704710B50246B4
:1029C0000B685C1C0CB9106907E002F1080000E01C
:1029D0004068446824689C42FAD944684C604C685A
:1029E000A160886041600A611468641C146010BDB5
:1029F00001460A69D1E901309860D1E901035860C4
:102A00005068884201D188685060002008611068D1
:102A1000401E10601068704770B505460E462C4683
:102A200001F063FFD4E90F12206801FB020060602F
:102A30000020A0632068A060E06B401E226C21682B
:102A400000FB0210E060FF2084F8440084F8450099
:102A50009EB9206908B9012000E00020A8B904F15E
:102A6000100001F046FA80B14FF08050F84908603C
:102A7000BFF34F8FBFF36F8F07E004F11000FFF734
:102A800081FF04F12400FFF77DFF01F03DFF0120ED
:102A900070BD2DE9F04106460D4617469846069C46
:102AA0000DB9246000E02760E6632564012120461B
:102AB000FFF7B2FF84F84C80BDE8F0812DE9F843C0
:102AC00007460D4690460DB9002601E007FB05F6C6
:102AD00006F15000FFF7F2FE044644B104F150093C
:102AE00043464A46294638460094FFF7D2FF20461F
:102AF000BDE8F88370B5044601F0F7FE94F945503F
:102B000010E0606A08B9012000E0002038B904F143
:102B1000240001F0EEF918B101F07FFA00E003E0C3
:102B2000681E45B2002DECDC00BFFF2084F8450094
:102B300001F0EAFE01F0D9FE94F9445010E020695A
:102B400008B9012000E0002048B904F1100001F0AC
:102B5000D0F908B101F061FA681E45B200E001E069
:102B6000002DECDC00BFFF2084F8440001F0CCFE17
:102B700070BD70B5054601F0B8FEA86BE96B8842E0
:102B800001D1012400E0002401F0BEFE204670BD0A
:102B90002DE9F04104460F4615464FF00008A66B9C
:102BA000206C28B37DB93946226CA06802F000F889
:102BB000216CA0680844A060D4E90110884217D3B2
:102BC0002068A06014E03946226CE06801F0F0FF54
:102BD000216CE068401AE0602168E068884203D216
:102BE000216C6068401AE060022D01D106B1761EAA
:102BF000701CA0634046BDE8F0812DE9FF4383B01F
:102C0000074688461D464FF000093C4600BF01F0CC
:102C10006CFEA06BE16B884201D3022D28D12A46BD
:102C200041462046FFF7B4FF0646606A08B9012016
:102C300000E0002068B904F1240001F05AF988B1DD
:102C40004FF0805082490860BFF34F8FBFF36F8F02
:102C500008E03EB14FF080507D490860BFF34F8FD0
:102C6000BFF36F8F01F050FE012007B0BDE8F08385
:102C7000059818B901F048FE0020F6E7B9F1000FF9
:102C800004D101A801F098F94FF0010901F03CFED0
:102C900000F00CFD01F029FE94F94400401C10B92D
:102CA000002084F8440094F94500401C10B900202D
:102CB00084F8450001F028FE05A901A801F083F978
:102CC000F0B92046FFF755FFA0B104F110000599B7
:102CD00001F0DBF82046FFF70DFF00F01CFC002898
:102CE00095D14FF080505A490860BFF34F8FBFF322
:102CF0006F8F8CE72046FFF7FDFE00F00CFC86E7A7
:102D00002046FFF7F7FE00F006FC0020ADE72DE9B6
:102D1000F05F05468A4616461F462C4600BFBF2177
:102D2000EFF3118081F31188BFF34F8FBFF36F8FE3
:102D300000BF8146A06BE16B884201D3022F20D1F6
:102D400094F945B03A4651462046FFF721FF0BF172
:102D5000010070B9606A08B9012000E0002068B97C
:102D600004F1240001F0C5F840B13EB1012030600B
:102D700004E00BF1010040B284F845004FF0010877
:102D800001E04FF0000800BF89F3118800BF404602
:102D9000BDE8F09F2DE9F04705460E462C4600BFE2
:102DA000BF21EFF3118081F31188BFF34F8FBFF381
:102DB0006F8F00BF8046D4F83890E06B48451DD92E
:102DC00094F945A009F10100A0630AF1010070B96E
:102DD000606A08B9012000E0002068B904F124000D
:102DE00001F087F840B13EB10120306004E00AF103
:102DF000010040B284F84500012700E0002700BF31
:102E000088F3118800BF3846BDE8F08770B50546E5
:102E100001F06BFDA86B08B9012400E0002401F06B
:102E200073FD204670BD70B504460D46206C70B130
:102E3000216CE0680844E0606168E068884201D382
:102E40002068E0602846226CE16801F0B1FE70BDA8
:102E500004ED00E02DE9FF4782B0054689461E4695
:102E60004FF0000A2C4600BF01F03FFDD4F8388037
:102E7000B8F1000F39D0E768AAA002F01DFA494660
:102E80002046FFF7D0FFB6B9A8F10100A063206982
:102E900008B9012000E0002008BB04F1100001F097
:102EA00028F8E0B14FF08050A4490860BFF34F8F7D
:102EB000BFF36F8F13E0E760606A08B9012000E09C
:102EC000002060B904F1240001F013F838B14FF08C
:102ED00080509A490860BFF34F8FBFF36F8F01F0A6
:102EE00013FD012006B0BDE8F087049818B901F081
:102EF0000BFD0020F6E7BAF1000F04D1684601F09F
:102F00005BF84FF0010A01F0FFFC00F0CFFB01F08D
:102F1000ECFC94F94400401C10B9002084F84400F3
:102F200094F94500401C10B9002084F8450001F0D8
:102F3000EBFC04A9684601F046F820BB2046FFF7E9
:102F400065FFD0B104F12400049900F09EFF2046F3
:102F5000FFF7D0FD00F0DFFA002885D178A002F05D
:102F6000ABF94FF0805075490860BFF34F8FBFF346
:102F70006F8F7AA002F0A0F976E72046FFF7BAFD3E
:102F800000F0C9FA70E72046FFF7B4FD00F0C3FA7D
:102F90002046FFF73BFF0028EED00020A2E72DE9F6
:102FA000F05F05468A4616462C4600BFBF21EFF368
:102FB000118081F31188BFF34F8FBFF36F8F00BF74
:102FC0008046D4F83890B9F1000F21D094F944B07C
:102FD00051462046FFF727FFA9F10100A0630BF13E
:102FE000010070B9206908B9012000E0002068B92B
:102FF00004F1100000F07DFF40B13EB101203060CF
:1030000004E00BF1010040B284F84400012700E025
:10301000002700BF88F3118800BF3846BDE8F09F45
:103020002DE9F047054689462C4600BFBF21EFF346
:10303000118081F31188BFF34F8FBFF36F8F00BFF3
:103040000746A06B48B1D4F80C8049462046FFF7EC
:10305000EAFEC4F80C80012600E0002600BF87F3DA
:10306000118800BF3046BDE8F08770B5044601F016
:103070003CFCA56B01F048FC284670BD70B50446C9
:10308000254601F032FCD5E90E10461A01F03CFC51
:10309000304670BD0146886B704770B504462546C2
:1030A0002846FFF73CFC70BD0146886C7047816480
:1030B0007047014691F84C00704701468A6B0AB987
:1030C000012000E00020704701468A6BCB6B9A42DA
:1030D00001D1012000E0002070472DE9F0410546B4
:1030E0000E4617462C4601F000FC94F94400401CA3
:1030F00010B9002084F8440094F94500401C10B930
:10310000002084F8450001F0FFFBA06B28B93A4687
:10311000314604F1240000F0DAFE2046FFF7EAFC15
:10312000BDE8F08178717565756520636F707920F1
:103130006461746120686572650D0A0004ED00E049
:10314000787175657565207265616420626C6F6366
:103150006B2068657265210D0A0000007871756545
:1031600075652077616B65207570206865726521D3
:103170000D0A000010B5002407E004EB8401FE4AAC
:1031800002EB8100FFF7FEFB641C062CF5D3FB4825
:10319000FFF7F8FBFA48FFF7F5FBFA48FFF7F2FBF9
:1031A000F948FFF7EFFBF948FFF7ECFBF348F84964
:1031B0000860F348F749086010BD10B5044601F0F7
:1031C00094FBF5480068401CF3490860F348006828
:1031D00040B9F24804600846006801280DD1FFF7A5
:1031E000C9FF0AE0EE48006838B9EC480068C06AD8
:1031F000E16A884201D8E9480460EA480068401C56
:10320000E849086008460068606494F82C100120C2
:103210008840E54909680843E3490860E16A01EB31
:103220008101D54A02EB8100211DFFF7BBFB01F0B4
:103230006BFBDB48006868B1D8480068C06AE16A87
:10324000884207D24FF08050D8490860BFF34F8FB3
:10325000BFF36F8F10BD2DE9F05F81460E46174614
:103260009A46DDF828800C9CB900A522206B01F05D
:10327000B1FC781E216B01EB800B2BF0070B0025B6
:1032800007E0715D04F134004155705D00B902E062
:103290006D1C102DF5D300BF002143200155B8F15E
:1032A000060F01D34FF00508C4F82C80201DFFF74E
:1032B00076FB04F11800FFF772FB2461C8F10600E9
:1032C000A06164620020E064206584F854005246E6
:1032D0004946584601F0DDFA20600B9808B10B987A
:1032E0000460BDE8F09F2DE9FF4F85B08046894618
:1032F0001746DDE912ABB800FFF7E0FA064656B113
:103300005820FFF7DBFA04460CB1266304E0304690
:10331000FFF705FB00E000247CB10020CDE900AB05
:10332000CDE902403A4649464046089BFFF793FFE5
:103330002046FFF742FF012501E04FF0FF35284608
:1033400009B0BDE8F08F92490968096809B90121FF
:1033500000E0002121B14FF0FF31954A116006E0F5
:103360008B490968C968C868914A4168116070470B
:1033700010B50446206BFFF7D2FA2046FFF7CFFACC
:1033800010BD70B5054601F0B0FA15B98348006864
:1033900000E028460446201DFFF72AFB78B9E06AC2
:1033A00000EB8000744951F8200040B994F82C10CB
:1033B000012088407C49096881437B480160A06AFC
:1033C00018B104F11800FFF713FB76480068401CA1
:1033D0007449086071480068844209D1211D6A4817
:1033E000FFF7E0FA73480068401C7249086009E082
:1033F00069480068401E684908602046FFF7B8FF2A
:10340000FFF7A1FF01F080FA6548006858B16348F2
:103410000068844207D14FF0805064490860BFF3D0
:103420004F8FBFF36F8F70BD2DE9F04100276248C9
:103430000068002863D161480068451C5F4805604A
:103440008DB95348D0F80080524800685049086050
:103450005048C0F800805A480068401C584908602D
:10346000FFF771FF00BF5248006885423BD300BFA1
:1034700047480068006808B9012000E0002020B13A
:103480004FF0FF304A4908602CE041480068C068AE
:10349000C4686668B54202D24548066022E0201D35
:1034A000FFF7A6FAA06A18B104F11800FFF7A0FA16
:1034B00094F82C10012088403B49096808433A4998
:1034C0000860E16A01EB81012B4A02EB8100211DBA
:1034D000FFF768FA3149E06A0968C96A8842C7D3C8
:1034E0000127C5E700BF2D480068C06A00EB8000D7
:1034F000214951F82000012800D9012704E0314872
:103500000068401C2F4908602F48006800B101275F
:103510003846BDE8F08170B50024002601F0E5F9D9
:1035200025480068401E24490860084600680028B5
:103530007AD119480068002876D04FE01148C06859
:10354000C46804F11800FFF753FA201DFFF750FA82
:1035500094F82C1001208840134909680843124947
:103560000860E16A01EB8101034A02EB8100211D41
:10357000FFF718FA094929E0C42800203C29002057
:103580005029002064290020782900208C2900205F
:103590004C0000205000002058000020480000206F
:1035A00064000020740000206000002004ED00E0B2
:1035B0007800002054000020800000205C000020E3
:1035C00070000020680000206C000020E06A09689C
:1035D000C96A884202D30120FE490860FE4800689B
:1035E00008B9012000E000200028A7D00CB1FFF7A7
:1035F000AAFEFA48056865B100BFFFF715FF10B1D4
:103600000120F44908606D1E002DF6D10020F34919
:103610000860F048006838B101263007F0490860BA
:10362000BFF34F8FBFF36F8F01F06EF9304670BD5F
:103630002DE9F04105460E46EA480768EA48006869
:10364000001DFFF7D5F950B9E748006890F82C1035
:1036500001208840E54909688143E4480160681C0D
:1036600038B936B1E0480168091DE148FFF79AF919
:103670001AE07C19DC4800684460BC4207D2DA4892
:103680000168091DDB480068FFF798F90CE0D6488F
:103690000168091DD8480068FFF790F9D74800680D
:1036A000844201D2D5480460BDE8F081D448006866
:1036B000401CD349086070472DE9F047044688460E
:1036C0004FF00009FFF7F2FFC6480668206800EBDC
:1036D00008052068B04207D92068A8420BD9B54236
:1036E00009D94FF0010906E02068A84201D8B54287
:1036F00001D94FF001092560B9F1000F03D0A81BD3
:103700000021FFF795FFFFF706FF07463FB94FF08F
:103710008050B3490860BFF34F8FBFF36F8FBDE890
:10372000F08770B50446002544B1FFF7BFFF0021C4
:103730002046FFF77DFFFFF7EEFE05463DB94FF04F
:103740008050A7490860BFF34F8FBFF36F8F70BDE4
:103750002DE9F04106463746A3480068874201D16B
:1037600000241EE001F0C1F87D6901F0CDF8A24807
:103770000068854203D09F480068854201D1022439
:103780000FE09B48854205D1B86A08B9032408E0D8
:10379000022406E09B48854200D00DB9042400E0D5
:1037A00001242046BDE8F08170B5044601F09DF883
:1037B00014B98D48006800E020460646F56A01F01D
:1037C000A3F8284670BD70B5024600BFBF25EFF3D1
:1037D000118485F31188BFF34F8FBFF36F8F00BF44
:1037E000214612B9804C246800E014462346D86A6A
:1037F00000BF81F3118800BF70BD2DE9F0478046FE
:103800000D464FF00009062D00D3052501F06DF897
:10381000B8F1000F02D17448006800E04046044649
:10382000E66AAE4251D0B5420BD96F480068844277
:103830000DD06D480068C06AA84208D84FF0010951
:1038400005E069480068844201D14FF00109E76A48
:10385000E562A06900F0004010B9C5F10600A06162
:1038600007EB8701684A02EB81016069884201D158
:10387000012000E00020E0B1201DFFF7B9F830B9C9
:103880000120B8405949096881435848016094F8BB
:103890002C100120884055490968084353490860A5
:1038A000E16A01EB8101584A02EB8100211DFFF71B
:1038B00079F8B9F1000F07D04FF0805048490860FF
:1038C000BFF34F8FBFF36F8F00BF01F01DF8BDE84E
:1038D000F08710B5044604F134024C494CA001F0C5
:1038E000EBFC10BD10B54648006818B101203949FD
:1038F00008603AE00020374908604B4800684B49AF
:103900000860084600684A49096888420BD9364968
:10391000096801F14C00C96C444A1268444B1B68A9
:10392000D21A1144016041480068414908602F489B
:103930000068B0FA80F0C0F11F0101EB8102324B48
:1039400003EB820042685268426000F1080243685B
:10395000934202D14268526842604268D268224B68
:103960001A6018460068FFF7B4FF10BD70B5054631
:1039700000F0BBFF15B91C48006800E0284604466B
:10398000201DFFF735F878B9E06A00EB80001E498A
:1039900051F8200040B994F82C10012088401349B8
:1039A0000968814311480160A06A18B104F1180048
:1039B000FFF71EF8211D0E48FEF7F4FF00F0A4FFEC
:1039C0001C48006828B100F090FFFFF7BCFC00F035
:1039D0009BFF31E06C00002064290020680000207B
:1039E00004ED00E05C0000204800002060000020A2
:1039F0008C290020500000204C000020780000207E
:103A00008000002078290020C42800200E5C0008D7
:103A100025733A2070635461736B4E616D65203D70
:103A20002025730D0A0000002800002088000020D7
:103A30008400002064000020FE480068844217D102
:103A4000FD48006840B14FF08050FC490860BFF36A
:103A50004F8FBFF36F8F0BE0F9480068F949096891
:103A6000884203D10020F349086001E0FFF73AFFE4
:103A700070BD10B5014600200A46F14C5369A342BF
:103A800001D1012300E0002373B1EF4C936AA342FC
:103A900001D1012300E0002333B9936A0BB901235C
:103AA00000E0002303B1012010BD70B505462C468F
:103AB00074B3E048006884422AD000F016FF204624
:103AC000FFF7D7FF10B3201DFEF792FF94F82C10DC
:103AD00001208840DD4909680843DC490860E16A43
:103AE00001EB8101DA4A02EB8100211DFEF75AFF4A
:103AF000D049E06A0968C96A884207D34FF080500C
:103B0000CE490860BFF34F8FBFF36F8F00F0FCFE0C
:103B100070BD2DE9F04106460027344600BFBF21A5
:103B2000EFF3118081F31188BFF34F8FBFF36F8FD5
:103B300000BF05462046FFF79CFF20B3C54800683C
:103B4000E0B9BC49E06A0968C96A884200D3012724
:103B5000201DFEF74DFF94F82C1001208840BB4932
:103B600009680843B9490860E16A01EB8101B84A74
:103B700002EB8100211DFEF715FF04E004F118019E
:103B8000B148FEF70FFF00BF85F3118800BF38462C
:103B9000BDE8F08170B523E0FFF788FDAE4800680E
:103BA00008B9012000E000200546FFF7B4FCBDB9CC
:103BB00000F09BFEA848C068C468201DFEF718FFEF
:103BC000A0480068401E9F490860A4480068401E45
:103BD000A249086000F098FE2046FFF7C9FB00BF2D
:103BE0009E4800680028D7D170BD00BFFFF7D2FF04
:103BF00097480068012807D94FF080508F49086026
:103C0000BFF34F8FBFF36F8FFCF7BCFBEEE71CB524
:103C1000934800210B468022CDE9001091A19348E2
:103C2000FFF761FB0446012C02D100F09AFD044627
:103C3000012C16D100BFBF2080F31188BFF34F8F36
:103C4000BFF36F8F00BF4FF0FF308949086001203C
:103C5000794908600020874908608749086000F0BA
:103C60002EFE1CBD10B500BFBF2080F31188BFF32E
:103C70004F8FBFF36F8F00BF00206F49086000F0C7
:103C800033FE10BD7B49086870470021794A1068EF
:103C900070476C4800687047014611B96548006874
:103CA00000E00846024602F1340070470246002157
:103CB00001E0521C491C1078A528FAD0890888B266
:103CC00070472DE9F04107460C4690461E4617B94D
:103CD0005848006800E038460546256005F1340084
:103CE0006060E86A2061286BE061686CA060207BFE
:103CF000032807D1FFF7DAFCA86A08B10220207375
:103D0000FFF709FC00206061E86CA061052E01D07E
:103D1000267303E03846FFF71BFD2073B8F1000F50
:103D200004D0286BFFF7C2FF208401E0002020842C
:103D3000BDE8F0812DE9F04707460C469046002685
:103D4000206848B3204641684968416000F1080195
:103D500042688A4202D14168496841604168D1F8AD
:103D60000C9000BF204641684968416000F108019D
:103D700042688A4202D14168496841604168CD6821
:103D800006EBC60007EB8001434601222846FFF7F9
:103D900098FF761C4D45E5D13046BDE8F0872DE90A
:103DA000F04105468846164600240627FFF77EFCAC
:103DB0002448006880453AD300BF7F1E07EB870286
:103DC000234B03EB820104EBC40205EB82000122CA
:103DD000FFF7B0FF0444002FEFD104EBC40105EB63
:103DE0008100022225490968FFF7A4FF044404EB7F
:103DF000C40105EB8100022221490968FFF79AFFFF
:103E0000044404EBC40105EB810004221249FFF7CE
:103E100091FF044404EBC40105EB8100032208492F
:103E2000FFF788FF044416B1134800683060FFF7BD
:103E300072FB27E0480000206400002004ED00E051
:103E40008C290020580000206429002060000020F8
:103E5000C428002080000020782900205400002081
:103E60007C00002049444C4500000000EB3B00086A
:103E7000780000205C000020280000204C0000207A
:103E8000500000202046BDE8F08170B505460C4684
:103E9000FC48016818312846FEF790FD01212046B4
:103EA000FFF7C6FB70BD70B506460C46154644F0DC
:103EB0000040F44909688861F248016818313046C9
:103EC000FEF770FD01212846FFF7B2FB70BD70B50B
:103ED00006460D461446EB48016818313046FEF799
:103EE00061FD0CB14FF0FF3521462846FFF7A0FBDE
:103EF00070BD70B50646F068C46804F11800FEF79E
:103F000077FDE1480068A8B9201DFEF771FD94F81F
:103F10002C1001208840DD4909680843DB4908600E
:103F2000E16A01EB8101DA4A02EB8100211DFEF713
:103F300039FD04E004F11801D648FEF733FDD149FC
:103F4000E06A0968C96A884204D901250120D2497A
:103F5000086000E00025284670BD2DE9F0410546C7
:103F60000F4647F000402860EC682846FEF740FD09
:103F7000201DFEF73DFD94F82C1001208840C34918
:103F800009680843C1490860E16A01EB8101C04A40
:103F900002EB8100211DFEF705FDBA49E06A0968C0
:103FA000C96A884204D901260120BB49086000E0A3
:103FB00000263046BDE8F081B84909680160B8497B
:103FC00009684160704770B504460D4600F08DFCED
:103FD000B34802682868401C08B9002619E0AF49B8
:103FE00020680968884204D06068904201D80126A0
:103FF0000FE06068101A2968884209D22868616851
:10400000511A401A28602046FFF7D6FF002600E02C
:10401000012600F079FC304670BD01209E49086001
:104020007047014611B10A46906C00E000207047CD
:1040300008B10246916470472DE9F041044614B975
:104040009048006800E0204607463D6B2846FFF791
:104050002DFE06463046BDE8F0819249096809B94F
:10406000012005E08849096809B9022000E0002024
:10407000704784490968886982490968C96AC1F139
:104080000601804A12689161704770B506460D4678
:1040900000F02BFC7B480068006D88B9012079494D
:1040A000096881F854005DB101212846FFF7C0FA84
:1040B0004FF080507C490860BFF34F8FBFF36F8F84
:1040C00000F022FC00F011FC6E480068046D4CB159
:1040D00026B100206B490968086503E0601E694944
:1040E0000968086500206749096881F8540000F0F4
:1040F0000BFC204670BD2DE9F0410746884614466A
:104100001D4600F0F2FB5F48006890F8540002285A
:1041100018D05C49096801F15000096DB94301608C
:1041200001205849096881F854005DB101212846F1
:10413000FFF77EFA4FF080505B490860BFF34F8F66
:10414000BFF36F8F00F0E0FB00F0CFFB1CB14D48D8
:104150000068006D20604B48006890F8540001280A
:1041600001D1002608E04749096801F15000096DB6
:1041700021EA08010160012600204249096881F80E
:10418000540000F0C1FB3046BDE8F0812DE9F04756
:1041900081460D4616461F464FF0010A4C4600F078
:1041A000A4FB0FB1206D386094F85480022084F88D
:1041B0005400052E17D2DFE806F01503070B0D009B
:1041C000206D284320650EE0206D401C20650AE02C
:1041D000256508E0B8F1020F01D0256501E04FF038
:1041E000000A00E000BF00BFB8F1010F22D1201D7E
:1041F000FEF7FEFB94F82C10012088402349096843
:10420000084322490860E16A01EB8101204A02EB80
:104210008100211DFEF7C6FB1A49E06A0968C96AD8
:10422000884207D94FF080501F490860BFF34F8F75
:10423000BFF36F8F00F068FB5046BDE8F0872DE9B3
:10424000F84F82460D4616461F46DDF828B001207D
:104250000090544600BFBF21EFF3118081F3118815
:10426000BFF34F8FBFF36F8F00BF81460FB1206D3B
:10427000386094F85480022084F85400052E2DD222
:1042800014E00000480000208000002060000020B2
:10429000C4280020642900206C0000207000002049
:1042A0005C0000206400002004ED00E0DFE806F080
:1042B0001503070B0D00206D284320650EE0206DCF
:1042C000401C20650AE0256508E0B8F1020F01D026
:1042D000256501E00020009000E000BF00BFB8F1BC
:1042E000010F2DD14C480068A8B9201DFEF780FBB6
:1042F00094F82C1001208840484909680843474930
:104300000860E16A01EB8101454A02EB8100211D51
:10431000FEF748FB04E004F118014248FEF742FBB7
:104320004149E06A0968C96A884209D9BBF1000FAE
:1043300003D00120CBF8000002E001203B490860D7
:1043400000BF89F3118800BF0098BDE8F88F2DE900
:10435000F04105460E462C4600BFBF21EFF3118009
:1043600081F31188BFF34F8FBFF36F8F00BF0746F4
:1043700094F85480022084F85400206D401C20657D
:10438000B8F1010F2AD124480068A8B9201DFEF712
:104390002FFB94F82C10012088402049096808431D
:1043A0001E490860E16A01EB81011D4A02EB8100B0
:1043B000211DFEF7F7FA04E004F118011948FEF791
:1043C000F1FA1949E06A0968C96A884206D916B142
:1043D0000120306002E001201449086000BF87F32B
:1043E000118800BFBDE8F08170B5054615B90E48CB
:1043F000006800E02846064600F077FA96F8540078
:10440000022804D1002086F85400012400E0002492
:1044100000F07AFA204670BD800000206000002085
:10442000C428002064290020480000206C000020DF
:104430002DE9F04104460D4616461F464FF0000890
:1044400065602461B5420CD8F01BA169884202D393
:104450004FF0010811E0211DF8480068FEF7AEFAA0
:104460000BE0BE4204D2BD4202D34FF0010804E08B
:10447000211DF3480068FEF7A1FA4046BDE8F0812F
:104480002DE9FE4305460C4616461F46DDF82880FA
:104490004FF00009EB48006810B3009401960295B4
:1044A000062C15DAFFF7D9FD022808D10023424671
:1044B0006946E4480068FEF7A0FB814610E000234F
:1044C0001A466946DF480068FEF797FB814607E019
:1044D00000233A466946DB480068FEF718FC81462F
:1044E0004846BDE8FE832DE9F84326E0D44800683D
:1044F000C0680568D2480068C068C468201DFEF71F
:1045000077FA2046616A8847E069012815D1A069D9
:104510004619AE4207D966602461211DC84800686B
:10452000FEF74CFA09E0002003462A4601460090B7
:104530002046FFF7A5FF804600BFC148006800681D
:1045400008B9012000E000200028CFD0BC4807684F
:10455000BA480068BA490860B8480760BDE8F883FF
:1045600070B50446FFF78EFB0546B74800688542E4
:1045700004D2FFF7B8FF0120206001E00020206096
:10458000B1480560284670BD70B586B04DE003980F
:1045900000284ADB059C606908B9012000E0002082
:1045A00010B9201DFEF724FA02A8FFF7D9FF05462F
:1045B00003980A2837D2DFE800F0090507252732DB
:1045C0000608262800BF00BF00BF00BF0498A269EC
:1045D000811803462A462046FFF72AFF88B1204665
:1045E000616A8847E06901280BD100200090049897
:1045F000A1694218002319462046FFF741FF0646ED
:1046000000BF11E000BF0FE000BF0498A061A069E7
:1046100041192B462A462046FFF70AFF04E02046B0
:10462000FEF77DF900E000BF00BF00231A4603A992
:1046300084480068FEF70EFC0028A8D106B070BDC3
:10464000F8B505460E467E480068C068C468201D5F
:10465000FEF7CEF9E069012811D1A06941192B4676
:1046600032462046FFF7E4FE48B1002003462A46C2
:10467000014600902046FFF703FF074600BF204693
:10468000616A8847F8BDF8B505460C46FFF70EF895
:104690006846FFF765FF0646009820BB44B9B5425F
:1046A00006D8FEF738FF31462846FFF7C9FF1CE061
:1046B0003CB162480068006808B9012000E00020B1
:1046C0000446A91B22465F480068FEF706FDFEF778
:1046D00022FF50B94FF080505C490860BFF34F8F04
:1046E000BFF36F8F01E0FEF716FFF8BD0146544A95
:1046F000126812680AB9012200E000220A600A6802
:1047000022B94F4A1268D268106800E00020704752
:1047100008B500BF6846FFF7E9FF04462046009948
:10472000FFF7B1FFFFF730FFF4E710B500F0DDF859
:104730004448006890B94648FEF724F94548FEF71A
:1047400021F943483E49086042483C49086000223C
:104750000C210320FEF7B2F93A49086000F0D4F8C2
:1047600010BD1CB50024FFF7E0FF3648006858B1C3
:104770003948052100234FF48072CDE9001037A19C
:104780003848FEF7B0FD044620461CBD2DE9F04731
:1047900005460E4617469846DDE908945CB1FFF7DA
:1047A000C4FF2560A661E761C4F82080C4F82490A6
:1047B000201DFEF7F4F8BDE8F0872DE9FC4705461B
:1047C0000E4617469846DDF828902C20FEF776F81E
:1047D00004463CB143463A4631462846CDE900946A
:1047E000FFF7D4FF2046BDE8FC871B4800687047F0
:1047F00001460A469069704701460A46506870476C
:1048000001460A461068704770B50446264600F017
:104810006CF8706908B9012000E0002080F0010503
:1048200000F072F8284670BD70B50446264600F0C8
:104830005CF8356A00F068F8284670BD90000020EA
:104840008C000020940000209C00002004ED00E07B
:10485000A0290020B429002098000020546D722067
:10486000537663001147000870B504460D4626468E
:1048700000F03BF8356200F047F870BD00BFBF2084
:1048800080F31188BFF34F8FBFF36F8F00BF00BF5E
:10489000FEE7001F4FF080730360001F21F001034B
:1048A0000360001F2B4B03601438026020387047F0
:1048B00029484FF0E021486107200861704710B592
:1048C0002648006840F47F002449086008460068D4
:1048D00040F07F400860FFF7EBFF002020490860B0
:1048E000FBF742FC002010BD704700BFBF2080F3E3
:1048F0001188BFF34F8FBFF36F8F00BF1848006858
:10490000401C17490860704715480068401E14494C
:1049100008600846006820B9002080F3118800BFB5
:1049200000BF704710B500BFBF2080F31188BFF3F0
:104930004F8FBFF36F8F00BFFEF776FD20B14FF0B2
:10494000805006491C39086000BF002080F31188A0
:1049500000BF10BD7D4800083F19010020ED00E0B8
:10496000A000002070B503460C4603E014F8015B7C
:1049700003F8015B1500A2F10102F7D170BD30B55B
:10498000034601E003F8011B1400A2F10102F9D172
:1049900030BD10B50446824951F824104A008149BF
:1049A00051F824000021FFF7EAFF7F4951F8242045
:1049B0007C49083951F824000021FFF7E0FF01216C
:1049C00078480830015510BD10B50146002300227B
:1049D00007E0744850F8210030F8120000B15B1C69
:1049E000521C6F4850F821009042F2D8642058437E
:1049F0006B4C54F82140B0FBF4F0C0B210BD2DE96F
:104A0000F04704460F460025A94666480830005D79
:104A100020B9644810380168204688471FB94FF014
:104A2000FF30BDE8F087614850F82400B7FBF0F68E
:104A30005E4850F82400B7FBF0F100FB117000B1A4
:104A4000761C574850F82400451E20E0554850F881
:104A5000240030F8150010B909F1010901E04FF008
:104A60000009B14512D14FF0000808E04D4850F858
:104A7000240005EB080220F8126008F10108B04597
:104A8000F4D34A4850F824006843CAE76D1E002D4D
:104A9000DCDA4FF0FF30C4E72DE9F04104460E4662
:104AA00040480830005D38B93E481038016820465B
:104AB00088470120BDE8F0813B4850F82400B0420F
:104AC00017D93A4850F82400B6FBF0F1354850F8B1
:104AD000240030F81120002507E00023314850F869
:104AE00024004F1920F817306D1C9542F5DB00208B
:104AF000E0E70220DEE770B505460C4604B970BD5C
:104B0000FEF7D4FD2748083850F82500261A31460C
:104B10002846FFF7C1FFFEF7FEFC00BFEFE770B5C8
:104B200004460E46FEF7C2FD31462046FFF767FFFA
:104B30000546FEF7F0FC681C08B9002070BD194856
:104B4000083850F824002844F8E72DE9F0410446DD
:104B50000F461646FEF7AAFD31462046FFF74FFFE7
:104B60000546FEF7D8FC681C10B90020BDE8F081AE
:104B7000FEF79CFD0B49083951F8241048193246BC
:104B80003946FFF7EFFE39462046FFF7B4FFFEF740
:104B9000C2FC0448083850F824002844E6E7000026
:104BA000205C0008B4000020305C0008285C00088D
:104BB00040EA01039B0703D009E008C9121F08C09F
:104BC000042AFAD203E011F8013B00F8013B521E1F
:104BD000F9D27047D2B201E000F8012B491EFBD296
:104BE00070470022F6E710B513460A4604461946F8
:104BF000FFF7F0FF204610BD421C10F8011B0029F2
:104C0000FBD1801A704780EA010210B502F0004320
:104C1000400022D04A001FD0010E01EB1261C0F308
:104C20005600C2F3560240F4000042F40002A0FB1A
:104C3000022000047F39140400D0401C50EA1240C6
:104C400001D44000491EC2B20C0604EBD010401C37
:104C50004008802A02D003E0002010BD20F00100AF
:104C6000002900DA0020184310BD30B480EA0102A8
:104C700002F0004530F0004221F0004013D090B126
:104C8000C30DD40DC2F31601C0F31600E41A41F4AB
:104C9000000140F400027D34914201D3641C00E025
:104CA0004900002C02DA30BC002070474FF40000AD
:104CB0000023914201D3891A034340084FEA41017E
:104CC000F7D151B1914202D14FF0004105E002D23B
:104CD0004FF0010101E06FF0010103EBC4502844E3
:104CE00030BC00F05FB896230022114600F063B894
:104CF00000F0004230F000400AD0C10D01F56071B3
:104D0000C0F3160042EA0151C20840071143704740
:104D100000200146704730B50B4601460020202296
:104D2000012409E021FA02F59D4205D303FA02F5B8
:104D3000491B04FA02F52844151EA2F10102F1DC18
:104D400030BD2DE9F05F0546002092469B4688461F
:104D50000646814640241BE02846414647462246F7
:104D600000F02DFA53465A46C01A914110D311460D
:104D70001846224600F014FA2D1A67EB01084F4638
:104D800022460120002100F00BFA17EB00094E41EA
:104D9000201EA4F10104DFDC484631462A46434682
:104DA000BDE8F09F0029A8BF7047401C490008BF1C
:104DB00020F00100704710B4B0FA80FC00FA0CF04B
:104DC00050EA010404BF10BC704749B1CCF1200483
:104DD00021FA04F411FA0CF118BF01212143084310
:104DE000A3EB0C01CB1D4FEA00614FEA102042BF3C
:104DF000002010BC704700EBC35010440029A4BF32
:104E000010BC7047401C490008BF20F0010010BCD6
:104E100070472DE9FE4F804681EA0300C00F0C4623
:104E2000009021F0004123F00045B8EB0200A941B9
:104E300005D24046214690461C460B46024623F0CA
:104E40000040104347D0270DC7F30A00C3F30A51AF
:104E50000290401A019040286BDAC3F3130040F42B
:104E6000801B0098924620B10023D2EB030A63EB2B
:104E70000B0B01985946C0F14002504600F090F9E2
:104E800006460D4650465946019A00F0A8F910EB27
:104E900008006141002487EA115284EAE7731A434B
:104EA00040D0009A62B3019A012A4FEA075215DCFA
:104EB000001B61EB02014FF0004202EA0752CDE90C
:104EC0000042001C41F5801132462B4600F0A6F945
:104ED00003B0BDE8F08F40462146F9E7001B61EBC7
:104EE0000201001C41F5801300185B412018A2F557
:104EF000001747EB030140EAD570B6196D4111E088
:104F00006D084FEA360645EAC0754FEA0752001BA6
:104F100061EB0201001C41F5801149084FEA3000A5
:104F20000019514132462B4603B0BDE8F04F00F066
:104F300068B90098012240000023D0EB020263EB25
:104F4000E073009821464FEAE074B8EB000061EB93
:104F50000401E9E783F000435BE781F0004158E793
:104F60002DE9FE4F81EA030404F0004421F00041E2
:104F700000944FF0000B23F0004350EA01045ED090
:104F800052EA03045BD0C3F30A54C1F30A552C441C
:104F9000A4F2F3340194A0FB0254C1F3130141F4D1
:104FA0008011C3F3130343F4801301FB024400FB9D
:104FB000034E840A970A44EA815447EA8357A4FBC4
:104FC000076802958D0A05FB07854FEA932C04FBC1
:104FD0000C542705029D4FEA065847EA1637B5EBF1
:104FE00008056EEB070C870E920E47EA811742EA1E
:104FF0008312A7FB0201B6EB0B0164EB00042B0D3F
:1050000043EA0C335E1844EB1C50DA465146E7FB8A
:105010000201C5F313044FEA0B3343EA14534FEA7A
:105020000432019C43EA0603A4F10C040294009CA0
:10503000CDE900B400F0F2F803B0BDE8F08F002035
:105040000146F9E72DE9F04D81EA030404F0004B35
:1050500021F0004514464FF0000A23F0004150EAC9
:10506000050220D054EA01021DD0C5F30A570246BA
:10507000C5F31303C1F31300C1F30A5640F48015BE
:1050800043F48013A7EB0608101BD64608F2FD3840
:1050900073EB050002D308F1010801E092185B41AF
:1050A000B8F1000F03DA00200146BDE8F08D0020C2
:1050B0004FF48011064684460EE0171B73EB05077C
:1050C00005D3121B63EB050306434CEA010C4908A8
:1050D0004FEA300092185B4150EA0107EDD152EAE5
:1050E000030012D082EA040083EA0501084305D0D8
:1050F000101BAB4106D20122002306E000224FF034
:10510000004302E06FF0010253101AEB06004CEB73
:10511000085110EB0A0041EB0B01BDE8F04D00F027
:1051200070B8C1F30A52C1F3130140F2FF3341F4E6
:1051300080119A4202DA00200146704740F2334360
:105140009A42A2F2334202DC524200F038B800F038
:1051500027B8000030B5002904DB4FF0004440427E
:1051600064EB0101002B04DB4FF00044524264EB7E
:105170000303994208BF904230BD0000064C074D22
:1051800006E0E06840F0010394E807009847103417
:10519000AC42F6D3FAF7D0FFCC5C0008EC5C000818
:1051A000202A04DB203A00FA02F1002070479140E7
:1051B000C2F1200320FA03F3194390407047202ADC
:1051C00004DB203A21FA02F00021704721FA02F3B1
:1051D000D040C2F120029140084319467047202A6E
:1051E00006DBCB17203A41FA02F043EAE07306E00F
:1051F00041FA02F3D040C2F120029140084319461F
:10520000704710B5002B08DA401C41F100019218DC
:105210005B411A4301D120F0010010BD2DE9F04D92
:1052200092469B4611B1B1FA81F202E0B0FA80F2E7
:1052300020329046FFF7B4FF04460F4640EA0A00CA
:1052400041EA0B0153465A46084313D0114653EA2C
:10525000010019D0C8F140025046FFF7B0FF0546E3
:105260000E46504659464246FFF79AFF084305D07E
:10527000012004E020463946BDE8F08D00200543BA
:1052800046EAE0762C4337430A986305E40AA0EB2C
:1052900008000022FD0A44EA47540A3002D50020E3
:1052A0000146E9E7010510196941DDE908450019E2
:1052B0006941BDE8F04DA4E70FB4054B10B503A953
:1052C000044A029800F0DEF810BC5DF814FB000000
:1052D000930C0008C00000200FB4084B10B504A9BF
:1052E00002AA039800F0CEF8044602A9002000F0BC
:1052F00060FC204610BC5DF814FB0000B35B0008A6
:1053000002E008C8121F08C1002AFAD1704770478E
:10531000002001E001C1121F002AFBD170470000EC
:105320002DE9FF5FDDE90220010DDDF838B0024311
:1053300018D044F61050A1F2FF3141430D140F98DC
:10534000012820D0A5EB0B00401C5FEA000A4FF0BB
:105350000004474EDFF81C91A046504616D5CAF10E
:10536000000728E00F98012443A2012808D000215B
:1053700000980F9BC0E90021C0E90243BDE8FF9FF0
:105380006FEA0B01F4E7CBF10000DEE7074612E01D
:10539000F80707D02246334640464946FFF7E0FD6E
:1053A000804689462246334610461946FFF7D8FD07
:1053B00004460E467F10002FEAD1DDE90201BAF162
:1053C000000F42464B4602DAFFF7CAFD01E0FFF745
:1053D00039FE04460E460022284BFFF7BBFE03D8D9
:1053E0004FF0FF30014607E00022254B20463146B2
:1053F000FFF70FFDFFF795FE102409E0002C0ADBF4
:105400000A220023FFF79DFC019B30321A55641ECF
:1054100050EA0102F2D1641C019AC4F11103144450
:105420000F9A012A03D0012208430DD10AE0084354
:1054300004D000204FF0110B0F9080E7A3EB0B0579
:105440006D1E0DE05B4504DD4FF0000205F1010526
:1054500004E003DA4FF00002A5F10105002AECD0C8
:1054600000980F99C0E90231C0E9004586E70000C5
:10547000000024400000F03F300000000000F04336
:105480000000E03F2DE9FF4F95B09B468946064658
:1054900000250FE2252877D100242746F84A01216C
:1054A000059400E0044316F8013F203B01FA03F0A5
:1054B0001042F7D130782A2811D06FF02F033078BE
:1054C000A0F13002092A16D8059A44F0020402EB32
:1054D000820203EB42021044761C0590EFE759F874
:1054E000042B0592002A03DA504244F4005405903C
:1054F00044F00204761C30782E2816D116F8010FDD
:1055000044F004042A280DD06FF02F023078A0F167
:105510003003092B09D807EB870302EB4303C718B5
:10552000761CF3E759F8047B761C30786C280FD092
:1055300006DC4C2817D068280DD06A2814D104E066
:10554000742810D07A280FD10DE044F400140AE03A
:1055500044F4801401E044F440147278824202D191
:1055600004F58014761C761C307866280BD013DC8A
:10557000582877D009DC002875D04528F6D0462871
:10558000F4D047281AD19DE118E0632835D064286B
:1055900079D0652812D195E1702873D008DC67288E
:1055A000F1D069286FD06E280DD06F2806D1B5E0F4
:1055B00073282CD0752875D0782874D05A4617993E
:1055C00090476D1C75E1C4F30250022809D00328EE
:1055D0000DD0D9F8001004280DD00D6009F1040990
:1055E00067E1D9F80010EA17C1E90052F6E7D9F8E7
:1055F00000100D80F2E70D70F0E719F8041B8DF82C
:10560000001000208DF80100EA46012003E059F85F
:1056100004AB4FF0FF3061074FF0000102D40DE002
:1056200008F101018846B9420FDA8045F8DB1AF823
:1056300008100029F4D108E008F1010188468142F0
:10564000FADB1AF808100029F6D105985B46A0EBA2
:10565000080721463846179A00F094FA284400EBD0
:10566000080507E04DE029E10DE01AF8010B5A4664
:1056700017999047B8F10108F7D25B4621463846A2
:10568000179A13E142E00A220092C4F302524FF04B
:10569000000A022A08D059F804CB032A4FEAEC7119
:1056A0000AD00DE029E02AE009F1070121F0070204
:1056B000F2E802C1914609E00FFA8CFC4FEAEC7166
:1056C000042A03D14FFA8CFC4FEAEC71002907DA67
:1056D0000A460021DCF1000C61EB02012D2202E000
:1056E000220504D52B228DF80420012203E0E207D5
:1056F00001D02022F7E7904659E00A2102E010226B
:105700000DE010214FF0000A00910BE010224FF045
:10571000000A44F004040827009203E008224FF036
:10572000000A0092C4F30252022A05D059F804CBB1
:105730000021032A08D009E009F1070121F007023E
:10574000F2E802C1914605E01FFA8CFC042A01D15F
:105750000CF0FF0C4FF00008220728D5702806D067
:10576000009B83F0100353EA0A0305D00EE04022A9
:105770008DF80420012208E05CEA010206D0302204
:105780008DF804208DF8050002229046009B83F0DE
:10579000080353EA0A030AD15CEA010201D1620755
:1057A00005D530228DF804204FF001087F1E5828BF
:1057B00004D034A003900EA802900DE036A0F9E7C3
:1057C00053466046009AFFF7BCFA84460398825C11
:1057D0000298401E029002705CEA0100F0D102982B
:1057E00006A9081A00F1200A600702D524F48034C3
:1057F00000E00127574502DDA7EB0A0000E000208A
:1058000000EB0A01009005984144401A0590E0031E
:1058100006D45B462146179A059800F0B3F9054473
:10582000002706E001A85A46C05D179990476D1CF5
:105830007F1C4745F6DBE0030CD55B462146179AF3
:10584000059800F09FF9054404E030205A46179966
:1058500090476D1C0099481E00900029F5DC08E077
:10586000029802995A460078491C0291179990476C
:105870006D1CBAF10001AAF1010AF1DC65E100003A
:105880000928010030313233343536373839616216
:1058900063646566000000003031323334353637DA
:1058A00038394142434445460000000000F058F9B1
:1058B0000544761C307800287FF4ECAD19B02846FA
:1058C000BDE8F08F620700D4062709F1070222F035
:1058D000070CFCE80223E14603F000485FEA080CED
:1058E00002D00FF2702C0DE05FEA045C02D50FF2DB
:1058F000682C07E05FEAC47C02D00FF2602C01E064
:10590000AFF2700C4FF0FF3823F00043CDF850C0D9
:1059100065280CD006DC452809D046281DD047282C
:105920003DD13DE0662818D067287ED138E00021BF
:10593000112F01DB112000E0781CCDE9000106A940
:105940000EA8FFF7EDFCDDE90F010E9A039100218F
:10595000009207F1010A04914DE04FF000400097DA
:10596000CDE9011006A90EA8FFF7DAFCDDE90F0268
:1059700003920E9B11990022DDF80CA00093049273
:1059800011B9791C00EB010AB7EB0A0004D4C0F18D
:10599000FF3007F1010A0490AAEB0700019044E0F0
:1059A000012F00DA01270021112F01DD112000E075
:1059B0003846CDE9000106A90EA8FFF7B1FCDDE9E4
:1059C0000F010E9A0391002104910092BA4621071B
:1059D0000CD40399514500DA8A46BAF1010F05DD6E
:1059E000009AAAF10101515C302908D0B84202DACC
:1059F00010F1040F06DA0121CDE9011015E0AAF13A
:105A00000101E9E7002805DC049901440491AAEBAF
:105A1000000102E0411C514500DD8A460499401A0C
:105A2000401C01904FF000400290200704D40198E0
:105A3000504501DBCDF8048000208DF84F0002981E
:105A40000DF14F07B0F1004F25D02B200E9002989A
:105A50004FF0020800280CDA404202902D200E90F0
:105A600007E00A210298FFF756F93031029007F853
:105A7000011DB8F10001A8F10108F2DC029800282C
:105A8000EFD1791E0E980870307800F0200040F0B9
:105A9000450007F8020D12A8C01B00F10708149872
:105AA000007800B1012000EB0A01019801EBE071E0
:105AB00005984144401A401E0590E00306D45B4619
:105AC0002146179A059800F05DF80544149800786F
:105AD00018B15A46179990476D1CE00324D55B46D0
